{
	"contracts/Twitter.sol": {
		"Twitter": {
			"abi": [
				{
					"inputs": [],
					"stateMutability": "nonpayable",
					"type": "constructor"
				},
				{
					"inputs": [],
					"name": "TWEET_MAX_LENGTH",
					"outputs": [
						{
							"internalType": "uint16",
							"name": "",
							"type": "uint16"
						}
					],
					"stateMutability": "view",
					"type": "function"
				},
				{
					"inputs": [
						{
							"internalType": "uint16",
							"name": "newTweetLength",
							"type": "uint16"
						}
					],
					"name": "changeTweetLength",
					"outputs": [],
					"stateMutability": "nonpayable",
					"type": "function"
				},
				{
					"inputs": [
						{
							"internalType": "string",
							"name": "_tweet",
							"type": "string"
						}
					],
					"name": "createTweet",
					"outputs": [],
					"stateMutability": "nonpayable",
					"type": "function"
				},
				{
					"inputs": [
						{
							"internalType": "address",
							"name": "_owner",
							"type": "address"
						}
					],
					"name": "getALLTweets",
					"outputs": [
						{
							"components": [
								{
									"internalType": "uint256",
									"name": "id",
									"type": "uint256"
								},
								{
									"internalType": "address",
									"name": "author",
									"type": "address"
								},
								{
									"internalType": "string",
									"name": "content",
									"type": "string"
								},
								{
									"internalType": "uint256",
									"name": "timestamp",
									"type": "uint256"
								},
								{
									"internalType": "uint256",
									"name": "likes",
									"type": "uint256"
								}
							],
							"internalType": "struct Twitter.Tweet[]",
							"name": "",
							"type": "tuple[]"
						}
					],
					"stateMutability": "view",
					"type": "function"
				},
				{
					"inputs": [
						{
							"internalType": "address",
							"name": "_owner",
							"type": "address"
						},
						{
							"internalType": "uint256",
							"name": "_i",
							"type": "uint256"
						}
					],
					"name": "getTweet",
					"outputs": [
						{
							"components": [
								{
									"internalType": "uint256",
									"name": "id",
									"type": "uint256"
								},
								{
									"internalType": "address",
									"name": "author",
									"type": "address"
								},
								{
									"internalType": "string",
									"name": "content",
									"type": "string"
								},
								{
									"internalType": "uint256",
									"name": "timestamp",
									"type": "uint256"
								},
								{
									"internalType": "uint256",
									"name": "likes",
									"type": "uint256"
								}
							],
							"internalType": "struct Twitter.Tweet",
							"name": "",
							"type": "tuple"
						}
					],
					"stateMutability": "view",
					"type": "function"
				},
				{
					"inputs": [
						{
							"internalType": "address",
							"name": "_author",
							"type": "address"
						},
						{
							"internalType": "uint256",
							"name": "_id",
							"type": "uint256"
						}
					],
					"name": "likeTweet",
					"outputs": [],
					"stateMutability": "nonpayable",
					"type": "function"
				},
				{
					"inputs": [],
					"name": "owner",
					"outputs": [
						{
							"internalType": "address",
							"name": "",
							"type": "address"
						}
					],
					"stateMutability": "view",
					"type": "function"
				},
				{
					"inputs": [
						{
							"internalType": "address",
							"name": "",
							"type": "address"
						},
						{
							"internalType": "uint256",
							"name": "",
							"type": "uint256"
						}
					],
					"name": "tweets",
					"outputs": [
						{
							"internalType": "uint256",
							"name": "id",
							"type": "uint256"
						},
						{
							"internalType": "address",
							"name": "author",
							"type": "address"
						},
						{
							"internalType": "string",
							"name": "content",
							"type": "string"
						},
						{
							"internalType": "uint256",
							"name": "timestamp",
							"type": "uint256"
						},
						{
							"internalType": "uint256",
							"name": "likes",
							"type": "uint256"
						}
					],
					"stateMutability": "view",
					"type": "function"
				},
				{
					"inputs": [
						{
							"internalType": "address",
							"name": "_author",
							"type": "address"
						},
						{
							"internalType": "uint256",
							"name": "_id",
							"type": "uint256"
						}
					],
					"name": "unlikeTweet",
					"outputs": [],
					"stateMutability": "nonpayable",
					"type": "function"
				}
			],
			"devdoc": {
				"kind": "dev",
				"methods": {},
				"version": 1
			},
			"evm": {
				"assembly": "    /* \"contracts/Twitter.sol\":176:2121  contract Twitter {... */\n  mstore(0x40, 0x80)\n    /* \"contracts/Twitter.sol\":375:378  280 */\n  0x0118\n    /* \"contracts/Twitter.sol\":342:378  uint16 public TWEET_MAX_LENGTH = 280 */\n  0x00\n  dup1\n  0x0100\n  exp\n  dup2\n  sload\n  dup2\n  0xffff\n  mul\n  not\n  and\n  swap1\n  dup4\n  0xffff\n  and\n  mul\n  or\n  swap1\n  sstore\n  pop\n    /* \"contracts/Twitter.sol\":459:508  constructor() {... */\n  callvalue\n  dup1\n  iszero\n  tag_1\n  jumpi\n  0x00\n  dup1\n  revert\ntag_1:\n  pop\n    /* \"contracts/Twitter.sol\":491:501  msg.sender */\n  caller\n    /* \"contracts/Twitter.sol\":483:488  owner */\n  0x02\n  0x00\n    /* \"contracts/Twitter.sol\":483:501  owner = msg.sender */\n  0x0100\n  exp\n  dup2\n  sload\n  dup2\n  0xffffffffffffffffffffffffffffffffffffffff\n  mul\n  not\n  and\n  swap1\n  dup4\n  0xffffffffffffffffffffffffffffffffffffffff\n  and\n  mul\n  or\n  swap1\n  sstore\n  pop\n    /* \"contracts/Twitter.sol\":176:2121  contract Twitter {... */\n  dataSize(sub_0)\n  dup1\n  dataOffset(sub_0)\n  0x00\n  codecopy\n  0x00\n  return\nstop\n\nsub_0: assembly {\n        /* \"contracts/Twitter.sol\":176:2121  contract Twitter {... */\n      mstore(0x40, 0x80)\n      callvalue\n      dup1\n      iszero\n      tag_1\n      jumpi\n      0x00\n      dup1\n      revert\n    tag_1:\n      pop\n      jumpi(tag_2, lt(calldatasize, 0x04))\n      shr(0xe0, calldataload(0x00))\n      dup1\n      0x63378216\n      gt\n      tag_12\n      jumpi\n      dup1\n      0x63378216\n      eq\n      tag_7\n      jumpi\n      dup1\n      0x7c9cd2bc\n      eq\n      tag_8\n      jumpi\n      dup1\n      0x808b0cf1\n      eq\n      tag_9\n      jumpi\n      dup1\n      0x8da5cb5b\n      eq\n      tag_10\n      jumpi\n      dup1\n      0xfd10b7df\n      eq\n      tag_11\n      jumpi\n      jump(tag_2)\n    tag_12:\n      dup1\n      0x05a1b4a9\n      eq\n      tag_3\n      jumpi\n      dup1\n      0x112f54e3\n      eq\n      tag_4\n      jumpi\n      dup1\n      0x3d9b569f\n      eq\n      tag_5\n      jumpi\n      dup1\n      0x58bfa4ab\n      eq\n      tag_6\n      jumpi\n    tag_2:\n      0x00\n      dup1\n      revert\n        /* \"contracts/Twitter.sol\":384:426  mapping (address => Tweet[]) public tweets */\n    tag_3:\n      tag_13\n      0x04\n      dup1\n      calldatasize\n      sub\n      dup2\n      add\n      swap1\n      tag_14\n      swap2\n      swap1\n      tag_15\n      jump\t// in\n    tag_14:\n      tag_16\n      jump\t// in\n    tag_13:\n      mload(0x40)\n      tag_17\n      swap6\n      swap5\n      swap4\n      swap3\n      swap2\n      swap1\n      tag_18\n      jump\t// in\n    tag_17:\n      mload(0x40)\n      dup1\n      swap2\n      sub\n      swap1\n      return\n        /* \"contracts/Twitter.sol\":1534:1657  function getTweet(address _owner, uint256 _i) public view returns (Tweet memory) {... */\n    tag_4:\n      tag_19\n      0x04\n      dup1\n      calldatasize\n      sub\n      dup2\n      add\n      swap1\n      tag_20\n      swap2\n      swap1\n      tag_15\n      jump\t// in\n    tag_20:\n      tag_21\n      jump\t// in\n    tag_19:\n      mload(0x40)\n      tag_22\n      swap2\n      swap1\n      tag_23\n      jump\t// in\n    tag_22:\n      mload(0x40)\n      dup1\n      swap2\n      sub\n      swap1\n      return\n        /* \"contracts/Twitter.sol\":1916:2118  function unlikeTweet(address _author, uint256 _id) external tweetExists(_author, _id){... */\n    tag_5:\n      tag_24\n      0x04\n      dup1\n      calldatasize\n      sub\n      dup2\n      add\n      swap1\n      tag_25\n      swap2\n      swap1\n      tag_15\n      jump\t// in\n    tag_25:\n      tag_26\n      jump\t// in\n    tag_24:\n      stop\n        /* \"contracts/Twitter.sol\":794:911  function changeTweetLength(uint16 newTweetLength) public onlyOwner {... */\n    tag_6:\n      tag_27\n      0x04\n      dup1\n      calldatasize\n      sub\n      dup2\n      add\n      swap1\n      tag_28\n      swap2\n      swap1\n      tag_29\n      jump\t// in\n    tag_28:\n      tag_30\n      jump\t// in\n    tag_27:\n      stop\n        /* \"contracts/Twitter.sol\":1782:1910  function likeTweet(address _author, uint256 _id) external tweetExists(_author, _id){... */\n    tag_7:\n      tag_31\n      0x04\n      dup1\n      calldatasize\n      sub\n      dup2\n      add\n      swap1\n      tag_32\n      swap2\n      swap1\n      tag_15\n      jump\t// in\n    tag_32:\n      tag_33\n      jump\t// in\n    tag_31:\n      stop\n        /* \"contracts/Twitter.sol\":917:1528  function createTweet(string memory _tweet) public {... */\n    tag_8:\n      tag_34\n      0x04\n      dup1\n      calldatasize\n      sub\n      dup2\n      add\n      swap1\n      tag_35\n      swap2\n      swap1\n      tag_36\n      jump\t// in\n    tag_35:\n      tag_37\n      jump\t// in\n    tag_34:\n      stop\n        /* \"contracts/Twitter.sol\":1663:1776  function getALLTweets(address _owner) public view returns (Tweet[] memory) {... */\n    tag_9:\n      tag_38\n      0x04\n      dup1\n      calldatasize\n      sub\n      dup2\n      add\n      swap1\n      tag_39\n      swap2\n      swap1\n      tag_40\n      jump\t// in\n    tag_39:\n      tag_41\n      jump\t// in\n    tag_38:\n      mload(0x40)\n      tag_42\n      swap2\n      swap1\n      tag_43\n      jump\t// in\n    tag_42:\n      mload(0x40)\n      dup1\n      swap2\n      sub\n      swap1\n      return\n        /* \"contracts/Twitter.sol\":432:452  address public owner */\n    tag_10:\n      tag_44\n      tag_45\n      jump\t// in\n    tag_44:\n      mload(0x40)\n      tag_46\n      swap2\n      swap1\n      tag_47\n      jump\t// in\n    tag_46:\n      mload(0x40)\n      dup1\n      swap2\n      sub\n      swap1\n      return\n        /* \"contracts/Twitter.sol\":342:378  uint16 public TWEET_MAX_LENGTH = 280 */\n    tag_11:\n      tag_48\n      tag_49\n      jump\t// in\n    tag_48:\n      mload(0x40)\n      tag_50\n      swap2\n      swap1\n      tag_51\n      jump\t// in\n    tag_50:\n      mload(0x40)\n      dup1\n      swap2\n      sub\n      swap1\n      return\n        /* \"contracts/Twitter.sol\":384:426  mapping (address => Tweet[]) public tweets */\n    tag_16:\n      mstore(0x20, 0x01)\n      dup2\n      0x00\n      mstore\n      keccak256(0x00, 0x40)\n      dup2\n      dup2\n      sload\n      dup2\n      lt\n      tag_52\n      jumpi\n      0x00\n      dup1\n      revert\n    tag_52:\n      swap1\n      0x00\n      mstore\n      keccak256(0x00, 0x20)\n      swap1\n      0x05\n      mul\n      add\n      0x00\n      swap2\n      pop\n      swap2\n      pop\n      pop\n      dup1\n      0x00\n      add\n      sload\n      swap1\n      dup1\n      0x01\n      add\n      0x00\n      swap1\n      sload\n      swap1\n      0x0100\n      exp\n      swap1\n      div\n      0xffffffffffffffffffffffffffffffffffffffff\n      and\n      swap1\n      dup1\n      0x02\n      add\n      dup1\n      sload\n      tag_54\n      swap1\n      tag_55\n      jump\t// in\n    tag_54:\n      dup1\n      0x1f\n      add\n      0x20\n      dup1\n      swap2\n      div\n      mul\n      0x20\n      add\n      mload(0x40)\n      swap1\n      dup2\n      add\n      0x40\n      mstore\n      dup1\n      swap3\n      swap2\n      swap1\n      dup2\n      dup2\n      mstore\n      0x20\n      add\n      dup3\n      dup1\n      sload\n      tag_56\n      swap1\n      tag_55\n      jump\t// in\n    tag_56:\n      dup1\n      iszero\n      tag_57\n      jumpi\n      dup1\n      0x1f\n      lt\n      tag_58\n      jumpi\n      0x0100\n      dup1\n      dup4\n      sload\n      div\n      mul\n      dup4\n      mstore\n      swap2\n      0x20\n      add\n      swap2\n      jump(tag_57)\n    tag_58:\n      dup3\n      add\n      swap2\n      swap1\n      0x00\n      mstore\n      keccak256(0x00, 0x20)\n      swap1\n    tag_59:\n      dup2\n      sload\n      dup2\n      mstore\n      swap1\n      0x01\n      add\n      swap1\n      0x20\n      add\n      dup1\n      dup4\n      gt\n      tag_59\n      jumpi\n      dup3\n      swap1\n      sub\n      0x1f\n      and\n      dup3\n      add\n      swap2\n    tag_57:\n      pop\n      pop\n      pop\n      pop\n      pop\n      swap1\n      dup1\n      0x03\n      add\n      sload\n      swap1\n      dup1\n      0x04\n      add\n      sload\n      swap1\n      pop\n      dup6\n      jump\t// out\n        /* \"contracts/Twitter.sol\":1534:1657  function getTweet(address _owner, uint256 _i) public view returns (Tweet memory) {... */\n    tag_21:\n        /* \"contracts/Twitter.sol\":1601:1613  Tweet memory */\n      tag_60\n      tag_61\n      jump\t// in\n    tag_60:\n        /* \"contracts/Twitter.sol\":1632:1638  tweets */\n      0x01\n        /* \"contracts/Twitter.sol\":1632:1646  tweets[_owner] */\n      0x00\n        /* \"contracts/Twitter.sol\":1639:1645  _owner */\n      dup5\n        /* \"contracts/Twitter.sol\":1632:1646  tweets[_owner] */\n      0xffffffffffffffffffffffffffffffffffffffff\n      and\n      0xffffffffffffffffffffffffffffffffffffffff\n      and\n      dup2\n      mstore\n      0x20\n      add\n      swap1\n      dup2\n      mstore\n      0x20\n      add\n      0x00\n      keccak256\n        /* \"contracts/Twitter.sol\":1647:1649  _i */\n      dup3\n        /* \"contracts/Twitter.sol\":1632:1650  tweets[_owner][_i] */\n      dup2\n      sload\n      dup2\n      lt\n      tag_63\n      jumpi\n      tag_64\n      tag_65\n      jump\t// in\n    tag_64:\n    tag_63:\n      swap1\n      0x00\n      mstore\n      keccak256(0x00, 0x20)\n      swap1\n      0x05\n      mul\n      add\n        /* \"contracts/Twitter.sol\":1625:1650  return tweets[_owner][_i] */\n      mload(0x40)\n      dup1\n      0xa0\n      add\n      0x40\n      mstore\n      swap1\n      dup2\n      0x00\n      dup3\n      add\n      sload\n      dup2\n      mstore\n      0x20\n      add\n      0x01\n      dup3\n      add\n      0x00\n      swap1\n      sload\n      swap1\n      0x0100\n      exp\n      swap1\n      div\n      0xffffffffffffffffffffffffffffffffffffffff\n      and\n      0xffffffffffffffffffffffffffffffffffffffff\n      and\n      0xffffffffffffffffffffffffffffffffffffffff\n      and\n      dup2\n      mstore\n      0x20\n      add\n      0x02\n      dup3\n      add\n      dup1\n      sload\n      tag_67\n      swap1\n      tag_55\n      jump\t// in\n    tag_67:\n      dup1\n      0x1f\n      add\n      0x20\n      dup1\n      swap2\n      div\n      mul\n      0x20\n      add\n      mload(0x40)\n      swap1\n      dup2\n      add\n      0x40\n      mstore\n      dup1\n      swap3\n      swap2\n      swap1\n      dup2\n      dup2\n      mstore\n      0x20\n      add\n      dup3\n      dup1\n      sload\n      tag_68\n      swap1\n      tag_55\n      jump\t// in\n    tag_68:\n      dup1\n      iszero\n      tag_69\n      jumpi\n      dup1\n      0x1f\n      lt\n      tag_70\n      jumpi\n      0x0100\n      dup1\n      dup4\n      sload\n      div\n      mul\n      dup4\n      mstore\n      swap2\n      0x20\n      add\n      swap2\n      jump(tag_69)\n    tag_70:\n      dup3\n      add\n      swap2\n      swap1\n      0x00\n      mstore\n      keccak256(0x00, 0x20)\n      swap1\n    tag_71:\n      dup2\n      sload\n      dup2\n      mstore\n      swap1\n      0x01\n      add\n      swap1\n      0x20\n      add\n      dup1\n      dup4\n      gt\n      tag_71\n      jumpi\n      dup3\n      swap1\n      sub\n      0x1f\n      and\n      dup3\n      add\n      swap2\n    tag_69:\n      pop\n      pop\n      pop\n      pop\n      pop\n      dup2\n      mstore\n      0x20\n      add\n      0x03\n      dup3\n      add\n      sload\n      dup2\n      mstore\n      0x20\n      add\n      0x04\n      dup3\n      add\n      sload\n      dup2\n      mstore\n      pop\n      pop\n      swap1\n      pop\n        /* \"contracts/Twitter.sol\":1534:1657  function getTweet(address _owner, uint256 _i) public view returns (Tweet memory) {... */\n      swap3\n      swap2\n      pop\n      pop\n      jump\t// out\n        /* \"contracts/Twitter.sol\":1916:2118  function unlikeTweet(address _author, uint256 _id) external tweetExists(_author, _id){... */\n    tag_26:\n        /* \"contracts/Twitter.sol\":1988:1995  _author */\n      dup2\n        /* \"contracts/Twitter.sol\":1997:2000  _id */\n      dup2\n        /* \"contracts/Twitter.sol\":741:744  _id */\n      dup1\n        /* \"contracts/Twitter.sol\":714:720  tweets */\n      0x01\n        /* \"contracts/Twitter.sol\":714:729  tweets[_author] */\n      0x00\n        /* \"contracts/Twitter.sol\":721:728  _author */\n      dup5\n        /* \"contracts/Twitter.sol\":714:729  tweets[_author] */\n      0xffffffffffffffffffffffffffffffffffffffff\n      and\n      0xffffffffffffffffffffffffffffffffffffffff\n      and\n      dup2\n      mstore\n      0x20\n      add\n      swap1\n      dup2\n      mstore\n      0x20\n      add\n      0x00\n      keccak256\n        /* \"contracts/Twitter.sol\":730:733  _id */\n      dup3\n        /* \"contracts/Twitter.sol\":714:734  tweets[_author][_id] */\n      dup2\n      sload\n      dup2\n      lt\n      tag_73\n      jumpi\n      tag_74\n      tag_65\n      jump\t// in\n    tag_74:\n    tag_73:\n      swap1\n      0x00\n      mstore\n      keccak256(0x00, 0x20)\n      swap1\n      0x05\n      mul\n      add\n        /* \"contracts/Twitter.sol\":714:737  tweets[_author][_id].id */\n      0x00\n      add\n      sload\n        /* \"contracts/Twitter.sol\":714:744  tweets[_author][_id].id == _id */\n      eq\n        /* \"contracts/Twitter.sol\":706:770  require(tweets[_author][_id].id == _id, \"Tweet does not exist!\") */\n      tag_76\n      jumpi\n      mload(0x40)\n      0x08c379a000000000000000000000000000000000000000000000000000000000\n      dup2\n      mstore\n      0x04\n      add\n      tag_77\n      swap1\n      tag_78\n      jump\t// in\n    tag_77:\n      mload(0x40)\n      dup1\n      swap2\n      sub\n      swap1\n      revert\n    tag_76:\n        /* \"contracts/Twitter.sol\":2048:2049  0 */\n      0x00\n        /* \"contracts/Twitter.sol\":2019:2025  tweets */\n      0x01\n        /* \"contracts/Twitter.sol\":2019:2034  tweets[_author] */\n      0x00\n        /* \"contracts/Twitter.sol\":2026:2033  _author */\n      dup7\n        /* \"contracts/Twitter.sol\":2019:2034  tweets[_author] */\n      0xffffffffffffffffffffffffffffffffffffffff\n      and\n      0xffffffffffffffffffffffffffffffffffffffff\n      and\n      dup2\n      mstore\n      0x20\n      add\n      swap1\n      dup2\n      mstore\n      0x20\n      add\n      0x00\n      keccak256\n        /* \"contracts/Twitter.sol\":2035:2038  _id */\n      dup5\n        /* \"contracts/Twitter.sol\":2019:2039  tweets[_author][_id] */\n      dup2\n      sload\n      dup2\n      lt\n      tag_80\n      jumpi\n      tag_81\n      tag_65\n      jump\t// in\n    tag_81:\n    tag_80:\n      swap1\n      0x00\n      mstore\n      keccak256(0x00, 0x20)\n      swap1\n      0x05\n      mul\n      add\n        /* \"contracts/Twitter.sol\":2019:2045  tweets[_author][_id].likes */\n      0x04\n      add\n      sload\n        /* \"contracts/Twitter.sol\":2019:2049  tweets[_author][_id].likes > 0 */\n      gt\n        /* \"contracts/Twitter.sol\":2011:2073  require(tweets[_author][_id].likes > 0, \"Tweet has no likes!\") */\n      tag_83\n      jumpi\n      mload(0x40)\n      0x08c379a000000000000000000000000000000000000000000000000000000000\n      dup2\n      mstore\n      0x04\n      add\n      tag_84\n      swap1\n      tag_85\n      jump\t// in\n    tag_84:\n      mload(0x40)\n      dup1\n      swap2\n      sub\n      swap1\n      revert\n    tag_83:\n        /* \"contracts/Twitter.sol\":2083:2089  tweets */\n      0x01\n        /* \"contracts/Twitter.sol\":2083:2098  tweets[_author] */\n      0x00\n        /* \"contracts/Twitter.sol\":2090:2097  _author */\n      dup6\n        /* \"contracts/Twitter.sol\":2083:2098  tweets[_author] */\n      0xffffffffffffffffffffffffffffffffffffffff\n      and\n      0xffffffffffffffffffffffffffffffffffffffff\n      and\n      dup2\n      mstore\n      0x20\n      add\n      swap1\n      dup2\n      mstore\n      0x20\n      add\n      0x00\n      keccak256\n        /* \"contracts/Twitter.sol\":2099:2102  _id */\n      dup4\n        /* \"contracts/Twitter.sol\":2083:2103  tweets[_author][_id] */\n      dup2\n      sload\n      dup2\n      lt\n      tag_86\n      jumpi\n      tag_87\n      tag_65\n      jump\t// in\n    tag_87:\n    tag_86:\n      swap1\n      0x00\n      mstore\n      keccak256(0x00, 0x20)\n      swap1\n      0x05\n      mul\n      add\n        /* \"contracts/Twitter.sol\":2083:2109  tweets[_author][_id].likes */\n      0x04\n      add\n      0x00\n        /* \"contracts/Twitter.sol\":2083:2111  tweets[_author][_id].likes-- */\n      dup2\n      sload\n      dup1\n      swap3\n      swap2\n      swap1\n      tag_89\n      swap1\n      tag_90\n      jump\t// in\n    tag_89:\n      swap2\n      swap1\n      pop\n      sstore\n      pop\n        /* \"contracts/Twitter.sol\":1916:2118  function unlikeTweet(address _author, uint256 _id) external tweetExists(_author, _id){... */\n      pop\n      pop\n      pop\n      pop\n      jump\t// out\n        /* \"contracts/Twitter.sol\":794:911  function changeTweetLength(uint16 newTweetLength) public onlyOwner {... */\n    tag_30:\n        /* \"contracts/Twitter.sol\":567:572  owner */\n      0x02\n      0x00\n      swap1\n      sload\n      swap1\n      0x0100\n      exp\n      swap1\n      div\n      0xffffffffffffffffffffffffffffffffffffffff\n      and\n        /* \"contracts/Twitter.sol\":553:572  msg.sender == owner */\n      0xffffffffffffffffffffffffffffffffffffffff\n      and\n        /* \"contracts/Twitter.sol\":553:563  msg.sender */\n      caller\n        /* \"contracts/Twitter.sol\":553:572  msg.sender == owner */\n      0xffffffffffffffffffffffffffffffffffffffff\n      and\n      eq\n        /* \"contracts/Twitter.sol\":545:621  require(msg.sender == owner, \"You're not allowed to execute this operation\") */\n      tag_92\n      jumpi\n      mload(0x40)\n      0x08c379a000000000000000000000000000000000000000000000000000000000\n      dup2\n      mstore\n      0x04\n      add\n      tag_93\n      swap1\n      tag_94\n      jump\t// in\n    tag_93:\n      mload(0x40)\n      dup1\n      swap2\n      sub\n      swap1\n      revert\n    tag_92:\n        /* \"contracts/Twitter.sol\":890:904  newTweetLength */\n      dup1\n        /* \"contracts/Twitter.sol\":871:887  TWEET_MAX_LENGTH */\n      0x00\n      dup1\n        /* \"contracts/Twitter.sol\":871:904  TWEET_MAX_LENGTH = newTweetLength */\n      0x0100\n      exp\n      dup2\n      sload\n      dup2\n      0xffff\n      mul\n      not\n      and\n      swap1\n      dup4\n      0xffff\n      and\n      mul\n      or\n      swap1\n      sstore\n      pop\n        /* \"contracts/Twitter.sol\":794:911  function changeTweetLength(uint16 newTweetLength) public onlyOwner {... */\n      pop\n      jump\t// out\n        /* \"contracts/Twitter.sol\":1782:1910  function likeTweet(address _author, uint256 _id) external tweetExists(_author, _id){... */\n    tag_33:\n        /* \"contracts/Twitter.sol\":1852:1859  _author */\n      dup2\n        /* \"contracts/Twitter.sol\":1861:1864  _id */\n      dup2\n        /* \"contracts/Twitter.sol\":741:744  _id */\n      dup1\n        /* \"contracts/Twitter.sol\":714:720  tweets */\n      0x01\n        /* \"contracts/Twitter.sol\":714:729  tweets[_author] */\n      0x00\n        /* \"contracts/Twitter.sol\":721:728  _author */\n      dup5\n        /* \"contracts/Twitter.sol\":714:729  tweets[_author] */\n      0xffffffffffffffffffffffffffffffffffffffff\n      and\n      0xffffffffffffffffffffffffffffffffffffffff\n      and\n      dup2\n      mstore\n      0x20\n      add\n      swap1\n      dup2\n      mstore\n      0x20\n      add\n      0x00\n      keccak256\n        /* \"contracts/Twitter.sol\":730:733  _id */\n      dup3\n        /* \"contracts/Twitter.sol\":714:734  tweets[_author][_id] */\n      dup2\n      sload\n      dup2\n      lt\n      tag_97\n      jumpi\n      tag_98\n      tag_65\n      jump\t// in\n    tag_98:\n    tag_97:\n      swap1\n      0x00\n      mstore\n      keccak256(0x00, 0x20)\n      swap1\n      0x05\n      mul\n      add\n        /* \"contracts/Twitter.sol\":714:737  tweets[_author][_id].id */\n      0x00\n      add\n      sload\n        /* \"contracts/Twitter.sol\":714:744  tweets[_author][_id].id == _id */\n      eq\n        /* \"contracts/Twitter.sol\":706:770  require(tweets[_author][_id].id == _id, \"Tweet does not exist!\") */\n      tag_100\n      jumpi\n      mload(0x40)\n      0x08c379a000000000000000000000000000000000000000000000000000000000\n      dup2\n      mstore\n      0x04\n      add\n      tag_101\n      swap1\n      tag_78\n      jump\t// in\n    tag_101:\n      mload(0x40)\n      dup1\n      swap2\n      sub\n      swap1\n      revert\n    tag_100:\n        /* \"contracts/Twitter.sol\":1875:1881  tweets */\n      0x01\n        /* \"contracts/Twitter.sol\":1875:1890  tweets[_author] */\n      0x00\n        /* \"contracts/Twitter.sol\":1882:1889  _author */\n      dup6\n        /* \"contracts/Twitter.sol\":1875:1890  tweets[_author] */\n      0xffffffffffffffffffffffffffffffffffffffff\n      and\n      0xffffffffffffffffffffffffffffffffffffffff\n      and\n      dup2\n      mstore\n      0x20\n      add\n      swap1\n      dup2\n      mstore\n      0x20\n      add\n      0x00\n      keccak256\n        /* \"contracts/Twitter.sol\":1891:1894  _id */\n      dup4\n        /* \"contracts/Twitter.sol\":1875:1895  tweets[_author][_id] */\n      dup2\n      sload\n      dup2\n      lt\n      tag_103\n      jumpi\n      tag_104\n      tag_65\n      jump\t// in\n    tag_104:\n    tag_103:\n      swap1\n      0x00\n      mstore\n      keccak256(0x00, 0x20)\n      swap1\n      0x05\n      mul\n      add\n        /* \"contracts/Twitter.sol\":1875:1901  tweets[_author][_id].likes */\n      0x04\n      add\n      0x00\n        /* \"contracts/Twitter.sol\":1875:1903  tweets[_author][_id].likes++ */\n      dup2\n      sload\n      dup1\n      swap3\n      swap2\n      swap1\n      tag_106\n      swap1\n      tag_107\n      jump\t// in\n    tag_106:\n      swap2\n      swap1\n      pop\n      sstore\n      pop\n        /* \"contracts/Twitter.sol\":1782:1910  function likeTweet(address _author, uint256 _id) external tweetExists(_author, _id){... */\n      pop\n      pop\n      pop\n      pop\n      jump\t// out\n        /* \"contracts/Twitter.sol\":917:1528  function createTweet(string memory _tweet) public {... */\n    tag_37:\n        /* \"contracts/Twitter.sol\":1022:1038  TWEET_MAX_LENGTH */\n      0x00\n      dup1\n      sload\n      swap1\n      0x0100\n      exp\n      swap1\n      div\n      0xffff\n      and\n        /* \"contracts/Twitter.sol\":998:1038  bytes(_tweet).length <= TWEET_MAX_LENGTH */\n      0xffff\n      and\n        /* \"contracts/Twitter.sol\":1004:1010  _tweet */\n      dup2\n        /* \"contracts/Twitter.sol\":998:1018  bytes(_tweet).length */\n      mload\n        /* \"contracts/Twitter.sol\":998:1038  bytes(_tweet).length <= TWEET_MAX_LENGTH */\n      gt\n      iszero\n        /* \"contracts/Twitter.sol\":1183:1217  Strings.toString(TWEET_MAX_LENGTH) */\n      tag_109\n        /* \"contracts/Twitter.sol\":1200:1216  TWEET_MAX_LENGTH */\n      0x00\n      dup1\n      sload\n      swap1\n      0x0100\n      exp\n      swap1\n      div\n      0xffff\n      and\n        /* \"contracts/Twitter.sol\":1183:1217  Strings.toString(TWEET_MAX_LENGTH) */\n      0xffff\n      and\n        /* \"contracts/Twitter.sol\":1183:1199  Strings.toString */\n      tag_110\n        /* \"contracts/Twitter.sol\":1183:1217  Strings.toString(TWEET_MAX_LENGTH) */\n      jump\t// in\n    tag_109:\n        /* \"contracts/Twitter.sol\":1076:1235  abi.encodePacked(... */\n      add(0x20, mload(0x40))\n      tag_111\n      swap2\n      swap1\n      tag_112\n      jump\t// in\n    tag_111:\n      mload(0x40)\n      0x20\n      dup2\n      dup4\n      sub\n      sub\n      dup2\n      mstore\n      swap1\n      0x40\n      mstore\n        /* \"contracts/Twitter.sol\":977:1259  require(... */\n      swap1\n      tag_113\n      jumpi\n      mload(0x40)\n      0x08c379a000000000000000000000000000000000000000000000000000000000\n      dup2\n      mstore\n      0x04\n      add\n      tag_114\n      swap2\n      swap1\n      tag_115\n      jump\t// in\n    tag_114:\n      mload(0x40)\n      dup1\n      swap2\n      sub\n      swap1\n      revert\n    tag_113:\n      pop\n        /* \"contracts/Twitter.sol\":1270:1291  Tweet memory newTweet */\n      0x00\n        /* \"contracts/Twitter.sol\":1294:1477  Tweet({... */\n      mload(0x40)\n      dup1\n      0xa0\n      add\n      0x40\n      mstore\n      dup1\n        /* \"contracts/Twitter.sol\":1318:1324  tweets */\n      0x01\n        /* \"contracts/Twitter.sol\":1318:1336  tweets[msg.sender] */\n      0x00\n        /* \"contracts/Twitter.sol\":1325:1335  msg.sender */\n      caller\n        /* \"contracts/Twitter.sol\":1318:1336  tweets[msg.sender] */\n      0xffffffffffffffffffffffffffffffffffffffff\n      and\n      0xffffffffffffffffffffffffffffffffffffffff\n      and\n      dup2\n      mstore\n      0x20\n      add\n      swap1\n      dup2\n      mstore\n      0x20\n      add\n      0x00\n      keccak256\n        /* \"contracts/Twitter.sol\":1318:1343  tweets[msg.sender].length */\n      dup1\n      sload\n      swap1\n      pop\n        /* \"contracts/Twitter.sol\":1294:1477  Tweet({... */\n      dup2\n      mstore\n      0x20\n      add\n        /* \"contracts/Twitter.sol\":1365:1375  msg.sender */\n      caller\n        /* \"contracts/Twitter.sol\":1294:1477  Tweet({... */\n      0xffffffffffffffffffffffffffffffffffffffff\n      and\n      dup2\n      mstore\n      0x20\n      add\n        /* \"contracts/Twitter.sol\":1398:1404  _tweet */\n      dup4\n        /* \"contracts/Twitter.sol\":1294:1477  Tweet({... */\n      dup2\n      mstore\n      0x20\n      add\n        /* \"contracts/Twitter.sol\":1429:1444  block.timestamp */\n      timestamp\n        /* \"contracts/Twitter.sol\":1294:1477  Tweet({... */\n      dup2\n      mstore\n      0x20\n      add\n        /* \"contracts/Twitter.sol\":1465:1466  0 */\n      0x00\n        /* \"contracts/Twitter.sol\":1294:1477  Tweet({... */\n      dup2\n      mstore\n      pop\n        /* \"contracts/Twitter.sol\":1270:1477  Tweet memory newTweet = Tweet({... */\n      swap1\n      pop\n        /* \"contracts/Twitter.sol\":1488:1494  tweets */\n      0x01\n        /* \"contracts/Twitter.sol\":1488:1506  tweets[msg.sender] */\n      0x00\n        /* \"contracts/Twitter.sol\":1495:1505  msg.sender */\n      caller\n        /* \"contracts/Twitter.sol\":1488:1506  tweets[msg.sender] */\n      0xffffffffffffffffffffffffffffffffffffffff\n      and\n      0xffffffffffffffffffffffffffffffffffffffff\n      and\n      dup2\n      mstore\n      0x20\n      add\n      swap1\n      dup2\n      mstore\n      0x20\n      add\n      0x00\n      keccak256\n        /* \"contracts/Twitter.sol\":1512:1520  newTweet */\n      dup2\n        /* \"contracts/Twitter.sol\":1488:1521  tweets[msg.sender].push(newTweet) */\n      swap1\n      dup1\n      0x01\n      dup2\n      sload\n      add\n      dup1\n      dup3\n      sstore\n      dup1\n      swap2\n      pop\n      pop\n      0x01\n      swap1\n      sub\n      swap1\n      0x00\n      mstore\n      keccak256(0x00, 0x20)\n      swap1\n      0x05\n      mul\n      add\n      0x00\n      swap1\n      swap2\n      swap1\n      swap2\n      swap1\n      swap2\n      pop\n      0x00\n      dup3\n      add\n      mload\n      dup2\n      0x00\n      add\n      sstore\n      0x20\n      dup3\n      add\n      mload\n      dup2\n      0x01\n      add\n      exp(0x0100, 0x00)\n      dup2\n      sload\n      dup2\n      0xffffffffffffffffffffffffffffffffffffffff\n      mul\n      not\n      and\n      swap1\n      dup4\n      0xffffffffffffffffffffffffffffffffffffffff\n      and\n      mul\n      or\n      swap1\n      sstore\n      pop\n      0x40\n      dup3\n      add\n      mload\n      dup2\n      0x02\n      add\n      swap1\n      dup2\n      tag_117\n      swap2\n      swap1\n      tag_118\n      jump\t// in\n    tag_117:\n      pop\n      0x60\n      dup3\n      add\n      mload\n      dup2\n      0x03\n      add\n      sstore\n      0x80\n      dup3\n      add\n      mload\n      dup2\n      0x04\n      add\n      sstore\n      pop\n      pop\n        /* \"contracts/Twitter.sol\":967:1528  {... */\n      pop\n        /* \"contracts/Twitter.sol\":917:1528  function createTweet(string memory _tweet) public {... */\n      pop\n      jump\t// out\n        /* \"contracts/Twitter.sol\":1663:1776  function getALLTweets(address _owner) public view returns (Tweet[] memory) {... */\n    tag_41:\n        /* \"contracts/Twitter.sol\":1722:1736  Tweet[] memory */\n      0x60\n        /* \"contracts/Twitter.sol\":1755:1761  tweets */\n      0x01\n        /* \"contracts/Twitter.sol\":1755:1769  tweets[_owner] */\n      0x00\n        /* \"contracts/Twitter.sol\":1762:1768  _owner */\n      dup4\n        /* \"contracts/Twitter.sol\":1755:1769  tweets[_owner] */\n      0xffffffffffffffffffffffffffffffffffffffff\n      and\n      0xffffffffffffffffffffffffffffffffffffffff\n      and\n      dup2\n      mstore\n      0x20\n      add\n      swap1\n      dup2\n      mstore\n      0x20\n      add\n      0x00\n      keccak256\n        /* \"contracts/Twitter.sol\":1748:1769  return tweets[_owner] */\n      dup1\n      sload\n      dup1\n      0x20\n      mul\n      0x20\n      add\n      mload(0x40)\n      swap1\n      dup2\n      add\n      0x40\n      mstore\n      dup1\n      swap3\n      swap2\n      swap1\n      dup2\n      dup2\n      mstore\n      0x20\n      add\n      0x00\n      swap1\n    tag_120:\n      dup3\n      dup3\n      lt\n      iszero\n      tag_121\n      jumpi\n      dup4\n      dup3\n      swap1\n      0x00\n      mstore\n      keccak256(0x00, 0x20)\n      swap1\n      0x05\n      mul\n      add\n      mload(0x40)\n      dup1\n      0xa0\n      add\n      0x40\n      mstore\n      swap1\n      dup2\n      0x00\n      dup3\n      add\n      sload\n      dup2\n      mstore\n      0x20\n      add\n      0x01\n      dup3\n      add\n      0x00\n      swap1\n      sload\n      swap1\n      0x0100\n      exp\n      swap1\n      div\n      0xffffffffffffffffffffffffffffffffffffffff\n      and\n      0xffffffffffffffffffffffffffffffffffffffff\n      and\n      0xffffffffffffffffffffffffffffffffffffffff\n      and\n      dup2\n      mstore\n      0x20\n      add\n      0x02\n      dup3\n      add\n      dup1\n      sload\n      tag_123\n      swap1\n      tag_55\n      jump\t// in\n    tag_123:\n      dup1\n      0x1f\n      add\n      0x20\n      dup1\n      swap2\n      div\n      mul\n      0x20\n      add\n      mload(0x40)\n      swap1\n      dup2\n      add\n      0x40\n      mstore\n      dup1\n      swap3\n      swap2\n      swap1\n      dup2\n      dup2\n      mstore\n      0x20\n      add\n      dup3\n      dup1\n      sload\n      tag_124\n      swap1\n      tag_55\n      jump\t// in\n    tag_124:\n      dup1\n      iszero\n      tag_125\n      jumpi\n      dup1\n      0x1f\n      lt\n      tag_126\n      jumpi\n      0x0100\n      dup1\n      dup4\n      sload\n      div\n      mul\n      dup4\n      mstore\n      swap2\n      0x20\n      add\n      swap2\n      jump(tag_125)\n    tag_126:\n      dup3\n      add\n      swap2\n      swap1\n      0x00\n      mstore\n      keccak256(0x00, 0x20)\n      swap1\n    tag_127:\n      dup2\n      sload\n      dup2\n      mstore\n      swap1\n      0x01\n      add\n      swap1\n      0x20\n      add\n      dup1\n      dup4\n      gt\n      tag_127\n      jumpi\n      dup3\n      swap1\n      sub\n      0x1f\n      and\n      dup3\n      add\n      swap2\n    tag_125:\n      pop\n      pop\n      pop\n      pop\n      pop\n      dup2\n      mstore\n      0x20\n      add\n      0x03\n      dup3\n      add\n      sload\n      dup2\n      mstore\n      0x20\n      add\n      0x04\n      dup3\n      add\n      sload\n      dup2\n      mstore\n      pop\n      pop\n      dup2\n      mstore\n      0x20\n      add\n      swap1\n      0x01\n      add\n      swap1\n      jump(tag_120)\n    tag_121:\n      pop\n      pop\n      pop\n      pop\n      swap1\n      pop\n        /* \"contracts/Twitter.sol\":1663:1776  function getALLTweets(address _owner) public view returns (Tweet[] memory) {... */\n      swap2\n      swap1\n      pop\n      jump\t// out\n        /* \"contracts/Twitter.sol\":432:452  address public owner */\n    tag_45:\n      0x02\n      0x00\n      swap1\n      sload\n      swap1\n      0x0100\n      exp\n      swap1\n      div\n      0xffffffffffffffffffffffffffffffffffffffff\n      and\n      dup2\n      jump\t// out\n        /* \"contracts/Twitter.sol\":342:378  uint16 public TWEET_MAX_LENGTH = 280 */\n    tag_49:\n      0x00\n      dup1\n      sload\n      swap1\n      0x0100\n      exp\n      swap1\n      div\n      0xffff\n      and\n      dup2\n      jump\t// out\n        /* \"https://github.com/OpenZeppelin/openzeppelin-contracts/blob/master/contracts/utils/Strings.sol\":987:1619  function toString(uint256 value) internal pure returns (string memory) {... */\n    tag_110:\n        /* \"https://github.com/OpenZeppelin/openzeppelin-contracts/blob/master/contracts/utils/Strings.sol\":1043:1056  string memory */\n      0x60\n        /* \"https://github.com/OpenZeppelin/openzeppelin-contracts/blob/master/contracts/utils/Strings.sol\":1092:1106  uint256 length */\n      0x00\n        /* \"https://github.com/OpenZeppelin/openzeppelin-contracts/blob/master/contracts/utils/Strings.sol\":1129:1130  1 */\n      0x01\n        /* \"https://github.com/OpenZeppelin/openzeppelin-contracts/blob/master/contracts/utils/Strings.sol\":1109:1126  Math.log10(value) */\n      tag_129\n        /* \"https://github.com/OpenZeppelin/openzeppelin-contracts/blob/master/contracts/utils/Strings.sol\":1120:1125  value */\n      dup5\n        /* \"https://github.com/OpenZeppelin/openzeppelin-contracts/blob/master/contracts/utils/Strings.sol\":1109:1119  Math.log10 */\n      tag_130\n        /* \"https://github.com/OpenZeppelin/openzeppelin-contracts/blob/master/contracts/utils/Strings.sol\":1109:1126  Math.log10(value) */\n      jump\t// in\n    tag_129:\n        /* \"https://github.com/OpenZeppelin/openzeppelin-contracts/blob/master/contracts/utils/Strings.sol\":1109:1130  Math.log10(value) + 1 */\n      add\n        /* \"https://github.com/OpenZeppelin/openzeppelin-contracts/blob/master/contracts/utils/Strings.sol\":1092:1130  uint256 length = Math.log10(value) + 1 */\n      swap1\n      pop\n        /* \"https://github.com/OpenZeppelin/openzeppelin-contracts/blob/master/contracts/utils/Strings.sol\":1144:1164  string memory buffer */\n      0x00\n        /* \"https://github.com/OpenZeppelin/openzeppelin-contracts/blob/master/contracts/utils/Strings.sol\":1178:1184  length */\n      dup2\n        /* \"https://github.com/OpenZeppelin/openzeppelin-contracts/blob/master/contracts/utils/Strings.sol\":1167:1185  new string(length) */\n      0xffffffffffffffff\n      dup2\n      gt\n      iszero\n      tag_131\n      jumpi\n      tag_132\n      tag_133\n      jump\t// in\n    tag_132:\n    tag_131:\n      mload(0x40)\n      swap1\n      dup1\n      dup3\n      mstore\n      dup1\n      0x1f\n      add\n      not(0x1f)\n      and\n      0x20\n      add\n      dup3\n      add\n      0x40\n      mstore\n      dup1\n      iszero\n      tag_134\n      jumpi\n      dup2\n      0x20\n      add\n      0x01\n      dup3\n      mul\n      dup1\n      calldatasize\n      dup4\n      calldatacopy\n      dup1\n      dup3\n      add\n      swap2\n      pop\n      pop\n      swap1\n      pop\n    tag_134:\n      pop\n        /* \"https://github.com/OpenZeppelin/openzeppelin-contracts/blob/master/contracts/utils/Strings.sol\":1144:1185  string memory buffer = new string(length) */\n      swap1\n      pop\n        /* \"https://github.com/OpenZeppelin/openzeppelin-contracts/blob/master/contracts/utils/Strings.sol\":1199:1210  uint256 ptr */\n      0x00\n        /* \"https://github.com/OpenZeppelin/openzeppelin-contracts/blob/master/contracts/utils/Strings.sol\":1294:1300  length */\n      dup3\n        /* \"https://github.com/OpenZeppelin/openzeppelin-contracts/blob/master/contracts/utils/Strings.sol\":1290:1292  32 */\n      0x20\n        /* \"https://github.com/OpenZeppelin/openzeppelin-contracts/blob/master/contracts/utils/Strings.sol\":1286:1301  add(32, length) */\n      add\n        /* \"https://github.com/OpenZeppelin/openzeppelin-contracts/blob/master/contracts/utils/Strings.sol\":1278:1284  buffer */\n      dup3\n        /* \"https://github.com/OpenZeppelin/openzeppelin-contracts/blob/master/contracts/utils/Strings.sol\":1274:1302  add(buffer, add(32, length)) */\n      add\n        /* \"https://github.com/OpenZeppelin/openzeppelin-contracts/blob/master/contracts/utils/Strings.sol\":1267:1302  ptr := add(buffer, add(32, length)) */\n      swap1\n      pop\n        /* \"https://github.com/OpenZeppelin/openzeppelin-contracts/blob/master/contracts/utils/Strings.sol\":1329:1576  while (true) {... */\n    tag_135:\n        /* \"https://github.com/OpenZeppelin/openzeppelin-contracts/blob/master/contracts/utils/Strings.sol\":1336:1340  true */\n      0x01\n        /* \"https://github.com/OpenZeppelin/openzeppelin-contracts/blob/master/contracts/utils/Strings.sol\":1329:1576  while (true) {... */\n      iszero\n      tag_136\n      jumpi\n        /* \"https://github.com/OpenZeppelin/openzeppelin-contracts/blob/master/contracts/utils/Strings.sol\":1360:1365  ptr-- */\n      dup1\n      dup1\n      0x01\n      swap1\n      sub\n      swap2\n      pop\n      pop\n        /* \"https://github.com/OpenZeppelin/openzeppelin-contracts/blob/master/contracts/utils/Strings.sol\":1464:1474  HEX_DIGITS */\n      0x3031323334353637383961626364656600000000000000000000000000000000\n        /* \"https://github.com/OpenZeppelin/openzeppelin-contracts/blob/master/contracts/utils/Strings.sol\":1459:1461  10 */\n      0x0a\n        /* \"https://github.com/OpenZeppelin/openzeppelin-contracts/blob/master/contracts/utils/Strings.sol\":1452:1457  value */\n      dup7\n        /* \"https://github.com/OpenZeppelin/openzeppelin-contracts/blob/master/contracts/utils/Strings.sol\":1448:1462  mod(value, 10) */\n      mod\n        /* \"https://github.com/OpenZeppelin/openzeppelin-contracts/blob/master/contracts/utils/Strings.sol\":1443:1475  byte(mod(value, 10), HEX_DIGITS) */\n      byte\n        /* \"https://github.com/OpenZeppelin/openzeppelin-contracts/blob/master/contracts/utils/Strings.sol\":1438:1441  ptr */\n      dup2\n        /* \"https://github.com/OpenZeppelin/openzeppelin-contracts/blob/master/contracts/utils/Strings.sol\":1430:1476  mstore8(ptr, byte(mod(value, 10), HEX_DIGITS)) */\n      mstore8\n        /* \"https://github.com/OpenZeppelin/openzeppelin-contracts/blob/master/contracts/utils/Strings.sol\":1520:1522  10 */\n      0x0a\n        /* \"https://github.com/OpenZeppelin/openzeppelin-contracts/blob/master/contracts/utils/Strings.sol\":1511:1522  value /= 10 */\n      dup6\n      dup2\n      tag_137\n      jumpi\n      tag_138\n      tag_139\n      jump\t// in\n    tag_138:\n    tag_137:\n      div\n      swap5\n      pop\n        /* \"https://github.com/OpenZeppelin/openzeppelin-contracts/blob/master/contracts/utils/Strings.sol\":1553:1554  0 */\n      0x00\n        /* \"https://github.com/OpenZeppelin/openzeppelin-contracts/blob/master/contracts/utils/Strings.sol\":1544:1549  value */\n      dup6\n        /* \"https://github.com/OpenZeppelin/openzeppelin-contracts/blob/master/contracts/utils/Strings.sol\":1544:1554  value == 0 */\n      sub\n        /* \"https://github.com/OpenZeppelin/openzeppelin-contracts/blob/master/contracts/utils/Strings.sol\":1329:1576  while (true) {... */\n      tag_135\n        /* \"https://github.com/OpenZeppelin/openzeppelin-contracts/blob/master/contracts/utils/Strings.sol\":1540:1561  if (value == 0) break */\n      jumpi\n        /* \"https://github.com/OpenZeppelin/openzeppelin-contracts/blob/master/contracts/utils/Strings.sol\":1329:1576  while (true) {... */\n    tag_136:\n        /* \"https://github.com/OpenZeppelin/openzeppelin-contracts/blob/master/contracts/utils/Strings.sol\":1596:1602  buffer */\n      dup2\n        /* \"https://github.com/OpenZeppelin/openzeppelin-contracts/blob/master/contracts/utils/Strings.sol\":1589:1602  return buffer */\n      swap4\n      pop\n      pop\n      pop\n      pop\n        /* \"https://github.com/OpenZeppelin/openzeppelin-contracts/blob/master/contracts/utils/Strings.sol\":987:1619  function toString(uint256 value) internal pure returns (string memory) {... */\n      swap2\n      swap1\n      pop\n      jump\t// out\n        /* \"https://github.com/OpenZeppelin/openzeppelin-contracts/blob/master/contracts/utils/math/Math.sol\":26667:27583  function log10(uint256 value) internal pure returns (uint256) {... */\n    tag_130:\n        /* \"https://github.com/OpenZeppelin/openzeppelin-contracts/blob/master/contracts/utils/math/Math.sol\":26720:26727  uint256 */\n      0x00\n        /* \"https://github.com/OpenZeppelin/openzeppelin-contracts/blob/master/contracts/utils/math/Math.sol\":26739:26753  uint256 result */\n      dup1\n        /* \"https://github.com/OpenZeppelin/openzeppelin-contracts/blob/master/contracts/utils/math/Math.sol\":26756:26757  0 */\n      0x00\n        /* \"https://github.com/OpenZeppelin/openzeppelin-contracts/blob/master/contracts/utils/math/Math.sol\":26739:26757  uint256 result = 0 */\n      swap1\n      pop\n        /* \"https://github.com/OpenZeppelin/openzeppelin-contracts/blob/master/contracts/utils/math/Math.sol\":26804:26812  10 ** 64 */\n      0x184f03e93ff9f4daa797ed6e38ed64bf6a1f010000000000000000\n        /* \"https://github.com/OpenZeppelin/openzeppelin-contracts/blob/master/contracts/utils/math/Math.sol\":26795:26800  value */\n      dup4\n        /* \"https://github.com/OpenZeppelin/openzeppelin-contracts/blob/master/contracts/utils/math/Math.sol\":26795:26812  value >= 10 ** 64 */\n      lt\n        /* \"https://github.com/OpenZeppelin/openzeppelin-contracts/blob/master/contracts/utils/math/Math.sol\":26791:26894  if (value >= 10 ** 64) {... */\n      tag_142\n      jumpi\n        /* \"https://github.com/OpenZeppelin/openzeppelin-contracts/blob/master/contracts/utils/math/Math.sol\":26841:26849  10 ** 64 */\n      0x184f03e93ff9f4daa797ed6e38ed64bf6a1f010000000000000000\n        /* \"https://github.com/OpenZeppelin/openzeppelin-contracts/blob/master/contracts/utils/math/Math.sol\":26832:26849  value /= 10 ** 64 */\n      dup4\n      dup2\n      tag_143\n      jumpi\n      tag_144\n      tag_139\n      jump\t// in\n    tag_144:\n    tag_143:\n      div\n      swap3\n      pop\n        /* \"https://github.com/OpenZeppelin/openzeppelin-contracts/blob/master/contracts/utils/math/Math.sol\":26877:26879  64 */\n      0x40\n        /* \"https://github.com/OpenZeppelin/openzeppelin-contracts/blob/master/contracts/utils/math/Math.sol\":26867:26879  result += 64 */\n      dup2\n      add\n      swap1\n      pop\n        /* \"https://github.com/OpenZeppelin/openzeppelin-contracts/blob/master/contracts/utils/math/Math.sol\":26791:26894  if (value >= 10 ** 64) {... */\n    tag_142:\n        /* \"https://github.com/OpenZeppelin/openzeppelin-contracts/blob/master/contracts/utils/math/Math.sol\":26920:26928  10 ** 32 */\n      0x04ee2d6d415b85acef8100000000\n        /* \"https://github.com/OpenZeppelin/openzeppelin-contracts/blob/master/contracts/utils/math/Math.sol\":26911:26916  value */\n      dup4\n        /* \"https://github.com/OpenZeppelin/openzeppelin-contracts/blob/master/contracts/utils/math/Math.sol\":26911:26928  value >= 10 ** 32 */\n      lt\n        /* \"https://github.com/OpenZeppelin/openzeppelin-contracts/blob/master/contracts/utils/math/Math.sol\":26907:27010  if (value >= 10 ** 32) {... */\n      tag_145\n      jumpi\n        /* \"https://github.com/OpenZeppelin/openzeppelin-contracts/blob/master/contracts/utils/math/Math.sol\":26957:26965  10 ** 32 */\n      0x04ee2d6d415b85acef8100000000\n        /* \"https://github.com/OpenZeppelin/openzeppelin-contracts/blob/master/contracts/utils/math/Math.sol\":26948:26965  value /= 10 ** 32 */\n      dup4\n      dup2\n      tag_146\n      jumpi\n      tag_147\n      tag_139\n      jump\t// in\n    tag_147:\n    tag_146:\n      div\n      swap3\n      pop\n        /* \"https://github.com/OpenZeppelin/openzeppelin-contracts/blob/master/contracts/utils/math/Math.sol\":26993:26995  32 */\n      0x20\n        /* \"https://github.com/OpenZeppelin/openzeppelin-contracts/blob/master/contracts/utils/math/Math.sol\":26983:26995  result += 32 */\n      dup2\n      add\n      swap1\n      pop\n        /* \"https://github.com/OpenZeppelin/openzeppelin-contracts/blob/master/contracts/utils/math/Math.sol\":26907:27010  if (value >= 10 ** 32) {... */\n    tag_145:\n        /* \"https://github.com/OpenZeppelin/openzeppelin-contracts/blob/master/contracts/utils/math/Math.sol\":27036:27044  10 ** 16 */\n      0x2386f26fc10000\n        /* \"https://github.com/OpenZeppelin/openzeppelin-contracts/blob/master/contracts/utils/math/Math.sol\":27027:27032  value */\n      dup4\n        /* \"https://github.com/OpenZeppelin/openzeppelin-contracts/blob/master/contracts/utils/math/Math.sol\":27027:27044  value >= 10 ** 16 */\n      lt\n        /* \"https://github.com/OpenZeppelin/openzeppelin-contracts/blob/master/contracts/utils/math/Math.sol\":27023:27126  if (value >= 10 ** 16) {... */\n      tag_148\n      jumpi\n        /* \"https://github.com/OpenZeppelin/openzeppelin-contracts/blob/master/contracts/utils/math/Math.sol\":27073:27081  10 ** 16 */\n      0x2386f26fc10000\n        /* \"https://github.com/OpenZeppelin/openzeppelin-contracts/blob/master/contracts/utils/math/Math.sol\":27064:27081  value /= 10 ** 16 */\n      dup4\n      dup2\n      tag_149\n      jumpi\n      tag_150\n      tag_139\n      jump\t// in\n    tag_150:\n    tag_149:\n      div\n      swap3\n      pop\n        /* \"https://github.com/OpenZeppelin/openzeppelin-contracts/blob/master/contracts/utils/math/Math.sol\":27109:27111  16 */\n      0x10\n        /* \"https://github.com/OpenZeppelin/openzeppelin-contracts/blob/master/contracts/utils/math/Math.sol\":27099:27111  result += 16 */\n      dup2\n      add\n      swap1\n      pop\n        /* \"https://github.com/OpenZeppelin/openzeppelin-contracts/blob/master/contracts/utils/math/Math.sol\":27023:27126  if (value >= 10 ** 16) {... */\n    tag_148:\n        /* \"https://github.com/OpenZeppelin/openzeppelin-contracts/blob/master/contracts/utils/math/Math.sol\":27152:27159  10 ** 8 */\n      0x05f5e100\n        /* \"https://github.com/OpenZeppelin/openzeppelin-contracts/blob/master/contracts/utils/math/Math.sol\":27143:27148  value */\n      dup4\n        /* \"https://github.com/OpenZeppelin/openzeppelin-contracts/blob/master/contracts/utils/math/Math.sol\":27143:27159  value >= 10 ** 8 */\n      lt\n        /* \"https://github.com/OpenZeppelin/openzeppelin-contracts/blob/master/contracts/utils/math/Math.sol\":27139:27239  if (value >= 10 ** 8) {... */\n      tag_151\n      jumpi\n        /* \"https://github.com/OpenZeppelin/openzeppelin-contracts/blob/master/contracts/utils/math/Math.sol\":27188:27195  10 ** 8 */\n      0x05f5e100\n        /* \"https://github.com/OpenZeppelin/openzeppelin-contracts/blob/master/contracts/utils/math/Math.sol\":27179:27195  value /= 10 ** 8 */\n      dup4\n      dup2\n      tag_152\n      jumpi\n      tag_153\n      tag_139\n      jump\t// in\n    tag_153:\n    tag_152:\n      div\n      swap3\n      pop\n        /* \"https://github.com/OpenZeppelin/openzeppelin-contracts/blob/master/contracts/utils/math/Math.sol\":27223:27224  8 */\n      0x08\n        /* \"https://github.com/OpenZeppelin/openzeppelin-contracts/blob/master/contracts/utils/math/Math.sol\":27213:27224  result += 8 */\n      dup2\n      add\n      swap1\n      pop\n        /* \"https://github.com/OpenZeppelin/openzeppelin-contracts/blob/master/contracts/utils/math/Math.sol\":27139:27239  if (value >= 10 ** 8) {... */\n    tag_151:\n        /* \"https://github.com/OpenZeppelin/openzeppelin-contracts/blob/master/contracts/utils/math/Math.sol\":27265:27272  10 ** 4 */\n      0x2710\n        /* \"https://github.com/OpenZeppelin/openzeppelin-contracts/blob/master/contracts/utils/math/Math.sol\":27256:27261  value */\n      dup4\n        /* \"https://github.com/OpenZeppelin/openzeppelin-contracts/blob/master/contracts/utils/math/Math.sol\":27256:27272  value >= 10 ** 4 */\n      lt\n        /* \"https://github.com/OpenZeppelin/openzeppelin-contracts/blob/master/contracts/utils/math/Math.sol\":27252:27352  if (value >= 10 ** 4) {... */\n      tag_154\n      jumpi\n        /* \"https://github.com/OpenZeppelin/openzeppelin-contracts/blob/master/contracts/utils/math/Math.sol\":27301:27308  10 ** 4 */\n      0x2710\n        /* \"https://github.com/OpenZeppelin/openzeppelin-contracts/blob/master/contracts/utils/math/Math.sol\":27292:27308  value /= 10 ** 4 */\n      dup4\n      dup2\n      tag_155\n      jumpi\n      tag_156\n      tag_139\n      jump\t// in\n    tag_156:\n    tag_155:\n      div\n      swap3\n      pop\n        /* \"https://github.com/OpenZeppelin/openzeppelin-contracts/blob/master/contracts/utils/math/Math.sol\":27336:27337  4 */\n      0x04\n        /* \"https://github.com/OpenZeppelin/openzeppelin-contracts/blob/master/contracts/utils/math/Math.sol\":27326:27337  result += 4 */\n      dup2\n      add\n      swap1\n      pop\n        /* \"https://github.com/OpenZeppelin/openzeppelin-contracts/blob/master/contracts/utils/math/Math.sol\":27252:27352  if (value >= 10 ** 4) {... */\n    tag_154:\n        /* \"https://github.com/OpenZeppelin/openzeppelin-contracts/blob/master/contracts/utils/math/Math.sol\":27378:27385  10 ** 2 */\n      0x64\n        /* \"https://github.com/OpenZeppelin/openzeppelin-contracts/blob/master/contracts/utils/math/Math.sol\":27369:27374  value */\n      dup4\n        /* \"https://github.com/OpenZeppelin/openzeppelin-contracts/blob/master/contracts/utils/math/Math.sol\":27369:27385  value >= 10 ** 2 */\n      lt\n        /* \"https://github.com/OpenZeppelin/openzeppelin-contracts/blob/master/contracts/utils/math/Math.sol\":27365:27465  if (value >= 10 ** 2) {... */\n      tag_157\n      jumpi\n        /* \"https://github.com/OpenZeppelin/openzeppelin-contracts/blob/master/contracts/utils/math/Math.sol\":27414:27421  10 ** 2 */\n      0x64\n        /* \"https://github.com/OpenZeppelin/openzeppelin-contracts/blob/master/contracts/utils/math/Math.sol\":27405:27421  value /= 10 ** 2 */\n      dup4\n      dup2\n      tag_158\n      jumpi\n      tag_159\n      tag_139\n      jump\t// in\n    tag_159:\n    tag_158:\n      div\n      swap3\n      pop\n        /* \"https://github.com/OpenZeppelin/openzeppelin-contracts/blob/master/contracts/utils/math/Math.sol\":27449:27450  2 */\n      0x02\n        /* \"https://github.com/OpenZeppelin/openzeppelin-contracts/blob/master/contracts/utils/math/Math.sol\":27439:27450  result += 2 */\n      dup2\n      add\n      swap1\n      pop\n        /* \"https://github.com/OpenZeppelin/openzeppelin-contracts/blob/master/contracts/utils/math/Math.sol\":27365:27465  if (value >= 10 ** 2) {... */\n    tag_157:\n        /* \"https://github.com/OpenZeppelin/openzeppelin-contracts/blob/master/contracts/utils/math/Math.sol\":27491:27498  10 ** 1 */\n      0x0a\n        /* \"https://github.com/OpenZeppelin/openzeppelin-contracts/blob/master/contracts/utils/math/Math.sol\":27482:27487  value */\n      dup4\n        /* \"https://github.com/OpenZeppelin/openzeppelin-contracts/blob/master/contracts/utils/math/Math.sol\":27482:27498  value >= 10 ** 1 */\n      lt\n        /* \"https://github.com/OpenZeppelin/openzeppelin-contracts/blob/master/contracts/utils/math/Math.sol\":27478:27544  if (value >= 10 ** 1) {... */\n      tag_160\n      jumpi\n        /* \"https://github.com/OpenZeppelin/openzeppelin-contracts/blob/master/contracts/utils/math/Math.sol\":27528:27529  1 */\n      0x01\n        /* \"https://github.com/OpenZeppelin/openzeppelin-contracts/blob/master/contracts/utils/math/Math.sol\":27518:27529  result += 1 */\n      dup2\n      add\n      swap1\n      pop\n        /* \"https://github.com/OpenZeppelin/openzeppelin-contracts/blob/master/contracts/utils/math/Math.sol\":27478:27544  if (value >= 10 ** 1) {... */\n    tag_160:\n        /* \"https://github.com/OpenZeppelin/openzeppelin-contracts/blob/master/contracts/utils/math/Math.sol\":27570:27576  result */\n      dup1\n        /* \"https://github.com/OpenZeppelin/openzeppelin-contracts/blob/master/contracts/utils/math/Math.sol\":27563:27576  return result */\n      swap2\n      pop\n      pop\n        /* \"https://github.com/OpenZeppelin/openzeppelin-contracts/blob/master/contracts/utils/math/Math.sol\":26667:27583  function log10(uint256 value) internal pure returns (uint256) {... */\n      swap2\n      swap1\n      pop\n      jump\t// out\n    tag_61:\n      mload(0x40)\n      dup1\n      0xa0\n      add\n      0x40\n      mstore\n      dup1\n      0x00\n      dup2\n      mstore\n      0x20\n      add\n      and(0xffffffffffffffffffffffffffffffffffffffff, 0x00)\n      dup2\n      mstore\n      0x20\n      add\n      0x60\n      dup2\n      mstore\n      0x20\n      add\n      0x00\n      dup2\n      mstore\n      0x20\n      add\n      0x00\n      dup2\n      mstore\n      pop\n      swap1\n      jump\t// out\n        /* \"#utility.yul\":7:82   */\n    tag_161:\n        /* \"#utility.yul\":40:46   */\n      0x00\n        /* \"#utility.yul\":73:75   */\n      0x40\n        /* \"#utility.yul\":67:76   */\n      mload\n        /* \"#utility.yul\":57:76   */\n      swap1\n      pop\n        /* \"#utility.yul\":7:82   */\n      swap1\n      jump\t// out\n        /* \"#utility.yul\":88:205   */\n    tag_162:\n        /* \"#utility.yul\":197:198   */\n      0x00\n        /* \"#utility.yul\":194:195   */\n      dup1\n        /* \"#utility.yul\":187:199   */\n      revert\n        /* \"#utility.yul\":211:328   */\n    tag_163:\n        /* \"#utility.yul\":320:321   */\n      0x00\n        /* \"#utility.yul\":317:318   */\n      dup1\n        /* \"#utility.yul\":310:322   */\n      revert\n        /* \"#utility.yul\":334:460   */\n    tag_164:\n        /* \"#utility.yul\":371:378   */\n      0x00\n        /* \"#utility.yul\":411:453   */\n      0xffffffffffffffffffffffffffffffffffffffff\n        /* \"#utility.yul\":404:409   */\n      dup3\n        /* \"#utility.yul\":400:454   */\n      and\n        /* \"#utility.yul\":389:454   */\n      swap1\n      pop\n        /* \"#utility.yul\":334:460   */\n      swap2\n      swap1\n      pop\n      jump\t// out\n        /* \"#utility.yul\":466:562   */\n    tag_165:\n        /* \"#utility.yul\":503:510   */\n      0x00\n        /* \"#utility.yul\":532:556   */\n      tag_235\n        /* \"#utility.yul\":550:555   */\n      dup3\n        /* \"#utility.yul\":532:556   */\n      tag_164\n      jump\t// in\n    tag_235:\n        /* \"#utility.yul\":521:556   */\n      swap1\n      pop\n        /* \"#utility.yul\":466:562   */\n      swap2\n      swap1\n      pop\n      jump\t// out\n        /* \"#utility.yul\":568:690   */\n    tag_166:\n        /* \"#utility.yul\":641:665   */\n      tag_237\n        /* \"#utility.yul\":659:664   */\n      dup2\n        /* \"#utility.yul\":641:665   */\n      tag_165\n      jump\t// in\n    tag_237:\n        /* \"#utility.yul\":634:639   */\n      dup2\n        /* \"#utility.yul\":631:666   */\n      eq\n        /* \"#utility.yul\":621:684   */\n      tag_238\n      jumpi\n        /* \"#utility.yul\":680:681   */\n      0x00\n        /* \"#utility.yul\":677:678   */\n      dup1\n        /* \"#utility.yul\":670:682   */\n      revert\n        /* \"#utility.yul\":621:684   */\n    tag_238:\n        /* \"#utility.yul\":568:690   */\n      pop\n      jump\t// out\n        /* \"#utility.yul\":696:835   */\n    tag_167:\n        /* \"#utility.yul\":742:747   */\n      0x00\n        /* \"#utility.yul\":780:786   */\n      dup2\n        /* \"#utility.yul\":767:787   */\n      calldataload\n        /* \"#utility.yul\":758:787   */\n      swap1\n      pop\n        /* \"#utility.yul\":796:829   */\n      tag_240\n        /* \"#utility.yul\":823:828   */\n      dup2\n        /* \"#utility.yul\":796:829   */\n      tag_166\n      jump\t// in\n    tag_240:\n        /* \"#utility.yul\":696:835   */\n      swap3\n      swap2\n      pop\n      pop\n      jump\t// out\n        /* \"#utility.yul\":841:918   */\n    tag_168:\n        /* \"#utility.yul\":878:885   */\n      0x00\n        /* \"#utility.yul\":907:912   */\n      dup2\n        /* \"#utility.yul\":896:912   */\n      swap1\n      pop\n        /* \"#utility.yul\":841:918   */\n      swap2\n      swap1\n      pop\n      jump\t// out\n        /* \"#utility.yul\":924:1046   */\n    tag_169:\n        /* \"#utility.yul\":997:1021   */\n      tag_243\n        /* \"#utility.yul\":1015:1020   */\n      dup2\n        /* \"#utility.yul\":997:1021   */\n      tag_168\n      jump\t// in\n    tag_243:\n        /* \"#utility.yul\":990:995   */\n      dup2\n        /* \"#utility.yul\":987:1022   */\n      eq\n        /* \"#utility.yul\":977:1040   */\n      tag_244\n      jumpi\n        /* \"#utility.yul\":1036:1037   */\n      0x00\n        /* \"#utility.yul\":1033:1034   */\n      dup1\n        /* \"#utility.yul\":1026:1038   */\n      revert\n        /* \"#utility.yul\":977:1040   */\n    tag_244:\n        /* \"#utility.yul\":924:1046   */\n      pop\n      jump\t// out\n        /* \"#utility.yul\":1052:1191   */\n    tag_170:\n        /* \"#utility.yul\":1098:1103   */\n      0x00\n        /* \"#utility.yul\":1136:1142   */\n      dup2\n        /* \"#utility.yul\":1123:1143   */\n      calldataload\n        /* \"#utility.yul\":1114:1143   */\n      swap1\n      pop\n        /* \"#utility.yul\":1152:1185   */\n      tag_246\n        /* \"#utility.yul\":1179:1184   */\n      dup2\n        /* \"#utility.yul\":1152:1185   */\n      tag_169\n      jump\t// in\n    tag_246:\n        /* \"#utility.yul\":1052:1191   */\n      swap3\n      swap2\n      pop\n      pop\n      jump\t// out\n        /* \"#utility.yul\":1197:1671   */\n    tag_15:\n        /* \"#utility.yul\":1265:1271   */\n      0x00\n        /* \"#utility.yul\":1273:1279   */\n      dup1\n        /* \"#utility.yul\":1322:1324   */\n      0x40\n        /* \"#utility.yul\":1310:1319   */\n      dup4\n        /* \"#utility.yul\":1301:1308   */\n      dup6\n        /* \"#utility.yul\":1297:1320   */\n      sub\n        /* \"#utility.yul\":1293:1325   */\n      slt\n        /* \"#utility.yul\":1290:1409   */\n      iszero\n      tag_248\n      jumpi\n        /* \"#utility.yul\":1328:1407   */\n      tag_249\n      tag_162\n      jump\t// in\n    tag_249:\n        /* \"#utility.yul\":1290:1409   */\n    tag_248:\n        /* \"#utility.yul\":1448:1449   */\n      0x00\n        /* \"#utility.yul\":1473:1526   */\n      tag_250\n        /* \"#utility.yul\":1518:1525   */\n      dup6\n        /* \"#utility.yul\":1509:1515   */\n      dup3\n        /* \"#utility.yul\":1498:1507   */\n      dup7\n        /* \"#utility.yul\":1494:1516   */\n      add\n        /* \"#utility.yul\":1473:1526   */\n      tag_167\n      jump\t// in\n    tag_250:\n        /* \"#utility.yul\":1463:1526   */\n      swap3\n      pop\n        /* \"#utility.yul\":1419:1536   */\n      pop\n        /* \"#utility.yul\":1575:1577   */\n      0x20\n        /* \"#utility.yul\":1601:1654   */\n      tag_251\n        /* \"#utility.yul\":1646:1653   */\n      dup6\n        /* \"#utility.yul\":1637:1643   */\n      dup3\n        /* \"#utility.yul\":1626:1635   */\n      dup7\n        /* \"#utility.yul\":1622:1644   */\n      add\n        /* \"#utility.yul\":1601:1654   */\n      tag_170\n      jump\t// in\n    tag_251:\n        /* \"#utility.yul\":1591:1654   */\n      swap2\n      pop\n        /* \"#utility.yul\":1546:1664   */\n      pop\n        /* \"#utility.yul\":1197:1671   */\n      swap3\n      pop\n      swap3\n      swap1\n      pop\n      jump\t// out\n        /* \"#utility.yul\":1677:1795   */\n    tag_171:\n        /* \"#utility.yul\":1764:1788   */\n      tag_253\n        /* \"#utility.yul\":1782:1787   */\n      dup2\n        /* \"#utility.yul\":1764:1788   */\n      tag_168\n      jump\t// in\n    tag_253:\n        /* \"#utility.yul\":1759:1762   */\n      dup3\n        /* \"#utility.yul\":1752:1789   */\n      mstore\n        /* \"#utility.yul\":1677:1795   */\n      pop\n      pop\n      jump\t// out\n        /* \"#utility.yul\":1801:1919   */\n    tag_172:\n        /* \"#utility.yul\":1888:1912   */\n      tag_255\n        /* \"#utility.yul\":1906:1911   */\n      dup2\n        /* \"#utility.yul\":1888:1912   */\n      tag_165\n      jump\t// in\n    tag_255:\n        /* \"#utility.yul\":1883:1886   */\n      dup3\n        /* \"#utility.yul\":1876:1913   */\n      mstore\n        /* \"#utility.yul\":1801:1919   */\n      pop\n      pop\n      jump\t// out\n        /* \"#utility.yul\":1925:2024   */\n    tag_173:\n        /* \"#utility.yul\":1977:1983   */\n      0x00\n        /* \"#utility.yul\":2011:2016   */\n      dup2\n        /* \"#utility.yul\":2005:2017   */\n      mload\n        /* \"#utility.yul\":1995:2017   */\n      swap1\n      pop\n        /* \"#utility.yul\":1925:2024   */\n      swap2\n      swap1\n      pop\n      jump\t// out\n        /* \"#utility.yul\":2030:2199   */\n    tag_174:\n        /* \"#utility.yul\":2114:2125   */\n      0x00\n        /* \"#utility.yul\":2148:2154   */\n      dup3\n        /* \"#utility.yul\":2143:2146   */\n      dup3\n        /* \"#utility.yul\":2136:2155   */\n      mstore\n        /* \"#utility.yul\":2188:2192   */\n      0x20\n        /* \"#utility.yul\":2183:2186   */\n      dup3\n        /* \"#utility.yul\":2179:2193   */\n      add\n        /* \"#utility.yul\":2164:2193   */\n      swap1\n      pop\n        /* \"#utility.yul\":2030:2199   */\n      swap3\n      swap2\n      pop\n      pop\n      jump\t// out\n        /* \"#utility.yul\":2205:2344   */\n    tag_175:\n        /* \"#utility.yul\":2294:2300   */\n      dup3\n        /* \"#utility.yul\":2289:2292   */\n      dup2\n        /* \"#utility.yul\":2284:2287   */\n      dup4\n        /* \"#utility.yul\":2278:2301   */\n      mcopy\n        /* \"#utility.yul\":2335:2336   */\n      0x00\n        /* \"#utility.yul\":2326:2332   */\n      dup4\n        /* \"#utility.yul\":2321:2324   */\n      dup4\n        /* \"#utility.yul\":2317:2333   */\n      add\n        /* \"#utility.yul\":2310:2337   */\n      mstore\n        /* \"#utility.yul\":2205:2344   */\n      pop\n      pop\n      pop\n      jump\t// out\n        /* \"#utility.yul\":2350:2452   */\n    tag_176:\n        /* \"#utility.yul\":2391:2397   */\n      0x00\n        /* \"#utility.yul\":2442:2444   */\n      0x1f\n        /* \"#utility.yul\":2438:2445   */\n      not\n        /* \"#utility.yul\":2433:2435   */\n      0x1f\n        /* \"#utility.yul\":2426:2431   */\n      dup4\n        /* \"#utility.yul\":2422:2436   */\n      add\n        /* \"#utility.yul\":2418:2446   */\n      and\n        /* \"#utility.yul\":2408:2446   */\n      swap1\n      pop\n        /* \"#utility.yul\":2350:2452   */\n      swap2\n      swap1\n      pop\n      jump\t// out\n        /* \"#utility.yul\":2458:2835   */\n    tag_177:\n        /* \"#utility.yul\":2546:2549   */\n      0x00\n        /* \"#utility.yul\":2574:2613   */\n      tag_261\n        /* \"#utility.yul\":2607:2612   */\n      dup3\n        /* \"#utility.yul\":2574:2613   */\n      tag_173\n      jump\t// in\n    tag_261:\n        /* \"#utility.yul\":2629:2700   */\n      tag_262\n        /* \"#utility.yul\":2693:2699   */\n      dup2\n        /* \"#utility.yul\":2688:2691   */\n      dup6\n        /* \"#utility.yul\":2629:2700   */\n      tag_174\n      jump\t// in\n    tag_262:\n        /* \"#utility.yul\":2622:2700   */\n      swap4\n      pop\n        /* \"#utility.yul\":2709:2774   */\n      tag_263\n        /* \"#utility.yul\":2767:2773   */\n      dup2\n        /* \"#utility.yul\":2762:2765   */\n      dup6\n        /* \"#utility.yul\":2755:2759   */\n      0x20\n        /* \"#utility.yul\":2748:2753   */\n      dup7\n        /* \"#utility.yul\":2744:2760   */\n      add\n        /* \"#utility.yul\":2709:2774   */\n      tag_175\n      jump\t// in\n    tag_263:\n        /* \"#utility.yul\":2799:2828   */\n      tag_264\n        /* \"#utility.yul\":2821:2827   */\n      dup2\n        /* \"#utility.yul\":2799:2828   */\n      tag_176\n      jump\t// in\n    tag_264:\n        /* \"#utility.yul\":2794:2797   */\n      dup5\n        /* \"#utility.yul\":2790:2829   */\n      add\n        /* \"#utility.yul\":2783:2829   */\n      swap2\n      pop\n        /* \"#utility.yul\":2550:2835   */\n      pop\n        /* \"#utility.yul\":2458:2835   */\n      swap3\n      swap2\n      pop\n      pop\n      jump\t// out\n        /* \"#utility.yul\":2841:3596   */\n    tag_18:\n        /* \"#utility.yul\":3066:3070   */\n      0x00\n        /* \"#utility.yul\":3104:3107   */\n      0xa0\n        /* \"#utility.yul\":3093:3102   */\n      dup3\n        /* \"#utility.yul\":3089:3108   */\n      add\n        /* \"#utility.yul\":3081:3108   */\n      swap1\n      pop\n        /* \"#utility.yul\":3118:3189   */\n      tag_266\n        /* \"#utility.yul\":3186:3187   */\n      0x00\n        /* \"#utility.yul\":3175:3184   */\n      dup4\n        /* \"#utility.yul\":3171:3188   */\n      add\n        /* \"#utility.yul\":3162:3168   */\n      dup9\n        /* \"#utility.yul\":3118:3189   */\n      tag_171\n      jump\t// in\n    tag_266:\n        /* \"#utility.yul\":3199:3271   */\n      tag_267\n        /* \"#utility.yul\":3267:3269   */\n      0x20\n        /* \"#utility.yul\":3256:3265   */\n      dup4\n        /* \"#utility.yul\":3252:3270   */\n      add\n        /* \"#utility.yul\":3243:3249   */\n      dup8\n        /* \"#utility.yul\":3199:3271   */\n      tag_172\n      jump\t// in\n    tag_267:\n        /* \"#utility.yul\":3318:3327   */\n      dup2\n        /* \"#utility.yul\":3312:3316   */\n      dup2\n        /* \"#utility.yul\":3308:3328   */\n      sub\n        /* \"#utility.yul\":3303:3305   */\n      0x40\n        /* \"#utility.yul\":3292:3301   */\n      dup4\n        /* \"#utility.yul\":3288:3306   */\n      add\n        /* \"#utility.yul\":3281:3329   */\n      mstore\n        /* \"#utility.yul\":3346:3424   */\n      tag_268\n        /* \"#utility.yul\":3419:3423   */\n      dup2\n        /* \"#utility.yul\":3410:3416   */\n      dup7\n        /* \"#utility.yul\":3346:3424   */\n      tag_177\n      jump\t// in\n    tag_268:\n        /* \"#utility.yul\":3338:3424   */\n      swap1\n      pop\n        /* \"#utility.yul\":3434:3506   */\n      tag_269\n        /* \"#utility.yul\":3502:3504   */\n      0x60\n        /* \"#utility.yul\":3491:3500   */\n      dup4\n        /* \"#utility.yul\":3487:3505   */\n      add\n        /* \"#utility.yul\":3478:3484   */\n      dup6\n        /* \"#utility.yul\":3434:3506   */\n      tag_171\n      jump\t// in\n    tag_269:\n        /* \"#utility.yul\":3516:3589   */\n      tag_270\n        /* \"#utility.yul\":3584:3587   */\n      0x80\n        /* \"#utility.yul\":3573:3582   */\n      dup4\n        /* \"#utility.yul\":3569:3588   */\n      add\n        /* \"#utility.yul\":3560:3566   */\n      dup5\n        /* \"#utility.yul\":3516:3589   */\n      tag_171\n      jump\t// in\n    tag_270:\n        /* \"#utility.yul\":2841:3596   */\n      swap7\n      swap6\n      pop\n      pop\n      pop\n      pop\n      pop\n      pop\n      jump\t// out\n        /* \"#utility.yul\":3602:3710   */\n    tag_178:\n        /* \"#utility.yul\":3679:3703   */\n      tag_272\n        /* \"#utility.yul\":3697:3702   */\n      dup2\n        /* \"#utility.yul\":3679:3703   */\n      tag_168\n      jump\t// in\n    tag_272:\n        /* \"#utility.yul\":3674:3677   */\n      dup3\n        /* \"#utility.yul\":3667:3704   */\n      mstore\n        /* \"#utility.yul\":3602:3710   */\n      pop\n      pop\n      jump\t// out\n        /* \"#utility.yul\":3716:3824   */\n    tag_179:\n        /* \"#utility.yul\":3793:3817   */\n      tag_274\n        /* \"#utility.yul\":3811:3816   */\n      dup2\n        /* \"#utility.yul\":3793:3817   */\n      tag_165\n      jump\t// in\n    tag_274:\n        /* \"#utility.yul\":3788:3791   */\n      dup3\n        /* \"#utility.yul\":3781:3818   */\n      mstore\n        /* \"#utility.yul\":3716:3824   */\n      pop\n      pop\n      jump\t// out\n        /* \"#utility.yul\":3830:3989   */\n    tag_180:\n        /* \"#utility.yul\":3904:3915   */\n      0x00\n        /* \"#utility.yul\":3938:3944   */\n      dup3\n        /* \"#utility.yul\":3933:3936   */\n      dup3\n        /* \"#utility.yul\":3926:3945   */\n      mstore\n        /* \"#utility.yul\":3978:3982   */\n      0x20\n        /* \"#utility.yul\":3973:3976   */\n      dup3\n        /* \"#utility.yul\":3969:3983   */\n      add\n        /* \"#utility.yul\":3954:3983   */\n      swap1\n      pop\n        /* \"#utility.yul\":3830:3989   */\n      swap3\n      swap2\n      pop\n      pop\n      jump\t// out\n        /* \"#utility.yul\":3995:4352   */\n    tag_181:\n        /* \"#utility.yul\":4073:4076   */\n      0x00\n        /* \"#utility.yul\":4101:4140   */\n      tag_277\n        /* \"#utility.yul\":4134:4139   */\n      dup3\n        /* \"#utility.yul\":4101:4140   */\n      tag_173\n      jump\t// in\n    tag_277:\n        /* \"#utility.yul\":4156:4217   */\n      tag_278\n        /* \"#utility.yul\":4210:4216   */\n      dup2\n        /* \"#utility.yul\":4205:4208   */\n      dup6\n        /* \"#utility.yul\":4156:4217   */\n      tag_180\n      jump\t// in\n    tag_278:\n        /* \"#utility.yul\":4149:4217   */\n      swap4\n      pop\n        /* \"#utility.yul\":4226:4291   */\n      tag_279\n        /* \"#utility.yul\":4284:4290   */\n      dup2\n        /* \"#utility.yul\":4279:4282   */\n      dup6\n        /* \"#utility.yul\":4272:4276   */\n      0x20\n        /* \"#utility.yul\":4265:4270   */\n      dup7\n        /* \"#utility.yul\":4261:4277   */\n      add\n        /* \"#utility.yul\":4226:4291   */\n      tag_175\n      jump\t// in\n    tag_279:\n        /* \"#utility.yul\":4316:4345   */\n      tag_280\n        /* \"#utility.yul\":4338:4344   */\n      dup2\n        /* \"#utility.yul\":4316:4345   */\n      tag_176\n      jump\t// in\n    tag_280:\n        /* \"#utility.yul\":4311:4314   */\n      dup5\n        /* \"#utility.yul\":4307:4346   */\n      add\n        /* \"#utility.yul\":4300:4346   */\n      swap2\n      pop\n        /* \"#utility.yul\":4077:4352   */\n      pop\n        /* \"#utility.yul\":3995:4352   */\n      swap3\n      swap2\n      pop\n      pop\n      jump\t// out\n        /* \"#utility.yul\":4410:5539   */\n    tag_182:\n        /* \"#utility.yul\":4521:4524   */\n      0x00\n        /* \"#utility.yul\":4557:4561   */\n      0xa0\n        /* \"#utility.yul\":4552:4555   */\n      dup4\n        /* \"#utility.yul\":4548:4562   */\n      add\n        /* \"#utility.yul\":4642:4646   */\n      0x00\n        /* \"#utility.yul\":4635:4640   */\n      dup4\n        /* \"#utility.yul\":4631:4647   */\n      add\n        /* \"#utility.yul\":4625:4648   */\n      mload\n        /* \"#utility.yul\":4661:4724   */\n      tag_282\n        /* \"#utility.yul\":4718:4722   */\n      0x00\n        /* \"#utility.yul\":4713:4716   */\n      dup7\n        /* \"#utility.yul\":4709:4723   */\n      add\n        /* \"#utility.yul\":4695:4707   */\n      dup3\n        /* \"#utility.yul\":4661:4724   */\n      tag_178\n      jump\t// in\n    tag_282:\n        /* \"#utility.yul\":4572:4734   */\n      pop\n        /* \"#utility.yul\":4818:4822   */\n      0x20\n        /* \"#utility.yul\":4811:4816   */\n      dup4\n        /* \"#utility.yul\":4807:4823   */\n      add\n        /* \"#utility.yul\":4801:4824   */\n      mload\n        /* \"#utility.yul\":4837:4900   */\n      tag_283\n        /* \"#utility.yul\":4894:4898   */\n      0x20\n        /* \"#utility.yul\":4889:4892   */\n      dup7\n        /* \"#utility.yul\":4885:4899   */\n      add\n        /* \"#utility.yul\":4871:4883   */\n      dup3\n        /* \"#utility.yul\":4837:4900   */\n      tag_179\n      jump\t// in\n    tag_283:\n        /* \"#utility.yul\":4744:4910   */\n      pop\n        /* \"#utility.yul\":4995:4999   */\n      0x40\n        /* \"#utility.yul\":4988:4993   */\n      dup4\n        /* \"#utility.yul\":4984:5000   */\n      add\n        /* \"#utility.yul\":4978:5001   */\n      mload\n        /* \"#utility.yul\":5048:5051   */\n      dup5\n        /* \"#utility.yul\":5042:5046   */\n      dup3\n        /* \"#utility.yul\":5038:5052   */\n      sub\n        /* \"#utility.yul\":5031:5035   */\n      0x40\n        /* \"#utility.yul\":5026:5029   */\n      dup7\n        /* \"#utility.yul\":5022:5036   */\n      add\n        /* \"#utility.yul\":5015:5053   */\n      mstore\n        /* \"#utility.yul\":5074:5147   */\n      tag_284\n        /* \"#utility.yul\":5142:5146   */\n      dup3\n        /* \"#utility.yul\":5128:5140   */\n      dup3\n        /* \"#utility.yul\":5074:5147   */\n      tag_181\n      jump\t// in\n    tag_284:\n        /* \"#utility.yul\":5066:5147   */\n      swap2\n      pop\n        /* \"#utility.yul\":4920:5158   */\n      pop\n        /* \"#utility.yul\":5245:5249   */\n      0x60\n        /* \"#utility.yul\":5238:5243   */\n      dup4\n        /* \"#utility.yul\":5234:5250   */\n      add\n        /* \"#utility.yul\":5228:5251   */\n      mload\n        /* \"#utility.yul\":5264:5327   */\n      tag_285\n        /* \"#utility.yul\":5321:5325   */\n      0x60\n        /* \"#utility.yul\":5316:5319   */\n      dup7\n        /* \"#utility.yul\":5312:5326   */\n      add\n        /* \"#utility.yul\":5298:5310   */\n      dup3\n        /* \"#utility.yul\":5264:5327   */\n      tag_178\n      jump\t// in\n    tag_285:\n        /* \"#utility.yul\":5168:5337   */\n      pop\n        /* \"#utility.yul\":5420:5424   */\n      0x80\n        /* \"#utility.yul\":5413:5418   */\n      dup4\n        /* \"#utility.yul\":5409:5425   */\n      add\n        /* \"#utility.yul\":5403:5426   */\n      mload\n        /* \"#utility.yul\":5439:5502   */\n      tag_286\n        /* \"#utility.yul\":5496:5500   */\n      0x80\n        /* \"#utility.yul\":5491:5494   */\n      dup7\n        /* \"#utility.yul\":5487:5501   */\n      add\n        /* \"#utility.yul\":5473:5485   */\n      dup3\n        /* \"#utility.yul\":5439:5502   */\n      tag_178\n      jump\t// in\n    tag_286:\n        /* \"#utility.yul\":5347:5512   */\n      pop\n        /* \"#utility.yul\":5529:5533   */\n      dup1\n        /* \"#utility.yul\":5522:5533   */\n      swap2\n      pop\n        /* \"#utility.yul\":4526:5539   */\n      pop\n        /* \"#utility.yul\":4410:5539   */\n      swap3\n      swap2\n      pop\n      pop\n      jump\t// out\n        /* \"#utility.yul\":5545:5902   */\n    tag_23:\n        /* \"#utility.yul\":5680:5684   */\n      0x00\n        /* \"#utility.yul\":5718:5720   */\n      0x20\n        /* \"#utility.yul\":5707:5716   */\n      dup3\n        /* \"#utility.yul\":5703:5721   */\n      add\n        /* \"#utility.yul\":5695:5721   */\n      swap1\n      pop\n        /* \"#utility.yul\":5767:5776   */\n      dup2\n        /* \"#utility.yul\":5761:5765   */\n      dup2\n        /* \"#utility.yul\":5757:5777   */\n      sub\n        /* \"#utility.yul\":5753:5754   */\n      0x00\n        /* \"#utility.yul\":5742:5751   */\n      dup4\n        /* \"#utility.yul\":5738:5755   */\n      add\n        /* \"#utility.yul\":5731:5778   */\n      mstore\n        /* \"#utility.yul\":5795:5895   */\n      tag_288\n        /* \"#utility.yul\":5890:5894   */\n      dup2\n        /* \"#utility.yul\":5881:5887   */\n      dup5\n        /* \"#utility.yul\":5795:5895   */\n      tag_182\n      jump\t// in\n    tag_288:\n        /* \"#utility.yul\":5787:5895   */\n      swap1\n      pop\n        /* \"#utility.yul\":5545:5902   */\n      swap3\n      swap2\n      pop\n      pop\n      jump\t// out\n        /* \"#utility.yul\":5908:5997   */\n    tag_183:\n        /* \"#utility.yul\":5944:5951   */\n      0x00\n        /* \"#utility.yul\":5984:5990   */\n      0xffff\n        /* \"#utility.yul\":5977:5982   */\n      dup3\n        /* \"#utility.yul\":5973:5991   */\n      and\n        /* \"#utility.yul\":5962:5991   */\n      swap1\n      pop\n        /* \"#utility.yul\":5908:5997   */\n      swap2\n      swap1\n      pop\n      jump\t// out\n        /* \"#utility.yul\":6003:6123   */\n    tag_184:\n        /* \"#utility.yul\":6075:6098   */\n      tag_291\n        /* \"#utility.yul\":6092:6097   */\n      dup2\n        /* \"#utility.yul\":6075:6098   */\n      tag_183\n      jump\t// in\n    tag_291:\n        /* \"#utility.yul\":6068:6073   */\n      dup2\n        /* \"#utility.yul\":6065:6099   */\n      eq\n        /* \"#utility.yul\":6055:6117   */\n      tag_292\n      jumpi\n        /* \"#utility.yul\":6113:6114   */\n      0x00\n        /* \"#utility.yul\":6110:6111   */\n      dup1\n        /* \"#utility.yul\":6103:6115   */\n      revert\n        /* \"#utility.yul\":6055:6117   */\n    tag_292:\n        /* \"#utility.yul\":6003:6123   */\n      pop\n      jump\t// out\n        /* \"#utility.yul\":6129:6266   */\n    tag_185:\n        /* \"#utility.yul\":6174:6179   */\n      0x00\n        /* \"#utility.yul\":6212:6218   */\n      dup2\n        /* \"#utility.yul\":6199:6219   */\n      calldataload\n        /* \"#utility.yul\":6190:6219   */\n      swap1\n      pop\n        /* \"#utility.yul\":6228:6260   */\n      tag_294\n        /* \"#utility.yul\":6254:6259   */\n      dup2\n        /* \"#utility.yul\":6228:6260   */\n      tag_184\n      jump\t// in\n    tag_294:\n        /* \"#utility.yul\":6129:6266   */\n      swap3\n      swap2\n      pop\n      pop\n      jump\t// out\n        /* \"#utility.yul\":6272:6599   */\n    tag_29:\n        /* \"#utility.yul\":6330:6336   */\n      0x00\n        /* \"#utility.yul\":6379:6381   */\n      0x20\n        /* \"#utility.yul\":6367:6376   */\n      dup3\n        /* \"#utility.yul\":6358:6365   */\n      dup5\n        /* \"#utility.yul\":6354:6377   */\n      sub\n        /* \"#utility.yul\":6350:6382   */\n      slt\n        /* \"#utility.yul\":6347:6466   */\n      iszero\n      tag_296\n      jumpi\n        /* \"#utility.yul\":6385:6464   */\n      tag_297\n      tag_162\n      jump\t// in\n    tag_297:\n        /* \"#utility.yul\":6347:6466   */\n    tag_296:\n        /* \"#utility.yul\":6505:6506   */\n      0x00\n        /* \"#utility.yul\":6530:6582   */\n      tag_298\n        /* \"#utility.yul\":6574:6581   */\n      dup5\n        /* \"#utility.yul\":6565:6571   */\n      dup3\n        /* \"#utility.yul\":6554:6563   */\n      dup6\n        /* \"#utility.yul\":6550:6572   */\n      add\n        /* \"#utility.yul\":6530:6582   */\n      tag_185\n      jump\t// in\n    tag_298:\n        /* \"#utility.yul\":6520:6582   */\n      swap2\n      pop\n        /* \"#utility.yul\":6476:6592   */\n      pop\n        /* \"#utility.yul\":6272:6599   */\n      swap3\n      swap2\n      pop\n      pop\n      jump\t// out\n        /* \"#utility.yul\":6605:6722   */\n    tag_186:\n        /* \"#utility.yul\":6714:6715   */\n      0x00\n        /* \"#utility.yul\":6711:6712   */\n      dup1\n        /* \"#utility.yul\":6704:6716   */\n      revert\n        /* \"#utility.yul\":6728:6845   */\n    tag_187:\n        /* \"#utility.yul\":6837:6838   */\n      0x00\n        /* \"#utility.yul\":6834:6835   */\n      dup1\n        /* \"#utility.yul\":6827:6839   */\n      revert\n        /* \"#utility.yul\":6851:7031   */\n    tag_133:\n        /* \"#utility.yul\":6899:6976   */\n      0x4e487b7100000000000000000000000000000000000000000000000000000000\n        /* \"#utility.yul\":6896:6897   */\n      0x00\n        /* \"#utility.yul\":6889:6977   */\n      mstore\n        /* \"#utility.yul\":6996:7000   */\n      0x41\n        /* \"#utility.yul\":6993:6994   */\n      0x04\n        /* \"#utility.yul\":6986:7001   */\n      mstore\n        /* \"#utility.yul\":7020:7024   */\n      0x24\n        /* \"#utility.yul\":7017:7018   */\n      0x00\n        /* \"#utility.yul\":7010:7025   */\n      revert\n        /* \"#utility.yul\":7037:7318   */\n    tag_188:\n        /* \"#utility.yul\":7120:7147   */\n      tag_303\n        /* \"#utility.yul\":7142:7146   */\n      dup3\n        /* \"#utility.yul\":7120:7147   */\n      tag_176\n      jump\t// in\n    tag_303:\n        /* \"#utility.yul\":7112:7118   */\n      dup2\n        /* \"#utility.yul\":7108:7148   */\n      add\n        /* \"#utility.yul\":7250:7256   */\n      dup2\n        /* \"#utility.yul\":7238:7248   */\n      dup2\n        /* \"#utility.yul\":7235:7257   */\n      lt\n        /* \"#utility.yul\":7214:7232   */\n      0xffffffffffffffff\n        /* \"#utility.yul\":7202:7212   */\n      dup3\n        /* \"#utility.yul\":7199:7233   */\n      gt\n        /* \"#utility.yul\":7196:7258   */\n      or\n        /* \"#utility.yul\":7193:7281   */\n      iszero\n      tag_304\n      jumpi\n        /* \"#utility.yul\":7261:7279   */\n      tag_305\n      tag_133\n      jump\t// in\n    tag_305:\n        /* \"#utility.yul\":7193:7281   */\n    tag_304:\n        /* \"#utility.yul\":7301:7311   */\n      dup1\n        /* \"#utility.yul\":7297:7299   */\n      0x40\n        /* \"#utility.yul\":7290:7312   */\n      mstore\n        /* \"#utility.yul\":7080:7318   */\n      pop\n        /* \"#utility.yul\":7037:7318   */\n      pop\n      pop\n      jump\t// out\n        /* \"#utility.yul\":7324:7453   */\n    tag_189:\n        /* \"#utility.yul\":7358:7364   */\n      0x00\n        /* \"#utility.yul\":7385:7405   */\n      tag_307\n      tag_161\n      jump\t// in\n    tag_307:\n        /* \"#utility.yul\":7375:7405   */\n      swap1\n      pop\n        /* \"#utility.yul\":7414:7447   */\n      tag_308\n        /* \"#utility.yul\":7442:7446   */\n      dup3\n        /* \"#utility.yul\":7434:7440   */\n      dup3\n        /* \"#utility.yul\":7414:7447   */\n      tag_188\n      jump\t// in\n    tag_308:\n        /* \"#utility.yul\":7324:7453   */\n      swap2\n      swap1\n      pop\n      jump\t// out\n        /* \"#utility.yul\":7459:7767   */\n    tag_190:\n        /* \"#utility.yul\":7521:7525   */\n      0x00\n        /* \"#utility.yul\":7611:7629   */\n      0xffffffffffffffff\n        /* \"#utility.yul\":7603:7609   */\n      dup3\n        /* \"#utility.yul\":7600:7630   */\n      gt\n        /* \"#utility.yul\":7597:7653   */\n      iszero\n      tag_310\n      jumpi\n        /* \"#utility.yul\":7633:7651   */\n      tag_311\n      tag_133\n      jump\t// in\n    tag_311:\n        /* \"#utility.yul\":7597:7653   */\n    tag_310:\n        /* \"#utility.yul\":7671:7700   */\n      tag_312\n        /* \"#utility.yul\":7693:7699   */\n      dup3\n        /* \"#utility.yul\":7671:7700   */\n      tag_176\n      jump\t// in\n    tag_312:\n        /* \"#utility.yul\":7663:7700   */\n      swap1\n      pop\n        /* \"#utility.yul\":7755:7759   */\n      0x20\n        /* \"#utility.yul\":7749:7753   */\n      dup2\n        /* \"#utility.yul\":7745:7760   */\n      add\n        /* \"#utility.yul\":7737:7760   */\n      swap1\n      pop\n        /* \"#utility.yul\":7459:7767   */\n      swap2\n      swap1\n      pop\n      jump\t// out\n        /* \"#utility.yul\":7773:7921   */\n    tag_191:\n        /* \"#utility.yul\":7871:7877   */\n      dup3\n        /* \"#utility.yul\":7866:7869   */\n      dup2\n        /* \"#utility.yul\":7861:7864   */\n      dup4\n        /* \"#utility.yul\":7848:7878   */\n      calldatacopy\n        /* \"#utility.yul\":7912:7913   */\n      0x00\n        /* \"#utility.yul\":7903:7909   */\n      dup4\n        /* \"#utility.yul\":7898:7901   */\n      dup4\n        /* \"#utility.yul\":7894:7910   */\n      add\n        /* \"#utility.yul\":7887:7914   */\n      mstore\n        /* \"#utility.yul\":7773:7921   */\n      pop\n      pop\n      pop\n      jump\t// out\n        /* \"#utility.yul\":7927:8352   */\n    tag_192:\n        /* \"#utility.yul\":8005:8010   */\n      0x00\n        /* \"#utility.yul\":8030:8096   */\n      tag_315\n        /* \"#utility.yul\":8046:8095   */\n      tag_316\n        /* \"#utility.yul\":8088:8094   */\n      dup5\n        /* \"#utility.yul\":8046:8095   */\n      tag_190\n      jump\t// in\n    tag_316:\n        /* \"#utility.yul\":8030:8096   */\n      tag_189\n      jump\t// in\n    tag_315:\n        /* \"#utility.yul\":8021:8096   */\n      swap1\n      pop\n        /* \"#utility.yul\":8119:8125   */\n      dup3\n        /* \"#utility.yul\":8112:8117   */\n      dup2\n        /* \"#utility.yul\":8105:8126   */\n      mstore\n        /* \"#utility.yul\":8157:8161   */\n      0x20\n        /* \"#utility.yul\":8150:8155   */\n      dup2\n        /* \"#utility.yul\":8146:8162   */\n      add\n        /* \"#utility.yul\":8195:8198   */\n      dup5\n        /* \"#utility.yul\":8186:8192   */\n      dup5\n        /* \"#utility.yul\":8181:8184   */\n      dup5\n        /* \"#utility.yul\":8177:8193   */\n      add\n        /* \"#utility.yul\":8174:8199   */\n      gt\n        /* \"#utility.yul\":8171:8283   */\n      iszero\n      tag_317\n      jumpi\n        /* \"#utility.yul\":8202:8281   */\n      tag_318\n      tag_187\n      jump\t// in\n    tag_318:\n        /* \"#utility.yul\":8171:8283   */\n    tag_317:\n        /* \"#utility.yul\":8292:8346   */\n      tag_319\n        /* \"#utility.yul\":8339:8345   */\n      dup5\n        /* \"#utility.yul\":8334:8337   */\n      dup3\n        /* \"#utility.yul\":8329:8332   */\n      dup6\n        /* \"#utility.yul\":8292:8346   */\n      tag_191\n      jump\t// in\n    tag_319:\n        /* \"#utility.yul\":8011:8352   */\n      pop\n        /* \"#utility.yul\":7927:8352   */\n      swap4\n      swap3\n      pop\n      pop\n      pop\n      jump\t// out\n        /* \"#utility.yul\":8372:8712   */\n    tag_193:\n        /* \"#utility.yul\":8428:8433   */\n      0x00\n        /* \"#utility.yul\":8477:8480   */\n      dup3\n        /* \"#utility.yul\":8470:8474   */\n      0x1f\n        /* \"#utility.yul\":8462:8468   */\n      dup4\n        /* \"#utility.yul\":8458:8475   */\n      add\n        /* \"#utility.yul\":8454:8481   */\n      slt\n        /* \"#utility.yul\":8444:8566   */\n      tag_321\n      jumpi\n        /* \"#utility.yul\":8485:8564   */\n      tag_322\n      tag_186\n      jump\t// in\n    tag_322:\n        /* \"#utility.yul\":8444:8566   */\n    tag_321:\n        /* \"#utility.yul\":8602:8608   */\n      dup2\n        /* \"#utility.yul\":8589:8609   */\n      calldataload\n        /* \"#utility.yul\":8627:8706   */\n      tag_323\n        /* \"#utility.yul\":8702:8705   */\n      dup5\n        /* \"#utility.yul\":8694:8700   */\n      dup3\n        /* \"#utility.yul\":8687:8691   */\n      0x20\n        /* \"#utility.yul\":8679:8685   */\n      dup7\n        /* \"#utility.yul\":8675:8692   */\n      add\n        /* \"#utility.yul\":8627:8706   */\n      tag_192\n      jump\t// in\n    tag_323:\n        /* \"#utility.yul\":8618:8706   */\n      swap2\n      pop\n        /* \"#utility.yul\":8434:8712   */\n      pop\n        /* \"#utility.yul\":8372:8712   */\n      swap3\n      swap2\n      pop\n      pop\n      jump\t// out\n        /* \"#utility.yul\":8718:9227   */\n    tag_36:\n        /* \"#utility.yul\":8787:8793   */\n      0x00\n        /* \"#utility.yul\":8836:8838   */\n      0x20\n        /* \"#utility.yul\":8824:8833   */\n      dup3\n        /* \"#utility.yul\":8815:8822   */\n      dup5\n        /* \"#utility.yul\":8811:8834   */\n      sub\n        /* \"#utility.yul\":8807:8839   */\n      slt\n        /* \"#utility.yul\":8804:8923   */\n      iszero\n      tag_325\n      jumpi\n        /* \"#utility.yul\":8842:8921   */\n      tag_326\n      tag_162\n      jump\t// in\n    tag_326:\n        /* \"#utility.yul\":8804:8923   */\n    tag_325:\n        /* \"#utility.yul\":8990:8991   */\n      0x00\n        /* \"#utility.yul\":8979:8988   */\n      dup3\n        /* \"#utility.yul\":8975:8992   */\n      add\n        /* \"#utility.yul\":8962:8993   */\n      calldataload\n        /* \"#utility.yul\":9020:9038   */\n      0xffffffffffffffff\n        /* \"#utility.yul\":9012:9018   */\n      dup2\n        /* \"#utility.yul\":9009:9039   */\n      gt\n        /* \"#utility.yul\":9006:9123   */\n      iszero\n      tag_327\n      jumpi\n        /* \"#utility.yul\":9042:9121   */\n      tag_328\n      tag_163\n      jump\t// in\n    tag_328:\n        /* \"#utility.yul\":9006:9123   */\n    tag_327:\n        /* \"#utility.yul\":9147:9210   */\n      tag_329\n        /* \"#utility.yul\":9202:9209   */\n      dup5\n        /* \"#utility.yul\":9193:9199   */\n      dup3\n        /* \"#utility.yul\":9182:9191   */\n      dup6\n        /* \"#utility.yul\":9178:9200   */\n      add\n        /* \"#utility.yul\":9147:9210   */\n      tag_193\n      jump\t// in\n    tag_329:\n        /* \"#utility.yul\":9137:9210   */\n      swap2\n      pop\n        /* \"#utility.yul\":8933:9220   */\n      pop\n        /* \"#utility.yul\":8718:9227   */\n      swap3\n      swap2\n      pop\n      pop\n      jump\t// out\n        /* \"#utility.yul\":9233:9562   */\n    tag_40:\n        /* \"#utility.yul\":9292:9298   */\n      0x00\n        /* \"#utility.yul\":9341:9343   */\n      0x20\n        /* \"#utility.yul\":9329:9338   */\n      dup3\n        /* \"#utility.yul\":9320:9327   */\n      dup5\n        /* \"#utility.yul\":9316:9339   */\n      sub\n        /* \"#utility.yul\":9312:9344   */\n      slt\n        /* \"#utility.yul\":9309:9428   */\n      iszero\n      tag_331\n      jumpi\n        /* \"#utility.yul\":9347:9426   */\n      tag_332\n      tag_162\n      jump\t// in\n    tag_332:\n        /* \"#utility.yul\":9309:9428   */\n    tag_331:\n        /* \"#utility.yul\":9467:9468   */\n      0x00\n        /* \"#utility.yul\":9492:9545   */\n      tag_333\n        /* \"#utility.yul\":9537:9544   */\n      dup5\n        /* \"#utility.yul\":9528:9534   */\n      dup3\n        /* \"#utility.yul\":9517:9526   */\n      dup6\n        /* \"#utility.yul\":9513:9535   */\n      add\n        /* \"#utility.yul\":9492:9545   */\n      tag_167\n      jump\t// in\n    tag_333:\n        /* \"#utility.yul\":9482:9545   */\n      swap2\n      pop\n        /* \"#utility.yul\":9438:9555   */\n      pop\n        /* \"#utility.yul\":9233:9562   */\n      swap3\n      swap2\n      pop\n      pop\n      jump\t// out\n        /* \"#utility.yul\":9568:9703   */\n    tag_194:\n        /* \"#utility.yul\":9656:9662   */\n      0x00\n        /* \"#utility.yul\":9690:9695   */\n      dup2\n        /* \"#utility.yul\":9684:9696   */\n      mload\n        /* \"#utility.yul\":9674:9696   */\n      swap1\n      pop\n        /* \"#utility.yul\":9568:9703   */\n      swap2\n      swap1\n      pop\n      jump\t// out\n        /* \"#utility.yul\":9709:9914   */\n    tag_195:\n        /* \"#utility.yul\":9829:9840   */\n      0x00\n        /* \"#utility.yul\":9863:9869   */\n      dup3\n        /* \"#utility.yul\":9858:9861   */\n      dup3\n        /* \"#utility.yul\":9851:9870   */\n      mstore\n        /* \"#utility.yul\":9903:9907   */\n      0x20\n        /* \"#utility.yul\":9898:9901   */\n      dup3\n        /* \"#utility.yul\":9894:9908   */\n      add\n        /* \"#utility.yul\":9879:9908   */\n      swap1\n      pop\n        /* \"#utility.yul\":9709:9914   */\n      swap3\n      swap2\n      pop\n      pop\n      jump\t// out\n        /* \"#utility.yul\":9920:10073   */\n    tag_196:\n        /* \"#utility.yul\":10008:10012   */\n      0x00\n        /* \"#utility.yul\":10031:10034   */\n      dup2\n        /* \"#utility.yul\":10023:10034   */\n      swap1\n      pop\n        /* \"#utility.yul\":10061:10065   */\n      0x20\n        /* \"#utility.yul\":10056:10059   */\n      dup3\n        /* \"#utility.yul\":10052:10066   */\n      add\n        /* \"#utility.yul\":10044:10066   */\n      swap1\n      pop\n        /* \"#utility.yul\":9920:10073   */\n      swap2\n      swap1\n      pop\n      jump\t// out\n        /* \"#utility.yul\":10131:11250   */\n    tag_197:\n        /* \"#utility.yul\":10232:10235   */\n      0x00\n        /* \"#utility.yul\":10268:10272   */\n      0xa0\n        /* \"#utility.yul\":10263:10266   */\n      dup4\n        /* \"#utility.yul\":10259:10273   */\n      add\n        /* \"#utility.yul\":10353:10357   */\n      0x00\n        /* \"#utility.yul\":10346:10351   */\n      dup4\n        /* \"#utility.yul\":10342:10358   */\n      add\n        /* \"#utility.yul\":10336:10359   */\n      mload\n        /* \"#utility.yul\":10372:10435   */\n      tag_338\n        /* \"#utility.yul\":10429:10433   */\n      0x00\n        /* \"#utility.yul\":10424:10427   */\n      dup7\n        /* \"#utility.yul\":10420:10434   */\n      add\n        /* \"#utility.yul\":10406:10418   */\n      dup3\n        /* \"#utility.yul\":10372:10435   */\n      tag_178\n      jump\t// in\n    tag_338:\n        /* \"#utility.yul\":10283:10445   */\n      pop\n        /* \"#utility.yul\":10529:10533   */\n      0x20\n        /* \"#utility.yul\":10522:10527   */\n      dup4\n        /* \"#utility.yul\":10518:10534   */\n      add\n        /* \"#utility.yul\":10512:10535   */\n      mload\n        /* \"#utility.yul\":10548:10611   */\n      tag_339\n        /* \"#utility.yul\":10605:10609   */\n      0x20\n        /* \"#utility.yul\":10600:10603   */\n      dup7\n        /* \"#utility.yul\":10596:10610   */\n      add\n        /* \"#utility.yul\":10582:10594   */\n      dup3\n        /* \"#utility.yul\":10548:10611   */\n      tag_179\n      jump\t// in\n    tag_339:\n        /* \"#utility.yul\":10455:10621   */\n      pop\n        /* \"#utility.yul\":10706:10710   */\n      0x40\n        /* \"#utility.yul\":10699:10704   */\n      dup4\n        /* \"#utility.yul\":10695:10711   */\n      add\n        /* \"#utility.yul\":10689:10712   */\n      mload\n        /* \"#utility.yul\":10759:10762   */\n      dup5\n        /* \"#utility.yul\":10753:10757   */\n      dup3\n        /* \"#utility.yul\":10749:10763   */\n      sub\n        /* \"#utility.yul\":10742:10746   */\n      0x40\n        /* \"#utility.yul\":10737:10740   */\n      dup7\n        /* \"#utility.yul\":10733:10747   */\n      add\n        /* \"#utility.yul\":10726:10764   */\n      mstore\n        /* \"#utility.yul\":10785:10858   */\n      tag_340\n        /* \"#utility.yul\":10853:10857   */\n      dup3\n        /* \"#utility.yul\":10839:10851   */\n      dup3\n        /* \"#utility.yul\":10785:10858   */\n      tag_181\n      jump\t// in\n    tag_340:\n        /* \"#utility.yul\":10777:10858   */\n      swap2\n      pop\n        /* \"#utility.yul\":10631:10869   */\n      pop\n        /* \"#utility.yul\":10956:10960   */\n      0x60\n        /* \"#utility.yul\":10949:10954   */\n      dup4\n        /* \"#utility.yul\":10945:10961   */\n      add\n        /* \"#utility.yul\":10939:10962   */\n      mload\n        /* \"#utility.yul\":10975:11038   */\n      tag_341\n        /* \"#utility.yul\":11032:11036   */\n      0x60\n        /* \"#utility.yul\":11027:11030   */\n      dup7\n        /* \"#utility.yul\":11023:11037   */\n      add\n        /* \"#utility.yul\":11009:11021   */\n      dup3\n        /* \"#utility.yul\":10975:11038   */\n      tag_178\n      jump\t// in\n    tag_341:\n        /* \"#utility.yul\":10879:11048   */\n      pop\n        /* \"#utility.yul\":11131:11135   */\n      0x80\n        /* \"#utility.yul\":11124:11129   */\n      dup4\n        /* \"#utility.yul\":11120:11136   */\n      add\n        /* \"#utility.yul\":11114:11137   */\n      mload\n        /* \"#utility.yul\":11150:11213   */\n      tag_342\n        /* \"#utility.yul\":11207:11211   */\n      0x80\n        /* \"#utility.yul\":11202:11205   */\n      dup7\n        /* \"#utility.yul\":11198:11212   */\n      add\n        /* \"#utility.yul\":11184:11196   */\n      dup3\n        /* \"#utility.yul\":11150:11213   */\n      tag_178\n      jump\t// in\n    tag_342:\n        /* \"#utility.yul\":11058:11223   */\n      pop\n        /* \"#utility.yul\":11240:11244   */\n      dup1\n        /* \"#utility.yul\":11233:11244   */\n      swap2\n      pop\n        /* \"#utility.yul\":10237:11250   */\n      pop\n        /* \"#utility.yul\":10131:11250   */\n      swap3\n      swap2\n      pop\n      pop\n      jump\t// out\n        /* \"#utility.yul\":11256:11496   */\n    tag_198:\n        /* \"#utility.yul\":11367:11377   */\n      0x00\n        /* \"#utility.yul\":11402:11490   */\n      tag_344\n        /* \"#utility.yul\":11486:11489   */\n      dup4\n        /* \"#utility.yul\":11478:11484   */\n      dup4\n        /* \"#utility.yul\":11402:11490   */\n      tag_197\n      jump\t// in\n    tag_344:\n        /* \"#utility.yul\":11388:11490   */\n      swap1\n      pop\n        /* \"#utility.yul\":11256:11496   */\n      swap3\n      swap2\n      pop\n      pop\n      jump\t// out\n        /* \"#utility.yul\":11502:11636   */\n    tag_199:\n        /* \"#utility.yul\":11593:11597   */\n      0x00\n        /* \"#utility.yul\":11625:11629   */\n      0x20\n        /* \"#utility.yul\":11620:11623   */\n      dup3\n        /* \"#utility.yul\":11616:11630   */\n      add\n        /* \"#utility.yul\":11608:11630   */\n      swap1\n      pop\n        /* \"#utility.yul\":11502:11636   */\n      swap2\n      swap1\n      pop\n      jump\t// out\n        /* \"#utility.yul\":11698:12777   */\n    tag_200:\n        /* \"#utility.yul\":11859:11862   */\n      0x00\n        /* \"#utility.yul\":11888:11963   */\n      tag_347\n        /* \"#utility.yul\":11957:11962   */\n      dup3\n        /* \"#utility.yul\":11888:11963   */\n      tag_194\n      jump\t// in\n    tag_347:\n        /* \"#utility.yul\":11979:12086   */\n      tag_348\n        /* \"#utility.yul\":12079:12085   */\n      dup2\n        /* \"#utility.yul\":12074:12077   */\n      dup6\n        /* \"#utility.yul\":11979:12086   */\n      tag_195\n      jump\t// in\n    tag_348:\n        /* \"#utility.yul\":11972:12086   */\n      swap4\n      pop\n        /* \"#utility.yul\":12112:12115   */\n      dup4\n        /* \"#utility.yul\":12157:12161   */\n      0x20\n        /* \"#utility.yul\":12149:12155   */\n      dup3\n        /* \"#utility.yul\":12145:12162   */\n      mul\n        /* \"#utility.yul\":12140:12143   */\n      dup6\n        /* \"#utility.yul\":12136:12163   */\n      add\n        /* \"#utility.yul\":12187:12264   */\n      tag_349\n        /* \"#utility.yul\":12258:12263   */\n      dup6\n        /* \"#utility.yul\":12187:12264   */\n      tag_196\n      jump\t// in\n    tag_349:\n        /* \"#utility.yul\":12287:12294   */\n      dup1\n        /* \"#utility.yul\":12318:12319   */\n      0x00\n        /* \"#utility.yul\":12303:12732   */\n    tag_350:\n        /* \"#utility.yul\":12328:12334   */\n      dup6\n        /* \"#utility.yul\":12325:12326   */\n      dup2\n        /* \"#utility.yul\":12322:12335   */\n      lt\n        /* \"#utility.yul\":12303:12732   */\n      iszero\n      tag_352\n      jumpi\n        /* \"#utility.yul\":12399:12408   */\n      dup5\n        /* \"#utility.yul\":12393:12397   */\n      dup5\n        /* \"#utility.yul\":12389:12409   */\n      sub\n        /* \"#utility.yul\":12384:12387   */\n      dup10\n        /* \"#utility.yul\":12377:12410   */\n      mstore\n        /* \"#utility.yul\":12450:12456   */\n      dup2\n        /* \"#utility.yul\":12444:12457   */\n      mload\n        /* \"#utility.yul\":12478:12584   */\n      tag_353\n        /* \"#utility.yul\":12579:12583   */\n      dup6\n        /* \"#utility.yul\":12564:12577   */\n      dup3\n        /* \"#utility.yul\":12478:12584   */\n      tag_198\n      jump\t// in\n    tag_353:\n        /* \"#utility.yul\":12470:12584   */\n      swap5\n      pop\n        /* \"#utility.yul\":12607:12688   */\n      tag_354\n        /* \"#utility.yul\":12681:12687   */\n      dup4\n        /* \"#utility.yul\":12607:12688   */\n      tag_199\n      jump\t// in\n    tag_354:\n        /* \"#utility.yul\":12597:12688   */\n      swap3\n      pop\n        /* \"#utility.yul\":12717:12721   */\n      0x20\n        /* \"#utility.yul\":12712:12715   */\n      dup11\n        /* \"#utility.yul\":12708:12722   */\n      add\n        /* \"#utility.yul\":12701:12722   */\n      swap10\n      pop\n        /* \"#utility.yul\":12363:12732   */\n      pop\n        /* \"#utility.yul\":12350:12351   */\n      0x01\n        /* \"#utility.yul\":12347:12348   */\n      dup2\n        /* \"#utility.yul\":12343:12352   */\n      add\n        /* \"#utility.yul\":12338:12352   */\n      swap1\n      pop\n        /* \"#utility.yul\":12303:12732   */\n      jump(tag_350)\n    tag_352:\n        /* \"#utility.yul\":12307:12321   */\n      pop\n        /* \"#utility.yul\":12748:12752   */\n      dup3\n        /* \"#utility.yul\":12741:12752   */\n      swap8\n      pop\n        /* \"#utility.yul\":12768:12771   */\n      dup8\n        /* \"#utility.yul\":12761:12771   */\n      swap6\n      pop\n        /* \"#utility.yul\":11864:12777   */\n      pop\n      pop\n      pop\n      pop\n      pop\n        /* \"#utility.yul\":11698:12777   */\n      swap3\n      swap2\n      pop\n      pop\n      jump\t// out\n        /* \"#utility.yul\":12783:13240   */\n    tag_43:\n        /* \"#utility.yul\":12968:12972   */\n      0x00\n        /* \"#utility.yul\":13006:13008   */\n      0x20\n        /* \"#utility.yul\":12995:13004   */\n      dup3\n        /* \"#utility.yul\":12991:13009   */\n      add\n        /* \"#utility.yul\":12983:13009   */\n      swap1\n      pop\n        /* \"#utility.yul\":13055:13064   */\n      dup2\n        /* \"#utility.yul\":13049:13053   */\n      dup2\n        /* \"#utility.yul\":13045:13065   */\n      sub\n        /* \"#utility.yul\":13041:13042   */\n      0x00\n        /* \"#utility.yul\":13030:13039   */\n      dup4\n        /* \"#utility.yul\":13026:13043   */\n      add\n        /* \"#utility.yul\":13019:13066   */\n      mstore\n        /* \"#utility.yul\":13083:13233   */\n      tag_356\n        /* \"#utility.yul\":13228:13232   */\n      dup2\n        /* \"#utility.yul\":13219:13225   */\n      dup5\n        /* \"#utility.yul\":13083:13233   */\n      tag_200\n      jump\t// in\n    tag_356:\n        /* \"#utility.yul\":13075:13233   */\n      swap1\n      pop\n        /* \"#utility.yul\":12783:13240   */\n      swap3\n      swap2\n      pop\n      pop\n      jump\t// out\n        /* \"#utility.yul\":13246:13468   */\n    tag_47:\n        /* \"#utility.yul\":13339:13343   */\n      0x00\n        /* \"#utility.yul\":13377:13379   */\n      0x20\n        /* \"#utility.yul\":13366:13375   */\n      dup3\n        /* \"#utility.yul\":13362:13380   */\n      add\n        /* \"#utility.yul\":13354:13380   */\n      swap1\n      pop\n        /* \"#utility.yul\":13390:13461   */\n      tag_358\n        /* \"#utility.yul\":13458:13459   */\n      0x00\n        /* \"#utility.yul\":13447:13456   */\n      dup4\n        /* \"#utility.yul\":13443:13460   */\n      add\n        /* \"#utility.yul\":13434:13440   */\n      dup5\n        /* \"#utility.yul\":13390:13461   */\n      tag_172\n      jump\t// in\n    tag_358:\n        /* \"#utility.yul\":13246:13468   */\n      swap3\n      swap2\n      pop\n      pop\n      jump\t// out\n        /* \"#utility.yul\":13474:13589   */\n    tag_201:\n        /* \"#utility.yul\":13559:13582   */\n      tag_360\n        /* \"#utility.yul\":13576:13581   */\n      dup2\n        /* \"#utility.yul\":13559:13582   */\n      tag_183\n      jump\t// in\n    tag_360:\n        /* \"#utility.yul\":13554:13557   */\n      dup3\n        /* \"#utility.yul\":13547:13583   */\n      mstore\n        /* \"#utility.yul\":13474:13589   */\n      pop\n      pop\n      jump\t// out\n        /* \"#utility.yul\":13595:13813   */\n    tag_51:\n        /* \"#utility.yul\":13686:13690   */\n      0x00\n        /* \"#utility.yul\":13724:13726   */\n      0x20\n        /* \"#utility.yul\":13713:13722   */\n      dup3\n        /* \"#utility.yul\":13709:13727   */\n      add\n        /* \"#utility.yul\":13701:13727   */\n      swap1\n      pop\n        /* \"#utility.yul\":13737:13806   */\n      tag_362\n        /* \"#utility.yul\":13803:13804   */\n      0x00\n        /* \"#utility.yul\":13792:13801   */\n      dup4\n        /* \"#utility.yul\":13788:13805   */\n      add\n        /* \"#utility.yul\":13779:13785   */\n      dup5\n        /* \"#utility.yul\":13737:13806   */\n      tag_201\n      jump\t// in\n    tag_362:\n        /* \"#utility.yul\":13595:13813   */\n      swap3\n      swap2\n      pop\n      pop\n      jump\t// out\n        /* \"#utility.yul\":13819:13999   */\n    tag_202:\n        /* \"#utility.yul\":13867:13944   */\n      0x4e487b7100000000000000000000000000000000000000000000000000000000\n        /* \"#utility.yul\":13864:13865   */\n      0x00\n        /* \"#utility.yul\":13857:13945   */\n      mstore\n        /* \"#utility.yul\":13964:13968   */\n      0x22\n        /* \"#utility.yul\":13961:13962   */\n      0x04\n        /* \"#utility.yul\":13954:13969   */\n      mstore\n        /* \"#utility.yul\":13988:13992   */\n      0x24\n        /* \"#utility.yul\":13985:13986   */\n      0x00\n        /* \"#utility.yul\":13978:13993   */\n      revert\n        /* \"#utility.yul\":14005:14325   */\n    tag_55:\n        /* \"#utility.yul\":14049:14055   */\n      0x00\n        /* \"#utility.yul\":14086:14087   */\n      0x02\n        /* \"#utility.yul\":14080:14084   */\n      dup3\n        /* \"#utility.yul\":14076:14088   */\n      div\n        /* \"#utility.yul\":14066:14088   */\n      swap1\n      pop\n        /* \"#utility.yul\":14133:14134   */\n      0x01\n        /* \"#utility.yul\":14127:14131   */\n      dup3\n        /* \"#utility.yul\":14123:14135   */\n      and\n        /* \"#utility.yul\":14154:14172   */\n      dup1\n        /* \"#utility.yul\":14144:14225   */\n      tag_365\n      jumpi\n        /* \"#utility.yul\":14210:14214   */\n      0x7f\n        /* \"#utility.yul\":14202:14208   */\n      dup3\n        /* \"#utility.yul\":14198:14215   */\n      and\n        /* \"#utility.yul\":14188:14215   */\n      swap2\n      pop\n        /* \"#utility.yul\":14144:14225   */\n    tag_365:\n        /* \"#utility.yul\":14272:14274   */\n      0x20\n        /* \"#utility.yul\":14264:14270   */\n      dup3\n        /* \"#utility.yul\":14261:14275   */\n      lt\n        /* \"#utility.yul\":14241:14259   */\n      dup2\n        /* \"#utility.yul\":14238:14276   */\n      sub\n        /* \"#utility.yul\":14235:14319   */\n      tag_366\n      jumpi\n        /* \"#utility.yul\":14291:14309   */\n      tag_367\n      tag_202\n      jump\t// in\n    tag_367:\n        /* \"#utility.yul\":14235:14319   */\n    tag_366:\n        /* \"#utility.yul\":14056:14325   */\n      pop\n        /* \"#utility.yul\":14005:14325   */\n      swap2\n      swap1\n      pop\n      jump\t// out\n        /* \"#utility.yul\":14331:14511   */\n    tag_65:\n        /* \"#utility.yul\":14379:14456   */\n      0x4e487b7100000000000000000000000000000000000000000000000000000000\n        /* \"#utility.yul\":14376:14377   */\n      0x00\n        /* \"#utility.yul\":14369:14457   */\n      mstore\n        /* \"#utility.yul\":14476:14480   */\n      0x32\n        /* \"#utility.yul\":14473:14474   */\n      0x04\n        /* \"#utility.yul\":14466:14481   */\n      mstore\n        /* \"#utility.yul\":14500:14504   */\n      0x24\n        /* \"#utility.yul\":14497:14498   */\n      0x00\n        /* \"#utility.yul\":14490:14505   */\n      revert\n        /* \"#utility.yul\":14517:14688   */\n    tag_203:\n        /* \"#utility.yul\":14657:14680   */\n      0x547765657420646f6573206e6f74206578697374210000000000000000000000\n        /* \"#utility.yul\":14653:14654   */\n      0x00\n        /* \"#utility.yul\":14645:14651   */\n      dup3\n        /* \"#utility.yul\":14641:14655   */\n      add\n        /* \"#utility.yul\":14634:14681   */\n      mstore\n        /* \"#utility.yul\":14517:14688   */\n      pop\n      jump\t// out\n        /* \"#utility.yul\":14694:15060   */\n    tag_204:\n        /* \"#utility.yul\":14836:14839   */\n      0x00\n        /* \"#utility.yul\":14857:14924   */\n      tag_371\n        /* \"#utility.yul\":14921:14923   */\n      0x15\n        /* \"#utility.yul\":14916:14919   */\n      dup4\n        /* \"#utility.yul\":14857:14924   */\n      tag_174\n      jump\t// in\n    tag_371:\n        /* \"#utility.yul\":14850:14924   */\n      swap2\n      pop\n        /* \"#utility.yul\":14933:15026   */\n      tag_372\n        /* \"#utility.yul\":15022:15025   */\n      dup3\n        /* \"#utility.yul\":14933:15026   */\n      tag_203\n      jump\t// in\n    tag_372:\n        /* \"#utility.yul\":15051:15053   */\n      0x20\n        /* \"#utility.yul\":15046:15049   */\n      dup3\n        /* \"#utility.yul\":15042:15054   */\n      add\n        /* \"#utility.yul\":15035:15054   */\n      swap1\n      pop\n        /* \"#utility.yul\":14694:15060   */\n      swap2\n      swap1\n      pop\n      jump\t// out\n        /* \"#utility.yul\":15066:15485   */\n    tag_78:\n        /* \"#utility.yul\":15232:15236   */\n      0x00\n        /* \"#utility.yul\":15270:15272   */\n      0x20\n        /* \"#utility.yul\":15259:15268   */\n      dup3\n        /* \"#utility.yul\":15255:15273   */\n      add\n        /* \"#utility.yul\":15247:15273   */\n      swap1\n      pop\n        /* \"#utility.yul\":15319:15328   */\n      dup2\n        /* \"#utility.yul\":15313:15317   */\n      dup2\n        /* \"#utility.yul\":15309:15329   */\n      sub\n        /* \"#utility.yul\":15305:15306   */\n      0x00\n        /* \"#utility.yul\":15294:15303   */\n      dup4\n        /* \"#utility.yul\":15290:15307   */\n      add\n        /* \"#utility.yul\":15283:15330   */\n      mstore\n        /* \"#utility.yul\":15347:15478   */\n      tag_374\n        /* \"#utility.yul\":15473:15477   */\n      dup2\n        /* \"#utility.yul\":15347:15478   */\n      tag_204\n      jump\t// in\n    tag_374:\n        /* \"#utility.yul\":15339:15478   */\n      swap1\n      pop\n        /* \"#utility.yul\":15066:15485   */\n      swap2\n      swap1\n      pop\n      jump\t// out\n        /* \"#utility.yul\":15491:15660   */\n    tag_205:\n        /* \"#utility.yul\":15631:15652   */\n      0x547765657420686173206e6f206c696b65732100000000000000000000000000\n        /* \"#utility.yul\":15627:15628   */\n      0x00\n        /* \"#utility.yul\":15619:15625   */\n      dup3\n        /* \"#utility.yul\":15615:15629   */\n      add\n        /* \"#utility.yul\":15608:15653   */\n      mstore\n        /* \"#utility.yul\":15491:15660   */\n      pop\n      jump\t// out\n        /* \"#utility.yul\":15666:16032   */\n    tag_206:\n        /* \"#utility.yul\":15808:15811   */\n      0x00\n        /* \"#utility.yul\":15829:15896   */\n      tag_377\n        /* \"#utility.yul\":15893:15895   */\n      0x13\n        /* \"#utility.yul\":15888:15891   */\n      dup4\n        /* \"#utility.yul\":15829:15896   */\n      tag_174\n      jump\t// in\n    tag_377:\n        /* \"#utility.yul\":15822:15896   */\n      swap2\n      pop\n        /* \"#utility.yul\":15905:15998   */\n      tag_378\n        /* \"#utility.yul\":15994:15997   */\n      dup3\n        /* \"#utility.yul\":15905:15998   */\n      tag_205\n      jump\t// in\n    tag_378:\n        /* \"#utility.yul\":16023:16025   */\n      0x20\n        /* \"#utility.yul\":16018:16021   */\n      dup3\n        /* \"#utility.yul\":16014:16026   */\n      add\n        /* \"#utility.yul\":16007:16026   */\n      swap1\n      pop\n        /* \"#utility.yul\":15666:16032   */\n      swap2\n      swap1\n      pop\n      jump\t// out\n        /* \"#utility.yul\":16038:16457   */\n    tag_85:\n        /* \"#utility.yul\":16204:16208   */\n      0x00\n        /* \"#utility.yul\":16242:16244   */\n      0x20\n        /* \"#utility.yul\":16231:16240   */\n      dup3\n        /* \"#utility.yul\":16227:16245   */\n      add\n        /* \"#utility.yul\":16219:16245   */\n      swap1\n      pop\n        /* \"#utility.yul\":16291:16300   */\n      dup2\n        /* \"#utility.yul\":16285:16289   */\n      dup2\n        /* \"#utility.yul\":16281:16301   */\n      sub\n        /* \"#utility.yul\":16277:16278   */\n      0x00\n        /* \"#utility.yul\":16266:16275   */\n      dup4\n        /* \"#utility.yul\":16262:16279   */\n      add\n        /* \"#utility.yul\":16255:16302   */\n      mstore\n        /* \"#utility.yul\":16319:16450   */\n      tag_380\n        /* \"#utility.yul\":16445:16449   */\n      dup2\n        /* \"#utility.yul\":16319:16450   */\n      tag_206\n      jump\t// in\n    tag_380:\n        /* \"#utility.yul\":16311:16450   */\n      swap1\n      pop\n        /* \"#utility.yul\":16038:16457   */\n      swap2\n      swap1\n      pop\n      jump\t// out\n        /* \"#utility.yul\":16463:16643   */\n    tag_207:\n        /* \"#utility.yul\":16511:16588   */\n      0x4e487b7100000000000000000000000000000000000000000000000000000000\n        /* \"#utility.yul\":16508:16509   */\n      0x00\n        /* \"#utility.yul\":16501:16589   */\n      mstore\n        /* \"#utility.yul\":16608:16612   */\n      0x11\n        /* \"#utility.yul\":16605:16606   */\n      0x04\n        /* \"#utility.yul\":16598:16613   */\n      mstore\n        /* \"#utility.yul\":16632:16636   */\n      0x24\n        /* \"#utility.yul\":16629:16630   */\n      0x00\n        /* \"#utility.yul\":16622:16637   */\n      revert\n        /* \"#utility.yul\":16649:16820   */\n    tag_90:\n        /* \"#utility.yul\":16688:16691   */\n      0x00\n        /* \"#utility.yul\":16711:16735   */\n      tag_383\n        /* \"#utility.yul\":16729:16734   */\n      dup3\n        /* \"#utility.yul\":16711:16735   */\n      tag_168\n      jump\t// in\n    tag_383:\n        /* \"#utility.yul\":16702:16735   */\n      swap2\n      pop\n        /* \"#utility.yul\":16757:16761   */\n      0x00\n        /* \"#utility.yul\":16750:16755   */\n      dup3\n        /* \"#utility.yul\":16747:16762   */\n      sub\n        /* \"#utility.yul\":16744:16785   */\n      tag_384\n      jumpi\n        /* \"#utility.yul\":16765:16783   */\n      tag_385\n      tag_207\n      jump\t// in\n    tag_385:\n        /* \"#utility.yul\":16744:16785   */\n    tag_384:\n        /* \"#utility.yul\":16812:16813   */\n      0x01\n        /* \"#utility.yul\":16805:16810   */\n      dup3\n        /* \"#utility.yul\":16801:16814   */\n      sub\n        /* \"#utility.yul\":16794:16814   */\n      swap1\n      pop\n        /* \"#utility.yul\":16649:16820   */\n      swap2\n      swap1\n      pop\n      jump\t// out\n        /* \"#utility.yul\":16826:17057   */\n    tag_208:\n        /* \"#utility.yul\":16966:17000   */\n      0x596f75277265206e6f7420616c6c6f77656420746f2065786563757465207468\n        /* \"#utility.yul\":16962:16963   */\n      0x00\n        /* \"#utility.yul\":16954:16960   */\n      dup3\n        /* \"#utility.yul\":16950:16964   */\n      add\n        /* \"#utility.yul\":16943:17001   */\n      mstore\n        /* \"#utility.yul\":17035:17049   */\n      0x6973206f7065726174696f6e0000000000000000000000000000000000000000\n        /* \"#utility.yul\":17030:17032   */\n      0x20\n        /* \"#utility.yul\":17022:17028   */\n      dup3\n        /* \"#utility.yul\":17018:17033   */\n      add\n        /* \"#utility.yul\":17011:17050   */\n      mstore\n        /* \"#utility.yul\":16826:17057   */\n      pop\n      jump\t// out\n        /* \"#utility.yul\":17063:17429   */\n    tag_209:\n        /* \"#utility.yul\":17205:17208   */\n      0x00\n        /* \"#utility.yul\":17226:17293   */\n      tag_388\n        /* \"#utility.yul\":17290:17292   */\n      0x2c\n        /* \"#utility.yul\":17285:17288   */\n      dup4\n        /* \"#utility.yul\":17226:17293   */\n      tag_174\n      jump\t// in\n    tag_388:\n        /* \"#utility.yul\":17219:17293   */\n      swap2\n      pop\n        /* \"#utility.yul\":17302:17395   */\n      tag_389\n        /* \"#utility.yul\":17391:17394   */\n      dup3\n        /* \"#utility.yul\":17302:17395   */\n      tag_208\n      jump\t// in\n    tag_389:\n        /* \"#utility.yul\":17420:17422   */\n      0x40\n        /* \"#utility.yul\":17415:17418   */\n      dup3\n        /* \"#utility.yul\":17411:17423   */\n      add\n        /* \"#utility.yul\":17404:17423   */\n      swap1\n      pop\n        /* \"#utility.yul\":17063:17429   */\n      swap2\n      swap1\n      pop\n      jump\t// out\n        /* \"#utility.yul\":17435:17854   */\n    tag_94:\n        /* \"#utility.yul\":17601:17605   */\n      0x00\n        /* \"#utility.yul\":17639:17641   */\n      0x20\n        /* \"#utility.yul\":17628:17637   */\n      dup3\n        /* \"#utility.yul\":17624:17642   */\n      add\n        /* \"#utility.yul\":17616:17642   */\n      swap1\n      pop\n        /* \"#utility.yul\":17688:17697   */\n      dup2\n        /* \"#utility.yul\":17682:17686   */\n      dup2\n        /* \"#utility.yul\":17678:17698   */\n      sub\n        /* \"#utility.yul\":17674:17675   */\n      0x00\n        /* \"#utility.yul\":17663:17672   */\n      dup4\n        /* \"#utility.yul\":17659:17676   */\n      add\n        /* \"#utility.yul\":17652:17699   */\n      mstore\n        /* \"#utility.yul\":17716:17847   */\n      tag_391\n        /* \"#utility.yul\":17842:17846   */\n      dup2\n        /* \"#utility.yul\":17716:17847   */\n      tag_209\n      jump\t// in\n    tag_391:\n        /* \"#utility.yul\":17708:17847   */\n      swap1\n      pop\n        /* \"#utility.yul\":17435:17854   */\n      swap2\n      swap1\n      pop\n      jump\t// out\n        /* \"#utility.yul\":17860:18093   */\n    tag_107:\n        /* \"#utility.yul\":17899:17902   */\n      0x00\n        /* \"#utility.yul\":17922:17946   */\n      tag_393\n        /* \"#utility.yul\":17940:17945   */\n      dup3\n        /* \"#utility.yul\":17922:17946   */\n      tag_168\n      jump\t// in\n    tag_393:\n        /* \"#utility.yul\":17913:17946   */\n      swap2\n      pop\n        /* \"#utility.yul\":17968:18034   */\n      0xffffffffffffffffffffffffffffffffffffffffffffffffffffffffffffffff\n        /* \"#utility.yul\":17961:17966   */\n      dup3\n        /* \"#utility.yul\":17958:18035   */\n      sub\n        /* \"#utility.yul\":17955:18058   */\n      tag_394\n      jumpi\n        /* \"#utility.yul\":18038:18056   */\n      tag_395\n      tag_207\n      jump\t// in\n    tag_395:\n        /* \"#utility.yul\":17955:18058   */\n    tag_394:\n        /* \"#utility.yul\":18085:18086   */\n      0x01\n        /* \"#utility.yul\":18078:18083   */\n      dup3\n        /* \"#utility.yul\":18074:18087   */\n      add\n        /* \"#utility.yul\":18067:18087   */\n      swap1\n      pop\n        /* \"#utility.yul\":17860:18093   */\n      swap2\n      swap1\n      pop\n      jump\t// out\n        /* \"#utility.yul\":18099:18247   */\n    tag_210:\n        /* \"#utility.yul\":18201:18212   */\n      0x00\n        /* \"#utility.yul\":18238:18241   */\n      dup2\n        /* \"#utility.yul\":18223:18241   */\n      swap1\n      pop\n        /* \"#utility.yul\":18099:18247   */\n      swap3\n      swap2\n      pop\n      pop\n      jump\t// out\n        /* \"#utility.yul\":18253:18485   */\n    tag_211:\n        /* \"#utility.yul\":18393:18427   */\n      0x596f757220747765657420657863656564656420746865206c696d6974206f66\n        /* \"#utility.yul\":18389:18390   */\n      0x00\n        /* \"#utility.yul\":18381:18387   */\n      dup3\n        /* \"#utility.yul\":18377:18391   */\n      add\n        /* \"#utility.yul\":18370:18428   */\n      mstore\n        /* \"#utility.yul\":18462:18477   */\n      0x20636861726163746572733a2000000000000000000000000000000000000000\n        /* \"#utility.yul\":18457:18459   */\n      0x20\n        /* \"#utility.yul\":18449:18455   */\n      dup3\n        /* \"#utility.yul\":18445:18460   */\n      add\n        /* \"#utility.yul\":18438:18478   */\n      mstore\n        /* \"#utility.yul\":18253:18485   */\n      pop\n      jump\t// out\n        /* \"#utility.yul\":18491:18893   */\n    tag_212:\n        /* \"#utility.yul\":18651:18654   */\n      0x00\n        /* \"#utility.yul\":18672:18757   */\n      tag_399\n        /* \"#utility.yul\":18754:18756   */\n      0x2d\n        /* \"#utility.yul\":18749:18752   */\n      dup4\n        /* \"#utility.yul\":18672:18757   */\n      tag_210\n      jump\t// in\n    tag_399:\n        /* \"#utility.yul\":18665:18757   */\n      swap2\n      pop\n        /* \"#utility.yul\":18766:18859   */\n      tag_400\n        /* \"#utility.yul\":18855:18858   */\n      dup3\n        /* \"#utility.yul\":18766:18859   */\n      tag_211\n      jump\t// in\n    tag_400:\n        /* \"#utility.yul\":18884:18886   */\n      0x2d\n        /* \"#utility.yul\":18879:18882   */\n      dup3\n        /* \"#utility.yul\":18875:18887   */\n      add\n        /* \"#utility.yul\":18868:18887   */\n      swap1\n      pop\n        /* \"#utility.yul\":18491:18893   */\n      swap2\n      swap1\n      pop\n      jump\t// out\n        /* \"#utility.yul\":18899:19289   */\n    tag_213:\n        /* \"#utility.yul\":19005:19008   */\n      0x00\n        /* \"#utility.yul\":19033:19072   */\n      tag_402\n        /* \"#utility.yul\":19066:19071   */\n      dup3\n        /* \"#utility.yul\":19033:19072   */\n      tag_173\n      jump\t// in\n    tag_402:\n        /* \"#utility.yul\":19088:19177   */\n      tag_403\n        /* \"#utility.yul\":19170:19176   */\n      dup2\n        /* \"#utility.yul\":19165:19168   */\n      dup6\n        /* \"#utility.yul\":19088:19177   */\n      tag_210\n      jump\t// in\n    tag_403:\n        /* \"#utility.yul\":19081:19177   */\n      swap4\n      pop\n        /* \"#utility.yul\":19186:19251   */\n      tag_404\n        /* \"#utility.yul\":19244:19250   */\n      dup2\n        /* \"#utility.yul\":19239:19242   */\n      dup6\n        /* \"#utility.yul\":19232:19236   */\n      0x20\n        /* \"#utility.yul\":19225:19230   */\n      dup7\n        /* \"#utility.yul\":19221:19237   */\n      add\n        /* \"#utility.yul\":19186:19251   */\n      tag_175\n      jump\t// in\n    tag_404:\n        /* \"#utility.yul\":19276:19282   */\n      dup1\n        /* \"#utility.yul\":19271:19274   */\n      dup5\n        /* \"#utility.yul\":19267:19283   */\n      add\n        /* \"#utility.yul\":19260:19283   */\n      swap2\n      pop\n        /* \"#utility.yul\":19009:19289   */\n      pop\n        /* \"#utility.yul\":18899:19289   */\n      swap3\n      swap2\n      pop\n      pop\n      jump\t// out\n        /* \"#utility.yul\":19295:19836   */\n    tag_112:\n        /* \"#utility.yul\":19528:19531   */\n      0x00\n        /* \"#utility.yul\":19550:19698   */\n      tag_406\n        /* \"#utility.yul\":19694:19697   */\n      dup3\n        /* \"#utility.yul\":19550:19698   */\n      tag_212\n      jump\t// in\n    tag_406:\n        /* \"#utility.yul\":19543:19698   */\n      swap2\n      pop\n        /* \"#utility.yul\":19715:19810   */\n      tag_407\n        /* \"#utility.yul\":19806:19809   */\n      dup3\n        /* \"#utility.yul\":19797:19803   */\n      dup5\n        /* \"#utility.yul\":19715:19810   */\n      tag_213\n      jump\t// in\n    tag_407:\n        /* \"#utility.yul\":19708:19810   */\n      swap2\n      pop\n        /* \"#utility.yul\":19827:19830   */\n      dup2\n        /* \"#utility.yul\":19820:19830   */\n      swap1\n      pop\n        /* \"#utility.yul\":19295:19836   */\n      swap3\n      swap2\n      pop\n      pop\n      jump\t// out\n        /* \"#utility.yul\":19842:20155   */\n    tag_115:\n        /* \"#utility.yul\":19955:19959   */\n      0x00\n        /* \"#utility.yul\":19993:19995   */\n      0x20\n        /* \"#utility.yul\":19982:19991   */\n      dup3\n        /* \"#utility.yul\":19978:19996   */\n      add\n        /* \"#utility.yul\":19970:19996   */\n      swap1\n      pop\n        /* \"#utility.yul\":20042:20051   */\n      dup2\n        /* \"#utility.yul\":20036:20040   */\n      dup2\n        /* \"#utility.yul\":20032:20052   */\n      sub\n        /* \"#utility.yul\":20028:20029   */\n      0x00\n        /* \"#utility.yul\":20017:20026   */\n      dup4\n        /* \"#utility.yul\":20013:20030   */\n      add\n        /* \"#utility.yul\":20006:20053   */\n      mstore\n        /* \"#utility.yul\":20070:20148   */\n      tag_409\n        /* \"#utility.yul\":20143:20147   */\n      dup2\n        /* \"#utility.yul\":20134:20140   */\n      dup5\n        /* \"#utility.yul\":20070:20148   */\n      tag_177\n      jump\t// in\n    tag_409:\n        /* \"#utility.yul\":20062:20148   */\n      swap1\n      pop\n        /* \"#utility.yul\":19842:20155   */\n      swap3\n      swap2\n      pop\n      pop\n      jump\t// out\n        /* \"#utility.yul\":20161:20302   */\n    tag_214:\n        /* \"#utility.yul\":20210:20214   */\n      0x00\n        /* \"#utility.yul\":20233:20236   */\n      dup2\n        /* \"#utility.yul\":20225:20236   */\n      swap1\n      pop\n        /* \"#utility.yul\":20256:20259   */\n      dup2\n        /* \"#utility.yul\":20253:20254   */\n      0x00\n        /* \"#utility.yul\":20246:20260   */\n      mstore\n        /* \"#utility.yul\":20290:20294   */\n      0x20\n        /* \"#utility.yul\":20287:20288   */\n      0x00\n        /* \"#utility.yul\":20277:20295   */\n      keccak256\n        /* \"#utility.yul\":20269:20295   */\n      swap1\n      pop\n        /* \"#utility.yul\":20161:20302   */\n      swap2\n      swap1\n      pop\n      jump\t// out\n        /* \"#utility.yul\":20308:20401   */\n    tag_215:\n        /* \"#utility.yul\":20345:20351   */\n      0x00\n        /* \"#utility.yul\":20392:20394   */\n      0x20\n        /* \"#utility.yul\":20387:20389   */\n      0x1f\n        /* \"#utility.yul\":20380:20385   */\n      dup4\n        /* \"#utility.yul\":20376:20390   */\n      add\n        /* \"#utility.yul\":20372:20395   */\n      div\n        /* \"#utility.yul\":20362:20395   */\n      swap1\n      pop\n        /* \"#utility.yul\":20308:20401   */\n      swap2\n      swap1\n      pop\n      jump\t// out\n        /* \"#utility.yul\":20407:20514   */\n    tag_216:\n        /* \"#utility.yul\":20451:20459   */\n      0x00\n        /* \"#utility.yul\":20501:20506   */\n      dup3\n        /* \"#utility.yul\":20495:20499   */\n      dup3\n        /* \"#utility.yul\":20491:20507   */\n      shl\n        /* \"#utility.yul\":20470:20507   */\n      swap1\n      pop\n        /* \"#utility.yul\":20407:20514   */\n      swap3\n      swap2\n      pop\n      pop\n      jump\t// out\n        /* \"#utility.yul\":20520:20913   */\n    tag_217:\n        /* \"#utility.yul\":20589:20595   */\n      0x00\n        /* \"#utility.yul\":20639:20640   */\n      0x08\n        /* \"#utility.yul\":20627:20637   */\n      dup4\n        /* \"#utility.yul\":20623:20641   */\n      mul\n        /* \"#utility.yul\":20662:20759   */\n      tag_414\n        /* \"#utility.yul\":20692:20758   */\n      0xffffffffffffffffffffffffffffffffffffffffffffffffffffffffffffffff\n        /* \"#utility.yul\":20681:20690   */\n      dup3\n        /* \"#utility.yul\":20662:20759   */\n      tag_216\n      jump\t// in\n    tag_414:\n        /* \"#utility.yul\":20780:20819   */\n      tag_415\n        /* \"#utility.yul\":20810:20818   */\n      dup7\n        /* \"#utility.yul\":20799:20808   */\n      dup4\n        /* \"#utility.yul\":20780:20819   */\n      tag_216\n      jump\t// in\n    tag_415:\n        /* \"#utility.yul\":20768:20819   */\n      swap6\n      pop\n        /* \"#utility.yul\":20852:20856   */\n      dup1\n        /* \"#utility.yul\":20848:20857   */\n      not\n        /* \"#utility.yul\":20841:20846   */\n      dup5\n        /* \"#utility.yul\":20837:20858   */\n      and\n        /* \"#utility.yul\":20828:20858   */\n      swap4\n      pop\n        /* \"#utility.yul\":20901:20905   */\n      dup1\n        /* \"#utility.yul\":20891:20899   */\n      dup7\n        /* \"#utility.yul\":20887:20906   */\n      and\n        /* \"#utility.yul\":20880:20885   */\n      dup5\n        /* \"#utility.yul\":20877:20907   */\n      or\n        /* \"#utility.yul\":20867:20907   */\n      swap3\n      pop\n        /* \"#utility.yul\":20596:20913   */\n      pop\n      pop\n        /* \"#utility.yul\":20520:20913   */\n      swap4\n      swap3\n      pop\n      pop\n      pop\n      jump\t// out\n        /* \"#utility.yul\":20919:20979   */\n    tag_218:\n        /* \"#utility.yul\":20947:20950   */\n      0x00\n        /* \"#utility.yul\":20968:20973   */\n      dup2\n        /* \"#utility.yul\":20961:20973   */\n      swap1\n      pop\n        /* \"#utility.yul\":20919:20979   */\n      swap2\n      swap1\n      pop\n      jump\t// out\n        /* \"#utility.yul\":20985:21127   */\n    tag_219:\n        /* \"#utility.yul\":21035:21044   */\n      0x00\n        /* \"#utility.yul\":21068:21121   */\n      tag_418\n        /* \"#utility.yul\":21086:21120   */\n      tag_419\n        /* \"#utility.yul\":21095:21119   */\n      tag_420\n        /* \"#utility.yul\":21113:21118   */\n      dup5\n        /* \"#utility.yul\":21095:21119   */\n      tag_168\n      jump\t// in\n    tag_420:\n        /* \"#utility.yul\":21086:21120   */\n      tag_218\n      jump\t// in\n    tag_419:\n        /* \"#utility.yul\":21068:21121   */\n      tag_168\n      jump\t// in\n    tag_418:\n        /* \"#utility.yul\":21055:21121   */\n      swap1\n      pop\n        /* \"#utility.yul\":20985:21127   */\n      swap2\n      swap1\n      pop\n      jump\t// out\n        /* \"#utility.yul\":21133:21208   */\n    tag_220:\n        /* \"#utility.yul\":21176:21179   */\n      0x00\n        /* \"#utility.yul\":21197:21202   */\n      dup2\n        /* \"#utility.yul\":21190:21202   */\n      swap1\n      pop\n        /* \"#utility.yul\":21133:21208   */\n      swap2\n      swap1\n      pop\n      jump\t// out\n        /* \"#utility.yul\":21214:21483   */\n    tag_221:\n        /* \"#utility.yul\":21324:21363   */\n      tag_423\n        /* \"#utility.yul\":21355:21362   */\n      dup4\n        /* \"#utility.yul\":21324:21363   */\n      tag_219\n      jump\t// in\n    tag_423:\n        /* \"#utility.yul\":21385:21476   */\n      tag_424\n        /* \"#utility.yul\":21434:21475   */\n      tag_425\n        /* \"#utility.yul\":21458:21474   */\n      dup3\n        /* \"#utility.yul\":21434:21475   */\n      tag_220\n      jump\t// in\n    tag_425:\n        /* \"#utility.yul\":21426:21432   */\n      dup5\n        /* \"#utility.yul\":21419:21423   */\n      dup5\n        /* \"#utility.yul\":21413:21424   */\n      sload\n        /* \"#utility.yul\":21385:21476   */\n      tag_217\n      jump\t// in\n    tag_424:\n        /* \"#utility.yul\":21379:21383   */\n      dup3\n        /* \"#utility.yul\":21372:21477   */\n      sstore\n        /* \"#utility.yul\":21290:21483   */\n      pop\n        /* \"#utility.yul\":21214:21483   */\n      pop\n      pop\n      pop\n      jump\t// out\n        /* \"#utility.yul\":21489:21562   */\n    tag_222:\n        /* \"#utility.yul\":21534:21537   */\n      0x00\n        /* \"#utility.yul\":21489:21562   */\n      swap1\n      jump\t// out\n        /* \"#utility.yul\":21568:21757   */\n    tag_223:\n        /* \"#utility.yul\":21645:21677   */\n      tag_428\n      tag_222\n      jump\t// in\n    tag_428:\n        /* \"#utility.yul\":21686:21751   */\n      tag_429\n        /* \"#utility.yul\":21744:21750   */\n      dup2\n        /* \"#utility.yul\":21736:21742   */\n      dup5\n        /* \"#utility.yul\":21730:21734   */\n      dup5\n        /* \"#utility.yul\":21686:21751   */\n      tag_221\n      jump\t// in\n    tag_429:\n        /* \"#utility.yul\":21621:21757   */\n      pop\n        /* \"#utility.yul\":21568:21757   */\n      pop\n      pop\n      jump\t// out\n        /* \"#utility.yul\":21763:21949   */\n    tag_224:\n        /* \"#utility.yul\":21823:21943   */\n    tag_431:\n        /* \"#utility.yul\":21840:21843   */\n      dup2\n        /* \"#utility.yul\":21833:21838   */\n      dup2\n        /* \"#utility.yul\":21830:21844   */\n      lt\n        /* \"#utility.yul\":21823:21943   */\n      iszero\n      tag_433\n      jumpi\n        /* \"#utility.yul\":21894:21933   */\n      tag_434\n        /* \"#utility.yul\":21931:21932   */\n      0x00\n        /* \"#utility.yul\":21924:21929   */\n      dup3\n        /* \"#utility.yul\":21894:21933   */\n      tag_223\n      jump\t// in\n    tag_434:\n        /* \"#utility.yul\":21867:21868   */\n      0x01\n        /* \"#utility.yul\":21860:21865   */\n      dup2\n        /* \"#utility.yul\":21856:21869   */\n      add\n        /* \"#utility.yul\":21847:21869   */\n      swap1\n      pop\n        /* \"#utility.yul\":21823:21943   */\n      jump(tag_431)\n    tag_433:\n        /* \"#utility.yul\":21763:21949   */\n      pop\n      pop\n      jump\t// out\n        /* \"#utility.yul\":21955:22498   */\n    tag_225:\n        /* \"#utility.yul\":22056:22058   */\n      0x1f\n        /* \"#utility.yul\":22051:22054   */\n      dup3\n        /* \"#utility.yul\":22048:22059   */\n      gt\n        /* \"#utility.yul\":22045:22491   */\n      iszero\n      tag_436\n      jumpi\n        /* \"#utility.yul\":22090:22128   */\n      tag_437\n        /* \"#utility.yul\":22122:22127   */\n      dup2\n        /* \"#utility.yul\":22090:22128   */\n      tag_214\n      jump\t// in\n    tag_437:\n        /* \"#utility.yul\":22174:22203   */\n      tag_438\n        /* \"#utility.yul\":22192:22202   */\n      dup5\n        /* \"#utility.yul\":22174:22203   */\n      tag_215\n      jump\t// in\n    tag_438:\n        /* \"#utility.yul\":22164:22172   */\n      dup2\n        /* \"#utility.yul\":22160:22204   */\n      add\n        /* \"#utility.yul\":22357:22359   */\n      0x20\n        /* \"#utility.yul\":22345:22355   */\n      dup6\n        /* \"#utility.yul\":22342:22360   */\n      lt\n        /* \"#utility.yul\":22339:22388   */\n      iszero\n      tag_439\n      jumpi\n        /* \"#utility.yul\":22378:22386   */\n      dup2\n        /* \"#utility.yul\":22363:22386   */\n      swap1\n      pop\n        /* \"#utility.yul\":22339:22388   */\n    tag_439:\n        /* \"#utility.yul\":22401:22481   */\n      tag_440\n        /* \"#utility.yul\":22457:22479   */\n      tag_441\n        /* \"#utility.yul\":22475:22478   */\n      dup6\n        /* \"#utility.yul\":22457:22479   */\n      tag_215\n      jump\t// in\n    tag_441:\n        /* \"#utility.yul\":22447:22455   */\n      dup4\n        /* \"#utility.yul\":22443:22480   */\n      add\n        /* \"#utility.yul\":22430:22441   */\n      dup3\n        /* \"#utility.yul\":22401:22481   */\n      tag_224\n      jump\t// in\n    tag_440:\n        /* \"#utility.yul\":22060:22491   */\n      pop\n      pop\n        /* \"#utility.yul\":22045:22491   */\n    tag_436:\n        /* \"#utility.yul\":21955:22498   */\n      pop\n      pop\n      pop\n      jump\t// out\n        /* \"#utility.yul\":22504:22621   */\n    tag_226:\n        /* \"#utility.yul\":22558:22566   */\n      0x00\n        /* \"#utility.yul\":22608:22613   */\n      dup3\n        /* \"#utility.yul\":22602:22606   */\n      dup3\n        /* \"#utility.yul\":22598:22614   */\n      shr\n        /* \"#utility.yul\":22577:22614   */\n      swap1\n      pop\n        /* \"#utility.yul\":22504:22621   */\n      swap3\n      swap2\n      pop\n      pop\n      jump\t// out\n        /* \"#utility.yul\":22627:22796   */\n    tag_227:\n        /* \"#utility.yul\":22671:22677   */\n      0x00\n        /* \"#utility.yul\":22704:22755   */\n      tag_444\n        /* \"#utility.yul\":22752:22753   */\n      0x00\n        /* \"#utility.yul\":22748:22754   */\n      not\n        /* \"#utility.yul\":22740:22745   */\n      dup5\n        /* \"#utility.yul\":22737:22738   */\n      0x08\n        /* \"#utility.yul\":22733:22746   */\n      mul\n        /* \"#utility.yul\":22704:22755   */\n      tag_226\n      jump\t// in\n    tag_444:\n        /* \"#utility.yul\":22700:22756   */\n      not\n        /* \"#utility.yul\":22785:22789   */\n      dup1\n        /* \"#utility.yul\":22779:22783   */\n      dup4\n        /* \"#utility.yul\":22775:22790   */\n      and\n        /* \"#utility.yul\":22765:22790   */\n      swap2\n      pop\n        /* \"#utility.yul\":22678:22796   */\n      pop\n        /* \"#utility.yul\":22627:22796   */\n      swap3\n      swap2\n      pop\n      pop\n      jump\t// out\n        /* \"#utility.yul\":22801:23096   */\n    tag_228:\n        /* \"#utility.yul\":22877:22881   */\n      0x00\n        /* \"#utility.yul\":23023:23052   */\n      tag_446\n        /* \"#utility.yul\":23048:23051   */\n      dup4\n        /* \"#utility.yul\":23042:23046   */\n      dup4\n        /* \"#utility.yul\":23023:23052   */\n      tag_227\n      jump\t// in\n    tag_446:\n        /* \"#utility.yul\":23015:23052   */\n      swap2\n      pop\n        /* \"#utility.yul\":23085:23088   */\n      dup3\n        /* \"#utility.yul\":23082:23083   */\n      0x02\n        /* \"#utility.yul\":23078:23089   */\n      mul\n        /* \"#utility.yul\":23072:23076   */\n      dup3\n        /* \"#utility.yul\":23069:23090   */\n      or\n        /* \"#utility.yul\":23061:23090   */\n      swap1\n      pop\n        /* \"#utility.yul\":22801:23096   */\n      swap3\n      swap2\n      pop\n      pop\n      jump\t// out\n        /* \"#utility.yul\":23101:24496   */\n    tag_118:\n        /* \"#utility.yul\":23218:23255   */\n      tag_448\n        /* \"#utility.yul\":23251:23254   */\n      dup3\n        /* \"#utility.yul\":23218:23255   */\n      tag_173\n      jump\t// in\n    tag_448:\n        /* \"#utility.yul\":23320:23338   */\n      0xffffffffffffffff\n        /* \"#utility.yul\":23312:23318   */\n      dup2\n        /* \"#utility.yul\":23309:23339   */\n      gt\n        /* \"#utility.yul\":23306:23362   */\n      iszero\n      tag_449\n      jumpi\n        /* \"#utility.yul\":23342:23360   */\n      tag_450\n      tag_133\n      jump\t// in\n    tag_450:\n        /* \"#utility.yul\":23306:23362   */\n    tag_449:\n        /* \"#utility.yul\":23386:23424   */\n      tag_451\n        /* \"#utility.yul\":23418:23422   */\n      dup3\n        /* \"#utility.yul\":23412:23423   */\n      sload\n        /* \"#utility.yul\":23386:23424   */\n      tag_55\n      jump\t// in\n    tag_451:\n        /* \"#utility.yul\":23471:23538   */\n      tag_452\n        /* \"#utility.yul\":23531:23537   */\n      dup3\n        /* \"#utility.yul\":23523:23529   */\n      dup3\n        /* \"#utility.yul\":23517:23521   */\n      dup6\n        /* \"#utility.yul\":23471:23538   */\n      tag_225\n      jump\t// in\n    tag_452:\n        /* \"#utility.yul\":23565:23566   */\n      0x00\n        /* \"#utility.yul\":23589:23593   */\n      0x20\n        /* \"#utility.yul\":23576:23593   */\n      swap1\n      pop\n        /* \"#utility.yul\":23621:23623   */\n      0x1f\n        /* \"#utility.yul\":23613:23619   */\n      dup4\n        /* \"#utility.yul\":23610:23624   */\n      gt\n        /* \"#utility.yul\":23638:23639   */\n      0x01\n        /* \"#utility.yul\":23633:24251   */\n      dup2\n      eq\n      tag_454\n      jumpi\n        /* \"#utility.yul\":24295:24296   */\n      0x00\n        /* \"#utility.yul\":24312:24318   */\n      dup5\n        /* \"#utility.yul\":24309:24386   */\n      iszero\n      tag_455\n      jumpi\n        /* \"#utility.yul\":24361:24370   */\n      dup3\n        /* \"#utility.yul\":24356:24359   */\n      dup8\n        /* \"#utility.yul\":24352:24371   */\n      add\n        /* \"#utility.yul\":24346:24372   */\n      mload\n        /* \"#utility.yul\":24337:24372   */\n      swap1\n      pop\n        /* \"#utility.yul\":24309:24386   */\n    tag_455:\n        /* \"#utility.yul\":24412:24479   */\n      tag_456\n        /* \"#utility.yul\":24472:24478   */\n      dup6\n        /* \"#utility.yul\":24465:24470   */\n      dup3\n        /* \"#utility.yul\":24412:24479   */\n      tag_228\n      jump\t// in\n    tag_456:\n        /* \"#utility.yul\":24406:24410   */\n      dup7\n        /* \"#utility.yul\":24399:24480   */\n      sstore\n        /* \"#utility.yul\":24268:24490   */\n      pop\n        /* \"#utility.yul\":23603:24490   */\n      jump(tag_453)\n        /* \"#utility.yul\":23633:24251   */\n    tag_454:\n        /* \"#utility.yul\":23685:23689   */\n      0x1f\n        /* \"#utility.yul\":23681:23690   */\n      not\n        /* \"#utility.yul\":23673:23679   */\n      dup5\n        /* \"#utility.yul\":23669:23691   */\n      and\n        /* \"#utility.yul\":23719:23756   */\n      tag_457\n        /* \"#utility.yul\":23751:23755   */\n      dup7\n        /* \"#utility.yul\":23719:23756   */\n      tag_214\n      jump\t// in\n    tag_457:\n        /* \"#utility.yul\":23778:23779   */\n      0x00\n        /* \"#utility.yul\":23792:24000   */\n    tag_458:\n        /* \"#utility.yul\":23806:23813   */\n      dup3\n        /* \"#utility.yul\":23803:23804   */\n      dup2\n        /* \"#utility.yul\":23800:23814   */\n      lt\n        /* \"#utility.yul\":23792:24000   */\n      iszero\n      tag_460\n      jumpi\n        /* \"#utility.yul\":23885:23894   */\n      dup5\n        /* \"#utility.yul\":23880:23883   */\n      dup10\n        /* \"#utility.yul\":23876:23895   */\n      add\n        /* \"#utility.yul\":23870:23896   */\n      mload\n        /* \"#utility.yul\":23862:23868   */\n      dup3\n        /* \"#utility.yul\":23855:23897   */\n      sstore\n        /* \"#utility.yul\":23936:23937   */\n      0x01\n        /* \"#utility.yul\":23928:23934   */\n      dup3\n        /* \"#utility.yul\":23924:23938   */\n      add\n        /* \"#utility.yul\":23914:23938   */\n      swap2\n      pop\n        /* \"#utility.yul\":23983:23985   */\n      0x20\n        /* \"#utility.yul\":23972:23981   */\n      dup6\n        /* \"#utility.yul\":23968:23986   */\n      add\n        /* \"#utility.yul\":23955:23986   */\n      swap5\n      pop\n        /* \"#utility.yul\":23829:23833   */\n      0x20\n        /* \"#utility.yul\":23826:23827   */\n      dup2\n        /* \"#utility.yul\":23822:23834   */\n      add\n        /* \"#utility.yul\":23817:23834   */\n      swap1\n      pop\n        /* \"#utility.yul\":23792:24000   */\n      jump(tag_458)\n    tag_460:\n        /* \"#utility.yul\":24028:24034   */\n      dup7\n        /* \"#utility.yul\":24019:24026   */\n      dup4\n        /* \"#utility.yul\":24016:24035   */\n      lt\n        /* \"#utility.yul\":24013:24192   */\n      iszero\n      tag_461\n      jumpi\n        /* \"#utility.yul\":24086:24095   */\n      dup5\n        /* \"#utility.yul\":24081:24084   */\n      dup10\n        /* \"#utility.yul\":24077:24096   */\n      add\n        /* \"#utility.yul\":24071:24097   */\n      mload\n        /* \"#utility.yul\":24129:24177   */\n      tag_462\n        /* \"#utility.yul\":24171:24175   */\n      0x1f\n        /* \"#utility.yul\":24163:24169   */\n      dup10\n        /* \"#utility.yul\":24159:24176   */\n      and\n        /* \"#utility.yul\":24148:24157   */\n      dup3\n        /* \"#utility.yul\":24129:24177   */\n      tag_227\n      jump\t// in\n    tag_462:\n        /* \"#utility.yul\":24121:24127   */\n      dup4\n        /* \"#utility.yul\":24114:24178   */\n      sstore\n        /* \"#utility.yul\":24036:24192   */\n      pop\n        /* \"#utility.yul\":24013:24192   */\n    tag_461:\n        /* \"#utility.yul\":24238:24239   */\n      0x01\n        /* \"#utility.yul\":24234:24235   */\n      0x02\n        /* \"#utility.yul\":24226:24232   */\n      dup9\n        /* \"#utility.yul\":24222:24236   */\n      mul\n        /* \"#utility.yul\":24218:24240   */\n      add\n        /* \"#utility.yul\":24212:24216   */\n      dup9\n        /* \"#utility.yul\":24205:24241   */\n      sstore\n        /* \"#utility.yul\":23640:24251   */\n      pop\n      pop\n      pop\n        /* \"#utility.yul\":23603:24490   */\n    tag_453:\n      pop\n        /* \"#utility.yul\":23193:24496   */\n      pop\n      pop\n      pop\n        /* \"#utility.yul\":23101:24496   */\n      pop\n      pop\n      jump\t// out\n        /* \"#utility.yul\":24502:24682   */\n    tag_139:\n        /* \"#utility.yul\":24550:24627   */\n      0x4e487b7100000000000000000000000000000000000000000000000000000000\n        /* \"#utility.yul\":24547:24548   */\n      0x00\n        /* \"#utility.yul\":24540:24628   */\n      mstore\n        /* \"#utility.yul\":24647:24651   */\n      0x12\n        /* \"#utility.yul\":24644:24645   */\n      0x04\n        /* \"#utility.yul\":24637:24652   */\n      mstore\n        /* \"#utility.yul\":24671:24675   */\n      0x24\n        /* \"#utility.yul\":24668:24669   */\n      0x00\n        /* \"#utility.yul\":24661:24676   */\n      revert\n\n    auxdata: 0xa26469706673582212202b4a62d26c41823eb632ba00334f17af38658d7f6c9b33edb0639b42cc854e8b64736f6c634300081a0033\n}\n",
				"bytecode": {
					"linkReferences": {},
					"object": "60806040526101185f806101000a81548161ffff021916908361ffff160217905550348015602b575f80fd5b503360025f6101000a81548173ffffffffffffffffffffffffffffffffffffffff021916908373ffffffffffffffffffffffffffffffffffffffff160217905550611a66806100795f395ff3fe608060405234801561000f575f80fd5b5060043610610091575f3560e01c8063633782161161006457806363378216146101315780637c9cd2bc1461014d578063808b0cf1146101695780638da5cb5b14610199578063fd10b7df146101b757610091565b806305a1b4a914610095578063112f54e3146100c95780633d9b569f146100f957806358bfa4ab14610115575b5f80fd5b6100af60048036038101906100aa9190610e7d565b6101d5565b6040516100c0959493929190610f49565b60405180910390f35b6100e360048036038101906100de9190610e7d565b6102c6565b6040516100f0919061107a565b60405180910390f35b610113600480360381019061010e9190610e7d565b61043e565b005b61012f600480360381019061012a91906110d1565b6105f8565b005b61014b60048036038101906101469190610e7d565b6106a5565b005b61016760048036038101906101629190611228565b6107bf565b005b610183600480360381019061017e919061126f565b6109b2565b60405161019091906113c8565b60405180910390f35b6101a1610b4d565b6040516101ae91906113e8565b60405180910390f35b6101bf610b72565b6040516101cc9190611410565b60405180910390f35b6001602052815f5260405f2081815481106101ee575f80fd5b905f5260205f2090600502015f9150915050805f015490806001015f9054906101000a900473ffffffffffffffffffffffffffffffffffffffff169080600201805461023990611456565b80601f016020809104026020016040519081016040528092919081815260200182805461026590611456565b80156102b05780601f10610287576101008083540402835291602001916102b0565b820191905f5260205f20905b81548152906001019060200180831161029357829003601f168201915b5050505050908060030154908060040154905085565b6102ce610d9e565b60015f8473ffffffffffffffffffffffffffffffffffffffff1673ffffffffffffffffffffffffffffffffffffffff1681526020019081526020015f20828154811061031d5761031c611486565b5b905f5260205f2090600502016040518060a00160405290815f8201548152602001600182015f9054906101000a900473ffffffffffffffffffffffffffffffffffffffff1673ffffffffffffffffffffffffffffffffffffffff1673ffffffffffffffffffffffffffffffffffffffff1681526020016002820180546103a290611456565b80601f01602080910402602001604051908101604052809291908181526020018280546103ce90611456565b80156104195780601f106103f057610100808354040283529160200191610419565b820191905f5260205f20905b8154815290600101906020018083116103fc57829003601f168201915b5050505050815260200160038201548152602001600482015481525050905092915050565b81818060015f8473ffffffffffffffffffffffffffffffffffffffff1673ffffffffffffffffffffffffffffffffffffffff1681526020019081526020015f2082815481106104905761048f611486565b5b905f5260205f2090600502015f0154146104df576040517f08c379a00000000000000000000000000000000000000000000000000000000081526004016104d6906114fd565b60405180910390fd5b5f60015f8673ffffffffffffffffffffffffffffffffffffffff1673ffffffffffffffffffffffffffffffffffffffff1681526020019081526020015f20848154811061052f5761052e611486565b5b905f5260205f209060050201600401541161057f576040517f08c379a000000000000000000000000000000000000000000000000000000000815260040161057690611565565b60405180910390fd5b60015f8573ffffffffffffffffffffffffffffffffffffffff1673ffffffffffffffffffffffffffffffffffffffff1681526020019081526020015f2083815481106105ce576105cd611486565b5b905f5260205f2090600502016004015f8154809291906105ed906115b0565b919050555050505050565b60025f9054906101000a900473ffffffffffffffffffffffffffffffffffffffff1673ffffffffffffffffffffffffffffffffffffffff163373ffffffffffffffffffffffffffffffffffffffff1614610687576040517f08c379a000000000000000000000000000000000000000000000000000000000815260040161067e90611647565b60405180910390fd5b805f806101000a81548161ffff021916908361ffff16021790555050565b81818060015f8473ffffffffffffffffffffffffffffffffffffffff1673ffffffffffffffffffffffffffffffffffffffff1681526020019081526020015f2082815481106106f7576106f6611486565b5b905f5260205f2090600502015f015414610746576040517f08c379a000000000000000000000000000000000000000000000000000000000815260040161073d906114fd565b60405180910390fd5b60015f8573ffffffffffffffffffffffffffffffffffffffff1673ffffffffffffffffffffffffffffffffffffffff1681526020019081526020015f20838154811061079557610794611486565b5b905f5260205f2090600502016004015f8154809291906107b490611665565b919050555050505050565b5f8054906101000a900461ffff1661ffff16815111156107ef5f8054906101000a900461ffff1661ffff16610b83565b6040516020016107ff9190611756565b6040516020818303038152906040529061084f576040517f08c379a00000000000000000000000000000000000000000000000000000000081526004016108469190611777565b60405180910390fd5b505f6040518060a0016040528060015f3373ffffffffffffffffffffffffffffffffffffffff1673ffffffffffffffffffffffffffffffffffffffff1681526020019081526020015f208054905081526020013373ffffffffffffffffffffffffffffffffffffffff1681526020018381526020014281526020015f815250905060015f3373ffffffffffffffffffffffffffffffffffffffff1673ffffffffffffffffffffffffffffffffffffffff1681526020019081526020015f2081908060018154018082558091505060019003905f5260205f2090600502015f909190919091505f820151815f01556020820151816001015f6101000a81548173ffffffffffffffffffffffffffffffffffffffff021916908373ffffffffffffffffffffffffffffffffffffffff16021790555060408201518160020190816109979190611934565b50606082015181600301556080820151816004015550505050565b606060015f8373ffffffffffffffffffffffffffffffffffffffff1673ffffffffffffffffffffffffffffffffffffffff1681526020019081526020015f20805480602002602001604051908101604052809291908181526020015f905b82821015610b42578382905f5260205f2090600502016040518060a00160405290815f8201548152602001600182015f9054906101000a900473ffffffffffffffffffffffffffffffffffffffff1673ffffffffffffffffffffffffffffffffffffffff1673ffffffffffffffffffffffffffffffffffffffff168152602001600282018054610a9f90611456565b80601f0160208091040260200160405190810160405280929190818152602001828054610acb90611456565b8015610b165780601f10610aed57610100808354040283529160200191610b16565b820191905f5260205f20905b815481529060010190602001808311610af957829003601f168201915b505050505081526020016003820154815260200160048201548152505081526020019060010190610a10565b505050509050919050565b60025f9054906101000a900473ffffffffffffffffffffffffffffffffffffffff1681565b5f8054906101000a900461ffff1681565b60605f6001610b9184610c4d565b0190505f8167ffffffffffffffff811115610baf57610bae611104565b5b6040519080825280601f01601f191660200182016040528015610be15781602001600182028036833780820191505090505b5090505f82602001820190505b600115610c42578080600190039150507f3031323334353637383961626364656600000000000000000000000000000000600a86061a8153600a8581610c3757610c36611a03565b5b0494505f8503610bee575b819350505050919050565b5f805f90507a184f03e93ff9f4daa797ed6e38ed64bf6a1f0100000000000000008310610ca9577a184f03e93ff9f4daa797ed6e38ed64bf6a1f0100000000000000008381610c9f57610c9e611a03565b5b0492506040810190505b6d04ee2d6d415b85acef81000000008310610ce6576d04ee2d6d415b85acef81000000008381610cdc57610cdb611a03565b5b0492506020810190505b662386f26fc100008310610d1557662386f26fc100008381610d0b57610d0a611a03565b5b0492506010810190505b6305f5e1008310610d3e576305f5e1008381610d3457610d33611a03565b5b0492506008810190505b6127108310610d63576127108381610d5957610d58611a03565b5b0492506004810190505b60648310610d865760648381610d7c57610d7b611a03565b5b0492506002810190505b600a8310610d95576001810190505b80915050919050565b6040518060a001604052805f81526020015f73ffffffffffffffffffffffffffffffffffffffff168152602001606081526020015f81526020015f81525090565b5f604051905090565b5f80fd5b5f80fd5b5f73ffffffffffffffffffffffffffffffffffffffff82169050919050565b5f610e1982610df0565b9050919050565b610e2981610e0f565b8114610e33575f80fd5b50565b5f81359050610e4481610e20565b92915050565b5f819050919050565b610e5c81610e4a565b8114610e66575f80fd5b50565b5f81359050610e7781610e53565b92915050565b5f8060408385031215610e9357610e92610de8565b5b5f610ea085828601610e36565b9250506020610eb185828601610e69565b9150509250929050565b610ec481610e4a565b82525050565b610ed381610e0f565b82525050565b5f81519050919050565b5f82825260208201905092915050565b8281835e5f83830152505050565b5f601f19601f8301169050919050565b5f610f1b82610ed9565b610f258185610ee3565b9350610f35818560208601610ef3565b610f3e81610f01565b840191505092915050565b5f60a082019050610f5c5f830188610ebb565b610f696020830187610eca565b8181036040830152610f7b8186610f11565b9050610f8a6060830185610ebb565b610f976080830184610ebb565b9695505050505050565b610faa81610e4a565b82525050565b610fb981610e0f565b82525050565b5f82825260208201905092915050565b5f610fd982610ed9565b610fe38185610fbf565b9350610ff3818560208601610ef3565b610ffc81610f01565b840191505092915050565b5f60a083015f83015161101c5f860182610fa1565b50602083015161102f6020860182610fb0565b50604083015184820360408601526110478282610fcf565b915050606083015161105c6060860182610fa1565b50608083015161106f6080860182610fa1565b508091505092915050565b5f6020820190508181035f8301526110928184611007565b905092915050565b5f61ffff82169050919050565b6110b08161109a565b81146110ba575f80fd5b50565b5f813590506110cb816110a7565b92915050565b5f602082840312156110e6576110e5610de8565b5b5f6110f3848285016110bd565b91505092915050565b5f80fd5b5f80fd5b7f4e487b71000000000000000000000000000000000000000000000000000000005f52604160045260245ffd5b61113a82610f01565b810181811067ffffffffffffffff8211171561115957611158611104565b5b80604052505050565b5f61116b610ddf565b90506111778282611131565b919050565b5f67ffffffffffffffff82111561119657611195611104565b5b61119f82610f01565b9050602081019050919050565b828183375f83830152505050565b5f6111cc6111c78461117c565b611162565b9050828152602081018484840111156111e8576111e7611100565b5b6111f38482856111ac565b509392505050565b5f82601f83011261120f5761120e6110fc565b5b813561121f8482602086016111ba565b91505092915050565b5f6020828403121561123d5761123c610de8565b5b5f82013567ffffffffffffffff81111561125a57611259610dec565b5b611266848285016111fb565b91505092915050565b5f6020828403121561128457611283610de8565b5b5f61129184828501610e36565b91505092915050565b5f81519050919050565b5f82825260208201905092915050565b5f819050602082019050919050565b5f60a083015f8301516112d85f860182610fa1565b5060208301516112eb6020860182610fb0565b50604083015184820360408601526113038282610fcf565b91505060608301516113186060860182610fa1565b50608083015161132b6080860182610fa1565b508091505092915050565b5f61134183836112c3565b905092915050565b5f602082019050919050565b5f61135f8261129a565b61136981856112a4565b93508360208202850161137b856112b4565b805f5b858110156113b657848403895281516113978582611336565b94506113a283611349565b925060208a0199505060018101905061137e565b50829750879550505050505092915050565b5f6020820190508181035f8301526113e08184611355565b905092915050565b5f6020820190506113fb5f830184610eca565b92915050565b61140a8161109a565b82525050565b5f6020820190506114235f830184611401565b92915050565b7f4e487b71000000000000000000000000000000000000000000000000000000005f52602260045260245ffd5b5f600282049050600182168061146d57607f821691505b6020821081036114805761147f611429565b5b50919050565b7f4e487b71000000000000000000000000000000000000000000000000000000005f52603260045260245ffd5b7f547765657420646f6573206e6f742065786973742100000000000000000000005f82015250565b5f6114e7601583610ee3565b91506114f2826114b3565b602082019050919050565b5f6020820190508181035f830152611514816114db565b9050919050565b7f547765657420686173206e6f206c696b657321000000000000000000000000005f82015250565b5f61154f601383610ee3565b915061155a8261151b565b602082019050919050565b5f6020820190508181035f83015261157c81611543565b9050919050565b7f4e487b71000000000000000000000000000000000000000000000000000000005f52601160045260245ffd5b5f6115ba82610e4a565b91505f82036115cc576115cb611583565b5b600182039050919050565b7f596f75277265206e6f7420616c6c6f77656420746f20657865637574652074685f8201527f6973206f7065726174696f6e0000000000000000000000000000000000000000602082015250565b5f611631602c83610ee3565b915061163c826115d7565b604082019050919050565b5f6020820190508181035f83015261165e81611625565b9050919050565b5f61166f82610e4a565b91507fffffffffffffffffffffffffffffffffffffffffffffffffffffffffffffffff82036116a1576116a0611583565b5b600182019050919050565b5f81905092915050565b7f596f757220747765657420657863656564656420746865206c696d6974206f665f8201527f20636861726163746572733a2000000000000000000000000000000000000000602082015250565b5f611710602d836116ac565b915061171b826116b6565b602d82019050919050565b5f61173082610ed9565b61173a81856116ac565b935061174a818560208601610ef3565b80840191505092915050565b5f61176082611704565b915061176c8284611726565b915081905092915050565b5f6020820190508181035f83015261178f8184610f11565b905092915050565b5f819050815f5260205f209050919050565b5f6020601f8301049050919050565b5f82821b905092915050565b5f600883026117f37fffffffffffffffffffffffffffffffffffffffffffffffffffffffffffffffff826117b8565b6117fd86836117b8565b95508019841693508086168417925050509392505050565b5f819050919050565b5f61183861183361182e84610e4a565b611815565b610e4a565b9050919050565b5f819050919050565b6118518361181e565b61186561185d8261183f565b8484546117c4565b825550505050565b5f90565b61187961186d565b611884818484611848565b505050565b5b818110156118a75761189c5f82611871565b60018101905061188a565b5050565b601f8211156118ec576118bd81611797565b6118c6846117a9565b810160208510156118d5578190505b6118e96118e1856117a9565b830182611889565b50505b505050565b5f82821c905092915050565b5f61190c5f19846008026118f1565b1980831691505092915050565b5f61192483836118fd565b9150826002028217905092915050565b61193d82610ed9565b67ffffffffffffffff81111561195657611955611104565b5b6119608254611456565b61196b8282856118ab565b5f60209050601f83116001811461199c575f841561198a578287015190505b6119948582611919565b8655506119fb565b601f1984166119aa86611797565b5f5b828110156119d1578489015182556001820191506020850194506020810190506119ac565b868310156119ee57848901516119ea601f8916826118fd565b8355505b6001600288020188555050505b505050505050565b7f4e487b71000000000000000000000000000000000000000000000000000000005f52601260045260245ffdfea26469706673582212202b4a62d26c41823eb632ba00334f17af38658d7f6c9b33edb0639b42cc854e8b64736f6c634300081a0033",
					"opcodes": "PUSH1 0x80 PUSH1 0x40 MSTORE PUSH2 0x118 PUSH0 DUP1 PUSH2 0x100 EXP DUP2 SLOAD DUP2 PUSH2 0xFFFF MUL NOT AND SWAP1 DUP4 PUSH2 0xFFFF AND MUL OR SWAP1 SSTORE POP CALLVALUE DUP1 ISZERO PUSH1 0x2B JUMPI PUSH0 DUP1 REVERT JUMPDEST POP CALLER PUSH1 0x2 PUSH0 PUSH2 0x100 EXP DUP2 SLOAD DUP2 PUSH20 0xFFFFFFFFFFFFFFFFFFFFFFFFFFFFFFFFFFFFFFFF MUL NOT AND SWAP1 DUP4 PUSH20 0xFFFFFFFFFFFFFFFFFFFFFFFFFFFFFFFFFFFFFFFF AND MUL OR SWAP1 SSTORE POP PUSH2 0x1A66 DUP1 PUSH2 0x79 PUSH0 CODECOPY PUSH0 RETURN INVALID PUSH1 0x80 PUSH1 0x40 MSTORE CALLVALUE DUP1 ISZERO PUSH2 0xF JUMPI PUSH0 DUP1 REVERT JUMPDEST POP PUSH1 0x4 CALLDATASIZE LT PUSH2 0x91 JUMPI PUSH0 CALLDATALOAD PUSH1 0xE0 SHR DUP1 PUSH4 0x63378216 GT PUSH2 0x64 JUMPI DUP1 PUSH4 0x63378216 EQ PUSH2 0x131 JUMPI DUP1 PUSH4 0x7C9CD2BC EQ PUSH2 0x14D JUMPI DUP1 PUSH4 0x808B0CF1 EQ PUSH2 0x169 JUMPI DUP1 PUSH4 0x8DA5CB5B EQ PUSH2 0x199 JUMPI DUP1 PUSH4 0xFD10B7DF EQ PUSH2 0x1B7 JUMPI PUSH2 0x91 JUMP JUMPDEST DUP1 PUSH4 0x5A1B4A9 EQ PUSH2 0x95 JUMPI DUP1 PUSH4 0x112F54E3 EQ PUSH2 0xC9 JUMPI DUP1 PUSH4 0x3D9B569F EQ PUSH2 0xF9 JUMPI DUP1 PUSH4 0x58BFA4AB EQ PUSH2 0x115 JUMPI JUMPDEST PUSH0 DUP1 REVERT JUMPDEST PUSH2 0xAF PUSH1 0x4 DUP1 CALLDATASIZE SUB DUP2 ADD SWAP1 PUSH2 0xAA SWAP2 SWAP1 PUSH2 0xE7D JUMP JUMPDEST PUSH2 0x1D5 JUMP JUMPDEST PUSH1 0x40 MLOAD PUSH2 0xC0 SWAP6 SWAP5 SWAP4 SWAP3 SWAP2 SWAP1 PUSH2 0xF49 JUMP JUMPDEST PUSH1 0x40 MLOAD DUP1 SWAP2 SUB SWAP1 RETURN JUMPDEST PUSH2 0xE3 PUSH1 0x4 DUP1 CALLDATASIZE SUB DUP2 ADD SWAP1 PUSH2 0xDE SWAP2 SWAP1 PUSH2 0xE7D JUMP JUMPDEST PUSH2 0x2C6 JUMP JUMPDEST PUSH1 0x40 MLOAD PUSH2 0xF0 SWAP2 SWAP1 PUSH2 0x107A JUMP JUMPDEST PUSH1 0x40 MLOAD DUP1 SWAP2 SUB SWAP1 RETURN JUMPDEST PUSH2 0x113 PUSH1 0x4 DUP1 CALLDATASIZE SUB DUP2 ADD SWAP1 PUSH2 0x10E SWAP2 SWAP1 PUSH2 0xE7D JUMP JUMPDEST PUSH2 0x43E JUMP JUMPDEST STOP JUMPDEST PUSH2 0x12F PUSH1 0x4 DUP1 CALLDATASIZE SUB DUP2 ADD SWAP1 PUSH2 0x12A SWAP2 SWAP1 PUSH2 0x10D1 JUMP JUMPDEST PUSH2 0x5F8 JUMP JUMPDEST STOP JUMPDEST PUSH2 0x14B PUSH1 0x4 DUP1 CALLDATASIZE SUB DUP2 ADD SWAP1 PUSH2 0x146 SWAP2 SWAP1 PUSH2 0xE7D JUMP JUMPDEST PUSH2 0x6A5 JUMP JUMPDEST STOP JUMPDEST PUSH2 0x167 PUSH1 0x4 DUP1 CALLDATASIZE SUB DUP2 ADD SWAP1 PUSH2 0x162 SWAP2 SWAP1 PUSH2 0x1228 JUMP JUMPDEST PUSH2 0x7BF JUMP JUMPDEST STOP JUMPDEST PUSH2 0x183 PUSH1 0x4 DUP1 CALLDATASIZE SUB DUP2 ADD SWAP1 PUSH2 0x17E SWAP2 SWAP1 PUSH2 0x126F JUMP JUMPDEST PUSH2 0x9B2 JUMP JUMPDEST PUSH1 0x40 MLOAD PUSH2 0x190 SWAP2 SWAP1 PUSH2 0x13C8 JUMP JUMPDEST PUSH1 0x40 MLOAD DUP1 SWAP2 SUB SWAP1 RETURN JUMPDEST PUSH2 0x1A1 PUSH2 0xB4D JUMP JUMPDEST PUSH1 0x40 MLOAD PUSH2 0x1AE SWAP2 SWAP1 PUSH2 0x13E8 JUMP JUMPDEST PUSH1 0x40 MLOAD DUP1 SWAP2 SUB SWAP1 RETURN JUMPDEST PUSH2 0x1BF PUSH2 0xB72 JUMP JUMPDEST PUSH1 0x40 MLOAD PUSH2 0x1CC SWAP2 SWAP1 PUSH2 0x1410 JUMP JUMPDEST PUSH1 0x40 MLOAD DUP1 SWAP2 SUB SWAP1 RETURN JUMPDEST PUSH1 0x1 PUSH1 0x20 MSTORE DUP2 PUSH0 MSTORE PUSH1 0x40 PUSH0 KECCAK256 DUP2 DUP2 SLOAD DUP2 LT PUSH2 0x1EE JUMPI PUSH0 DUP1 REVERT JUMPDEST SWAP1 PUSH0 MSTORE PUSH1 0x20 PUSH0 KECCAK256 SWAP1 PUSH1 0x5 MUL ADD PUSH0 SWAP2 POP SWAP2 POP POP DUP1 PUSH0 ADD SLOAD SWAP1 DUP1 PUSH1 0x1 ADD PUSH0 SWAP1 SLOAD SWAP1 PUSH2 0x100 EXP SWAP1 DIV PUSH20 0xFFFFFFFFFFFFFFFFFFFFFFFFFFFFFFFFFFFFFFFF AND SWAP1 DUP1 PUSH1 0x2 ADD DUP1 SLOAD PUSH2 0x239 SWAP1 PUSH2 0x1456 JUMP JUMPDEST DUP1 PUSH1 0x1F ADD PUSH1 0x20 DUP1 SWAP2 DIV MUL PUSH1 0x20 ADD PUSH1 0x40 MLOAD SWAP1 DUP2 ADD PUSH1 0x40 MSTORE DUP1 SWAP3 SWAP2 SWAP1 DUP2 DUP2 MSTORE PUSH1 0x20 ADD DUP3 DUP1 SLOAD PUSH2 0x265 SWAP1 PUSH2 0x1456 JUMP JUMPDEST DUP1 ISZERO PUSH2 0x2B0 JUMPI DUP1 PUSH1 0x1F LT PUSH2 0x287 JUMPI PUSH2 0x100 DUP1 DUP4 SLOAD DIV MUL DUP4 MSTORE SWAP2 PUSH1 0x20 ADD SWAP2 PUSH2 0x2B0 JUMP JUMPDEST DUP3 ADD SWAP2 SWAP1 PUSH0 MSTORE PUSH1 0x20 PUSH0 KECCAK256 SWAP1 JUMPDEST DUP2 SLOAD DUP2 MSTORE SWAP1 PUSH1 0x1 ADD SWAP1 PUSH1 0x20 ADD DUP1 DUP4 GT PUSH2 0x293 JUMPI DUP3 SWAP1 SUB PUSH1 0x1F AND DUP3 ADD SWAP2 JUMPDEST POP POP POP POP POP SWAP1 DUP1 PUSH1 0x3 ADD SLOAD SWAP1 DUP1 PUSH1 0x4 ADD SLOAD SWAP1 POP DUP6 JUMP JUMPDEST PUSH2 0x2CE PUSH2 0xD9E JUMP JUMPDEST PUSH1 0x1 PUSH0 DUP5 PUSH20 0xFFFFFFFFFFFFFFFFFFFFFFFFFFFFFFFFFFFFFFFF AND PUSH20 0xFFFFFFFFFFFFFFFFFFFFFFFFFFFFFFFFFFFFFFFF AND DUP2 MSTORE PUSH1 0x20 ADD SWAP1 DUP2 MSTORE PUSH1 0x20 ADD PUSH0 KECCAK256 DUP3 DUP2 SLOAD DUP2 LT PUSH2 0x31D JUMPI PUSH2 0x31C PUSH2 0x1486 JUMP JUMPDEST JUMPDEST SWAP1 PUSH0 MSTORE PUSH1 0x20 PUSH0 KECCAK256 SWAP1 PUSH1 0x5 MUL ADD PUSH1 0x40 MLOAD DUP1 PUSH1 0xA0 ADD PUSH1 0x40 MSTORE SWAP1 DUP2 PUSH0 DUP3 ADD SLOAD DUP2 MSTORE PUSH1 0x20 ADD PUSH1 0x1 DUP3 ADD PUSH0 SWAP1 SLOAD SWAP1 PUSH2 0x100 EXP SWAP1 DIV PUSH20 0xFFFFFFFFFFFFFFFFFFFFFFFFFFFFFFFFFFFFFFFF AND PUSH20 0xFFFFFFFFFFFFFFFFFFFFFFFFFFFFFFFFFFFFFFFF AND PUSH20 0xFFFFFFFFFFFFFFFFFFFFFFFFFFFFFFFFFFFFFFFF AND DUP2 MSTORE PUSH1 0x20 ADD PUSH1 0x2 DUP3 ADD DUP1 SLOAD PUSH2 0x3A2 SWAP1 PUSH2 0x1456 JUMP JUMPDEST DUP1 PUSH1 0x1F ADD PUSH1 0x20 DUP1 SWAP2 DIV MUL PUSH1 0x20 ADD PUSH1 0x40 MLOAD SWAP1 DUP2 ADD PUSH1 0x40 MSTORE DUP1 SWAP3 SWAP2 SWAP1 DUP2 DUP2 MSTORE PUSH1 0x20 ADD DUP3 DUP1 SLOAD PUSH2 0x3CE SWAP1 PUSH2 0x1456 JUMP JUMPDEST DUP1 ISZERO PUSH2 0x419 JUMPI DUP1 PUSH1 0x1F LT PUSH2 0x3F0 JUMPI PUSH2 0x100 DUP1 DUP4 SLOAD DIV MUL DUP4 MSTORE SWAP2 PUSH1 0x20 ADD SWAP2 PUSH2 0x419 JUMP JUMPDEST DUP3 ADD SWAP2 SWAP1 PUSH0 MSTORE PUSH1 0x20 PUSH0 KECCAK256 SWAP1 JUMPDEST DUP2 SLOAD DUP2 MSTORE SWAP1 PUSH1 0x1 ADD SWAP1 PUSH1 0x20 ADD DUP1 DUP4 GT PUSH2 0x3FC JUMPI DUP3 SWAP1 SUB PUSH1 0x1F AND DUP3 ADD SWAP2 JUMPDEST POP POP POP POP POP DUP2 MSTORE PUSH1 0x20 ADD PUSH1 0x3 DUP3 ADD SLOAD DUP2 MSTORE PUSH1 0x20 ADD PUSH1 0x4 DUP3 ADD SLOAD DUP2 MSTORE POP POP SWAP1 POP SWAP3 SWAP2 POP POP JUMP JUMPDEST DUP2 DUP2 DUP1 PUSH1 0x1 PUSH0 DUP5 PUSH20 0xFFFFFFFFFFFFFFFFFFFFFFFFFFFFFFFFFFFFFFFF AND PUSH20 0xFFFFFFFFFFFFFFFFFFFFFFFFFFFFFFFFFFFFFFFF AND DUP2 MSTORE PUSH1 0x20 ADD SWAP1 DUP2 MSTORE PUSH1 0x20 ADD PUSH0 KECCAK256 DUP3 DUP2 SLOAD DUP2 LT PUSH2 0x490 JUMPI PUSH2 0x48F PUSH2 0x1486 JUMP JUMPDEST JUMPDEST SWAP1 PUSH0 MSTORE PUSH1 0x20 PUSH0 KECCAK256 SWAP1 PUSH1 0x5 MUL ADD PUSH0 ADD SLOAD EQ PUSH2 0x4DF JUMPI PUSH1 0x40 MLOAD PUSH32 0x8C379A000000000000000000000000000000000000000000000000000000000 DUP2 MSTORE PUSH1 0x4 ADD PUSH2 0x4D6 SWAP1 PUSH2 0x14FD JUMP JUMPDEST PUSH1 0x40 MLOAD DUP1 SWAP2 SUB SWAP1 REVERT JUMPDEST PUSH0 PUSH1 0x1 PUSH0 DUP7 PUSH20 0xFFFFFFFFFFFFFFFFFFFFFFFFFFFFFFFFFFFFFFFF AND PUSH20 0xFFFFFFFFFFFFFFFFFFFFFFFFFFFFFFFFFFFFFFFF AND DUP2 MSTORE PUSH1 0x20 ADD SWAP1 DUP2 MSTORE PUSH1 0x20 ADD PUSH0 KECCAK256 DUP5 DUP2 SLOAD DUP2 LT PUSH2 0x52F JUMPI PUSH2 0x52E PUSH2 0x1486 JUMP JUMPDEST JUMPDEST SWAP1 PUSH0 MSTORE PUSH1 0x20 PUSH0 KECCAK256 SWAP1 PUSH1 0x5 MUL ADD PUSH1 0x4 ADD SLOAD GT PUSH2 0x57F JUMPI PUSH1 0x40 MLOAD PUSH32 0x8C379A000000000000000000000000000000000000000000000000000000000 DUP2 MSTORE PUSH1 0x4 ADD PUSH2 0x576 SWAP1 PUSH2 0x1565 JUMP JUMPDEST PUSH1 0x40 MLOAD DUP1 SWAP2 SUB SWAP1 REVERT JUMPDEST PUSH1 0x1 PUSH0 DUP6 PUSH20 0xFFFFFFFFFFFFFFFFFFFFFFFFFFFFFFFFFFFFFFFF AND PUSH20 0xFFFFFFFFFFFFFFFFFFFFFFFFFFFFFFFFFFFFFFFF AND DUP2 MSTORE PUSH1 0x20 ADD SWAP1 DUP2 MSTORE PUSH1 0x20 ADD PUSH0 KECCAK256 DUP4 DUP2 SLOAD DUP2 LT PUSH2 0x5CE JUMPI PUSH2 0x5CD PUSH2 0x1486 JUMP JUMPDEST JUMPDEST SWAP1 PUSH0 MSTORE PUSH1 0x20 PUSH0 KECCAK256 SWAP1 PUSH1 0x5 MUL ADD PUSH1 0x4 ADD PUSH0 DUP2 SLOAD DUP1 SWAP3 SWAP2 SWAP1 PUSH2 0x5ED SWAP1 PUSH2 0x15B0 JUMP JUMPDEST SWAP2 SWAP1 POP SSTORE POP POP POP POP POP JUMP JUMPDEST PUSH1 0x2 PUSH0 SWAP1 SLOAD SWAP1 PUSH2 0x100 EXP SWAP1 DIV PUSH20 0xFFFFFFFFFFFFFFFFFFFFFFFFFFFFFFFFFFFFFFFF AND PUSH20 0xFFFFFFFFFFFFFFFFFFFFFFFFFFFFFFFFFFFFFFFF AND CALLER PUSH20 0xFFFFFFFFFFFFFFFFFFFFFFFFFFFFFFFFFFFFFFFF AND EQ PUSH2 0x687 JUMPI PUSH1 0x40 MLOAD PUSH32 0x8C379A000000000000000000000000000000000000000000000000000000000 DUP2 MSTORE PUSH1 0x4 ADD PUSH2 0x67E SWAP1 PUSH2 0x1647 JUMP JUMPDEST PUSH1 0x40 MLOAD DUP1 SWAP2 SUB SWAP1 REVERT JUMPDEST DUP1 PUSH0 DUP1 PUSH2 0x100 EXP DUP2 SLOAD DUP2 PUSH2 0xFFFF MUL NOT AND SWAP1 DUP4 PUSH2 0xFFFF AND MUL OR SWAP1 SSTORE POP POP JUMP JUMPDEST DUP2 DUP2 DUP1 PUSH1 0x1 PUSH0 DUP5 PUSH20 0xFFFFFFFFFFFFFFFFFFFFFFFFFFFFFFFFFFFFFFFF AND PUSH20 0xFFFFFFFFFFFFFFFFFFFFFFFFFFFFFFFFFFFFFFFF AND DUP2 MSTORE PUSH1 0x20 ADD SWAP1 DUP2 MSTORE PUSH1 0x20 ADD PUSH0 KECCAK256 DUP3 DUP2 SLOAD DUP2 LT PUSH2 0x6F7 JUMPI PUSH2 0x6F6 PUSH2 0x1486 JUMP JUMPDEST JUMPDEST SWAP1 PUSH0 MSTORE PUSH1 0x20 PUSH0 KECCAK256 SWAP1 PUSH1 0x5 MUL ADD PUSH0 ADD SLOAD EQ PUSH2 0x746 JUMPI PUSH1 0x40 MLOAD PUSH32 0x8C379A000000000000000000000000000000000000000000000000000000000 DUP2 MSTORE PUSH1 0x4 ADD PUSH2 0x73D SWAP1 PUSH2 0x14FD JUMP JUMPDEST PUSH1 0x40 MLOAD DUP1 SWAP2 SUB SWAP1 REVERT JUMPDEST PUSH1 0x1 PUSH0 DUP6 PUSH20 0xFFFFFFFFFFFFFFFFFFFFFFFFFFFFFFFFFFFFFFFF AND PUSH20 0xFFFFFFFFFFFFFFFFFFFFFFFFFFFFFFFFFFFFFFFF AND DUP2 MSTORE PUSH1 0x20 ADD SWAP1 DUP2 MSTORE PUSH1 0x20 ADD PUSH0 KECCAK256 DUP4 DUP2 SLOAD DUP2 LT PUSH2 0x795 JUMPI PUSH2 0x794 PUSH2 0x1486 JUMP JUMPDEST JUMPDEST SWAP1 PUSH0 MSTORE PUSH1 0x20 PUSH0 KECCAK256 SWAP1 PUSH1 0x5 MUL ADD PUSH1 0x4 ADD PUSH0 DUP2 SLOAD DUP1 SWAP3 SWAP2 SWAP1 PUSH2 0x7B4 SWAP1 PUSH2 0x1665 JUMP JUMPDEST SWAP2 SWAP1 POP SSTORE POP POP POP POP POP JUMP JUMPDEST PUSH0 DUP1 SLOAD SWAP1 PUSH2 0x100 EXP SWAP1 DIV PUSH2 0xFFFF AND PUSH2 0xFFFF AND DUP2 MLOAD GT ISZERO PUSH2 0x7EF PUSH0 DUP1 SLOAD SWAP1 PUSH2 0x100 EXP SWAP1 DIV PUSH2 0xFFFF AND PUSH2 0xFFFF AND PUSH2 0xB83 JUMP JUMPDEST PUSH1 0x40 MLOAD PUSH1 0x20 ADD PUSH2 0x7FF SWAP2 SWAP1 PUSH2 0x1756 JUMP JUMPDEST PUSH1 0x40 MLOAD PUSH1 0x20 DUP2 DUP4 SUB SUB DUP2 MSTORE SWAP1 PUSH1 0x40 MSTORE SWAP1 PUSH2 0x84F JUMPI PUSH1 0x40 MLOAD PUSH32 0x8C379A000000000000000000000000000000000000000000000000000000000 DUP2 MSTORE PUSH1 0x4 ADD PUSH2 0x846 SWAP2 SWAP1 PUSH2 0x1777 JUMP JUMPDEST PUSH1 0x40 MLOAD DUP1 SWAP2 SUB SWAP1 REVERT JUMPDEST POP PUSH0 PUSH1 0x40 MLOAD DUP1 PUSH1 0xA0 ADD PUSH1 0x40 MSTORE DUP1 PUSH1 0x1 PUSH0 CALLER PUSH20 0xFFFFFFFFFFFFFFFFFFFFFFFFFFFFFFFFFFFFFFFF AND PUSH20 0xFFFFFFFFFFFFFFFFFFFFFFFFFFFFFFFFFFFFFFFF AND DUP2 MSTORE PUSH1 0x20 ADD SWAP1 DUP2 MSTORE PUSH1 0x20 ADD PUSH0 KECCAK256 DUP1 SLOAD SWAP1 POP DUP2 MSTORE PUSH1 0x20 ADD CALLER PUSH20 0xFFFFFFFFFFFFFFFFFFFFFFFFFFFFFFFFFFFFFFFF AND DUP2 MSTORE PUSH1 0x20 ADD DUP4 DUP2 MSTORE PUSH1 0x20 ADD TIMESTAMP DUP2 MSTORE PUSH1 0x20 ADD PUSH0 DUP2 MSTORE POP SWAP1 POP PUSH1 0x1 PUSH0 CALLER PUSH20 0xFFFFFFFFFFFFFFFFFFFFFFFFFFFFFFFFFFFFFFFF AND PUSH20 0xFFFFFFFFFFFFFFFFFFFFFFFFFFFFFFFFFFFFFFFF AND DUP2 MSTORE PUSH1 0x20 ADD SWAP1 DUP2 MSTORE PUSH1 0x20 ADD PUSH0 KECCAK256 DUP2 SWAP1 DUP1 PUSH1 0x1 DUP2 SLOAD ADD DUP1 DUP3 SSTORE DUP1 SWAP2 POP POP PUSH1 0x1 SWAP1 SUB SWAP1 PUSH0 MSTORE PUSH1 0x20 PUSH0 KECCAK256 SWAP1 PUSH1 0x5 MUL ADD PUSH0 SWAP1 SWAP2 SWAP1 SWAP2 SWAP1 SWAP2 POP PUSH0 DUP3 ADD MLOAD DUP2 PUSH0 ADD SSTORE PUSH1 0x20 DUP3 ADD MLOAD DUP2 PUSH1 0x1 ADD PUSH0 PUSH2 0x100 EXP DUP2 SLOAD DUP2 PUSH20 0xFFFFFFFFFFFFFFFFFFFFFFFFFFFFFFFFFFFFFFFF MUL NOT AND SWAP1 DUP4 PUSH20 0xFFFFFFFFFFFFFFFFFFFFFFFFFFFFFFFFFFFFFFFF AND MUL OR SWAP1 SSTORE POP PUSH1 0x40 DUP3 ADD MLOAD DUP2 PUSH1 0x2 ADD SWAP1 DUP2 PUSH2 0x997 SWAP2 SWAP1 PUSH2 0x1934 JUMP JUMPDEST POP PUSH1 0x60 DUP3 ADD MLOAD DUP2 PUSH1 0x3 ADD SSTORE PUSH1 0x80 DUP3 ADD MLOAD DUP2 PUSH1 0x4 ADD SSTORE POP POP POP POP JUMP JUMPDEST PUSH1 0x60 PUSH1 0x1 PUSH0 DUP4 PUSH20 0xFFFFFFFFFFFFFFFFFFFFFFFFFFFFFFFFFFFFFFFF AND PUSH20 0xFFFFFFFFFFFFFFFFFFFFFFFFFFFFFFFFFFFFFFFF AND DUP2 MSTORE PUSH1 0x20 ADD SWAP1 DUP2 MSTORE PUSH1 0x20 ADD PUSH0 KECCAK256 DUP1 SLOAD DUP1 PUSH1 0x20 MUL PUSH1 0x20 ADD PUSH1 0x40 MLOAD SWAP1 DUP2 ADD PUSH1 0x40 MSTORE DUP1 SWAP3 SWAP2 SWAP1 DUP2 DUP2 MSTORE PUSH1 0x20 ADD PUSH0 SWAP1 JUMPDEST DUP3 DUP3 LT ISZERO PUSH2 0xB42 JUMPI DUP4 DUP3 SWAP1 PUSH0 MSTORE PUSH1 0x20 PUSH0 KECCAK256 SWAP1 PUSH1 0x5 MUL ADD PUSH1 0x40 MLOAD DUP1 PUSH1 0xA0 ADD PUSH1 0x40 MSTORE SWAP1 DUP2 PUSH0 DUP3 ADD SLOAD DUP2 MSTORE PUSH1 0x20 ADD PUSH1 0x1 DUP3 ADD PUSH0 SWAP1 SLOAD SWAP1 PUSH2 0x100 EXP SWAP1 DIV PUSH20 0xFFFFFFFFFFFFFFFFFFFFFFFFFFFFFFFFFFFFFFFF AND PUSH20 0xFFFFFFFFFFFFFFFFFFFFFFFFFFFFFFFFFFFFFFFF AND PUSH20 0xFFFFFFFFFFFFFFFFFFFFFFFFFFFFFFFFFFFFFFFF AND DUP2 MSTORE PUSH1 0x20 ADD PUSH1 0x2 DUP3 ADD DUP1 SLOAD PUSH2 0xA9F SWAP1 PUSH2 0x1456 JUMP JUMPDEST DUP1 PUSH1 0x1F ADD PUSH1 0x20 DUP1 SWAP2 DIV MUL PUSH1 0x20 ADD PUSH1 0x40 MLOAD SWAP1 DUP2 ADD PUSH1 0x40 MSTORE DUP1 SWAP3 SWAP2 SWAP1 DUP2 DUP2 MSTORE PUSH1 0x20 ADD DUP3 DUP1 SLOAD PUSH2 0xACB SWAP1 PUSH2 0x1456 JUMP JUMPDEST DUP1 ISZERO PUSH2 0xB16 JUMPI DUP1 PUSH1 0x1F LT PUSH2 0xAED JUMPI PUSH2 0x100 DUP1 DUP4 SLOAD DIV MUL DUP4 MSTORE SWAP2 PUSH1 0x20 ADD SWAP2 PUSH2 0xB16 JUMP JUMPDEST DUP3 ADD SWAP2 SWAP1 PUSH0 MSTORE PUSH1 0x20 PUSH0 KECCAK256 SWAP1 JUMPDEST DUP2 SLOAD DUP2 MSTORE SWAP1 PUSH1 0x1 ADD SWAP1 PUSH1 0x20 ADD DUP1 DUP4 GT PUSH2 0xAF9 JUMPI DUP3 SWAP1 SUB PUSH1 0x1F AND DUP3 ADD SWAP2 JUMPDEST POP POP POP POP POP DUP2 MSTORE PUSH1 0x20 ADD PUSH1 0x3 DUP3 ADD SLOAD DUP2 MSTORE PUSH1 0x20 ADD PUSH1 0x4 DUP3 ADD SLOAD DUP2 MSTORE POP POP DUP2 MSTORE PUSH1 0x20 ADD SWAP1 PUSH1 0x1 ADD SWAP1 PUSH2 0xA10 JUMP JUMPDEST POP POP POP POP SWAP1 POP SWAP2 SWAP1 POP JUMP JUMPDEST PUSH1 0x2 PUSH0 SWAP1 SLOAD SWAP1 PUSH2 0x100 EXP SWAP1 DIV PUSH20 0xFFFFFFFFFFFFFFFFFFFFFFFFFFFFFFFFFFFFFFFF AND DUP2 JUMP JUMPDEST PUSH0 DUP1 SLOAD SWAP1 PUSH2 0x100 EXP SWAP1 DIV PUSH2 0xFFFF AND DUP2 JUMP JUMPDEST PUSH1 0x60 PUSH0 PUSH1 0x1 PUSH2 0xB91 DUP5 PUSH2 0xC4D JUMP JUMPDEST ADD SWAP1 POP PUSH0 DUP2 PUSH8 0xFFFFFFFFFFFFFFFF DUP2 GT ISZERO PUSH2 0xBAF JUMPI PUSH2 0xBAE PUSH2 0x1104 JUMP JUMPDEST JUMPDEST PUSH1 0x40 MLOAD SWAP1 DUP1 DUP3 MSTORE DUP1 PUSH1 0x1F ADD PUSH1 0x1F NOT AND PUSH1 0x20 ADD DUP3 ADD PUSH1 0x40 MSTORE DUP1 ISZERO PUSH2 0xBE1 JUMPI DUP2 PUSH1 0x20 ADD PUSH1 0x1 DUP3 MUL DUP1 CALLDATASIZE DUP4 CALLDATACOPY DUP1 DUP3 ADD SWAP2 POP POP SWAP1 POP JUMPDEST POP SWAP1 POP PUSH0 DUP3 PUSH1 0x20 ADD DUP3 ADD SWAP1 POP JUMPDEST PUSH1 0x1 ISZERO PUSH2 0xC42 JUMPI DUP1 DUP1 PUSH1 0x1 SWAP1 SUB SWAP2 POP POP PUSH32 0x3031323334353637383961626364656600000000000000000000000000000000 PUSH1 0xA DUP7 MOD BYTE DUP2 MSTORE8 PUSH1 0xA DUP6 DUP2 PUSH2 0xC37 JUMPI PUSH2 0xC36 PUSH2 0x1A03 JUMP JUMPDEST JUMPDEST DIV SWAP5 POP PUSH0 DUP6 SUB PUSH2 0xBEE JUMPI JUMPDEST DUP2 SWAP4 POP POP POP POP SWAP2 SWAP1 POP JUMP JUMPDEST PUSH0 DUP1 PUSH0 SWAP1 POP PUSH27 0x184F03E93FF9F4DAA797ED6E38ED64BF6A1F010000000000000000 DUP4 LT PUSH2 0xCA9 JUMPI PUSH27 0x184F03E93FF9F4DAA797ED6E38ED64BF6A1F010000000000000000 DUP4 DUP2 PUSH2 0xC9F JUMPI PUSH2 0xC9E PUSH2 0x1A03 JUMP JUMPDEST JUMPDEST DIV SWAP3 POP PUSH1 0x40 DUP2 ADD SWAP1 POP JUMPDEST PUSH14 0x4EE2D6D415B85ACEF8100000000 DUP4 LT PUSH2 0xCE6 JUMPI PUSH14 0x4EE2D6D415B85ACEF8100000000 DUP4 DUP2 PUSH2 0xCDC JUMPI PUSH2 0xCDB PUSH2 0x1A03 JUMP JUMPDEST JUMPDEST DIV SWAP3 POP PUSH1 0x20 DUP2 ADD SWAP1 POP JUMPDEST PUSH7 0x2386F26FC10000 DUP4 LT PUSH2 0xD15 JUMPI PUSH7 0x2386F26FC10000 DUP4 DUP2 PUSH2 0xD0B JUMPI PUSH2 0xD0A PUSH2 0x1A03 JUMP JUMPDEST JUMPDEST DIV SWAP3 POP PUSH1 0x10 DUP2 ADD SWAP1 POP JUMPDEST PUSH4 0x5F5E100 DUP4 LT PUSH2 0xD3E JUMPI PUSH4 0x5F5E100 DUP4 DUP2 PUSH2 0xD34 JUMPI PUSH2 0xD33 PUSH2 0x1A03 JUMP JUMPDEST JUMPDEST DIV SWAP3 POP PUSH1 0x8 DUP2 ADD SWAP1 POP JUMPDEST PUSH2 0x2710 DUP4 LT PUSH2 0xD63 JUMPI PUSH2 0x2710 DUP4 DUP2 PUSH2 0xD59 JUMPI PUSH2 0xD58 PUSH2 0x1A03 JUMP JUMPDEST JUMPDEST DIV SWAP3 POP PUSH1 0x4 DUP2 ADD SWAP1 POP JUMPDEST PUSH1 0x64 DUP4 LT PUSH2 0xD86 JUMPI PUSH1 0x64 DUP4 DUP2 PUSH2 0xD7C JUMPI PUSH2 0xD7B PUSH2 0x1A03 JUMP JUMPDEST JUMPDEST DIV SWAP3 POP PUSH1 0x2 DUP2 ADD SWAP1 POP JUMPDEST PUSH1 0xA DUP4 LT PUSH2 0xD95 JUMPI PUSH1 0x1 DUP2 ADD SWAP1 POP JUMPDEST DUP1 SWAP2 POP POP SWAP2 SWAP1 POP JUMP JUMPDEST PUSH1 0x40 MLOAD DUP1 PUSH1 0xA0 ADD PUSH1 0x40 MSTORE DUP1 PUSH0 DUP2 MSTORE PUSH1 0x20 ADD PUSH0 PUSH20 0xFFFFFFFFFFFFFFFFFFFFFFFFFFFFFFFFFFFFFFFF AND DUP2 MSTORE PUSH1 0x20 ADD PUSH1 0x60 DUP2 MSTORE PUSH1 0x20 ADD PUSH0 DUP2 MSTORE PUSH1 0x20 ADD PUSH0 DUP2 MSTORE POP SWAP1 JUMP JUMPDEST PUSH0 PUSH1 0x40 MLOAD SWAP1 POP SWAP1 JUMP JUMPDEST PUSH0 DUP1 REVERT JUMPDEST PUSH0 DUP1 REVERT JUMPDEST PUSH0 PUSH20 0xFFFFFFFFFFFFFFFFFFFFFFFFFFFFFFFFFFFFFFFF DUP3 AND SWAP1 POP SWAP2 SWAP1 POP JUMP JUMPDEST PUSH0 PUSH2 0xE19 DUP3 PUSH2 0xDF0 JUMP JUMPDEST SWAP1 POP SWAP2 SWAP1 POP JUMP JUMPDEST PUSH2 0xE29 DUP2 PUSH2 0xE0F JUMP JUMPDEST DUP2 EQ PUSH2 0xE33 JUMPI PUSH0 DUP1 REVERT JUMPDEST POP JUMP JUMPDEST PUSH0 DUP2 CALLDATALOAD SWAP1 POP PUSH2 0xE44 DUP2 PUSH2 0xE20 JUMP JUMPDEST SWAP3 SWAP2 POP POP JUMP JUMPDEST PUSH0 DUP2 SWAP1 POP SWAP2 SWAP1 POP JUMP JUMPDEST PUSH2 0xE5C DUP2 PUSH2 0xE4A JUMP JUMPDEST DUP2 EQ PUSH2 0xE66 JUMPI PUSH0 DUP1 REVERT JUMPDEST POP JUMP JUMPDEST PUSH0 DUP2 CALLDATALOAD SWAP1 POP PUSH2 0xE77 DUP2 PUSH2 0xE53 JUMP JUMPDEST SWAP3 SWAP2 POP POP JUMP JUMPDEST PUSH0 DUP1 PUSH1 0x40 DUP4 DUP6 SUB SLT ISZERO PUSH2 0xE93 JUMPI PUSH2 0xE92 PUSH2 0xDE8 JUMP JUMPDEST JUMPDEST PUSH0 PUSH2 0xEA0 DUP6 DUP3 DUP7 ADD PUSH2 0xE36 JUMP JUMPDEST SWAP3 POP POP PUSH1 0x20 PUSH2 0xEB1 DUP6 DUP3 DUP7 ADD PUSH2 0xE69 JUMP JUMPDEST SWAP2 POP POP SWAP3 POP SWAP3 SWAP1 POP JUMP JUMPDEST PUSH2 0xEC4 DUP2 PUSH2 0xE4A JUMP JUMPDEST DUP3 MSTORE POP POP JUMP JUMPDEST PUSH2 0xED3 DUP2 PUSH2 0xE0F JUMP JUMPDEST DUP3 MSTORE POP POP JUMP JUMPDEST PUSH0 DUP2 MLOAD SWAP1 POP SWAP2 SWAP1 POP JUMP JUMPDEST PUSH0 DUP3 DUP3 MSTORE PUSH1 0x20 DUP3 ADD SWAP1 POP SWAP3 SWAP2 POP POP JUMP JUMPDEST DUP3 DUP2 DUP4 MCOPY PUSH0 DUP4 DUP4 ADD MSTORE POP POP POP JUMP JUMPDEST PUSH0 PUSH1 0x1F NOT PUSH1 0x1F DUP4 ADD AND SWAP1 POP SWAP2 SWAP1 POP JUMP JUMPDEST PUSH0 PUSH2 0xF1B DUP3 PUSH2 0xED9 JUMP JUMPDEST PUSH2 0xF25 DUP2 DUP6 PUSH2 0xEE3 JUMP JUMPDEST SWAP4 POP PUSH2 0xF35 DUP2 DUP6 PUSH1 0x20 DUP7 ADD PUSH2 0xEF3 JUMP JUMPDEST PUSH2 0xF3E DUP2 PUSH2 0xF01 JUMP JUMPDEST DUP5 ADD SWAP2 POP POP SWAP3 SWAP2 POP POP JUMP JUMPDEST PUSH0 PUSH1 0xA0 DUP3 ADD SWAP1 POP PUSH2 0xF5C PUSH0 DUP4 ADD DUP9 PUSH2 0xEBB JUMP JUMPDEST PUSH2 0xF69 PUSH1 0x20 DUP4 ADD DUP8 PUSH2 0xECA JUMP JUMPDEST DUP2 DUP2 SUB PUSH1 0x40 DUP4 ADD MSTORE PUSH2 0xF7B DUP2 DUP7 PUSH2 0xF11 JUMP JUMPDEST SWAP1 POP PUSH2 0xF8A PUSH1 0x60 DUP4 ADD DUP6 PUSH2 0xEBB JUMP JUMPDEST PUSH2 0xF97 PUSH1 0x80 DUP4 ADD DUP5 PUSH2 0xEBB JUMP JUMPDEST SWAP7 SWAP6 POP POP POP POP POP POP JUMP JUMPDEST PUSH2 0xFAA DUP2 PUSH2 0xE4A JUMP JUMPDEST DUP3 MSTORE POP POP JUMP JUMPDEST PUSH2 0xFB9 DUP2 PUSH2 0xE0F JUMP JUMPDEST DUP3 MSTORE POP POP JUMP JUMPDEST PUSH0 DUP3 DUP3 MSTORE PUSH1 0x20 DUP3 ADD SWAP1 POP SWAP3 SWAP2 POP POP JUMP JUMPDEST PUSH0 PUSH2 0xFD9 DUP3 PUSH2 0xED9 JUMP JUMPDEST PUSH2 0xFE3 DUP2 DUP6 PUSH2 0xFBF JUMP JUMPDEST SWAP4 POP PUSH2 0xFF3 DUP2 DUP6 PUSH1 0x20 DUP7 ADD PUSH2 0xEF3 JUMP JUMPDEST PUSH2 0xFFC DUP2 PUSH2 0xF01 JUMP JUMPDEST DUP5 ADD SWAP2 POP POP SWAP3 SWAP2 POP POP JUMP JUMPDEST PUSH0 PUSH1 0xA0 DUP4 ADD PUSH0 DUP4 ADD MLOAD PUSH2 0x101C PUSH0 DUP7 ADD DUP3 PUSH2 0xFA1 JUMP JUMPDEST POP PUSH1 0x20 DUP4 ADD MLOAD PUSH2 0x102F PUSH1 0x20 DUP7 ADD DUP3 PUSH2 0xFB0 JUMP JUMPDEST POP PUSH1 0x40 DUP4 ADD MLOAD DUP5 DUP3 SUB PUSH1 0x40 DUP7 ADD MSTORE PUSH2 0x1047 DUP3 DUP3 PUSH2 0xFCF JUMP JUMPDEST SWAP2 POP POP PUSH1 0x60 DUP4 ADD MLOAD PUSH2 0x105C PUSH1 0x60 DUP7 ADD DUP3 PUSH2 0xFA1 JUMP JUMPDEST POP PUSH1 0x80 DUP4 ADD MLOAD PUSH2 0x106F PUSH1 0x80 DUP7 ADD DUP3 PUSH2 0xFA1 JUMP JUMPDEST POP DUP1 SWAP2 POP POP SWAP3 SWAP2 POP POP JUMP JUMPDEST PUSH0 PUSH1 0x20 DUP3 ADD SWAP1 POP DUP2 DUP2 SUB PUSH0 DUP4 ADD MSTORE PUSH2 0x1092 DUP2 DUP5 PUSH2 0x1007 JUMP JUMPDEST SWAP1 POP SWAP3 SWAP2 POP POP JUMP JUMPDEST PUSH0 PUSH2 0xFFFF DUP3 AND SWAP1 POP SWAP2 SWAP1 POP JUMP JUMPDEST PUSH2 0x10B0 DUP2 PUSH2 0x109A JUMP JUMPDEST DUP2 EQ PUSH2 0x10BA JUMPI PUSH0 DUP1 REVERT JUMPDEST POP JUMP JUMPDEST PUSH0 DUP2 CALLDATALOAD SWAP1 POP PUSH2 0x10CB DUP2 PUSH2 0x10A7 JUMP JUMPDEST SWAP3 SWAP2 POP POP JUMP JUMPDEST PUSH0 PUSH1 0x20 DUP3 DUP5 SUB SLT ISZERO PUSH2 0x10E6 JUMPI PUSH2 0x10E5 PUSH2 0xDE8 JUMP JUMPDEST JUMPDEST PUSH0 PUSH2 0x10F3 DUP5 DUP3 DUP6 ADD PUSH2 0x10BD JUMP JUMPDEST SWAP2 POP POP SWAP3 SWAP2 POP POP JUMP JUMPDEST PUSH0 DUP1 REVERT JUMPDEST PUSH0 DUP1 REVERT JUMPDEST PUSH32 0x4E487B7100000000000000000000000000000000000000000000000000000000 PUSH0 MSTORE PUSH1 0x41 PUSH1 0x4 MSTORE PUSH1 0x24 PUSH0 REVERT JUMPDEST PUSH2 0x113A DUP3 PUSH2 0xF01 JUMP JUMPDEST DUP2 ADD DUP2 DUP2 LT PUSH8 0xFFFFFFFFFFFFFFFF DUP3 GT OR ISZERO PUSH2 0x1159 JUMPI PUSH2 0x1158 PUSH2 0x1104 JUMP JUMPDEST JUMPDEST DUP1 PUSH1 0x40 MSTORE POP POP POP JUMP JUMPDEST PUSH0 PUSH2 0x116B PUSH2 0xDDF JUMP JUMPDEST SWAP1 POP PUSH2 0x1177 DUP3 DUP3 PUSH2 0x1131 JUMP JUMPDEST SWAP2 SWAP1 POP JUMP JUMPDEST PUSH0 PUSH8 0xFFFFFFFFFFFFFFFF DUP3 GT ISZERO PUSH2 0x1196 JUMPI PUSH2 0x1195 PUSH2 0x1104 JUMP JUMPDEST JUMPDEST PUSH2 0x119F DUP3 PUSH2 0xF01 JUMP JUMPDEST SWAP1 POP PUSH1 0x20 DUP2 ADD SWAP1 POP SWAP2 SWAP1 POP JUMP JUMPDEST DUP3 DUP2 DUP4 CALLDATACOPY PUSH0 DUP4 DUP4 ADD MSTORE POP POP POP JUMP JUMPDEST PUSH0 PUSH2 0x11CC PUSH2 0x11C7 DUP5 PUSH2 0x117C JUMP JUMPDEST PUSH2 0x1162 JUMP JUMPDEST SWAP1 POP DUP3 DUP2 MSTORE PUSH1 0x20 DUP2 ADD DUP5 DUP5 DUP5 ADD GT ISZERO PUSH2 0x11E8 JUMPI PUSH2 0x11E7 PUSH2 0x1100 JUMP JUMPDEST JUMPDEST PUSH2 0x11F3 DUP5 DUP3 DUP6 PUSH2 0x11AC JUMP JUMPDEST POP SWAP4 SWAP3 POP POP POP JUMP JUMPDEST PUSH0 DUP3 PUSH1 0x1F DUP4 ADD SLT PUSH2 0x120F JUMPI PUSH2 0x120E PUSH2 0x10FC JUMP JUMPDEST JUMPDEST DUP2 CALLDATALOAD PUSH2 0x121F DUP5 DUP3 PUSH1 0x20 DUP7 ADD PUSH2 0x11BA JUMP JUMPDEST SWAP2 POP POP SWAP3 SWAP2 POP POP JUMP JUMPDEST PUSH0 PUSH1 0x20 DUP3 DUP5 SUB SLT ISZERO PUSH2 0x123D JUMPI PUSH2 0x123C PUSH2 0xDE8 JUMP JUMPDEST JUMPDEST PUSH0 DUP3 ADD CALLDATALOAD PUSH8 0xFFFFFFFFFFFFFFFF DUP2 GT ISZERO PUSH2 0x125A JUMPI PUSH2 0x1259 PUSH2 0xDEC JUMP JUMPDEST JUMPDEST PUSH2 0x1266 DUP5 DUP3 DUP6 ADD PUSH2 0x11FB JUMP JUMPDEST SWAP2 POP POP SWAP3 SWAP2 POP POP JUMP JUMPDEST PUSH0 PUSH1 0x20 DUP3 DUP5 SUB SLT ISZERO PUSH2 0x1284 JUMPI PUSH2 0x1283 PUSH2 0xDE8 JUMP JUMPDEST JUMPDEST PUSH0 PUSH2 0x1291 DUP5 DUP3 DUP6 ADD PUSH2 0xE36 JUMP JUMPDEST SWAP2 POP POP SWAP3 SWAP2 POP POP JUMP JUMPDEST PUSH0 DUP2 MLOAD SWAP1 POP SWAP2 SWAP1 POP JUMP JUMPDEST PUSH0 DUP3 DUP3 MSTORE PUSH1 0x20 DUP3 ADD SWAP1 POP SWAP3 SWAP2 POP POP JUMP JUMPDEST PUSH0 DUP2 SWAP1 POP PUSH1 0x20 DUP3 ADD SWAP1 POP SWAP2 SWAP1 POP JUMP JUMPDEST PUSH0 PUSH1 0xA0 DUP4 ADD PUSH0 DUP4 ADD MLOAD PUSH2 0x12D8 PUSH0 DUP7 ADD DUP3 PUSH2 0xFA1 JUMP JUMPDEST POP PUSH1 0x20 DUP4 ADD MLOAD PUSH2 0x12EB PUSH1 0x20 DUP7 ADD DUP3 PUSH2 0xFB0 JUMP JUMPDEST POP PUSH1 0x40 DUP4 ADD MLOAD DUP5 DUP3 SUB PUSH1 0x40 DUP7 ADD MSTORE PUSH2 0x1303 DUP3 DUP3 PUSH2 0xFCF JUMP JUMPDEST SWAP2 POP POP PUSH1 0x60 DUP4 ADD MLOAD PUSH2 0x1318 PUSH1 0x60 DUP7 ADD DUP3 PUSH2 0xFA1 JUMP JUMPDEST POP PUSH1 0x80 DUP4 ADD MLOAD PUSH2 0x132B PUSH1 0x80 DUP7 ADD DUP3 PUSH2 0xFA1 JUMP JUMPDEST POP DUP1 SWAP2 POP POP SWAP3 SWAP2 POP POP JUMP JUMPDEST PUSH0 PUSH2 0x1341 DUP4 DUP4 PUSH2 0x12C3 JUMP JUMPDEST SWAP1 POP SWAP3 SWAP2 POP POP JUMP JUMPDEST PUSH0 PUSH1 0x20 DUP3 ADD SWAP1 POP SWAP2 SWAP1 POP JUMP JUMPDEST PUSH0 PUSH2 0x135F DUP3 PUSH2 0x129A JUMP JUMPDEST PUSH2 0x1369 DUP2 DUP6 PUSH2 0x12A4 JUMP JUMPDEST SWAP4 POP DUP4 PUSH1 0x20 DUP3 MUL DUP6 ADD PUSH2 0x137B DUP6 PUSH2 0x12B4 JUMP JUMPDEST DUP1 PUSH0 JUMPDEST DUP6 DUP2 LT ISZERO PUSH2 0x13B6 JUMPI DUP5 DUP5 SUB DUP10 MSTORE DUP2 MLOAD PUSH2 0x1397 DUP6 DUP3 PUSH2 0x1336 JUMP JUMPDEST SWAP5 POP PUSH2 0x13A2 DUP4 PUSH2 0x1349 JUMP JUMPDEST SWAP3 POP PUSH1 0x20 DUP11 ADD SWAP10 POP POP PUSH1 0x1 DUP2 ADD SWAP1 POP PUSH2 0x137E JUMP JUMPDEST POP DUP3 SWAP8 POP DUP8 SWAP6 POP POP POP POP POP POP SWAP3 SWAP2 POP POP JUMP JUMPDEST PUSH0 PUSH1 0x20 DUP3 ADD SWAP1 POP DUP2 DUP2 SUB PUSH0 DUP4 ADD MSTORE PUSH2 0x13E0 DUP2 DUP5 PUSH2 0x1355 JUMP JUMPDEST SWAP1 POP SWAP3 SWAP2 POP POP JUMP JUMPDEST PUSH0 PUSH1 0x20 DUP3 ADD SWAP1 POP PUSH2 0x13FB PUSH0 DUP4 ADD DUP5 PUSH2 0xECA JUMP JUMPDEST SWAP3 SWAP2 POP POP JUMP JUMPDEST PUSH2 0x140A DUP2 PUSH2 0x109A JUMP JUMPDEST DUP3 MSTORE POP POP JUMP JUMPDEST PUSH0 PUSH1 0x20 DUP3 ADD SWAP1 POP PUSH2 0x1423 PUSH0 DUP4 ADD DUP5 PUSH2 0x1401 JUMP JUMPDEST SWAP3 SWAP2 POP POP JUMP JUMPDEST PUSH32 0x4E487B7100000000000000000000000000000000000000000000000000000000 PUSH0 MSTORE PUSH1 0x22 PUSH1 0x4 MSTORE PUSH1 0x24 PUSH0 REVERT JUMPDEST PUSH0 PUSH1 0x2 DUP3 DIV SWAP1 POP PUSH1 0x1 DUP3 AND DUP1 PUSH2 0x146D JUMPI PUSH1 0x7F DUP3 AND SWAP2 POP JUMPDEST PUSH1 0x20 DUP3 LT DUP2 SUB PUSH2 0x1480 JUMPI PUSH2 0x147F PUSH2 0x1429 JUMP JUMPDEST JUMPDEST POP SWAP2 SWAP1 POP JUMP JUMPDEST PUSH32 0x4E487B7100000000000000000000000000000000000000000000000000000000 PUSH0 MSTORE PUSH1 0x32 PUSH1 0x4 MSTORE PUSH1 0x24 PUSH0 REVERT JUMPDEST PUSH32 0x547765657420646F6573206E6F74206578697374210000000000000000000000 PUSH0 DUP3 ADD MSTORE POP JUMP JUMPDEST PUSH0 PUSH2 0x14E7 PUSH1 0x15 DUP4 PUSH2 0xEE3 JUMP JUMPDEST SWAP2 POP PUSH2 0x14F2 DUP3 PUSH2 0x14B3 JUMP JUMPDEST PUSH1 0x20 DUP3 ADD SWAP1 POP SWAP2 SWAP1 POP JUMP JUMPDEST PUSH0 PUSH1 0x20 DUP3 ADD SWAP1 POP DUP2 DUP2 SUB PUSH0 DUP4 ADD MSTORE PUSH2 0x1514 DUP2 PUSH2 0x14DB JUMP JUMPDEST SWAP1 POP SWAP2 SWAP1 POP JUMP JUMPDEST PUSH32 0x547765657420686173206E6F206C696B65732100000000000000000000000000 PUSH0 DUP3 ADD MSTORE POP JUMP JUMPDEST PUSH0 PUSH2 0x154F PUSH1 0x13 DUP4 PUSH2 0xEE3 JUMP JUMPDEST SWAP2 POP PUSH2 0x155A DUP3 PUSH2 0x151B JUMP JUMPDEST PUSH1 0x20 DUP3 ADD SWAP1 POP SWAP2 SWAP1 POP JUMP JUMPDEST PUSH0 PUSH1 0x20 DUP3 ADD SWAP1 POP DUP2 DUP2 SUB PUSH0 DUP4 ADD MSTORE PUSH2 0x157C DUP2 PUSH2 0x1543 JUMP JUMPDEST SWAP1 POP SWAP2 SWAP1 POP JUMP JUMPDEST PUSH32 0x4E487B7100000000000000000000000000000000000000000000000000000000 PUSH0 MSTORE PUSH1 0x11 PUSH1 0x4 MSTORE PUSH1 0x24 PUSH0 REVERT JUMPDEST PUSH0 PUSH2 0x15BA DUP3 PUSH2 0xE4A JUMP JUMPDEST SWAP2 POP PUSH0 DUP3 SUB PUSH2 0x15CC JUMPI PUSH2 0x15CB PUSH2 0x1583 JUMP JUMPDEST JUMPDEST PUSH1 0x1 DUP3 SUB SWAP1 POP SWAP2 SWAP1 POP JUMP JUMPDEST PUSH32 0x596F75277265206E6F7420616C6C6F77656420746F2065786563757465207468 PUSH0 DUP3 ADD MSTORE PUSH32 0x6973206F7065726174696F6E0000000000000000000000000000000000000000 PUSH1 0x20 DUP3 ADD MSTORE POP JUMP JUMPDEST PUSH0 PUSH2 0x1631 PUSH1 0x2C DUP4 PUSH2 0xEE3 JUMP JUMPDEST SWAP2 POP PUSH2 0x163C DUP3 PUSH2 0x15D7 JUMP JUMPDEST PUSH1 0x40 DUP3 ADD SWAP1 POP SWAP2 SWAP1 POP JUMP JUMPDEST PUSH0 PUSH1 0x20 DUP3 ADD SWAP1 POP DUP2 DUP2 SUB PUSH0 DUP4 ADD MSTORE PUSH2 0x165E DUP2 PUSH2 0x1625 JUMP JUMPDEST SWAP1 POP SWAP2 SWAP1 POP JUMP JUMPDEST PUSH0 PUSH2 0x166F DUP3 PUSH2 0xE4A JUMP JUMPDEST SWAP2 POP PUSH32 0xFFFFFFFFFFFFFFFFFFFFFFFFFFFFFFFFFFFFFFFFFFFFFFFFFFFFFFFFFFFFFFFF DUP3 SUB PUSH2 0x16A1 JUMPI PUSH2 0x16A0 PUSH2 0x1583 JUMP JUMPDEST JUMPDEST PUSH1 0x1 DUP3 ADD SWAP1 POP SWAP2 SWAP1 POP JUMP JUMPDEST PUSH0 DUP2 SWAP1 POP SWAP3 SWAP2 POP POP JUMP JUMPDEST PUSH32 0x596F757220747765657420657863656564656420746865206C696D6974206F66 PUSH0 DUP3 ADD MSTORE PUSH32 0x20636861726163746572733A2000000000000000000000000000000000000000 PUSH1 0x20 DUP3 ADD MSTORE POP JUMP JUMPDEST PUSH0 PUSH2 0x1710 PUSH1 0x2D DUP4 PUSH2 0x16AC JUMP JUMPDEST SWAP2 POP PUSH2 0x171B DUP3 PUSH2 0x16B6 JUMP JUMPDEST PUSH1 0x2D DUP3 ADD SWAP1 POP SWAP2 SWAP1 POP JUMP JUMPDEST PUSH0 PUSH2 0x1730 DUP3 PUSH2 0xED9 JUMP JUMPDEST PUSH2 0x173A DUP2 DUP6 PUSH2 0x16AC JUMP JUMPDEST SWAP4 POP PUSH2 0x174A DUP2 DUP6 PUSH1 0x20 DUP7 ADD PUSH2 0xEF3 JUMP JUMPDEST DUP1 DUP5 ADD SWAP2 POP POP SWAP3 SWAP2 POP POP JUMP JUMPDEST PUSH0 PUSH2 0x1760 DUP3 PUSH2 0x1704 JUMP JUMPDEST SWAP2 POP PUSH2 0x176C DUP3 DUP5 PUSH2 0x1726 JUMP JUMPDEST SWAP2 POP DUP2 SWAP1 POP SWAP3 SWAP2 POP POP JUMP JUMPDEST PUSH0 PUSH1 0x20 DUP3 ADD SWAP1 POP DUP2 DUP2 SUB PUSH0 DUP4 ADD MSTORE PUSH2 0x178F DUP2 DUP5 PUSH2 0xF11 JUMP JUMPDEST SWAP1 POP SWAP3 SWAP2 POP POP JUMP JUMPDEST PUSH0 DUP2 SWAP1 POP DUP2 PUSH0 MSTORE PUSH1 0x20 PUSH0 KECCAK256 SWAP1 POP SWAP2 SWAP1 POP JUMP JUMPDEST PUSH0 PUSH1 0x20 PUSH1 0x1F DUP4 ADD DIV SWAP1 POP SWAP2 SWAP1 POP JUMP JUMPDEST PUSH0 DUP3 DUP3 SHL SWAP1 POP SWAP3 SWAP2 POP POP JUMP JUMPDEST PUSH0 PUSH1 0x8 DUP4 MUL PUSH2 0x17F3 PUSH32 0xFFFFFFFFFFFFFFFFFFFFFFFFFFFFFFFFFFFFFFFFFFFFFFFFFFFFFFFFFFFFFFFF DUP3 PUSH2 0x17B8 JUMP JUMPDEST PUSH2 0x17FD DUP7 DUP4 PUSH2 0x17B8 JUMP JUMPDEST SWAP6 POP DUP1 NOT DUP5 AND SWAP4 POP DUP1 DUP7 AND DUP5 OR SWAP3 POP POP POP SWAP4 SWAP3 POP POP POP JUMP JUMPDEST PUSH0 DUP2 SWAP1 POP SWAP2 SWAP1 POP JUMP JUMPDEST PUSH0 PUSH2 0x1838 PUSH2 0x1833 PUSH2 0x182E DUP5 PUSH2 0xE4A JUMP JUMPDEST PUSH2 0x1815 JUMP JUMPDEST PUSH2 0xE4A JUMP JUMPDEST SWAP1 POP SWAP2 SWAP1 POP JUMP JUMPDEST PUSH0 DUP2 SWAP1 POP SWAP2 SWAP1 POP JUMP JUMPDEST PUSH2 0x1851 DUP4 PUSH2 0x181E JUMP JUMPDEST PUSH2 0x1865 PUSH2 0x185D DUP3 PUSH2 0x183F JUMP JUMPDEST DUP5 DUP5 SLOAD PUSH2 0x17C4 JUMP JUMPDEST DUP3 SSTORE POP POP POP POP JUMP JUMPDEST PUSH0 SWAP1 JUMP JUMPDEST PUSH2 0x1879 PUSH2 0x186D JUMP JUMPDEST PUSH2 0x1884 DUP2 DUP5 DUP5 PUSH2 0x1848 JUMP JUMPDEST POP POP POP JUMP JUMPDEST JUMPDEST DUP2 DUP2 LT ISZERO PUSH2 0x18A7 JUMPI PUSH2 0x189C PUSH0 DUP3 PUSH2 0x1871 JUMP JUMPDEST PUSH1 0x1 DUP2 ADD SWAP1 POP PUSH2 0x188A JUMP JUMPDEST POP POP JUMP JUMPDEST PUSH1 0x1F DUP3 GT ISZERO PUSH2 0x18EC JUMPI PUSH2 0x18BD DUP2 PUSH2 0x1797 JUMP JUMPDEST PUSH2 0x18C6 DUP5 PUSH2 0x17A9 JUMP JUMPDEST DUP2 ADD PUSH1 0x20 DUP6 LT ISZERO PUSH2 0x18D5 JUMPI DUP2 SWAP1 POP JUMPDEST PUSH2 0x18E9 PUSH2 0x18E1 DUP6 PUSH2 0x17A9 JUMP JUMPDEST DUP4 ADD DUP3 PUSH2 0x1889 JUMP JUMPDEST POP POP JUMPDEST POP POP POP JUMP JUMPDEST PUSH0 DUP3 DUP3 SHR SWAP1 POP SWAP3 SWAP2 POP POP JUMP JUMPDEST PUSH0 PUSH2 0x190C PUSH0 NOT DUP5 PUSH1 0x8 MUL PUSH2 0x18F1 JUMP JUMPDEST NOT DUP1 DUP4 AND SWAP2 POP POP SWAP3 SWAP2 POP POP JUMP JUMPDEST PUSH0 PUSH2 0x1924 DUP4 DUP4 PUSH2 0x18FD JUMP JUMPDEST SWAP2 POP DUP3 PUSH1 0x2 MUL DUP3 OR SWAP1 POP SWAP3 SWAP2 POP POP JUMP JUMPDEST PUSH2 0x193D DUP3 PUSH2 0xED9 JUMP JUMPDEST PUSH8 0xFFFFFFFFFFFFFFFF DUP2 GT ISZERO PUSH2 0x1956 JUMPI PUSH2 0x1955 PUSH2 0x1104 JUMP JUMPDEST JUMPDEST PUSH2 0x1960 DUP3 SLOAD PUSH2 0x1456 JUMP JUMPDEST PUSH2 0x196B DUP3 DUP3 DUP6 PUSH2 0x18AB JUMP JUMPDEST PUSH0 PUSH1 0x20 SWAP1 POP PUSH1 0x1F DUP4 GT PUSH1 0x1 DUP2 EQ PUSH2 0x199C JUMPI PUSH0 DUP5 ISZERO PUSH2 0x198A JUMPI DUP3 DUP8 ADD MLOAD SWAP1 POP JUMPDEST PUSH2 0x1994 DUP6 DUP3 PUSH2 0x1919 JUMP JUMPDEST DUP7 SSTORE POP PUSH2 0x19FB JUMP JUMPDEST PUSH1 0x1F NOT DUP5 AND PUSH2 0x19AA DUP7 PUSH2 0x1797 JUMP JUMPDEST PUSH0 JUMPDEST DUP3 DUP2 LT ISZERO PUSH2 0x19D1 JUMPI DUP5 DUP10 ADD MLOAD DUP3 SSTORE PUSH1 0x1 DUP3 ADD SWAP2 POP PUSH1 0x20 DUP6 ADD SWAP5 POP PUSH1 0x20 DUP2 ADD SWAP1 POP PUSH2 0x19AC JUMP JUMPDEST DUP7 DUP4 LT ISZERO PUSH2 0x19EE JUMPI DUP5 DUP10 ADD MLOAD PUSH2 0x19EA PUSH1 0x1F DUP10 AND DUP3 PUSH2 0x18FD JUMP JUMPDEST DUP4 SSTORE POP JUMPDEST PUSH1 0x1 PUSH1 0x2 DUP9 MUL ADD DUP9 SSTORE POP POP POP JUMPDEST POP POP POP POP POP POP JUMP JUMPDEST PUSH32 0x4E487B7100000000000000000000000000000000000000000000000000000000 PUSH0 MSTORE PUSH1 0x12 PUSH1 0x4 MSTORE PUSH1 0x24 PUSH0 REVERT INVALID LOG2 PUSH5 0x6970667358 0x22 SLT KECCAK256 0x2B BLOBBASEFEE PUSH3 0xD26C41 DUP3 RETURNDATACOPY 0xB6 ORIGIN 0xBA STOP CALLER 0x4F OR 0xAF CODESIZE PUSH6 0x8D7F6C9B33ED 0xB0 PUSH4 0x9B42CC85 0x4E DUP12 PUSH5 0x736F6C6343 STOP ADDMOD BYTE STOP CALLER "
				},
				"gasEstimates": {
					"creation": {
						"codeDepositCost": "1351600",
						"executionCost": "49939",
						"totalCost": "1401539"
					},
					"external": {
						"TWEET_MAX_LENGTH()": "2551",
						"changeTweetLength(uint16)": "26909",
						"createTweet(string)": "infinite",
						"getALLTweets(address)": "infinite",
						"getTweet(address,uint256)": "infinite",
						"likeTweet(address,uint256)": "infinite",
						"owner()": "2574",
						"tweets(address,uint256)": "infinite",
						"unlikeTweet(address,uint256)": "infinite"
					}
				},
				"methodIdentifiers": {
					"TWEET_MAX_LENGTH()": "fd10b7df",
					"changeTweetLength(uint16)": "58bfa4ab",
					"createTweet(string)": "7c9cd2bc",
					"getALLTweets(address)": "808b0cf1",
					"getTweet(address,uint256)": "112f54e3",
					"likeTweet(address,uint256)": "63378216",
					"owner()": "8da5cb5b",
					"tweets(address,uint256)": "05a1b4a9",
					"unlikeTweet(address,uint256)": "3d9b569f"
				}
			},
			"storageLayout": {
				"storage": [
					{
						"astId": 16,
						"contract": "contracts/Twitter.sol:Twitter",
						"label": "TWEET_MAX_LENGTH",
						"offset": 0,
						"slot": "0",
						"type": "t_uint16"
					},
					{
						"astId": 22,
						"contract": "contracts/Twitter.sol:Twitter",
						"label": "tweets",
						"offset": 0,
						"slot": "1",
						"type": "t_mapping(t_address,t_array(t_struct(Tweet)13_storage)dyn_storage)"
					},
					{
						"astId": 24,
						"contract": "contracts/Twitter.sol:Twitter",
						"label": "owner",
						"offset": 0,
						"slot": "2",
						"type": "t_address"
					}
				],
				"types": {
					"t_address": {
						"encoding": "inplace",
						"label": "address",
						"numberOfBytes": "20"
					},
					"t_array(t_struct(Tweet)13_storage)dyn_storage": {
						"base": "t_struct(Tweet)13_storage",
						"encoding": "dynamic_array",
						"label": "struct Twitter.Tweet[]",
						"numberOfBytes": "32"
					},
					"t_mapping(t_address,t_array(t_struct(Tweet)13_storage)dyn_storage)": {
						"encoding": "mapping",
						"key": "t_address",
						"label": "mapping(address => struct Twitter.Tweet[])",
						"numberOfBytes": "32",
						"value": "t_array(t_struct(Tweet)13_storage)dyn_storage"
					},
					"t_string_storage": {
						"encoding": "bytes",
						"label": "string",
						"numberOfBytes": "32"
					},
					"t_struct(Tweet)13_storage": {
						"encoding": "inplace",
						"label": "struct Twitter.Tweet",
						"members": [
							{
								"astId": 4,
								"contract": "contracts/Twitter.sol:Twitter",
								"label": "id",
								"offset": 0,
								"slot": "0",
								"type": "t_uint256"
							},
							{
								"astId": 6,
								"contract": "contracts/Twitter.sol:Twitter",
								"label": "author",
								"offset": 0,
								"slot": "1",
								"type": "t_address"
							},
							{
								"astId": 8,
								"contract": "contracts/Twitter.sol:Twitter",
								"label": "content",
								"offset": 0,
								"slot": "2",
								"type": "t_string_storage"
							},
							{
								"astId": 10,
								"contract": "contracts/Twitter.sol:Twitter",
								"label": "timestamp",
								"offset": 0,
								"slot": "3",
								"type": "t_uint256"
							},
							{
								"astId": 12,
								"contract": "contracts/Twitter.sol:Twitter",
								"label": "likes",
								"offset": 0,
								"slot": "4",
								"type": "t_uint256"
							}
						],
						"numberOfBytes": "160"
					},
					"t_uint16": {
						"encoding": "inplace",
						"label": "uint16",
						"numberOfBytes": "2"
					},
					"t_uint256": {
						"encoding": "inplace",
						"label": "uint256",
						"numberOfBytes": "32"
					}
				}
			},
			"userdoc": {
				"kind": "user",
				"methods": {},
				"version": 1
			}
		}
	}
}