{
	"contracts/Twitter.sol": {
		"Twitter": {
			"abi": [
				{
					"inputs": [
						{
							"internalType": "address",
							"name": "_profileContract",
							"type": "address"
						}
					],
					"stateMutability": "nonpayable",
					"type": "constructor"
				},
				{
					"inputs": [
						{
							"internalType": "address",
							"name": "owner",
							"type": "address"
						}
					],
					"name": "OwnableInvalidOwner",
					"type": "error"
				},
				{
					"inputs": [
						{
							"internalType": "address",
							"name": "account",
							"type": "address"
						}
					],
					"name": "OwnableUnauthorizedAccount",
					"type": "error"
				},
				{
					"anonymous": false,
					"inputs": [
						{
							"indexed": true,
							"internalType": "address",
							"name": "previousOwner",
							"type": "address"
						},
						{
							"indexed": true,
							"internalType": "address",
							"name": "newOwner",
							"type": "address"
						}
					],
					"name": "OwnershipTransferred",
					"type": "event"
				},
				{
					"anonymous": false,
					"inputs": [
						{
							"indexed": false,
							"internalType": "uint256",
							"name": "id",
							"type": "uint256"
						},
						{
							"indexed": false,
							"internalType": "address",
							"name": "author",
							"type": "address"
						},
						{
							"indexed": false,
							"internalType": "string",
							"name": "content",
							"type": "string"
						},
						{
							"indexed": false,
							"internalType": "uint256",
							"name": "timestamp",
							"type": "uint256"
						}
					],
					"name": "TweetCreated",
					"type": "event"
				},
				{
					"anonymous": false,
					"inputs": [
						{
							"indexed": false,
							"internalType": "address",
							"name": "liker",
							"type": "address"
						},
						{
							"indexed": false,
							"internalType": "address",
							"name": "tweetAuthor",
							"type": "address"
						},
						{
							"indexed": false,
							"internalType": "uint256",
							"name": "tweetId",
							"type": "uint256"
						},
						{
							"indexed": false,
							"internalType": "uint256",
							"name": "newLikeCount",
							"type": "uint256"
						}
					],
					"name": "TweetLiked",
					"type": "event"
				},
				{
					"anonymous": false,
					"inputs": [
						{
							"indexed": false,
							"internalType": "address",
							"name": "unliker",
							"type": "address"
						},
						{
							"indexed": false,
							"internalType": "address",
							"name": "tweetAuthor",
							"type": "address"
						},
						{
							"indexed": false,
							"internalType": "uint256",
							"name": "tweetId",
							"type": "uint256"
						},
						{
							"indexed": false,
							"internalType": "uint256",
							"name": "newLikeCount",
							"type": "uint256"
						}
					],
					"name": "TweetUnliked",
					"type": "event"
				},
				{
					"inputs": [],
					"name": "TWEET_MAX_LENGTH",
					"outputs": [
						{
							"internalType": "uint16",
							"name": "",
							"type": "uint16"
						}
					],
					"stateMutability": "view",
					"type": "function"
				},
				{
					"inputs": [
						{
							"internalType": "uint16",
							"name": "newTweetLength",
							"type": "uint16"
						}
					],
					"name": "changeTweetLength",
					"outputs": [],
					"stateMutability": "nonpayable",
					"type": "function"
				},
				{
					"inputs": [
						{
							"internalType": "string",
							"name": "_tweet",
							"type": "string"
						}
					],
					"name": "createTweet",
					"outputs": [],
					"stateMutability": "nonpayable",
					"type": "function"
				},
				{
					"inputs": [
						{
							"internalType": "address",
							"name": "_owner",
							"type": "address"
						}
					],
					"name": "getALLTweets",
					"outputs": [
						{
							"components": [
								{
									"internalType": "uint256",
									"name": "id",
									"type": "uint256"
								},
								{
									"internalType": "address",
									"name": "author",
									"type": "address"
								},
								{
									"internalType": "string",
									"name": "content",
									"type": "string"
								},
								{
									"internalType": "uint256",
									"name": "timestamp",
									"type": "uint256"
								},
								{
									"internalType": "uint256",
									"name": "likes",
									"type": "uint256"
								}
							],
							"internalType": "struct Twitter.Tweet[]",
							"name": "",
							"type": "tuple[]"
						}
					],
					"stateMutability": "view",
					"type": "function"
				},
				{
					"inputs": [
						{
							"internalType": "address",
							"name": "_author",
							"type": "address"
						}
					],
					"name": "getTotalLikes",
					"outputs": [
						{
							"internalType": "uint256",
							"name": "",
							"type": "uint256"
						}
					],
					"stateMutability": "view",
					"type": "function"
				},
				{
					"inputs": [
						{
							"internalType": "address",
							"name": "_owner",
							"type": "address"
						},
						{
							"internalType": "uint256",
							"name": "_i",
							"type": "uint256"
						}
					],
					"name": "getTweet",
					"outputs": [
						{
							"components": [
								{
									"internalType": "uint256",
									"name": "id",
									"type": "uint256"
								},
								{
									"internalType": "address",
									"name": "author",
									"type": "address"
								},
								{
									"internalType": "string",
									"name": "content",
									"type": "string"
								},
								{
									"internalType": "uint256",
									"name": "timestamp",
									"type": "uint256"
								},
								{
									"internalType": "uint256",
									"name": "likes",
									"type": "uint256"
								}
							],
							"internalType": "struct Twitter.Tweet",
							"name": "",
							"type": "tuple"
						}
					],
					"stateMutability": "view",
					"type": "function"
				},
				{
					"inputs": [
						{
							"internalType": "address",
							"name": "_author",
							"type": "address"
						},
						{
							"internalType": "uint256",
							"name": "_id",
							"type": "uint256"
						}
					],
					"name": "likeTweet",
					"outputs": [],
					"stateMutability": "nonpayable",
					"type": "function"
				},
				{
					"inputs": [],
					"name": "owner",
					"outputs": [
						{
							"internalType": "address",
							"name": "",
							"type": "address"
						}
					],
					"stateMutability": "view",
					"type": "function"
				},
				{
					"inputs": [],
					"name": "renounceOwnership",
					"outputs": [],
					"stateMutability": "nonpayable",
					"type": "function"
				},
				{
					"inputs": [
						{
							"internalType": "address",
							"name": "newOwner",
							"type": "address"
						}
					],
					"name": "transferOwnership",
					"outputs": [],
					"stateMutability": "nonpayable",
					"type": "function"
				},
				{
					"inputs": [
						{
							"internalType": "address",
							"name": "",
							"type": "address"
						},
						{
							"internalType": "uint256",
							"name": "",
							"type": "uint256"
						}
					],
					"name": "tweets",
					"outputs": [
						{
							"internalType": "uint256",
							"name": "id",
							"type": "uint256"
						},
						{
							"internalType": "address",
							"name": "author",
							"type": "address"
						},
						{
							"internalType": "string",
							"name": "content",
							"type": "string"
						},
						{
							"internalType": "uint256",
							"name": "timestamp",
							"type": "uint256"
						},
						{
							"internalType": "uint256",
							"name": "likes",
							"type": "uint256"
						}
					],
					"stateMutability": "view",
					"type": "function"
				},
				{
					"inputs": [
						{
							"internalType": "address",
							"name": "_author",
							"type": "address"
						},
						{
							"internalType": "uint256",
							"name": "_id",
							"type": "uint256"
						}
					],
					"name": "unlikeTweet",
					"outputs": [],
					"stateMutability": "nonpayable",
					"type": "function"
				}
			],
			"devdoc": {
				"errors": {
					"OwnableInvalidOwner(address)": [
						{
							"details": "The owner is not a valid owner account. (eg. `address(0)`)"
						}
					],
					"OwnableUnauthorizedAccount(address)": [
						{
							"details": "The caller account is not authorized to perform an operation."
						}
					]
				},
				"kind": "dev",
				"methods": {
					"owner()": {
						"details": "Returns the address of the current owner."
					},
					"renounceOwnership()": {
						"details": "Leaves the contract without owner. It will not be possible to call `onlyOwner` functions. Can only be called by the current owner. NOTE: Renouncing ownership will leave the contract without an owner, thereby disabling any functionality that is only available to the owner."
					},
					"transferOwnership(address)": {
						"details": "Transfers ownership of the contract to a new account (`newOwner`). Can only be called by the current owner."
					}
				},
				"version": 1
			},
			"evm": {
				"assembly": "    /* \"contracts/Twitter.sol\":358:3318  contract Twitter is Ownable{... */\n  mstore(0x40, 0x80)\n    /* \"contracts/Twitter.sol\":567:570  280 */\n  0x0118\n    /* \"contracts/Twitter.sol\":534:570  uint16 public TWEET_MAX_LENGTH = 280 */\n  0x00\n  exp(0x0100, 0x14)\n  dup2\n  sload\n  dup2\n  0xffff\n  mul\n  not\n  and\n  swap1\n  dup4\n  0xffff\n  and\n  mul\n  or\n  swap1\n  sstore\n  pop\n    /* \"contracts/Twitter.sol\":1312:1431  constructor(address _profileContract) Ownable(msg.sender){... */\n  callvalue\n  dup1\n  iszero\n  tag_1\n  jumpi\n  0x00\n  dup1\n  revert\ntag_1:\n  pop\n  mload(0x40)\n  sub(codesize, bytecodeSize)\n  dup1\n  bytecodeSize\n  dup4\n  codecopy\n  dup2\n  dup2\n  add\n  0x40\n  mstore\n  dup2\n  add\n  swap1\n  tag_2\n  swap2\n  swap1\n  tag_3\n  jump\t// in\ntag_2:\n    /* \"contracts/Twitter.sol\":1358:1368  msg.sender */\n  caller\n    /* \"@openzeppelin/contracts/access/Ownable.sol\":1297:1298  0 */\n  0x00\n    /* \"@openzeppelin/contracts/access/Ownable.sol\":1273:1299  initialOwner == address(0) */\n  0xffffffffffffffffffffffffffffffffffffffff\n  and\n    /* \"@openzeppelin/contracts/access/Ownable.sol\":1273:1285  initialOwner */\n  dup2\n    /* \"@openzeppelin/contracts/access/Ownable.sol\":1273:1299  initialOwner == address(0) */\n  0xffffffffffffffffffffffffffffffffffffffff\n  and\n  sub\n    /* \"@openzeppelin/contracts/access/Ownable.sol\":1269:1364  if (initialOwner == address(0)) {... */\n  tag_7\n  jumpi\n    /* \"@openzeppelin/contracts/access/Ownable.sol\":1350:1351  0 */\n  0x00\n    /* \"@openzeppelin/contracts/access/Ownable.sol\":1322:1353  OwnableInvalidOwner(address(0)) */\n  mload(0x40)\n  0x1e4fbdf700000000000000000000000000000000000000000000000000000000\n  dup2\n  mstore\n  0x04\n  add\n  tag_8\n  swap2\n  swap1\n  tag_9\n  jump\t// in\ntag_8:\n  mload(0x40)\n  dup1\n  swap2\n  sub\n  swap1\n  revert\n    /* \"@openzeppelin/contracts/access/Ownable.sol\":1269:1364  if (initialOwner == address(0)) {... */\ntag_7:\n    /* \"@openzeppelin/contracts/access/Ownable.sol\":1373:1405  _transferOwnership(initialOwner) */\n  tag_10\n    /* \"@openzeppelin/contracts/access/Ownable.sol\":1392:1404  initialOwner */\n  dup2\n    /* \"@openzeppelin/contracts/access/Ownable.sol\":1373:1391  _transferOwnership */\n  shl(0x20, tag_11)\n    /* \"@openzeppelin/contracts/access/Ownable.sol\":1373:1405  _transferOwnership(initialOwner) */\n  0x20\n  shr\n  jump\t// in\ntag_10:\n    /* \"@openzeppelin/contracts/access/Ownable.sol\":1225:1412  constructor(address initialOwner) {... */\n  pop\n    /* \"contracts/Twitter.sol\":1407:1423  _profileContract */\n  dup1\n    /* \"contracts/Twitter.sol\":1379:1394  profileContract */\n  0x02\n  0x00\n    /* \"contracts/Twitter.sol\":1379:1424  profileContract =  IProfile(_profileContract) */\n  0x0100\n  exp\n  dup2\n  sload\n  dup2\n  0xffffffffffffffffffffffffffffffffffffffff\n  mul\n  not\n  and\n  swap1\n  dup4\n  0xffffffffffffffffffffffffffffffffffffffff\n  and\n  mul\n  or\n  swap1\n  sstore\n  pop\n    /* \"contracts/Twitter.sol\":1312:1431  constructor(address _profileContract) Ownable(msg.sender){... */\n  pop\n    /* \"contracts/Twitter.sol\":358:3318  contract Twitter is Ownable{... */\n  jump(tag_13)\n    /* \"@openzeppelin/contracts/access/Ownable.sol\":2912:3099  function _transferOwnership(address newOwner) internal virtual {... */\ntag_11:\n    /* \"@openzeppelin/contracts/access/Ownable.sol\":2985:3001  address oldOwner */\n  0x00\n    /* \"@openzeppelin/contracts/access/Ownable.sol\":3004:3010  _owner */\n  dup1\n  0x00\n  swap1\n  sload\n  swap1\n  0x0100\n  exp\n  swap1\n  div\n  0xffffffffffffffffffffffffffffffffffffffff\n  and\n    /* \"@openzeppelin/contracts/access/Ownable.sol\":2985:3010  address oldOwner = _owner */\n  swap1\n  pop\n    /* \"@openzeppelin/contracts/access/Ownable.sol\":3029:3037  newOwner */\n  dup2\n    /* \"@openzeppelin/contracts/access/Ownable.sol\":3020:3026  _owner */\n  0x00\n  dup1\n    /* \"@openzeppelin/contracts/access/Ownable.sol\":3020:3037  _owner = newOwner */\n  0x0100\n  exp\n  dup2\n  sload\n  dup2\n  0xffffffffffffffffffffffffffffffffffffffff\n  mul\n  not\n  and\n  swap1\n  dup4\n  0xffffffffffffffffffffffffffffffffffffffff\n  and\n  mul\n  or\n  swap1\n  sstore\n  pop\n    /* \"@openzeppelin/contracts/access/Ownable.sol\":3083:3091  newOwner */\n  dup2\n    /* \"@openzeppelin/contracts/access/Ownable.sol\":3052:3092  OwnershipTransferred(oldOwner, newOwner) */\n  0xffffffffffffffffffffffffffffffffffffffff\n  and\n    /* \"@openzeppelin/contracts/access/Ownable.sol\":3073:3081  oldOwner */\n  dup2\n    /* \"@openzeppelin/contracts/access/Ownable.sol\":3052:3092  OwnershipTransferred(oldOwner, newOwner) */\n  0xffffffffffffffffffffffffffffffffffffffff\n  and\n  0x8be0079c531659141344cd1fd0a4f28419497f9722a3daafe3b4186f6b6457e0\n  mload(0x40)\n  mload(0x40)\n  dup1\n  swap2\n  sub\n  swap1\n  log3\n    /* \"@openzeppelin/contracts/access/Ownable.sol\":2975:3099  {... */\n  pop\n    /* \"@openzeppelin/contracts/access/Ownable.sol\":2912:3099  function _transferOwnership(address newOwner) internal virtual {... */\n  pop\n  jump\t// out\n    /* \"#utility.yul\":88:205   */\ntag_16:\n    /* \"#utility.yul\":197:198   */\n  0x00\n    /* \"#utility.yul\":194:195   */\n  dup1\n    /* \"#utility.yul\":187:199   */\n  revert\n    /* \"#utility.yul\":334:460   */\ntag_18:\n    /* \"#utility.yul\":371:378   */\n  0x00\n    /* \"#utility.yul\":411:453   */\n  0xffffffffffffffffffffffffffffffffffffffff\n    /* \"#utility.yul\":404:409   */\n  dup3\n    /* \"#utility.yul\":400:454   */\n  and\n    /* \"#utility.yul\":389:454   */\n  swap1\n  pop\n    /* \"#utility.yul\":334:460   */\n  swap2\n  swap1\n  pop\n  jump\t// out\n    /* \"#utility.yul\":466:562   */\ntag_19:\n    /* \"#utility.yul\":503:510   */\n  0x00\n    /* \"#utility.yul\":532:556   */\n  tag_29\n    /* \"#utility.yul\":550:555   */\n  dup3\n    /* \"#utility.yul\":532:556   */\n  tag_18\n  jump\t// in\ntag_29:\n    /* \"#utility.yul\":521:556   */\n  swap1\n  pop\n    /* \"#utility.yul\":466:562   */\n  swap2\n  swap1\n  pop\n  jump\t// out\n    /* \"#utility.yul\":568:690   */\ntag_20:\n    /* \"#utility.yul\":641:665   */\n  tag_31\n    /* \"#utility.yul\":659:664   */\n  dup2\n    /* \"#utility.yul\":641:665   */\n  tag_19\n  jump\t// in\ntag_31:\n    /* \"#utility.yul\":634:639   */\n  dup2\n    /* \"#utility.yul\":631:666   */\n  eq\n    /* \"#utility.yul\":621:684   */\n  tag_32\n  jumpi\n    /* \"#utility.yul\":680:681   */\n  0x00\n    /* \"#utility.yul\":677:678   */\n  dup1\n    /* \"#utility.yul\":670:682   */\n  revert\n    /* \"#utility.yul\":621:684   */\ntag_32:\n    /* \"#utility.yul\":568:690   */\n  pop\n  jump\t// out\n    /* \"#utility.yul\":696:839   */\ntag_21:\n    /* \"#utility.yul\":753:758   */\n  0x00\n    /* \"#utility.yul\":784:790   */\n  dup2\n    /* \"#utility.yul\":778:791   */\n  mload\n    /* \"#utility.yul\":769:791   */\n  swap1\n  pop\n    /* \"#utility.yul\":800:833   */\n  tag_34\n    /* \"#utility.yul\":827:832   */\n  dup2\n    /* \"#utility.yul\":800:833   */\n  tag_20\n  jump\t// in\ntag_34:\n    /* \"#utility.yul\":696:839   */\n  swap3\n  swap2\n  pop\n  pop\n  jump\t// out\n    /* \"#utility.yul\":845:1196   */\ntag_3:\n    /* \"#utility.yul\":915:921   */\n  0x00\n    /* \"#utility.yul\":964:966   */\n  0x20\n    /* \"#utility.yul\":952:961   */\n  dup3\n    /* \"#utility.yul\":943:950   */\n  dup5\n    /* \"#utility.yul\":939:962   */\n  sub\n    /* \"#utility.yul\":935:967   */\n  slt\n    /* \"#utility.yul\":932:1051   */\n  iszero\n  tag_36\n  jumpi\n    /* \"#utility.yul\":970:1049   */\n  tag_37\n  tag_16\n  jump\t// in\ntag_37:\n    /* \"#utility.yul\":932:1051   */\ntag_36:\n    /* \"#utility.yul\":1090:1091   */\n  0x00\n    /* \"#utility.yul\":1115:1179   */\n  tag_38\n    /* \"#utility.yul\":1171:1178   */\n  dup5\n    /* \"#utility.yul\":1162:1168   */\n  dup3\n    /* \"#utility.yul\":1151:1160   */\n  dup6\n    /* \"#utility.yul\":1147:1169   */\n  add\n    /* \"#utility.yul\":1115:1179   */\n  tag_21\n  jump\t// in\ntag_38:\n    /* \"#utility.yul\":1105:1179   */\n  swap2\n  pop\n    /* \"#utility.yul\":1061:1189   */\n  pop\n    /* \"#utility.yul\":845:1196   */\n  swap3\n  swap2\n  pop\n  pop\n  jump\t// out\n    /* \"#utility.yul\":1202:1320   */\ntag_22:\n    /* \"#utility.yul\":1289:1313   */\n  tag_40\n    /* \"#utility.yul\":1307:1312   */\n  dup2\n    /* \"#utility.yul\":1289:1313   */\n  tag_19\n  jump\t// in\ntag_40:\n    /* \"#utility.yul\":1284:1287   */\n  dup3\n    /* \"#utility.yul\":1277:1314   */\n  mstore\n    /* \"#utility.yul\":1202:1320   */\n  pop\n  pop\n  jump\t// out\n    /* \"#utility.yul\":1326:1548   */\ntag_9:\n    /* \"#utility.yul\":1419:1423   */\n  0x00\n    /* \"#utility.yul\":1457:1459   */\n  0x20\n    /* \"#utility.yul\":1446:1455   */\n  dup3\n    /* \"#utility.yul\":1442:1460   */\n  add\n    /* \"#utility.yul\":1434:1460   */\n  swap1\n  pop\n    /* \"#utility.yul\":1470:1541   */\n  tag_42\n    /* \"#utility.yul\":1538:1539   */\n  0x00\n    /* \"#utility.yul\":1527:1536   */\n  dup4\n    /* \"#utility.yul\":1523:1540   */\n  add\n    /* \"#utility.yul\":1514:1520   */\n  dup5\n    /* \"#utility.yul\":1470:1541   */\n  tag_22\n  jump\t// in\ntag_42:\n    /* \"#utility.yul\":1326:1548   */\n  swap3\n  swap2\n  pop\n  pop\n  jump\t// out\n    /* \"contracts/Twitter.sol\":358:3318  contract Twitter is Ownable{... */\ntag_13:\n  dataSize(sub_0)\n  dup1\n  dataOffset(sub_0)\n  0x00\n  codecopy\n  0x00\n  return\nstop\n\nsub_0: assembly {\n        /* \"contracts/Twitter.sol\":358:3318  contract Twitter is Ownable{... */\n      mstore(0x40, 0x80)\n      callvalue\n      dup1\n      iszero\n      tag_1\n      jumpi\n      0x00\n      dup1\n      revert\n    tag_1:\n      pop\n      jumpi(tag_2, lt(calldatasize, 0x04))\n      shr(0xe0, calldataload(0x00))\n      dup1\n      0x7c9cd2bc\n      gt\n      tag_15\n      jumpi\n      dup1\n      0x7c9cd2bc\n      eq\n      tag_9\n      jumpi\n      dup1\n      0x808b0cf1\n      eq\n      tag_10\n      jumpi\n      dup1\n      0x820785cc\n      eq\n      tag_11\n      jumpi\n      dup1\n      0x8da5cb5b\n      eq\n      tag_12\n      jumpi\n      dup1\n      0xf2fde38b\n      eq\n      tag_13\n      jumpi\n      dup1\n      0xfd10b7df\n      eq\n      tag_14\n      jumpi\n      jump(tag_2)\n    tag_15:\n      dup1\n      0x05a1b4a9\n      eq\n      tag_3\n      jumpi\n      dup1\n      0x112f54e3\n      eq\n      tag_4\n      jumpi\n      dup1\n      0x3d9b569f\n      eq\n      tag_5\n      jumpi\n      dup1\n      0x58bfa4ab\n      eq\n      tag_6\n      jumpi\n      dup1\n      0x63378216\n      eq\n      tag_7\n      jumpi\n      dup1\n      0x715018a6\n      eq\n      tag_8\n      jumpi\n    tag_2:\n      0x00\n      dup1\n      revert\n        /* \"contracts/Twitter.sol\":576:618  mapping (address => Tweet[]) public tweets */\n    tag_3:\n      tag_16\n      0x04\n      dup1\n      calldatasize\n      sub\n      dup2\n      add\n      swap1\n      tag_17\n      swap2\n      swap1\n      tag_18\n      jump\t// in\n    tag_17:\n      tag_19\n      jump\t// in\n    tag_16:\n      mload(0x40)\n      tag_20\n      swap6\n      swap5\n      swap4\n      swap3\n      swap2\n      swap1\n      tag_21\n      jump\t// in\n    tag_20:\n      mload(0x40)\n      dup1\n      swap2\n      sub\n      swap1\n      return\n        /* \"contracts/Twitter.sol\":2286:2409  function getTweet(address _owner, uint256 _i) public view returns (Tweet memory) {... */\n    tag_4:\n      tag_22\n      0x04\n      dup1\n      calldatasize\n      sub\n      dup2\n      add\n      swap1\n      tag_23\n      swap2\n      swap1\n      tag_18\n      jump\t// in\n    tag_23:\n      tag_24\n      jump\t// in\n    tag_22:\n      mload(0x40)\n      tag_25\n      swap2\n      swap1\n      tag_26\n      jump\t// in\n    tag_25:\n      mload(0x40)\n      dup1\n      swap2\n      sub\n      swap1\n      return\n        /* \"contracts/Twitter.sol\":2762:3060  function unlikeTweet(address _author, uint256 _id) external tweetExists(_author, _id) onlyRegistered{... */\n    tag_5:\n      tag_27\n      0x04\n      dup1\n      calldatasize\n      sub\n      dup2\n      add\n      swap1\n      tag_28\n      swap2\n      swap1\n      tag_18\n      jump\t// in\n    tag_28:\n      tag_29\n      jump\t// in\n    tag_27:\n      stop\n        /* \"contracts/Twitter.sol\":1437:1554  function changeTweetLength(uint16 newTweetLength) public onlyOwner {... */\n    tag_6:\n      tag_30\n      0x04\n      dup1\n      calldatasize\n      sub\n      dup2\n      add\n      swap1\n      tag_31\n      swap2\n      swap1\n      tag_32\n      jump\t// in\n    tag_31:\n      tag_33\n      jump\t// in\n    tag_30:\n      stop\n        /* \"contracts/Twitter.sol\":2534:2756  function likeTweet(address _author, uint256 _id) external tweetExists(_author, _id) onlyRegistered{... */\n    tag_7:\n      tag_34\n      0x04\n      dup1\n      calldatasize\n      sub\n      dup2\n      add\n      swap1\n      tag_35\n      swap2\n      swap1\n      tag_18\n      jump\t// in\n    tag_35:\n      tag_36\n      jump\t// in\n    tag_34:\n      stop\n        /* \"@openzeppelin/contracts/access/Ownable.sol\":2293:2394  function renounceOwnership() public virtual onlyOwner {... */\n    tag_8:\n      tag_37\n      tag_38\n      jump\t// in\n    tag_37:\n      stop\n        /* \"contracts/Twitter.sol\":1560:2280  function createTweet(string memory _tweet) public onlyRegistered{... */\n    tag_9:\n      tag_39\n      0x04\n      dup1\n      calldatasize\n      sub\n      dup2\n      add\n      swap1\n      tag_40\n      swap2\n      swap1\n      tag_41\n      jump\t// in\n    tag_40:\n      tag_42\n      jump\t// in\n    tag_39:\n      stop\n        /* \"contracts/Twitter.sol\":2415:2528  function getALLTweets(address _owner) public view returns (Tweet[] memory) {... */\n    tag_10:\n      tag_43\n      0x04\n      dup1\n      calldatasize\n      sub\n      dup2\n      add\n      swap1\n      tag_44\n      swap2\n      swap1\n      tag_45\n      jump\t// in\n    tag_44:\n      tag_46\n      jump\t// in\n    tag_43:\n      mload(0x40)\n      tag_47\n      swap2\n      swap1\n      tag_48\n      jump\t// in\n    tag_47:\n      mload(0x40)\n      dup1\n      swap2\n      sub\n      swap1\n      return\n        /* \"contracts/Twitter.sol\":3066:3316  function getTotalLikes(address _author) external view returns (uint) {... */\n    tag_11:\n      tag_49\n      0x04\n      dup1\n      calldatasize\n      sub\n      dup2\n      add\n      swap1\n      tag_50\n      swap2\n      swap1\n      tag_45\n      jump\t// in\n    tag_50:\n      tag_51\n      jump\t// in\n    tag_49:\n      mload(0x40)\n      tag_52\n      swap2\n      swap1\n      tag_53\n      jump\t// in\n    tag_52:\n      mload(0x40)\n      dup1\n      swap2\n      sub\n      swap1\n      return\n        /* \"@openzeppelin/contracts/access/Ownable.sol\":1638:1723  function owner() public view virtual returns (address) {... */\n    tag_12:\n      tag_54\n      tag_55\n      jump\t// in\n    tag_54:\n      mload(0x40)\n      tag_56\n      swap2\n      swap1\n      tag_57\n      jump\t// in\n    tag_56:\n      mload(0x40)\n      dup1\n      swap2\n      sub\n      swap1\n      return\n        /* \"@openzeppelin/contracts/access/Ownable.sol\":2543:2758  function transferOwnership(address newOwner) public virtual onlyOwner {... */\n    tag_13:\n      tag_58\n      0x04\n      dup1\n      calldatasize\n      sub\n      dup2\n      add\n      swap1\n      tag_59\n      swap2\n      swap1\n      tag_45\n      jump\t// in\n    tag_59:\n      tag_60\n      jump\t// in\n    tag_58:\n      stop\n        /* \"contracts/Twitter.sol\":534:570  uint16 public TWEET_MAX_LENGTH = 280 */\n    tag_14:\n      tag_61\n      tag_62\n      jump\t// in\n    tag_61:\n      mload(0x40)\n      tag_63\n      swap2\n      swap1\n      tag_64\n      jump\t// in\n    tag_63:\n      mload(0x40)\n      dup1\n      swap2\n      sub\n      swap1\n      return\n        /* \"contracts/Twitter.sol\":576:618  mapping (address => Tweet[]) public tweets */\n    tag_19:\n      mstore(0x20, 0x01)\n      dup2\n      0x00\n      mstore\n      keccak256(0x00, 0x40)\n      dup2\n      dup2\n      sload\n      dup2\n      lt\n      tag_65\n      jumpi\n      0x00\n      dup1\n      revert\n    tag_65:\n      swap1\n      0x00\n      mstore\n      keccak256(0x00, 0x20)\n      swap1\n      0x05\n      mul\n      add\n      0x00\n      swap2\n      pop\n      swap2\n      pop\n      pop\n      dup1\n      0x00\n      add\n      sload\n      swap1\n      dup1\n      0x01\n      add\n      0x00\n      swap1\n      sload\n      swap1\n      0x0100\n      exp\n      swap1\n      div\n      0xffffffffffffffffffffffffffffffffffffffff\n      and\n      swap1\n      dup1\n      0x02\n      add\n      dup1\n      sload\n      tag_67\n      swap1\n      tag_68\n      jump\t// in\n    tag_67:\n      dup1\n      0x1f\n      add\n      0x20\n      dup1\n      swap2\n      div\n      mul\n      0x20\n      add\n      mload(0x40)\n      swap1\n      dup2\n      add\n      0x40\n      mstore\n      dup1\n      swap3\n      swap2\n      swap1\n      dup2\n      dup2\n      mstore\n      0x20\n      add\n      dup3\n      dup1\n      sload\n      tag_69\n      swap1\n      tag_68\n      jump\t// in\n    tag_69:\n      dup1\n      iszero\n      tag_70\n      jumpi\n      dup1\n      0x1f\n      lt\n      tag_71\n      jumpi\n      0x0100\n      dup1\n      dup4\n      sload\n      div\n      mul\n      dup4\n      mstore\n      swap2\n      0x20\n      add\n      swap2\n      jump(tag_70)\n    tag_71:\n      dup3\n      add\n      swap2\n      swap1\n      0x00\n      mstore\n      keccak256(0x00, 0x20)\n      swap1\n    tag_72:\n      dup2\n      sload\n      dup2\n      mstore\n      swap1\n      0x01\n      add\n      swap1\n      0x20\n      add\n      dup1\n      dup4\n      gt\n      tag_72\n      jumpi\n      dup3\n      swap1\n      sub\n      0x1f\n      and\n      dup3\n      add\n      swap2\n    tag_70:\n      pop\n      pop\n      pop\n      pop\n      pop\n      swap1\n      dup1\n      0x03\n      add\n      sload\n      swap1\n      dup1\n      0x04\n      add\n      sload\n      swap1\n      pop\n      dup6\n      jump\t// out\n        /* \"contracts/Twitter.sol\":2286:2409  function getTweet(address _owner, uint256 _i) public view returns (Tweet memory) {... */\n    tag_24:\n        /* \"contracts/Twitter.sol\":2353:2365  Tweet memory */\n      tag_73\n      tag_74\n      jump\t// in\n    tag_73:\n        /* \"contracts/Twitter.sol\":2384:2390  tweets */\n      0x01\n        /* \"contracts/Twitter.sol\":2384:2398  tweets[_owner] */\n      0x00\n        /* \"contracts/Twitter.sol\":2391:2397  _owner */\n      dup5\n        /* \"contracts/Twitter.sol\":2384:2398  tweets[_owner] */\n      0xffffffffffffffffffffffffffffffffffffffff\n      and\n      0xffffffffffffffffffffffffffffffffffffffff\n      and\n      dup2\n      mstore\n      0x20\n      add\n      swap1\n      dup2\n      mstore\n      0x20\n      add\n      0x00\n      keccak256\n        /* \"contracts/Twitter.sol\":2399:2401  _i */\n      dup3\n        /* \"contracts/Twitter.sol\":2384:2402  tweets[_owner][_i] */\n      dup2\n      sload\n      dup2\n      lt\n      tag_76\n      jumpi\n      tag_77\n      tag_78\n      jump\t// in\n    tag_77:\n    tag_76:\n      swap1\n      0x00\n      mstore\n      keccak256(0x00, 0x20)\n      swap1\n      0x05\n      mul\n      add\n        /* \"contracts/Twitter.sol\":2377:2402  return tweets[_owner][_i] */\n      mload(0x40)\n      dup1\n      0xa0\n      add\n      0x40\n      mstore\n      swap1\n      dup2\n      0x00\n      dup3\n      add\n      sload\n      dup2\n      mstore\n      0x20\n      add\n      0x01\n      dup3\n      add\n      0x00\n      swap1\n      sload\n      swap1\n      0x0100\n      exp\n      swap1\n      div\n      0xffffffffffffffffffffffffffffffffffffffff\n      and\n      0xffffffffffffffffffffffffffffffffffffffff\n      and\n      0xffffffffffffffffffffffffffffffffffffffff\n      and\n      dup2\n      mstore\n      0x20\n      add\n      0x02\n      dup3\n      add\n      dup1\n      sload\n      tag_80\n      swap1\n      tag_68\n      jump\t// in\n    tag_80:\n      dup1\n      0x1f\n      add\n      0x20\n      dup1\n      swap2\n      div\n      mul\n      0x20\n      add\n      mload(0x40)\n      swap1\n      dup2\n      add\n      0x40\n      mstore\n      dup1\n      swap3\n      swap2\n      swap1\n      dup2\n      dup2\n      mstore\n      0x20\n      add\n      dup3\n      dup1\n      sload\n      tag_81\n      swap1\n      tag_68\n      jump\t// in\n    tag_81:\n      dup1\n      iszero\n      tag_82\n      jumpi\n      dup1\n      0x1f\n      lt\n      tag_83\n      jumpi\n      0x0100\n      dup1\n      dup4\n      sload\n      div\n      mul\n      dup4\n      mstore\n      swap2\n      0x20\n      add\n      swap2\n      jump(tag_82)\n    tag_83:\n      dup3\n      add\n      swap2\n      swap1\n      0x00\n      mstore\n      keccak256(0x00, 0x20)\n      swap1\n    tag_84:\n      dup2\n      sload\n      dup2\n      mstore\n      swap1\n      0x01\n      add\n      swap1\n      0x20\n      add\n      dup1\n      dup4\n      gt\n      tag_84\n      jumpi\n      dup3\n      swap1\n      sub\n      0x1f\n      and\n      dup3\n      add\n      swap2\n    tag_82:\n      pop\n      pop\n      pop\n      pop\n      pop\n      dup2\n      mstore\n      0x20\n      add\n      0x03\n      dup3\n      add\n      sload\n      dup2\n      mstore\n      0x20\n      add\n      0x04\n      dup3\n      add\n      sload\n      dup2\n      mstore\n      pop\n      pop\n      swap1\n      pop\n        /* \"contracts/Twitter.sol\":2286:2409  function getTweet(address _owner, uint256 _i) public view returns (Tweet memory) {... */\n      swap3\n      swap2\n      pop\n      pop\n      jump\t// out\n        /* \"contracts/Twitter.sol\":2762:3060  function unlikeTweet(address _author, uint256 _id) external tweetExists(_author, _id) onlyRegistered{... */\n    tag_29:\n        /* \"contracts/Twitter.sol\":2834:2841  _author */\n      dup2\n        /* \"contracts/Twitter.sol\":2843:2846  _id */\n      dup2\n        /* \"contracts/Twitter.sol\":1038:1041  _id */\n      dup1\n        /* \"contracts/Twitter.sol\":1011:1017  tweets */\n      0x01\n        /* \"contracts/Twitter.sol\":1011:1026  tweets[_author] */\n      0x00\n        /* \"contracts/Twitter.sol\":1018:1025  _author */\n      dup5\n        /* \"contracts/Twitter.sol\":1011:1026  tweets[_author] */\n      0xffffffffffffffffffffffffffffffffffffffff\n      and\n      0xffffffffffffffffffffffffffffffffffffffff\n      and\n      dup2\n      mstore\n      0x20\n      add\n      swap1\n      dup2\n      mstore\n      0x20\n      add\n      0x00\n      keccak256\n        /* \"contracts/Twitter.sol\":1027:1030  _id */\n      dup3\n        /* \"contracts/Twitter.sol\":1011:1031  tweets[_author][_id] */\n      dup2\n      sload\n      dup2\n      lt\n      tag_86\n      jumpi\n      tag_87\n      tag_78\n      jump\t// in\n    tag_87:\n    tag_86:\n      swap1\n      0x00\n      mstore\n      keccak256(0x00, 0x20)\n      swap1\n      0x05\n      mul\n      add\n        /* \"contracts/Twitter.sol\":1011:1034  tweets[_author][_id].id */\n      0x00\n      add\n      sload\n        /* \"contracts/Twitter.sol\":1011:1041  tweets[_author][_id].id == _id */\n      eq\n        /* \"contracts/Twitter.sol\":1003:1067  require(tweets[_author][_id].id == _id, \"Tweet does not exist!\") */\n      tag_89\n      jumpi\n      mload(0x40)\n      0x08c379a000000000000000000000000000000000000000000000000000000000\n      dup2\n      mstore\n      0x04\n      add\n      tag_90\n      swap1\n      tag_91\n      jump\t// in\n    tag_90:\n      mload(0x40)\n      dup1\n      swap2\n      sub\n      swap1\n      revert\n    tag_89:\n        /* \"contracts/Twitter.sol\":1126:1165  IProfile.UserProfile memory userProfile */\n      0x00\n        /* \"contracts/Twitter.sol\":1168:1183  profileContract */\n      0x02\n      0x00\n      swap1\n      sload\n      swap1\n      0x0100\n      exp\n      swap1\n      div\n      0xffffffffffffffffffffffffffffffffffffffff\n      and\n        /* \"contracts/Twitter.sol\":1168:1194  profileContract.getProfile */\n      0xffffffffffffffffffffffffffffffffffffffff\n      and\n      0x0f53a470\n        /* \"contracts/Twitter.sol\":1195:1205  msg.sender */\n      caller\n        /* \"contracts/Twitter.sol\":1168:1206  profileContract.getProfile(msg.sender) */\n      mload(0x40)\n      dup3\n      0xffffffff\n      and\n      0xe0\n      shl\n      dup2\n      mstore\n      0x04\n      add\n      tag_93\n      swap2\n      swap1\n      tag_57\n      jump\t// in\n    tag_93:\n      0x00\n      mload(0x40)\n      dup1\n      dup4\n      sub\n      dup2\n      dup7\n      gas\n      staticcall\n      iszero\n      dup1\n      iszero\n      tag_95\n      jumpi\n      returndatasize\n      0x00\n      dup1\n      returndatacopy\n      revert(0x00, returndatasize)\n    tag_95:\n      pop\n      pop\n      pop\n      pop\n      mload(0x40)\n      returndatasize\n      0x00\n      dup3\n      returndatacopy\n      returndatasize\n      not(0x1f)\n      0x1f\n      dup3\n      add\n      and\n      dup3\n      add\n      dup1\n      0x40\n      mstore\n      pop\n      dup2\n      add\n      swap1\n      tag_96\n      swap2\n      swap1\n      tag_97\n      jump\t// in\n    tag_96:\n        /* \"contracts/Twitter.sol\":1126:1206  IProfile.UserProfile memory userProfile = profileContract.getProfile(msg.sender) */\n      swap1\n      pop\n        /* \"contracts/Twitter.sol\":1263:1264  0 */\n      0x00\n        /* \"contracts/Twitter.sol\":1229:1240  userProfile */\n      dup2\n        /* \"contracts/Twitter.sol\":1229:1252  userProfile.displayName */\n      0x00\n      add\n      mload\n        /* \"contracts/Twitter.sol\":1223:1260  bytes(userProfile.displayName).length */\n      mload\n        /* \"contracts/Twitter.sol\":1223:1264  bytes(userProfile.displayName).length > 0 */\n      gt\n        /* \"contracts/Twitter.sol\":1215:1289  require(bytes(userProfile.displayName).length > 0 ,\"User not registered!\") */\n      tag_98\n      jumpi\n      mload(0x40)\n      0x08c379a000000000000000000000000000000000000000000000000000000000\n      dup2\n      mstore\n      0x04\n      add\n      tag_99\n      swap1\n      tag_100\n      jump\t// in\n    tag_99:\n      mload(0x40)\n      dup1\n      swap2\n      sub\n      swap1\n      revert\n    tag_98:\n        /* \"contracts/Twitter.sol\":2909:2910  0 */\n      0x00\n        /* \"contracts/Twitter.sol\":2880:2886  tweets */\n      0x01\n        /* \"contracts/Twitter.sol\":2880:2895  tweets[_author] */\n      0x00\n        /* \"contracts/Twitter.sol\":2887:2894  _author */\n      dup8\n        /* \"contracts/Twitter.sol\":2880:2895  tweets[_author] */\n      0xffffffffffffffffffffffffffffffffffffffff\n      and\n      0xffffffffffffffffffffffffffffffffffffffff\n      and\n      dup2\n      mstore\n      0x20\n      add\n      swap1\n      dup2\n      mstore\n      0x20\n      add\n      0x00\n      keccak256\n        /* \"contracts/Twitter.sol\":2896:2899  _id */\n      dup6\n        /* \"contracts/Twitter.sol\":2880:2900  tweets[_author][_id] */\n      dup2\n      sload\n      dup2\n      lt\n      tag_102\n      jumpi\n      tag_103\n      tag_78\n      jump\t// in\n    tag_103:\n    tag_102:\n      swap1\n      0x00\n      mstore\n      keccak256(0x00, 0x20)\n      swap1\n      0x05\n      mul\n      add\n        /* \"contracts/Twitter.sol\":2880:2906  tweets[_author][_id].likes */\n      0x04\n      add\n      sload\n        /* \"contracts/Twitter.sol\":2880:2910  tweets[_author][_id].likes > 0 */\n      gt\n        /* \"contracts/Twitter.sol\":2872:2934  require(tweets[_author][_id].likes > 0, \"Tweet has no likes!\") */\n      tag_105\n      jumpi\n      mload(0x40)\n      0x08c379a000000000000000000000000000000000000000000000000000000000\n      dup2\n      mstore\n      0x04\n      add\n      tag_106\n      swap1\n      tag_107\n      jump\t// in\n    tag_106:\n      mload(0x40)\n      dup1\n      swap2\n      sub\n      swap1\n      revert\n    tag_105:\n        /* \"contracts/Twitter.sol\":2944:2950  tweets */\n      0x01\n        /* \"contracts/Twitter.sol\":2944:2959  tweets[_author] */\n      0x00\n        /* \"contracts/Twitter.sol\":2951:2958  _author */\n      dup7\n        /* \"contracts/Twitter.sol\":2944:2959  tweets[_author] */\n      0xffffffffffffffffffffffffffffffffffffffff\n      and\n      0xffffffffffffffffffffffffffffffffffffffff\n      and\n      dup2\n      mstore\n      0x20\n      add\n      swap1\n      dup2\n      mstore\n      0x20\n      add\n      0x00\n      keccak256\n        /* \"contracts/Twitter.sol\":2960:2963  _id */\n      dup5\n        /* \"contracts/Twitter.sol\":2944:2964  tweets[_author][_id] */\n      dup2\n      sload\n      dup2\n      lt\n      tag_108\n      jumpi\n      tag_109\n      tag_78\n      jump\t// in\n    tag_109:\n    tag_108:\n      swap1\n      0x00\n      mstore\n      keccak256(0x00, 0x20)\n      swap1\n      0x05\n      mul\n      add\n        /* \"contracts/Twitter.sol\":2944:2970  tweets[_author][_id].likes */\n      0x04\n      add\n      0x00\n        /* \"contracts/Twitter.sol\":2944:2972  tweets[_author][_id].likes-- */\n      dup2\n      sload\n      dup1\n      swap3\n      swap2\n      swap1\n      tag_111\n      swap1\n      tag_112\n      jump\t// in\n    tag_111:\n      swap2\n      swap1\n      pop\n      sstore\n      pop\n        /* \"contracts/Twitter.sol\":2987:3053  TweetUnliked(msg.sender, _author, _id, tweets[_author][_id].likes) */\n      0x762c2616349603ac16eba0de8e6141b79129a07ab63bd99e0a80b3a471716943\n        /* \"contracts/Twitter.sol\":3000:3010  msg.sender */\n      caller\n        /* \"contracts/Twitter.sol\":3012:3019  _author */\n      dup7\n        /* \"contracts/Twitter.sol\":3021:3024  _id */\n      dup7\n        /* \"contracts/Twitter.sol\":3026:3032  tweets */\n      0x01\n        /* \"contracts/Twitter.sol\":3026:3041  tweets[_author] */\n      0x00\n        /* \"contracts/Twitter.sol\":3033:3040  _author */\n      dup11\n        /* \"contracts/Twitter.sol\":3026:3041  tweets[_author] */\n      0xffffffffffffffffffffffffffffffffffffffff\n      and\n      0xffffffffffffffffffffffffffffffffffffffff\n      and\n      dup2\n      mstore\n      0x20\n      add\n      swap1\n      dup2\n      mstore\n      0x20\n      add\n      0x00\n      keccak256\n        /* \"contracts/Twitter.sol\":3042:3045  _id */\n      dup9\n        /* \"contracts/Twitter.sol\":3026:3046  tweets[_author][_id] */\n      dup2\n      sload\n      dup2\n      lt\n      tag_113\n      jumpi\n      tag_114\n      tag_78\n      jump\t// in\n    tag_114:\n    tag_113:\n      swap1\n      0x00\n      mstore\n      keccak256(0x00, 0x20)\n      swap1\n      0x05\n      mul\n      add\n        /* \"contracts/Twitter.sol\":3026:3052  tweets[_author][_id].likes */\n      0x04\n      add\n      sload\n        /* \"contracts/Twitter.sol\":2987:3053  TweetUnliked(msg.sender, _author, _id, tweets[_author][_id].likes) */\n      mload(0x40)\n      tag_116\n      swap5\n      swap4\n      swap3\n      swap2\n      swap1\n      tag_117\n      jump\t// in\n    tag_116:\n      mload(0x40)\n      dup1\n      swap2\n      sub\n      swap1\n      log1\n        /* \"contracts/Twitter.sol\":1117:1306  {... */\n      pop\n        /* \"contracts/Twitter.sol\":2762:3060  function unlikeTweet(address _author, uint256 _id) external tweetExists(_author, _id) onlyRegistered{... */\n      pop\n      pop\n      pop\n      pop\n      jump\t// out\n        /* \"contracts/Twitter.sol\":1437:1554  function changeTweetLength(uint16 newTweetLength) public onlyOwner {... */\n    tag_33:\n        /* \"@openzeppelin/contracts/access/Ownable.sol\":1531:1544  _checkOwner() */\n      tag_119\n        /* \"@openzeppelin/contracts/access/Ownable.sol\":1531:1542  _checkOwner */\n      tag_120\n        /* \"@openzeppelin/contracts/access/Ownable.sol\":1531:1544  _checkOwner() */\n      jump\t// in\n    tag_119:\n        /* \"contracts/Twitter.sol\":1533:1547  newTweetLength */\n      dup1\n        /* \"contracts/Twitter.sol\":1514:1530  TWEET_MAX_LENGTH */\n      0x00\n      0x14\n        /* \"contracts/Twitter.sol\":1514:1547  TWEET_MAX_LENGTH = newTweetLength */\n      0x0100\n      exp\n      dup2\n      sload\n      dup2\n      0xffff\n      mul\n      not\n      and\n      swap1\n      dup4\n      0xffff\n      and\n      mul\n      or\n      swap1\n      sstore\n      pop\n        /* \"contracts/Twitter.sol\":1437:1554  function changeTweetLength(uint16 newTweetLength) public onlyOwner {... */\n      pop\n      jump\t// out\n        /* \"contracts/Twitter.sol\":2534:2756  function likeTweet(address _author, uint256 _id) external tweetExists(_author, _id) onlyRegistered{... */\n    tag_36:\n        /* \"contracts/Twitter.sol\":2604:2611  _author */\n      dup2\n        /* \"contracts/Twitter.sol\":2613:2616  _id */\n      dup2\n        /* \"contracts/Twitter.sol\":1038:1041  _id */\n      dup1\n        /* \"contracts/Twitter.sol\":1011:1017  tweets */\n      0x01\n        /* \"contracts/Twitter.sol\":1011:1026  tweets[_author] */\n      0x00\n        /* \"contracts/Twitter.sol\":1018:1025  _author */\n      dup5\n        /* \"contracts/Twitter.sol\":1011:1026  tweets[_author] */\n      0xffffffffffffffffffffffffffffffffffffffff\n      and\n      0xffffffffffffffffffffffffffffffffffffffff\n      and\n      dup2\n      mstore\n      0x20\n      add\n      swap1\n      dup2\n      mstore\n      0x20\n      add\n      0x00\n      keccak256\n        /* \"contracts/Twitter.sol\":1027:1030  _id */\n      dup3\n        /* \"contracts/Twitter.sol\":1011:1031  tweets[_author][_id] */\n      dup2\n      sload\n      dup2\n      lt\n      tag_123\n      jumpi\n      tag_124\n      tag_78\n      jump\t// in\n    tag_124:\n    tag_123:\n      swap1\n      0x00\n      mstore\n      keccak256(0x00, 0x20)\n      swap1\n      0x05\n      mul\n      add\n        /* \"contracts/Twitter.sol\":1011:1034  tweets[_author][_id].id */\n      0x00\n      add\n      sload\n        /* \"contracts/Twitter.sol\":1011:1041  tweets[_author][_id].id == _id */\n      eq\n        /* \"contracts/Twitter.sol\":1003:1067  require(tweets[_author][_id].id == _id, \"Tweet does not exist!\") */\n      tag_126\n      jumpi\n      mload(0x40)\n      0x08c379a000000000000000000000000000000000000000000000000000000000\n      dup2\n      mstore\n      0x04\n      add\n      tag_127\n      swap1\n      tag_91\n      jump\t// in\n    tag_127:\n      mload(0x40)\n      dup1\n      swap2\n      sub\n      swap1\n      revert\n    tag_126:\n        /* \"contracts/Twitter.sol\":1126:1165  IProfile.UserProfile memory userProfile */\n      0x00\n        /* \"contracts/Twitter.sol\":1168:1183  profileContract */\n      0x02\n      0x00\n      swap1\n      sload\n      swap1\n      0x0100\n      exp\n      swap1\n      div\n      0xffffffffffffffffffffffffffffffffffffffff\n      and\n        /* \"contracts/Twitter.sol\":1168:1194  profileContract.getProfile */\n      0xffffffffffffffffffffffffffffffffffffffff\n      and\n      0x0f53a470\n        /* \"contracts/Twitter.sol\":1195:1205  msg.sender */\n      caller\n        /* \"contracts/Twitter.sol\":1168:1206  profileContract.getProfile(msg.sender) */\n      mload(0x40)\n      dup3\n      0xffffffff\n      and\n      0xe0\n      shl\n      dup2\n      mstore\n      0x04\n      add\n      tag_129\n      swap2\n      swap1\n      tag_57\n      jump\t// in\n    tag_129:\n      0x00\n      mload(0x40)\n      dup1\n      dup4\n      sub\n      dup2\n      dup7\n      gas\n      staticcall\n      iszero\n      dup1\n      iszero\n      tag_131\n      jumpi\n      returndatasize\n      0x00\n      dup1\n      returndatacopy\n      revert(0x00, returndatasize)\n    tag_131:\n      pop\n      pop\n      pop\n      pop\n      mload(0x40)\n      returndatasize\n      0x00\n      dup3\n      returndatacopy\n      returndatasize\n      not(0x1f)\n      0x1f\n      dup3\n      add\n      and\n      dup3\n      add\n      dup1\n      0x40\n      mstore\n      pop\n      dup2\n      add\n      swap1\n      tag_132\n      swap2\n      swap1\n      tag_97\n      jump\t// in\n    tag_132:\n        /* \"contracts/Twitter.sol\":1126:1206  IProfile.UserProfile memory userProfile = profileContract.getProfile(msg.sender) */\n      swap1\n      pop\n        /* \"contracts/Twitter.sol\":1263:1264  0 */\n      0x00\n        /* \"contracts/Twitter.sol\":1229:1240  userProfile */\n      dup2\n        /* \"contracts/Twitter.sol\":1229:1252  userProfile.displayName */\n      0x00\n      add\n      mload\n        /* \"contracts/Twitter.sol\":1223:1260  bytes(userProfile.displayName).length */\n      mload\n        /* \"contracts/Twitter.sol\":1223:1264  bytes(userProfile.displayName).length > 0 */\n      gt\n        /* \"contracts/Twitter.sol\":1215:1289  require(bytes(userProfile.displayName).length > 0 ,\"User not registered!\") */\n      tag_133\n      jumpi\n      mload(0x40)\n      0x08c379a000000000000000000000000000000000000000000000000000000000\n      dup2\n      mstore\n      0x04\n      add\n      tag_134\n      swap1\n      tag_100\n      jump\t// in\n    tag_134:\n      mload(0x40)\n      dup1\n      swap2\n      sub\n      swap1\n      revert\n    tag_133:\n        /* \"contracts/Twitter.sol\":2642:2648  tweets */\n      0x01\n        /* \"contracts/Twitter.sol\":2642:2657  tweets[_author] */\n      0x00\n        /* \"contracts/Twitter.sol\":2649:2656  _author */\n      dup7\n        /* \"contracts/Twitter.sol\":2642:2657  tweets[_author] */\n      0xffffffffffffffffffffffffffffffffffffffff\n      and\n      0xffffffffffffffffffffffffffffffffffffffff\n      and\n      dup2\n      mstore\n      0x20\n      add\n      swap1\n      dup2\n      mstore\n      0x20\n      add\n      0x00\n      keccak256\n        /* \"contracts/Twitter.sol\":2658:2661  _id */\n      dup5\n        /* \"contracts/Twitter.sol\":2642:2662  tweets[_author][_id] */\n      dup2\n      sload\n      dup2\n      lt\n      tag_136\n      jumpi\n      tag_137\n      tag_78\n      jump\t// in\n    tag_137:\n    tag_136:\n      swap1\n      0x00\n      mstore\n      keccak256(0x00, 0x20)\n      swap1\n      0x05\n      mul\n      add\n        /* \"contracts/Twitter.sol\":2642:2668  tweets[_author][_id].likes */\n      0x04\n      add\n      0x00\n        /* \"contracts/Twitter.sol\":2642:2670  tweets[_author][_id].likes++ */\n      dup2\n      sload\n      dup1\n      swap3\n      swap2\n      swap1\n      tag_139\n      swap1\n      tag_140\n      jump\t// in\n    tag_139:\n      swap2\n      swap1\n      pop\n      sstore\n      pop\n        /* \"contracts/Twitter.sol\":2685:2749  TweetLiked(msg.sender, _author, _id, tweets[_author][_id].likes) */\n      0xe8a76fc0f16d11a00d1e93b689b63d76cf60af914dd3d915375dc41d01a0c3c8\n        /* \"contracts/Twitter.sol\":2696:2706  msg.sender */\n      caller\n        /* \"contracts/Twitter.sol\":2708:2715  _author */\n      dup7\n        /* \"contracts/Twitter.sol\":2717:2720  _id */\n      dup7\n        /* \"contracts/Twitter.sol\":2722:2728  tweets */\n      0x01\n        /* \"contracts/Twitter.sol\":2722:2737  tweets[_author] */\n      0x00\n        /* \"contracts/Twitter.sol\":2729:2736  _author */\n      dup11\n        /* \"contracts/Twitter.sol\":2722:2737  tweets[_author] */\n      0xffffffffffffffffffffffffffffffffffffffff\n      and\n      0xffffffffffffffffffffffffffffffffffffffff\n      and\n      dup2\n      mstore\n      0x20\n      add\n      swap1\n      dup2\n      mstore\n      0x20\n      add\n      0x00\n      keccak256\n        /* \"contracts/Twitter.sol\":2738:2741  _id */\n      dup9\n        /* \"contracts/Twitter.sol\":2722:2742  tweets[_author][_id] */\n      dup2\n      sload\n      dup2\n      lt\n      tag_141\n      jumpi\n      tag_142\n      tag_78\n      jump\t// in\n    tag_142:\n    tag_141:\n      swap1\n      0x00\n      mstore\n      keccak256(0x00, 0x20)\n      swap1\n      0x05\n      mul\n      add\n        /* \"contracts/Twitter.sol\":2722:2748  tweets[_author][_id].likes */\n      0x04\n      add\n      sload\n        /* \"contracts/Twitter.sol\":2685:2749  TweetLiked(msg.sender, _author, _id, tweets[_author][_id].likes) */\n      mload(0x40)\n      tag_144\n      swap5\n      swap4\n      swap3\n      swap2\n      swap1\n      tag_117\n      jump\t// in\n    tag_144:\n      mload(0x40)\n      dup1\n      swap2\n      sub\n      swap1\n      log1\n        /* \"contracts/Twitter.sol\":1117:1306  {... */\n      pop\n        /* \"contracts/Twitter.sol\":2534:2756  function likeTweet(address _author, uint256 _id) external tweetExists(_author, _id) onlyRegistered{... */\n      pop\n      pop\n      pop\n      pop\n      jump\t// out\n        /* \"@openzeppelin/contracts/access/Ownable.sol\":2293:2394  function renounceOwnership() public virtual onlyOwner {... */\n    tag_38:\n        /* \"@openzeppelin/contracts/access/Ownable.sol\":1531:1544  _checkOwner() */\n      tag_146\n        /* \"@openzeppelin/contracts/access/Ownable.sol\":1531:1542  _checkOwner */\n      tag_120\n        /* \"@openzeppelin/contracts/access/Ownable.sol\":1531:1544  _checkOwner() */\n      jump\t// in\n    tag_146:\n        /* \"@openzeppelin/contracts/access/Ownable.sol\":2357:2387  _transferOwnership(address(0)) */\n      tag_148\n        /* \"@openzeppelin/contracts/access/Ownable.sol\":2384:2385  0 */\n      0x00\n        /* \"@openzeppelin/contracts/access/Ownable.sol\":2357:2375  _transferOwnership */\n      tag_149\n        /* \"@openzeppelin/contracts/access/Ownable.sol\":2357:2387  _transferOwnership(address(0)) */\n      jump\t// in\n    tag_148:\n        /* \"@openzeppelin/contracts/access/Ownable.sol\":2293:2394  function renounceOwnership() public virtual onlyOwner {... */\n      jump\t// out\n        /* \"contracts/Twitter.sol\":1560:2280  function createTweet(string memory _tweet) public onlyRegistered{... */\n    tag_42:\n        /* \"contracts/Twitter.sol\":1126:1165  IProfile.UserProfile memory userProfile */\n      0x00\n        /* \"contracts/Twitter.sol\":1168:1183  profileContract */\n      0x02\n      0x00\n      swap1\n      sload\n      swap1\n      0x0100\n      exp\n      swap1\n      div\n      0xffffffffffffffffffffffffffffffffffffffff\n      and\n        /* \"contracts/Twitter.sol\":1168:1194  profileContract.getProfile */\n      0xffffffffffffffffffffffffffffffffffffffff\n      and\n      0x0f53a470\n        /* \"contracts/Twitter.sol\":1195:1205  msg.sender */\n      caller\n        /* \"contracts/Twitter.sol\":1168:1206  profileContract.getProfile(msg.sender) */\n      mload(0x40)\n      dup3\n      0xffffffff\n      and\n      0xe0\n      shl\n      dup2\n      mstore\n      0x04\n      add\n      tag_151\n      swap2\n      swap1\n      tag_57\n      jump\t// in\n    tag_151:\n      0x00\n      mload(0x40)\n      dup1\n      dup4\n      sub\n      dup2\n      dup7\n      gas\n      staticcall\n      iszero\n      dup1\n      iszero\n      tag_153\n      jumpi\n      returndatasize\n      0x00\n      dup1\n      returndatacopy\n      revert(0x00, returndatasize)\n    tag_153:\n      pop\n      pop\n      pop\n      pop\n      mload(0x40)\n      returndatasize\n      0x00\n      dup3\n      returndatacopy\n      returndatasize\n      not(0x1f)\n      0x1f\n      dup3\n      add\n      and\n      dup3\n      add\n      dup1\n      0x40\n      mstore\n      pop\n      dup2\n      add\n      swap1\n      tag_154\n      swap2\n      swap1\n      tag_97\n      jump\t// in\n    tag_154:\n        /* \"contracts/Twitter.sol\":1126:1206  IProfile.UserProfile memory userProfile = profileContract.getProfile(msg.sender) */\n      swap1\n      pop\n        /* \"contracts/Twitter.sol\":1263:1264  0 */\n      0x00\n        /* \"contracts/Twitter.sol\":1229:1240  userProfile */\n      dup2\n        /* \"contracts/Twitter.sol\":1229:1252  userProfile.displayName */\n      0x00\n      add\n      mload\n        /* \"contracts/Twitter.sol\":1223:1260  bytes(userProfile.displayName).length */\n      mload\n        /* \"contracts/Twitter.sol\":1223:1264  bytes(userProfile.displayName).length > 0 */\n      gt\n        /* \"contracts/Twitter.sol\":1215:1289  require(bytes(userProfile.displayName).length > 0 ,\"User not registered!\") */\n      tag_155\n      jumpi\n      mload(0x40)\n      0x08c379a000000000000000000000000000000000000000000000000000000000\n      dup2\n      mstore\n      0x04\n      add\n      tag_156\n      swap1\n      tag_100\n      jump\t// in\n    tag_156:\n      mload(0x40)\n      dup1\n      swap2\n      sub\n      swap1\n      revert\n    tag_155:\n        /* \"contracts/Twitter.sol\":1679:1695  TWEET_MAX_LENGTH */\n      0x00\n      0x14\n      swap1\n      sload\n      swap1\n      0x0100\n      exp\n      swap1\n      div\n      0xffff\n      and\n        /* \"contracts/Twitter.sol\":1655:1695  bytes(_tweet).length <= TWEET_MAX_LENGTH */\n      0xffff\n      and\n        /* \"contracts/Twitter.sol\":1661:1667  _tweet */\n      dup3\n        /* \"contracts/Twitter.sol\":1655:1675  bytes(_tweet).length */\n      mload\n        /* \"contracts/Twitter.sol\":1655:1695  bytes(_tweet).length <= TWEET_MAX_LENGTH */\n      gt\n      iszero\n        /* \"contracts/Twitter.sol\":1840:1874  Strings.toString(TWEET_MAX_LENGTH) */\n      tag_158\n        /* \"contracts/Twitter.sol\":1857:1873  TWEET_MAX_LENGTH */\n      0x00\n      0x14\n      swap1\n      sload\n      swap1\n      0x0100\n      exp\n      swap1\n      div\n      0xffff\n      and\n        /* \"contracts/Twitter.sol\":1840:1874  Strings.toString(TWEET_MAX_LENGTH) */\n      0xffff\n      and\n        /* \"contracts/Twitter.sol\":1840:1856  Strings.toString */\n      tag_159\n        /* \"contracts/Twitter.sol\":1840:1874  Strings.toString(TWEET_MAX_LENGTH) */\n      jump\t// in\n    tag_158:\n        /* \"contracts/Twitter.sol\":1733:1892  abi.encodePacked(... */\n      add(0x20, mload(0x40))\n      tag_160\n      swap2\n      swap1\n      tag_161\n      jump\t// in\n    tag_160:\n      mload(0x40)\n      0x20\n      dup2\n      dup4\n      sub\n      sub\n      dup2\n      mstore\n      swap1\n      0x40\n      mstore\n        /* \"contracts/Twitter.sol\":1634:1916  require(... */\n      swap1\n      tag_162\n      jumpi\n      mload(0x40)\n      0x08c379a000000000000000000000000000000000000000000000000000000000\n      dup2\n      mstore\n      0x04\n      add\n      tag_163\n      swap2\n      swap1\n      tag_164\n      jump\t// in\n    tag_163:\n      mload(0x40)\n      dup1\n      swap2\n      sub\n      swap1\n      revert\n    tag_162:\n      pop\n        /* \"contracts/Twitter.sol\":1927:1948  Tweet memory newTweet */\n      0x00\n        /* \"contracts/Twitter.sol\":1951:2134  Tweet({... */\n      mload(0x40)\n      dup1\n      0xa0\n      add\n      0x40\n      mstore\n      dup1\n        /* \"contracts/Twitter.sol\":1975:1981  tweets */\n      0x01\n        /* \"contracts/Twitter.sol\":1975:1993  tweets[msg.sender] */\n      0x00\n        /* \"contracts/Twitter.sol\":1982:1992  msg.sender */\n      caller\n        /* \"contracts/Twitter.sol\":1975:1993  tweets[msg.sender] */\n      0xffffffffffffffffffffffffffffffffffffffff\n      and\n      0xffffffffffffffffffffffffffffffffffffffff\n      and\n      dup2\n      mstore\n      0x20\n      add\n      swap1\n      dup2\n      mstore\n      0x20\n      add\n      0x00\n      keccak256\n        /* \"contracts/Twitter.sol\":1975:2000  tweets[msg.sender].length */\n      dup1\n      sload\n      swap1\n      pop\n        /* \"contracts/Twitter.sol\":1951:2134  Tweet({... */\n      dup2\n      mstore\n      0x20\n      add\n        /* \"contracts/Twitter.sol\":2022:2032  msg.sender */\n      caller\n        /* \"contracts/Twitter.sol\":1951:2134  Tweet({... */\n      0xffffffffffffffffffffffffffffffffffffffff\n      and\n      dup2\n      mstore\n      0x20\n      add\n        /* \"contracts/Twitter.sol\":2055:2061  _tweet */\n      dup5\n        /* \"contracts/Twitter.sol\":1951:2134  Tweet({... */\n      dup2\n      mstore\n      0x20\n      add\n        /* \"contracts/Twitter.sol\":2086:2101  block.timestamp */\n      timestamp\n        /* \"contracts/Twitter.sol\":1951:2134  Tweet({... */\n      dup2\n      mstore\n      0x20\n      add\n        /* \"contracts/Twitter.sol\":2122:2123  0 */\n      0x00\n        /* \"contracts/Twitter.sol\":1951:2134  Tweet({... */\n      dup2\n      mstore\n      pop\n        /* \"contracts/Twitter.sol\":1927:2134  Tweet memory newTweet = Tweet({... */\n      swap1\n      pop\n        /* \"contracts/Twitter.sol\":2145:2151  tweets */\n      0x01\n        /* \"contracts/Twitter.sol\":2145:2163  tweets[msg.sender] */\n      0x00\n        /* \"contracts/Twitter.sol\":2152:2162  msg.sender */\n      caller\n        /* \"contracts/Twitter.sol\":2145:2163  tweets[msg.sender] */\n      0xffffffffffffffffffffffffffffffffffffffff\n      and\n      0xffffffffffffffffffffffffffffffffffffffff\n      and\n      dup2\n      mstore\n      0x20\n      add\n      swap1\n      dup2\n      mstore\n      0x20\n      add\n      0x00\n      keccak256\n        /* \"contracts/Twitter.sol\":2169:2177  newTweet */\n      dup2\n        /* \"contracts/Twitter.sol\":2145:2178  tweets[msg.sender].push(newTweet) */\n      swap1\n      dup1\n      0x01\n      dup2\n      sload\n      add\n      dup1\n      dup3\n      sstore\n      dup1\n      swap2\n      pop\n      pop\n      0x01\n      swap1\n      sub\n      swap1\n      0x00\n      mstore\n      keccak256(0x00, 0x20)\n      swap1\n      0x05\n      mul\n      add\n      0x00\n      swap1\n      swap2\n      swap1\n      swap2\n      swap1\n      swap2\n      pop\n      0x00\n      dup3\n      add\n      mload\n      dup2\n      0x00\n      add\n      sstore\n      0x20\n      dup3\n      add\n      mload\n      dup2\n      0x01\n      add\n      exp(0x0100, 0x00)\n      dup2\n      sload\n      dup2\n      0xffffffffffffffffffffffffffffffffffffffff\n      mul\n      not\n      and\n      swap1\n      dup4\n      0xffffffffffffffffffffffffffffffffffffffff\n      and\n      mul\n      or\n      swap1\n      sstore\n      pop\n      0x40\n      dup3\n      add\n      mload\n      dup2\n      0x02\n      add\n      swap1\n      dup2\n      tag_166\n      swap2\n      swap1\n      tag_167\n      jump\t// in\n    tag_166:\n      pop\n      0x60\n      dup3\n      add\n      mload\n      dup2\n      0x03\n      add\n      sstore\n      0x80\n      dup3\n      add\n      mload\n      dup2\n      0x04\n      add\n      sstore\n      pop\n      pop\n        /* \"contracts/Twitter.sol\":2193:2273  TweetCreated(newTweet.id, newTweet.author, newTweet.content, newTweet.timestamp) */\n      0x16fd3c13e9d46923e0a8bce11c7b473ec508a72e6c96cd2404b29ce972afc29e\n        /* \"contracts/Twitter.sol\":2206:2214  newTweet */\n      dup2\n        /* \"contracts/Twitter.sol\":2206:2217  newTweet.id */\n      0x00\n      add\n      mload\n        /* \"contracts/Twitter.sol\":2219:2227  newTweet */\n      dup3\n        /* \"contracts/Twitter.sol\":2219:2234  newTweet.author */\n      0x20\n      add\n      mload\n        /* \"contracts/Twitter.sol\":2236:2244  newTweet */\n      dup4\n        /* \"contracts/Twitter.sol\":2236:2252  newTweet.content */\n      0x40\n      add\n      mload\n        /* \"contracts/Twitter.sol\":2254:2262  newTweet */\n      dup5\n        /* \"contracts/Twitter.sol\":2254:2272  newTweet.timestamp */\n      0x60\n      add\n      mload\n        /* \"contracts/Twitter.sol\":2193:2273  TweetCreated(newTweet.id, newTweet.author, newTweet.content, newTweet.timestamp) */\n      mload(0x40)\n      tag_168\n      swap5\n      swap4\n      swap3\n      swap2\n      swap1\n      tag_169\n      jump\t// in\n    tag_168:\n      mload(0x40)\n      dup1\n      swap2\n      sub\n      swap1\n      log1\n        /* \"contracts/Twitter.sol\":1624:2280  {... */\n      pop\n        /* \"contracts/Twitter.sol\":1117:1306  {... */\n      pop\n        /* \"contracts/Twitter.sol\":1560:2280  function createTweet(string memory _tweet) public onlyRegistered{... */\n      pop\n      jump\t// out\n        /* \"contracts/Twitter.sol\":2415:2528  function getALLTweets(address _owner) public view returns (Tweet[] memory) {... */\n    tag_46:\n        /* \"contracts/Twitter.sol\":2474:2488  Tweet[] memory */\n      0x60\n        /* \"contracts/Twitter.sol\":2507:2513  tweets */\n      0x01\n        /* \"contracts/Twitter.sol\":2507:2521  tweets[_owner] */\n      0x00\n        /* \"contracts/Twitter.sol\":2514:2520  _owner */\n      dup4\n        /* \"contracts/Twitter.sol\":2507:2521  tweets[_owner] */\n      0xffffffffffffffffffffffffffffffffffffffff\n      and\n      0xffffffffffffffffffffffffffffffffffffffff\n      and\n      dup2\n      mstore\n      0x20\n      add\n      swap1\n      dup2\n      mstore\n      0x20\n      add\n      0x00\n      keccak256\n        /* \"contracts/Twitter.sol\":2500:2521  return tweets[_owner] */\n      dup1\n      sload\n      dup1\n      0x20\n      mul\n      0x20\n      add\n      mload(0x40)\n      swap1\n      dup2\n      add\n      0x40\n      mstore\n      dup1\n      swap3\n      swap2\n      swap1\n      dup2\n      dup2\n      mstore\n      0x20\n      add\n      0x00\n      swap1\n    tag_171:\n      dup3\n      dup3\n      lt\n      iszero\n      tag_172\n      jumpi\n      dup4\n      dup3\n      swap1\n      0x00\n      mstore\n      keccak256(0x00, 0x20)\n      swap1\n      0x05\n      mul\n      add\n      mload(0x40)\n      dup1\n      0xa0\n      add\n      0x40\n      mstore\n      swap1\n      dup2\n      0x00\n      dup3\n      add\n      sload\n      dup2\n      mstore\n      0x20\n      add\n      0x01\n      dup3\n      add\n      0x00\n      swap1\n      sload\n      swap1\n      0x0100\n      exp\n      swap1\n      div\n      0xffffffffffffffffffffffffffffffffffffffff\n      and\n      0xffffffffffffffffffffffffffffffffffffffff\n      and\n      0xffffffffffffffffffffffffffffffffffffffff\n      and\n      dup2\n      mstore\n      0x20\n      add\n      0x02\n      dup3\n      add\n      dup1\n      sload\n      tag_174\n      swap1\n      tag_68\n      jump\t// in\n    tag_174:\n      dup1\n      0x1f\n      add\n      0x20\n      dup1\n      swap2\n      div\n      mul\n      0x20\n      add\n      mload(0x40)\n      swap1\n      dup2\n      add\n      0x40\n      mstore\n      dup1\n      swap3\n      swap2\n      swap1\n      dup2\n      dup2\n      mstore\n      0x20\n      add\n      dup3\n      dup1\n      sload\n      tag_175\n      swap1\n      tag_68\n      jump\t// in\n    tag_175:\n      dup1\n      iszero\n      tag_176\n      jumpi\n      dup1\n      0x1f\n      lt\n      tag_177\n      jumpi\n      0x0100\n      dup1\n      dup4\n      sload\n      div\n      mul\n      dup4\n      mstore\n      swap2\n      0x20\n      add\n      swap2\n      jump(tag_176)\n    tag_177:\n      dup3\n      add\n      swap2\n      swap1\n      0x00\n      mstore\n      keccak256(0x00, 0x20)\n      swap1\n    tag_178:\n      dup2\n      sload\n      dup2\n      mstore\n      swap1\n      0x01\n      add\n      swap1\n      0x20\n      add\n      dup1\n      dup4\n      gt\n      tag_178\n      jumpi\n      dup3\n      swap1\n      sub\n      0x1f\n      and\n      dup3\n      add\n      swap2\n    tag_176:\n      pop\n      pop\n      pop\n      pop\n      pop\n      dup2\n      mstore\n      0x20\n      add\n      0x03\n      dup3\n      add\n      sload\n      dup2\n      mstore\n      0x20\n      add\n      0x04\n      dup3\n      add\n      sload\n      dup2\n      mstore\n      pop\n      pop\n      dup2\n      mstore\n      0x20\n      add\n      swap1\n      0x01\n      add\n      swap1\n      jump(tag_171)\n    tag_172:\n      pop\n      pop\n      pop\n      pop\n      swap1\n      pop\n        /* \"contracts/Twitter.sol\":2415:2528  function getALLTweets(address _owner) public view returns (Tweet[] memory) {... */\n      swap2\n      swap1\n      pop\n      jump\t// out\n        /* \"contracts/Twitter.sol\":3066:3316  function getTotalLikes(address _author) external view returns (uint) {... */\n    tag_51:\n        /* \"contracts/Twitter.sol\":3129:3133  uint */\n      0x00\n        /* \"contracts/Twitter.sol\":3145:3160  uint totalLikes */\n      dup1\n        /* \"contracts/Twitter.sol\":3175:3181  uint i */\n      0x00\n        /* \"contracts/Twitter.sol\":3171:3283  for(uint i = 0; i < tweets[_author].length; i++) {... */\n    tag_180:\n        /* \"contracts/Twitter.sol\":3191:3197  tweets */\n      0x01\n        /* \"contracts/Twitter.sol\":3191:3206  tweets[_author] */\n      0x00\n        /* \"contracts/Twitter.sol\":3198:3205  _author */\n      dup6\n        /* \"contracts/Twitter.sol\":3191:3206  tweets[_author] */\n      0xffffffffffffffffffffffffffffffffffffffff\n      and\n      0xffffffffffffffffffffffffffffffffffffffff\n      and\n      dup2\n      mstore\n      0x20\n      add\n      swap1\n      dup2\n      mstore\n      0x20\n      add\n      0x00\n      keccak256\n        /* \"contracts/Twitter.sol\":3191:3213  tweets[_author].length */\n      dup1\n      sload\n      swap1\n      pop\n        /* \"contracts/Twitter.sol\":3187:3188  i */\n      dup2\n        /* \"contracts/Twitter.sol\":3187:3213  i < tweets[_author].length */\n      lt\n        /* \"contracts/Twitter.sol\":3171:3283  for(uint i = 0; i < tweets[_author].length; i++) {... */\n      iszero\n      tag_181\n      jumpi\n        /* \"contracts/Twitter.sol\":3248:3254  tweets */\n      0x01\n        /* \"contracts/Twitter.sol\":3248:3263  tweets[_author] */\n      0x00\n        /* \"contracts/Twitter.sol\":3255:3262  _author */\n      dup6\n        /* \"contracts/Twitter.sol\":3248:3263  tweets[_author] */\n      0xffffffffffffffffffffffffffffffffffffffff\n      and\n      0xffffffffffffffffffffffffffffffffffffffff\n      and\n      dup2\n      mstore\n      0x20\n      add\n      swap1\n      dup2\n      mstore\n      0x20\n      add\n      0x00\n      keccak256\n        /* \"contracts/Twitter.sol\":3264:3265  i */\n      dup2\n        /* \"contracts/Twitter.sol\":3248:3266  tweets[_author][i] */\n      dup2\n      sload\n      dup2\n      lt\n      tag_183\n      jumpi\n      tag_184\n      tag_78\n      jump\t// in\n    tag_184:\n    tag_183:\n      swap1\n      0x00\n      mstore\n      keccak256(0x00, 0x20)\n      swap1\n      0x05\n      mul\n      add\n        /* \"contracts/Twitter.sol\":3248:3272  tweets[_author][i].likes */\n      0x04\n      add\n      sload\n        /* \"contracts/Twitter.sol\":3234:3272  totalLikes += tweets[_author][i].likes */\n      dup3\n      tag_186\n      swap2\n      swap1\n      tag_187\n      jump\t// in\n    tag_186:\n      swap2\n      pop\n        /* \"contracts/Twitter.sol\":3215:3218  i++ */\n      dup1\n      dup1\n      0x01\n      add\n      swap2\n      pop\n      pop\n        /* \"contracts/Twitter.sol\":3171:3283  for(uint i = 0; i < tweets[_author].length; i++) {... */\n      jump(tag_180)\n    tag_181:\n      pop\n        /* \"contracts/Twitter.sol\":3299:3309  totalLikes */\n      dup1\n        /* \"contracts/Twitter.sol\":3292:3309  return totalLikes */\n      swap2\n      pop\n      pop\n        /* \"contracts/Twitter.sol\":3066:3316  function getTotalLikes(address _author) external view returns (uint) {... */\n      swap2\n      swap1\n      pop\n      jump\t// out\n        /* \"@openzeppelin/contracts/access/Ownable.sol\":1638:1723  function owner() public view virtual returns (address) {... */\n    tag_55:\n        /* \"@openzeppelin/contracts/access/Ownable.sol\":1684:1691  address */\n      0x00\n        /* \"@openzeppelin/contracts/access/Ownable.sol\":1710:1716  _owner */\n      dup1\n      0x00\n      swap1\n      sload\n      swap1\n      0x0100\n      exp\n      swap1\n      div\n      0xffffffffffffffffffffffffffffffffffffffff\n      and\n        /* \"@openzeppelin/contracts/access/Ownable.sol\":1703:1716  return _owner */\n      swap1\n      pop\n        /* \"@openzeppelin/contracts/access/Ownable.sol\":1638:1723  function owner() public view virtual returns (address) {... */\n      swap1\n      jump\t// out\n        /* \"@openzeppelin/contracts/access/Ownable.sol\":2543:2758  function transferOwnership(address newOwner) public virtual onlyOwner {... */\n    tag_60:\n        /* \"@openzeppelin/contracts/access/Ownable.sol\":1531:1544  _checkOwner() */\n      tag_190\n        /* \"@openzeppelin/contracts/access/Ownable.sol\":1531:1542  _checkOwner */\n      tag_120\n        /* \"@openzeppelin/contracts/access/Ownable.sol\":1531:1544  _checkOwner() */\n      jump\t// in\n    tag_190:\n        /* \"@openzeppelin/contracts/access/Ownable.sol\":2647:2648  0 */\n      0x00\n        /* \"@openzeppelin/contracts/access/Ownable.sol\":2627:2649  newOwner == address(0) */\n      0xffffffffffffffffffffffffffffffffffffffff\n      and\n        /* \"@openzeppelin/contracts/access/Ownable.sol\":2627:2635  newOwner */\n      dup2\n        /* \"@openzeppelin/contracts/access/Ownable.sol\":2627:2649  newOwner == address(0) */\n      0xffffffffffffffffffffffffffffffffffffffff\n      and\n      sub\n        /* \"@openzeppelin/contracts/access/Ownable.sol\":2623:2714  if (newOwner == address(0)) {... */\n      tag_192\n      jumpi\n        /* \"@openzeppelin/contracts/access/Ownable.sol\":2700:2701  0 */\n      0x00\n        /* \"@openzeppelin/contracts/access/Ownable.sol\":2672:2703  OwnableInvalidOwner(address(0)) */\n      mload(0x40)\n      0x1e4fbdf700000000000000000000000000000000000000000000000000000000\n      dup2\n      mstore\n      0x04\n      add\n      tag_193\n      swap2\n      swap1\n      tag_57\n      jump\t// in\n    tag_193:\n      mload(0x40)\n      dup1\n      swap2\n      sub\n      swap1\n      revert\n        /* \"@openzeppelin/contracts/access/Ownable.sol\":2623:2714  if (newOwner == address(0)) {... */\n    tag_192:\n        /* \"@openzeppelin/contracts/access/Ownable.sol\":2723:2751  _transferOwnership(newOwner) */\n      tag_194\n        /* \"@openzeppelin/contracts/access/Ownable.sol\":2742:2750  newOwner */\n      dup2\n        /* \"@openzeppelin/contracts/access/Ownable.sol\":2723:2741  _transferOwnership */\n      tag_149\n        /* \"@openzeppelin/contracts/access/Ownable.sol\":2723:2751  _transferOwnership(newOwner) */\n      jump\t// in\n    tag_194:\n        /* \"@openzeppelin/contracts/access/Ownable.sol\":2543:2758  function transferOwnership(address newOwner) public virtual onlyOwner {... */\n      pop\n      jump\t// out\n        /* \"contracts/Twitter.sol\":534:570  uint16 public TWEET_MAX_LENGTH = 280 */\n    tag_62:\n      0x00\n      0x14\n      swap1\n      sload\n      swap1\n      0x0100\n      exp\n      swap1\n      div\n      0xffff\n      and\n      dup2\n      jump\t// out\n        /* \"@openzeppelin/contracts/access/Ownable.sol\":1796:1958  function _checkOwner() internal view virtual {... */\n    tag_120:\n        /* \"@openzeppelin/contracts/access/Ownable.sol\":1866:1878  _msgSender() */\n      tag_196\n        /* \"@openzeppelin/contracts/access/Ownable.sol\":1866:1876  _msgSender */\n      tag_197\n        /* \"@openzeppelin/contracts/access/Ownable.sol\":1866:1878  _msgSender() */\n      jump\t// in\n    tag_196:\n        /* \"@openzeppelin/contracts/access/Ownable.sol\":1855:1878  owner() != _msgSender() */\n      0xffffffffffffffffffffffffffffffffffffffff\n      and\n        /* \"@openzeppelin/contracts/access/Ownable.sol\":1855:1862  owner() */\n      tag_198\n        /* \"@openzeppelin/contracts/access/Ownable.sol\":1855:1860  owner */\n      tag_55\n        /* \"@openzeppelin/contracts/access/Ownable.sol\":1855:1862  owner() */\n      jump\t// in\n    tag_198:\n        /* \"@openzeppelin/contracts/access/Ownable.sol\":1855:1878  owner() != _msgSender() */\n      0xffffffffffffffffffffffffffffffffffffffff\n      and\n      eq\n        /* \"@openzeppelin/contracts/access/Ownable.sol\":1851:1952  if (owner() != _msgSender()) {... */\n      tag_199\n      jumpi\n        /* \"@openzeppelin/contracts/access/Ownable.sol\":1928:1940  _msgSender() */\n      tag_200\n        /* \"@openzeppelin/contracts/access/Ownable.sol\":1928:1938  _msgSender */\n      tag_197\n        /* \"@openzeppelin/contracts/access/Ownable.sol\":1928:1940  _msgSender() */\n      jump\t// in\n    tag_200:\n        /* \"@openzeppelin/contracts/access/Ownable.sol\":1901:1941  OwnableUnauthorizedAccount(_msgSender()) */\n      mload(0x40)\n      0x118cdaa700000000000000000000000000000000000000000000000000000000\n      dup2\n      mstore\n      0x04\n      add\n      tag_201\n      swap2\n      swap1\n      tag_57\n      jump\t// in\n    tag_201:\n      mload(0x40)\n      dup1\n      swap2\n      sub\n      swap1\n      revert\n        /* \"@openzeppelin/contracts/access/Ownable.sol\":1851:1952  if (owner() != _msgSender()) {... */\n    tag_199:\n        /* \"@openzeppelin/contracts/access/Ownable.sol\":1796:1958  function _checkOwner() internal view virtual {... */\n      jump\t// out\n        /* \"@openzeppelin/contracts/access/Ownable.sol\":2912:3099  function _transferOwnership(address newOwner) internal virtual {... */\n    tag_149:\n        /* \"@openzeppelin/contracts/access/Ownable.sol\":2985:3001  address oldOwner */\n      0x00\n        /* \"@openzeppelin/contracts/access/Ownable.sol\":3004:3010  _owner */\n      dup1\n      0x00\n      swap1\n      sload\n      swap1\n      0x0100\n      exp\n      swap1\n      div\n      0xffffffffffffffffffffffffffffffffffffffff\n      and\n        /* \"@openzeppelin/contracts/access/Ownable.sol\":2985:3010  address oldOwner = _owner */\n      swap1\n      pop\n        /* \"@openzeppelin/contracts/access/Ownable.sol\":3029:3037  newOwner */\n      dup2\n        /* \"@openzeppelin/contracts/access/Ownable.sol\":3020:3026  _owner */\n      0x00\n      dup1\n        /* \"@openzeppelin/contracts/access/Ownable.sol\":3020:3037  _owner = newOwner */\n      0x0100\n      exp\n      dup2\n      sload\n      dup2\n      0xffffffffffffffffffffffffffffffffffffffff\n      mul\n      not\n      and\n      swap1\n      dup4\n      0xffffffffffffffffffffffffffffffffffffffff\n      and\n      mul\n      or\n      swap1\n      sstore\n      pop\n        /* \"@openzeppelin/contracts/access/Ownable.sol\":3083:3091  newOwner */\n      dup2\n        /* \"@openzeppelin/contracts/access/Ownable.sol\":3052:3092  OwnershipTransferred(oldOwner, newOwner) */\n      0xffffffffffffffffffffffffffffffffffffffff\n      and\n        /* \"@openzeppelin/contracts/access/Ownable.sol\":3073:3081  oldOwner */\n      dup2\n        /* \"@openzeppelin/contracts/access/Ownable.sol\":3052:3092  OwnershipTransferred(oldOwner, newOwner) */\n      0xffffffffffffffffffffffffffffffffffffffff\n      and\n      0x8be0079c531659141344cd1fd0a4f28419497f9722a3daafe3b4186f6b6457e0\n      mload(0x40)\n      mload(0x40)\n      dup1\n      swap2\n      sub\n      swap1\n      log3\n        /* \"@openzeppelin/contracts/access/Ownable.sol\":2975:3099  {... */\n      pop\n        /* \"@openzeppelin/contracts/access/Ownable.sol\":2912:3099  function _transferOwnership(address newOwner) internal virtual {... */\n      pop\n      jump\t// out\n        /* \"@openzeppelin/contracts/utils/Strings.sol\":637:1269  function toString(uint256 value) internal pure returns (string memory) {... */\n    tag_159:\n        /* \"@openzeppelin/contracts/utils/Strings.sol\":693:706  string memory */\n      0x60\n        /* \"@openzeppelin/contracts/utils/Strings.sol\":742:756  uint256 length */\n      0x00\n        /* \"@openzeppelin/contracts/utils/Strings.sol\":779:780  1 */\n      0x01\n        /* \"@openzeppelin/contracts/utils/Strings.sol\":759:776  Math.log10(value) */\n      tag_204\n        /* \"@openzeppelin/contracts/utils/Strings.sol\":770:775  value */\n      dup5\n        /* \"@openzeppelin/contracts/utils/Strings.sol\":759:769  Math.log10 */\n      tag_205\n        /* \"@openzeppelin/contracts/utils/Strings.sol\":759:776  Math.log10(value) */\n      jump\t// in\n    tag_204:\n        /* \"@openzeppelin/contracts/utils/Strings.sol\":759:780  Math.log10(value) + 1 */\n      add\n        /* \"@openzeppelin/contracts/utils/Strings.sol\":742:780  uint256 length = Math.log10(value) + 1 */\n      swap1\n      pop\n        /* \"@openzeppelin/contracts/utils/Strings.sol\":794:814  string memory buffer */\n      0x00\n        /* \"@openzeppelin/contracts/utils/Strings.sol\":828:834  length */\n      dup2\n        /* \"@openzeppelin/contracts/utils/Strings.sol\":817:835  new string(length) */\n      0xffffffffffffffff\n      dup2\n      gt\n      iszero\n      tag_206\n      jumpi\n      tag_207\n      tag_208\n      jump\t// in\n    tag_207:\n    tag_206:\n      mload(0x40)\n      swap1\n      dup1\n      dup3\n      mstore\n      dup1\n      0x1f\n      add\n      not(0x1f)\n      and\n      0x20\n      add\n      dup3\n      add\n      0x40\n      mstore\n      dup1\n      iszero\n      tag_209\n      jumpi\n      dup2\n      0x20\n      add\n      0x01\n      dup3\n      mul\n      dup1\n      calldatasize\n      dup4\n      calldatacopy\n      dup1\n      dup3\n      add\n      swap2\n      pop\n      pop\n      swap1\n      pop\n    tag_209:\n      pop\n        /* \"@openzeppelin/contracts/utils/Strings.sol\":794:835  string memory buffer = new string(length) */\n      swap1\n      pop\n        /* \"@openzeppelin/contracts/utils/Strings.sol\":849:860  uint256 ptr */\n      0x00\n        /* \"@openzeppelin/contracts/utils/Strings.sol\":944:950  length */\n      dup3\n        /* \"@openzeppelin/contracts/utils/Strings.sol\":940:942  32 */\n      0x20\n        /* \"@openzeppelin/contracts/utils/Strings.sol\":936:951  add(32, length) */\n      add\n        /* \"@openzeppelin/contracts/utils/Strings.sol\":928:934  buffer */\n      dup3\n        /* \"@openzeppelin/contracts/utils/Strings.sol\":924:952  add(buffer, add(32, length)) */\n      add\n        /* \"@openzeppelin/contracts/utils/Strings.sol\":917:952  ptr := add(buffer, add(32, length)) */\n      swap1\n      pop\n        /* \"@openzeppelin/contracts/utils/Strings.sol\":979:1226  while (true) {... */\n    tag_210:\n        /* \"@openzeppelin/contracts/utils/Strings.sol\":986:990  true */\n      0x01\n        /* \"@openzeppelin/contracts/utils/Strings.sol\":979:1226  while (true) {... */\n      iszero\n      tag_211\n      jumpi\n        /* \"@openzeppelin/contracts/utils/Strings.sol\":1010:1015  ptr-- */\n      dup1\n      dup1\n      0x01\n      swap1\n      sub\n      swap2\n      pop\n      pop\n        /* \"@openzeppelin/contracts/utils/Strings.sol\":1114:1124  HEX_DIGITS */\n      0x3031323334353637383961626364656600000000000000000000000000000000\n        /* \"@openzeppelin/contracts/utils/Strings.sol\":1109:1111  10 */\n      0x0a\n        /* \"@openzeppelin/contracts/utils/Strings.sol\":1102:1107  value */\n      dup7\n        /* \"@openzeppelin/contracts/utils/Strings.sol\":1098:1112  mod(value, 10) */\n      mod\n        /* \"@openzeppelin/contracts/utils/Strings.sol\":1093:1125  byte(mod(value, 10), HEX_DIGITS) */\n      byte\n        /* \"@openzeppelin/contracts/utils/Strings.sol\":1088:1091  ptr */\n      dup2\n        /* \"@openzeppelin/contracts/utils/Strings.sol\":1080:1126  mstore8(ptr, byte(mod(value, 10), HEX_DIGITS)) */\n      mstore8\n        /* \"@openzeppelin/contracts/utils/Strings.sol\":1170:1172  10 */\n      0x0a\n        /* \"@openzeppelin/contracts/utils/Strings.sol\":1161:1172  value /= 10 */\n      dup6\n      dup2\n      tag_212\n      jumpi\n      tag_213\n      tag_214\n      jump\t// in\n    tag_213:\n    tag_212:\n      div\n      swap5\n      pop\n        /* \"@openzeppelin/contracts/utils/Strings.sol\":1203:1204  0 */\n      0x00\n        /* \"@openzeppelin/contracts/utils/Strings.sol\":1194:1199  value */\n      dup6\n        /* \"@openzeppelin/contracts/utils/Strings.sol\":1194:1204  value == 0 */\n      sub\n        /* \"@openzeppelin/contracts/utils/Strings.sol\":979:1226  while (true) {... */\n      tag_210\n        /* \"@openzeppelin/contracts/utils/Strings.sol\":1190:1211  if (value == 0) break */\n      jumpi\n        /* \"@openzeppelin/contracts/utils/Strings.sol\":979:1226  while (true) {... */\n    tag_211:\n        /* \"@openzeppelin/contracts/utils/Strings.sol\":1246:1252  buffer */\n      dup2\n        /* \"@openzeppelin/contracts/utils/Strings.sol\":1239:1252  return buffer */\n      swap4\n      pop\n      pop\n      pop\n      pop\n        /* \"@openzeppelin/contracts/utils/Strings.sol\":637:1269  function toString(uint256 value) internal pure returns (string memory) {... */\n      swap2\n      swap1\n      pop\n      jump\t// out\n        /* \"@openzeppelin/contracts/utils/Context.sol\":656:752  function _msgSender() internal view virtual returns (address) {... */\n    tag_197:\n        /* \"@openzeppelin/contracts/utils/Context.sol\":709:716  address */\n      0x00\n        /* \"@openzeppelin/contracts/utils/Context.sol\":735:745  msg.sender */\n      caller\n        /* \"@openzeppelin/contracts/utils/Context.sol\":728:745  return msg.sender */\n      swap1\n      pop\n        /* \"@openzeppelin/contracts/utils/Context.sol\":656:752  function _msgSender() internal view virtual returns (address) {... */\n      swap1\n      jump\t// out\n        /* \"@openzeppelin/contracts/utils/math/Math.sol\":25316:26232  function log10(uint256 value) internal pure returns (uint256) {... */\n    tag_205:\n        /* \"@openzeppelin/contracts/utils/math/Math.sol\":25369:25376  uint256 */\n      0x00\n        /* \"@openzeppelin/contracts/utils/math/Math.sol\":25388:25402  uint256 result */\n      dup1\n        /* \"@openzeppelin/contracts/utils/math/Math.sol\":25405:25406  0 */\n      0x00\n        /* \"@openzeppelin/contracts/utils/math/Math.sol\":25388:25406  uint256 result = 0 */\n      swap1\n      pop\n        /* \"@openzeppelin/contracts/utils/math/Math.sol\":25453:25461  10 ** 64 */\n      0x184f03e93ff9f4daa797ed6e38ed64bf6a1f010000000000000000\n        /* \"@openzeppelin/contracts/utils/math/Math.sol\":25444:25449  value */\n      dup4\n        /* \"@openzeppelin/contracts/utils/math/Math.sol\":25444:25461  value >= 10 ** 64 */\n      lt\n        /* \"@openzeppelin/contracts/utils/math/Math.sol\":25440:25543  if (value >= 10 ** 64) {... */\n      tag_218\n      jumpi\n        /* \"@openzeppelin/contracts/utils/math/Math.sol\":25490:25498  10 ** 64 */\n      0x184f03e93ff9f4daa797ed6e38ed64bf6a1f010000000000000000\n        /* \"@openzeppelin/contracts/utils/math/Math.sol\":25481:25498  value /= 10 ** 64 */\n      dup4\n      dup2\n      tag_219\n      jumpi\n      tag_220\n      tag_214\n      jump\t// in\n    tag_220:\n    tag_219:\n      div\n      swap3\n      pop\n        /* \"@openzeppelin/contracts/utils/math/Math.sol\":25526:25528  64 */\n      0x40\n        /* \"@openzeppelin/contracts/utils/math/Math.sol\":25516:25528  result += 64 */\n      dup2\n      add\n      swap1\n      pop\n        /* \"@openzeppelin/contracts/utils/math/Math.sol\":25440:25543  if (value >= 10 ** 64) {... */\n    tag_218:\n        /* \"@openzeppelin/contracts/utils/math/Math.sol\":25569:25577  10 ** 32 */\n      0x04ee2d6d415b85acef8100000000\n        /* \"@openzeppelin/contracts/utils/math/Math.sol\":25560:25565  value */\n      dup4\n        /* \"@openzeppelin/contracts/utils/math/Math.sol\":25560:25577  value >= 10 ** 32 */\n      lt\n        /* \"@openzeppelin/contracts/utils/math/Math.sol\":25556:25659  if (value >= 10 ** 32) {... */\n      tag_221\n      jumpi\n        /* \"@openzeppelin/contracts/utils/math/Math.sol\":25606:25614  10 ** 32 */\n      0x04ee2d6d415b85acef8100000000\n        /* \"@openzeppelin/contracts/utils/math/Math.sol\":25597:25614  value /= 10 ** 32 */\n      dup4\n      dup2\n      tag_222\n      jumpi\n      tag_223\n      tag_214\n      jump\t// in\n    tag_223:\n    tag_222:\n      div\n      swap3\n      pop\n        /* \"@openzeppelin/contracts/utils/math/Math.sol\":25642:25644  32 */\n      0x20\n        /* \"@openzeppelin/contracts/utils/math/Math.sol\":25632:25644  result += 32 */\n      dup2\n      add\n      swap1\n      pop\n        /* \"@openzeppelin/contracts/utils/math/Math.sol\":25556:25659  if (value >= 10 ** 32) {... */\n    tag_221:\n        /* \"@openzeppelin/contracts/utils/math/Math.sol\":25685:25693  10 ** 16 */\n      0x2386f26fc10000\n        /* \"@openzeppelin/contracts/utils/math/Math.sol\":25676:25681  value */\n      dup4\n        /* \"@openzeppelin/contracts/utils/math/Math.sol\":25676:25693  value >= 10 ** 16 */\n      lt\n        /* \"@openzeppelin/contracts/utils/math/Math.sol\":25672:25775  if (value >= 10 ** 16) {... */\n      tag_224\n      jumpi\n        /* \"@openzeppelin/contracts/utils/math/Math.sol\":25722:25730  10 ** 16 */\n      0x2386f26fc10000\n        /* \"@openzeppelin/contracts/utils/math/Math.sol\":25713:25730  value /= 10 ** 16 */\n      dup4\n      dup2\n      tag_225\n      jumpi\n      tag_226\n      tag_214\n      jump\t// in\n    tag_226:\n    tag_225:\n      div\n      swap3\n      pop\n        /* \"@openzeppelin/contracts/utils/math/Math.sol\":25758:25760  16 */\n      0x10\n        /* \"@openzeppelin/contracts/utils/math/Math.sol\":25748:25760  result += 16 */\n      dup2\n      add\n      swap1\n      pop\n        /* \"@openzeppelin/contracts/utils/math/Math.sol\":25672:25775  if (value >= 10 ** 16) {... */\n    tag_224:\n        /* \"@openzeppelin/contracts/utils/math/Math.sol\":25801:25808  10 ** 8 */\n      0x05f5e100\n        /* \"@openzeppelin/contracts/utils/math/Math.sol\":25792:25797  value */\n      dup4\n        /* \"@openzeppelin/contracts/utils/math/Math.sol\":25792:25808  value >= 10 ** 8 */\n      lt\n        /* \"@openzeppelin/contracts/utils/math/Math.sol\":25788:25888  if (value >= 10 ** 8) {... */\n      tag_227\n      jumpi\n        /* \"@openzeppelin/contracts/utils/math/Math.sol\":25837:25844  10 ** 8 */\n      0x05f5e100\n        /* \"@openzeppelin/contracts/utils/math/Math.sol\":25828:25844  value /= 10 ** 8 */\n      dup4\n      dup2\n      tag_228\n      jumpi\n      tag_229\n      tag_214\n      jump\t// in\n    tag_229:\n    tag_228:\n      div\n      swap3\n      pop\n        /* \"@openzeppelin/contracts/utils/math/Math.sol\":25872:25873  8 */\n      0x08\n        /* \"@openzeppelin/contracts/utils/math/Math.sol\":25862:25873  result += 8 */\n      dup2\n      add\n      swap1\n      pop\n        /* \"@openzeppelin/contracts/utils/math/Math.sol\":25788:25888  if (value >= 10 ** 8) {... */\n    tag_227:\n        /* \"@openzeppelin/contracts/utils/math/Math.sol\":25914:25921  10 ** 4 */\n      0x2710\n        /* \"@openzeppelin/contracts/utils/math/Math.sol\":25905:25910  value */\n      dup4\n        /* \"@openzeppelin/contracts/utils/math/Math.sol\":25905:25921  value >= 10 ** 4 */\n      lt\n        /* \"@openzeppelin/contracts/utils/math/Math.sol\":25901:26001  if (value >= 10 ** 4) {... */\n      tag_230\n      jumpi\n        /* \"@openzeppelin/contracts/utils/math/Math.sol\":25950:25957  10 ** 4 */\n      0x2710\n        /* \"@openzeppelin/contracts/utils/math/Math.sol\":25941:25957  value /= 10 ** 4 */\n      dup4\n      dup2\n      tag_231\n      jumpi\n      tag_232\n      tag_214\n      jump\t// in\n    tag_232:\n    tag_231:\n      div\n      swap3\n      pop\n        /* \"@openzeppelin/contracts/utils/math/Math.sol\":25985:25986  4 */\n      0x04\n        /* \"@openzeppelin/contracts/utils/math/Math.sol\":25975:25986  result += 4 */\n      dup2\n      add\n      swap1\n      pop\n        /* \"@openzeppelin/contracts/utils/math/Math.sol\":25901:26001  if (value >= 10 ** 4) {... */\n    tag_230:\n        /* \"@openzeppelin/contracts/utils/math/Math.sol\":26027:26034  10 ** 2 */\n      0x64\n        /* \"@openzeppelin/contracts/utils/math/Math.sol\":26018:26023  value */\n      dup4\n        /* \"@openzeppelin/contracts/utils/math/Math.sol\":26018:26034  value >= 10 ** 2 */\n      lt\n        /* \"@openzeppelin/contracts/utils/math/Math.sol\":26014:26114  if (value >= 10 ** 2) {... */\n      tag_233\n      jumpi\n        /* \"@openzeppelin/contracts/utils/math/Math.sol\":26063:26070  10 ** 2 */\n      0x64\n        /* \"@openzeppelin/contracts/utils/math/Math.sol\":26054:26070  value /= 10 ** 2 */\n      dup4\n      dup2\n      tag_234\n      jumpi\n      tag_235\n      tag_214\n      jump\t// in\n    tag_235:\n    tag_234:\n      div\n      swap3\n      pop\n        /* \"@openzeppelin/contracts/utils/math/Math.sol\":26098:26099  2 */\n      0x02\n        /* \"@openzeppelin/contracts/utils/math/Math.sol\":26088:26099  result += 2 */\n      dup2\n      add\n      swap1\n      pop\n        /* \"@openzeppelin/contracts/utils/math/Math.sol\":26014:26114  if (value >= 10 ** 2) {... */\n    tag_233:\n        /* \"@openzeppelin/contracts/utils/math/Math.sol\":26140:26147  10 ** 1 */\n      0x0a\n        /* \"@openzeppelin/contracts/utils/math/Math.sol\":26131:26136  value */\n      dup4\n        /* \"@openzeppelin/contracts/utils/math/Math.sol\":26131:26147  value >= 10 ** 1 */\n      lt\n        /* \"@openzeppelin/contracts/utils/math/Math.sol\":26127:26193  if (value >= 10 ** 1) {... */\n      tag_236\n      jumpi\n        /* \"@openzeppelin/contracts/utils/math/Math.sol\":26177:26178  1 */\n      0x01\n        /* \"@openzeppelin/contracts/utils/math/Math.sol\":26167:26178  result += 1 */\n      dup2\n      add\n      swap1\n      pop\n        /* \"@openzeppelin/contracts/utils/math/Math.sol\":26127:26193  if (value >= 10 ** 1) {... */\n    tag_236:\n        /* \"@openzeppelin/contracts/utils/math/Math.sol\":26219:26225  result */\n      dup1\n        /* \"@openzeppelin/contracts/utils/math/Math.sol\":26212:26225  return result */\n      swap2\n      pop\n      pop\n        /* \"@openzeppelin/contracts/utils/math/Math.sol\":25316:26232  function log10(uint256 value) internal pure returns (uint256) {... */\n      swap2\n      swap1\n      pop\n      jump\t// out\n    tag_74:\n      mload(0x40)\n      dup1\n      0xa0\n      add\n      0x40\n      mstore\n      dup1\n      0x00\n      dup2\n      mstore\n      0x20\n      add\n      and(0xffffffffffffffffffffffffffffffffffffffff, 0x00)\n      dup2\n      mstore\n      0x20\n      add\n      0x60\n      dup2\n      mstore\n      0x20\n      add\n      0x00\n      dup2\n      mstore\n      0x20\n      add\n      0x00\n      dup2\n      mstore\n      pop\n      swap1\n      jump\t// out\n        /* \"#utility.yul\":7:82   */\n    tag_237:\n        /* \"#utility.yul\":40:46   */\n      0x00\n        /* \"#utility.yul\":73:75   */\n      0x40\n        /* \"#utility.yul\":67:76   */\n      mload\n        /* \"#utility.yul\":57:76   */\n      swap1\n      pop\n        /* \"#utility.yul\":7:82   */\n      swap1\n      jump\t// out\n        /* \"#utility.yul\":88:205   */\n    tag_238:\n        /* \"#utility.yul\":197:198   */\n      0x00\n        /* \"#utility.yul\":194:195   */\n      dup1\n        /* \"#utility.yul\":187:199   */\n      revert\n        /* \"#utility.yul\":211:328   */\n    tag_239:\n        /* \"#utility.yul\":320:321   */\n      0x00\n        /* \"#utility.yul\":317:318   */\n      dup1\n        /* \"#utility.yul\":310:322   */\n      revert\n        /* \"#utility.yul\":334:460   */\n    tag_240:\n        /* \"#utility.yul\":371:378   */\n      0x00\n        /* \"#utility.yul\":411:453   */\n      0xffffffffffffffffffffffffffffffffffffffff\n        /* \"#utility.yul\":404:409   */\n      dup3\n        /* \"#utility.yul\":400:454   */\n      and\n        /* \"#utility.yul\":389:454   */\n      swap1\n      pop\n        /* \"#utility.yul\":334:460   */\n      swap2\n      swap1\n      pop\n      jump\t// out\n        /* \"#utility.yul\":466:562   */\n    tag_241:\n        /* \"#utility.yul\":503:510   */\n      0x00\n        /* \"#utility.yul\":532:556   */\n      tag_316\n        /* \"#utility.yul\":550:555   */\n      dup3\n        /* \"#utility.yul\":532:556   */\n      tag_240\n      jump\t// in\n    tag_316:\n        /* \"#utility.yul\":521:556   */\n      swap1\n      pop\n        /* \"#utility.yul\":466:562   */\n      swap2\n      swap1\n      pop\n      jump\t// out\n        /* \"#utility.yul\":568:690   */\n    tag_242:\n        /* \"#utility.yul\":641:665   */\n      tag_318\n        /* \"#utility.yul\":659:664   */\n      dup2\n        /* \"#utility.yul\":641:665   */\n      tag_241\n      jump\t// in\n    tag_318:\n        /* \"#utility.yul\":634:639   */\n      dup2\n        /* \"#utility.yul\":631:666   */\n      eq\n        /* \"#utility.yul\":621:684   */\n      tag_319\n      jumpi\n        /* \"#utility.yul\":680:681   */\n      0x00\n        /* \"#utility.yul\":677:678   */\n      dup1\n        /* \"#utility.yul\":670:682   */\n      revert\n        /* \"#utility.yul\":621:684   */\n    tag_319:\n        /* \"#utility.yul\":568:690   */\n      pop\n      jump\t// out\n        /* \"#utility.yul\":696:835   */\n    tag_243:\n        /* \"#utility.yul\":742:747   */\n      0x00\n        /* \"#utility.yul\":780:786   */\n      dup2\n        /* \"#utility.yul\":767:787   */\n      calldataload\n        /* \"#utility.yul\":758:787   */\n      swap1\n      pop\n        /* \"#utility.yul\":796:829   */\n      tag_321\n        /* \"#utility.yul\":823:828   */\n      dup2\n        /* \"#utility.yul\":796:829   */\n      tag_242\n      jump\t// in\n    tag_321:\n        /* \"#utility.yul\":696:835   */\n      swap3\n      swap2\n      pop\n      pop\n      jump\t// out\n        /* \"#utility.yul\":841:918   */\n    tag_244:\n        /* \"#utility.yul\":878:885   */\n      0x00\n        /* \"#utility.yul\":907:912   */\n      dup2\n        /* \"#utility.yul\":896:912   */\n      swap1\n      pop\n        /* \"#utility.yul\":841:918   */\n      swap2\n      swap1\n      pop\n      jump\t// out\n        /* \"#utility.yul\":924:1046   */\n    tag_245:\n        /* \"#utility.yul\":997:1021   */\n      tag_324\n        /* \"#utility.yul\":1015:1020   */\n      dup2\n        /* \"#utility.yul\":997:1021   */\n      tag_244\n      jump\t// in\n    tag_324:\n        /* \"#utility.yul\":990:995   */\n      dup2\n        /* \"#utility.yul\":987:1022   */\n      eq\n        /* \"#utility.yul\":977:1040   */\n      tag_325\n      jumpi\n        /* \"#utility.yul\":1036:1037   */\n      0x00\n        /* \"#utility.yul\":1033:1034   */\n      dup1\n        /* \"#utility.yul\":1026:1038   */\n      revert\n        /* \"#utility.yul\":977:1040   */\n    tag_325:\n        /* \"#utility.yul\":924:1046   */\n      pop\n      jump\t// out\n        /* \"#utility.yul\":1052:1191   */\n    tag_246:\n        /* \"#utility.yul\":1098:1103   */\n      0x00\n        /* \"#utility.yul\":1136:1142   */\n      dup2\n        /* \"#utility.yul\":1123:1143   */\n      calldataload\n        /* \"#utility.yul\":1114:1143   */\n      swap1\n      pop\n        /* \"#utility.yul\":1152:1185   */\n      tag_327\n        /* \"#utility.yul\":1179:1184   */\n      dup2\n        /* \"#utility.yul\":1152:1185   */\n      tag_245\n      jump\t// in\n    tag_327:\n        /* \"#utility.yul\":1052:1191   */\n      swap3\n      swap2\n      pop\n      pop\n      jump\t// out\n        /* \"#utility.yul\":1197:1671   */\n    tag_18:\n        /* \"#utility.yul\":1265:1271   */\n      0x00\n        /* \"#utility.yul\":1273:1279   */\n      dup1\n        /* \"#utility.yul\":1322:1324   */\n      0x40\n        /* \"#utility.yul\":1310:1319   */\n      dup4\n        /* \"#utility.yul\":1301:1308   */\n      dup6\n        /* \"#utility.yul\":1297:1320   */\n      sub\n        /* \"#utility.yul\":1293:1325   */\n      slt\n        /* \"#utility.yul\":1290:1409   */\n      iszero\n      tag_329\n      jumpi\n        /* \"#utility.yul\":1328:1407   */\n      tag_330\n      tag_238\n      jump\t// in\n    tag_330:\n        /* \"#utility.yul\":1290:1409   */\n    tag_329:\n        /* \"#utility.yul\":1448:1449   */\n      0x00\n        /* \"#utility.yul\":1473:1526   */\n      tag_331\n        /* \"#utility.yul\":1518:1525   */\n      dup6\n        /* \"#utility.yul\":1509:1515   */\n      dup3\n        /* \"#utility.yul\":1498:1507   */\n      dup7\n        /* \"#utility.yul\":1494:1516   */\n      add\n        /* \"#utility.yul\":1473:1526   */\n      tag_243\n      jump\t// in\n    tag_331:\n        /* \"#utility.yul\":1463:1526   */\n      swap3\n      pop\n        /* \"#utility.yul\":1419:1536   */\n      pop\n        /* \"#utility.yul\":1575:1577   */\n      0x20\n        /* \"#utility.yul\":1601:1654   */\n      tag_332\n        /* \"#utility.yul\":1646:1653   */\n      dup6\n        /* \"#utility.yul\":1637:1643   */\n      dup3\n        /* \"#utility.yul\":1626:1635   */\n      dup7\n        /* \"#utility.yul\":1622:1644   */\n      add\n        /* \"#utility.yul\":1601:1654   */\n      tag_246\n      jump\t// in\n    tag_332:\n        /* \"#utility.yul\":1591:1654   */\n      swap2\n      pop\n        /* \"#utility.yul\":1546:1664   */\n      pop\n        /* \"#utility.yul\":1197:1671   */\n      swap3\n      pop\n      swap3\n      swap1\n      pop\n      jump\t// out\n        /* \"#utility.yul\":1677:1795   */\n    tag_247:\n        /* \"#utility.yul\":1764:1788   */\n      tag_334\n        /* \"#utility.yul\":1782:1787   */\n      dup2\n        /* \"#utility.yul\":1764:1788   */\n      tag_244\n      jump\t// in\n    tag_334:\n        /* \"#utility.yul\":1759:1762   */\n      dup3\n        /* \"#utility.yul\":1752:1789   */\n      mstore\n        /* \"#utility.yul\":1677:1795   */\n      pop\n      pop\n      jump\t// out\n        /* \"#utility.yul\":1801:1919   */\n    tag_248:\n        /* \"#utility.yul\":1888:1912   */\n      tag_336\n        /* \"#utility.yul\":1906:1911   */\n      dup2\n        /* \"#utility.yul\":1888:1912   */\n      tag_241\n      jump\t// in\n    tag_336:\n        /* \"#utility.yul\":1883:1886   */\n      dup3\n        /* \"#utility.yul\":1876:1913   */\n      mstore\n        /* \"#utility.yul\":1801:1919   */\n      pop\n      pop\n      jump\t// out\n        /* \"#utility.yul\":1925:2024   */\n    tag_249:\n        /* \"#utility.yul\":1977:1983   */\n      0x00\n        /* \"#utility.yul\":2011:2016   */\n      dup2\n        /* \"#utility.yul\":2005:2017   */\n      mload\n        /* \"#utility.yul\":1995:2017   */\n      swap1\n      pop\n        /* \"#utility.yul\":1925:2024   */\n      swap2\n      swap1\n      pop\n      jump\t// out\n        /* \"#utility.yul\":2030:2199   */\n    tag_250:\n        /* \"#utility.yul\":2114:2125   */\n      0x00\n        /* \"#utility.yul\":2148:2154   */\n      dup3\n        /* \"#utility.yul\":2143:2146   */\n      dup3\n        /* \"#utility.yul\":2136:2155   */\n      mstore\n        /* \"#utility.yul\":2188:2192   */\n      0x20\n        /* \"#utility.yul\":2183:2186   */\n      dup3\n        /* \"#utility.yul\":2179:2193   */\n      add\n        /* \"#utility.yul\":2164:2193   */\n      swap1\n      pop\n        /* \"#utility.yul\":2030:2199   */\n      swap3\n      swap2\n      pop\n      pop\n      jump\t// out\n        /* \"#utility.yul\":2205:2344   */\n    tag_251:\n        /* \"#utility.yul\":2294:2300   */\n      dup3\n        /* \"#utility.yul\":2289:2292   */\n      dup2\n        /* \"#utility.yul\":2284:2287   */\n      dup4\n        /* \"#utility.yul\":2278:2301   */\n      mcopy\n        /* \"#utility.yul\":2335:2336   */\n      0x00\n        /* \"#utility.yul\":2326:2332   */\n      dup4\n        /* \"#utility.yul\":2321:2324   */\n      dup4\n        /* \"#utility.yul\":2317:2333   */\n      add\n        /* \"#utility.yul\":2310:2337   */\n      mstore\n        /* \"#utility.yul\":2205:2344   */\n      pop\n      pop\n      pop\n      jump\t// out\n        /* \"#utility.yul\":2350:2452   */\n    tag_252:\n        /* \"#utility.yul\":2391:2397   */\n      0x00\n        /* \"#utility.yul\":2442:2444   */\n      0x1f\n        /* \"#utility.yul\":2438:2445   */\n      not\n        /* \"#utility.yul\":2433:2435   */\n      0x1f\n        /* \"#utility.yul\":2426:2431   */\n      dup4\n        /* \"#utility.yul\":2422:2436   */\n      add\n        /* \"#utility.yul\":2418:2446   */\n      and\n        /* \"#utility.yul\":2408:2446   */\n      swap1\n      pop\n        /* \"#utility.yul\":2350:2452   */\n      swap2\n      swap1\n      pop\n      jump\t// out\n        /* \"#utility.yul\":2458:2835   */\n    tag_253:\n        /* \"#utility.yul\":2546:2549   */\n      0x00\n        /* \"#utility.yul\":2574:2613   */\n      tag_342\n        /* \"#utility.yul\":2607:2612   */\n      dup3\n        /* \"#utility.yul\":2574:2613   */\n      tag_249\n      jump\t// in\n    tag_342:\n        /* \"#utility.yul\":2629:2700   */\n      tag_343\n        /* \"#utility.yul\":2693:2699   */\n      dup2\n        /* \"#utility.yul\":2688:2691   */\n      dup6\n        /* \"#utility.yul\":2629:2700   */\n      tag_250\n      jump\t// in\n    tag_343:\n        /* \"#utility.yul\":2622:2700   */\n      swap4\n      pop\n        /* \"#utility.yul\":2709:2774   */\n      tag_344\n        /* \"#utility.yul\":2767:2773   */\n      dup2\n        /* \"#utility.yul\":2762:2765   */\n      dup6\n        /* \"#utility.yul\":2755:2759   */\n      0x20\n        /* \"#utility.yul\":2748:2753   */\n      dup7\n        /* \"#utility.yul\":2744:2760   */\n      add\n        /* \"#utility.yul\":2709:2774   */\n      tag_251\n      jump\t// in\n    tag_344:\n        /* \"#utility.yul\":2799:2828   */\n      tag_345\n        /* \"#utility.yul\":2821:2827   */\n      dup2\n        /* \"#utility.yul\":2799:2828   */\n      tag_252\n      jump\t// in\n    tag_345:\n        /* \"#utility.yul\":2794:2797   */\n      dup5\n        /* \"#utility.yul\":2790:2829   */\n      add\n        /* \"#utility.yul\":2783:2829   */\n      swap2\n      pop\n        /* \"#utility.yul\":2550:2835   */\n      pop\n        /* \"#utility.yul\":2458:2835   */\n      swap3\n      swap2\n      pop\n      pop\n      jump\t// out\n        /* \"#utility.yul\":2841:3596   */\n    tag_21:\n        /* \"#utility.yul\":3066:3070   */\n      0x00\n        /* \"#utility.yul\":3104:3107   */\n      0xa0\n        /* \"#utility.yul\":3093:3102   */\n      dup3\n        /* \"#utility.yul\":3089:3108   */\n      add\n        /* \"#utility.yul\":3081:3108   */\n      swap1\n      pop\n        /* \"#utility.yul\":3118:3189   */\n      tag_347\n        /* \"#utility.yul\":3186:3187   */\n      0x00\n        /* \"#utility.yul\":3175:3184   */\n      dup4\n        /* \"#utility.yul\":3171:3188   */\n      add\n        /* \"#utility.yul\":3162:3168   */\n      dup9\n        /* \"#utility.yul\":3118:3189   */\n      tag_247\n      jump\t// in\n    tag_347:\n        /* \"#utility.yul\":3199:3271   */\n      tag_348\n        /* \"#utility.yul\":3267:3269   */\n      0x20\n        /* \"#utility.yul\":3256:3265   */\n      dup4\n        /* \"#utility.yul\":3252:3270   */\n      add\n        /* \"#utility.yul\":3243:3249   */\n      dup8\n        /* \"#utility.yul\":3199:3271   */\n      tag_248\n      jump\t// in\n    tag_348:\n        /* \"#utility.yul\":3318:3327   */\n      dup2\n        /* \"#utility.yul\":3312:3316   */\n      dup2\n        /* \"#utility.yul\":3308:3328   */\n      sub\n        /* \"#utility.yul\":3303:3305   */\n      0x40\n        /* \"#utility.yul\":3292:3301   */\n      dup4\n        /* \"#utility.yul\":3288:3306   */\n      add\n        /* \"#utility.yul\":3281:3329   */\n      mstore\n        /* \"#utility.yul\":3346:3424   */\n      tag_349\n        /* \"#utility.yul\":3419:3423   */\n      dup2\n        /* \"#utility.yul\":3410:3416   */\n      dup7\n        /* \"#utility.yul\":3346:3424   */\n      tag_253\n      jump\t// in\n    tag_349:\n        /* \"#utility.yul\":3338:3424   */\n      swap1\n      pop\n        /* \"#utility.yul\":3434:3506   */\n      tag_350\n        /* \"#utility.yul\":3502:3504   */\n      0x60\n        /* \"#utility.yul\":3491:3500   */\n      dup4\n        /* \"#utility.yul\":3487:3505   */\n      add\n        /* \"#utility.yul\":3478:3484   */\n      dup6\n        /* \"#utility.yul\":3434:3506   */\n      tag_247\n      jump\t// in\n    tag_350:\n        /* \"#utility.yul\":3516:3589   */\n      tag_351\n        /* \"#utility.yul\":3584:3587   */\n      0x80\n        /* \"#utility.yul\":3573:3582   */\n      dup4\n        /* \"#utility.yul\":3569:3588   */\n      add\n        /* \"#utility.yul\":3560:3566   */\n      dup5\n        /* \"#utility.yul\":3516:3589   */\n      tag_247\n      jump\t// in\n    tag_351:\n        /* \"#utility.yul\":2841:3596   */\n      swap7\n      swap6\n      pop\n      pop\n      pop\n      pop\n      pop\n      pop\n      jump\t// out\n        /* \"#utility.yul\":3602:3710   */\n    tag_254:\n        /* \"#utility.yul\":3679:3703   */\n      tag_353\n        /* \"#utility.yul\":3697:3702   */\n      dup2\n        /* \"#utility.yul\":3679:3703   */\n      tag_244\n      jump\t// in\n    tag_353:\n        /* \"#utility.yul\":3674:3677   */\n      dup3\n        /* \"#utility.yul\":3667:3704   */\n      mstore\n        /* \"#utility.yul\":3602:3710   */\n      pop\n      pop\n      jump\t// out\n        /* \"#utility.yul\":3716:3824   */\n    tag_255:\n        /* \"#utility.yul\":3793:3817   */\n      tag_355\n        /* \"#utility.yul\":3811:3816   */\n      dup2\n        /* \"#utility.yul\":3793:3817   */\n      tag_241\n      jump\t// in\n    tag_355:\n        /* \"#utility.yul\":3788:3791   */\n      dup3\n        /* \"#utility.yul\":3781:3818   */\n      mstore\n        /* \"#utility.yul\":3716:3824   */\n      pop\n      pop\n      jump\t// out\n        /* \"#utility.yul\":3830:3989   */\n    tag_256:\n        /* \"#utility.yul\":3904:3915   */\n      0x00\n        /* \"#utility.yul\":3938:3944   */\n      dup3\n        /* \"#utility.yul\":3933:3936   */\n      dup3\n        /* \"#utility.yul\":3926:3945   */\n      mstore\n        /* \"#utility.yul\":3978:3982   */\n      0x20\n        /* \"#utility.yul\":3973:3976   */\n      dup3\n        /* \"#utility.yul\":3969:3983   */\n      add\n        /* \"#utility.yul\":3954:3983   */\n      swap1\n      pop\n        /* \"#utility.yul\":3830:3989   */\n      swap3\n      swap2\n      pop\n      pop\n      jump\t// out\n        /* \"#utility.yul\":3995:4352   */\n    tag_257:\n        /* \"#utility.yul\":4073:4076   */\n      0x00\n        /* \"#utility.yul\":4101:4140   */\n      tag_358\n        /* \"#utility.yul\":4134:4139   */\n      dup3\n        /* \"#utility.yul\":4101:4140   */\n      tag_249\n      jump\t// in\n    tag_358:\n        /* \"#utility.yul\":4156:4217   */\n      tag_359\n        /* \"#utility.yul\":4210:4216   */\n      dup2\n        /* \"#utility.yul\":4205:4208   */\n      dup6\n        /* \"#utility.yul\":4156:4217   */\n      tag_256\n      jump\t// in\n    tag_359:\n        /* \"#utility.yul\":4149:4217   */\n      swap4\n      pop\n        /* \"#utility.yul\":4226:4291   */\n      tag_360\n        /* \"#utility.yul\":4284:4290   */\n      dup2\n        /* \"#utility.yul\":4279:4282   */\n      dup6\n        /* \"#utility.yul\":4272:4276   */\n      0x20\n        /* \"#utility.yul\":4265:4270   */\n      dup7\n        /* \"#utility.yul\":4261:4277   */\n      add\n        /* \"#utility.yul\":4226:4291   */\n      tag_251\n      jump\t// in\n    tag_360:\n        /* \"#utility.yul\":4316:4345   */\n      tag_361\n        /* \"#utility.yul\":4338:4344   */\n      dup2\n        /* \"#utility.yul\":4316:4345   */\n      tag_252\n      jump\t// in\n    tag_361:\n        /* \"#utility.yul\":4311:4314   */\n      dup5\n        /* \"#utility.yul\":4307:4346   */\n      add\n        /* \"#utility.yul\":4300:4346   */\n      swap2\n      pop\n        /* \"#utility.yul\":4077:4352   */\n      pop\n        /* \"#utility.yul\":3995:4352   */\n      swap3\n      swap2\n      pop\n      pop\n      jump\t// out\n        /* \"#utility.yul\":4410:5543   */\n    tag_258:\n        /* \"#utility.yul\":4525:4528   */\n      0x00\n        /* \"#utility.yul\":4561:4565   */\n      0xa0\n        /* \"#utility.yul\":4556:4559   */\n      dup4\n        /* \"#utility.yul\":4552:4566   */\n      add\n        /* \"#utility.yul\":4646:4650   */\n      0x00\n        /* \"#utility.yul\":4639:4644   */\n      dup4\n        /* \"#utility.yul\":4635:4651   */\n      add\n        /* \"#utility.yul\":4629:4652   */\n      mload\n        /* \"#utility.yul\":4665:4728   */\n      tag_363\n        /* \"#utility.yul\":4722:4726   */\n      0x00\n        /* \"#utility.yul\":4717:4720   */\n      dup7\n        /* \"#utility.yul\":4713:4727   */\n      add\n        /* \"#utility.yul\":4699:4711   */\n      dup3\n        /* \"#utility.yul\":4665:4728   */\n      tag_254\n      jump\t// in\n    tag_363:\n        /* \"#utility.yul\":4576:4738   */\n      pop\n        /* \"#utility.yul\":4822:4826   */\n      0x20\n        /* \"#utility.yul\":4815:4820   */\n      dup4\n        /* \"#utility.yul\":4811:4827   */\n      add\n        /* \"#utility.yul\":4805:4828   */\n      mload\n        /* \"#utility.yul\":4841:4904   */\n      tag_364\n        /* \"#utility.yul\":4898:4902   */\n      0x20\n        /* \"#utility.yul\":4893:4896   */\n      dup7\n        /* \"#utility.yul\":4889:4903   */\n      add\n        /* \"#utility.yul\":4875:4887   */\n      dup3\n        /* \"#utility.yul\":4841:4904   */\n      tag_255\n      jump\t// in\n    tag_364:\n        /* \"#utility.yul\":4748:4914   */\n      pop\n        /* \"#utility.yul\":4999:5003   */\n      0x40\n        /* \"#utility.yul\":4992:4997   */\n      dup4\n        /* \"#utility.yul\":4988:5004   */\n      add\n        /* \"#utility.yul\":4982:5005   */\n      mload\n        /* \"#utility.yul\":5052:5055   */\n      dup5\n        /* \"#utility.yul\":5046:5050   */\n      dup3\n        /* \"#utility.yul\":5042:5056   */\n      sub\n        /* \"#utility.yul\":5035:5039   */\n      0x40\n        /* \"#utility.yul\":5030:5033   */\n      dup7\n        /* \"#utility.yul\":5026:5040   */\n      add\n        /* \"#utility.yul\":5019:5057   */\n      mstore\n        /* \"#utility.yul\":5078:5151   */\n      tag_365\n        /* \"#utility.yul\":5146:5150   */\n      dup3\n        /* \"#utility.yul\":5132:5144   */\n      dup3\n        /* \"#utility.yul\":5078:5151   */\n      tag_257\n      jump\t// in\n    tag_365:\n        /* \"#utility.yul\":5070:5151   */\n      swap2\n      pop\n        /* \"#utility.yul\":4924:5162   */\n      pop\n        /* \"#utility.yul\":5249:5253   */\n      0x60\n        /* \"#utility.yul\":5242:5247   */\n      dup4\n        /* \"#utility.yul\":5238:5254   */\n      add\n        /* \"#utility.yul\":5232:5255   */\n      mload\n        /* \"#utility.yul\":5268:5331   */\n      tag_366\n        /* \"#utility.yul\":5325:5329   */\n      0x60\n        /* \"#utility.yul\":5320:5323   */\n      dup7\n        /* \"#utility.yul\":5316:5330   */\n      add\n        /* \"#utility.yul\":5302:5314   */\n      dup3\n        /* \"#utility.yul\":5268:5331   */\n      tag_254\n      jump\t// in\n    tag_366:\n        /* \"#utility.yul\":5172:5341   */\n      pop\n        /* \"#utility.yul\":5424:5428   */\n      0x80\n        /* \"#utility.yul\":5417:5422   */\n      dup4\n        /* \"#utility.yul\":5413:5429   */\n      add\n        /* \"#utility.yul\":5407:5430   */\n      mload\n        /* \"#utility.yul\":5443:5506   */\n      tag_367\n        /* \"#utility.yul\":5500:5504   */\n      0x80\n        /* \"#utility.yul\":5495:5498   */\n      dup7\n        /* \"#utility.yul\":5491:5505   */\n      add\n        /* \"#utility.yul\":5477:5489   */\n      dup3\n        /* \"#utility.yul\":5443:5506   */\n      tag_254\n      jump\t// in\n    tag_367:\n        /* \"#utility.yul\":5351:5516   */\n      pop\n        /* \"#utility.yul\":5533:5537   */\n      dup1\n        /* \"#utility.yul\":5526:5537   */\n      swap2\n      pop\n        /* \"#utility.yul\":4530:5543   */\n      pop\n        /* \"#utility.yul\":4410:5543   */\n      swap3\n      swap2\n      pop\n      pop\n      jump\t// out\n        /* \"#utility.yul\":5549:5914   */\n    tag_26:\n        /* \"#utility.yul\":5688:5692   */\n      0x00\n        /* \"#utility.yul\":5726:5728   */\n      0x20\n        /* \"#utility.yul\":5715:5724   */\n      dup3\n        /* \"#utility.yul\":5711:5729   */\n      add\n        /* \"#utility.yul\":5703:5729   */\n      swap1\n      pop\n        /* \"#utility.yul\":5775:5784   */\n      dup2\n        /* \"#utility.yul\":5769:5773   */\n      dup2\n        /* \"#utility.yul\":5765:5785   */\n      sub\n        /* \"#utility.yul\":5761:5762   */\n      0x00\n        /* \"#utility.yul\":5750:5759   */\n      dup4\n        /* \"#utility.yul\":5746:5763   */\n      add\n        /* \"#utility.yul\":5739:5786   */\n      mstore\n        /* \"#utility.yul\":5803:5907   */\n      tag_369\n        /* \"#utility.yul\":5902:5906   */\n      dup2\n        /* \"#utility.yul\":5893:5899   */\n      dup5\n        /* \"#utility.yul\":5803:5907   */\n      tag_258\n      jump\t// in\n    tag_369:\n        /* \"#utility.yul\":5795:5907   */\n      swap1\n      pop\n        /* \"#utility.yul\":5549:5914   */\n      swap3\n      swap2\n      pop\n      pop\n      jump\t// out\n        /* \"#utility.yul\":5920:6009   */\n    tag_259:\n        /* \"#utility.yul\":5956:5963   */\n      0x00\n        /* \"#utility.yul\":5996:6002   */\n      0xffff\n        /* \"#utility.yul\":5989:5994   */\n      dup3\n        /* \"#utility.yul\":5985:6003   */\n      and\n        /* \"#utility.yul\":5974:6003   */\n      swap1\n      pop\n        /* \"#utility.yul\":5920:6009   */\n      swap2\n      swap1\n      pop\n      jump\t// out\n        /* \"#utility.yul\":6015:6135   */\n    tag_260:\n        /* \"#utility.yul\":6087:6110   */\n      tag_372\n        /* \"#utility.yul\":6104:6109   */\n      dup2\n        /* \"#utility.yul\":6087:6110   */\n      tag_259\n      jump\t// in\n    tag_372:\n        /* \"#utility.yul\":6080:6085   */\n      dup2\n        /* \"#utility.yul\":6077:6111   */\n      eq\n        /* \"#utility.yul\":6067:6129   */\n      tag_373\n      jumpi\n        /* \"#utility.yul\":6125:6126   */\n      0x00\n        /* \"#utility.yul\":6122:6123   */\n      dup1\n        /* \"#utility.yul\":6115:6127   */\n      revert\n        /* \"#utility.yul\":6067:6129   */\n    tag_373:\n        /* \"#utility.yul\":6015:6135   */\n      pop\n      jump\t// out\n        /* \"#utility.yul\":6141:6278   */\n    tag_261:\n        /* \"#utility.yul\":6186:6191   */\n      0x00\n        /* \"#utility.yul\":6224:6230   */\n      dup2\n        /* \"#utility.yul\":6211:6231   */\n      calldataload\n        /* \"#utility.yul\":6202:6231   */\n      swap1\n      pop\n        /* \"#utility.yul\":6240:6272   */\n      tag_375\n        /* \"#utility.yul\":6266:6271   */\n      dup2\n        /* \"#utility.yul\":6240:6272   */\n      tag_260\n      jump\t// in\n    tag_375:\n        /* \"#utility.yul\":6141:6278   */\n      swap3\n      swap2\n      pop\n      pop\n      jump\t// out\n        /* \"#utility.yul\":6284:6611   */\n    tag_32:\n        /* \"#utility.yul\":6342:6348   */\n      0x00\n        /* \"#utility.yul\":6391:6393   */\n      0x20\n        /* \"#utility.yul\":6379:6388   */\n      dup3\n        /* \"#utility.yul\":6370:6377   */\n      dup5\n        /* \"#utility.yul\":6366:6389   */\n      sub\n        /* \"#utility.yul\":6362:6394   */\n      slt\n        /* \"#utility.yul\":6359:6478   */\n      iszero\n      tag_377\n      jumpi\n        /* \"#utility.yul\":6397:6476   */\n      tag_378\n      tag_238\n      jump\t// in\n    tag_378:\n        /* \"#utility.yul\":6359:6478   */\n    tag_377:\n        /* \"#utility.yul\":6517:6518   */\n      0x00\n        /* \"#utility.yul\":6542:6594   */\n      tag_379\n        /* \"#utility.yul\":6586:6593   */\n      dup5\n        /* \"#utility.yul\":6577:6583   */\n      dup3\n        /* \"#utility.yul\":6566:6575   */\n      dup6\n        /* \"#utility.yul\":6562:6584   */\n      add\n        /* \"#utility.yul\":6542:6594   */\n      tag_261\n      jump\t// in\n    tag_379:\n        /* \"#utility.yul\":6532:6594   */\n      swap2\n      pop\n        /* \"#utility.yul\":6488:6604   */\n      pop\n        /* \"#utility.yul\":6284:6611   */\n      swap3\n      swap2\n      pop\n      pop\n      jump\t// out\n        /* \"#utility.yul\":6617:6734   */\n    tag_262:\n        /* \"#utility.yul\":6726:6727   */\n      0x00\n        /* \"#utility.yul\":6723:6724   */\n      dup1\n        /* \"#utility.yul\":6716:6728   */\n      revert\n        /* \"#utility.yul\":6740:6857   */\n    tag_263:\n        /* \"#utility.yul\":6849:6850   */\n      0x00\n        /* \"#utility.yul\":6846:6847   */\n      dup1\n        /* \"#utility.yul\":6839:6851   */\n      revert\n        /* \"#utility.yul\":6863:7043   */\n    tag_208:\n        /* \"#utility.yul\":6911:6988   */\n      0x4e487b7100000000000000000000000000000000000000000000000000000000\n        /* \"#utility.yul\":6908:6909   */\n      0x00\n        /* \"#utility.yul\":6901:6989   */\n      mstore\n        /* \"#utility.yul\":7008:7012   */\n      0x41\n        /* \"#utility.yul\":7005:7006   */\n      0x04\n        /* \"#utility.yul\":6998:7013   */\n      mstore\n        /* \"#utility.yul\":7032:7036   */\n      0x24\n        /* \"#utility.yul\":7029:7030   */\n      0x00\n        /* \"#utility.yul\":7022:7037   */\n      revert\n        /* \"#utility.yul\":7049:7330   */\n    tag_264:\n        /* \"#utility.yul\":7132:7159   */\n      tag_384\n        /* \"#utility.yul\":7154:7158   */\n      dup3\n        /* \"#utility.yul\":7132:7159   */\n      tag_252\n      jump\t// in\n    tag_384:\n        /* \"#utility.yul\":7124:7130   */\n      dup2\n        /* \"#utility.yul\":7120:7160   */\n      add\n        /* \"#utility.yul\":7262:7268   */\n      dup2\n        /* \"#utility.yul\":7250:7260   */\n      dup2\n        /* \"#utility.yul\":7247:7269   */\n      lt\n        /* \"#utility.yul\":7226:7244   */\n      0xffffffffffffffff\n        /* \"#utility.yul\":7214:7224   */\n      dup3\n        /* \"#utility.yul\":7211:7245   */\n      gt\n        /* \"#utility.yul\":7208:7270   */\n      or\n        /* \"#utility.yul\":7205:7293   */\n      iszero\n      tag_385\n      jumpi\n        /* \"#utility.yul\":7273:7291   */\n      tag_386\n      tag_208\n      jump\t// in\n    tag_386:\n        /* \"#utility.yul\":7205:7293   */\n    tag_385:\n        /* \"#utility.yul\":7313:7323   */\n      dup1\n        /* \"#utility.yul\":7309:7311   */\n      0x40\n        /* \"#utility.yul\":7302:7324   */\n      mstore\n        /* \"#utility.yul\":7092:7330   */\n      pop\n        /* \"#utility.yul\":7049:7330   */\n      pop\n      pop\n      jump\t// out\n        /* \"#utility.yul\":7336:7465   */\n    tag_265:\n        /* \"#utility.yul\":7370:7376   */\n      0x00\n        /* \"#utility.yul\":7397:7417   */\n      tag_388\n      tag_237\n      jump\t// in\n    tag_388:\n        /* \"#utility.yul\":7387:7417   */\n      swap1\n      pop\n        /* \"#utility.yul\":7426:7459   */\n      tag_389\n        /* \"#utility.yul\":7454:7458   */\n      dup3\n        /* \"#utility.yul\":7446:7452   */\n      dup3\n        /* \"#utility.yul\":7426:7459   */\n      tag_264\n      jump\t// in\n    tag_389:\n        /* \"#utility.yul\":7336:7465   */\n      swap2\n      swap1\n      pop\n      jump\t// out\n        /* \"#utility.yul\":7471:7779   */\n    tag_266:\n        /* \"#utility.yul\":7533:7537   */\n      0x00\n        /* \"#utility.yul\":7623:7641   */\n      0xffffffffffffffff\n        /* \"#utility.yul\":7615:7621   */\n      dup3\n        /* \"#utility.yul\":7612:7642   */\n      gt\n        /* \"#utility.yul\":7609:7665   */\n      iszero\n      tag_391\n      jumpi\n        /* \"#utility.yul\":7645:7663   */\n      tag_392\n      tag_208\n      jump\t// in\n    tag_392:\n        /* \"#utility.yul\":7609:7665   */\n    tag_391:\n        /* \"#utility.yul\":7683:7712   */\n      tag_393\n        /* \"#utility.yul\":7705:7711   */\n      dup3\n        /* \"#utility.yul\":7683:7712   */\n      tag_252\n      jump\t// in\n    tag_393:\n        /* \"#utility.yul\":7675:7712   */\n      swap1\n      pop\n        /* \"#utility.yul\":7767:7771   */\n      0x20\n        /* \"#utility.yul\":7761:7765   */\n      dup2\n        /* \"#utility.yul\":7757:7772   */\n      add\n        /* \"#utility.yul\":7749:7772   */\n      swap1\n      pop\n        /* \"#utility.yul\":7471:7779   */\n      swap2\n      swap1\n      pop\n      jump\t// out\n        /* \"#utility.yul\":7785:7933   */\n    tag_267:\n        /* \"#utility.yul\":7883:7889   */\n      dup3\n        /* \"#utility.yul\":7878:7881   */\n      dup2\n        /* \"#utility.yul\":7873:7876   */\n      dup4\n        /* \"#utility.yul\":7860:7890   */\n      calldatacopy\n        /* \"#utility.yul\":7924:7925   */\n      0x00\n        /* \"#utility.yul\":7915:7921   */\n      dup4\n        /* \"#utility.yul\":7910:7913   */\n      dup4\n        /* \"#utility.yul\":7906:7922   */\n      add\n        /* \"#utility.yul\":7899:7926   */\n      mstore\n        /* \"#utility.yul\":7785:7933   */\n      pop\n      pop\n      pop\n      jump\t// out\n        /* \"#utility.yul\":7939:8364   */\n    tag_268:\n        /* \"#utility.yul\":8017:8022   */\n      0x00\n        /* \"#utility.yul\":8042:8108   */\n      tag_396\n        /* \"#utility.yul\":8058:8107   */\n      tag_397\n        /* \"#utility.yul\":8100:8106   */\n      dup5\n        /* \"#utility.yul\":8058:8107   */\n      tag_266\n      jump\t// in\n    tag_397:\n        /* \"#utility.yul\":8042:8108   */\n      tag_265\n      jump\t// in\n    tag_396:\n        /* \"#utility.yul\":8033:8108   */\n      swap1\n      pop\n        /* \"#utility.yul\":8131:8137   */\n      dup3\n        /* \"#utility.yul\":8124:8129   */\n      dup2\n        /* \"#utility.yul\":8117:8138   */\n      mstore\n        /* \"#utility.yul\":8169:8173   */\n      0x20\n        /* \"#utility.yul\":8162:8167   */\n      dup2\n        /* \"#utility.yul\":8158:8174   */\n      add\n        /* \"#utility.yul\":8207:8210   */\n      dup5\n        /* \"#utility.yul\":8198:8204   */\n      dup5\n        /* \"#utility.yul\":8193:8196   */\n      dup5\n        /* \"#utility.yul\":8189:8205   */\n      add\n        /* \"#utility.yul\":8186:8211   */\n      gt\n        /* \"#utility.yul\":8183:8295   */\n      iszero\n      tag_398\n      jumpi\n        /* \"#utility.yul\":8214:8293   */\n      tag_399\n      tag_263\n      jump\t// in\n    tag_399:\n        /* \"#utility.yul\":8183:8295   */\n    tag_398:\n        /* \"#utility.yul\":8304:8358   */\n      tag_400\n        /* \"#utility.yul\":8351:8357   */\n      dup5\n        /* \"#utility.yul\":8346:8349   */\n      dup3\n        /* \"#utility.yul\":8341:8344   */\n      dup6\n        /* \"#utility.yul\":8304:8358   */\n      tag_267\n      jump\t// in\n    tag_400:\n        /* \"#utility.yul\":8023:8364   */\n      pop\n        /* \"#utility.yul\":7939:8364   */\n      swap4\n      swap3\n      pop\n      pop\n      pop\n      jump\t// out\n        /* \"#utility.yul\":8384:8724   */\n    tag_269:\n        /* \"#utility.yul\":8440:8445   */\n      0x00\n        /* \"#utility.yul\":8489:8492   */\n      dup3\n        /* \"#utility.yul\":8482:8486   */\n      0x1f\n        /* \"#utility.yul\":8474:8480   */\n      dup4\n        /* \"#utility.yul\":8470:8487   */\n      add\n        /* \"#utility.yul\":8466:8493   */\n      slt\n        /* \"#utility.yul\":8456:8578   */\n      tag_402\n      jumpi\n        /* \"#utility.yul\":8497:8576   */\n      tag_403\n      tag_262\n      jump\t// in\n    tag_403:\n        /* \"#utility.yul\":8456:8578   */\n    tag_402:\n        /* \"#utility.yul\":8614:8620   */\n      dup2\n        /* \"#utility.yul\":8601:8621   */\n      calldataload\n        /* \"#utility.yul\":8639:8718   */\n      tag_404\n        /* \"#utility.yul\":8714:8717   */\n      dup5\n        /* \"#utility.yul\":8706:8712   */\n      dup3\n        /* \"#utility.yul\":8699:8703   */\n      0x20\n        /* \"#utility.yul\":8691:8697   */\n      dup7\n        /* \"#utility.yul\":8687:8704   */\n      add\n        /* \"#utility.yul\":8639:8718   */\n      tag_268\n      jump\t// in\n    tag_404:\n        /* \"#utility.yul\":8630:8718   */\n      swap2\n      pop\n        /* \"#utility.yul\":8446:8724   */\n      pop\n        /* \"#utility.yul\":8384:8724   */\n      swap3\n      swap2\n      pop\n      pop\n      jump\t// out\n        /* \"#utility.yul\":8730:9239   */\n    tag_41:\n        /* \"#utility.yul\":8799:8805   */\n      0x00\n        /* \"#utility.yul\":8848:8850   */\n      0x20\n        /* \"#utility.yul\":8836:8845   */\n      dup3\n        /* \"#utility.yul\":8827:8834   */\n      dup5\n        /* \"#utility.yul\":8823:8846   */\n      sub\n        /* \"#utility.yul\":8819:8851   */\n      slt\n        /* \"#utility.yul\":8816:8935   */\n      iszero\n      tag_406\n      jumpi\n        /* \"#utility.yul\":8854:8933   */\n      tag_407\n      tag_238\n      jump\t// in\n    tag_407:\n        /* \"#utility.yul\":8816:8935   */\n    tag_406:\n        /* \"#utility.yul\":9002:9003   */\n      0x00\n        /* \"#utility.yul\":8991:9000   */\n      dup3\n        /* \"#utility.yul\":8987:9004   */\n      add\n        /* \"#utility.yul\":8974:9005   */\n      calldataload\n        /* \"#utility.yul\":9032:9050   */\n      0xffffffffffffffff\n        /* \"#utility.yul\":9024:9030   */\n      dup2\n        /* \"#utility.yul\":9021:9051   */\n      gt\n        /* \"#utility.yul\":9018:9135   */\n      iszero\n      tag_408\n      jumpi\n        /* \"#utility.yul\":9054:9133   */\n      tag_409\n      tag_239\n      jump\t// in\n    tag_409:\n        /* \"#utility.yul\":9018:9135   */\n    tag_408:\n        /* \"#utility.yul\":9159:9222   */\n      tag_410\n        /* \"#utility.yul\":9214:9221   */\n      dup5\n        /* \"#utility.yul\":9205:9211   */\n      dup3\n        /* \"#utility.yul\":9194:9203   */\n      dup6\n        /* \"#utility.yul\":9190:9212   */\n      add\n        /* \"#utility.yul\":9159:9222   */\n      tag_269\n      jump\t// in\n    tag_410:\n        /* \"#utility.yul\":9149:9222   */\n      swap2\n      pop\n        /* \"#utility.yul\":8945:9232   */\n      pop\n        /* \"#utility.yul\":8730:9239   */\n      swap3\n      swap2\n      pop\n      pop\n      jump\t// out\n        /* \"#utility.yul\":9245:9574   */\n    tag_45:\n        /* \"#utility.yul\":9304:9310   */\n      0x00\n        /* \"#utility.yul\":9353:9355   */\n      0x20\n        /* \"#utility.yul\":9341:9350   */\n      dup3\n        /* \"#utility.yul\":9332:9339   */\n      dup5\n        /* \"#utility.yul\":9328:9351   */\n      sub\n        /* \"#utility.yul\":9324:9356   */\n      slt\n        /* \"#utility.yul\":9321:9440   */\n      iszero\n      tag_412\n      jumpi\n        /* \"#utility.yul\":9359:9438   */\n      tag_413\n      tag_238\n      jump\t// in\n    tag_413:\n        /* \"#utility.yul\":9321:9440   */\n    tag_412:\n        /* \"#utility.yul\":9479:9480   */\n      0x00\n        /* \"#utility.yul\":9504:9557   */\n      tag_414\n        /* \"#utility.yul\":9549:9556   */\n      dup5\n        /* \"#utility.yul\":9540:9546   */\n      dup3\n        /* \"#utility.yul\":9529:9538   */\n      dup6\n        /* \"#utility.yul\":9525:9547   */\n      add\n        /* \"#utility.yul\":9504:9557   */\n      tag_243\n      jump\t// in\n    tag_414:\n        /* \"#utility.yul\":9494:9557   */\n      swap2\n      pop\n        /* \"#utility.yul\":9450:9567   */\n      pop\n        /* \"#utility.yul\":9245:9574   */\n      swap3\n      swap2\n      pop\n      pop\n      jump\t// out\n        /* \"#utility.yul\":9580:9717   */\n    tag_270:\n        /* \"#utility.yul\":9670:9676   */\n      0x00\n        /* \"#utility.yul\":9704:9709   */\n      dup2\n        /* \"#utility.yul\":9698:9710   */\n      mload\n        /* \"#utility.yul\":9688:9710   */\n      swap1\n      pop\n        /* \"#utility.yul\":9580:9717   */\n      swap2\n      swap1\n      pop\n      jump\t// out\n        /* \"#utility.yul\":9723:9930   */\n    tag_271:\n        /* \"#utility.yul\":9845:9856   */\n      0x00\n        /* \"#utility.yul\":9879:9885   */\n      dup3\n        /* \"#utility.yul\":9874:9877   */\n      dup3\n        /* \"#utility.yul\":9867:9886   */\n      mstore\n        /* \"#utility.yul\":9919:9923   */\n      0x20\n        /* \"#utility.yul\":9914:9917   */\n      dup3\n        /* \"#utility.yul\":9910:9924   */\n      add\n        /* \"#utility.yul\":9895:9924   */\n      swap1\n      pop\n        /* \"#utility.yul\":9723:9930   */\n      swap3\n      swap2\n      pop\n      pop\n      jump\t// out\n        /* \"#utility.yul\":9936:10091   */\n    tag_272:\n        /* \"#utility.yul\":10026:10030   */\n      0x00\n        /* \"#utility.yul\":10049:10052   */\n      dup2\n        /* \"#utility.yul\":10041:10052   */\n      swap1\n      pop\n        /* \"#utility.yul\":10079:10083   */\n      0x20\n        /* \"#utility.yul\":10074:10077   */\n      dup3\n        /* \"#utility.yul\":10070:10084   */\n      add\n        /* \"#utility.yul\":10062:10084   */\n      swap1\n      pop\n        /* \"#utility.yul\":9936:10091   */\n      swap2\n      swap1\n      pop\n      jump\t// out\n        /* \"#utility.yul\":10149:11272   */\n    tag_273:\n        /* \"#utility.yul\":10254:10257   */\n      0x00\n        /* \"#utility.yul\":10290:10294   */\n      0xa0\n        /* \"#utility.yul\":10285:10288   */\n      dup4\n        /* \"#utility.yul\":10281:10295   */\n      add\n        /* \"#utility.yul\":10375:10379   */\n      0x00\n        /* \"#utility.yul\":10368:10373   */\n      dup4\n        /* \"#utility.yul\":10364:10380   */\n      add\n        /* \"#utility.yul\":10358:10381   */\n      mload\n        /* \"#utility.yul\":10394:10457   */\n      tag_419\n        /* \"#utility.yul\":10451:10455   */\n      0x00\n        /* \"#utility.yul\":10446:10449   */\n      dup7\n        /* \"#utility.yul\":10442:10456   */\n      add\n        /* \"#utility.yul\":10428:10440   */\n      dup3\n        /* \"#utility.yul\":10394:10457   */\n      tag_254\n      jump\t// in\n    tag_419:\n        /* \"#utility.yul\":10305:10467   */\n      pop\n        /* \"#utility.yul\":10551:10555   */\n      0x20\n        /* \"#utility.yul\":10544:10549   */\n      dup4\n        /* \"#utility.yul\":10540:10556   */\n      add\n        /* \"#utility.yul\":10534:10557   */\n      mload\n        /* \"#utility.yul\":10570:10633   */\n      tag_420\n        /* \"#utility.yul\":10627:10631   */\n      0x20\n        /* \"#utility.yul\":10622:10625   */\n      dup7\n        /* \"#utility.yul\":10618:10632   */\n      add\n        /* \"#utility.yul\":10604:10616   */\n      dup3\n        /* \"#utility.yul\":10570:10633   */\n      tag_255\n      jump\t// in\n    tag_420:\n        /* \"#utility.yul\":10477:10643   */\n      pop\n        /* \"#utility.yul\":10728:10732   */\n      0x40\n        /* \"#utility.yul\":10721:10726   */\n      dup4\n        /* \"#utility.yul\":10717:10733   */\n      add\n        /* \"#utility.yul\":10711:10734   */\n      mload\n        /* \"#utility.yul\":10781:10784   */\n      dup5\n        /* \"#utility.yul\":10775:10779   */\n      dup3\n        /* \"#utility.yul\":10771:10785   */\n      sub\n        /* \"#utility.yul\":10764:10768   */\n      0x40\n        /* \"#utility.yul\":10759:10762   */\n      dup7\n        /* \"#utility.yul\":10755:10769   */\n      add\n        /* \"#utility.yul\":10748:10786   */\n      mstore\n        /* \"#utility.yul\":10807:10880   */\n      tag_421\n        /* \"#utility.yul\":10875:10879   */\n      dup3\n        /* \"#utility.yul\":10861:10873   */\n      dup3\n        /* \"#utility.yul\":10807:10880   */\n      tag_257\n      jump\t// in\n    tag_421:\n        /* \"#utility.yul\":10799:10880   */\n      swap2\n      pop\n        /* \"#utility.yul\":10653:10891   */\n      pop\n        /* \"#utility.yul\":10978:10982   */\n      0x60\n        /* \"#utility.yul\":10971:10976   */\n      dup4\n        /* \"#utility.yul\":10967:10983   */\n      add\n        /* \"#utility.yul\":10961:10984   */\n      mload\n        /* \"#utility.yul\":10997:11060   */\n      tag_422\n        /* \"#utility.yul\":11054:11058   */\n      0x60\n        /* \"#utility.yul\":11049:11052   */\n      dup7\n        /* \"#utility.yul\":11045:11059   */\n      add\n        /* \"#utility.yul\":11031:11043   */\n      dup3\n        /* \"#utility.yul\":10997:11060   */\n      tag_254\n      jump\t// in\n    tag_422:\n        /* \"#utility.yul\":10901:11070   */\n      pop\n        /* \"#utility.yul\":11153:11157   */\n      0x80\n        /* \"#utility.yul\":11146:11151   */\n      dup4\n        /* \"#utility.yul\":11142:11158   */\n      add\n        /* \"#utility.yul\":11136:11159   */\n      mload\n        /* \"#utility.yul\":11172:11235   */\n      tag_423\n        /* \"#utility.yul\":11229:11233   */\n      0x80\n        /* \"#utility.yul\":11224:11227   */\n      dup7\n        /* \"#utility.yul\":11220:11234   */\n      add\n        /* \"#utility.yul\":11206:11218   */\n      dup3\n        /* \"#utility.yul\":11172:11235   */\n      tag_254\n      jump\t// in\n    tag_423:\n        /* \"#utility.yul\":11080:11245   */\n      pop\n        /* \"#utility.yul\":11262:11266   */\n      dup1\n        /* \"#utility.yul\":11255:11266   */\n      swap2\n      pop\n        /* \"#utility.yul\":10259:11272   */\n      pop\n        /* \"#utility.yul\":10149:11272   */\n      swap3\n      swap2\n      pop\n      pop\n      jump\t// out\n        /* \"#utility.yul\":11278:11526   */\n    tag_274:\n        /* \"#utility.yul\":11393:11403   */\n      0x00\n        /* \"#utility.yul\":11428:11520   */\n      tag_425\n        /* \"#utility.yul\":11516:11519   */\n      dup4\n        /* \"#utility.yul\":11508:11514   */\n      dup4\n        /* \"#utility.yul\":11428:11520   */\n      tag_273\n      jump\t// in\n    tag_425:\n        /* \"#utility.yul\":11414:11520   */\n      swap1\n      pop\n        /* \"#utility.yul\":11278:11526   */\n      swap3\n      swap2\n      pop\n      pop\n      jump\t// out\n        /* \"#utility.yul\":11532:11668   */\n    tag_275:\n        /* \"#utility.yul\":11625:11629   */\n      0x00\n        /* \"#utility.yul\":11657:11661   */\n      0x20\n        /* \"#utility.yul\":11652:11655   */\n      dup3\n        /* \"#utility.yul\":11648:11662   */\n      add\n        /* \"#utility.yul\":11640:11662   */\n      swap1\n      pop\n        /* \"#utility.yul\":11532:11668   */\n      swap2\n      swap1\n      pop\n      jump\t// out\n        /* \"#utility.yul\":11730:12825   */\n    tag_276:\n        /* \"#utility.yul\":11895:11898   */\n      0x00\n        /* \"#utility.yul\":11924:12001   */\n      tag_428\n        /* \"#utility.yul\":11995:12000   */\n      dup3\n        /* \"#utility.yul\":11924:12001   */\n      tag_270\n      jump\t// in\n    tag_428:\n        /* \"#utility.yul\":12017:12126   */\n      tag_429\n        /* \"#utility.yul\":12119:12125   */\n      dup2\n        /* \"#utility.yul\":12114:12117   */\n      dup6\n        /* \"#utility.yul\":12017:12126   */\n      tag_271\n      jump\t// in\n    tag_429:\n        /* \"#utility.yul\":12010:12126   */\n      swap4\n      pop\n        /* \"#utility.yul\":12152:12155   */\n      dup4\n        /* \"#utility.yul\":12197:12201   */\n      0x20\n        /* \"#utility.yul\":12189:12195   */\n      dup3\n        /* \"#utility.yul\":12185:12202   */\n      mul\n        /* \"#utility.yul\":12180:12183   */\n      dup6\n        /* \"#utility.yul\":12176:12203   */\n      add\n        /* \"#utility.yul\":12227:12306   */\n      tag_430\n        /* \"#utility.yul\":12300:12305   */\n      dup6\n        /* \"#utility.yul\":12227:12306   */\n      tag_272\n      jump\t// in\n    tag_430:\n        /* \"#utility.yul\":12329:12336   */\n      dup1\n        /* \"#utility.yul\":12360:12361   */\n      0x00\n        /* \"#utility.yul\":12345:12780   */\n    tag_431:\n        /* \"#utility.yul\":12370:12376   */\n      dup6\n        /* \"#utility.yul\":12367:12368   */\n      dup2\n        /* \"#utility.yul\":12364:12377   */\n      lt\n        /* \"#utility.yul\":12345:12780   */\n      iszero\n      tag_433\n      jumpi\n        /* \"#utility.yul\":12441:12450   */\n      dup5\n        /* \"#utility.yul\":12435:12439   */\n      dup5\n        /* \"#utility.yul\":12431:12451   */\n      sub\n        /* \"#utility.yul\":12426:12429   */\n      dup10\n        /* \"#utility.yul\":12419:12452   */\n      mstore\n        /* \"#utility.yul\":12492:12498   */\n      dup2\n        /* \"#utility.yul\":12486:12499   */\n      mload\n        /* \"#utility.yul\":12520:12630   */\n      tag_434\n        /* \"#utility.yul\":12625:12629   */\n      dup6\n        /* \"#utility.yul\":12610:12623   */\n      dup3\n        /* \"#utility.yul\":12520:12630   */\n      tag_274\n      jump\t// in\n    tag_434:\n        /* \"#utility.yul\":12512:12630   */\n      swap5\n      pop\n        /* \"#utility.yul\":12653:12736   */\n      tag_435\n        /* \"#utility.yul\":12729:12735   */\n      dup4\n        /* \"#utility.yul\":12653:12736   */\n      tag_275\n      jump\t// in\n    tag_435:\n        /* \"#utility.yul\":12643:12736   */\n      swap3\n      pop\n        /* \"#utility.yul\":12765:12769   */\n      0x20\n        /* \"#utility.yul\":12760:12763   */\n      dup11\n        /* \"#utility.yul\":12756:12770   */\n      add\n        /* \"#utility.yul\":12749:12770   */\n      swap10\n      pop\n        /* \"#utility.yul\":12405:12780   */\n      pop\n        /* \"#utility.yul\":12392:12393   */\n      0x01\n        /* \"#utility.yul\":12389:12390   */\n      dup2\n        /* \"#utility.yul\":12385:12394   */\n      add\n        /* \"#utility.yul\":12380:12394   */\n      swap1\n      pop\n        /* \"#utility.yul\":12345:12780   */\n      jump(tag_431)\n    tag_433:\n        /* \"#utility.yul\":12349:12363   */\n      pop\n        /* \"#utility.yul\":12796:12800   */\n      dup3\n        /* \"#utility.yul\":12789:12800   */\n      swap8\n      pop\n        /* \"#utility.yul\":12816:12819   */\n      dup8\n        /* \"#utility.yul\":12809:12819   */\n      swap6\n      pop\n        /* \"#utility.yul\":11900:12825   */\n      pop\n      pop\n      pop\n      pop\n      pop\n        /* \"#utility.yul\":11730:12825   */\n      swap3\n      swap2\n      pop\n      pop\n      jump\t// out\n        /* \"#utility.yul\":12831:13296   */\n    tag_48:\n        /* \"#utility.yul\":13020:13024   */\n      0x00\n        /* \"#utility.yul\":13058:13060   */\n      0x20\n        /* \"#utility.yul\":13047:13056   */\n      dup3\n        /* \"#utility.yul\":13043:13061   */\n      add\n        /* \"#utility.yul\":13035:13061   */\n      swap1\n      pop\n        /* \"#utility.yul\":13107:13116   */\n      dup2\n        /* \"#utility.yul\":13101:13105   */\n      dup2\n        /* \"#utility.yul\":13097:13117   */\n      sub\n        /* \"#utility.yul\":13093:13094   */\n      0x00\n        /* \"#utility.yul\":13082:13091   */\n      dup4\n        /* \"#utility.yul\":13078:13095   */\n      add\n        /* \"#utility.yul\":13071:13118   */\n      mstore\n        /* \"#utility.yul\":13135:13289   */\n      tag_437\n        /* \"#utility.yul\":13284:13288   */\n      dup2\n        /* \"#utility.yul\":13275:13281   */\n      dup5\n        /* \"#utility.yul\":13135:13289   */\n      tag_276\n      jump\t// in\n    tag_437:\n        /* \"#utility.yul\":13127:13289   */\n      swap1\n      pop\n        /* \"#utility.yul\":12831:13296   */\n      swap3\n      swap2\n      pop\n      pop\n      jump\t// out\n        /* \"#utility.yul\":13302:13524   */\n    tag_53:\n        /* \"#utility.yul\":13395:13399   */\n      0x00\n        /* \"#utility.yul\":13433:13435   */\n      0x20\n        /* \"#utility.yul\":13422:13431   */\n      dup3\n        /* \"#utility.yul\":13418:13436   */\n      add\n        /* \"#utility.yul\":13410:13436   */\n      swap1\n      pop\n        /* \"#utility.yul\":13446:13517   */\n      tag_439\n        /* \"#utility.yul\":13514:13515   */\n      0x00\n        /* \"#utility.yul\":13503:13512   */\n      dup4\n        /* \"#utility.yul\":13499:13516   */\n      add\n        /* \"#utility.yul\":13490:13496   */\n      dup5\n        /* \"#utility.yul\":13446:13517   */\n      tag_247\n      jump\t// in\n    tag_439:\n        /* \"#utility.yul\":13302:13524   */\n      swap3\n      swap2\n      pop\n      pop\n      jump\t// out\n        /* \"#utility.yul\":13530:13752   */\n    tag_57:\n        /* \"#utility.yul\":13623:13627   */\n      0x00\n        /* \"#utility.yul\":13661:13663   */\n      0x20\n        /* \"#utility.yul\":13650:13659   */\n      dup3\n        /* \"#utility.yul\":13646:13664   */\n      add\n        /* \"#utility.yul\":13638:13664   */\n      swap1\n      pop\n        /* \"#utility.yul\":13674:13745   */\n      tag_441\n        /* \"#utility.yul\":13742:13743   */\n      0x00\n        /* \"#utility.yul\":13731:13740   */\n      dup4\n        /* \"#utility.yul\":13727:13744   */\n      add\n        /* \"#utility.yul\":13718:13724   */\n      dup5\n        /* \"#utility.yul\":13674:13745   */\n      tag_248\n      jump\t// in\n    tag_441:\n        /* \"#utility.yul\":13530:13752   */\n      swap3\n      swap2\n      pop\n      pop\n      jump\t// out\n        /* \"#utility.yul\":13758:13873   */\n    tag_277:\n        /* \"#utility.yul\":13843:13866   */\n      tag_443\n        /* \"#utility.yul\":13860:13865   */\n      dup2\n        /* \"#utility.yul\":13843:13866   */\n      tag_259\n      jump\t// in\n    tag_443:\n        /* \"#utility.yul\":13838:13841   */\n      dup3\n        /* \"#utility.yul\":13831:13867   */\n      mstore\n        /* \"#utility.yul\":13758:13873   */\n      pop\n      pop\n      jump\t// out\n        /* \"#utility.yul\":13879:14097   */\n    tag_64:\n        /* \"#utility.yul\":13970:13974   */\n      0x00\n        /* \"#utility.yul\":14008:14010   */\n      0x20\n        /* \"#utility.yul\":13997:14006   */\n      dup3\n        /* \"#utility.yul\":13993:14011   */\n      add\n        /* \"#utility.yul\":13985:14011   */\n      swap1\n      pop\n        /* \"#utility.yul\":14021:14090   */\n      tag_445\n        /* \"#utility.yul\":14087:14088   */\n      0x00\n        /* \"#utility.yul\":14076:14085   */\n      dup4\n        /* \"#utility.yul\":14072:14089   */\n      add\n        /* \"#utility.yul\":14063:14069   */\n      dup5\n        /* \"#utility.yul\":14021:14090   */\n      tag_277\n      jump\t// in\n    tag_445:\n        /* \"#utility.yul\":13879:14097   */\n      swap3\n      swap2\n      pop\n      pop\n      jump\t// out\n        /* \"#utility.yul\":14103:14283   */\n    tag_278:\n        /* \"#utility.yul\":14151:14228   */\n      0x4e487b7100000000000000000000000000000000000000000000000000000000\n        /* \"#utility.yul\":14148:14149   */\n      0x00\n        /* \"#utility.yul\":14141:14229   */\n      mstore\n        /* \"#utility.yul\":14248:14252   */\n      0x22\n        /* \"#utility.yul\":14245:14246   */\n      0x04\n        /* \"#utility.yul\":14238:14253   */\n      mstore\n        /* \"#utility.yul\":14272:14276   */\n      0x24\n        /* \"#utility.yul\":14269:14270   */\n      0x00\n        /* \"#utility.yul\":14262:14277   */\n      revert\n        /* \"#utility.yul\":14289:14609   */\n    tag_68:\n        /* \"#utility.yul\":14333:14339   */\n      0x00\n        /* \"#utility.yul\":14370:14371   */\n      0x02\n        /* \"#utility.yul\":14364:14368   */\n      dup3\n        /* \"#utility.yul\":14360:14372   */\n      div\n        /* \"#utility.yul\":14350:14372   */\n      swap1\n      pop\n        /* \"#utility.yul\":14417:14418   */\n      0x01\n        /* \"#utility.yul\":14411:14415   */\n      dup3\n        /* \"#utility.yul\":14407:14419   */\n      and\n        /* \"#utility.yul\":14438:14456   */\n      dup1\n        /* \"#utility.yul\":14428:14509   */\n      tag_448\n      jumpi\n        /* \"#utility.yul\":14494:14498   */\n      0x7f\n        /* \"#utility.yul\":14486:14492   */\n      dup3\n        /* \"#utility.yul\":14482:14499   */\n      and\n        /* \"#utility.yul\":14472:14499   */\n      swap2\n      pop\n        /* \"#utility.yul\":14428:14509   */\n    tag_448:\n        /* \"#utility.yul\":14556:14558   */\n      0x20\n        /* \"#utility.yul\":14548:14554   */\n      dup3\n        /* \"#utility.yul\":14545:14559   */\n      lt\n        /* \"#utility.yul\":14525:14543   */\n      dup2\n        /* \"#utility.yul\":14522:14560   */\n      sub\n        /* \"#utility.yul\":14519:14603   */\n      tag_449\n      jumpi\n        /* \"#utility.yul\":14575:14593   */\n      tag_450\n      tag_278\n      jump\t// in\n    tag_450:\n        /* \"#utility.yul\":14519:14603   */\n    tag_449:\n        /* \"#utility.yul\":14340:14609   */\n      pop\n        /* \"#utility.yul\":14289:14609   */\n      swap2\n      swap1\n      pop\n      jump\t// out\n        /* \"#utility.yul\":14615:14795   */\n    tag_78:\n        /* \"#utility.yul\":14663:14740   */\n      0x4e487b7100000000000000000000000000000000000000000000000000000000\n        /* \"#utility.yul\":14660:14661   */\n      0x00\n        /* \"#utility.yul\":14653:14741   */\n      mstore\n        /* \"#utility.yul\":14760:14764   */\n      0x32\n        /* \"#utility.yul\":14757:14758   */\n      0x04\n        /* \"#utility.yul\":14750:14765   */\n      mstore\n        /* \"#utility.yul\":14784:14788   */\n      0x24\n        /* \"#utility.yul\":14781:14782   */\n      0x00\n        /* \"#utility.yul\":14774:14789   */\n      revert\n        /* \"#utility.yul\":14801:14972   */\n    tag_279:\n        /* \"#utility.yul\":14941:14964   */\n      0x547765657420646f6573206e6f74206578697374210000000000000000000000\n        /* \"#utility.yul\":14937:14938   */\n      0x00\n        /* \"#utility.yul\":14929:14935   */\n      dup3\n        /* \"#utility.yul\":14925:14939   */\n      add\n        /* \"#utility.yul\":14918:14965   */\n      mstore\n        /* \"#utility.yul\":14801:14972   */\n      pop\n      jump\t// out\n        /* \"#utility.yul\":14978:15344   */\n    tag_280:\n        /* \"#utility.yul\":15120:15123   */\n      0x00\n        /* \"#utility.yul\":15141:15208   */\n      tag_454\n        /* \"#utility.yul\":15205:15207   */\n      0x15\n        /* \"#utility.yul\":15200:15203   */\n      dup4\n        /* \"#utility.yul\":15141:15208   */\n      tag_250\n      jump\t// in\n    tag_454:\n        /* \"#utility.yul\":15134:15208   */\n      swap2\n      pop\n        /* \"#utility.yul\":15217:15310   */\n      tag_455\n        /* \"#utility.yul\":15306:15309   */\n      dup3\n        /* \"#utility.yul\":15217:15310   */\n      tag_279\n      jump\t// in\n    tag_455:\n        /* \"#utility.yul\":15335:15337   */\n      0x20\n        /* \"#utility.yul\":15330:15333   */\n      dup3\n        /* \"#utility.yul\":15326:15338   */\n      add\n        /* \"#utility.yul\":15319:15338   */\n      swap1\n      pop\n        /* \"#utility.yul\":14978:15344   */\n      swap2\n      swap1\n      pop\n      jump\t// out\n        /* \"#utility.yul\":15350:15769   */\n    tag_91:\n        /* \"#utility.yul\":15516:15520   */\n      0x00\n        /* \"#utility.yul\":15554:15556   */\n      0x20\n        /* \"#utility.yul\":15543:15552   */\n      dup3\n        /* \"#utility.yul\":15539:15557   */\n      add\n        /* \"#utility.yul\":15531:15557   */\n      swap1\n      pop\n        /* \"#utility.yul\":15603:15612   */\n      dup2\n        /* \"#utility.yul\":15597:15601   */\n      dup2\n        /* \"#utility.yul\":15593:15613   */\n      sub\n        /* \"#utility.yul\":15589:15590   */\n      0x00\n        /* \"#utility.yul\":15578:15587   */\n      dup4\n        /* \"#utility.yul\":15574:15591   */\n      add\n        /* \"#utility.yul\":15567:15614   */\n      mstore\n        /* \"#utility.yul\":15631:15762   */\n      tag_457\n        /* \"#utility.yul\":15757:15761   */\n      dup2\n        /* \"#utility.yul\":15631:15762   */\n      tag_280\n      jump\t// in\n    tag_457:\n        /* \"#utility.yul\":15623:15762   */\n      swap1\n      pop\n        /* \"#utility.yul\":15350:15769   */\n      swap2\n      swap1\n      pop\n      jump\t// out\n        /* \"#utility.yul\":15775:15892   */\n    tag_281:\n        /* \"#utility.yul\":15884:15885   */\n      0x00\n        /* \"#utility.yul\":15881:15882   */\n      dup1\n        /* \"#utility.yul\":15874:15886   */\n      revert\n        /* \"#utility.yul\":15898:16015   */\n    tag_282:\n        /* \"#utility.yul\":16007:16008   */\n      0x00\n        /* \"#utility.yul\":16004:16005   */\n      dup1\n        /* \"#utility.yul\":15997:16009   */\n      revert\n        /* \"#utility.yul\":16021:16455   */\n    tag_283:\n        /* \"#utility.yul\":16110:16115   */\n      0x00\n        /* \"#utility.yul\":16135:16201   */\n      tag_461\n        /* \"#utility.yul\":16151:16200   */\n      tag_462\n        /* \"#utility.yul\":16193:16199   */\n      dup5\n        /* \"#utility.yul\":16151:16200   */\n      tag_266\n      jump\t// in\n    tag_462:\n        /* \"#utility.yul\":16135:16201   */\n      tag_265\n      jump\t// in\n    tag_461:\n        /* \"#utility.yul\":16126:16201   */\n      swap1\n      pop\n        /* \"#utility.yul\":16224:16230   */\n      dup3\n        /* \"#utility.yul\":16217:16222   */\n      dup2\n        /* \"#utility.yul\":16210:16231   */\n      mstore\n        /* \"#utility.yul\":16262:16266   */\n      0x20\n        /* \"#utility.yul\":16255:16260   */\n      dup2\n        /* \"#utility.yul\":16251:16267   */\n      add\n        /* \"#utility.yul\":16300:16303   */\n      dup5\n        /* \"#utility.yul\":16291:16297   */\n      dup5\n        /* \"#utility.yul\":16286:16289   */\n      dup5\n        /* \"#utility.yul\":16282:16298   */\n      add\n        /* \"#utility.yul\":16279:16304   */\n      gt\n        /* \"#utility.yul\":16276:16388   */\n      iszero\n      tag_463\n      jumpi\n        /* \"#utility.yul\":16307:16386   */\n      tag_464\n      tag_263\n      jump\t// in\n    tag_464:\n        /* \"#utility.yul\":16276:16388   */\n    tag_463:\n        /* \"#utility.yul\":16397:16449   */\n      tag_465\n        /* \"#utility.yul\":16442:16448   */\n      dup5\n        /* \"#utility.yul\":16437:16440   */\n      dup3\n        /* \"#utility.yul\":16432:16435   */\n      dup6\n        /* \"#utility.yul\":16397:16449   */\n      tag_251\n      jump\t// in\n    tag_465:\n        /* \"#utility.yul\":16116:16455   */\n      pop\n        /* \"#utility.yul\":16021:16455   */\n      swap4\n      swap3\n      pop\n      pop\n      pop\n      jump\t// out\n        /* \"#utility.yul\":16475:16830   */\n    tag_284:\n        /* \"#utility.yul\":16542:16547   */\n      0x00\n        /* \"#utility.yul\":16591:16594   */\n      dup3\n        /* \"#utility.yul\":16584:16588   */\n      0x1f\n        /* \"#utility.yul\":16576:16582   */\n      dup4\n        /* \"#utility.yul\":16572:16589   */\n      add\n        /* \"#utility.yul\":16568:16595   */\n      slt\n        /* \"#utility.yul\":16558:16680   */\n      tag_467\n      jumpi\n        /* \"#utility.yul\":16599:16678   */\n      tag_468\n      tag_262\n      jump\t// in\n    tag_468:\n        /* \"#utility.yul\":16558:16680   */\n    tag_467:\n        /* \"#utility.yul\":16709:16715   */\n      dup2\n        /* \"#utility.yul\":16703:16716   */\n      mload\n        /* \"#utility.yul\":16734:16824   */\n      tag_469\n        /* \"#utility.yul\":16820:16823   */\n      dup5\n        /* \"#utility.yul\":16812:16818   */\n      dup3\n        /* \"#utility.yul\":16805:16809   */\n      0x20\n        /* \"#utility.yul\":16797:16803   */\n      dup7\n        /* \"#utility.yul\":16793:16810   */\n      add\n        /* \"#utility.yul\":16734:16824   */\n      tag_283\n      jump\t// in\n    tag_469:\n        /* \"#utility.yul\":16725:16824   */\n      swap2\n      pop\n        /* \"#utility.yul\":16548:16830   */\n      pop\n        /* \"#utility.yul\":16475:16830   */\n      swap3\n      swap2\n      pop\n      pop\n      jump\t// out\n        /* \"#utility.yul\":16871:17814   */\n    tag_285:\n        /* \"#utility.yul\":16960:16965   */\n      0x00\n        /* \"#utility.yul\":17004:17008   */\n      0x40\n        /* \"#utility.yul\":16992:17001   */\n      dup3\n        /* \"#utility.yul\":16987:16990   */\n      dup5\n        /* \"#utility.yul\":16983:17002   */\n      sub\n        /* \"#utility.yul\":16979:17009   */\n      slt\n        /* \"#utility.yul\":16976:17093   */\n      iszero\n      tag_471\n      jumpi\n        /* \"#utility.yul\":17012:17091   */\n      tag_472\n      tag_281\n      jump\t// in\n    tag_472:\n        /* \"#utility.yul\":16976:17093   */\n    tag_471:\n        /* \"#utility.yul\":17111:17132   */\n      tag_473\n        /* \"#utility.yul\":17127:17131   */\n      0x40\n        /* \"#utility.yul\":17111:17132   */\n      tag_265\n      jump\t// in\n    tag_473:\n        /* \"#utility.yul\":17102:17132   */\n      swap1\n      pop\n        /* \"#utility.yul\":17219:17220   */\n      0x00\n        /* \"#utility.yul\":17208:17217   */\n      dup3\n        /* \"#utility.yul\":17204:17221   */\n      add\n        /* \"#utility.yul\":17198:17222   */\n      mload\n        /* \"#utility.yul\":17249:17267   */\n      0xffffffffffffffff\n        /* \"#utility.yul\":17241:17247   */\n      dup2\n        /* \"#utility.yul\":17238:17268   */\n      gt\n        /* \"#utility.yul\":17235:17352   */\n      iszero\n      tag_474\n      jumpi\n        /* \"#utility.yul\":17271:17350   */\n      tag_475\n      tag_282\n      jump\t// in\n    tag_475:\n        /* \"#utility.yul\":17235:17352   */\n    tag_474:\n        /* \"#utility.yul\":17391:17461   */\n      tag_476\n        /* \"#utility.yul\":17457:17460   */\n      dup5\n        /* \"#utility.yul\":17448:17454   */\n      dup3\n        /* \"#utility.yul\":17437:17446   */\n      dup6\n        /* \"#utility.yul\":17433:17455   */\n      add\n        /* \"#utility.yul\":17391:17461   */\n      tag_284\n      jump\t// in\n    tag_476:\n        /* \"#utility.yul\":17384:17388   */\n      0x00\n        /* \"#utility.yul\":17377:17382   */\n      dup4\n        /* \"#utility.yul\":17373:17389   */\n      add\n        /* \"#utility.yul\":17366:17462   */\n      mstore\n        /* \"#utility.yul\":17142:17473   */\n      pop\n        /* \"#utility.yul\":17552:17554   */\n      0x20\n        /* \"#utility.yul\":17541:17550   */\n      dup3\n        /* \"#utility.yul\":17537:17555   */\n      add\n        /* \"#utility.yul\":17531:17556   */\n      mload\n        /* \"#utility.yul\":17583:17601   */\n      0xffffffffffffffff\n        /* \"#utility.yul\":17575:17581   */\n      dup2\n        /* \"#utility.yul\":17572:17602   */\n      gt\n        /* \"#utility.yul\":17569:17686   */\n      iszero\n      tag_477\n      jumpi\n        /* \"#utility.yul\":17605:17684   */\n      tag_478\n      tag_282\n      jump\t// in\n    tag_478:\n        /* \"#utility.yul\":17569:17686   */\n    tag_477:\n        /* \"#utility.yul\":17725:17795   */\n      tag_479\n        /* \"#utility.yul\":17791:17794   */\n      dup5\n        /* \"#utility.yul\":17782:17788   */\n      dup3\n        /* \"#utility.yul\":17771:17780   */\n      dup6\n        /* \"#utility.yul\":17767:17789   */\n      add\n        /* \"#utility.yul\":17725:17795   */\n      tag_284\n      jump\t// in\n    tag_479:\n        /* \"#utility.yul\":17718:17722   */\n      0x20\n        /* \"#utility.yul\":17711:17716   */\n      dup4\n        /* \"#utility.yul\":17707:17723   */\n      add\n        /* \"#utility.yul\":17700:17796   */\n      mstore\n        /* \"#utility.yul\":17483:17807   */\n      pop\n        /* \"#utility.yul\":16871:17814   */\n      swap3\n      swap2\n      pop\n      pop\n      jump\t// out\n        /* \"#utility.yul\":17820:18382   */\n    tag_97:\n        /* \"#utility.yul\":17919:17925   */\n      0x00\n        /* \"#utility.yul\":17968:17970   */\n      0x20\n        /* \"#utility.yul\":17956:17965   */\n      dup3\n        /* \"#utility.yul\":17947:17954   */\n      dup5\n        /* \"#utility.yul\":17943:17966   */\n      sub\n        /* \"#utility.yul\":17939:17971   */\n      slt\n        /* \"#utility.yul\":17936:18055   */\n      iszero\n      tag_481\n      jumpi\n        /* \"#utility.yul\":17974:18053   */\n      tag_482\n      tag_238\n      jump\t// in\n    tag_482:\n        /* \"#utility.yul\":17936:18055   */\n    tag_481:\n        /* \"#utility.yul\":18115:18116   */\n      0x00\n        /* \"#utility.yul\":18104:18113   */\n      dup3\n        /* \"#utility.yul\":18100:18117   */\n      add\n        /* \"#utility.yul\":18094:18118   */\n      mload\n        /* \"#utility.yul\":18145:18163   */\n      0xffffffffffffffff\n        /* \"#utility.yul\":18137:18143   */\n      dup2\n        /* \"#utility.yul\":18134:18164   */\n      gt\n        /* \"#utility.yul\":18131:18248   */\n      iszero\n      tag_483\n      jumpi\n        /* \"#utility.yul\":18167:18246   */\n      tag_484\n      tag_239\n      jump\t// in\n    tag_484:\n        /* \"#utility.yul\":18131:18248   */\n    tag_483:\n        /* \"#utility.yul\":18272:18365   */\n      tag_485\n        /* \"#utility.yul\":18357:18364   */\n      dup5\n        /* \"#utility.yul\":18348:18354   */\n      dup3\n        /* \"#utility.yul\":18337:18346   */\n      dup6\n        /* \"#utility.yul\":18333:18355   */\n      add\n        /* \"#utility.yul\":18272:18365   */\n      tag_285\n      jump\t// in\n    tag_485:\n        /* \"#utility.yul\":18262:18365   */\n      swap2\n      pop\n        /* \"#utility.yul\":18065:18375   */\n      pop\n        /* \"#utility.yul\":17820:18382   */\n      swap3\n      swap2\n      pop\n      pop\n      jump\t// out\n        /* \"#utility.yul\":18388:18558   */\n    tag_286:\n        /* \"#utility.yul\":18528:18550   */\n      0x55736572206e6f74207265676973746572656421000000000000000000000000\n        /* \"#utility.yul\":18524:18525   */\n      0x00\n        /* \"#utility.yul\":18516:18522   */\n      dup3\n        /* \"#utility.yul\":18512:18526   */\n      add\n        /* \"#utility.yul\":18505:18551   */\n      mstore\n        /* \"#utility.yul\":18388:18558   */\n      pop\n      jump\t// out\n        /* \"#utility.yul\":18564:18930   */\n    tag_287:\n        /* \"#utility.yul\":18706:18709   */\n      0x00\n        /* \"#utility.yul\":18727:18794   */\n      tag_488\n        /* \"#utility.yul\":18791:18793   */\n      0x14\n        /* \"#utility.yul\":18786:18789   */\n      dup4\n        /* \"#utility.yul\":18727:18794   */\n      tag_250\n      jump\t// in\n    tag_488:\n        /* \"#utility.yul\":18720:18794   */\n      swap2\n      pop\n        /* \"#utility.yul\":18803:18896   */\n      tag_489\n        /* \"#utility.yul\":18892:18895   */\n      dup3\n        /* \"#utility.yul\":18803:18896   */\n      tag_286\n      jump\t// in\n    tag_489:\n        /* \"#utility.yul\":18921:18923   */\n      0x20\n        /* \"#utility.yul\":18916:18919   */\n      dup3\n        /* \"#utility.yul\":18912:18924   */\n      add\n        /* \"#utility.yul\":18905:18924   */\n      swap1\n      pop\n        /* \"#utility.yul\":18564:18930   */\n      swap2\n      swap1\n      pop\n      jump\t// out\n        /* \"#utility.yul\":18936:19355   */\n    tag_100:\n        /* \"#utility.yul\":19102:19106   */\n      0x00\n        /* \"#utility.yul\":19140:19142   */\n      0x20\n        /* \"#utility.yul\":19129:19138   */\n      dup3\n        /* \"#utility.yul\":19125:19143   */\n      add\n        /* \"#utility.yul\":19117:19143   */\n      swap1\n      pop\n        /* \"#utility.yul\":19189:19198   */\n      dup2\n        /* \"#utility.yul\":19183:19187   */\n      dup2\n        /* \"#utility.yul\":19179:19199   */\n      sub\n        /* \"#utility.yul\":19175:19176   */\n      0x00\n        /* \"#utility.yul\":19164:19173   */\n      dup4\n        /* \"#utility.yul\":19160:19177   */\n      add\n        /* \"#utility.yul\":19153:19200   */\n      mstore\n        /* \"#utility.yul\":19217:19348   */\n      tag_491\n        /* \"#utility.yul\":19343:19347   */\n      dup2\n        /* \"#utility.yul\":19217:19348   */\n      tag_287\n      jump\t// in\n    tag_491:\n        /* \"#utility.yul\":19209:19348   */\n      swap1\n      pop\n        /* \"#utility.yul\":18936:19355   */\n      swap2\n      swap1\n      pop\n      jump\t// out\n        /* \"#utility.yul\":19361:19530   */\n    tag_288:\n        /* \"#utility.yul\":19501:19522   */\n      0x547765657420686173206e6f206c696b65732100000000000000000000000000\n        /* \"#utility.yul\":19497:19498   */\n      0x00\n        /* \"#utility.yul\":19489:19495   */\n      dup3\n        /* \"#utility.yul\":19485:19499   */\n      add\n        /* \"#utility.yul\":19478:19523   */\n      mstore\n        /* \"#utility.yul\":19361:19530   */\n      pop\n      jump\t// out\n        /* \"#utility.yul\":19536:19902   */\n    tag_289:\n        /* \"#utility.yul\":19678:19681   */\n      0x00\n        /* \"#utility.yul\":19699:19766   */\n      tag_494\n        /* \"#utility.yul\":19763:19765   */\n      0x13\n        /* \"#utility.yul\":19758:19761   */\n      dup4\n        /* \"#utility.yul\":19699:19766   */\n      tag_250\n      jump\t// in\n    tag_494:\n        /* \"#utility.yul\":19692:19766   */\n      swap2\n      pop\n        /* \"#utility.yul\":19775:19868   */\n      tag_495\n        /* \"#utility.yul\":19864:19867   */\n      dup3\n        /* \"#utility.yul\":19775:19868   */\n      tag_288\n      jump\t// in\n    tag_495:\n        /* \"#utility.yul\":19893:19895   */\n      0x20\n        /* \"#utility.yul\":19888:19891   */\n      dup3\n        /* \"#utility.yul\":19884:19896   */\n      add\n        /* \"#utility.yul\":19877:19896   */\n      swap1\n      pop\n        /* \"#utility.yul\":19536:19902   */\n      swap2\n      swap1\n      pop\n      jump\t// out\n        /* \"#utility.yul\":19908:20327   */\n    tag_107:\n        /* \"#utility.yul\":20074:20078   */\n      0x00\n        /* \"#utility.yul\":20112:20114   */\n      0x20\n        /* \"#utility.yul\":20101:20110   */\n      dup3\n        /* \"#utility.yul\":20097:20115   */\n      add\n        /* \"#utility.yul\":20089:20115   */\n      swap1\n      pop\n        /* \"#utility.yul\":20161:20170   */\n      dup2\n        /* \"#utility.yul\":20155:20159   */\n      dup2\n        /* \"#utility.yul\":20151:20171   */\n      sub\n        /* \"#utility.yul\":20147:20148   */\n      0x00\n        /* \"#utility.yul\":20136:20145   */\n      dup4\n        /* \"#utility.yul\":20132:20149   */\n      add\n        /* \"#utility.yul\":20125:20172   */\n      mstore\n        /* \"#utility.yul\":20189:20320   */\n      tag_497\n        /* \"#utility.yul\":20315:20319   */\n      dup2\n        /* \"#utility.yul\":20189:20320   */\n      tag_289\n      jump\t// in\n    tag_497:\n        /* \"#utility.yul\":20181:20320   */\n      swap1\n      pop\n        /* \"#utility.yul\":19908:20327   */\n      swap2\n      swap1\n      pop\n      jump\t// out\n        /* \"#utility.yul\":20333:20513   */\n    tag_290:\n        /* \"#utility.yul\":20381:20458   */\n      0x4e487b7100000000000000000000000000000000000000000000000000000000\n        /* \"#utility.yul\":20378:20379   */\n      0x00\n        /* \"#utility.yul\":20371:20459   */\n      mstore\n        /* \"#utility.yul\":20478:20482   */\n      0x11\n        /* \"#utility.yul\":20475:20476   */\n      0x04\n        /* \"#utility.yul\":20468:20483   */\n      mstore\n        /* \"#utility.yul\":20502:20506   */\n      0x24\n        /* \"#utility.yul\":20499:20500   */\n      0x00\n        /* \"#utility.yul\":20492:20507   */\n      revert\n        /* \"#utility.yul\":20519:20690   */\n    tag_112:\n        /* \"#utility.yul\":20558:20561   */\n      0x00\n        /* \"#utility.yul\":20581:20605   */\n      tag_500\n        /* \"#utility.yul\":20599:20604   */\n      dup3\n        /* \"#utility.yul\":20581:20605   */\n      tag_244\n      jump\t// in\n    tag_500:\n        /* \"#utility.yul\":20572:20605   */\n      swap2\n      pop\n        /* \"#utility.yul\":20627:20631   */\n      0x00\n        /* \"#utility.yul\":20620:20625   */\n      dup3\n        /* \"#utility.yul\":20617:20632   */\n      sub\n        /* \"#utility.yul\":20614:20655   */\n      tag_501\n      jumpi\n        /* \"#utility.yul\":20635:20653   */\n      tag_502\n      tag_290\n      jump\t// in\n    tag_502:\n        /* \"#utility.yul\":20614:20655   */\n    tag_501:\n        /* \"#utility.yul\":20682:20683   */\n      0x01\n        /* \"#utility.yul\":20675:20680   */\n      dup3\n        /* \"#utility.yul\":20671:20684   */\n      sub\n        /* \"#utility.yul\":20664:20684   */\n      swap1\n      pop\n        /* \"#utility.yul\":20519:20690   */\n      swap2\n      swap1\n      pop\n      jump\t// out\n        /* \"#utility.yul\":20696:21249   */\n    tag_117:\n        /* \"#utility.yul\":20873:20877   */\n      0x00\n        /* \"#utility.yul\":20911:20914   */\n      0x80\n        /* \"#utility.yul\":20900:20909   */\n      dup3\n        /* \"#utility.yul\":20896:20915   */\n      add\n        /* \"#utility.yul\":20888:20915   */\n      swap1\n      pop\n        /* \"#utility.yul\":20925:20996   */\n      tag_504\n        /* \"#utility.yul\":20993:20994   */\n      0x00\n        /* \"#utility.yul\":20982:20991   */\n      dup4\n        /* \"#utility.yul\":20978:20995   */\n      add\n        /* \"#utility.yul\":20969:20975   */\n      dup8\n        /* \"#utility.yul\":20925:20996   */\n      tag_248\n      jump\t// in\n    tag_504:\n        /* \"#utility.yul\":21006:21078   */\n      tag_505\n        /* \"#utility.yul\":21074:21076   */\n      0x20\n        /* \"#utility.yul\":21063:21072   */\n      dup4\n        /* \"#utility.yul\":21059:21077   */\n      add\n        /* \"#utility.yul\":21050:21056   */\n      dup7\n        /* \"#utility.yul\":21006:21078   */\n      tag_248\n      jump\t// in\n    tag_505:\n        /* \"#utility.yul\":21088:21160   */\n      tag_506\n        /* \"#utility.yul\":21156:21158   */\n      0x40\n        /* \"#utility.yul\":21145:21154   */\n      dup4\n        /* \"#utility.yul\":21141:21159   */\n      add\n        /* \"#utility.yul\":21132:21138   */\n      dup6\n        /* \"#utility.yul\":21088:21160   */\n      tag_247\n      jump\t// in\n    tag_506:\n        /* \"#utility.yul\":21170:21242   */\n      tag_507\n        /* \"#utility.yul\":21238:21240   */\n      0x60\n        /* \"#utility.yul\":21227:21236   */\n      dup4\n        /* \"#utility.yul\":21223:21241   */\n      add\n        /* \"#utility.yul\":21214:21220   */\n      dup5\n        /* \"#utility.yul\":21170:21242   */\n      tag_247\n      jump\t// in\n    tag_507:\n        /* \"#utility.yul\":20696:21249   */\n      swap6\n      swap5\n      pop\n      pop\n      pop\n      pop\n      pop\n      jump\t// out\n        /* \"#utility.yul\":21255:21488   */\n    tag_140:\n        /* \"#utility.yul\":21294:21297   */\n      0x00\n        /* \"#utility.yul\":21317:21341   */\n      tag_509\n        /* \"#utility.yul\":21335:21340   */\n      dup3\n        /* \"#utility.yul\":21317:21341   */\n      tag_244\n      jump\t// in\n    tag_509:\n        /* \"#utility.yul\":21308:21341   */\n      swap2\n      pop\n        /* \"#utility.yul\":21363:21429   */\n      0xffffffffffffffffffffffffffffffffffffffffffffffffffffffffffffffff\n        /* \"#utility.yul\":21356:21361   */\n      dup3\n        /* \"#utility.yul\":21353:21430   */\n      sub\n        /* \"#utility.yul\":21350:21453   */\n      tag_510\n      jumpi\n        /* \"#utility.yul\":21433:21451   */\n      tag_511\n      tag_290\n      jump\t// in\n    tag_511:\n        /* \"#utility.yul\":21350:21453   */\n    tag_510:\n        /* \"#utility.yul\":21480:21481   */\n      0x01\n        /* \"#utility.yul\":21473:21478   */\n      dup3\n        /* \"#utility.yul\":21469:21482   */\n      add\n        /* \"#utility.yul\":21462:21482   */\n      swap1\n      pop\n        /* \"#utility.yul\":21255:21488   */\n      swap2\n      swap1\n      pop\n      jump\t// out\n        /* \"#utility.yul\":21494:21642   */\n    tag_291:\n        /* \"#utility.yul\":21596:21607   */\n      0x00\n        /* \"#utility.yul\":21633:21636   */\n      dup2\n        /* \"#utility.yul\":21618:21636   */\n      swap1\n      pop\n        /* \"#utility.yul\":21494:21642   */\n      swap3\n      swap2\n      pop\n      pop\n      jump\t// out\n        /* \"#utility.yul\":21648:21880   */\n    tag_292:\n        /* \"#utility.yul\":21788:21822   */\n      0x596f757220747765657420657863656564656420746865206c696d6974206f66\n        /* \"#utility.yul\":21784:21785   */\n      0x00\n        /* \"#utility.yul\":21776:21782   */\n      dup3\n        /* \"#utility.yul\":21772:21786   */\n      add\n        /* \"#utility.yul\":21765:21823   */\n      mstore\n        /* \"#utility.yul\":21857:21872   */\n      0x20636861726163746572733a2000000000000000000000000000000000000000\n        /* \"#utility.yul\":21852:21854   */\n      0x20\n        /* \"#utility.yul\":21844:21850   */\n      dup3\n        /* \"#utility.yul\":21840:21855   */\n      add\n        /* \"#utility.yul\":21833:21873   */\n      mstore\n        /* \"#utility.yul\":21648:21880   */\n      pop\n      jump\t// out\n        /* \"#utility.yul\":21886:22288   */\n    tag_293:\n        /* \"#utility.yul\":22046:22049   */\n      0x00\n        /* \"#utility.yul\":22067:22152   */\n      tag_515\n        /* \"#utility.yul\":22149:22151   */\n      0x2d\n        /* \"#utility.yul\":22144:22147   */\n      dup4\n        /* \"#utility.yul\":22067:22152   */\n      tag_291\n      jump\t// in\n    tag_515:\n        /* \"#utility.yul\":22060:22152   */\n      swap2\n      pop\n        /* \"#utility.yul\":22161:22254   */\n      tag_516\n        /* \"#utility.yul\":22250:22253   */\n      dup3\n        /* \"#utility.yul\":22161:22254   */\n      tag_292\n      jump\t// in\n    tag_516:\n        /* \"#utility.yul\":22279:22281   */\n      0x2d\n        /* \"#utility.yul\":22274:22277   */\n      dup3\n        /* \"#utility.yul\":22270:22282   */\n      add\n        /* \"#utility.yul\":22263:22282   */\n      swap1\n      pop\n        /* \"#utility.yul\":21886:22288   */\n      swap2\n      swap1\n      pop\n      jump\t// out\n        /* \"#utility.yul\":22294:22684   */\n    tag_294:\n        /* \"#utility.yul\":22400:22403   */\n      0x00\n        /* \"#utility.yul\":22428:22467   */\n      tag_518\n        /* \"#utility.yul\":22461:22466   */\n      dup3\n        /* \"#utility.yul\":22428:22467   */\n      tag_249\n      jump\t// in\n    tag_518:\n        /* \"#utility.yul\":22483:22572   */\n      tag_519\n        /* \"#utility.yul\":22565:22571   */\n      dup2\n        /* \"#utility.yul\":22560:22563   */\n      dup6\n        /* \"#utility.yul\":22483:22572   */\n      tag_291\n      jump\t// in\n    tag_519:\n        /* \"#utility.yul\":22476:22572   */\n      swap4\n      pop\n        /* \"#utility.yul\":22581:22646   */\n      tag_520\n        /* \"#utility.yul\":22639:22645   */\n      dup2\n        /* \"#utility.yul\":22634:22637   */\n      dup6\n        /* \"#utility.yul\":22627:22631   */\n      0x20\n        /* \"#utility.yul\":22620:22625   */\n      dup7\n        /* \"#utility.yul\":22616:22632   */\n      add\n        /* \"#utility.yul\":22581:22646   */\n      tag_251\n      jump\t// in\n    tag_520:\n        /* \"#utility.yul\":22671:22677   */\n      dup1\n        /* \"#utility.yul\":22666:22669   */\n      dup5\n        /* \"#utility.yul\":22662:22678   */\n      add\n        /* \"#utility.yul\":22655:22678   */\n      swap2\n      pop\n        /* \"#utility.yul\":22404:22684   */\n      pop\n        /* \"#utility.yul\":22294:22684   */\n      swap3\n      swap2\n      pop\n      pop\n      jump\t// out\n        /* \"#utility.yul\":22690:23231   */\n    tag_161:\n        /* \"#utility.yul\":22923:22926   */\n      0x00\n        /* \"#utility.yul\":22945:23093   */\n      tag_522\n        /* \"#utility.yul\":23089:23092   */\n      dup3\n        /* \"#utility.yul\":22945:23093   */\n      tag_293\n      jump\t// in\n    tag_522:\n        /* \"#utility.yul\":22938:23093   */\n      swap2\n      pop\n        /* \"#utility.yul\":23110:23205   */\n      tag_523\n        /* \"#utility.yul\":23201:23204   */\n      dup3\n        /* \"#utility.yul\":23192:23198   */\n      dup5\n        /* \"#utility.yul\":23110:23205   */\n      tag_294\n      jump\t// in\n    tag_523:\n        /* \"#utility.yul\":23103:23205   */\n      swap2\n      pop\n        /* \"#utility.yul\":23222:23225   */\n      dup2\n        /* \"#utility.yul\":23215:23225   */\n      swap1\n      pop\n        /* \"#utility.yul\":22690:23231   */\n      swap3\n      swap2\n      pop\n      pop\n      jump\t// out\n        /* \"#utility.yul\":23237:23550   */\n    tag_164:\n        /* \"#utility.yul\":23350:23354   */\n      0x00\n        /* \"#utility.yul\":23388:23390   */\n      0x20\n        /* \"#utility.yul\":23377:23386   */\n      dup3\n        /* \"#utility.yul\":23373:23391   */\n      add\n        /* \"#utility.yul\":23365:23391   */\n      swap1\n      pop\n        /* \"#utility.yul\":23437:23446   */\n      dup2\n        /* \"#utility.yul\":23431:23435   */\n      dup2\n        /* \"#utility.yul\":23427:23447   */\n      sub\n        /* \"#utility.yul\":23423:23424   */\n      0x00\n        /* \"#utility.yul\":23412:23421   */\n      dup4\n        /* \"#utility.yul\":23408:23425   */\n      add\n        /* \"#utility.yul\":23401:23448   */\n      mstore\n        /* \"#utility.yul\":23465:23543   */\n      tag_525\n        /* \"#utility.yul\":23538:23542   */\n      dup2\n        /* \"#utility.yul\":23529:23535   */\n      dup5\n        /* \"#utility.yul\":23465:23543   */\n      tag_253\n      jump\t// in\n    tag_525:\n        /* \"#utility.yul\":23457:23543   */\n      swap1\n      pop\n        /* \"#utility.yul\":23237:23550   */\n      swap3\n      swap2\n      pop\n      pop\n      jump\t// out\n        /* \"#utility.yul\":23556:23697   */\n    tag_295:\n        /* \"#utility.yul\":23605:23609   */\n      0x00\n        /* \"#utility.yul\":23628:23631   */\n      dup2\n        /* \"#utility.yul\":23620:23631   */\n      swap1\n      pop\n        /* \"#utility.yul\":23651:23654   */\n      dup2\n        /* \"#utility.yul\":23648:23649   */\n      0x00\n        /* \"#utility.yul\":23641:23655   */\n      mstore\n        /* \"#utility.yul\":23685:23689   */\n      0x20\n        /* \"#utility.yul\":23682:23683   */\n      0x00\n        /* \"#utility.yul\":23672:23690   */\n      keccak256\n        /* \"#utility.yul\":23664:23690   */\n      swap1\n      pop\n        /* \"#utility.yul\":23556:23697   */\n      swap2\n      swap1\n      pop\n      jump\t// out\n        /* \"#utility.yul\":23703:23796   */\n    tag_296:\n        /* \"#utility.yul\":23740:23746   */\n      0x00\n        /* \"#utility.yul\":23787:23789   */\n      0x20\n        /* \"#utility.yul\":23782:23784   */\n      0x1f\n        /* \"#utility.yul\":23775:23780   */\n      dup4\n        /* \"#utility.yul\":23771:23785   */\n      add\n        /* \"#utility.yul\":23767:23790   */\n      div\n        /* \"#utility.yul\":23757:23790   */\n      swap1\n      pop\n        /* \"#utility.yul\":23703:23796   */\n      swap2\n      swap1\n      pop\n      jump\t// out\n        /* \"#utility.yul\":23802:23909   */\n    tag_297:\n        /* \"#utility.yul\":23846:23854   */\n      0x00\n        /* \"#utility.yul\":23896:23901   */\n      dup3\n        /* \"#utility.yul\":23890:23894   */\n      dup3\n        /* \"#utility.yul\":23886:23902   */\n      shl\n        /* \"#utility.yul\":23865:23902   */\n      swap1\n      pop\n        /* \"#utility.yul\":23802:23909   */\n      swap3\n      swap2\n      pop\n      pop\n      jump\t// out\n        /* \"#utility.yul\":23915:24308   */\n    tag_298:\n        /* \"#utility.yul\":23984:23990   */\n      0x00\n        /* \"#utility.yul\":24034:24035   */\n      0x08\n        /* \"#utility.yul\":24022:24032   */\n      dup4\n        /* \"#utility.yul\":24018:24036   */\n      mul\n        /* \"#utility.yul\":24057:24154   */\n      tag_530\n        /* \"#utility.yul\":24087:24153   */\n      0xffffffffffffffffffffffffffffffffffffffffffffffffffffffffffffffff\n        /* \"#utility.yul\":24076:24085   */\n      dup3\n        /* \"#utility.yul\":24057:24154   */\n      tag_297\n      jump\t// in\n    tag_530:\n        /* \"#utility.yul\":24175:24214   */\n      tag_531\n        /* \"#utility.yul\":24205:24213   */\n      dup7\n        /* \"#utility.yul\":24194:24203   */\n      dup4\n        /* \"#utility.yul\":24175:24214   */\n      tag_297\n      jump\t// in\n    tag_531:\n        /* \"#utility.yul\":24163:24214   */\n      swap6\n      pop\n        /* \"#utility.yul\":24247:24251   */\n      dup1\n        /* \"#utility.yul\":24243:24252   */\n      not\n        /* \"#utility.yul\":24236:24241   */\n      dup5\n        /* \"#utility.yul\":24232:24253   */\n      and\n        /* \"#utility.yul\":24223:24253   */\n      swap4\n      pop\n        /* \"#utility.yul\":24296:24300   */\n      dup1\n        /* \"#utility.yul\":24286:24294   */\n      dup7\n        /* \"#utility.yul\":24282:24301   */\n      and\n        /* \"#utility.yul\":24275:24280   */\n      dup5\n        /* \"#utility.yul\":24272:24302   */\n      or\n        /* \"#utility.yul\":24262:24302   */\n      swap3\n      pop\n        /* \"#utility.yul\":23991:24308   */\n      pop\n      pop\n        /* \"#utility.yul\":23915:24308   */\n      swap4\n      swap3\n      pop\n      pop\n      pop\n      jump\t// out\n        /* \"#utility.yul\":24314:24374   */\n    tag_299:\n        /* \"#utility.yul\":24342:24345   */\n      0x00\n        /* \"#utility.yul\":24363:24368   */\n      dup2\n        /* \"#utility.yul\":24356:24368   */\n      swap1\n      pop\n        /* \"#utility.yul\":24314:24374   */\n      swap2\n      swap1\n      pop\n      jump\t// out\n        /* \"#utility.yul\":24380:24522   */\n    tag_300:\n        /* \"#utility.yul\":24430:24439   */\n      0x00\n        /* \"#utility.yul\":24463:24516   */\n      tag_534\n        /* \"#utility.yul\":24481:24515   */\n      tag_535\n        /* \"#utility.yul\":24490:24514   */\n      tag_536\n        /* \"#utility.yul\":24508:24513   */\n      dup5\n        /* \"#utility.yul\":24490:24514   */\n      tag_244\n      jump\t// in\n    tag_536:\n        /* \"#utility.yul\":24481:24515   */\n      tag_299\n      jump\t// in\n    tag_535:\n        /* \"#utility.yul\":24463:24516   */\n      tag_244\n      jump\t// in\n    tag_534:\n        /* \"#utility.yul\":24450:24516   */\n      swap1\n      pop\n        /* \"#utility.yul\":24380:24522   */\n      swap2\n      swap1\n      pop\n      jump\t// out\n        /* \"#utility.yul\":24528:24603   */\n    tag_301:\n        /* \"#utility.yul\":24571:24574   */\n      0x00\n        /* \"#utility.yul\":24592:24597   */\n      dup2\n        /* \"#utility.yul\":24585:24597   */\n      swap1\n      pop\n        /* \"#utility.yul\":24528:24603   */\n      swap2\n      swap1\n      pop\n      jump\t// out\n        /* \"#utility.yul\":24609:24878   */\n    tag_302:\n        /* \"#utility.yul\":24719:24758   */\n      tag_539\n        /* \"#utility.yul\":24750:24757   */\n      dup4\n        /* \"#utility.yul\":24719:24758   */\n      tag_300\n      jump\t// in\n    tag_539:\n        /* \"#utility.yul\":24780:24871   */\n      tag_540\n        /* \"#utility.yul\":24829:24870   */\n      tag_541\n        /* \"#utility.yul\":24853:24869   */\n      dup3\n        /* \"#utility.yul\":24829:24870   */\n      tag_301\n      jump\t// in\n    tag_541:\n        /* \"#utility.yul\":24821:24827   */\n      dup5\n        /* \"#utility.yul\":24814:24818   */\n      dup5\n        /* \"#utility.yul\":24808:24819   */\n      sload\n        /* \"#utility.yul\":24780:24871   */\n      tag_298\n      jump\t// in\n    tag_540:\n        /* \"#utility.yul\":24774:24778   */\n      dup3\n        /* \"#utility.yul\":24767:24872   */\n      sstore\n        /* \"#utility.yul\":24685:24878   */\n      pop\n        /* \"#utility.yul\":24609:24878   */\n      pop\n      pop\n      pop\n      jump\t// out\n        /* \"#utility.yul\":24884:24957   */\n    tag_303:\n        /* \"#utility.yul\":24929:24932   */\n      0x00\n        /* \"#utility.yul\":24884:24957   */\n      swap1\n      jump\t// out\n        /* \"#utility.yul\":24963:25152   */\n    tag_304:\n        /* \"#utility.yul\":25040:25072   */\n      tag_544\n      tag_303\n      jump\t// in\n    tag_544:\n        /* \"#utility.yul\":25081:25146   */\n      tag_545\n        /* \"#utility.yul\":25139:25145   */\n      dup2\n        /* \"#utility.yul\":25131:25137   */\n      dup5\n        /* \"#utility.yul\":25125:25129   */\n      dup5\n        /* \"#utility.yul\":25081:25146   */\n      tag_302\n      jump\t// in\n    tag_545:\n        /* \"#utility.yul\":25016:25152   */\n      pop\n        /* \"#utility.yul\":24963:25152   */\n      pop\n      pop\n      jump\t// out\n        /* \"#utility.yul\":25158:25344   */\n    tag_305:\n        /* \"#utility.yul\":25218:25338   */\n    tag_547:\n        /* \"#utility.yul\":25235:25238   */\n      dup2\n        /* \"#utility.yul\":25228:25233   */\n      dup2\n        /* \"#utility.yul\":25225:25239   */\n      lt\n        /* \"#utility.yul\":25218:25338   */\n      iszero\n      tag_549\n      jumpi\n        /* \"#utility.yul\":25289:25328   */\n      tag_550\n        /* \"#utility.yul\":25326:25327   */\n      0x00\n        /* \"#utility.yul\":25319:25324   */\n      dup3\n        /* \"#utility.yul\":25289:25328   */\n      tag_304\n      jump\t// in\n    tag_550:\n        /* \"#utility.yul\":25262:25263   */\n      0x01\n        /* \"#utility.yul\":25255:25260   */\n      dup2\n        /* \"#utility.yul\":25251:25264   */\n      add\n        /* \"#utility.yul\":25242:25264   */\n      swap1\n      pop\n        /* \"#utility.yul\":25218:25338   */\n      jump(tag_547)\n    tag_549:\n        /* \"#utility.yul\":25158:25344   */\n      pop\n      pop\n      jump\t// out\n        /* \"#utility.yul\":25350:25893   */\n    tag_306:\n        /* \"#utility.yul\":25451:25453   */\n      0x1f\n        /* \"#utility.yul\":25446:25449   */\n      dup3\n        /* \"#utility.yul\":25443:25454   */\n      gt\n        /* \"#utility.yul\":25440:25886   */\n      iszero\n      tag_552\n      jumpi\n        /* \"#utility.yul\":25485:25523   */\n      tag_553\n        /* \"#utility.yul\":25517:25522   */\n      dup2\n        /* \"#utility.yul\":25485:25523   */\n      tag_295\n      jump\t// in\n    tag_553:\n        /* \"#utility.yul\":25569:25598   */\n      tag_554\n        /* \"#utility.yul\":25587:25597   */\n      dup5\n        /* \"#utility.yul\":25569:25598   */\n      tag_296\n      jump\t// in\n    tag_554:\n        /* \"#utility.yul\":25559:25567   */\n      dup2\n        /* \"#utility.yul\":25555:25599   */\n      add\n        /* \"#utility.yul\":25752:25754   */\n      0x20\n        /* \"#utility.yul\":25740:25750   */\n      dup6\n        /* \"#utility.yul\":25737:25755   */\n      lt\n        /* \"#utility.yul\":25734:25783   */\n      iszero\n      tag_555\n      jumpi\n        /* \"#utility.yul\":25773:25781   */\n      dup2\n        /* \"#utility.yul\":25758:25781   */\n      swap1\n      pop\n        /* \"#utility.yul\":25734:25783   */\n    tag_555:\n        /* \"#utility.yul\":25796:25876   */\n      tag_556\n        /* \"#utility.yul\":25852:25874   */\n      tag_557\n        /* \"#utility.yul\":25870:25873   */\n      dup6\n        /* \"#utility.yul\":25852:25874   */\n      tag_296\n      jump\t// in\n    tag_557:\n        /* \"#utility.yul\":25842:25850   */\n      dup4\n        /* \"#utility.yul\":25838:25875   */\n      add\n        /* \"#utility.yul\":25825:25836   */\n      dup3\n        /* \"#utility.yul\":25796:25876   */\n      tag_305\n      jump\t// in\n    tag_556:\n        /* \"#utility.yul\":25455:25886   */\n      pop\n      pop\n        /* \"#utility.yul\":25440:25886   */\n    tag_552:\n        /* \"#utility.yul\":25350:25893   */\n      pop\n      pop\n      pop\n      jump\t// out\n        /* \"#utility.yul\":25899:26016   */\n    tag_307:\n        /* \"#utility.yul\":25953:25961   */\n      0x00\n        /* \"#utility.yul\":26003:26008   */\n      dup3\n        /* \"#utility.yul\":25997:26001   */\n      dup3\n        /* \"#utility.yul\":25993:26009   */\n      shr\n        /* \"#utility.yul\":25972:26009   */\n      swap1\n      pop\n        /* \"#utility.yul\":25899:26016   */\n      swap3\n      swap2\n      pop\n      pop\n      jump\t// out\n        /* \"#utility.yul\":26022:26191   */\n    tag_308:\n        /* \"#utility.yul\":26066:26072   */\n      0x00\n        /* \"#utility.yul\":26099:26150   */\n      tag_560\n        /* \"#utility.yul\":26147:26148   */\n      0x00\n        /* \"#utility.yul\":26143:26149   */\n      not\n        /* \"#utility.yul\":26135:26140   */\n      dup5\n        /* \"#utility.yul\":26132:26133   */\n      0x08\n        /* \"#utility.yul\":26128:26141   */\n      mul\n        /* \"#utility.yul\":26099:26150   */\n      tag_307\n      jump\t// in\n    tag_560:\n        /* \"#utility.yul\":26095:26151   */\n      not\n        /* \"#utility.yul\":26180:26184   */\n      dup1\n        /* \"#utility.yul\":26174:26178   */\n      dup4\n        /* \"#utility.yul\":26170:26185   */\n      and\n        /* \"#utility.yul\":26160:26185   */\n      swap2\n      pop\n        /* \"#utility.yul\":26073:26191   */\n      pop\n        /* \"#utility.yul\":26022:26191   */\n      swap3\n      swap2\n      pop\n      pop\n      jump\t// out\n        /* \"#utility.yul\":26196:26491   */\n    tag_309:\n        /* \"#utility.yul\":26272:26276   */\n      0x00\n        /* \"#utility.yul\":26418:26447   */\n      tag_562\n        /* \"#utility.yul\":26443:26446   */\n      dup4\n        /* \"#utility.yul\":26437:26441   */\n      dup4\n        /* \"#utility.yul\":26418:26447   */\n      tag_308\n      jump\t// in\n    tag_562:\n        /* \"#utility.yul\":26410:26447   */\n      swap2\n      pop\n        /* \"#utility.yul\":26480:26483   */\n      dup3\n        /* \"#utility.yul\":26477:26478   */\n      0x02\n        /* \"#utility.yul\":26473:26484   */\n      mul\n        /* \"#utility.yul\":26467:26471   */\n      dup3\n        /* \"#utility.yul\":26464:26485   */\n      or\n        /* \"#utility.yul\":26456:26485   */\n      swap1\n      pop\n        /* \"#utility.yul\":26196:26491   */\n      swap3\n      swap2\n      pop\n      pop\n      jump\t// out\n        /* \"#utility.yul\":26496:27891   */\n    tag_167:\n        /* \"#utility.yul\":26613:26650   */\n      tag_564\n        /* \"#utility.yul\":26646:26649   */\n      dup3\n        /* \"#utility.yul\":26613:26650   */\n      tag_249\n      jump\t// in\n    tag_564:\n        /* \"#utility.yul\":26715:26733   */\n      0xffffffffffffffff\n        /* \"#utility.yul\":26707:26713   */\n      dup2\n        /* \"#utility.yul\":26704:26734   */\n      gt\n        /* \"#utility.yul\":26701:26757   */\n      iszero\n      tag_565\n      jumpi\n        /* \"#utility.yul\":26737:26755   */\n      tag_566\n      tag_208\n      jump\t// in\n    tag_566:\n        /* \"#utility.yul\":26701:26757   */\n    tag_565:\n        /* \"#utility.yul\":26781:26819   */\n      tag_567\n        /* \"#utility.yul\":26813:26817   */\n      dup3\n        /* \"#utility.yul\":26807:26818   */\n      sload\n        /* \"#utility.yul\":26781:26819   */\n      tag_68\n      jump\t// in\n    tag_567:\n        /* \"#utility.yul\":26866:26933   */\n      tag_568\n        /* \"#utility.yul\":26926:26932   */\n      dup3\n        /* \"#utility.yul\":26918:26924   */\n      dup3\n        /* \"#utility.yul\":26912:26916   */\n      dup6\n        /* \"#utility.yul\":26866:26933   */\n      tag_306\n      jump\t// in\n    tag_568:\n        /* \"#utility.yul\":26960:26961   */\n      0x00\n        /* \"#utility.yul\":26984:26988   */\n      0x20\n        /* \"#utility.yul\":26971:26988   */\n      swap1\n      pop\n        /* \"#utility.yul\":27016:27018   */\n      0x1f\n        /* \"#utility.yul\":27008:27014   */\n      dup4\n        /* \"#utility.yul\":27005:27019   */\n      gt\n        /* \"#utility.yul\":27033:27034   */\n      0x01\n        /* \"#utility.yul\":27028:27646   */\n      dup2\n      eq\n      tag_570\n      jumpi\n        /* \"#utility.yul\":27690:27691   */\n      0x00\n        /* \"#utility.yul\":27707:27713   */\n      dup5\n        /* \"#utility.yul\":27704:27781   */\n      iszero\n      tag_571\n      jumpi\n        /* \"#utility.yul\":27756:27765   */\n      dup3\n        /* \"#utility.yul\":27751:27754   */\n      dup8\n        /* \"#utility.yul\":27747:27766   */\n      add\n        /* \"#utility.yul\":27741:27767   */\n      mload\n        /* \"#utility.yul\":27732:27767   */\n      swap1\n      pop\n        /* \"#utility.yul\":27704:27781   */\n    tag_571:\n        /* \"#utility.yul\":27807:27874   */\n      tag_572\n        /* \"#utility.yul\":27867:27873   */\n      dup6\n        /* \"#utility.yul\":27860:27865   */\n      dup3\n        /* \"#utility.yul\":27807:27874   */\n      tag_309\n      jump\t// in\n    tag_572:\n        /* \"#utility.yul\":27801:27805   */\n      dup7\n        /* \"#utility.yul\":27794:27875   */\n      sstore\n        /* \"#utility.yul\":27663:27885   */\n      pop\n        /* \"#utility.yul\":26998:27885   */\n      jump(tag_569)\n        /* \"#utility.yul\":27028:27646   */\n    tag_570:\n        /* \"#utility.yul\":27080:27084   */\n      0x1f\n        /* \"#utility.yul\":27076:27085   */\n      not\n        /* \"#utility.yul\":27068:27074   */\n      dup5\n        /* \"#utility.yul\":27064:27086   */\n      and\n        /* \"#utility.yul\":27114:27151   */\n      tag_573\n        /* \"#utility.yul\":27146:27150   */\n      dup7\n        /* \"#utility.yul\":27114:27151   */\n      tag_295\n      jump\t// in\n    tag_573:\n        /* \"#utility.yul\":27173:27174   */\n      0x00\n        /* \"#utility.yul\":27187:27395   */\n    tag_574:\n        /* \"#utility.yul\":27201:27208   */\n      dup3\n        /* \"#utility.yul\":27198:27199   */\n      dup2\n        /* \"#utility.yul\":27195:27209   */\n      lt\n        /* \"#utility.yul\":27187:27395   */\n      iszero\n      tag_576\n      jumpi\n        /* \"#utility.yul\":27280:27289   */\n      dup5\n        /* \"#utility.yul\":27275:27278   */\n      dup10\n        /* \"#utility.yul\":27271:27290   */\n      add\n        /* \"#utility.yul\":27265:27291   */\n      mload\n        /* \"#utility.yul\":27257:27263   */\n      dup3\n        /* \"#utility.yul\":27250:27292   */\n      sstore\n        /* \"#utility.yul\":27331:27332   */\n      0x01\n        /* \"#utility.yul\":27323:27329   */\n      dup3\n        /* \"#utility.yul\":27319:27333   */\n      add\n        /* \"#utility.yul\":27309:27333   */\n      swap2\n      pop\n        /* \"#utility.yul\":27378:27380   */\n      0x20\n        /* \"#utility.yul\":27367:27376   */\n      dup6\n        /* \"#utility.yul\":27363:27381   */\n      add\n        /* \"#utility.yul\":27350:27381   */\n      swap5\n      pop\n        /* \"#utility.yul\":27224:27228   */\n      0x20\n        /* \"#utility.yul\":27221:27222   */\n      dup2\n        /* \"#utility.yul\":27217:27229   */\n      add\n        /* \"#utility.yul\":27212:27229   */\n      swap1\n      pop\n        /* \"#utility.yul\":27187:27395   */\n      jump(tag_574)\n    tag_576:\n        /* \"#utility.yul\":27423:27429   */\n      dup7\n        /* \"#utility.yul\":27414:27421   */\n      dup4\n        /* \"#utility.yul\":27411:27430   */\n      lt\n        /* \"#utility.yul\":27408:27587   */\n      iszero\n      tag_577\n      jumpi\n        /* \"#utility.yul\":27481:27490   */\n      dup5\n        /* \"#utility.yul\":27476:27479   */\n      dup10\n        /* \"#utility.yul\":27472:27491   */\n      add\n        /* \"#utility.yul\":27466:27492   */\n      mload\n        /* \"#utility.yul\":27524:27572   */\n      tag_578\n        /* \"#utility.yul\":27566:27570   */\n      0x1f\n        /* \"#utility.yul\":27558:27564   */\n      dup10\n        /* \"#utility.yul\":27554:27571   */\n      and\n        /* \"#utility.yul\":27543:27552   */\n      dup3\n        /* \"#utility.yul\":27524:27572   */\n      tag_308\n      jump\t// in\n    tag_578:\n        /* \"#utility.yul\":27516:27522   */\n      dup4\n        /* \"#utility.yul\":27509:27573   */\n      sstore\n        /* \"#utility.yul\":27431:27587   */\n      pop\n        /* \"#utility.yul\":27408:27587   */\n    tag_577:\n        /* \"#utility.yul\":27633:27634   */\n      0x01\n        /* \"#utility.yul\":27629:27630   */\n      0x02\n        /* \"#utility.yul\":27621:27627   */\n      dup9\n        /* \"#utility.yul\":27617:27631   */\n      mul\n        /* \"#utility.yul\":27613:27635   */\n      add\n        /* \"#utility.yul\":27607:27611   */\n      dup9\n        /* \"#utility.yul\":27600:27636   */\n      sstore\n        /* \"#utility.yul\":27035:27646   */\n      pop\n      pop\n      pop\n        /* \"#utility.yul\":26998:27885   */\n    tag_569:\n      pop\n        /* \"#utility.yul\":26588:27891   */\n      pop\n      pop\n      pop\n        /* \"#utility.yul\":26496:27891   */\n      pop\n      pop\n      jump\t// out\n        /* \"#utility.yul\":27897:28541   */\n    tag_169:\n        /* \"#utility.yul\":28094:28098   */\n      0x00\n        /* \"#utility.yul\":28132:28135   */\n      0x80\n        /* \"#utility.yul\":28121:28130   */\n      dup3\n        /* \"#utility.yul\":28117:28136   */\n      add\n        /* \"#utility.yul\":28109:28136   */\n      swap1\n      pop\n        /* \"#utility.yul\":28146:28217   */\n      tag_580\n        /* \"#utility.yul\":28214:28215   */\n      0x00\n        /* \"#utility.yul\":28203:28212   */\n      dup4\n        /* \"#utility.yul\":28199:28216   */\n      add\n        /* \"#utility.yul\":28190:28196   */\n      dup8\n        /* \"#utility.yul\":28146:28217   */\n      tag_247\n      jump\t// in\n    tag_580:\n        /* \"#utility.yul\":28227:28299   */\n      tag_581\n        /* \"#utility.yul\":28295:28297   */\n      0x20\n        /* \"#utility.yul\":28284:28293   */\n      dup4\n        /* \"#utility.yul\":28280:28298   */\n      add\n        /* \"#utility.yul\":28271:28277   */\n      dup7\n        /* \"#utility.yul\":28227:28299   */\n      tag_248\n      jump\t// in\n    tag_581:\n        /* \"#utility.yul\":28346:28355   */\n      dup2\n        /* \"#utility.yul\":28340:28344   */\n      dup2\n        /* \"#utility.yul\":28336:28356   */\n      sub\n        /* \"#utility.yul\":28331:28333   */\n      0x40\n        /* \"#utility.yul\":28320:28329   */\n      dup4\n        /* \"#utility.yul\":28316:28334   */\n      add\n        /* \"#utility.yul\":28309:28357   */\n      mstore\n        /* \"#utility.yul\":28374:28452   */\n      tag_582\n        /* \"#utility.yul\":28447:28451   */\n      dup2\n        /* \"#utility.yul\":28438:28444   */\n      dup6\n        /* \"#utility.yul\":28374:28452   */\n      tag_253\n      jump\t// in\n    tag_582:\n        /* \"#utility.yul\":28366:28452   */\n      swap1\n      pop\n        /* \"#utility.yul\":28462:28534   */\n      tag_583\n        /* \"#utility.yul\":28530:28532   */\n      0x60\n        /* \"#utility.yul\":28519:28528   */\n      dup4\n        /* \"#utility.yul\":28515:28533   */\n      add\n        /* \"#utility.yul\":28506:28512   */\n      dup5\n        /* \"#utility.yul\":28462:28534   */\n      tag_247\n      jump\t// in\n    tag_583:\n        /* \"#utility.yul\":27897:28541   */\n      swap6\n      swap5\n      pop\n      pop\n      pop\n      pop\n      pop\n      jump\t// out\n        /* \"#utility.yul\":28547:28738   */\n    tag_187:\n        /* \"#utility.yul\":28587:28590   */\n      0x00\n        /* \"#utility.yul\":28606:28626   */\n      tag_585\n        /* \"#utility.yul\":28624:28625   */\n      dup3\n        /* \"#utility.yul\":28606:28626   */\n      tag_244\n      jump\t// in\n    tag_585:\n        /* \"#utility.yul\":28601:28626   */\n      swap2\n      pop\n        /* \"#utility.yul\":28640:28660   */\n      tag_586\n        /* \"#utility.yul\":28658:28659   */\n      dup4\n        /* \"#utility.yul\":28640:28660   */\n      tag_244\n      jump\t// in\n    tag_586:\n        /* \"#utility.yul\":28635:28660   */\n      swap3\n      pop\n        /* \"#utility.yul\":28683:28684   */\n      dup3\n        /* \"#utility.yul\":28680:28681   */\n      dup3\n        /* \"#utility.yul\":28676:28685   */\n      add\n        /* \"#utility.yul\":28669:28685   */\n      swap1\n      pop\n        /* \"#utility.yul\":28704:28707   */\n      dup1\n        /* \"#utility.yul\":28701:28702   */\n      dup3\n        /* \"#utility.yul\":28698:28708   */\n      gt\n        /* \"#utility.yul\":28695:28731   */\n      iszero\n      tag_587\n      jumpi\n        /* \"#utility.yul\":28711:28729   */\n      tag_588\n      tag_290\n      jump\t// in\n    tag_588:\n        /* \"#utility.yul\":28695:28731   */\n    tag_587:\n        /* \"#utility.yul\":28547:28738   */\n      swap3\n      swap2\n      pop\n      pop\n      jump\t// out\n        /* \"#utility.yul\":28744:28924   */\n    tag_214:\n        /* \"#utility.yul\":28792:28869   */\n      0x4e487b7100000000000000000000000000000000000000000000000000000000\n        /* \"#utility.yul\":28789:28790   */\n      0x00\n        /* \"#utility.yul\":28782:28870   */\n      mstore\n        /* \"#utility.yul\":28889:28893   */\n      0x12\n        /* \"#utility.yul\":28886:28887   */\n      0x04\n        /* \"#utility.yul\":28879:28894   */\n      mstore\n        /* \"#utility.yul\":28913:28917   */\n      0x24\n        /* \"#utility.yul\":28910:28911   */\n      0x00\n        /* \"#utility.yul\":28903:28918   */\n      revert\n\n    auxdata: 0xa2646970667358221220bfa4a36b868289845628e1c41dd8efd0ebfbe851d784af02ec20f5dc23af50a864736f6c634300081a0033\n}\n",
				"bytecode": {
					"linkReferences": {},
					"object": "60806040526101185f60146101000a81548161ffff021916908361ffff16021790555034801561002d575f80fd5b506040516125d23803806125d2833981810160405281019061004f9190610235565b335f73ffffffffffffffffffffffffffffffffffffffff168173ffffffffffffffffffffffffffffffffffffffff16036100c0575f6040517f1e4fbdf70000000000000000000000000000000000000000000000000000000081526004016100b7919061026f565b60405180910390fd5b6100cf8161011660201b60201c565b508060025f6101000a81548173ffffffffffffffffffffffffffffffffffffffff021916908373ffffffffffffffffffffffffffffffffffffffff16021790555050610288565b5f805f9054906101000a900473ffffffffffffffffffffffffffffffffffffffff169050815f806101000a81548173ffffffffffffffffffffffffffffffffffffffff021916908373ffffffffffffffffffffffffffffffffffffffff1602179055508173ffffffffffffffffffffffffffffffffffffffff168173ffffffffffffffffffffffffffffffffffffffff167f8be0079c531659141344cd1fd0a4f28419497f9722a3daafe3b4186f6b6457e060405160405180910390a35050565b5f80fd5b5f73ffffffffffffffffffffffffffffffffffffffff82169050919050565b5f610204826101db565b9050919050565b610214816101fa565b811461021e575f80fd5b50565b5f8151905061022f8161020b565b92915050565b5f6020828403121561024a576102496101d7565b5b5f61025784828501610221565b91505092915050565b610269816101fa565b82525050565b5f6020820190506102825f830184610260565b92915050565b61233d806102955f395ff3fe608060405234801561000f575f80fd5b50600436106100b2575f3560e01c80637c9cd2bc1161006f5780637c9cd2bc14610178578063808b0cf114610194578063820785cc146101c45780638da5cb5b146101f4578063f2fde38b14610212578063fd10b7df1461022e576100b2565b806305a1b4a9146100b6578063112f54e3146100ea5780633d9b569f1461011a57806358bfa4ab146101365780636337821614610152578063715018a61461016e575b5f80fd5b6100d060048036038101906100cb919061155f565b61024c565b6040516100e195949392919061162b565b60405180910390f35b61010460048036038101906100ff919061155f565b61033d565b604051610111919061175c565b60405180910390f35b610134600480360381019061012f919061155f565b6104b5565b005b610150600480360381019061014b91906117b3565b6107f0565b005b61016c6004803603810190610167919061155f565b610817565b005b610176610ab2565b005b610192600480360381019061018d919061190a565b610ac5565b005b6101ae60048036038101906101a99190611951565b610dee565b6040516101bb9190611aaa565b60405180910390f35b6101de60048036038101906101d99190611951565b610f89565b6040516101eb9190611aca565b60405180910390f35b6101fc611058565b6040516102099190611ae3565b60405180910390f35b61022c60048036038101906102279190611951565b61107f565b005b610236611103565b6040516102439190611b0b565b60405180910390f35b6001602052815f5260405f208181548110610265575f80fd5b905f5260205f2090600502015f9150915050805f015490806001015f9054906101000a900473ffffffffffffffffffffffffffffffffffffffff16908060020180546102b090611b51565b80601f01602080910402602001604051908101604052809291908181526020018280546102dc90611b51565b80156103275780601f106102fe57610100808354040283529160200191610327565b820191905f5260205f20905b81548152906001019060200180831161030a57829003601f168201915b5050505050908060030154908060040154905085565b610345611480565b60015f8473ffffffffffffffffffffffffffffffffffffffff1673ffffffffffffffffffffffffffffffffffffffff1681526020019081526020015f20828154811061039457610393611b81565b5b905f5260205f2090600502016040518060a00160405290815f8201548152602001600182015f9054906101000a900473ffffffffffffffffffffffffffffffffffffffff1673ffffffffffffffffffffffffffffffffffffffff1673ffffffffffffffffffffffffffffffffffffffff16815260200160028201805461041990611b51565b80601f016020809104026020016040519081016040528092919081815260200182805461044590611b51565b80156104905780601f1061046757610100808354040283529160200191610490565b820191905f5260205f20905b81548152906001019060200180831161047357829003601f168201915b5050505050815260200160038201548152602001600482015481525050905092915050565b81818060015f8473ffffffffffffffffffffffffffffffffffffffff1673ffffffffffffffffffffffffffffffffffffffff1681526020019081526020015f20828154811061050757610506611b81565b5b905f5260205f2090600502015f015414610556576040517f08c379a000000000000000000000000000000000000000000000000000000000815260040161054d90611bf8565b60405180910390fd5b5f60025f9054906101000a900473ffffffffffffffffffffffffffffffffffffffff1673ffffffffffffffffffffffffffffffffffffffff16630f53a470336040518263ffffffff1660e01b81526004016105b19190611ae3565b5f60405180830381865afa1580156105cb573d5f803e3d5ffd5b505050506040513d5f823e3d601f19601f820116820180604052508101906105f39190611d11565b90505f815f0151511161063b576040517f08c379a000000000000000000000000000000000000000000000000000000000815260040161063290611da2565b60405180910390fd5b5f60015f8773ffffffffffffffffffffffffffffffffffffffff1673ffffffffffffffffffffffffffffffffffffffff1681526020019081526020015f20858154811061068b5761068a611b81565b5b905f5260205f20906005020160040154116106db576040517f08c379a00000000000000000000000000000000000000000000000000000000081526004016106d290611e0a565b60405180910390fd5b60015f8673ffffffffffffffffffffffffffffffffffffffff1673ffffffffffffffffffffffffffffffffffffffff1681526020019081526020015f20848154811061072a57610729611b81565b5b905f5260205f2090600502016004015f81548092919061074990611e55565b91905055507f762c2616349603ac16eba0de8e6141b79129a07ab63bd99e0a80b3a47171694333868660015f8a73ffffffffffffffffffffffffffffffffffffffff1673ffffffffffffffffffffffffffffffffffffffff1681526020019081526020015f2088815481106107c1576107c0611b81565b5b905f5260205f209060050201600401546040516107e19493929190611e7c565b60405180910390a15050505050565b6107f8611116565b805f60146101000a81548161ffff021916908361ffff16021790555050565b81818060015f8473ffffffffffffffffffffffffffffffffffffffff1673ffffffffffffffffffffffffffffffffffffffff1681526020019081526020015f20828154811061086957610868611b81565b5b905f5260205f2090600502015f0154146108b8576040517f08c379a00000000000000000000000000000000000000000000000000000000081526004016108af90611bf8565b60405180910390fd5b5f60025f9054906101000a900473ffffffffffffffffffffffffffffffffffffffff1673ffffffffffffffffffffffffffffffffffffffff16630f53a470336040518263ffffffff1660e01b81526004016109139190611ae3565b5f60405180830381865afa15801561092d573d5f803e3d5ffd5b505050506040513d5f823e3d601f19601f820116820180604052508101906109559190611d11565b90505f815f0151511161099d576040517f08c379a000000000000000000000000000000000000000000000000000000000815260040161099490611da2565b60405180910390fd5b60015f8673ffffffffffffffffffffffffffffffffffffffff1673ffffffffffffffffffffffffffffffffffffffff1681526020019081526020015f2084815481106109ec576109eb611b81565b5b905f5260205f2090600502016004015f815480929190610a0b90611ebf565b91905055507fe8a76fc0f16d11a00d1e93b689b63d76cf60af914dd3d915375dc41d01a0c3c833868660015f8a73ffffffffffffffffffffffffffffffffffffffff1673ffffffffffffffffffffffffffffffffffffffff1681526020019081526020015f208881548110610a8357610a82611b81565b5b905f5260205f20906005020160040154604051610aa39493929190611e7c565b60405180910390a15050505050565b610aba611116565b610ac35f61119d565b565b5f60025f9054906101000a900473ffffffffffffffffffffffffffffffffffffffff1673ffffffffffffffffffffffffffffffffffffffff16630f53a470336040518263ffffffff1660e01b8152600401610b209190611ae3565b5f60405180830381865afa158015610b3a573d5f803e3d5ffd5b505050506040513d5f823e3d601f19601f82011682018060405250810190610b629190611d11565b90505f815f01515111610baa576040517f08c379a0000000000000000000000000000000000000000000000000000000008152600401610ba190611da2565b60405180910390fd5b5f60149054906101000a900461ffff1661ffff1682511115610bde5f60149054906101000a900461ffff1661ffff1661125e565b604051602001610bee9190611fb0565b60405160208183030381529060405290610c3e576040517f08c379a0000000000000000000000000000000000000000000000000000000008152600401610c359190611fd1565b60405180910390fd5b505f6040518060a0016040528060015f3373ffffffffffffffffffffffffffffffffffffffff1673ffffffffffffffffffffffffffffffffffffffff1681526020019081526020015f208054905081526020013373ffffffffffffffffffffffffffffffffffffffff1681526020018481526020014281526020015f815250905060015f3373ffffffffffffffffffffffffffffffffffffffff1673ffffffffffffffffffffffffffffffffffffffff1681526020019081526020015f2081908060018154018082558091505060019003905f5260205f2090600502015f909190919091505f820151815f01556020820151816001015f6101000a81548173ffffffffffffffffffffffffffffffffffffffff021916908373ffffffffffffffffffffffffffffffffffffffff1602179055506040820151816002019081610d86919061218e565b50606082015181600301556080820151816004015550507f16fd3c13e9d46923e0a8bce11c7b473ec508a72e6c96cd2404b29ce972afc29e815f0151826020015183604001518460600151604051610de1949392919061225d565b60405180910390a1505050565b606060015f8373ffffffffffffffffffffffffffffffffffffffff1673ffffffffffffffffffffffffffffffffffffffff1681526020019081526020015f20805480602002602001604051908101604052809291908181526020015f905b82821015610f7e578382905f5260205f2090600502016040518060a00160405290815f8201548152602001600182015f9054906101000a900473ffffffffffffffffffffffffffffffffffffffff1673ffffffffffffffffffffffffffffffffffffffff1673ffffffffffffffffffffffffffffffffffffffff168152602001600282018054610edb90611b51565b80601f0160208091040260200160405190810160405280929190818152602001828054610f0790611b51565b8015610f525780601f10610f2957610100808354040283529160200191610f52565b820191905f5260205f20905b815481529060010190602001808311610f3557829003601f168201915b505050505081526020016003820154815260200160048201548152505081526020019060010190610e4c565b505050509050919050565b5f805f5b60015f8573ffffffffffffffffffffffffffffffffffffffff1673ffffffffffffffffffffffffffffffffffffffff1681526020019081526020015f208054905081101561104e5760015f8573ffffffffffffffffffffffffffffffffffffffff1673ffffffffffffffffffffffffffffffffffffffff1681526020019081526020015f20818154811061102457611023611b81565b5b905f5260205f209060050201600401548261103f91906122a7565b91508080600101915050610f8d565b5080915050919050565b5f805f9054906101000a900473ffffffffffffffffffffffffffffffffffffffff16905090565b611087611116565b5f73ffffffffffffffffffffffffffffffffffffffff168173ffffffffffffffffffffffffffffffffffffffff16036110f7575f6040517f1e4fbdf70000000000000000000000000000000000000000000000000000000081526004016110ee9190611ae3565b60405180910390fd5b6111008161119d565b50565b5f60149054906101000a900461ffff1681565b61111e611328565b73ffffffffffffffffffffffffffffffffffffffff1661113c611058565b73ffffffffffffffffffffffffffffffffffffffff161461119b5761115f611328565b6040517f118cdaa70000000000000000000000000000000000000000000000000000000081526004016111929190611ae3565b60405180910390fd5b565b5f805f9054906101000a900473ffffffffffffffffffffffffffffffffffffffff169050815f806101000a81548173ffffffffffffffffffffffffffffffffffffffff021916908373ffffffffffffffffffffffffffffffffffffffff1602179055508173ffffffffffffffffffffffffffffffffffffffff168173ffffffffffffffffffffffffffffffffffffffff167f8be0079c531659141344cd1fd0a4f28419497f9722a3daafe3b4186f6b6457e060405160405180910390a35050565b60605f600161126c8461132f565b0190505f8167ffffffffffffffff81111561128a576112896117e6565b5b6040519080825280601f01601f1916602001820160405280156112bc5781602001600182028036833780820191505090505b5090505f82602001820190505b60011561131d578080600190039150507f3031323334353637383961626364656600000000000000000000000000000000600a86061a8153600a8581611312576113116122da565b5b0494505f85036112c9575b819350505050919050565b5f33905090565b5f805f90507a184f03e93ff9f4daa797ed6e38ed64bf6a1f010000000000000000831061138b577a184f03e93ff9f4daa797ed6e38ed64bf6a1f0100000000000000008381611381576113806122da565b5b0492506040810190505b6d04ee2d6d415b85acef810000000083106113c8576d04ee2d6d415b85acef810000000083816113be576113bd6122da565b5b0492506020810190505b662386f26fc1000083106113f757662386f26fc1000083816113ed576113ec6122da565b5b0492506010810190505b6305f5e1008310611420576305f5e1008381611416576114156122da565b5b0492506008810190505b612710831061144557612710838161143b5761143a6122da565b5b0492506004810190505b60648310611468576064838161145e5761145d6122da565b5b0492506002810190505b600a8310611477576001810190505b80915050919050565b6040518060a001604052805f81526020015f73ffffffffffffffffffffffffffffffffffffffff168152602001606081526020015f81526020015f81525090565b5f604051905090565b5f80fd5b5f80fd5b5f73ffffffffffffffffffffffffffffffffffffffff82169050919050565b5f6114fb826114d2565b9050919050565b61150b816114f1565b8114611515575f80fd5b50565b5f8135905061152681611502565b92915050565b5f819050919050565b61153e8161152c565b8114611548575f80fd5b50565b5f8135905061155981611535565b92915050565b5f8060408385031215611575576115746114ca565b5b5f61158285828601611518565b92505060206115938582860161154b565b9150509250929050565b6115a68161152c565b82525050565b6115b5816114f1565b82525050565b5f81519050919050565b5f82825260208201905092915050565b8281835e5f83830152505050565b5f601f19601f8301169050919050565b5f6115fd826115bb565b61160781856115c5565b93506116178185602086016115d5565b611620816115e3565b840191505092915050565b5f60a08201905061163e5f83018861159d565b61164b60208301876115ac565b818103604083015261165d81866115f3565b905061166c606083018561159d565b611679608083018461159d565b9695505050505050565b61168c8161152c565b82525050565b61169b816114f1565b82525050565b5f82825260208201905092915050565b5f6116bb826115bb565b6116c581856116a1565b93506116d58185602086016115d5565b6116de816115e3565b840191505092915050565b5f60a083015f8301516116fe5f860182611683565b5060208301516117116020860182611692565b506040830151848203604086015261172982826116b1565b915050606083015161173e6060860182611683565b5060808301516117516080860182611683565b508091505092915050565b5f6020820190508181035f83015261177481846116e9565b905092915050565b5f61ffff82169050919050565b6117928161177c565b811461179c575f80fd5b50565b5f813590506117ad81611789565b92915050565b5f602082840312156117c8576117c76114ca565b5b5f6117d58482850161179f565b91505092915050565b5f80fd5b5f80fd5b7f4e487b71000000000000000000000000000000000000000000000000000000005f52604160045260245ffd5b61181c826115e3565b810181811067ffffffffffffffff8211171561183b5761183a6117e6565b5b80604052505050565b5f61184d6114c1565b90506118598282611813565b919050565b5f67ffffffffffffffff821115611878576118776117e6565b5b611881826115e3565b9050602081019050919050565b828183375f83830152505050565b5f6118ae6118a98461185e565b611844565b9050828152602081018484840111156118ca576118c96117e2565b5b6118d584828561188e565b509392505050565b5f82601f8301126118f1576118f06117de565b5b813561190184826020860161189c565b91505092915050565b5f6020828403121561191f5761191e6114ca565b5b5f82013567ffffffffffffffff81111561193c5761193b6114ce565b5b611948848285016118dd565b91505092915050565b5f60208284031215611966576119656114ca565b5b5f61197384828501611518565b91505092915050565b5f81519050919050565b5f82825260208201905092915050565b5f819050602082019050919050565b5f60a083015f8301516119ba5f860182611683565b5060208301516119cd6020860182611692565b50604083015184820360408601526119e582826116b1565b91505060608301516119fa6060860182611683565b506080830151611a0d6080860182611683565b508091505092915050565b5f611a2383836119a5565b905092915050565b5f602082019050919050565b5f611a418261197c565b611a4b8185611986565b935083602082028501611a5d85611996565b805f5b85811015611a985784840389528151611a798582611a18565b9450611a8483611a2b565b925060208a01995050600181019050611a60565b50829750879550505050505092915050565b5f6020820190508181035f830152611ac28184611a37565b905092915050565b5f602082019050611add5f83018461159d565b92915050565b5f602082019050611af65f8301846115ac565b92915050565b611b058161177c565b82525050565b5f602082019050611b1e5f830184611afc565b92915050565b7f4e487b71000000000000000000000000000000000000000000000000000000005f52602260045260245ffd5b5f6002820490506001821680611b6857607f821691505b602082108103611b7b57611b7a611b24565b5b50919050565b7f4e487b71000000000000000000000000000000000000000000000000000000005f52603260045260245ffd5b7f547765657420646f6573206e6f742065786973742100000000000000000000005f82015250565b5f611be26015836115c5565b9150611bed82611bae565b602082019050919050565b5f6020820190508181035f830152611c0f81611bd6565b9050919050565b5f80fd5b5f80fd5b5f611c30611c2b8461185e565b611844565b905082815260208101848484011115611c4c57611c4b6117e2565b5b611c578482856115d5565b509392505050565b5f82601f830112611c7357611c726117de565b5b8151611c83848260208601611c1e565b91505092915050565b5f60408284031215611ca157611ca0611c16565b5b611cab6040611844565b90505f82015167ffffffffffffffff811115611cca57611cc9611c1a565b5b611cd684828501611c5f565b5f83015250602082015167ffffffffffffffff811115611cf957611cf8611c1a565b5b611d0584828501611c5f565b60208301525092915050565b5f60208284031215611d2657611d256114ca565b5b5f82015167ffffffffffffffff811115611d4357611d426114ce565b5b611d4f84828501611c8c565b91505092915050565b7f55736572206e6f742072656769737465726564210000000000000000000000005f82015250565b5f611d8c6014836115c5565b9150611d9782611d58565b602082019050919050565b5f6020820190508181035f830152611db981611d80565b9050919050565b7f547765657420686173206e6f206c696b657321000000000000000000000000005f82015250565b5f611df46013836115c5565b9150611dff82611dc0565b602082019050919050565b5f6020820190508181035f830152611e2181611de8565b9050919050565b7f4e487b71000000000000000000000000000000000000000000000000000000005f52601160045260245ffd5b5f611e5f8261152c565b91505f8203611e7157611e70611e28565b5b600182039050919050565b5f608082019050611e8f5f8301876115ac565b611e9c60208301866115ac565b611ea9604083018561159d565b611eb6606083018461159d565b95945050505050565b5f611ec98261152c565b91507fffffffffffffffffffffffffffffffffffffffffffffffffffffffffffffffff8203611efb57611efa611e28565b5b600182019050919050565b5f81905092915050565b7f596f757220747765657420657863656564656420746865206c696d6974206f665f8201527f20636861726163746572733a2000000000000000000000000000000000000000602082015250565b5f611f6a602d83611f06565b9150611f7582611f10565b602d82019050919050565b5f611f8a826115bb565b611f948185611f06565b9350611fa48185602086016115d5565b80840191505092915050565b5f611fba82611f5e565b9150611fc68284611f80565b915081905092915050565b5f6020820190508181035f830152611fe981846115f3565b905092915050565b5f819050815f5260205f209050919050565b5f6020601f8301049050919050565b5f82821b905092915050565b5f6008830261204d7fffffffffffffffffffffffffffffffffffffffffffffffffffffffffffffffff82612012565b6120578683612012565b95508019841693508086168417925050509392505050565b5f819050919050565b5f61209261208d6120888461152c565b61206f565b61152c565b9050919050565b5f819050919050565b6120ab83612078565b6120bf6120b782612099565b84845461201e565b825550505050565b5f90565b6120d36120c7565b6120de8184846120a2565b505050565b5b81811015612101576120f65f826120cb565b6001810190506120e4565b5050565b601f8211156121465761211781611ff1565b61212084612003565b8101602085101561212f578190505b61214361213b85612003565b8301826120e3565b50505b505050565b5f82821c905092915050565b5f6121665f198460080261214b565b1980831691505092915050565b5f61217e8383612157565b9150826002028217905092915050565b612197826115bb565b67ffffffffffffffff8111156121b0576121af6117e6565b5b6121ba8254611b51565b6121c5828285612105565b5f60209050601f8311600181146121f6575f84156121e4578287015190505b6121ee8582612173565b865550612255565b601f19841661220486611ff1565b5f5b8281101561222b57848901518255600182019150602085019450602081019050612206565b868310156122485784890151612244601f891682612157565b8355505b6001600288020188555050505b505050505050565b5f6080820190506122705f83018761159d565b61227d60208301866115ac565b818103604083015261228f81856115f3565b905061229e606083018461159d565b95945050505050565b5f6122b18261152c565b91506122bc8361152c565b92508282019050808211156122d4576122d3611e28565b5b92915050565b7f4e487b71000000000000000000000000000000000000000000000000000000005f52601260045260245ffdfea2646970667358221220bfa4a36b868289845628e1c41dd8efd0ebfbe851d784af02ec20f5dc23af50a864736f6c634300081a0033",
					"opcodes": "PUSH1 0x80 PUSH1 0x40 MSTORE PUSH2 0x118 PUSH0 PUSH1 0x14 PUSH2 0x100 EXP DUP2 SLOAD DUP2 PUSH2 0xFFFF MUL NOT AND SWAP1 DUP4 PUSH2 0xFFFF AND MUL OR SWAP1 SSTORE POP CALLVALUE DUP1 ISZERO PUSH2 0x2D JUMPI PUSH0 DUP1 REVERT JUMPDEST POP PUSH1 0x40 MLOAD PUSH2 0x25D2 CODESIZE SUB DUP1 PUSH2 0x25D2 DUP4 CODECOPY DUP2 DUP2 ADD PUSH1 0x40 MSTORE DUP2 ADD SWAP1 PUSH2 0x4F SWAP2 SWAP1 PUSH2 0x235 JUMP JUMPDEST CALLER PUSH0 PUSH20 0xFFFFFFFFFFFFFFFFFFFFFFFFFFFFFFFFFFFFFFFF AND DUP2 PUSH20 0xFFFFFFFFFFFFFFFFFFFFFFFFFFFFFFFFFFFFFFFF AND SUB PUSH2 0xC0 JUMPI PUSH0 PUSH1 0x40 MLOAD PUSH32 0x1E4FBDF700000000000000000000000000000000000000000000000000000000 DUP2 MSTORE PUSH1 0x4 ADD PUSH2 0xB7 SWAP2 SWAP1 PUSH2 0x26F JUMP JUMPDEST PUSH1 0x40 MLOAD DUP1 SWAP2 SUB SWAP1 REVERT JUMPDEST PUSH2 0xCF DUP2 PUSH2 0x116 PUSH1 0x20 SHL PUSH1 0x20 SHR JUMP JUMPDEST POP DUP1 PUSH1 0x2 PUSH0 PUSH2 0x100 EXP DUP2 SLOAD DUP2 PUSH20 0xFFFFFFFFFFFFFFFFFFFFFFFFFFFFFFFFFFFFFFFF MUL NOT AND SWAP1 DUP4 PUSH20 0xFFFFFFFFFFFFFFFFFFFFFFFFFFFFFFFFFFFFFFFF AND MUL OR SWAP1 SSTORE POP POP PUSH2 0x288 JUMP JUMPDEST PUSH0 DUP1 PUSH0 SWAP1 SLOAD SWAP1 PUSH2 0x100 EXP SWAP1 DIV PUSH20 0xFFFFFFFFFFFFFFFFFFFFFFFFFFFFFFFFFFFFFFFF AND SWAP1 POP DUP2 PUSH0 DUP1 PUSH2 0x100 EXP DUP2 SLOAD DUP2 PUSH20 0xFFFFFFFFFFFFFFFFFFFFFFFFFFFFFFFFFFFFFFFF MUL NOT AND SWAP1 DUP4 PUSH20 0xFFFFFFFFFFFFFFFFFFFFFFFFFFFFFFFFFFFFFFFF AND MUL OR SWAP1 SSTORE POP DUP2 PUSH20 0xFFFFFFFFFFFFFFFFFFFFFFFFFFFFFFFFFFFFFFFF AND DUP2 PUSH20 0xFFFFFFFFFFFFFFFFFFFFFFFFFFFFFFFFFFFFFFFF AND PUSH32 0x8BE0079C531659141344CD1FD0A4F28419497F9722A3DAAFE3B4186F6B6457E0 PUSH1 0x40 MLOAD PUSH1 0x40 MLOAD DUP1 SWAP2 SUB SWAP1 LOG3 POP POP JUMP JUMPDEST PUSH0 DUP1 REVERT JUMPDEST PUSH0 PUSH20 0xFFFFFFFFFFFFFFFFFFFFFFFFFFFFFFFFFFFFFFFF DUP3 AND SWAP1 POP SWAP2 SWAP1 POP JUMP JUMPDEST PUSH0 PUSH2 0x204 DUP3 PUSH2 0x1DB JUMP JUMPDEST SWAP1 POP SWAP2 SWAP1 POP JUMP JUMPDEST PUSH2 0x214 DUP2 PUSH2 0x1FA JUMP JUMPDEST DUP2 EQ PUSH2 0x21E JUMPI PUSH0 DUP1 REVERT JUMPDEST POP JUMP JUMPDEST PUSH0 DUP2 MLOAD SWAP1 POP PUSH2 0x22F DUP2 PUSH2 0x20B JUMP JUMPDEST SWAP3 SWAP2 POP POP JUMP JUMPDEST PUSH0 PUSH1 0x20 DUP3 DUP5 SUB SLT ISZERO PUSH2 0x24A JUMPI PUSH2 0x249 PUSH2 0x1D7 JUMP JUMPDEST JUMPDEST PUSH0 PUSH2 0x257 DUP5 DUP3 DUP6 ADD PUSH2 0x221 JUMP JUMPDEST SWAP2 POP POP SWAP3 SWAP2 POP POP JUMP JUMPDEST PUSH2 0x269 DUP2 PUSH2 0x1FA JUMP JUMPDEST DUP3 MSTORE POP POP JUMP JUMPDEST PUSH0 PUSH1 0x20 DUP3 ADD SWAP1 POP PUSH2 0x282 PUSH0 DUP4 ADD DUP5 PUSH2 0x260 JUMP JUMPDEST SWAP3 SWAP2 POP POP JUMP JUMPDEST PUSH2 0x233D DUP1 PUSH2 0x295 PUSH0 CODECOPY PUSH0 RETURN INVALID PUSH1 0x80 PUSH1 0x40 MSTORE CALLVALUE DUP1 ISZERO PUSH2 0xF JUMPI PUSH0 DUP1 REVERT JUMPDEST POP PUSH1 0x4 CALLDATASIZE LT PUSH2 0xB2 JUMPI PUSH0 CALLDATALOAD PUSH1 0xE0 SHR DUP1 PUSH4 0x7C9CD2BC GT PUSH2 0x6F JUMPI DUP1 PUSH4 0x7C9CD2BC EQ PUSH2 0x178 JUMPI DUP1 PUSH4 0x808B0CF1 EQ PUSH2 0x194 JUMPI DUP1 PUSH4 0x820785CC EQ PUSH2 0x1C4 JUMPI DUP1 PUSH4 0x8DA5CB5B EQ PUSH2 0x1F4 JUMPI DUP1 PUSH4 0xF2FDE38B EQ PUSH2 0x212 JUMPI DUP1 PUSH4 0xFD10B7DF EQ PUSH2 0x22E JUMPI PUSH2 0xB2 JUMP JUMPDEST DUP1 PUSH4 0x5A1B4A9 EQ PUSH2 0xB6 JUMPI DUP1 PUSH4 0x112F54E3 EQ PUSH2 0xEA JUMPI DUP1 PUSH4 0x3D9B569F EQ PUSH2 0x11A JUMPI DUP1 PUSH4 0x58BFA4AB EQ PUSH2 0x136 JUMPI DUP1 PUSH4 0x63378216 EQ PUSH2 0x152 JUMPI DUP1 PUSH4 0x715018A6 EQ PUSH2 0x16E JUMPI JUMPDEST PUSH0 DUP1 REVERT JUMPDEST PUSH2 0xD0 PUSH1 0x4 DUP1 CALLDATASIZE SUB DUP2 ADD SWAP1 PUSH2 0xCB SWAP2 SWAP1 PUSH2 0x155F JUMP JUMPDEST PUSH2 0x24C JUMP JUMPDEST PUSH1 0x40 MLOAD PUSH2 0xE1 SWAP6 SWAP5 SWAP4 SWAP3 SWAP2 SWAP1 PUSH2 0x162B JUMP JUMPDEST PUSH1 0x40 MLOAD DUP1 SWAP2 SUB SWAP1 RETURN JUMPDEST PUSH2 0x104 PUSH1 0x4 DUP1 CALLDATASIZE SUB DUP2 ADD SWAP1 PUSH2 0xFF SWAP2 SWAP1 PUSH2 0x155F JUMP JUMPDEST PUSH2 0x33D JUMP JUMPDEST PUSH1 0x40 MLOAD PUSH2 0x111 SWAP2 SWAP1 PUSH2 0x175C JUMP JUMPDEST PUSH1 0x40 MLOAD DUP1 SWAP2 SUB SWAP1 RETURN JUMPDEST PUSH2 0x134 PUSH1 0x4 DUP1 CALLDATASIZE SUB DUP2 ADD SWAP1 PUSH2 0x12F SWAP2 SWAP1 PUSH2 0x155F JUMP JUMPDEST PUSH2 0x4B5 JUMP JUMPDEST STOP JUMPDEST PUSH2 0x150 PUSH1 0x4 DUP1 CALLDATASIZE SUB DUP2 ADD SWAP1 PUSH2 0x14B SWAP2 SWAP1 PUSH2 0x17B3 JUMP JUMPDEST PUSH2 0x7F0 JUMP JUMPDEST STOP JUMPDEST PUSH2 0x16C PUSH1 0x4 DUP1 CALLDATASIZE SUB DUP2 ADD SWAP1 PUSH2 0x167 SWAP2 SWAP1 PUSH2 0x155F JUMP JUMPDEST PUSH2 0x817 JUMP JUMPDEST STOP JUMPDEST PUSH2 0x176 PUSH2 0xAB2 JUMP JUMPDEST STOP JUMPDEST PUSH2 0x192 PUSH1 0x4 DUP1 CALLDATASIZE SUB DUP2 ADD SWAP1 PUSH2 0x18D SWAP2 SWAP1 PUSH2 0x190A JUMP JUMPDEST PUSH2 0xAC5 JUMP JUMPDEST STOP JUMPDEST PUSH2 0x1AE PUSH1 0x4 DUP1 CALLDATASIZE SUB DUP2 ADD SWAP1 PUSH2 0x1A9 SWAP2 SWAP1 PUSH2 0x1951 JUMP JUMPDEST PUSH2 0xDEE JUMP JUMPDEST PUSH1 0x40 MLOAD PUSH2 0x1BB SWAP2 SWAP1 PUSH2 0x1AAA JUMP JUMPDEST PUSH1 0x40 MLOAD DUP1 SWAP2 SUB SWAP1 RETURN JUMPDEST PUSH2 0x1DE PUSH1 0x4 DUP1 CALLDATASIZE SUB DUP2 ADD SWAP1 PUSH2 0x1D9 SWAP2 SWAP1 PUSH2 0x1951 JUMP JUMPDEST PUSH2 0xF89 JUMP JUMPDEST PUSH1 0x40 MLOAD PUSH2 0x1EB SWAP2 SWAP1 PUSH2 0x1ACA JUMP JUMPDEST PUSH1 0x40 MLOAD DUP1 SWAP2 SUB SWAP1 RETURN JUMPDEST PUSH2 0x1FC PUSH2 0x1058 JUMP JUMPDEST PUSH1 0x40 MLOAD PUSH2 0x209 SWAP2 SWAP1 PUSH2 0x1AE3 JUMP JUMPDEST PUSH1 0x40 MLOAD DUP1 SWAP2 SUB SWAP1 RETURN JUMPDEST PUSH2 0x22C PUSH1 0x4 DUP1 CALLDATASIZE SUB DUP2 ADD SWAP1 PUSH2 0x227 SWAP2 SWAP1 PUSH2 0x1951 JUMP JUMPDEST PUSH2 0x107F JUMP JUMPDEST STOP JUMPDEST PUSH2 0x236 PUSH2 0x1103 JUMP JUMPDEST PUSH1 0x40 MLOAD PUSH2 0x243 SWAP2 SWAP1 PUSH2 0x1B0B JUMP JUMPDEST PUSH1 0x40 MLOAD DUP1 SWAP2 SUB SWAP1 RETURN JUMPDEST PUSH1 0x1 PUSH1 0x20 MSTORE DUP2 PUSH0 MSTORE PUSH1 0x40 PUSH0 KECCAK256 DUP2 DUP2 SLOAD DUP2 LT PUSH2 0x265 JUMPI PUSH0 DUP1 REVERT JUMPDEST SWAP1 PUSH0 MSTORE PUSH1 0x20 PUSH0 KECCAK256 SWAP1 PUSH1 0x5 MUL ADD PUSH0 SWAP2 POP SWAP2 POP POP DUP1 PUSH0 ADD SLOAD SWAP1 DUP1 PUSH1 0x1 ADD PUSH0 SWAP1 SLOAD SWAP1 PUSH2 0x100 EXP SWAP1 DIV PUSH20 0xFFFFFFFFFFFFFFFFFFFFFFFFFFFFFFFFFFFFFFFF AND SWAP1 DUP1 PUSH1 0x2 ADD DUP1 SLOAD PUSH2 0x2B0 SWAP1 PUSH2 0x1B51 JUMP JUMPDEST DUP1 PUSH1 0x1F ADD PUSH1 0x20 DUP1 SWAP2 DIV MUL PUSH1 0x20 ADD PUSH1 0x40 MLOAD SWAP1 DUP2 ADD PUSH1 0x40 MSTORE DUP1 SWAP3 SWAP2 SWAP1 DUP2 DUP2 MSTORE PUSH1 0x20 ADD DUP3 DUP1 SLOAD PUSH2 0x2DC SWAP1 PUSH2 0x1B51 JUMP JUMPDEST DUP1 ISZERO PUSH2 0x327 JUMPI DUP1 PUSH1 0x1F LT PUSH2 0x2FE JUMPI PUSH2 0x100 DUP1 DUP4 SLOAD DIV MUL DUP4 MSTORE SWAP2 PUSH1 0x20 ADD SWAP2 PUSH2 0x327 JUMP JUMPDEST DUP3 ADD SWAP2 SWAP1 PUSH0 MSTORE PUSH1 0x20 PUSH0 KECCAK256 SWAP1 JUMPDEST DUP2 SLOAD DUP2 MSTORE SWAP1 PUSH1 0x1 ADD SWAP1 PUSH1 0x20 ADD DUP1 DUP4 GT PUSH2 0x30A JUMPI DUP3 SWAP1 SUB PUSH1 0x1F AND DUP3 ADD SWAP2 JUMPDEST POP POP POP POP POP SWAP1 DUP1 PUSH1 0x3 ADD SLOAD SWAP1 DUP1 PUSH1 0x4 ADD SLOAD SWAP1 POP DUP6 JUMP JUMPDEST PUSH2 0x345 PUSH2 0x1480 JUMP JUMPDEST PUSH1 0x1 PUSH0 DUP5 PUSH20 0xFFFFFFFFFFFFFFFFFFFFFFFFFFFFFFFFFFFFFFFF AND PUSH20 0xFFFFFFFFFFFFFFFFFFFFFFFFFFFFFFFFFFFFFFFF AND DUP2 MSTORE PUSH1 0x20 ADD SWAP1 DUP2 MSTORE PUSH1 0x20 ADD PUSH0 KECCAK256 DUP3 DUP2 SLOAD DUP2 LT PUSH2 0x394 JUMPI PUSH2 0x393 PUSH2 0x1B81 JUMP JUMPDEST JUMPDEST SWAP1 PUSH0 MSTORE PUSH1 0x20 PUSH0 KECCAK256 SWAP1 PUSH1 0x5 MUL ADD PUSH1 0x40 MLOAD DUP1 PUSH1 0xA0 ADD PUSH1 0x40 MSTORE SWAP1 DUP2 PUSH0 DUP3 ADD SLOAD DUP2 MSTORE PUSH1 0x20 ADD PUSH1 0x1 DUP3 ADD PUSH0 SWAP1 SLOAD SWAP1 PUSH2 0x100 EXP SWAP1 DIV PUSH20 0xFFFFFFFFFFFFFFFFFFFFFFFFFFFFFFFFFFFFFFFF AND PUSH20 0xFFFFFFFFFFFFFFFFFFFFFFFFFFFFFFFFFFFFFFFF AND PUSH20 0xFFFFFFFFFFFFFFFFFFFFFFFFFFFFFFFFFFFFFFFF AND DUP2 MSTORE PUSH1 0x20 ADD PUSH1 0x2 DUP3 ADD DUP1 SLOAD PUSH2 0x419 SWAP1 PUSH2 0x1B51 JUMP JUMPDEST DUP1 PUSH1 0x1F ADD PUSH1 0x20 DUP1 SWAP2 DIV MUL PUSH1 0x20 ADD PUSH1 0x40 MLOAD SWAP1 DUP2 ADD PUSH1 0x40 MSTORE DUP1 SWAP3 SWAP2 SWAP1 DUP2 DUP2 MSTORE PUSH1 0x20 ADD DUP3 DUP1 SLOAD PUSH2 0x445 SWAP1 PUSH2 0x1B51 JUMP JUMPDEST DUP1 ISZERO PUSH2 0x490 JUMPI DUP1 PUSH1 0x1F LT PUSH2 0x467 JUMPI PUSH2 0x100 DUP1 DUP4 SLOAD DIV MUL DUP4 MSTORE SWAP2 PUSH1 0x20 ADD SWAP2 PUSH2 0x490 JUMP JUMPDEST DUP3 ADD SWAP2 SWAP1 PUSH0 MSTORE PUSH1 0x20 PUSH0 KECCAK256 SWAP1 JUMPDEST DUP2 SLOAD DUP2 MSTORE SWAP1 PUSH1 0x1 ADD SWAP1 PUSH1 0x20 ADD DUP1 DUP4 GT PUSH2 0x473 JUMPI DUP3 SWAP1 SUB PUSH1 0x1F AND DUP3 ADD SWAP2 JUMPDEST POP POP POP POP POP DUP2 MSTORE PUSH1 0x20 ADD PUSH1 0x3 DUP3 ADD SLOAD DUP2 MSTORE PUSH1 0x20 ADD PUSH1 0x4 DUP3 ADD SLOAD DUP2 MSTORE POP POP SWAP1 POP SWAP3 SWAP2 POP POP JUMP JUMPDEST DUP2 DUP2 DUP1 PUSH1 0x1 PUSH0 DUP5 PUSH20 0xFFFFFFFFFFFFFFFFFFFFFFFFFFFFFFFFFFFFFFFF AND PUSH20 0xFFFFFFFFFFFFFFFFFFFFFFFFFFFFFFFFFFFFFFFF AND DUP2 MSTORE PUSH1 0x20 ADD SWAP1 DUP2 MSTORE PUSH1 0x20 ADD PUSH0 KECCAK256 DUP3 DUP2 SLOAD DUP2 LT PUSH2 0x507 JUMPI PUSH2 0x506 PUSH2 0x1B81 JUMP JUMPDEST JUMPDEST SWAP1 PUSH0 MSTORE PUSH1 0x20 PUSH0 KECCAK256 SWAP1 PUSH1 0x5 MUL ADD PUSH0 ADD SLOAD EQ PUSH2 0x556 JUMPI PUSH1 0x40 MLOAD PUSH32 0x8C379A000000000000000000000000000000000000000000000000000000000 DUP2 MSTORE PUSH1 0x4 ADD PUSH2 0x54D SWAP1 PUSH2 0x1BF8 JUMP JUMPDEST PUSH1 0x40 MLOAD DUP1 SWAP2 SUB SWAP1 REVERT JUMPDEST PUSH0 PUSH1 0x2 PUSH0 SWAP1 SLOAD SWAP1 PUSH2 0x100 EXP SWAP1 DIV PUSH20 0xFFFFFFFFFFFFFFFFFFFFFFFFFFFFFFFFFFFFFFFF AND PUSH20 0xFFFFFFFFFFFFFFFFFFFFFFFFFFFFFFFFFFFFFFFF AND PUSH4 0xF53A470 CALLER PUSH1 0x40 MLOAD DUP3 PUSH4 0xFFFFFFFF AND PUSH1 0xE0 SHL DUP2 MSTORE PUSH1 0x4 ADD PUSH2 0x5B1 SWAP2 SWAP1 PUSH2 0x1AE3 JUMP JUMPDEST PUSH0 PUSH1 0x40 MLOAD DUP1 DUP4 SUB DUP2 DUP7 GAS STATICCALL ISZERO DUP1 ISZERO PUSH2 0x5CB JUMPI RETURNDATASIZE PUSH0 DUP1 RETURNDATACOPY RETURNDATASIZE PUSH0 REVERT JUMPDEST POP POP POP POP PUSH1 0x40 MLOAD RETURNDATASIZE PUSH0 DUP3 RETURNDATACOPY RETURNDATASIZE PUSH1 0x1F NOT PUSH1 0x1F DUP3 ADD AND DUP3 ADD DUP1 PUSH1 0x40 MSTORE POP DUP2 ADD SWAP1 PUSH2 0x5F3 SWAP2 SWAP1 PUSH2 0x1D11 JUMP JUMPDEST SWAP1 POP PUSH0 DUP2 PUSH0 ADD MLOAD MLOAD GT PUSH2 0x63B JUMPI PUSH1 0x40 MLOAD PUSH32 0x8C379A000000000000000000000000000000000000000000000000000000000 DUP2 MSTORE PUSH1 0x4 ADD PUSH2 0x632 SWAP1 PUSH2 0x1DA2 JUMP JUMPDEST PUSH1 0x40 MLOAD DUP1 SWAP2 SUB SWAP1 REVERT JUMPDEST PUSH0 PUSH1 0x1 PUSH0 DUP8 PUSH20 0xFFFFFFFFFFFFFFFFFFFFFFFFFFFFFFFFFFFFFFFF AND PUSH20 0xFFFFFFFFFFFFFFFFFFFFFFFFFFFFFFFFFFFFFFFF AND DUP2 MSTORE PUSH1 0x20 ADD SWAP1 DUP2 MSTORE PUSH1 0x20 ADD PUSH0 KECCAK256 DUP6 DUP2 SLOAD DUP2 LT PUSH2 0x68B JUMPI PUSH2 0x68A PUSH2 0x1B81 JUMP JUMPDEST JUMPDEST SWAP1 PUSH0 MSTORE PUSH1 0x20 PUSH0 KECCAK256 SWAP1 PUSH1 0x5 MUL ADD PUSH1 0x4 ADD SLOAD GT PUSH2 0x6DB JUMPI PUSH1 0x40 MLOAD PUSH32 0x8C379A000000000000000000000000000000000000000000000000000000000 DUP2 MSTORE PUSH1 0x4 ADD PUSH2 0x6D2 SWAP1 PUSH2 0x1E0A JUMP JUMPDEST PUSH1 0x40 MLOAD DUP1 SWAP2 SUB SWAP1 REVERT JUMPDEST PUSH1 0x1 PUSH0 DUP7 PUSH20 0xFFFFFFFFFFFFFFFFFFFFFFFFFFFFFFFFFFFFFFFF AND PUSH20 0xFFFFFFFFFFFFFFFFFFFFFFFFFFFFFFFFFFFFFFFF AND DUP2 MSTORE PUSH1 0x20 ADD SWAP1 DUP2 MSTORE PUSH1 0x20 ADD PUSH0 KECCAK256 DUP5 DUP2 SLOAD DUP2 LT PUSH2 0x72A JUMPI PUSH2 0x729 PUSH2 0x1B81 JUMP JUMPDEST JUMPDEST SWAP1 PUSH0 MSTORE PUSH1 0x20 PUSH0 KECCAK256 SWAP1 PUSH1 0x5 MUL ADD PUSH1 0x4 ADD PUSH0 DUP2 SLOAD DUP1 SWAP3 SWAP2 SWAP1 PUSH2 0x749 SWAP1 PUSH2 0x1E55 JUMP JUMPDEST SWAP2 SWAP1 POP SSTORE POP PUSH32 0x762C2616349603AC16EBA0DE8E6141B79129A07AB63BD99E0A80B3A471716943 CALLER DUP7 DUP7 PUSH1 0x1 PUSH0 DUP11 PUSH20 0xFFFFFFFFFFFFFFFFFFFFFFFFFFFFFFFFFFFFFFFF AND PUSH20 0xFFFFFFFFFFFFFFFFFFFFFFFFFFFFFFFFFFFFFFFF AND DUP2 MSTORE PUSH1 0x20 ADD SWAP1 DUP2 MSTORE PUSH1 0x20 ADD PUSH0 KECCAK256 DUP9 DUP2 SLOAD DUP2 LT PUSH2 0x7C1 JUMPI PUSH2 0x7C0 PUSH2 0x1B81 JUMP JUMPDEST JUMPDEST SWAP1 PUSH0 MSTORE PUSH1 0x20 PUSH0 KECCAK256 SWAP1 PUSH1 0x5 MUL ADD PUSH1 0x4 ADD SLOAD PUSH1 0x40 MLOAD PUSH2 0x7E1 SWAP5 SWAP4 SWAP3 SWAP2 SWAP1 PUSH2 0x1E7C JUMP JUMPDEST PUSH1 0x40 MLOAD DUP1 SWAP2 SUB SWAP1 LOG1 POP POP POP POP POP JUMP JUMPDEST PUSH2 0x7F8 PUSH2 0x1116 JUMP JUMPDEST DUP1 PUSH0 PUSH1 0x14 PUSH2 0x100 EXP DUP2 SLOAD DUP2 PUSH2 0xFFFF MUL NOT AND SWAP1 DUP4 PUSH2 0xFFFF AND MUL OR SWAP1 SSTORE POP POP JUMP JUMPDEST DUP2 DUP2 DUP1 PUSH1 0x1 PUSH0 DUP5 PUSH20 0xFFFFFFFFFFFFFFFFFFFFFFFFFFFFFFFFFFFFFFFF AND PUSH20 0xFFFFFFFFFFFFFFFFFFFFFFFFFFFFFFFFFFFFFFFF AND DUP2 MSTORE PUSH1 0x20 ADD SWAP1 DUP2 MSTORE PUSH1 0x20 ADD PUSH0 KECCAK256 DUP3 DUP2 SLOAD DUP2 LT PUSH2 0x869 JUMPI PUSH2 0x868 PUSH2 0x1B81 JUMP JUMPDEST JUMPDEST SWAP1 PUSH0 MSTORE PUSH1 0x20 PUSH0 KECCAK256 SWAP1 PUSH1 0x5 MUL ADD PUSH0 ADD SLOAD EQ PUSH2 0x8B8 JUMPI PUSH1 0x40 MLOAD PUSH32 0x8C379A000000000000000000000000000000000000000000000000000000000 DUP2 MSTORE PUSH1 0x4 ADD PUSH2 0x8AF SWAP1 PUSH2 0x1BF8 JUMP JUMPDEST PUSH1 0x40 MLOAD DUP1 SWAP2 SUB SWAP1 REVERT JUMPDEST PUSH0 PUSH1 0x2 PUSH0 SWAP1 SLOAD SWAP1 PUSH2 0x100 EXP SWAP1 DIV PUSH20 0xFFFFFFFFFFFFFFFFFFFFFFFFFFFFFFFFFFFFFFFF AND PUSH20 0xFFFFFFFFFFFFFFFFFFFFFFFFFFFFFFFFFFFFFFFF AND PUSH4 0xF53A470 CALLER PUSH1 0x40 MLOAD DUP3 PUSH4 0xFFFFFFFF AND PUSH1 0xE0 SHL DUP2 MSTORE PUSH1 0x4 ADD PUSH2 0x913 SWAP2 SWAP1 PUSH2 0x1AE3 JUMP JUMPDEST PUSH0 PUSH1 0x40 MLOAD DUP1 DUP4 SUB DUP2 DUP7 GAS STATICCALL ISZERO DUP1 ISZERO PUSH2 0x92D JUMPI RETURNDATASIZE PUSH0 DUP1 RETURNDATACOPY RETURNDATASIZE PUSH0 REVERT JUMPDEST POP POP POP POP PUSH1 0x40 MLOAD RETURNDATASIZE PUSH0 DUP3 RETURNDATACOPY RETURNDATASIZE PUSH1 0x1F NOT PUSH1 0x1F DUP3 ADD AND DUP3 ADD DUP1 PUSH1 0x40 MSTORE POP DUP2 ADD SWAP1 PUSH2 0x955 SWAP2 SWAP1 PUSH2 0x1D11 JUMP JUMPDEST SWAP1 POP PUSH0 DUP2 PUSH0 ADD MLOAD MLOAD GT PUSH2 0x99D JUMPI PUSH1 0x40 MLOAD PUSH32 0x8C379A000000000000000000000000000000000000000000000000000000000 DUP2 MSTORE PUSH1 0x4 ADD PUSH2 0x994 SWAP1 PUSH2 0x1DA2 JUMP JUMPDEST PUSH1 0x40 MLOAD DUP1 SWAP2 SUB SWAP1 REVERT JUMPDEST PUSH1 0x1 PUSH0 DUP7 PUSH20 0xFFFFFFFFFFFFFFFFFFFFFFFFFFFFFFFFFFFFFFFF AND PUSH20 0xFFFFFFFFFFFFFFFFFFFFFFFFFFFFFFFFFFFFFFFF AND DUP2 MSTORE PUSH1 0x20 ADD SWAP1 DUP2 MSTORE PUSH1 0x20 ADD PUSH0 KECCAK256 DUP5 DUP2 SLOAD DUP2 LT PUSH2 0x9EC JUMPI PUSH2 0x9EB PUSH2 0x1B81 JUMP JUMPDEST JUMPDEST SWAP1 PUSH0 MSTORE PUSH1 0x20 PUSH0 KECCAK256 SWAP1 PUSH1 0x5 MUL ADD PUSH1 0x4 ADD PUSH0 DUP2 SLOAD DUP1 SWAP3 SWAP2 SWAP1 PUSH2 0xA0B SWAP1 PUSH2 0x1EBF JUMP JUMPDEST SWAP2 SWAP1 POP SSTORE POP PUSH32 0xE8A76FC0F16D11A00D1E93B689B63D76CF60AF914DD3D915375DC41D01A0C3C8 CALLER DUP7 DUP7 PUSH1 0x1 PUSH0 DUP11 PUSH20 0xFFFFFFFFFFFFFFFFFFFFFFFFFFFFFFFFFFFFFFFF AND PUSH20 0xFFFFFFFFFFFFFFFFFFFFFFFFFFFFFFFFFFFFFFFF AND DUP2 MSTORE PUSH1 0x20 ADD SWAP1 DUP2 MSTORE PUSH1 0x20 ADD PUSH0 KECCAK256 DUP9 DUP2 SLOAD DUP2 LT PUSH2 0xA83 JUMPI PUSH2 0xA82 PUSH2 0x1B81 JUMP JUMPDEST JUMPDEST SWAP1 PUSH0 MSTORE PUSH1 0x20 PUSH0 KECCAK256 SWAP1 PUSH1 0x5 MUL ADD PUSH1 0x4 ADD SLOAD PUSH1 0x40 MLOAD PUSH2 0xAA3 SWAP5 SWAP4 SWAP3 SWAP2 SWAP1 PUSH2 0x1E7C JUMP JUMPDEST PUSH1 0x40 MLOAD DUP1 SWAP2 SUB SWAP1 LOG1 POP POP POP POP POP JUMP JUMPDEST PUSH2 0xABA PUSH2 0x1116 JUMP JUMPDEST PUSH2 0xAC3 PUSH0 PUSH2 0x119D JUMP JUMPDEST JUMP JUMPDEST PUSH0 PUSH1 0x2 PUSH0 SWAP1 SLOAD SWAP1 PUSH2 0x100 EXP SWAP1 DIV PUSH20 0xFFFFFFFFFFFFFFFFFFFFFFFFFFFFFFFFFFFFFFFF AND PUSH20 0xFFFFFFFFFFFFFFFFFFFFFFFFFFFFFFFFFFFFFFFF AND PUSH4 0xF53A470 CALLER PUSH1 0x40 MLOAD DUP3 PUSH4 0xFFFFFFFF AND PUSH1 0xE0 SHL DUP2 MSTORE PUSH1 0x4 ADD PUSH2 0xB20 SWAP2 SWAP1 PUSH2 0x1AE3 JUMP JUMPDEST PUSH0 PUSH1 0x40 MLOAD DUP1 DUP4 SUB DUP2 DUP7 GAS STATICCALL ISZERO DUP1 ISZERO PUSH2 0xB3A JUMPI RETURNDATASIZE PUSH0 DUP1 RETURNDATACOPY RETURNDATASIZE PUSH0 REVERT JUMPDEST POP POP POP POP PUSH1 0x40 MLOAD RETURNDATASIZE PUSH0 DUP3 RETURNDATACOPY RETURNDATASIZE PUSH1 0x1F NOT PUSH1 0x1F DUP3 ADD AND DUP3 ADD DUP1 PUSH1 0x40 MSTORE POP DUP2 ADD SWAP1 PUSH2 0xB62 SWAP2 SWAP1 PUSH2 0x1D11 JUMP JUMPDEST SWAP1 POP PUSH0 DUP2 PUSH0 ADD MLOAD MLOAD GT PUSH2 0xBAA JUMPI PUSH1 0x40 MLOAD PUSH32 0x8C379A000000000000000000000000000000000000000000000000000000000 DUP2 MSTORE PUSH1 0x4 ADD PUSH2 0xBA1 SWAP1 PUSH2 0x1DA2 JUMP JUMPDEST PUSH1 0x40 MLOAD DUP1 SWAP2 SUB SWAP1 REVERT JUMPDEST PUSH0 PUSH1 0x14 SWAP1 SLOAD SWAP1 PUSH2 0x100 EXP SWAP1 DIV PUSH2 0xFFFF AND PUSH2 0xFFFF AND DUP3 MLOAD GT ISZERO PUSH2 0xBDE PUSH0 PUSH1 0x14 SWAP1 SLOAD SWAP1 PUSH2 0x100 EXP SWAP1 DIV PUSH2 0xFFFF AND PUSH2 0xFFFF AND PUSH2 0x125E JUMP JUMPDEST PUSH1 0x40 MLOAD PUSH1 0x20 ADD PUSH2 0xBEE SWAP2 SWAP1 PUSH2 0x1FB0 JUMP JUMPDEST PUSH1 0x40 MLOAD PUSH1 0x20 DUP2 DUP4 SUB SUB DUP2 MSTORE SWAP1 PUSH1 0x40 MSTORE SWAP1 PUSH2 0xC3E JUMPI PUSH1 0x40 MLOAD PUSH32 0x8C379A000000000000000000000000000000000000000000000000000000000 DUP2 MSTORE PUSH1 0x4 ADD PUSH2 0xC35 SWAP2 SWAP1 PUSH2 0x1FD1 JUMP JUMPDEST PUSH1 0x40 MLOAD DUP1 SWAP2 SUB SWAP1 REVERT JUMPDEST POP PUSH0 PUSH1 0x40 MLOAD DUP1 PUSH1 0xA0 ADD PUSH1 0x40 MSTORE DUP1 PUSH1 0x1 PUSH0 CALLER PUSH20 0xFFFFFFFFFFFFFFFFFFFFFFFFFFFFFFFFFFFFFFFF AND PUSH20 0xFFFFFFFFFFFFFFFFFFFFFFFFFFFFFFFFFFFFFFFF AND DUP2 MSTORE PUSH1 0x20 ADD SWAP1 DUP2 MSTORE PUSH1 0x20 ADD PUSH0 KECCAK256 DUP1 SLOAD SWAP1 POP DUP2 MSTORE PUSH1 0x20 ADD CALLER PUSH20 0xFFFFFFFFFFFFFFFFFFFFFFFFFFFFFFFFFFFFFFFF AND DUP2 MSTORE PUSH1 0x20 ADD DUP5 DUP2 MSTORE PUSH1 0x20 ADD TIMESTAMP DUP2 MSTORE PUSH1 0x20 ADD PUSH0 DUP2 MSTORE POP SWAP1 POP PUSH1 0x1 PUSH0 CALLER PUSH20 0xFFFFFFFFFFFFFFFFFFFFFFFFFFFFFFFFFFFFFFFF AND PUSH20 0xFFFFFFFFFFFFFFFFFFFFFFFFFFFFFFFFFFFFFFFF AND DUP2 MSTORE PUSH1 0x20 ADD SWAP1 DUP2 MSTORE PUSH1 0x20 ADD PUSH0 KECCAK256 DUP2 SWAP1 DUP1 PUSH1 0x1 DUP2 SLOAD ADD DUP1 DUP3 SSTORE DUP1 SWAP2 POP POP PUSH1 0x1 SWAP1 SUB SWAP1 PUSH0 MSTORE PUSH1 0x20 PUSH0 KECCAK256 SWAP1 PUSH1 0x5 MUL ADD PUSH0 SWAP1 SWAP2 SWAP1 SWAP2 SWAP1 SWAP2 POP PUSH0 DUP3 ADD MLOAD DUP2 PUSH0 ADD SSTORE PUSH1 0x20 DUP3 ADD MLOAD DUP2 PUSH1 0x1 ADD PUSH0 PUSH2 0x100 EXP DUP2 SLOAD DUP2 PUSH20 0xFFFFFFFFFFFFFFFFFFFFFFFFFFFFFFFFFFFFFFFF MUL NOT AND SWAP1 DUP4 PUSH20 0xFFFFFFFFFFFFFFFFFFFFFFFFFFFFFFFFFFFFFFFF AND MUL OR SWAP1 SSTORE POP PUSH1 0x40 DUP3 ADD MLOAD DUP2 PUSH1 0x2 ADD SWAP1 DUP2 PUSH2 0xD86 SWAP2 SWAP1 PUSH2 0x218E JUMP JUMPDEST POP PUSH1 0x60 DUP3 ADD MLOAD DUP2 PUSH1 0x3 ADD SSTORE PUSH1 0x80 DUP3 ADD MLOAD DUP2 PUSH1 0x4 ADD SSTORE POP POP PUSH32 0x16FD3C13E9D46923E0A8BCE11C7B473EC508A72E6C96CD2404B29CE972AFC29E DUP2 PUSH0 ADD MLOAD DUP3 PUSH1 0x20 ADD MLOAD DUP4 PUSH1 0x40 ADD MLOAD DUP5 PUSH1 0x60 ADD MLOAD PUSH1 0x40 MLOAD PUSH2 0xDE1 SWAP5 SWAP4 SWAP3 SWAP2 SWAP1 PUSH2 0x225D JUMP JUMPDEST PUSH1 0x40 MLOAD DUP1 SWAP2 SUB SWAP1 LOG1 POP POP POP JUMP JUMPDEST PUSH1 0x60 PUSH1 0x1 PUSH0 DUP4 PUSH20 0xFFFFFFFFFFFFFFFFFFFFFFFFFFFFFFFFFFFFFFFF AND PUSH20 0xFFFFFFFFFFFFFFFFFFFFFFFFFFFFFFFFFFFFFFFF AND DUP2 MSTORE PUSH1 0x20 ADD SWAP1 DUP2 MSTORE PUSH1 0x20 ADD PUSH0 KECCAK256 DUP1 SLOAD DUP1 PUSH1 0x20 MUL PUSH1 0x20 ADD PUSH1 0x40 MLOAD SWAP1 DUP2 ADD PUSH1 0x40 MSTORE DUP1 SWAP3 SWAP2 SWAP1 DUP2 DUP2 MSTORE PUSH1 0x20 ADD PUSH0 SWAP1 JUMPDEST DUP3 DUP3 LT ISZERO PUSH2 0xF7E JUMPI DUP4 DUP3 SWAP1 PUSH0 MSTORE PUSH1 0x20 PUSH0 KECCAK256 SWAP1 PUSH1 0x5 MUL ADD PUSH1 0x40 MLOAD DUP1 PUSH1 0xA0 ADD PUSH1 0x40 MSTORE SWAP1 DUP2 PUSH0 DUP3 ADD SLOAD DUP2 MSTORE PUSH1 0x20 ADD PUSH1 0x1 DUP3 ADD PUSH0 SWAP1 SLOAD SWAP1 PUSH2 0x100 EXP SWAP1 DIV PUSH20 0xFFFFFFFFFFFFFFFFFFFFFFFFFFFFFFFFFFFFFFFF AND PUSH20 0xFFFFFFFFFFFFFFFFFFFFFFFFFFFFFFFFFFFFFFFF AND PUSH20 0xFFFFFFFFFFFFFFFFFFFFFFFFFFFFFFFFFFFFFFFF AND DUP2 MSTORE PUSH1 0x20 ADD PUSH1 0x2 DUP3 ADD DUP1 SLOAD PUSH2 0xEDB SWAP1 PUSH2 0x1B51 JUMP JUMPDEST DUP1 PUSH1 0x1F ADD PUSH1 0x20 DUP1 SWAP2 DIV MUL PUSH1 0x20 ADD PUSH1 0x40 MLOAD SWAP1 DUP2 ADD PUSH1 0x40 MSTORE DUP1 SWAP3 SWAP2 SWAP1 DUP2 DUP2 MSTORE PUSH1 0x20 ADD DUP3 DUP1 SLOAD PUSH2 0xF07 SWAP1 PUSH2 0x1B51 JUMP JUMPDEST DUP1 ISZERO PUSH2 0xF52 JUMPI DUP1 PUSH1 0x1F LT PUSH2 0xF29 JUMPI PUSH2 0x100 DUP1 DUP4 SLOAD DIV MUL DUP4 MSTORE SWAP2 PUSH1 0x20 ADD SWAP2 PUSH2 0xF52 JUMP JUMPDEST DUP3 ADD SWAP2 SWAP1 PUSH0 MSTORE PUSH1 0x20 PUSH0 KECCAK256 SWAP1 JUMPDEST DUP2 SLOAD DUP2 MSTORE SWAP1 PUSH1 0x1 ADD SWAP1 PUSH1 0x20 ADD DUP1 DUP4 GT PUSH2 0xF35 JUMPI DUP3 SWAP1 SUB PUSH1 0x1F AND DUP3 ADD SWAP2 JUMPDEST POP POP POP POP POP DUP2 MSTORE PUSH1 0x20 ADD PUSH1 0x3 DUP3 ADD SLOAD DUP2 MSTORE PUSH1 0x20 ADD PUSH1 0x4 DUP3 ADD SLOAD DUP2 MSTORE POP POP DUP2 MSTORE PUSH1 0x20 ADD SWAP1 PUSH1 0x1 ADD SWAP1 PUSH2 0xE4C JUMP JUMPDEST POP POP POP POP SWAP1 POP SWAP2 SWAP1 POP JUMP JUMPDEST PUSH0 DUP1 PUSH0 JUMPDEST PUSH1 0x1 PUSH0 DUP6 PUSH20 0xFFFFFFFFFFFFFFFFFFFFFFFFFFFFFFFFFFFFFFFF AND PUSH20 0xFFFFFFFFFFFFFFFFFFFFFFFFFFFFFFFFFFFFFFFF AND DUP2 MSTORE PUSH1 0x20 ADD SWAP1 DUP2 MSTORE PUSH1 0x20 ADD PUSH0 KECCAK256 DUP1 SLOAD SWAP1 POP DUP2 LT ISZERO PUSH2 0x104E JUMPI PUSH1 0x1 PUSH0 DUP6 PUSH20 0xFFFFFFFFFFFFFFFFFFFFFFFFFFFFFFFFFFFFFFFF AND PUSH20 0xFFFFFFFFFFFFFFFFFFFFFFFFFFFFFFFFFFFFFFFF AND DUP2 MSTORE PUSH1 0x20 ADD SWAP1 DUP2 MSTORE PUSH1 0x20 ADD PUSH0 KECCAK256 DUP2 DUP2 SLOAD DUP2 LT PUSH2 0x1024 JUMPI PUSH2 0x1023 PUSH2 0x1B81 JUMP JUMPDEST JUMPDEST SWAP1 PUSH0 MSTORE PUSH1 0x20 PUSH0 KECCAK256 SWAP1 PUSH1 0x5 MUL ADD PUSH1 0x4 ADD SLOAD DUP3 PUSH2 0x103F SWAP2 SWAP1 PUSH2 0x22A7 JUMP JUMPDEST SWAP2 POP DUP1 DUP1 PUSH1 0x1 ADD SWAP2 POP POP PUSH2 0xF8D JUMP JUMPDEST POP DUP1 SWAP2 POP POP SWAP2 SWAP1 POP JUMP JUMPDEST PUSH0 DUP1 PUSH0 SWAP1 SLOAD SWAP1 PUSH2 0x100 EXP SWAP1 DIV PUSH20 0xFFFFFFFFFFFFFFFFFFFFFFFFFFFFFFFFFFFFFFFF AND SWAP1 POP SWAP1 JUMP JUMPDEST PUSH2 0x1087 PUSH2 0x1116 JUMP JUMPDEST PUSH0 PUSH20 0xFFFFFFFFFFFFFFFFFFFFFFFFFFFFFFFFFFFFFFFF AND DUP2 PUSH20 0xFFFFFFFFFFFFFFFFFFFFFFFFFFFFFFFFFFFFFFFF AND SUB PUSH2 0x10F7 JUMPI PUSH0 PUSH1 0x40 MLOAD PUSH32 0x1E4FBDF700000000000000000000000000000000000000000000000000000000 DUP2 MSTORE PUSH1 0x4 ADD PUSH2 0x10EE SWAP2 SWAP1 PUSH2 0x1AE3 JUMP JUMPDEST PUSH1 0x40 MLOAD DUP1 SWAP2 SUB SWAP1 REVERT JUMPDEST PUSH2 0x1100 DUP2 PUSH2 0x119D JUMP JUMPDEST POP JUMP JUMPDEST PUSH0 PUSH1 0x14 SWAP1 SLOAD SWAP1 PUSH2 0x100 EXP SWAP1 DIV PUSH2 0xFFFF AND DUP2 JUMP JUMPDEST PUSH2 0x111E PUSH2 0x1328 JUMP JUMPDEST PUSH20 0xFFFFFFFFFFFFFFFFFFFFFFFFFFFFFFFFFFFFFFFF AND PUSH2 0x113C PUSH2 0x1058 JUMP JUMPDEST PUSH20 0xFFFFFFFFFFFFFFFFFFFFFFFFFFFFFFFFFFFFFFFF AND EQ PUSH2 0x119B JUMPI PUSH2 0x115F PUSH2 0x1328 JUMP JUMPDEST PUSH1 0x40 MLOAD PUSH32 0x118CDAA700000000000000000000000000000000000000000000000000000000 DUP2 MSTORE PUSH1 0x4 ADD PUSH2 0x1192 SWAP2 SWAP1 PUSH2 0x1AE3 JUMP JUMPDEST PUSH1 0x40 MLOAD DUP1 SWAP2 SUB SWAP1 REVERT JUMPDEST JUMP JUMPDEST PUSH0 DUP1 PUSH0 SWAP1 SLOAD SWAP1 PUSH2 0x100 EXP SWAP1 DIV PUSH20 0xFFFFFFFFFFFFFFFFFFFFFFFFFFFFFFFFFFFFFFFF AND SWAP1 POP DUP2 PUSH0 DUP1 PUSH2 0x100 EXP DUP2 SLOAD DUP2 PUSH20 0xFFFFFFFFFFFFFFFFFFFFFFFFFFFFFFFFFFFFFFFF MUL NOT AND SWAP1 DUP4 PUSH20 0xFFFFFFFFFFFFFFFFFFFFFFFFFFFFFFFFFFFFFFFF AND MUL OR SWAP1 SSTORE POP DUP2 PUSH20 0xFFFFFFFFFFFFFFFFFFFFFFFFFFFFFFFFFFFFFFFF AND DUP2 PUSH20 0xFFFFFFFFFFFFFFFFFFFFFFFFFFFFFFFFFFFFFFFF AND PUSH32 0x8BE0079C531659141344CD1FD0A4F28419497F9722A3DAAFE3B4186F6B6457E0 PUSH1 0x40 MLOAD PUSH1 0x40 MLOAD DUP1 SWAP2 SUB SWAP1 LOG3 POP POP JUMP JUMPDEST PUSH1 0x60 PUSH0 PUSH1 0x1 PUSH2 0x126C DUP5 PUSH2 0x132F JUMP JUMPDEST ADD SWAP1 POP PUSH0 DUP2 PUSH8 0xFFFFFFFFFFFFFFFF DUP2 GT ISZERO PUSH2 0x128A JUMPI PUSH2 0x1289 PUSH2 0x17E6 JUMP JUMPDEST JUMPDEST PUSH1 0x40 MLOAD SWAP1 DUP1 DUP3 MSTORE DUP1 PUSH1 0x1F ADD PUSH1 0x1F NOT AND PUSH1 0x20 ADD DUP3 ADD PUSH1 0x40 MSTORE DUP1 ISZERO PUSH2 0x12BC JUMPI DUP2 PUSH1 0x20 ADD PUSH1 0x1 DUP3 MUL DUP1 CALLDATASIZE DUP4 CALLDATACOPY DUP1 DUP3 ADD SWAP2 POP POP SWAP1 POP JUMPDEST POP SWAP1 POP PUSH0 DUP3 PUSH1 0x20 ADD DUP3 ADD SWAP1 POP JUMPDEST PUSH1 0x1 ISZERO PUSH2 0x131D JUMPI DUP1 DUP1 PUSH1 0x1 SWAP1 SUB SWAP2 POP POP PUSH32 0x3031323334353637383961626364656600000000000000000000000000000000 PUSH1 0xA DUP7 MOD BYTE DUP2 MSTORE8 PUSH1 0xA DUP6 DUP2 PUSH2 0x1312 JUMPI PUSH2 0x1311 PUSH2 0x22DA JUMP JUMPDEST JUMPDEST DIV SWAP5 POP PUSH0 DUP6 SUB PUSH2 0x12C9 JUMPI JUMPDEST DUP2 SWAP4 POP POP POP POP SWAP2 SWAP1 POP JUMP JUMPDEST PUSH0 CALLER SWAP1 POP SWAP1 JUMP JUMPDEST PUSH0 DUP1 PUSH0 SWAP1 POP PUSH27 0x184F03E93FF9F4DAA797ED6E38ED64BF6A1F010000000000000000 DUP4 LT PUSH2 0x138B JUMPI PUSH27 0x184F03E93FF9F4DAA797ED6E38ED64BF6A1F010000000000000000 DUP4 DUP2 PUSH2 0x1381 JUMPI PUSH2 0x1380 PUSH2 0x22DA JUMP JUMPDEST JUMPDEST DIV SWAP3 POP PUSH1 0x40 DUP2 ADD SWAP1 POP JUMPDEST PUSH14 0x4EE2D6D415B85ACEF8100000000 DUP4 LT PUSH2 0x13C8 JUMPI PUSH14 0x4EE2D6D415B85ACEF8100000000 DUP4 DUP2 PUSH2 0x13BE JUMPI PUSH2 0x13BD PUSH2 0x22DA JUMP JUMPDEST JUMPDEST DIV SWAP3 POP PUSH1 0x20 DUP2 ADD SWAP1 POP JUMPDEST PUSH7 0x2386F26FC10000 DUP4 LT PUSH2 0x13F7 JUMPI PUSH7 0x2386F26FC10000 DUP4 DUP2 PUSH2 0x13ED JUMPI PUSH2 0x13EC PUSH2 0x22DA JUMP JUMPDEST JUMPDEST DIV SWAP3 POP PUSH1 0x10 DUP2 ADD SWAP1 POP JUMPDEST PUSH4 0x5F5E100 DUP4 LT PUSH2 0x1420 JUMPI PUSH4 0x5F5E100 DUP4 DUP2 PUSH2 0x1416 JUMPI PUSH2 0x1415 PUSH2 0x22DA JUMP JUMPDEST JUMPDEST DIV SWAP3 POP PUSH1 0x8 DUP2 ADD SWAP1 POP JUMPDEST PUSH2 0x2710 DUP4 LT PUSH2 0x1445 JUMPI PUSH2 0x2710 DUP4 DUP2 PUSH2 0x143B JUMPI PUSH2 0x143A PUSH2 0x22DA JUMP JUMPDEST JUMPDEST DIV SWAP3 POP PUSH1 0x4 DUP2 ADD SWAP1 POP JUMPDEST PUSH1 0x64 DUP4 LT PUSH2 0x1468 JUMPI PUSH1 0x64 DUP4 DUP2 PUSH2 0x145E JUMPI PUSH2 0x145D PUSH2 0x22DA JUMP JUMPDEST JUMPDEST DIV SWAP3 POP PUSH1 0x2 DUP2 ADD SWAP1 POP JUMPDEST PUSH1 0xA DUP4 LT PUSH2 0x1477 JUMPI PUSH1 0x1 DUP2 ADD SWAP1 POP JUMPDEST DUP1 SWAP2 POP POP SWAP2 SWAP1 POP JUMP JUMPDEST PUSH1 0x40 MLOAD DUP1 PUSH1 0xA0 ADD PUSH1 0x40 MSTORE DUP1 PUSH0 DUP2 MSTORE PUSH1 0x20 ADD PUSH0 PUSH20 0xFFFFFFFFFFFFFFFFFFFFFFFFFFFFFFFFFFFFFFFF AND DUP2 MSTORE PUSH1 0x20 ADD PUSH1 0x60 DUP2 MSTORE PUSH1 0x20 ADD PUSH0 DUP2 MSTORE PUSH1 0x20 ADD PUSH0 DUP2 MSTORE POP SWAP1 JUMP JUMPDEST PUSH0 PUSH1 0x40 MLOAD SWAP1 POP SWAP1 JUMP JUMPDEST PUSH0 DUP1 REVERT JUMPDEST PUSH0 DUP1 REVERT JUMPDEST PUSH0 PUSH20 0xFFFFFFFFFFFFFFFFFFFFFFFFFFFFFFFFFFFFFFFF DUP3 AND SWAP1 POP SWAP2 SWAP1 POP JUMP JUMPDEST PUSH0 PUSH2 0x14FB DUP3 PUSH2 0x14D2 JUMP JUMPDEST SWAP1 POP SWAP2 SWAP1 POP JUMP JUMPDEST PUSH2 0x150B DUP2 PUSH2 0x14F1 JUMP JUMPDEST DUP2 EQ PUSH2 0x1515 JUMPI PUSH0 DUP1 REVERT JUMPDEST POP JUMP JUMPDEST PUSH0 DUP2 CALLDATALOAD SWAP1 POP PUSH2 0x1526 DUP2 PUSH2 0x1502 JUMP JUMPDEST SWAP3 SWAP2 POP POP JUMP JUMPDEST PUSH0 DUP2 SWAP1 POP SWAP2 SWAP1 POP JUMP JUMPDEST PUSH2 0x153E DUP2 PUSH2 0x152C JUMP JUMPDEST DUP2 EQ PUSH2 0x1548 JUMPI PUSH0 DUP1 REVERT JUMPDEST POP JUMP JUMPDEST PUSH0 DUP2 CALLDATALOAD SWAP1 POP PUSH2 0x1559 DUP2 PUSH2 0x1535 JUMP JUMPDEST SWAP3 SWAP2 POP POP JUMP JUMPDEST PUSH0 DUP1 PUSH1 0x40 DUP4 DUP6 SUB SLT ISZERO PUSH2 0x1575 JUMPI PUSH2 0x1574 PUSH2 0x14CA JUMP JUMPDEST JUMPDEST PUSH0 PUSH2 0x1582 DUP6 DUP3 DUP7 ADD PUSH2 0x1518 JUMP JUMPDEST SWAP3 POP POP PUSH1 0x20 PUSH2 0x1593 DUP6 DUP3 DUP7 ADD PUSH2 0x154B JUMP JUMPDEST SWAP2 POP POP SWAP3 POP SWAP3 SWAP1 POP JUMP JUMPDEST PUSH2 0x15A6 DUP2 PUSH2 0x152C JUMP JUMPDEST DUP3 MSTORE POP POP JUMP JUMPDEST PUSH2 0x15B5 DUP2 PUSH2 0x14F1 JUMP JUMPDEST DUP3 MSTORE POP POP JUMP JUMPDEST PUSH0 DUP2 MLOAD SWAP1 POP SWAP2 SWAP1 POP JUMP JUMPDEST PUSH0 DUP3 DUP3 MSTORE PUSH1 0x20 DUP3 ADD SWAP1 POP SWAP3 SWAP2 POP POP JUMP JUMPDEST DUP3 DUP2 DUP4 MCOPY PUSH0 DUP4 DUP4 ADD MSTORE POP POP POP JUMP JUMPDEST PUSH0 PUSH1 0x1F NOT PUSH1 0x1F DUP4 ADD AND SWAP1 POP SWAP2 SWAP1 POP JUMP JUMPDEST PUSH0 PUSH2 0x15FD DUP3 PUSH2 0x15BB JUMP JUMPDEST PUSH2 0x1607 DUP2 DUP6 PUSH2 0x15C5 JUMP JUMPDEST SWAP4 POP PUSH2 0x1617 DUP2 DUP6 PUSH1 0x20 DUP7 ADD PUSH2 0x15D5 JUMP JUMPDEST PUSH2 0x1620 DUP2 PUSH2 0x15E3 JUMP JUMPDEST DUP5 ADD SWAP2 POP POP SWAP3 SWAP2 POP POP JUMP JUMPDEST PUSH0 PUSH1 0xA0 DUP3 ADD SWAP1 POP PUSH2 0x163E PUSH0 DUP4 ADD DUP9 PUSH2 0x159D JUMP JUMPDEST PUSH2 0x164B PUSH1 0x20 DUP4 ADD DUP8 PUSH2 0x15AC JUMP JUMPDEST DUP2 DUP2 SUB PUSH1 0x40 DUP4 ADD MSTORE PUSH2 0x165D DUP2 DUP7 PUSH2 0x15F3 JUMP JUMPDEST SWAP1 POP PUSH2 0x166C PUSH1 0x60 DUP4 ADD DUP6 PUSH2 0x159D JUMP JUMPDEST PUSH2 0x1679 PUSH1 0x80 DUP4 ADD DUP5 PUSH2 0x159D JUMP JUMPDEST SWAP7 SWAP6 POP POP POP POP POP POP JUMP JUMPDEST PUSH2 0x168C DUP2 PUSH2 0x152C JUMP JUMPDEST DUP3 MSTORE POP POP JUMP JUMPDEST PUSH2 0x169B DUP2 PUSH2 0x14F1 JUMP JUMPDEST DUP3 MSTORE POP POP JUMP JUMPDEST PUSH0 DUP3 DUP3 MSTORE PUSH1 0x20 DUP3 ADD SWAP1 POP SWAP3 SWAP2 POP POP JUMP JUMPDEST PUSH0 PUSH2 0x16BB DUP3 PUSH2 0x15BB JUMP JUMPDEST PUSH2 0x16C5 DUP2 DUP6 PUSH2 0x16A1 JUMP JUMPDEST SWAP4 POP PUSH2 0x16D5 DUP2 DUP6 PUSH1 0x20 DUP7 ADD PUSH2 0x15D5 JUMP JUMPDEST PUSH2 0x16DE DUP2 PUSH2 0x15E3 JUMP JUMPDEST DUP5 ADD SWAP2 POP POP SWAP3 SWAP2 POP POP JUMP JUMPDEST PUSH0 PUSH1 0xA0 DUP4 ADD PUSH0 DUP4 ADD MLOAD PUSH2 0x16FE PUSH0 DUP7 ADD DUP3 PUSH2 0x1683 JUMP JUMPDEST POP PUSH1 0x20 DUP4 ADD MLOAD PUSH2 0x1711 PUSH1 0x20 DUP7 ADD DUP3 PUSH2 0x1692 JUMP JUMPDEST POP PUSH1 0x40 DUP4 ADD MLOAD DUP5 DUP3 SUB PUSH1 0x40 DUP7 ADD MSTORE PUSH2 0x1729 DUP3 DUP3 PUSH2 0x16B1 JUMP JUMPDEST SWAP2 POP POP PUSH1 0x60 DUP4 ADD MLOAD PUSH2 0x173E PUSH1 0x60 DUP7 ADD DUP3 PUSH2 0x1683 JUMP JUMPDEST POP PUSH1 0x80 DUP4 ADD MLOAD PUSH2 0x1751 PUSH1 0x80 DUP7 ADD DUP3 PUSH2 0x1683 JUMP JUMPDEST POP DUP1 SWAP2 POP POP SWAP3 SWAP2 POP POP JUMP JUMPDEST PUSH0 PUSH1 0x20 DUP3 ADD SWAP1 POP DUP2 DUP2 SUB PUSH0 DUP4 ADD MSTORE PUSH2 0x1774 DUP2 DUP5 PUSH2 0x16E9 JUMP JUMPDEST SWAP1 POP SWAP3 SWAP2 POP POP JUMP JUMPDEST PUSH0 PUSH2 0xFFFF DUP3 AND SWAP1 POP SWAP2 SWAP1 POP JUMP JUMPDEST PUSH2 0x1792 DUP2 PUSH2 0x177C JUMP JUMPDEST DUP2 EQ PUSH2 0x179C JUMPI PUSH0 DUP1 REVERT JUMPDEST POP JUMP JUMPDEST PUSH0 DUP2 CALLDATALOAD SWAP1 POP PUSH2 0x17AD DUP2 PUSH2 0x1789 JUMP JUMPDEST SWAP3 SWAP2 POP POP JUMP JUMPDEST PUSH0 PUSH1 0x20 DUP3 DUP5 SUB SLT ISZERO PUSH2 0x17C8 JUMPI PUSH2 0x17C7 PUSH2 0x14CA JUMP JUMPDEST JUMPDEST PUSH0 PUSH2 0x17D5 DUP5 DUP3 DUP6 ADD PUSH2 0x179F JUMP JUMPDEST SWAP2 POP POP SWAP3 SWAP2 POP POP JUMP JUMPDEST PUSH0 DUP1 REVERT JUMPDEST PUSH0 DUP1 REVERT JUMPDEST PUSH32 0x4E487B7100000000000000000000000000000000000000000000000000000000 PUSH0 MSTORE PUSH1 0x41 PUSH1 0x4 MSTORE PUSH1 0x24 PUSH0 REVERT JUMPDEST PUSH2 0x181C DUP3 PUSH2 0x15E3 JUMP JUMPDEST DUP2 ADD DUP2 DUP2 LT PUSH8 0xFFFFFFFFFFFFFFFF DUP3 GT OR ISZERO PUSH2 0x183B JUMPI PUSH2 0x183A PUSH2 0x17E6 JUMP JUMPDEST JUMPDEST DUP1 PUSH1 0x40 MSTORE POP POP POP JUMP JUMPDEST PUSH0 PUSH2 0x184D PUSH2 0x14C1 JUMP JUMPDEST SWAP1 POP PUSH2 0x1859 DUP3 DUP3 PUSH2 0x1813 JUMP JUMPDEST SWAP2 SWAP1 POP JUMP JUMPDEST PUSH0 PUSH8 0xFFFFFFFFFFFFFFFF DUP3 GT ISZERO PUSH2 0x1878 JUMPI PUSH2 0x1877 PUSH2 0x17E6 JUMP JUMPDEST JUMPDEST PUSH2 0x1881 DUP3 PUSH2 0x15E3 JUMP JUMPDEST SWAP1 POP PUSH1 0x20 DUP2 ADD SWAP1 POP SWAP2 SWAP1 POP JUMP JUMPDEST DUP3 DUP2 DUP4 CALLDATACOPY PUSH0 DUP4 DUP4 ADD MSTORE POP POP POP JUMP JUMPDEST PUSH0 PUSH2 0x18AE PUSH2 0x18A9 DUP5 PUSH2 0x185E JUMP JUMPDEST PUSH2 0x1844 JUMP JUMPDEST SWAP1 POP DUP3 DUP2 MSTORE PUSH1 0x20 DUP2 ADD DUP5 DUP5 DUP5 ADD GT ISZERO PUSH2 0x18CA JUMPI PUSH2 0x18C9 PUSH2 0x17E2 JUMP JUMPDEST JUMPDEST PUSH2 0x18D5 DUP5 DUP3 DUP6 PUSH2 0x188E JUMP JUMPDEST POP SWAP4 SWAP3 POP POP POP JUMP JUMPDEST PUSH0 DUP3 PUSH1 0x1F DUP4 ADD SLT PUSH2 0x18F1 JUMPI PUSH2 0x18F0 PUSH2 0x17DE JUMP JUMPDEST JUMPDEST DUP2 CALLDATALOAD PUSH2 0x1901 DUP5 DUP3 PUSH1 0x20 DUP7 ADD PUSH2 0x189C JUMP JUMPDEST SWAP2 POP POP SWAP3 SWAP2 POP POP JUMP JUMPDEST PUSH0 PUSH1 0x20 DUP3 DUP5 SUB SLT ISZERO PUSH2 0x191F JUMPI PUSH2 0x191E PUSH2 0x14CA JUMP JUMPDEST JUMPDEST PUSH0 DUP3 ADD CALLDATALOAD PUSH8 0xFFFFFFFFFFFFFFFF DUP2 GT ISZERO PUSH2 0x193C JUMPI PUSH2 0x193B PUSH2 0x14CE JUMP JUMPDEST JUMPDEST PUSH2 0x1948 DUP5 DUP3 DUP6 ADD PUSH2 0x18DD JUMP JUMPDEST SWAP2 POP POP SWAP3 SWAP2 POP POP JUMP JUMPDEST PUSH0 PUSH1 0x20 DUP3 DUP5 SUB SLT ISZERO PUSH2 0x1966 JUMPI PUSH2 0x1965 PUSH2 0x14CA JUMP JUMPDEST JUMPDEST PUSH0 PUSH2 0x1973 DUP5 DUP3 DUP6 ADD PUSH2 0x1518 JUMP JUMPDEST SWAP2 POP POP SWAP3 SWAP2 POP POP JUMP JUMPDEST PUSH0 DUP2 MLOAD SWAP1 POP SWAP2 SWAP1 POP JUMP JUMPDEST PUSH0 DUP3 DUP3 MSTORE PUSH1 0x20 DUP3 ADD SWAP1 POP SWAP3 SWAP2 POP POP JUMP JUMPDEST PUSH0 DUP2 SWAP1 POP PUSH1 0x20 DUP3 ADD SWAP1 POP SWAP2 SWAP1 POP JUMP JUMPDEST PUSH0 PUSH1 0xA0 DUP4 ADD PUSH0 DUP4 ADD MLOAD PUSH2 0x19BA PUSH0 DUP7 ADD DUP3 PUSH2 0x1683 JUMP JUMPDEST POP PUSH1 0x20 DUP4 ADD MLOAD PUSH2 0x19CD PUSH1 0x20 DUP7 ADD DUP3 PUSH2 0x1692 JUMP JUMPDEST POP PUSH1 0x40 DUP4 ADD MLOAD DUP5 DUP3 SUB PUSH1 0x40 DUP7 ADD MSTORE PUSH2 0x19E5 DUP3 DUP3 PUSH2 0x16B1 JUMP JUMPDEST SWAP2 POP POP PUSH1 0x60 DUP4 ADD MLOAD PUSH2 0x19FA PUSH1 0x60 DUP7 ADD DUP3 PUSH2 0x1683 JUMP JUMPDEST POP PUSH1 0x80 DUP4 ADD MLOAD PUSH2 0x1A0D PUSH1 0x80 DUP7 ADD DUP3 PUSH2 0x1683 JUMP JUMPDEST POP DUP1 SWAP2 POP POP SWAP3 SWAP2 POP POP JUMP JUMPDEST PUSH0 PUSH2 0x1A23 DUP4 DUP4 PUSH2 0x19A5 JUMP JUMPDEST SWAP1 POP SWAP3 SWAP2 POP POP JUMP JUMPDEST PUSH0 PUSH1 0x20 DUP3 ADD SWAP1 POP SWAP2 SWAP1 POP JUMP JUMPDEST PUSH0 PUSH2 0x1A41 DUP3 PUSH2 0x197C JUMP JUMPDEST PUSH2 0x1A4B DUP2 DUP6 PUSH2 0x1986 JUMP JUMPDEST SWAP4 POP DUP4 PUSH1 0x20 DUP3 MUL DUP6 ADD PUSH2 0x1A5D DUP6 PUSH2 0x1996 JUMP JUMPDEST DUP1 PUSH0 JUMPDEST DUP6 DUP2 LT ISZERO PUSH2 0x1A98 JUMPI DUP5 DUP5 SUB DUP10 MSTORE DUP2 MLOAD PUSH2 0x1A79 DUP6 DUP3 PUSH2 0x1A18 JUMP JUMPDEST SWAP5 POP PUSH2 0x1A84 DUP4 PUSH2 0x1A2B JUMP JUMPDEST SWAP3 POP PUSH1 0x20 DUP11 ADD SWAP10 POP POP PUSH1 0x1 DUP2 ADD SWAP1 POP PUSH2 0x1A60 JUMP JUMPDEST POP DUP3 SWAP8 POP DUP8 SWAP6 POP POP POP POP POP POP SWAP3 SWAP2 POP POP JUMP JUMPDEST PUSH0 PUSH1 0x20 DUP3 ADD SWAP1 POP DUP2 DUP2 SUB PUSH0 DUP4 ADD MSTORE PUSH2 0x1AC2 DUP2 DUP5 PUSH2 0x1A37 JUMP JUMPDEST SWAP1 POP SWAP3 SWAP2 POP POP JUMP JUMPDEST PUSH0 PUSH1 0x20 DUP3 ADD SWAP1 POP PUSH2 0x1ADD PUSH0 DUP4 ADD DUP5 PUSH2 0x159D JUMP JUMPDEST SWAP3 SWAP2 POP POP JUMP JUMPDEST PUSH0 PUSH1 0x20 DUP3 ADD SWAP1 POP PUSH2 0x1AF6 PUSH0 DUP4 ADD DUP5 PUSH2 0x15AC JUMP JUMPDEST SWAP3 SWAP2 POP POP JUMP JUMPDEST PUSH2 0x1B05 DUP2 PUSH2 0x177C JUMP JUMPDEST DUP3 MSTORE POP POP JUMP JUMPDEST PUSH0 PUSH1 0x20 DUP3 ADD SWAP1 POP PUSH2 0x1B1E PUSH0 DUP4 ADD DUP5 PUSH2 0x1AFC JUMP JUMPDEST SWAP3 SWAP2 POP POP JUMP JUMPDEST PUSH32 0x4E487B7100000000000000000000000000000000000000000000000000000000 PUSH0 MSTORE PUSH1 0x22 PUSH1 0x4 MSTORE PUSH1 0x24 PUSH0 REVERT JUMPDEST PUSH0 PUSH1 0x2 DUP3 DIV SWAP1 POP PUSH1 0x1 DUP3 AND DUP1 PUSH2 0x1B68 JUMPI PUSH1 0x7F DUP3 AND SWAP2 POP JUMPDEST PUSH1 0x20 DUP3 LT DUP2 SUB PUSH2 0x1B7B JUMPI PUSH2 0x1B7A PUSH2 0x1B24 JUMP JUMPDEST JUMPDEST POP SWAP2 SWAP1 POP JUMP JUMPDEST PUSH32 0x4E487B7100000000000000000000000000000000000000000000000000000000 PUSH0 MSTORE PUSH1 0x32 PUSH1 0x4 MSTORE PUSH1 0x24 PUSH0 REVERT JUMPDEST PUSH32 0x547765657420646F6573206E6F74206578697374210000000000000000000000 PUSH0 DUP3 ADD MSTORE POP JUMP JUMPDEST PUSH0 PUSH2 0x1BE2 PUSH1 0x15 DUP4 PUSH2 0x15C5 JUMP JUMPDEST SWAP2 POP PUSH2 0x1BED DUP3 PUSH2 0x1BAE JUMP JUMPDEST PUSH1 0x20 DUP3 ADD SWAP1 POP SWAP2 SWAP1 POP JUMP JUMPDEST PUSH0 PUSH1 0x20 DUP3 ADD SWAP1 POP DUP2 DUP2 SUB PUSH0 DUP4 ADD MSTORE PUSH2 0x1C0F DUP2 PUSH2 0x1BD6 JUMP JUMPDEST SWAP1 POP SWAP2 SWAP1 POP JUMP JUMPDEST PUSH0 DUP1 REVERT JUMPDEST PUSH0 DUP1 REVERT JUMPDEST PUSH0 PUSH2 0x1C30 PUSH2 0x1C2B DUP5 PUSH2 0x185E JUMP JUMPDEST PUSH2 0x1844 JUMP JUMPDEST SWAP1 POP DUP3 DUP2 MSTORE PUSH1 0x20 DUP2 ADD DUP5 DUP5 DUP5 ADD GT ISZERO PUSH2 0x1C4C JUMPI PUSH2 0x1C4B PUSH2 0x17E2 JUMP JUMPDEST JUMPDEST PUSH2 0x1C57 DUP5 DUP3 DUP6 PUSH2 0x15D5 JUMP JUMPDEST POP SWAP4 SWAP3 POP POP POP JUMP JUMPDEST PUSH0 DUP3 PUSH1 0x1F DUP4 ADD SLT PUSH2 0x1C73 JUMPI PUSH2 0x1C72 PUSH2 0x17DE JUMP JUMPDEST JUMPDEST DUP2 MLOAD PUSH2 0x1C83 DUP5 DUP3 PUSH1 0x20 DUP7 ADD PUSH2 0x1C1E JUMP JUMPDEST SWAP2 POP POP SWAP3 SWAP2 POP POP JUMP JUMPDEST PUSH0 PUSH1 0x40 DUP3 DUP5 SUB SLT ISZERO PUSH2 0x1CA1 JUMPI PUSH2 0x1CA0 PUSH2 0x1C16 JUMP JUMPDEST JUMPDEST PUSH2 0x1CAB PUSH1 0x40 PUSH2 0x1844 JUMP JUMPDEST SWAP1 POP PUSH0 DUP3 ADD MLOAD PUSH8 0xFFFFFFFFFFFFFFFF DUP2 GT ISZERO PUSH2 0x1CCA JUMPI PUSH2 0x1CC9 PUSH2 0x1C1A JUMP JUMPDEST JUMPDEST PUSH2 0x1CD6 DUP5 DUP3 DUP6 ADD PUSH2 0x1C5F JUMP JUMPDEST PUSH0 DUP4 ADD MSTORE POP PUSH1 0x20 DUP3 ADD MLOAD PUSH8 0xFFFFFFFFFFFFFFFF DUP2 GT ISZERO PUSH2 0x1CF9 JUMPI PUSH2 0x1CF8 PUSH2 0x1C1A JUMP JUMPDEST JUMPDEST PUSH2 0x1D05 DUP5 DUP3 DUP6 ADD PUSH2 0x1C5F JUMP JUMPDEST PUSH1 0x20 DUP4 ADD MSTORE POP SWAP3 SWAP2 POP POP JUMP JUMPDEST PUSH0 PUSH1 0x20 DUP3 DUP5 SUB SLT ISZERO PUSH2 0x1D26 JUMPI PUSH2 0x1D25 PUSH2 0x14CA JUMP JUMPDEST JUMPDEST PUSH0 DUP3 ADD MLOAD PUSH8 0xFFFFFFFFFFFFFFFF DUP2 GT ISZERO PUSH2 0x1D43 JUMPI PUSH2 0x1D42 PUSH2 0x14CE JUMP JUMPDEST JUMPDEST PUSH2 0x1D4F DUP5 DUP3 DUP6 ADD PUSH2 0x1C8C JUMP JUMPDEST SWAP2 POP POP SWAP3 SWAP2 POP POP JUMP JUMPDEST PUSH32 0x55736572206E6F74207265676973746572656421000000000000000000000000 PUSH0 DUP3 ADD MSTORE POP JUMP JUMPDEST PUSH0 PUSH2 0x1D8C PUSH1 0x14 DUP4 PUSH2 0x15C5 JUMP JUMPDEST SWAP2 POP PUSH2 0x1D97 DUP3 PUSH2 0x1D58 JUMP JUMPDEST PUSH1 0x20 DUP3 ADD SWAP1 POP SWAP2 SWAP1 POP JUMP JUMPDEST PUSH0 PUSH1 0x20 DUP3 ADD SWAP1 POP DUP2 DUP2 SUB PUSH0 DUP4 ADD MSTORE PUSH2 0x1DB9 DUP2 PUSH2 0x1D80 JUMP JUMPDEST SWAP1 POP SWAP2 SWAP1 POP JUMP JUMPDEST PUSH32 0x547765657420686173206E6F206C696B65732100000000000000000000000000 PUSH0 DUP3 ADD MSTORE POP JUMP JUMPDEST PUSH0 PUSH2 0x1DF4 PUSH1 0x13 DUP4 PUSH2 0x15C5 JUMP JUMPDEST SWAP2 POP PUSH2 0x1DFF DUP3 PUSH2 0x1DC0 JUMP JUMPDEST PUSH1 0x20 DUP3 ADD SWAP1 POP SWAP2 SWAP1 POP JUMP JUMPDEST PUSH0 PUSH1 0x20 DUP3 ADD SWAP1 POP DUP2 DUP2 SUB PUSH0 DUP4 ADD MSTORE PUSH2 0x1E21 DUP2 PUSH2 0x1DE8 JUMP JUMPDEST SWAP1 POP SWAP2 SWAP1 POP JUMP JUMPDEST PUSH32 0x4E487B7100000000000000000000000000000000000000000000000000000000 PUSH0 MSTORE PUSH1 0x11 PUSH1 0x4 MSTORE PUSH1 0x24 PUSH0 REVERT JUMPDEST PUSH0 PUSH2 0x1E5F DUP3 PUSH2 0x152C JUMP JUMPDEST SWAP2 POP PUSH0 DUP3 SUB PUSH2 0x1E71 JUMPI PUSH2 0x1E70 PUSH2 0x1E28 JUMP JUMPDEST JUMPDEST PUSH1 0x1 DUP3 SUB SWAP1 POP SWAP2 SWAP1 POP JUMP JUMPDEST PUSH0 PUSH1 0x80 DUP3 ADD SWAP1 POP PUSH2 0x1E8F PUSH0 DUP4 ADD DUP8 PUSH2 0x15AC JUMP JUMPDEST PUSH2 0x1E9C PUSH1 0x20 DUP4 ADD DUP7 PUSH2 0x15AC JUMP JUMPDEST PUSH2 0x1EA9 PUSH1 0x40 DUP4 ADD DUP6 PUSH2 0x159D JUMP JUMPDEST PUSH2 0x1EB6 PUSH1 0x60 DUP4 ADD DUP5 PUSH2 0x159D JUMP JUMPDEST SWAP6 SWAP5 POP POP POP POP POP JUMP JUMPDEST PUSH0 PUSH2 0x1EC9 DUP3 PUSH2 0x152C JUMP JUMPDEST SWAP2 POP PUSH32 0xFFFFFFFFFFFFFFFFFFFFFFFFFFFFFFFFFFFFFFFFFFFFFFFFFFFFFFFFFFFFFFFF DUP3 SUB PUSH2 0x1EFB JUMPI PUSH2 0x1EFA PUSH2 0x1E28 JUMP JUMPDEST JUMPDEST PUSH1 0x1 DUP3 ADD SWAP1 POP SWAP2 SWAP1 POP JUMP JUMPDEST PUSH0 DUP2 SWAP1 POP SWAP3 SWAP2 POP POP JUMP JUMPDEST PUSH32 0x596F757220747765657420657863656564656420746865206C696D6974206F66 PUSH0 DUP3 ADD MSTORE PUSH32 0x20636861726163746572733A2000000000000000000000000000000000000000 PUSH1 0x20 DUP3 ADD MSTORE POP JUMP JUMPDEST PUSH0 PUSH2 0x1F6A PUSH1 0x2D DUP4 PUSH2 0x1F06 JUMP JUMPDEST SWAP2 POP PUSH2 0x1F75 DUP3 PUSH2 0x1F10 JUMP JUMPDEST PUSH1 0x2D DUP3 ADD SWAP1 POP SWAP2 SWAP1 POP JUMP JUMPDEST PUSH0 PUSH2 0x1F8A DUP3 PUSH2 0x15BB JUMP JUMPDEST PUSH2 0x1F94 DUP2 DUP6 PUSH2 0x1F06 JUMP JUMPDEST SWAP4 POP PUSH2 0x1FA4 DUP2 DUP6 PUSH1 0x20 DUP7 ADD PUSH2 0x15D5 JUMP JUMPDEST DUP1 DUP5 ADD SWAP2 POP POP SWAP3 SWAP2 POP POP JUMP JUMPDEST PUSH0 PUSH2 0x1FBA DUP3 PUSH2 0x1F5E JUMP JUMPDEST SWAP2 POP PUSH2 0x1FC6 DUP3 DUP5 PUSH2 0x1F80 JUMP JUMPDEST SWAP2 POP DUP2 SWAP1 POP SWAP3 SWAP2 POP POP JUMP JUMPDEST PUSH0 PUSH1 0x20 DUP3 ADD SWAP1 POP DUP2 DUP2 SUB PUSH0 DUP4 ADD MSTORE PUSH2 0x1FE9 DUP2 DUP5 PUSH2 0x15F3 JUMP JUMPDEST SWAP1 POP SWAP3 SWAP2 POP POP JUMP JUMPDEST PUSH0 DUP2 SWAP1 POP DUP2 PUSH0 MSTORE PUSH1 0x20 PUSH0 KECCAK256 SWAP1 POP SWAP2 SWAP1 POP JUMP JUMPDEST PUSH0 PUSH1 0x20 PUSH1 0x1F DUP4 ADD DIV SWAP1 POP SWAP2 SWAP1 POP JUMP JUMPDEST PUSH0 DUP3 DUP3 SHL SWAP1 POP SWAP3 SWAP2 POP POP JUMP JUMPDEST PUSH0 PUSH1 0x8 DUP4 MUL PUSH2 0x204D PUSH32 0xFFFFFFFFFFFFFFFFFFFFFFFFFFFFFFFFFFFFFFFFFFFFFFFFFFFFFFFFFFFFFFFF DUP3 PUSH2 0x2012 JUMP JUMPDEST PUSH2 0x2057 DUP7 DUP4 PUSH2 0x2012 JUMP JUMPDEST SWAP6 POP DUP1 NOT DUP5 AND SWAP4 POP DUP1 DUP7 AND DUP5 OR SWAP3 POP POP POP SWAP4 SWAP3 POP POP POP JUMP JUMPDEST PUSH0 DUP2 SWAP1 POP SWAP2 SWAP1 POP JUMP JUMPDEST PUSH0 PUSH2 0x2092 PUSH2 0x208D PUSH2 0x2088 DUP5 PUSH2 0x152C JUMP JUMPDEST PUSH2 0x206F JUMP JUMPDEST PUSH2 0x152C JUMP JUMPDEST SWAP1 POP SWAP2 SWAP1 POP JUMP JUMPDEST PUSH0 DUP2 SWAP1 POP SWAP2 SWAP1 POP JUMP JUMPDEST PUSH2 0x20AB DUP4 PUSH2 0x2078 JUMP JUMPDEST PUSH2 0x20BF PUSH2 0x20B7 DUP3 PUSH2 0x2099 JUMP JUMPDEST DUP5 DUP5 SLOAD PUSH2 0x201E JUMP JUMPDEST DUP3 SSTORE POP POP POP POP JUMP JUMPDEST PUSH0 SWAP1 JUMP JUMPDEST PUSH2 0x20D3 PUSH2 0x20C7 JUMP JUMPDEST PUSH2 0x20DE DUP2 DUP5 DUP5 PUSH2 0x20A2 JUMP JUMPDEST POP POP POP JUMP JUMPDEST JUMPDEST DUP2 DUP2 LT ISZERO PUSH2 0x2101 JUMPI PUSH2 0x20F6 PUSH0 DUP3 PUSH2 0x20CB JUMP JUMPDEST PUSH1 0x1 DUP2 ADD SWAP1 POP PUSH2 0x20E4 JUMP JUMPDEST POP POP JUMP JUMPDEST PUSH1 0x1F DUP3 GT ISZERO PUSH2 0x2146 JUMPI PUSH2 0x2117 DUP2 PUSH2 0x1FF1 JUMP JUMPDEST PUSH2 0x2120 DUP5 PUSH2 0x2003 JUMP JUMPDEST DUP2 ADD PUSH1 0x20 DUP6 LT ISZERO PUSH2 0x212F JUMPI DUP2 SWAP1 POP JUMPDEST PUSH2 0x2143 PUSH2 0x213B DUP6 PUSH2 0x2003 JUMP JUMPDEST DUP4 ADD DUP3 PUSH2 0x20E3 JUMP JUMPDEST POP POP JUMPDEST POP POP POP JUMP JUMPDEST PUSH0 DUP3 DUP3 SHR SWAP1 POP SWAP3 SWAP2 POP POP JUMP JUMPDEST PUSH0 PUSH2 0x2166 PUSH0 NOT DUP5 PUSH1 0x8 MUL PUSH2 0x214B JUMP JUMPDEST NOT DUP1 DUP4 AND SWAP2 POP POP SWAP3 SWAP2 POP POP JUMP JUMPDEST PUSH0 PUSH2 0x217E DUP4 DUP4 PUSH2 0x2157 JUMP JUMPDEST SWAP2 POP DUP3 PUSH1 0x2 MUL DUP3 OR SWAP1 POP SWAP3 SWAP2 POP POP JUMP JUMPDEST PUSH2 0x2197 DUP3 PUSH2 0x15BB JUMP JUMPDEST PUSH8 0xFFFFFFFFFFFFFFFF DUP2 GT ISZERO PUSH2 0x21B0 JUMPI PUSH2 0x21AF PUSH2 0x17E6 JUMP JUMPDEST JUMPDEST PUSH2 0x21BA DUP3 SLOAD PUSH2 0x1B51 JUMP JUMPDEST PUSH2 0x21C5 DUP3 DUP3 DUP6 PUSH2 0x2105 JUMP JUMPDEST PUSH0 PUSH1 0x20 SWAP1 POP PUSH1 0x1F DUP4 GT PUSH1 0x1 DUP2 EQ PUSH2 0x21F6 JUMPI PUSH0 DUP5 ISZERO PUSH2 0x21E4 JUMPI DUP3 DUP8 ADD MLOAD SWAP1 POP JUMPDEST PUSH2 0x21EE DUP6 DUP3 PUSH2 0x2173 JUMP JUMPDEST DUP7 SSTORE POP PUSH2 0x2255 JUMP JUMPDEST PUSH1 0x1F NOT DUP5 AND PUSH2 0x2204 DUP7 PUSH2 0x1FF1 JUMP JUMPDEST PUSH0 JUMPDEST DUP3 DUP2 LT ISZERO PUSH2 0x222B JUMPI DUP5 DUP10 ADD MLOAD DUP3 SSTORE PUSH1 0x1 DUP3 ADD SWAP2 POP PUSH1 0x20 DUP6 ADD SWAP5 POP PUSH1 0x20 DUP2 ADD SWAP1 POP PUSH2 0x2206 JUMP JUMPDEST DUP7 DUP4 LT ISZERO PUSH2 0x2248 JUMPI DUP5 DUP10 ADD MLOAD PUSH2 0x2244 PUSH1 0x1F DUP10 AND DUP3 PUSH2 0x2157 JUMP JUMPDEST DUP4 SSTORE POP JUMPDEST PUSH1 0x1 PUSH1 0x2 DUP9 MUL ADD DUP9 SSTORE POP POP POP JUMPDEST POP POP POP POP POP POP JUMP JUMPDEST PUSH0 PUSH1 0x80 DUP3 ADD SWAP1 POP PUSH2 0x2270 PUSH0 DUP4 ADD DUP8 PUSH2 0x159D JUMP JUMPDEST PUSH2 0x227D PUSH1 0x20 DUP4 ADD DUP7 PUSH2 0x15AC JUMP JUMPDEST DUP2 DUP2 SUB PUSH1 0x40 DUP4 ADD MSTORE PUSH2 0x228F DUP2 DUP6 PUSH2 0x15F3 JUMP JUMPDEST SWAP1 POP PUSH2 0x229E PUSH1 0x60 DUP4 ADD DUP5 PUSH2 0x159D JUMP JUMPDEST SWAP6 SWAP5 POP POP POP POP POP JUMP JUMPDEST PUSH0 PUSH2 0x22B1 DUP3 PUSH2 0x152C JUMP JUMPDEST SWAP2 POP PUSH2 0x22BC DUP4 PUSH2 0x152C JUMP JUMPDEST SWAP3 POP DUP3 DUP3 ADD SWAP1 POP DUP1 DUP3 GT ISZERO PUSH2 0x22D4 JUMPI PUSH2 0x22D3 PUSH2 0x1E28 JUMP JUMPDEST JUMPDEST SWAP3 SWAP2 POP POP JUMP JUMPDEST PUSH32 0x4E487B7100000000000000000000000000000000000000000000000000000000 PUSH0 MSTORE PUSH1 0x12 PUSH1 0x4 MSTORE PUSH1 0x24 PUSH0 REVERT INVALID LOG2 PUSH5 0x6970667358 0x22 SLT KECCAK256 0xBF LOG4 LOG3 PUSH12 0x868289845628E1C41DD8EFD0 0xEB 0xFB 0xE8 MLOAD 0xD7 DUP5 0xAF MUL 0xEC KECCAK256 CREATE2 0xDC 0x23 0xAF POP 0xA8 PUSH5 0x736F6C6343 STOP ADDMOD BYTE STOP CALLER "
				},
				"gasEstimates": {
					"creation": {
						"codeDepositCost": "1804200",
						"executionCost": "infinite",
						"totalCost": "infinite"
					},
					"external": {
						"TWEET_MAX_LENGTH()": "2626",
						"changeTweetLength(uint16)": "infinite",
						"createTweet(string)": "infinite",
						"getALLTweets(address)": "infinite",
						"getTotalLikes(address)": "infinite",
						"getTweet(address,uint256)": "infinite",
						"likeTweet(address,uint256)": "infinite",
						"owner()": "2581",
						"renounceOwnership()": "infinite",
						"transferOwnership(address)": "infinite",
						"tweets(address,uint256)": "infinite",
						"unlikeTweet(address,uint256)": "infinite"
					}
				},
				"methodIdentifiers": {
					"TWEET_MAX_LENGTH()": "fd10b7df",
					"changeTweetLength(uint16)": "58bfa4ab",
					"createTweet(string)": "7c9cd2bc",
					"getALLTweets(address)": "808b0cf1",
					"getTotalLikes(address)": "820785cc",
					"getTweet(address,uint256)": "112f54e3",
					"likeTweet(address,uint256)": "63378216",
					"owner()": "8da5cb5b",
					"renounceOwnership()": "715018a6",
					"transferOwnership(address)": "f2fde38b",
					"tweets(address,uint256)": "05a1b4a9",
					"unlikeTweet(address,uint256)": "3d9b569f"
				}
			},
			"storageLayout": {
				"storage": [
					{
						"astId": 8,
						"contract": "contracts/Twitter.sol:Twitter",
						"label": "_owner",
						"offset": 0,
						"slot": "0",
						"type": "t_address"
					},
					{
						"astId": 4098,
						"contract": "contracts/Twitter.sol:Twitter",
						"label": "TWEET_MAX_LENGTH",
						"offset": 20,
						"slot": "0",
						"type": "t_uint16"
					},
					{
						"astId": 4104,
						"contract": "contracts/Twitter.sol:Twitter",
						"label": "tweets",
						"offset": 0,
						"slot": "1",
						"type": "t_mapping(t_address,t_array(t_struct(Tweet)4095_storage)dyn_storage)"
					},
					{
						"astId": 4107,
						"contract": "contracts/Twitter.sol:Twitter",
						"label": "profileContract",
						"offset": 0,
						"slot": "2",
						"type": "t_contract(IProfile)4082"
					}
				],
				"types": {
					"t_address": {
						"encoding": "inplace",
						"label": "address",
						"numberOfBytes": "20"
					},
					"t_array(t_struct(Tweet)4095_storage)dyn_storage": {
						"base": "t_struct(Tweet)4095_storage",
						"encoding": "dynamic_array",
						"label": "struct Twitter.Tweet[]",
						"numberOfBytes": "32"
					},
					"t_contract(IProfile)4082": {
						"encoding": "inplace",
						"label": "contract IProfile",
						"numberOfBytes": "20"
					},
					"t_mapping(t_address,t_array(t_struct(Tweet)4095_storage)dyn_storage)": {
						"encoding": "mapping",
						"key": "t_address",
						"label": "mapping(address => struct Twitter.Tweet[])",
						"numberOfBytes": "32",
						"value": "t_array(t_struct(Tweet)4095_storage)dyn_storage"
					},
					"t_string_storage": {
						"encoding": "bytes",
						"label": "string",
						"numberOfBytes": "32"
					},
					"t_struct(Tweet)4095_storage": {
						"encoding": "inplace",
						"label": "struct Twitter.Tweet",
						"members": [
							{
								"astId": 4086,
								"contract": "contracts/Twitter.sol:Twitter",
								"label": "id",
								"offset": 0,
								"slot": "0",
								"type": "t_uint256"
							},
							{
								"astId": 4088,
								"contract": "contracts/Twitter.sol:Twitter",
								"label": "author",
								"offset": 0,
								"slot": "1",
								"type": "t_address"
							},
							{
								"astId": 4090,
								"contract": "contracts/Twitter.sol:Twitter",
								"label": "content",
								"offset": 0,
								"slot": "2",
								"type": "t_string_storage"
							},
							{
								"astId": 4092,
								"contract": "contracts/Twitter.sol:Twitter",
								"label": "timestamp",
								"offset": 0,
								"slot": "3",
								"type": "t_uint256"
							},
							{
								"astId": 4094,
								"contract": "contracts/Twitter.sol:Twitter",
								"label": "likes",
								"offset": 0,
								"slot": "4",
								"type": "t_uint256"
							}
						],
						"numberOfBytes": "160"
					},
					"t_uint16": {
						"encoding": "inplace",
						"label": "uint16",
						"numberOfBytes": "2"
					},
					"t_uint256": {
						"encoding": "inplace",
						"label": "uint256",
						"numberOfBytes": "32"
					}
				}
			},
			"userdoc": {
				"kind": "user",
				"methods": {},
				"version": 1
			}
		}
	}
}