{
	"contracts/Twitter.sol": {
		"Twitter": {
			"abi": [
				{
					"inputs": [],
					"stateMutability": "nonpayable",
					"type": "constructor"
				},
				{
					"anonymous": false,
					"inputs": [
						{
							"indexed": false,
							"internalType": "uint256",
							"name": "id",
							"type": "uint256"
						},
						{
							"indexed": false,
							"internalType": "address",
							"name": "author",
							"type": "address"
						},
						{
							"indexed": false,
							"internalType": "string",
							"name": "content",
							"type": "string"
						},
						{
							"indexed": false,
							"internalType": "uint256",
							"name": "timestamp",
							"type": "uint256"
						}
					],
					"name": "TweetCreated",
					"type": "event"
				},
				{
					"anonymous": false,
					"inputs": [
						{
							"indexed": false,
							"internalType": "address",
							"name": "liker",
							"type": "address"
						},
						{
							"indexed": false,
							"internalType": "address",
							"name": "tweetAuthor",
							"type": "address"
						},
						{
							"indexed": false,
							"internalType": "uint256",
							"name": "tweetId",
							"type": "uint256"
						},
						{
							"indexed": false,
							"internalType": "uint256",
							"name": "newLikeCount",
							"type": "uint256"
						}
					],
					"name": "TweetLiked",
					"type": "event"
				},
				{
					"anonymous": false,
					"inputs": [
						{
							"indexed": false,
							"internalType": "address",
							"name": "unliker",
							"type": "address"
						},
						{
							"indexed": false,
							"internalType": "address",
							"name": "tweetAuthor",
							"type": "address"
						},
						{
							"indexed": false,
							"internalType": "uint256",
							"name": "tweetId",
							"type": "uint256"
						},
						{
							"indexed": false,
							"internalType": "uint256",
							"name": "newLikeCount",
							"type": "uint256"
						}
					],
					"name": "TweetUnliked",
					"type": "event"
				},
				{
					"inputs": [],
					"name": "TWEET_MAX_LENGTH",
					"outputs": [
						{
							"internalType": "uint16",
							"name": "",
							"type": "uint16"
						}
					],
					"stateMutability": "view",
					"type": "function"
				},
				{
					"inputs": [
						{
							"internalType": "uint16",
							"name": "newTweetLength",
							"type": "uint16"
						}
					],
					"name": "changeTweetLength",
					"outputs": [],
					"stateMutability": "nonpayable",
					"type": "function"
				},
				{
					"inputs": [
						{
							"internalType": "string",
							"name": "_tweet",
							"type": "string"
						}
					],
					"name": "createTweet",
					"outputs": [],
					"stateMutability": "nonpayable",
					"type": "function"
				},
				{
					"inputs": [
						{
							"internalType": "address",
							"name": "_owner",
							"type": "address"
						}
					],
					"name": "getALLTweets",
					"outputs": [
						{
							"components": [
								{
									"internalType": "uint256",
									"name": "id",
									"type": "uint256"
								},
								{
									"internalType": "address",
									"name": "author",
									"type": "address"
								},
								{
									"internalType": "string",
									"name": "content",
									"type": "string"
								},
								{
									"internalType": "uint256",
									"name": "timestamp",
									"type": "uint256"
								},
								{
									"internalType": "uint256",
									"name": "likes",
									"type": "uint256"
								}
							],
							"internalType": "struct Twitter.Tweet[]",
							"name": "",
							"type": "tuple[]"
						}
					],
					"stateMutability": "view",
					"type": "function"
				},
				{
					"inputs": [
						{
							"internalType": "address",
							"name": "_owner",
							"type": "address"
						},
						{
							"internalType": "uint256",
							"name": "_i",
							"type": "uint256"
						}
					],
					"name": "getTweet",
					"outputs": [
						{
							"components": [
								{
									"internalType": "uint256",
									"name": "id",
									"type": "uint256"
								},
								{
									"internalType": "address",
									"name": "author",
									"type": "address"
								},
								{
									"internalType": "string",
									"name": "content",
									"type": "string"
								},
								{
									"internalType": "uint256",
									"name": "timestamp",
									"type": "uint256"
								},
								{
									"internalType": "uint256",
									"name": "likes",
									"type": "uint256"
								}
							],
							"internalType": "struct Twitter.Tweet",
							"name": "",
							"type": "tuple"
						}
					],
					"stateMutability": "view",
					"type": "function"
				},
				{
					"inputs": [
						{
							"internalType": "address",
							"name": "_author",
							"type": "address"
						},
						{
							"internalType": "uint256",
							"name": "_id",
							"type": "uint256"
						}
					],
					"name": "likeTweet",
					"outputs": [],
					"stateMutability": "nonpayable",
					"type": "function"
				},
				{
					"inputs": [],
					"name": "owner",
					"outputs": [
						{
							"internalType": "address",
							"name": "",
							"type": "address"
						}
					],
					"stateMutability": "view",
					"type": "function"
				},
				{
					"inputs": [
						{
							"internalType": "address",
							"name": "",
							"type": "address"
						},
						{
							"internalType": "uint256",
							"name": "",
							"type": "uint256"
						}
					],
					"name": "tweets",
					"outputs": [
						{
							"internalType": "uint256",
							"name": "id",
							"type": "uint256"
						},
						{
							"internalType": "address",
							"name": "author",
							"type": "address"
						},
						{
							"internalType": "string",
							"name": "content",
							"type": "string"
						},
						{
							"internalType": "uint256",
							"name": "timestamp",
							"type": "uint256"
						},
						{
							"internalType": "uint256",
							"name": "likes",
							"type": "uint256"
						}
					],
					"stateMutability": "view",
					"type": "function"
				},
				{
					"inputs": [
						{
							"internalType": "address",
							"name": "_author",
							"type": "address"
						},
						{
							"internalType": "uint256",
							"name": "_id",
							"type": "uint256"
						}
					],
					"name": "unlikeTweet",
					"outputs": [],
					"stateMutability": "nonpayable",
					"type": "function"
				}
			],
			"devdoc": {
				"kind": "dev",
				"methods": {},
				"version": 1
			},
			"evm": {
				"assembly": "    /* \"contracts/Twitter.sol\":176:2662  contract Twitter {... */\n  mstore(0x40, 0x80)\n    /* \"contracts/Twitter.sol\":375:378  280 */\n  0x0118\n    /* \"contracts/Twitter.sol\":342:378  uint16 public TWEET_MAX_LENGTH = 280 */\n  0x00\n  dup1\n  0x0100\n  exp\n  dup2\n  sload\n  dup2\n  0xffff\n  mul\n  not\n  and\n  swap1\n  dup4\n  0xffff\n  and\n  mul\n  or\n  swap1\n  sstore\n  pop\n    /* \"contracts/Twitter.sol\":745:794  constructor() {... */\n  callvalue\n  dup1\n  iszero\n  tag_1\n  jumpi\n  0x00\n  dup1\n  revert\ntag_1:\n  pop\n    /* \"contracts/Twitter.sol\":777:787  msg.sender */\n  caller\n    /* \"contracts/Twitter.sol\":769:774  owner */\n  0x02\n  0x00\n    /* \"contracts/Twitter.sol\":769:787  owner = msg.sender */\n  0x0100\n  exp\n  dup2\n  sload\n  dup2\n  0xffffffffffffffffffffffffffffffffffffffff\n  mul\n  not\n  and\n  swap1\n  dup4\n  0xffffffffffffffffffffffffffffffffffffffff\n  and\n  mul\n  or\n  swap1\n  sstore\n  pop\n    /* \"contracts/Twitter.sol\":176:2662  contract Twitter {... */\n  dataSize(sub_0)\n  dup1\n  dataOffset(sub_0)\n  0x00\n  codecopy\n  0x00\n  return\nstop\n\nsub_0: assembly {\n        /* \"contracts/Twitter.sol\":176:2662  contract Twitter {... */\n      mstore(0x40, 0x80)\n      callvalue\n      dup1\n      iszero\n      tag_1\n      jumpi\n      0x00\n      dup1\n      revert\n    tag_1:\n      pop\n      jumpi(tag_2, lt(calldatasize, 0x04))\n      shr(0xe0, calldataload(0x00))\n      dup1\n      0x63378216\n      gt\n      tag_12\n      jumpi\n      dup1\n      0x63378216\n      eq\n      tag_7\n      jumpi\n      dup1\n      0x7c9cd2bc\n      eq\n      tag_8\n      jumpi\n      dup1\n      0x808b0cf1\n      eq\n      tag_9\n      jumpi\n      dup1\n      0x8da5cb5b\n      eq\n      tag_10\n      jumpi\n      dup1\n      0xfd10b7df\n      eq\n      tag_11\n      jumpi\n      jump(tag_2)\n    tag_12:\n      dup1\n      0x05a1b4a9\n      eq\n      tag_3\n      jumpi\n      dup1\n      0x112f54e3\n      eq\n      tag_4\n      jumpi\n      dup1\n      0x3d9b569f\n      eq\n      tag_5\n      jumpi\n      dup1\n      0x58bfa4ab\n      eq\n      tag_6\n      jumpi\n    tag_2:\n      0x00\n      dup1\n      revert\n        /* \"contracts/Twitter.sol\":384:426  mapping (address => Tweet[]) public tweets */\n    tag_3:\n      tag_13\n      0x04\n      dup1\n      calldatasize\n      sub\n      dup2\n      add\n      swap1\n      tag_14\n      swap2\n      swap1\n      tag_15\n      jump\t// in\n    tag_14:\n      tag_16\n      jump\t// in\n    tag_13:\n      mload(0x40)\n      tag_17\n      swap6\n      swap5\n      swap4\n      swap3\n      swap2\n      swap1\n      tag_18\n      jump\t// in\n    tag_17:\n      mload(0x40)\n      dup1\n      swap2\n      sub\n      swap1\n      return\n        /* \"contracts/Twitter.sol\":1915:2038  function getTweet(address _owner, uint256 _i) public view returns (Tweet memory) {... */\n    tag_4:\n      tag_19\n      0x04\n      dup1\n      calldatasize\n      sub\n      dup2\n      add\n      swap1\n      tag_20\n      swap2\n      swap1\n      tag_15\n      jump\t// in\n    tag_20:\n      tag_21\n      jump\t// in\n    tag_19:\n      mload(0x40)\n      tag_22\n      swap2\n      swap1\n      tag_23\n      jump\t// in\n    tag_22:\n      mload(0x40)\n      dup1\n      swap2\n      sub\n      swap1\n      return\n        /* \"contracts/Twitter.sol\":2376:2659  function unlikeTweet(address _author, uint256 _id) external tweetExists(_author, _id){... */\n    tag_5:\n      tag_24\n      0x04\n      dup1\n      calldatasize\n      sub\n      dup2\n      add\n      swap1\n      tag_25\n      swap2\n      swap1\n      tag_15\n      jump\t// in\n    tag_25:\n      tag_26\n      jump\t// in\n    tag_24:\n      stop\n        /* \"contracts/Twitter.sol\":1080:1197  function changeTweetLength(uint16 newTweetLength) public onlyOwner {... */\n    tag_6:\n      tag_27\n      0x04\n      dup1\n      calldatasize\n      sub\n      dup2\n      add\n      swap1\n      tag_28\n      swap2\n      swap1\n      tag_29\n      jump\t// in\n    tag_28:\n      tag_30\n      jump\t// in\n    tag_27:\n      stop\n        /* \"contracts/Twitter.sol\":2163:2370  function likeTweet(address _author, uint256 _id) external tweetExists(_author, _id){... */\n    tag_7:\n      tag_31\n      0x04\n      dup1\n      calldatasize\n      sub\n      dup2\n      add\n      swap1\n      tag_32\n      swap2\n      swap1\n      tag_15\n      jump\t// in\n    tag_32:\n      tag_33\n      jump\t// in\n    tag_31:\n      stop\n        /* \"contracts/Twitter.sol\":1203:1909  function createTweet(string memory _tweet) public {... */\n    tag_8:\n      tag_34\n      0x04\n      dup1\n      calldatasize\n      sub\n      dup2\n      add\n      swap1\n      tag_35\n      swap2\n      swap1\n      tag_36\n      jump\t// in\n    tag_35:\n      tag_37\n      jump\t// in\n    tag_34:\n      stop\n        /* \"contracts/Twitter.sol\":2044:2157  function getALLTweets(address _owner) public view returns (Tweet[] memory) {... */\n    tag_9:\n      tag_38\n      0x04\n      dup1\n      calldatasize\n      sub\n      dup2\n      add\n      swap1\n      tag_39\n      swap2\n      swap1\n      tag_40\n      jump\t// in\n    tag_39:\n      tag_41\n      jump\t// in\n    tag_38:\n      mload(0x40)\n      tag_42\n      swap2\n      swap1\n      tag_43\n      jump\t// in\n    tag_42:\n      mload(0x40)\n      dup1\n      swap2\n      sub\n      swap1\n      return\n        /* \"contracts/Twitter.sol\":432:452  address public owner */\n    tag_10:\n      tag_44\n      tag_45\n      jump\t// in\n    tag_44:\n      mload(0x40)\n      tag_46\n      swap2\n      swap1\n      tag_47\n      jump\t// in\n    tag_46:\n      mload(0x40)\n      dup1\n      swap2\n      sub\n      swap1\n      return\n        /* \"contracts/Twitter.sol\":342:378  uint16 public TWEET_MAX_LENGTH = 280 */\n    tag_11:\n      tag_48\n      tag_49\n      jump\t// in\n    tag_48:\n      mload(0x40)\n      tag_50\n      swap2\n      swap1\n      tag_51\n      jump\t// in\n    tag_50:\n      mload(0x40)\n      dup1\n      swap2\n      sub\n      swap1\n      return\n        /* \"contracts/Twitter.sol\":384:426  mapping (address => Tweet[]) public tweets */\n    tag_16:\n      mstore(0x20, 0x01)\n      dup2\n      0x00\n      mstore\n      keccak256(0x00, 0x40)\n      dup2\n      dup2\n      sload\n      dup2\n      lt\n      tag_52\n      jumpi\n      0x00\n      dup1\n      revert\n    tag_52:\n      swap1\n      0x00\n      mstore\n      keccak256(0x00, 0x20)\n      swap1\n      0x05\n      mul\n      add\n      0x00\n      swap2\n      pop\n      swap2\n      pop\n      pop\n      dup1\n      0x00\n      add\n      sload\n      swap1\n      dup1\n      0x01\n      add\n      0x00\n      swap1\n      sload\n      swap1\n      0x0100\n      exp\n      swap1\n      div\n      0xffffffffffffffffffffffffffffffffffffffff\n      and\n      swap1\n      dup1\n      0x02\n      add\n      dup1\n      sload\n      tag_54\n      swap1\n      tag_55\n      jump\t// in\n    tag_54:\n      dup1\n      0x1f\n      add\n      0x20\n      dup1\n      swap2\n      div\n      mul\n      0x20\n      add\n      mload(0x40)\n      swap1\n      dup2\n      add\n      0x40\n      mstore\n      dup1\n      swap3\n      swap2\n      swap1\n      dup2\n      dup2\n      mstore\n      0x20\n      add\n      dup3\n      dup1\n      sload\n      tag_56\n      swap1\n      tag_55\n      jump\t// in\n    tag_56:\n      dup1\n      iszero\n      tag_57\n      jumpi\n      dup1\n      0x1f\n      lt\n      tag_58\n      jumpi\n      0x0100\n      dup1\n      dup4\n      sload\n      div\n      mul\n      dup4\n      mstore\n      swap2\n      0x20\n      add\n      swap2\n      jump(tag_57)\n    tag_58:\n      dup3\n      add\n      swap2\n      swap1\n      0x00\n      mstore\n      keccak256(0x00, 0x20)\n      swap1\n    tag_59:\n      dup2\n      sload\n      dup2\n      mstore\n      swap1\n      0x01\n      add\n      swap1\n      0x20\n      add\n      dup1\n      dup4\n      gt\n      tag_59\n      jumpi\n      dup3\n      swap1\n      sub\n      0x1f\n      and\n      dup3\n      add\n      swap2\n    tag_57:\n      pop\n      pop\n      pop\n      pop\n      pop\n      swap1\n      dup1\n      0x03\n      add\n      sload\n      swap1\n      dup1\n      0x04\n      add\n      sload\n      swap1\n      pop\n      dup6\n      jump\t// out\n        /* \"contracts/Twitter.sol\":1915:2038  function getTweet(address _owner, uint256 _i) public view returns (Tweet memory) {... */\n    tag_21:\n        /* \"contracts/Twitter.sol\":1982:1994  Tweet memory */\n      tag_60\n      tag_61\n      jump\t// in\n    tag_60:\n        /* \"contracts/Twitter.sol\":2013:2019  tweets */\n      0x01\n        /* \"contracts/Twitter.sol\":2013:2027  tweets[_owner] */\n      0x00\n        /* \"contracts/Twitter.sol\":2020:2026  _owner */\n      dup5\n        /* \"contracts/Twitter.sol\":2013:2027  tweets[_owner] */\n      0xffffffffffffffffffffffffffffffffffffffff\n      and\n      0xffffffffffffffffffffffffffffffffffffffff\n      and\n      dup2\n      mstore\n      0x20\n      add\n      swap1\n      dup2\n      mstore\n      0x20\n      add\n      0x00\n      keccak256\n        /* \"contracts/Twitter.sol\":2028:2030  _i */\n      dup3\n        /* \"contracts/Twitter.sol\":2013:2031  tweets[_owner][_i] */\n      dup2\n      sload\n      dup2\n      lt\n      tag_63\n      jumpi\n      tag_64\n      tag_65\n      jump\t// in\n    tag_64:\n    tag_63:\n      swap1\n      0x00\n      mstore\n      keccak256(0x00, 0x20)\n      swap1\n      0x05\n      mul\n      add\n        /* \"contracts/Twitter.sol\":2006:2031  return tweets[_owner][_i] */\n      mload(0x40)\n      dup1\n      0xa0\n      add\n      0x40\n      mstore\n      swap1\n      dup2\n      0x00\n      dup3\n      add\n      sload\n      dup2\n      mstore\n      0x20\n      add\n      0x01\n      dup3\n      add\n      0x00\n      swap1\n      sload\n      swap1\n      0x0100\n      exp\n      swap1\n      div\n      0xffffffffffffffffffffffffffffffffffffffff\n      and\n      0xffffffffffffffffffffffffffffffffffffffff\n      and\n      0xffffffffffffffffffffffffffffffffffffffff\n      and\n      dup2\n      mstore\n      0x20\n      add\n      0x02\n      dup3\n      add\n      dup1\n      sload\n      tag_67\n      swap1\n      tag_55\n      jump\t// in\n    tag_67:\n      dup1\n      0x1f\n      add\n      0x20\n      dup1\n      swap2\n      div\n      mul\n      0x20\n      add\n      mload(0x40)\n      swap1\n      dup2\n      add\n      0x40\n      mstore\n      dup1\n      swap3\n      swap2\n      swap1\n      dup2\n      dup2\n      mstore\n      0x20\n      add\n      dup3\n      dup1\n      sload\n      tag_68\n      swap1\n      tag_55\n      jump\t// in\n    tag_68:\n      dup1\n      iszero\n      tag_69\n      jumpi\n      dup1\n      0x1f\n      lt\n      tag_70\n      jumpi\n      0x0100\n      dup1\n      dup4\n      sload\n      div\n      mul\n      dup4\n      mstore\n      swap2\n      0x20\n      add\n      swap2\n      jump(tag_69)\n    tag_70:\n      dup3\n      add\n      swap2\n      swap1\n      0x00\n      mstore\n      keccak256(0x00, 0x20)\n      swap1\n    tag_71:\n      dup2\n      sload\n      dup2\n      mstore\n      swap1\n      0x01\n      add\n      swap1\n      0x20\n      add\n      dup1\n      dup4\n      gt\n      tag_71\n      jumpi\n      dup3\n      swap1\n      sub\n      0x1f\n      and\n      dup3\n      add\n      swap2\n    tag_69:\n      pop\n      pop\n      pop\n      pop\n      pop\n      dup2\n      mstore\n      0x20\n      add\n      0x03\n      dup3\n      add\n      sload\n      dup2\n      mstore\n      0x20\n      add\n      0x04\n      dup3\n      add\n      sload\n      dup2\n      mstore\n      pop\n      pop\n      swap1\n      pop\n        /* \"contracts/Twitter.sol\":1915:2038  function getTweet(address _owner, uint256 _i) public view returns (Tweet memory) {... */\n      swap3\n      swap2\n      pop\n      pop\n      jump\t// out\n        /* \"contracts/Twitter.sol\":2376:2659  function unlikeTweet(address _author, uint256 _id) external tweetExists(_author, _id){... */\n    tag_26:\n        /* \"contracts/Twitter.sol\":2448:2455  _author */\n      dup2\n        /* \"contracts/Twitter.sol\":2457:2460  _id */\n      dup2\n        /* \"contracts/Twitter.sol\":1027:1030  _id */\n      dup1\n        /* \"contracts/Twitter.sol\":1000:1006  tweets */\n      0x01\n        /* \"contracts/Twitter.sol\":1000:1015  tweets[_author] */\n      0x00\n        /* \"contracts/Twitter.sol\":1007:1014  _author */\n      dup5\n        /* \"contracts/Twitter.sol\":1000:1015  tweets[_author] */\n      0xffffffffffffffffffffffffffffffffffffffff\n      and\n      0xffffffffffffffffffffffffffffffffffffffff\n      and\n      dup2\n      mstore\n      0x20\n      add\n      swap1\n      dup2\n      mstore\n      0x20\n      add\n      0x00\n      keccak256\n        /* \"contracts/Twitter.sol\":1016:1019  _id */\n      dup3\n        /* \"contracts/Twitter.sol\":1000:1020  tweets[_author][_id] */\n      dup2\n      sload\n      dup2\n      lt\n      tag_73\n      jumpi\n      tag_74\n      tag_65\n      jump\t// in\n    tag_74:\n    tag_73:\n      swap1\n      0x00\n      mstore\n      keccak256(0x00, 0x20)\n      swap1\n      0x05\n      mul\n      add\n        /* \"contracts/Twitter.sol\":1000:1023  tweets[_author][_id].id */\n      0x00\n      add\n      sload\n        /* \"contracts/Twitter.sol\":1000:1030  tweets[_author][_id].id == _id */\n      eq\n        /* \"contracts/Twitter.sol\":992:1056  require(tweets[_author][_id].id == _id, \"Tweet does not exist!\") */\n      tag_76\n      jumpi\n      mload(0x40)\n      0x08c379a000000000000000000000000000000000000000000000000000000000\n      dup2\n      mstore\n      0x04\n      add\n      tag_77\n      swap1\n      tag_78\n      jump\t// in\n    tag_77:\n      mload(0x40)\n      dup1\n      swap2\n      sub\n      swap1\n      revert\n    tag_76:\n        /* \"contracts/Twitter.sol\":2508:2509  0 */\n      0x00\n        /* \"contracts/Twitter.sol\":2479:2485  tweets */\n      0x01\n        /* \"contracts/Twitter.sol\":2479:2494  tweets[_author] */\n      0x00\n        /* \"contracts/Twitter.sol\":2486:2493  _author */\n      dup7\n        /* \"contracts/Twitter.sol\":2479:2494  tweets[_author] */\n      0xffffffffffffffffffffffffffffffffffffffff\n      and\n      0xffffffffffffffffffffffffffffffffffffffff\n      and\n      dup2\n      mstore\n      0x20\n      add\n      swap1\n      dup2\n      mstore\n      0x20\n      add\n      0x00\n      keccak256\n        /* \"contracts/Twitter.sol\":2495:2498  _id */\n      dup5\n        /* \"contracts/Twitter.sol\":2479:2499  tweets[_author][_id] */\n      dup2\n      sload\n      dup2\n      lt\n      tag_80\n      jumpi\n      tag_81\n      tag_65\n      jump\t// in\n    tag_81:\n    tag_80:\n      swap1\n      0x00\n      mstore\n      keccak256(0x00, 0x20)\n      swap1\n      0x05\n      mul\n      add\n        /* \"contracts/Twitter.sol\":2479:2505  tweets[_author][_id].likes */\n      0x04\n      add\n      sload\n        /* \"contracts/Twitter.sol\":2479:2509  tweets[_author][_id].likes > 0 */\n      gt\n        /* \"contracts/Twitter.sol\":2471:2533  require(tweets[_author][_id].likes > 0, \"Tweet has no likes!\") */\n      tag_83\n      jumpi\n      mload(0x40)\n      0x08c379a000000000000000000000000000000000000000000000000000000000\n      dup2\n      mstore\n      0x04\n      add\n      tag_84\n      swap1\n      tag_85\n      jump\t// in\n    tag_84:\n      mload(0x40)\n      dup1\n      swap2\n      sub\n      swap1\n      revert\n    tag_83:\n        /* \"contracts/Twitter.sol\":2543:2549  tweets */\n      0x01\n        /* \"contracts/Twitter.sol\":2543:2558  tweets[_author] */\n      0x00\n        /* \"contracts/Twitter.sol\":2550:2557  _author */\n      dup6\n        /* \"contracts/Twitter.sol\":2543:2558  tweets[_author] */\n      0xffffffffffffffffffffffffffffffffffffffff\n      and\n      0xffffffffffffffffffffffffffffffffffffffff\n      and\n      dup2\n      mstore\n      0x20\n      add\n      swap1\n      dup2\n      mstore\n      0x20\n      add\n      0x00\n      keccak256\n        /* \"contracts/Twitter.sol\":2559:2562  _id */\n      dup4\n        /* \"contracts/Twitter.sol\":2543:2563  tweets[_author][_id] */\n      dup2\n      sload\n      dup2\n      lt\n      tag_86\n      jumpi\n      tag_87\n      tag_65\n      jump\t// in\n    tag_87:\n    tag_86:\n      swap1\n      0x00\n      mstore\n      keccak256(0x00, 0x20)\n      swap1\n      0x05\n      mul\n      add\n        /* \"contracts/Twitter.sol\":2543:2569  tweets[_author][_id].likes */\n      0x04\n      add\n      0x00\n        /* \"contracts/Twitter.sol\":2543:2571  tweets[_author][_id].likes-- */\n      dup2\n      sload\n      dup1\n      swap3\n      swap2\n      swap1\n      tag_89\n      swap1\n      tag_90\n      jump\t// in\n    tag_89:\n      swap2\n      swap1\n      pop\n      sstore\n      pop\n        /* \"contracts/Twitter.sol\":2586:2652  TweetUnliked(msg.sender, _author, _id, tweets[_author][_id].likes) */\n      0x762c2616349603ac16eba0de8e6141b79129a07ab63bd99e0a80b3a471716943\n        /* \"contracts/Twitter.sol\":2599:2609  msg.sender */\n      caller\n        /* \"contracts/Twitter.sol\":2611:2618  _author */\n      dup6\n        /* \"contracts/Twitter.sol\":2620:2623  _id */\n      dup6\n        /* \"contracts/Twitter.sol\":2625:2631  tweets */\n      0x01\n        /* \"contracts/Twitter.sol\":2625:2640  tweets[_author] */\n      0x00\n        /* \"contracts/Twitter.sol\":2632:2639  _author */\n      dup10\n        /* \"contracts/Twitter.sol\":2625:2640  tweets[_author] */\n      0xffffffffffffffffffffffffffffffffffffffff\n      and\n      0xffffffffffffffffffffffffffffffffffffffff\n      and\n      dup2\n      mstore\n      0x20\n      add\n      swap1\n      dup2\n      mstore\n      0x20\n      add\n      0x00\n      keccak256\n        /* \"contracts/Twitter.sol\":2641:2644  _id */\n      dup8\n        /* \"contracts/Twitter.sol\":2625:2645  tweets[_author][_id] */\n      dup2\n      sload\n      dup2\n      lt\n      tag_91\n      jumpi\n      tag_92\n      tag_65\n      jump\t// in\n    tag_92:\n    tag_91:\n      swap1\n      0x00\n      mstore\n      keccak256(0x00, 0x20)\n      swap1\n      0x05\n      mul\n      add\n        /* \"contracts/Twitter.sol\":2625:2651  tweets[_author][_id].likes */\n      0x04\n      add\n      sload\n        /* \"contracts/Twitter.sol\":2586:2652  TweetUnliked(msg.sender, _author, _id, tweets[_author][_id].likes) */\n      mload(0x40)\n      tag_94\n      swap5\n      swap4\n      swap3\n      swap2\n      swap1\n      tag_95\n      jump\t// in\n    tag_94:\n      mload(0x40)\n      dup1\n      swap2\n      sub\n      swap1\n      log1\n        /* \"contracts/Twitter.sol\":2376:2659  function unlikeTweet(address _author, uint256 _id) external tweetExists(_author, _id){... */\n      pop\n      pop\n      pop\n      pop\n      jump\t// out\n        /* \"contracts/Twitter.sol\":1080:1197  function changeTweetLength(uint16 newTweetLength) public onlyOwner {... */\n    tag_30:\n        /* \"contracts/Twitter.sol\":853:858  owner */\n      0x02\n      0x00\n      swap1\n      sload\n      swap1\n      0x0100\n      exp\n      swap1\n      div\n      0xffffffffffffffffffffffffffffffffffffffff\n      and\n        /* \"contracts/Twitter.sol\":839:858  msg.sender == owner */\n      0xffffffffffffffffffffffffffffffffffffffff\n      and\n        /* \"contracts/Twitter.sol\":839:849  msg.sender */\n      caller\n        /* \"contracts/Twitter.sol\":839:858  msg.sender == owner */\n      0xffffffffffffffffffffffffffffffffffffffff\n      and\n      eq\n        /* \"contracts/Twitter.sol\":831:907  require(msg.sender == owner, \"You're not allowed to execute this operation\") */\n      tag_97\n      jumpi\n      mload(0x40)\n      0x08c379a000000000000000000000000000000000000000000000000000000000\n      dup2\n      mstore\n      0x04\n      add\n      tag_98\n      swap1\n      tag_99\n      jump\t// in\n    tag_98:\n      mload(0x40)\n      dup1\n      swap2\n      sub\n      swap1\n      revert\n    tag_97:\n        /* \"contracts/Twitter.sol\":1176:1190  newTweetLength */\n      dup1\n        /* \"contracts/Twitter.sol\":1157:1173  TWEET_MAX_LENGTH */\n      0x00\n      dup1\n        /* \"contracts/Twitter.sol\":1157:1190  TWEET_MAX_LENGTH = newTweetLength */\n      0x0100\n      exp\n      dup2\n      sload\n      dup2\n      0xffff\n      mul\n      not\n      and\n      swap1\n      dup4\n      0xffff\n      and\n      mul\n      or\n      swap1\n      sstore\n      pop\n        /* \"contracts/Twitter.sol\":1080:1197  function changeTweetLength(uint16 newTweetLength) public onlyOwner {... */\n      pop\n      jump\t// out\n        /* \"contracts/Twitter.sol\":2163:2370  function likeTweet(address _author, uint256 _id) external tweetExists(_author, _id){... */\n    tag_33:\n        /* \"contracts/Twitter.sol\":2233:2240  _author */\n      dup2\n        /* \"contracts/Twitter.sol\":2242:2245  _id */\n      dup2\n        /* \"contracts/Twitter.sol\":1027:1030  _id */\n      dup1\n        /* \"contracts/Twitter.sol\":1000:1006  tweets */\n      0x01\n        /* \"contracts/Twitter.sol\":1000:1015  tweets[_author] */\n      0x00\n        /* \"contracts/Twitter.sol\":1007:1014  _author */\n      dup5\n        /* \"contracts/Twitter.sol\":1000:1015  tweets[_author] */\n      0xffffffffffffffffffffffffffffffffffffffff\n      and\n      0xffffffffffffffffffffffffffffffffffffffff\n      and\n      dup2\n      mstore\n      0x20\n      add\n      swap1\n      dup2\n      mstore\n      0x20\n      add\n      0x00\n      keccak256\n        /* \"contracts/Twitter.sol\":1016:1019  _id */\n      dup3\n        /* \"contracts/Twitter.sol\":1000:1020  tweets[_author][_id] */\n      dup2\n      sload\n      dup2\n      lt\n      tag_102\n      jumpi\n      tag_103\n      tag_65\n      jump\t// in\n    tag_103:\n    tag_102:\n      swap1\n      0x00\n      mstore\n      keccak256(0x00, 0x20)\n      swap1\n      0x05\n      mul\n      add\n        /* \"contracts/Twitter.sol\":1000:1023  tweets[_author][_id].id */\n      0x00\n      add\n      sload\n        /* \"contracts/Twitter.sol\":1000:1030  tweets[_author][_id].id == _id */\n      eq\n        /* \"contracts/Twitter.sol\":992:1056  require(tweets[_author][_id].id == _id, \"Tweet does not exist!\") */\n      tag_105\n      jumpi\n      mload(0x40)\n      0x08c379a000000000000000000000000000000000000000000000000000000000\n      dup2\n      mstore\n      0x04\n      add\n      tag_106\n      swap1\n      tag_78\n      jump\t// in\n    tag_106:\n      mload(0x40)\n      dup1\n      swap2\n      sub\n      swap1\n      revert\n    tag_105:\n        /* \"contracts/Twitter.sol\":2256:2262  tweets */\n      0x01\n        /* \"contracts/Twitter.sol\":2256:2271  tweets[_author] */\n      0x00\n        /* \"contracts/Twitter.sol\":2263:2270  _author */\n      dup6\n        /* \"contracts/Twitter.sol\":2256:2271  tweets[_author] */\n      0xffffffffffffffffffffffffffffffffffffffff\n      and\n      0xffffffffffffffffffffffffffffffffffffffff\n      and\n      dup2\n      mstore\n      0x20\n      add\n      swap1\n      dup2\n      mstore\n      0x20\n      add\n      0x00\n      keccak256\n        /* \"contracts/Twitter.sol\":2272:2275  _id */\n      dup4\n        /* \"contracts/Twitter.sol\":2256:2276  tweets[_author][_id] */\n      dup2\n      sload\n      dup2\n      lt\n      tag_108\n      jumpi\n      tag_109\n      tag_65\n      jump\t// in\n    tag_109:\n    tag_108:\n      swap1\n      0x00\n      mstore\n      keccak256(0x00, 0x20)\n      swap1\n      0x05\n      mul\n      add\n        /* \"contracts/Twitter.sol\":2256:2282  tweets[_author][_id].likes */\n      0x04\n      add\n      0x00\n        /* \"contracts/Twitter.sol\":2256:2284  tweets[_author][_id].likes++ */\n      dup2\n      sload\n      dup1\n      swap3\n      swap2\n      swap1\n      tag_111\n      swap1\n      tag_112\n      jump\t// in\n    tag_111:\n      swap2\n      swap1\n      pop\n      sstore\n      pop\n        /* \"contracts/Twitter.sol\":2299:2363  TweetLiked(msg.sender, _author, _id, tweets[_author][_id].likes) */\n      0xe8a76fc0f16d11a00d1e93b689b63d76cf60af914dd3d915375dc41d01a0c3c8\n        /* \"contracts/Twitter.sol\":2310:2320  msg.sender */\n      caller\n        /* \"contracts/Twitter.sol\":2322:2329  _author */\n      dup6\n        /* \"contracts/Twitter.sol\":2331:2334  _id */\n      dup6\n        /* \"contracts/Twitter.sol\":2336:2342  tweets */\n      0x01\n        /* \"contracts/Twitter.sol\":2336:2351  tweets[_author] */\n      0x00\n        /* \"contracts/Twitter.sol\":2343:2350  _author */\n      dup10\n        /* \"contracts/Twitter.sol\":2336:2351  tweets[_author] */\n      0xffffffffffffffffffffffffffffffffffffffff\n      and\n      0xffffffffffffffffffffffffffffffffffffffff\n      and\n      dup2\n      mstore\n      0x20\n      add\n      swap1\n      dup2\n      mstore\n      0x20\n      add\n      0x00\n      keccak256\n        /* \"contracts/Twitter.sol\":2352:2355  _id */\n      dup8\n        /* \"contracts/Twitter.sol\":2336:2356  tweets[_author][_id] */\n      dup2\n      sload\n      dup2\n      lt\n      tag_113\n      jumpi\n      tag_114\n      tag_65\n      jump\t// in\n    tag_114:\n    tag_113:\n      swap1\n      0x00\n      mstore\n      keccak256(0x00, 0x20)\n      swap1\n      0x05\n      mul\n      add\n        /* \"contracts/Twitter.sol\":2336:2362  tweets[_author][_id].likes */\n      0x04\n      add\n      sload\n        /* \"contracts/Twitter.sol\":2299:2363  TweetLiked(msg.sender, _author, _id, tweets[_author][_id].likes) */\n      mload(0x40)\n      tag_116\n      swap5\n      swap4\n      swap3\n      swap2\n      swap1\n      tag_95\n      jump\t// in\n    tag_116:\n      mload(0x40)\n      dup1\n      swap2\n      sub\n      swap1\n      log1\n        /* \"contracts/Twitter.sol\":2163:2370  function likeTweet(address _author, uint256 _id) external tweetExists(_author, _id){... */\n      pop\n      pop\n      pop\n      pop\n      jump\t// out\n        /* \"contracts/Twitter.sol\":1203:1909  function createTweet(string memory _tweet) public {... */\n    tag_37:\n        /* \"contracts/Twitter.sol\":1308:1324  TWEET_MAX_LENGTH */\n      0x00\n      dup1\n      sload\n      swap1\n      0x0100\n      exp\n      swap1\n      div\n      0xffff\n      and\n        /* \"contracts/Twitter.sol\":1284:1324  bytes(_tweet).length <= TWEET_MAX_LENGTH */\n      0xffff\n      and\n        /* \"contracts/Twitter.sol\":1290:1296  _tweet */\n      dup2\n        /* \"contracts/Twitter.sol\":1284:1304  bytes(_tweet).length */\n      mload\n        /* \"contracts/Twitter.sol\":1284:1324  bytes(_tweet).length <= TWEET_MAX_LENGTH */\n      gt\n      iszero\n        /* \"contracts/Twitter.sol\":1469:1503  Strings.toString(TWEET_MAX_LENGTH) */\n      tag_118\n        /* \"contracts/Twitter.sol\":1486:1502  TWEET_MAX_LENGTH */\n      0x00\n      dup1\n      sload\n      swap1\n      0x0100\n      exp\n      swap1\n      div\n      0xffff\n      and\n        /* \"contracts/Twitter.sol\":1469:1503  Strings.toString(TWEET_MAX_LENGTH) */\n      0xffff\n      and\n        /* \"contracts/Twitter.sol\":1469:1485  Strings.toString */\n      tag_119\n        /* \"contracts/Twitter.sol\":1469:1503  Strings.toString(TWEET_MAX_LENGTH) */\n      jump\t// in\n    tag_118:\n        /* \"contracts/Twitter.sol\":1362:1521  abi.encodePacked(... */\n      add(0x20, mload(0x40))\n      tag_120\n      swap2\n      swap1\n      tag_121\n      jump\t// in\n    tag_120:\n      mload(0x40)\n      0x20\n      dup2\n      dup4\n      sub\n      sub\n      dup2\n      mstore\n      swap1\n      0x40\n      mstore\n        /* \"contracts/Twitter.sol\":1263:1545  require(... */\n      swap1\n      tag_122\n      jumpi\n      mload(0x40)\n      0x08c379a000000000000000000000000000000000000000000000000000000000\n      dup2\n      mstore\n      0x04\n      add\n      tag_123\n      swap2\n      swap1\n      tag_124\n      jump\t// in\n    tag_123:\n      mload(0x40)\n      dup1\n      swap2\n      sub\n      swap1\n      revert\n    tag_122:\n      pop\n        /* \"contracts/Twitter.sol\":1556:1577  Tweet memory newTweet */\n      0x00\n        /* \"contracts/Twitter.sol\":1580:1763  Tweet({... */\n      mload(0x40)\n      dup1\n      0xa0\n      add\n      0x40\n      mstore\n      dup1\n        /* \"contracts/Twitter.sol\":1604:1610  tweets */\n      0x01\n        /* \"contracts/Twitter.sol\":1604:1622  tweets[msg.sender] */\n      0x00\n        /* \"contracts/Twitter.sol\":1611:1621  msg.sender */\n      caller\n        /* \"contracts/Twitter.sol\":1604:1622  tweets[msg.sender] */\n      0xffffffffffffffffffffffffffffffffffffffff\n      and\n      0xffffffffffffffffffffffffffffffffffffffff\n      and\n      dup2\n      mstore\n      0x20\n      add\n      swap1\n      dup2\n      mstore\n      0x20\n      add\n      0x00\n      keccak256\n        /* \"contracts/Twitter.sol\":1604:1629  tweets[msg.sender].length */\n      dup1\n      sload\n      swap1\n      pop\n        /* \"contracts/Twitter.sol\":1580:1763  Tweet({... */\n      dup2\n      mstore\n      0x20\n      add\n        /* \"contracts/Twitter.sol\":1651:1661  msg.sender */\n      caller\n        /* \"contracts/Twitter.sol\":1580:1763  Tweet({... */\n      0xffffffffffffffffffffffffffffffffffffffff\n      and\n      dup2\n      mstore\n      0x20\n      add\n        /* \"contracts/Twitter.sol\":1684:1690  _tweet */\n      dup4\n        /* \"contracts/Twitter.sol\":1580:1763  Tweet({... */\n      dup2\n      mstore\n      0x20\n      add\n        /* \"contracts/Twitter.sol\":1715:1730  block.timestamp */\n      timestamp\n        /* \"contracts/Twitter.sol\":1580:1763  Tweet({... */\n      dup2\n      mstore\n      0x20\n      add\n        /* \"contracts/Twitter.sol\":1751:1752  0 */\n      0x00\n        /* \"contracts/Twitter.sol\":1580:1763  Tweet({... */\n      dup2\n      mstore\n      pop\n        /* \"contracts/Twitter.sol\":1556:1763  Tweet memory newTweet = Tweet({... */\n      swap1\n      pop\n        /* \"contracts/Twitter.sol\":1774:1780  tweets */\n      0x01\n        /* \"contracts/Twitter.sol\":1774:1792  tweets[msg.sender] */\n      0x00\n        /* \"contracts/Twitter.sol\":1781:1791  msg.sender */\n      caller\n        /* \"contracts/Twitter.sol\":1774:1792  tweets[msg.sender] */\n      0xffffffffffffffffffffffffffffffffffffffff\n      and\n      0xffffffffffffffffffffffffffffffffffffffff\n      and\n      dup2\n      mstore\n      0x20\n      add\n      swap1\n      dup2\n      mstore\n      0x20\n      add\n      0x00\n      keccak256\n        /* \"contracts/Twitter.sol\":1798:1806  newTweet */\n      dup2\n        /* \"contracts/Twitter.sol\":1774:1807  tweets[msg.sender].push(newTweet) */\n      swap1\n      dup1\n      0x01\n      dup2\n      sload\n      add\n      dup1\n      dup3\n      sstore\n      dup1\n      swap2\n      pop\n      pop\n      0x01\n      swap1\n      sub\n      swap1\n      0x00\n      mstore\n      keccak256(0x00, 0x20)\n      swap1\n      0x05\n      mul\n      add\n      0x00\n      swap1\n      swap2\n      swap1\n      swap2\n      swap1\n      swap2\n      pop\n      0x00\n      dup3\n      add\n      mload\n      dup2\n      0x00\n      add\n      sstore\n      0x20\n      dup3\n      add\n      mload\n      dup2\n      0x01\n      add\n      exp(0x0100, 0x00)\n      dup2\n      sload\n      dup2\n      0xffffffffffffffffffffffffffffffffffffffff\n      mul\n      not\n      and\n      swap1\n      dup4\n      0xffffffffffffffffffffffffffffffffffffffff\n      and\n      mul\n      or\n      swap1\n      sstore\n      pop\n      0x40\n      dup3\n      add\n      mload\n      dup2\n      0x02\n      add\n      swap1\n      dup2\n      tag_126\n      swap2\n      swap1\n      tag_127\n      jump\t// in\n    tag_126:\n      pop\n      0x60\n      dup3\n      add\n      mload\n      dup2\n      0x03\n      add\n      sstore\n      0x80\n      dup3\n      add\n      mload\n      dup2\n      0x04\n      add\n      sstore\n      pop\n      pop\n        /* \"contracts/Twitter.sol\":1822:1902  TweetCreated(newTweet.id, newTweet.author, newTweet.content, newTweet.timestamp) */\n      0x16fd3c13e9d46923e0a8bce11c7b473ec508a72e6c96cd2404b29ce972afc29e\n        /* \"contracts/Twitter.sol\":1835:1843  newTweet */\n      dup2\n        /* \"contracts/Twitter.sol\":1835:1846  newTweet.id */\n      0x00\n      add\n      mload\n        /* \"contracts/Twitter.sol\":1848:1856  newTweet */\n      dup3\n        /* \"contracts/Twitter.sol\":1848:1863  newTweet.author */\n      0x20\n      add\n      mload\n        /* \"contracts/Twitter.sol\":1865:1873  newTweet */\n      dup4\n        /* \"contracts/Twitter.sol\":1865:1881  newTweet.content */\n      0x40\n      add\n      mload\n        /* \"contracts/Twitter.sol\":1883:1891  newTweet */\n      dup5\n        /* \"contracts/Twitter.sol\":1883:1901  newTweet.timestamp */\n      0x60\n      add\n      mload\n        /* \"contracts/Twitter.sol\":1822:1902  TweetCreated(newTweet.id, newTweet.author, newTweet.content, newTweet.timestamp) */\n      mload(0x40)\n      tag_128\n      swap5\n      swap4\n      swap3\n      swap2\n      swap1\n      tag_129\n      jump\t// in\n    tag_128:\n      mload(0x40)\n      dup1\n      swap2\n      sub\n      swap1\n      log1\n        /* \"contracts/Twitter.sol\":1253:1909  {... */\n      pop\n        /* \"contracts/Twitter.sol\":1203:1909  function createTweet(string memory _tweet) public {... */\n      pop\n      jump\t// out\n        /* \"contracts/Twitter.sol\":2044:2157  function getALLTweets(address _owner) public view returns (Tweet[] memory) {... */\n    tag_41:\n        /* \"contracts/Twitter.sol\":2103:2117  Tweet[] memory */\n      0x60\n        /* \"contracts/Twitter.sol\":2136:2142  tweets */\n      0x01\n        /* \"contracts/Twitter.sol\":2136:2150  tweets[_owner] */\n      0x00\n        /* \"contracts/Twitter.sol\":2143:2149  _owner */\n      dup4\n        /* \"contracts/Twitter.sol\":2136:2150  tweets[_owner] */\n      0xffffffffffffffffffffffffffffffffffffffff\n      and\n      0xffffffffffffffffffffffffffffffffffffffff\n      and\n      dup2\n      mstore\n      0x20\n      add\n      swap1\n      dup2\n      mstore\n      0x20\n      add\n      0x00\n      keccak256\n        /* \"contracts/Twitter.sol\":2129:2150  return tweets[_owner] */\n      dup1\n      sload\n      dup1\n      0x20\n      mul\n      0x20\n      add\n      mload(0x40)\n      swap1\n      dup2\n      add\n      0x40\n      mstore\n      dup1\n      swap3\n      swap2\n      swap1\n      dup2\n      dup2\n      mstore\n      0x20\n      add\n      0x00\n      swap1\n    tag_131:\n      dup3\n      dup3\n      lt\n      iszero\n      tag_132\n      jumpi\n      dup4\n      dup3\n      swap1\n      0x00\n      mstore\n      keccak256(0x00, 0x20)\n      swap1\n      0x05\n      mul\n      add\n      mload(0x40)\n      dup1\n      0xa0\n      add\n      0x40\n      mstore\n      swap1\n      dup2\n      0x00\n      dup3\n      add\n      sload\n      dup2\n      mstore\n      0x20\n      add\n      0x01\n      dup3\n      add\n      0x00\n      swap1\n      sload\n      swap1\n      0x0100\n      exp\n      swap1\n      div\n      0xffffffffffffffffffffffffffffffffffffffff\n      and\n      0xffffffffffffffffffffffffffffffffffffffff\n      and\n      0xffffffffffffffffffffffffffffffffffffffff\n      and\n      dup2\n      mstore\n      0x20\n      add\n      0x02\n      dup3\n      add\n      dup1\n      sload\n      tag_134\n      swap1\n      tag_55\n      jump\t// in\n    tag_134:\n      dup1\n      0x1f\n      add\n      0x20\n      dup1\n      swap2\n      div\n      mul\n      0x20\n      add\n      mload(0x40)\n      swap1\n      dup2\n      add\n      0x40\n      mstore\n      dup1\n      swap3\n      swap2\n      swap1\n      dup2\n      dup2\n      mstore\n      0x20\n      add\n      dup3\n      dup1\n      sload\n      tag_135\n      swap1\n      tag_55\n      jump\t// in\n    tag_135:\n      dup1\n      iszero\n      tag_136\n      jumpi\n      dup1\n      0x1f\n      lt\n      tag_137\n      jumpi\n      0x0100\n      dup1\n      dup4\n      sload\n      div\n      mul\n      dup4\n      mstore\n      swap2\n      0x20\n      add\n      swap2\n      jump(tag_136)\n    tag_137:\n      dup3\n      add\n      swap2\n      swap1\n      0x00\n      mstore\n      keccak256(0x00, 0x20)\n      swap1\n    tag_138:\n      dup2\n      sload\n      dup2\n      mstore\n      swap1\n      0x01\n      add\n      swap1\n      0x20\n      add\n      dup1\n      dup4\n      gt\n      tag_138\n      jumpi\n      dup3\n      swap1\n      sub\n      0x1f\n      and\n      dup3\n      add\n      swap2\n    tag_136:\n      pop\n      pop\n      pop\n      pop\n      pop\n      dup2\n      mstore\n      0x20\n      add\n      0x03\n      dup3\n      add\n      sload\n      dup2\n      mstore\n      0x20\n      add\n      0x04\n      dup3\n      add\n      sload\n      dup2\n      mstore\n      pop\n      pop\n      dup2\n      mstore\n      0x20\n      add\n      swap1\n      0x01\n      add\n      swap1\n      jump(tag_131)\n    tag_132:\n      pop\n      pop\n      pop\n      pop\n      swap1\n      pop\n        /* \"contracts/Twitter.sol\":2044:2157  function getALLTweets(address _owner) public view returns (Tweet[] memory) {... */\n      swap2\n      swap1\n      pop\n      jump\t// out\n        /* \"contracts/Twitter.sol\":432:452  address public owner */\n    tag_45:\n      0x02\n      0x00\n      swap1\n      sload\n      swap1\n      0x0100\n      exp\n      swap1\n      div\n      0xffffffffffffffffffffffffffffffffffffffff\n      and\n      dup2\n      jump\t// out\n        /* \"contracts/Twitter.sol\":342:378  uint16 public TWEET_MAX_LENGTH = 280 */\n    tag_49:\n      0x00\n      dup1\n      sload\n      swap1\n      0x0100\n      exp\n      swap1\n      div\n      0xffff\n      and\n      dup2\n      jump\t// out\n        /* \"https://github.com/OpenZeppelin/openzeppelin-contracts/blob/master/contracts/utils/Strings.sol\":987:1619  function toString(uint256 value) internal pure returns (string memory) {... */\n    tag_119:\n        /* \"https://github.com/OpenZeppelin/openzeppelin-contracts/blob/master/contracts/utils/Strings.sol\":1043:1056  string memory */\n      0x60\n        /* \"https://github.com/OpenZeppelin/openzeppelin-contracts/blob/master/contracts/utils/Strings.sol\":1092:1106  uint256 length */\n      0x00\n        /* \"https://github.com/OpenZeppelin/openzeppelin-contracts/blob/master/contracts/utils/Strings.sol\":1129:1130  1 */\n      0x01\n        /* \"https://github.com/OpenZeppelin/openzeppelin-contracts/blob/master/contracts/utils/Strings.sol\":1109:1126  Math.log10(value) */\n      tag_140\n        /* \"https://github.com/OpenZeppelin/openzeppelin-contracts/blob/master/contracts/utils/Strings.sol\":1120:1125  value */\n      dup5\n        /* \"https://github.com/OpenZeppelin/openzeppelin-contracts/blob/master/contracts/utils/Strings.sol\":1109:1119  Math.log10 */\n      tag_141\n        /* \"https://github.com/OpenZeppelin/openzeppelin-contracts/blob/master/contracts/utils/Strings.sol\":1109:1126  Math.log10(value) */\n      jump\t// in\n    tag_140:\n        /* \"https://github.com/OpenZeppelin/openzeppelin-contracts/blob/master/contracts/utils/Strings.sol\":1109:1130  Math.log10(value) + 1 */\n      add\n        /* \"https://github.com/OpenZeppelin/openzeppelin-contracts/blob/master/contracts/utils/Strings.sol\":1092:1130  uint256 length = Math.log10(value) + 1 */\n      swap1\n      pop\n        /* \"https://github.com/OpenZeppelin/openzeppelin-contracts/blob/master/contracts/utils/Strings.sol\":1144:1164  string memory buffer */\n      0x00\n        /* \"https://github.com/OpenZeppelin/openzeppelin-contracts/blob/master/contracts/utils/Strings.sol\":1178:1184  length */\n      dup2\n        /* \"https://github.com/OpenZeppelin/openzeppelin-contracts/blob/master/contracts/utils/Strings.sol\":1167:1185  new string(length) */\n      0xffffffffffffffff\n      dup2\n      gt\n      iszero\n      tag_142\n      jumpi\n      tag_143\n      tag_144\n      jump\t// in\n    tag_143:\n    tag_142:\n      mload(0x40)\n      swap1\n      dup1\n      dup3\n      mstore\n      dup1\n      0x1f\n      add\n      not(0x1f)\n      and\n      0x20\n      add\n      dup3\n      add\n      0x40\n      mstore\n      dup1\n      iszero\n      tag_145\n      jumpi\n      dup2\n      0x20\n      add\n      0x01\n      dup3\n      mul\n      dup1\n      calldatasize\n      dup4\n      calldatacopy\n      dup1\n      dup3\n      add\n      swap2\n      pop\n      pop\n      swap1\n      pop\n    tag_145:\n      pop\n        /* \"https://github.com/OpenZeppelin/openzeppelin-contracts/blob/master/contracts/utils/Strings.sol\":1144:1185  string memory buffer = new string(length) */\n      swap1\n      pop\n        /* \"https://github.com/OpenZeppelin/openzeppelin-contracts/blob/master/contracts/utils/Strings.sol\":1199:1210  uint256 ptr */\n      0x00\n        /* \"https://github.com/OpenZeppelin/openzeppelin-contracts/blob/master/contracts/utils/Strings.sol\":1294:1300  length */\n      dup3\n        /* \"https://github.com/OpenZeppelin/openzeppelin-contracts/blob/master/contracts/utils/Strings.sol\":1290:1292  32 */\n      0x20\n        /* \"https://github.com/OpenZeppelin/openzeppelin-contracts/blob/master/contracts/utils/Strings.sol\":1286:1301  add(32, length) */\n      add\n        /* \"https://github.com/OpenZeppelin/openzeppelin-contracts/blob/master/contracts/utils/Strings.sol\":1278:1284  buffer */\n      dup3\n        /* \"https://github.com/OpenZeppelin/openzeppelin-contracts/blob/master/contracts/utils/Strings.sol\":1274:1302  add(buffer, add(32, length)) */\n      add\n        /* \"https://github.com/OpenZeppelin/openzeppelin-contracts/blob/master/contracts/utils/Strings.sol\":1267:1302  ptr := add(buffer, add(32, length)) */\n      swap1\n      pop\n        /* \"https://github.com/OpenZeppelin/openzeppelin-contracts/blob/master/contracts/utils/Strings.sol\":1329:1576  while (true) {... */\n    tag_146:\n        /* \"https://github.com/OpenZeppelin/openzeppelin-contracts/blob/master/contracts/utils/Strings.sol\":1336:1340  true */\n      0x01\n        /* \"https://github.com/OpenZeppelin/openzeppelin-contracts/blob/master/contracts/utils/Strings.sol\":1329:1576  while (true) {... */\n      iszero\n      tag_147\n      jumpi\n        /* \"https://github.com/OpenZeppelin/openzeppelin-contracts/blob/master/contracts/utils/Strings.sol\":1360:1365  ptr-- */\n      dup1\n      dup1\n      0x01\n      swap1\n      sub\n      swap2\n      pop\n      pop\n        /* \"https://github.com/OpenZeppelin/openzeppelin-contracts/blob/master/contracts/utils/Strings.sol\":1464:1474  HEX_DIGITS */\n      0x3031323334353637383961626364656600000000000000000000000000000000\n        /* \"https://github.com/OpenZeppelin/openzeppelin-contracts/blob/master/contracts/utils/Strings.sol\":1459:1461  10 */\n      0x0a\n        /* \"https://github.com/OpenZeppelin/openzeppelin-contracts/blob/master/contracts/utils/Strings.sol\":1452:1457  value */\n      dup7\n        /* \"https://github.com/OpenZeppelin/openzeppelin-contracts/blob/master/contracts/utils/Strings.sol\":1448:1462  mod(value, 10) */\n      mod\n        /* \"https://github.com/OpenZeppelin/openzeppelin-contracts/blob/master/contracts/utils/Strings.sol\":1443:1475  byte(mod(value, 10), HEX_DIGITS) */\n      byte\n        /* \"https://github.com/OpenZeppelin/openzeppelin-contracts/blob/master/contracts/utils/Strings.sol\":1438:1441  ptr */\n      dup2\n        /* \"https://github.com/OpenZeppelin/openzeppelin-contracts/blob/master/contracts/utils/Strings.sol\":1430:1476  mstore8(ptr, byte(mod(value, 10), HEX_DIGITS)) */\n      mstore8\n        /* \"https://github.com/OpenZeppelin/openzeppelin-contracts/blob/master/contracts/utils/Strings.sol\":1520:1522  10 */\n      0x0a\n        /* \"https://github.com/OpenZeppelin/openzeppelin-contracts/blob/master/contracts/utils/Strings.sol\":1511:1522  value /= 10 */\n      dup6\n      dup2\n      tag_148\n      jumpi\n      tag_149\n      tag_150\n      jump\t// in\n    tag_149:\n    tag_148:\n      div\n      swap5\n      pop\n        /* \"https://github.com/OpenZeppelin/openzeppelin-contracts/blob/master/contracts/utils/Strings.sol\":1553:1554  0 */\n      0x00\n        /* \"https://github.com/OpenZeppelin/openzeppelin-contracts/blob/master/contracts/utils/Strings.sol\":1544:1549  value */\n      dup6\n        /* \"https://github.com/OpenZeppelin/openzeppelin-contracts/blob/master/contracts/utils/Strings.sol\":1544:1554  value == 0 */\n      sub\n        /* \"https://github.com/OpenZeppelin/openzeppelin-contracts/blob/master/contracts/utils/Strings.sol\":1329:1576  while (true) {... */\n      tag_146\n        /* \"https://github.com/OpenZeppelin/openzeppelin-contracts/blob/master/contracts/utils/Strings.sol\":1540:1561  if (value == 0) break */\n      jumpi\n        /* \"https://github.com/OpenZeppelin/openzeppelin-contracts/blob/master/contracts/utils/Strings.sol\":1329:1576  while (true) {... */\n    tag_147:\n        /* \"https://github.com/OpenZeppelin/openzeppelin-contracts/blob/master/contracts/utils/Strings.sol\":1596:1602  buffer */\n      dup2\n        /* \"https://github.com/OpenZeppelin/openzeppelin-contracts/blob/master/contracts/utils/Strings.sol\":1589:1602  return buffer */\n      swap4\n      pop\n      pop\n      pop\n      pop\n        /* \"https://github.com/OpenZeppelin/openzeppelin-contracts/blob/master/contracts/utils/Strings.sol\":987:1619  function toString(uint256 value) internal pure returns (string memory) {... */\n      swap2\n      swap1\n      pop\n      jump\t// out\n        /* \"https://github.com/OpenZeppelin/openzeppelin-contracts/blob/master/contracts/utils/math/Math.sol\":26667:27583  function log10(uint256 value) internal pure returns (uint256) {... */\n    tag_141:\n        /* \"https://github.com/OpenZeppelin/openzeppelin-contracts/blob/master/contracts/utils/math/Math.sol\":26720:26727  uint256 */\n      0x00\n        /* \"https://github.com/OpenZeppelin/openzeppelin-contracts/blob/master/contracts/utils/math/Math.sol\":26739:26753  uint256 result */\n      dup1\n        /* \"https://github.com/OpenZeppelin/openzeppelin-contracts/blob/master/contracts/utils/math/Math.sol\":26756:26757  0 */\n      0x00\n        /* \"https://github.com/OpenZeppelin/openzeppelin-contracts/blob/master/contracts/utils/math/Math.sol\":26739:26757  uint256 result = 0 */\n      swap1\n      pop\n        /* \"https://github.com/OpenZeppelin/openzeppelin-contracts/blob/master/contracts/utils/math/Math.sol\":26804:26812  10 ** 64 */\n      0x184f03e93ff9f4daa797ed6e38ed64bf6a1f010000000000000000\n        /* \"https://github.com/OpenZeppelin/openzeppelin-contracts/blob/master/contracts/utils/math/Math.sol\":26795:26800  value */\n      dup4\n        /* \"https://github.com/OpenZeppelin/openzeppelin-contracts/blob/master/contracts/utils/math/Math.sol\":26795:26812  value >= 10 ** 64 */\n      lt\n        /* \"https://github.com/OpenZeppelin/openzeppelin-contracts/blob/master/contracts/utils/math/Math.sol\":26791:26894  if (value >= 10 ** 64) {... */\n      tag_153\n      jumpi\n        /* \"https://github.com/OpenZeppelin/openzeppelin-contracts/blob/master/contracts/utils/math/Math.sol\":26841:26849  10 ** 64 */\n      0x184f03e93ff9f4daa797ed6e38ed64bf6a1f010000000000000000\n        /* \"https://github.com/OpenZeppelin/openzeppelin-contracts/blob/master/contracts/utils/math/Math.sol\":26832:26849  value /= 10 ** 64 */\n      dup4\n      dup2\n      tag_154\n      jumpi\n      tag_155\n      tag_150\n      jump\t// in\n    tag_155:\n    tag_154:\n      div\n      swap3\n      pop\n        /* \"https://github.com/OpenZeppelin/openzeppelin-contracts/blob/master/contracts/utils/math/Math.sol\":26877:26879  64 */\n      0x40\n        /* \"https://github.com/OpenZeppelin/openzeppelin-contracts/blob/master/contracts/utils/math/Math.sol\":26867:26879  result += 64 */\n      dup2\n      add\n      swap1\n      pop\n        /* \"https://github.com/OpenZeppelin/openzeppelin-contracts/blob/master/contracts/utils/math/Math.sol\":26791:26894  if (value >= 10 ** 64) {... */\n    tag_153:\n        /* \"https://github.com/OpenZeppelin/openzeppelin-contracts/blob/master/contracts/utils/math/Math.sol\":26920:26928  10 ** 32 */\n      0x04ee2d6d415b85acef8100000000\n        /* \"https://github.com/OpenZeppelin/openzeppelin-contracts/blob/master/contracts/utils/math/Math.sol\":26911:26916  value */\n      dup4\n        /* \"https://github.com/OpenZeppelin/openzeppelin-contracts/blob/master/contracts/utils/math/Math.sol\":26911:26928  value >= 10 ** 32 */\n      lt\n        /* \"https://github.com/OpenZeppelin/openzeppelin-contracts/blob/master/contracts/utils/math/Math.sol\":26907:27010  if (value >= 10 ** 32) {... */\n      tag_156\n      jumpi\n        /* \"https://github.com/OpenZeppelin/openzeppelin-contracts/blob/master/contracts/utils/math/Math.sol\":26957:26965  10 ** 32 */\n      0x04ee2d6d415b85acef8100000000\n        /* \"https://github.com/OpenZeppelin/openzeppelin-contracts/blob/master/contracts/utils/math/Math.sol\":26948:26965  value /= 10 ** 32 */\n      dup4\n      dup2\n      tag_157\n      jumpi\n      tag_158\n      tag_150\n      jump\t// in\n    tag_158:\n    tag_157:\n      div\n      swap3\n      pop\n        /* \"https://github.com/OpenZeppelin/openzeppelin-contracts/blob/master/contracts/utils/math/Math.sol\":26993:26995  32 */\n      0x20\n        /* \"https://github.com/OpenZeppelin/openzeppelin-contracts/blob/master/contracts/utils/math/Math.sol\":26983:26995  result += 32 */\n      dup2\n      add\n      swap1\n      pop\n        /* \"https://github.com/OpenZeppelin/openzeppelin-contracts/blob/master/contracts/utils/math/Math.sol\":26907:27010  if (value >= 10 ** 32) {... */\n    tag_156:\n        /* \"https://github.com/OpenZeppelin/openzeppelin-contracts/blob/master/contracts/utils/math/Math.sol\":27036:27044  10 ** 16 */\n      0x2386f26fc10000\n        /* \"https://github.com/OpenZeppelin/openzeppelin-contracts/blob/master/contracts/utils/math/Math.sol\":27027:27032  value */\n      dup4\n        /* \"https://github.com/OpenZeppelin/openzeppelin-contracts/blob/master/contracts/utils/math/Math.sol\":27027:27044  value >= 10 ** 16 */\n      lt\n        /* \"https://github.com/OpenZeppelin/openzeppelin-contracts/blob/master/contracts/utils/math/Math.sol\":27023:27126  if (value >= 10 ** 16) {... */\n      tag_159\n      jumpi\n        /* \"https://github.com/OpenZeppelin/openzeppelin-contracts/blob/master/contracts/utils/math/Math.sol\":27073:27081  10 ** 16 */\n      0x2386f26fc10000\n        /* \"https://github.com/OpenZeppelin/openzeppelin-contracts/blob/master/contracts/utils/math/Math.sol\":27064:27081  value /= 10 ** 16 */\n      dup4\n      dup2\n      tag_160\n      jumpi\n      tag_161\n      tag_150\n      jump\t// in\n    tag_161:\n    tag_160:\n      div\n      swap3\n      pop\n        /* \"https://github.com/OpenZeppelin/openzeppelin-contracts/blob/master/contracts/utils/math/Math.sol\":27109:27111  16 */\n      0x10\n        /* \"https://github.com/OpenZeppelin/openzeppelin-contracts/blob/master/contracts/utils/math/Math.sol\":27099:27111  result += 16 */\n      dup2\n      add\n      swap1\n      pop\n        /* \"https://github.com/OpenZeppelin/openzeppelin-contracts/blob/master/contracts/utils/math/Math.sol\":27023:27126  if (value >= 10 ** 16) {... */\n    tag_159:\n        /* \"https://github.com/OpenZeppelin/openzeppelin-contracts/blob/master/contracts/utils/math/Math.sol\":27152:27159  10 ** 8 */\n      0x05f5e100\n        /* \"https://github.com/OpenZeppelin/openzeppelin-contracts/blob/master/contracts/utils/math/Math.sol\":27143:27148  value */\n      dup4\n        /* \"https://github.com/OpenZeppelin/openzeppelin-contracts/blob/master/contracts/utils/math/Math.sol\":27143:27159  value >= 10 ** 8 */\n      lt\n        /* \"https://github.com/OpenZeppelin/openzeppelin-contracts/blob/master/contracts/utils/math/Math.sol\":27139:27239  if (value >= 10 ** 8) {... */\n      tag_162\n      jumpi\n        /* \"https://github.com/OpenZeppelin/openzeppelin-contracts/blob/master/contracts/utils/math/Math.sol\":27188:27195  10 ** 8 */\n      0x05f5e100\n        /* \"https://github.com/OpenZeppelin/openzeppelin-contracts/blob/master/contracts/utils/math/Math.sol\":27179:27195  value /= 10 ** 8 */\n      dup4\n      dup2\n      tag_163\n      jumpi\n      tag_164\n      tag_150\n      jump\t// in\n    tag_164:\n    tag_163:\n      div\n      swap3\n      pop\n        /* \"https://github.com/OpenZeppelin/openzeppelin-contracts/blob/master/contracts/utils/math/Math.sol\":27223:27224  8 */\n      0x08\n        /* \"https://github.com/OpenZeppelin/openzeppelin-contracts/blob/master/contracts/utils/math/Math.sol\":27213:27224  result += 8 */\n      dup2\n      add\n      swap1\n      pop\n        /* \"https://github.com/OpenZeppelin/openzeppelin-contracts/blob/master/contracts/utils/math/Math.sol\":27139:27239  if (value >= 10 ** 8) {... */\n    tag_162:\n        /* \"https://github.com/OpenZeppelin/openzeppelin-contracts/blob/master/contracts/utils/math/Math.sol\":27265:27272  10 ** 4 */\n      0x2710\n        /* \"https://github.com/OpenZeppelin/openzeppelin-contracts/blob/master/contracts/utils/math/Math.sol\":27256:27261  value */\n      dup4\n        /* \"https://github.com/OpenZeppelin/openzeppelin-contracts/blob/master/contracts/utils/math/Math.sol\":27256:27272  value >= 10 ** 4 */\n      lt\n        /* \"https://github.com/OpenZeppelin/openzeppelin-contracts/blob/master/contracts/utils/math/Math.sol\":27252:27352  if (value >= 10 ** 4) {... */\n      tag_165\n      jumpi\n        /* \"https://github.com/OpenZeppelin/openzeppelin-contracts/blob/master/contracts/utils/math/Math.sol\":27301:27308  10 ** 4 */\n      0x2710\n        /* \"https://github.com/OpenZeppelin/openzeppelin-contracts/blob/master/contracts/utils/math/Math.sol\":27292:27308  value /= 10 ** 4 */\n      dup4\n      dup2\n      tag_166\n      jumpi\n      tag_167\n      tag_150\n      jump\t// in\n    tag_167:\n    tag_166:\n      div\n      swap3\n      pop\n        /* \"https://github.com/OpenZeppelin/openzeppelin-contracts/blob/master/contracts/utils/math/Math.sol\":27336:27337  4 */\n      0x04\n        /* \"https://github.com/OpenZeppelin/openzeppelin-contracts/blob/master/contracts/utils/math/Math.sol\":27326:27337  result += 4 */\n      dup2\n      add\n      swap1\n      pop\n        /* \"https://github.com/OpenZeppelin/openzeppelin-contracts/blob/master/contracts/utils/math/Math.sol\":27252:27352  if (value >= 10 ** 4) {... */\n    tag_165:\n        /* \"https://github.com/OpenZeppelin/openzeppelin-contracts/blob/master/contracts/utils/math/Math.sol\":27378:27385  10 ** 2 */\n      0x64\n        /* \"https://github.com/OpenZeppelin/openzeppelin-contracts/blob/master/contracts/utils/math/Math.sol\":27369:27374  value */\n      dup4\n        /* \"https://github.com/OpenZeppelin/openzeppelin-contracts/blob/master/contracts/utils/math/Math.sol\":27369:27385  value >= 10 ** 2 */\n      lt\n        /* \"https://github.com/OpenZeppelin/openzeppelin-contracts/blob/master/contracts/utils/math/Math.sol\":27365:27465  if (value >= 10 ** 2) {... */\n      tag_168\n      jumpi\n        /* \"https://github.com/OpenZeppelin/openzeppelin-contracts/blob/master/contracts/utils/math/Math.sol\":27414:27421  10 ** 2 */\n      0x64\n        /* \"https://github.com/OpenZeppelin/openzeppelin-contracts/blob/master/contracts/utils/math/Math.sol\":27405:27421  value /= 10 ** 2 */\n      dup4\n      dup2\n      tag_169\n      jumpi\n      tag_170\n      tag_150\n      jump\t// in\n    tag_170:\n    tag_169:\n      div\n      swap3\n      pop\n        /* \"https://github.com/OpenZeppelin/openzeppelin-contracts/blob/master/contracts/utils/math/Math.sol\":27449:27450  2 */\n      0x02\n        /* \"https://github.com/OpenZeppelin/openzeppelin-contracts/blob/master/contracts/utils/math/Math.sol\":27439:27450  result += 2 */\n      dup2\n      add\n      swap1\n      pop\n        /* \"https://github.com/OpenZeppelin/openzeppelin-contracts/blob/master/contracts/utils/math/Math.sol\":27365:27465  if (value >= 10 ** 2) {... */\n    tag_168:\n        /* \"https://github.com/OpenZeppelin/openzeppelin-contracts/blob/master/contracts/utils/math/Math.sol\":27491:27498  10 ** 1 */\n      0x0a\n        /* \"https://github.com/OpenZeppelin/openzeppelin-contracts/blob/master/contracts/utils/math/Math.sol\":27482:27487  value */\n      dup4\n        /* \"https://github.com/OpenZeppelin/openzeppelin-contracts/blob/master/contracts/utils/math/Math.sol\":27482:27498  value >= 10 ** 1 */\n      lt\n        /* \"https://github.com/OpenZeppelin/openzeppelin-contracts/blob/master/contracts/utils/math/Math.sol\":27478:27544  if (value >= 10 ** 1) {... */\n      tag_171\n      jumpi\n        /* \"https://github.com/OpenZeppelin/openzeppelin-contracts/blob/master/contracts/utils/math/Math.sol\":27528:27529  1 */\n      0x01\n        /* \"https://github.com/OpenZeppelin/openzeppelin-contracts/blob/master/contracts/utils/math/Math.sol\":27518:27529  result += 1 */\n      dup2\n      add\n      swap1\n      pop\n        /* \"https://github.com/OpenZeppelin/openzeppelin-contracts/blob/master/contracts/utils/math/Math.sol\":27478:27544  if (value >= 10 ** 1) {... */\n    tag_171:\n        /* \"https://github.com/OpenZeppelin/openzeppelin-contracts/blob/master/contracts/utils/math/Math.sol\":27570:27576  result */\n      dup1\n        /* \"https://github.com/OpenZeppelin/openzeppelin-contracts/blob/master/contracts/utils/math/Math.sol\":27563:27576  return result */\n      swap2\n      pop\n      pop\n        /* \"https://github.com/OpenZeppelin/openzeppelin-contracts/blob/master/contracts/utils/math/Math.sol\":26667:27583  function log10(uint256 value) internal pure returns (uint256) {... */\n      swap2\n      swap1\n      pop\n      jump\t// out\n    tag_61:\n      mload(0x40)\n      dup1\n      0xa0\n      add\n      0x40\n      mstore\n      dup1\n      0x00\n      dup2\n      mstore\n      0x20\n      add\n      and(0xffffffffffffffffffffffffffffffffffffffff, 0x00)\n      dup2\n      mstore\n      0x20\n      add\n      0x60\n      dup2\n      mstore\n      0x20\n      add\n      0x00\n      dup2\n      mstore\n      0x20\n      add\n      0x00\n      dup2\n      mstore\n      pop\n      swap1\n      jump\t// out\n        /* \"#utility.yul\":7:82   */\n    tag_172:\n        /* \"#utility.yul\":40:46   */\n      0x00\n        /* \"#utility.yul\":73:75   */\n      0x40\n        /* \"#utility.yul\":67:76   */\n      mload\n        /* \"#utility.yul\":57:76   */\n      swap1\n      pop\n        /* \"#utility.yul\":7:82   */\n      swap1\n      jump\t// out\n        /* \"#utility.yul\":88:205   */\n    tag_173:\n        /* \"#utility.yul\":197:198   */\n      0x00\n        /* \"#utility.yul\":194:195   */\n      dup1\n        /* \"#utility.yul\":187:199   */\n      revert\n        /* \"#utility.yul\":211:328   */\n    tag_174:\n        /* \"#utility.yul\":320:321   */\n      0x00\n        /* \"#utility.yul\":317:318   */\n      dup1\n        /* \"#utility.yul\":310:322   */\n      revert\n        /* \"#utility.yul\":334:460   */\n    tag_175:\n        /* \"#utility.yul\":371:378   */\n      0x00\n        /* \"#utility.yul\":411:453   */\n      0xffffffffffffffffffffffffffffffffffffffff\n        /* \"#utility.yul\":404:409   */\n      dup3\n        /* \"#utility.yul\":400:454   */\n      and\n        /* \"#utility.yul\":389:454   */\n      swap1\n      pop\n        /* \"#utility.yul\":334:460   */\n      swap2\n      swap1\n      pop\n      jump\t// out\n        /* \"#utility.yul\":466:562   */\n    tag_176:\n        /* \"#utility.yul\":503:510   */\n      0x00\n        /* \"#utility.yul\":532:556   */\n      tag_246\n        /* \"#utility.yul\":550:555   */\n      dup3\n        /* \"#utility.yul\":532:556   */\n      tag_175\n      jump\t// in\n    tag_246:\n        /* \"#utility.yul\":521:556   */\n      swap1\n      pop\n        /* \"#utility.yul\":466:562   */\n      swap2\n      swap1\n      pop\n      jump\t// out\n        /* \"#utility.yul\":568:690   */\n    tag_177:\n        /* \"#utility.yul\":641:665   */\n      tag_248\n        /* \"#utility.yul\":659:664   */\n      dup2\n        /* \"#utility.yul\":641:665   */\n      tag_176\n      jump\t// in\n    tag_248:\n        /* \"#utility.yul\":634:639   */\n      dup2\n        /* \"#utility.yul\":631:666   */\n      eq\n        /* \"#utility.yul\":621:684   */\n      tag_249\n      jumpi\n        /* \"#utility.yul\":680:681   */\n      0x00\n        /* \"#utility.yul\":677:678   */\n      dup1\n        /* \"#utility.yul\":670:682   */\n      revert\n        /* \"#utility.yul\":621:684   */\n    tag_249:\n        /* \"#utility.yul\":568:690   */\n      pop\n      jump\t// out\n        /* \"#utility.yul\":696:835   */\n    tag_178:\n        /* \"#utility.yul\":742:747   */\n      0x00\n        /* \"#utility.yul\":780:786   */\n      dup2\n        /* \"#utility.yul\":767:787   */\n      calldataload\n        /* \"#utility.yul\":758:787   */\n      swap1\n      pop\n        /* \"#utility.yul\":796:829   */\n      tag_251\n        /* \"#utility.yul\":823:828   */\n      dup2\n        /* \"#utility.yul\":796:829   */\n      tag_177\n      jump\t// in\n    tag_251:\n        /* \"#utility.yul\":696:835   */\n      swap3\n      swap2\n      pop\n      pop\n      jump\t// out\n        /* \"#utility.yul\":841:918   */\n    tag_179:\n        /* \"#utility.yul\":878:885   */\n      0x00\n        /* \"#utility.yul\":907:912   */\n      dup2\n        /* \"#utility.yul\":896:912   */\n      swap1\n      pop\n        /* \"#utility.yul\":841:918   */\n      swap2\n      swap1\n      pop\n      jump\t// out\n        /* \"#utility.yul\":924:1046   */\n    tag_180:\n        /* \"#utility.yul\":997:1021   */\n      tag_254\n        /* \"#utility.yul\":1015:1020   */\n      dup2\n        /* \"#utility.yul\":997:1021   */\n      tag_179\n      jump\t// in\n    tag_254:\n        /* \"#utility.yul\":990:995   */\n      dup2\n        /* \"#utility.yul\":987:1022   */\n      eq\n        /* \"#utility.yul\":977:1040   */\n      tag_255\n      jumpi\n        /* \"#utility.yul\":1036:1037   */\n      0x00\n        /* \"#utility.yul\":1033:1034   */\n      dup1\n        /* \"#utility.yul\":1026:1038   */\n      revert\n        /* \"#utility.yul\":977:1040   */\n    tag_255:\n        /* \"#utility.yul\":924:1046   */\n      pop\n      jump\t// out\n        /* \"#utility.yul\":1052:1191   */\n    tag_181:\n        /* \"#utility.yul\":1098:1103   */\n      0x00\n        /* \"#utility.yul\":1136:1142   */\n      dup2\n        /* \"#utility.yul\":1123:1143   */\n      calldataload\n        /* \"#utility.yul\":1114:1143   */\n      swap1\n      pop\n        /* \"#utility.yul\":1152:1185   */\n      tag_257\n        /* \"#utility.yul\":1179:1184   */\n      dup2\n        /* \"#utility.yul\":1152:1185   */\n      tag_180\n      jump\t// in\n    tag_257:\n        /* \"#utility.yul\":1052:1191   */\n      swap3\n      swap2\n      pop\n      pop\n      jump\t// out\n        /* \"#utility.yul\":1197:1671   */\n    tag_15:\n        /* \"#utility.yul\":1265:1271   */\n      0x00\n        /* \"#utility.yul\":1273:1279   */\n      dup1\n        /* \"#utility.yul\":1322:1324   */\n      0x40\n        /* \"#utility.yul\":1310:1319   */\n      dup4\n        /* \"#utility.yul\":1301:1308   */\n      dup6\n        /* \"#utility.yul\":1297:1320   */\n      sub\n        /* \"#utility.yul\":1293:1325   */\n      slt\n        /* \"#utility.yul\":1290:1409   */\n      iszero\n      tag_259\n      jumpi\n        /* \"#utility.yul\":1328:1407   */\n      tag_260\n      tag_173\n      jump\t// in\n    tag_260:\n        /* \"#utility.yul\":1290:1409   */\n    tag_259:\n        /* \"#utility.yul\":1448:1449   */\n      0x00\n        /* \"#utility.yul\":1473:1526   */\n      tag_261\n        /* \"#utility.yul\":1518:1525   */\n      dup6\n        /* \"#utility.yul\":1509:1515   */\n      dup3\n        /* \"#utility.yul\":1498:1507   */\n      dup7\n        /* \"#utility.yul\":1494:1516   */\n      add\n        /* \"#utility.yul\":1473:1526   */\n      tag_178\n      jump\t// in\n    tag_261:\n        /* \"#utility.yul\":1463:1526   */\n      swap3\n      pop\n        /* \"#utility.yul\":1419:1536   */\n      pop\n        /* \"#utility.yul\":1575:1577   */\n      0x20\n        /* \"#utility.yul\":1601:1654   */\n      tag_262\n        /* \"#utility.yul\":1646:1653   */\n      dup6\n        /* \"#utility.yul\":1637:1643   */\n      dup3\n        /* \"#utility.yul\":1626:1635   */\n      dup7\n        /* \"#utility.yul\":1622:1644   */\n      add\n        /* \"#utility.yul\":1601:1654   */\n      tag_181\n      jump\t// in\n    tag_262:\n        /* \"#utility.yul\":1591:1654   */\n      swap2\n      pop\n        /* \"#utility.yul\":1546:1664   */\n      pop\n        /* \"#utility.yul\":1197:1671   */\n      swap3\n      pop\n      swap3\n      swap1\n      pop\n      jump\t// out\n        /* \"#utility.yul\":1677:1795   */\n    tag_182:\n        /* \"#utility.yul\":1764:1788   */\n      tag_264\n        /* \"#utility.yul\":1782:1787   */\n      dup2\n        /* \"#utility.yul\":1764:1788   */\n      tag_179\n      jump\t// in\n    tag_264:\n        /* \"#utility.yul\":1759:1762   */\n      dup3\n        /* \"#utility.yul\":1752:1789   */\n      mstore\n        /* \"#utility.yul\":1677:1795   */\n      pop\n      pop\n      jump\t// out\n        /* \"#utility.yul\":1801:1919   */\n    tag_183:\n        /* \"#utility.yul\":1888:1912   */\n      tag_266\n        /* \"#utility.yul\":1906:1911   */\n      dup2\n        /* \"#utility.yul\":1888:1912   */\n      tag_176\n      jump\t// in\n    tag_266:\n        /* \"#utility.yul\":1883:1886   */\n      dup3\n        /* \"#utility.yul\":1876:1913   */\n      mstore\n        /* \"#utility.yul\":1801:1919   */\n      pop\n      pop\n      jump\t// out\n        /* \"#utility.yul\":1925:2024   */\n    tag_184:\n        /* \"#utility.yul\":1977:1983   */\n      0x00\n        /* \"#utility.yul\":2011:2016   */\n      dup2\n        /* \"#utility.yul\":2005:2017   */\n      mload\n        /* \"#utility.yul\":1995:2017   */\n      swap1\n      pop\n        /* \"#utility.yul\":1925:2024   */\n      swap2\n      swap1\n      pop\n      jump\t// out\n        /* \"#utility.yul\":2030:2199   */\n    tag_185:\n        /* \"#utility.yul\":2114:2125   */\n      0x00\n        /* \"#utility.yul\":2148:2154   */\n      dup3\n        /* \"#utility.yul\":2143:2146   */\n      dup3\n        /* \"#utility.yul\":2136:2155   */\n      mstore\n        /* \"#utility.yul\":2188:2192   */\n      0x20\n        /* \"#utility.yul\":2183:2186   */\n      dup3\n        /* \"#utility.yul\":2179:2193   */\n      add\n        /* \"#utility.yul\":2164:2193   */\n      swap1\n      pop\n        /* \"#utility.yul\":2030:2199   */\n      swap3\n      swap2\n      pop\n      pop\n      jump\t// out\n        /* \"#utility.yul\":2205:2344   */\n    tag_186:\n        /* \"#utility.yul\":2294:2300   */\n      dup3\n        /* \"#utility.yul\":2289:2292   */\n      dup2\n        /* \"#utility.yul\":2284:2287   */\n      dup4\n        /* \"#utility.yul\":2278:2301   */\n      mcopy\n        /* \"#utility.yul\":2335:2336   */\n      0x00\n        /* \"#utility.yul\":2326:2332   */\n      dup4\n        /* \"#utility.yul\":2321:2324   */\n      dup4\n        /* \"#utility.yul\":2317:2333   */\n      add\n        /* \"#utility.yul\":2310:2337   */\n      mstore\n        /* \"#utility.yul\":2205:2344   */\n      pop\n      pop\n      pop\n      jump\t// out\n        /* \"#utility.yul\":2350:2452   */\n    tag_187:\n        /* \"#utility.yul\":2391:2397   */\n      0x00\n        /* \"#utility.yul\":2442:2444   */\n      0x1f\n        /* \"#utility.yul\":2438:2445   */\n      not\n        /* \"#utility.yul\":2433:2435   */\n      0x1f\n        /* \"#utility.yul\":2426:2431   */\n      dup4\n        /* \"#utility.yul\":2422:2436   */\n      add\n        /* \"#utility.yul\":2418:2446   */\n      and\n        /* \"#utility.yul\":2408:2446   */\n      swap1\n      pop\n        /* \"#utility.yul\":2350:2452   */\n      swap2\n      swap1\n      pop\n      jump\t// out\n        /* \"#utility.yul\":2458:2835   */\n    tag_188:\n        /* \"#utility.yul\":2546:2549   */\n      0x00\n        /* \"#utility.yul\":2574:2613   */\n      tag_272\n        /* \"#utility.yul\":2607:2612   */\n      dup3\n        /* \"#utility.yul\":2574:2613   */\n      tag_184\n      jump\t// in\n    tag_272:\n        /* \"#utility.yul\":2629:2700   */\n      tag_273\n        /* \"#utility.yul\":2693:2699   */\n      dup2\n        /* \"#utility.yul\":2688:2691   */\n      dup6\n        /* \"#utility.yul\":2629:2700   */\n      tag_185\n      jump\t// in\n    tag_273:\n        /* \"#utility.yul\":2622:2700   */\n      swap4\n      pop\n        /* \"#utility.yul\":2709:2774   */\n      tag_274\n        /* \"#utility.yul\":2767:2773   */\n      dup2\n        /* \"#utility.yul\":2762:2765   */\n      dup6\n        /* \"#utility.yul\":2755:2759   */\n      0x20\n        /* \"#utility.yul\":2748:2753   */\n      dup7\n        /* \"#utility.yul\":2744:2760   */\n      add\n        /* \"#utility.yul\":2709:2774   */\n      tag_186\n      jump\t// in\n    tag_274:\n        /* \"#utility.yul\":2799:2828   */\n      tag_275\n        /* \"#utility.yul\":2821:2827   */\n      dup2\n        /* \"#utility.yul\":2799:2828   */\n      tag_187\n      jump\t// in\n    tag_275:\n        /* \"#utility.yul\":2794:2797   */\n      dup5\n        /* \"#utility.yul\":2790:2829   */\n      add\n        /* \"#utility.yul\":2783:2829   */\n      swap2\n      pop\n        /* \"#utility.yul\":2550:2835   */\n      pop\n        /* \"#utility.yul\":2458:2835   */\n      swap3\n      swap2\n      pop\n      pop\n      jump\t// out\n        /* \"#utility.yul\":2841:3596   */\n    tag_18:\n        /* \"#utility.yul\":3066:3070   */\n      0x00\n        /* \"#utility.yul\":3104:3107   */\n      0xa0\n        /* \"#utility.yul\":3093:3102   */\n      dup3\n        /* \"#utility.yul\":3089:3108   */\n      add\n        /* \"#utility.yul\":3081:3108   */\n      swap1\n      pop\n        /* \"#utility.yul\":3118:3189   */\n      tag_277\n        /* \"#utility.yul\":3186:3187   */\n      0x00\n        /* \"#utility.yul\":3175:3184   */\n      dup4\n        /* \"#utility.yul\":3171:3188   */\n      add\n        /* \"#utility.yul\":3162:3168   */\n      dup9\n        /* \"#utility.yul\":3118:3189   */\n      tag_182\n      jump\t// in\n    tag_277:\n        /* \"#utility.yul\":3199:3271   */\n      tag_278\n        /* \"#utility.yul\":3267:3269   */\n      0x20\n        /* \"#utility.yul\":3256:3265   */\n      dup4\n        /* \"#utility.yul\":3252:3270   */\n      add\n        /* \"#utility.yul\":3243:3249   */\n      dup8\n        /* \"#utility.yul\":3199:3271   */\n      tag_183\n      jump\t// in\n    tag_278:\n        /* \"#utility.yul\":3318:3327   */\n      dup2\n        /* \"#utility.yul\":3312:3316   */\n      dup2\n        /* \"#utility.yul\":3308:3328   */\n      sub\n        /* \"#utility.yul\":3303:3305   */\n      0x40\n        /* \"#utility.yul\":3292:3301   */\n      dup4\n        /* \"#utility.yul\":3288:3306   */\n      add\n        /* \"#utility.yul\":3281:3329   */\n      mstore\n        /* \"#utility.yul\":3346:3424   */\n      tag_279\n        /* \"#utility.yul\":3419:3423   */\n      dup2\n        /* \"#utility.yul\":3410:3416   */\n      dup7\n        /* \"#utility.yul\":3346:3424   */\n      tag_188\n      jump\t// in\n    tag_279:\n        /* \"#utility.yul\":3338:3424   */\n      swap1\n      pop\n        /* \"#utility.yul\":3434:3506   */\n      tag_280\n        /* \"#utility.yul\":3502:3504   */\n      0x60\n        /* \"#utility.yul\":3491:3500   */\n      dup4\n        /* \"#utility.yul\":3487:3505   */\n      add\n        /* \"#utility.yul\":3478:3484   */\n      dup6\n        /* \"#utility.yul\":3434:3506   */\n      tag_182\n      jump\t// in\n    tag_280:\n        /* \"#utility.yul\":3516:3589   */\n      tag_281\n        /* \"#utility.yul\":3584:3587   */\n      0x80\n        /* \"#utility.yul\":3573:3582   */\n      dup4\n        /* \"#utility.yul\":3569:3588   */\n      add\n        /* \"#utility.yul\":3560:3566   */\n      dup5\n        /* \"#utility.yul\":3516:3589   */\n      tag_182\n      jump\t// in\n    tag_281:\n        /* \"#utility.yul\":2841:3596   */\n      swap7\n      swap6\n      pop\n      pop\n      pop\n      pop\n      pop\n      pop\n      jump\t// out\n        /* \"#utility.yul\":3602:3710   */\n    tag_189:\n        /* \"#utility.yul\":3679:3703   */\n      tag_283\n        /* \"#utility.yul\":3697:3702   */\n      dup2\n        /* \"#utility.yul\":3679:3703   */\n      tag_179\n      jump\t// in\n    tag_283:\n        /* \"#utility.yul\":3674:3677   */\n      dup3\n        /* \"#utility.yul\":3667:3704   */\n      mstore\n        /* \"#utility.yul\":3602:3710   */\n      pop\n      pop\n      jump\t// out\n        /* \"#utility.yul\":3716:3824   */\n    tag_190:\n        /* \"#utility.yul\":3793:3817   */\n      tag_285\n        /* \"#utility.yul\":3811:3816   */\n      dup2\n        /* \"#utility.yul\":3793:3817   */\n      tag_176\n      jump\t// in\n    tag_285:\n        /* \"#utility.yul\":3788:3791   */\n      dup3\n        /* \"#utility.yul\":3781:3818   */\n      mstore\n        /* \"#utility.yul\":3716:3824   */\n      pop\n      pop\n      jump\t// out\n        /* \"#utility.yul\":3830:3989   */\n    tag_191:\n        /* \"#utility.yul\":3904:3915   */\n      0x00\n        /* \"#utility.yul\":3938:3944   */\n      dup3\n        /* \"#utility.yul\":3933:3936   */\n      dup3\n        /* \"#utility.yul\":3926:3945   */\n      mstore\n        /* \"#utility.yul\":3978:3982   */\n      0x20\n        /* \"#utility.yul\":3973:3976   */\n      dup3\n        /* \"#utility.yul\":3969:3983   */\n      add\n        /* \"#utility.yul\":3954:3983   */\n      swap1\n      pop\n        /* \"#utility.yul\":3830:3989   */\n      swap3\n      swap2\n      pop\n      pop\n      jump\t// out\n        /* \"#utility.yul\":3995:4352   */\n    tag_192:\n        /* \"#utility.yul\":4073:4076   */\n      0x00\n        /* \"#utility.yul\":4101:4140   */\n      tag_288\n        /* \"#utility.yul\":4134:4139   */\n      dup3\n        /* \"#utility.yul\":4101:4140   */\n      tag_184\n      jump\t// in\n    tag_288:\n        /* \"#utility.yul\":4156:4217   */\n      tag_289\n        /* \"#utility.yul\":4210:4216   */\n      dup2\n        /* \"#utility.yul\":4205:4208   */\n      dup6\n        /* \"#utility.yul\":4156:4217   */\n      tag_191\n      jump\t// in\n    tag_289:\n        /* \"#utility.yul\":4149:4217   */\n      swap4\n      pop\n        /* \"#utility.yul\":4226:4291   */\n      tag_290\n        /* \"#utility.yul\":4284:4290   */\n      dup2\n        /* \"#utility.yul\":4279:4282   */\n      dup6\n        /* \"#utility.yul\":4272:4276   */\n      0x20\n        /* \"#utility.yul\":4265:4270   */\n      dup7\n        /* \"#utility.yul\":4261:4277   */\n      add\n        /* \"#utility.yul\":4226:4291   */\n      tag_186\n      jump\t// in\n    tag_290:\n        /* \"#utility.yul\":4316:4345   */\n      tag_291\n        /* \"#utility.yul\":4338:4344   */\n      dup2\n        /* \"#utility.yul\":4316:4345   */\n      tag_187\n      jump\t// in\n    tag_291:\n        /* \"#utility.yul\":4311:4314   */\n      dup5\n        /* \"#utility.yul\":4307:4346   */\n      add\n        /* \"#utility.yul\":4300:4346   */\n      swap2\n      pop\n        /* \"#utility.yul\":4077:4352   */\n      pop\n        /* \"#utility.yul\":3995:4352   */\n      swap3\n      swap2\n      pop\n      pop\n      jump\t// out\n        /* \"#utility.yul\":4410:5539   */\n    tag_193:\n        /* \"#utility.yul\":4521:4524   */\n      0x00\n        /* \"#utility.yul\":4557:4561   */\n      0xa0\n        /* \"#utility.yul\":4552:4555   */\n      dup4\n        /* \"#utility.yul\":4548:4562   */\n      add\n        /* \"#utility.yul\":4642:4646   */\n      0x00\n        /* \"#utility.yul\":4635:4640   */\n      dup4\n        /* \"#utility.yul\":4631:4647   */\n      add\n        /* \"#utility.yul\":4625:4648   */\n      mload\n        /* \"#utility.yul\":4661:4724   */\n      tag_293\n        /* \"#utility.yul\":4718:4722   */\n      0x00\n        /* \"#utility.yul\":4713:4716   */\n      dup7\n        /* \"#utility.yul\":4709:4723   */\n      add\n        /* \"#utility.yul\":4695:4707   */\n      dup3\n        /* \"#utility.yul\":4661:4724   */\n      tag_189\n      jump\t// in\n    tag_293:\n        /* \"#utility.yul\":4572:4734   */\n      pop\n        /* \"#utility.yul\":4818:4822   */\n      0x20\n        /* \"#utility.yul\":4811:4816   */\n      dup4\n        /* \"#utility.yul\":4807:4823   */\n      add\n        /* \"#utility.yul\":4801:4824   */\n      mload\n        /* \"#utility.yul\":4837:4900   */\n      tag_294\n        /* \"#utility.yul\":4894:4898   */\n      0x20\n        /* \"#utility.yul\":4889:4892   */\n      dup7\n        /* \"#utility.yul\":4885:4899   */\n      add\n        /* \"#utility.yul\":4871:4883   */\n      dup3\n        /* \"#utility.yul\":4837:4900   */\n      tag_190\n      jump\t// in\n    tag_294:\n        /* \"#utility.yul\":4744:4910   */\n      pop\n        /* \"#utility.yul\":4995:4999   */\n      0x40\n        /* \"#utility.yul\":4988:4993   */\n      dup4\n        /* \"#utility.yul\":4984:5000   */\n      add\n        /* \"#utility.yul\":4978:5001   */\n      mload\n        /* \"#utility.yul\":5048:5051   */\n      dup5\n        /* \"#utility.yul\":5042:5046   */\n      dup3\n        /* \"#utility.yul\":5038:5052   */\n      sub\n        /* \"#utility.yul\":5031:5035   */\n      0x40\n        /* \"#utility.yul\":5026:5029   */\n      dup7\n        /* \"#utility.yul\":5022:5036   */\n      add\n        /* \"#utility.yul\":5015:5053   */\n      mstore\n        /* \"#utility.yul\":5074:5147   */\n      tag_295\n        /* \"#utility.yul\":5142:5146   */\n      dup3\n        /* \"#utility.yul\":5128:5140   */\n      dup3\n        /* \"#utility.yul\":5074:5147   */\n      tag_192\n      jump\t// in\n    tag_295:\n        /* \"#utility.yul\":5066:5147   */\n      swap2\n      pop\n        /* \"#utility.yul\":4920:5158   */\n      pop\n        /* \"#utility.yul\":5245:5249   */\n      0x60\n        /* \"#utility.yul\":5238:5243   */\n      dup4\n        /* \"#utility.yul\":5234:5250   */\n      add\n        /* \"#utility.yul\":5228:5251   */\n      mload\n        /* \"#utility.yul\":5264:5327   */\n      tag_296\n        /* \"#utility.yul\":5321:5325   */\n      0x60\n        /* \"#utility.yul\":5316:5319   */\n      dup7\n        /* \"#utility.yul\":5312:5326   */\n      add\n        /* \"#utility.yul\":5298:5310   */\n      dup3\n        /* \"#utility.yul\":5264:5327   */\n      tag_189\n      jump\t// in\n    tag_296:\n        /* \"#utility.yul\":5168:5337   */\n      pop\n        /* \"#utility.yul\":5420:5424   */\n      0x80\n        /* \"#utility.yul\":5413:5418   */\n      dup4\n        /* \"#utility.yul\":5409:5425   */\n      add\n        /* \"#utility.yul\":5403:5426   */\n      mload\n        /* \"#utility.yul\":5439:5502   */\n      tag_297\n        /* \"#utility.yul\":5496:5500   */\n      0x80\n        /* \"#utility.yul\":5491:5494   */\n      dup7\n        /* \"#utility.yul\":5487:5501   */\n      add\n        /* \"#utility.yul\":5473:5485   */\n      dup3\n        /* \"#utility.yul\":5439:5502   */\n      tag_189\n      jump\t// in\n    tag_297:\n        /* \"#utility.yul\":5347:5512   */\n      pop\n        /* \"#utility.yul\":5529:5533   */\n      dup1\n        /* \"#utility.yul\":5522:5533   */\n      swap2\n      pop\n        /* \"#utility.yul\":4526:5539   */\n      pop\n        /* \"#utility.yul\":4410:5539   */\n      swap3\n      swap2\n      pop\n      pop\n      jump\t// out\n        /* \"#utility.yul\":5545:5902   */\n    tag_23:\n        /* \"#utility.yul\":5680:5684   */\n      0x00\n        /* \"#utility.yul\":5718:5720   */\n      0x20\n        /* \"#utility.yul\":5707:5716   */\n      dup3\n        /* \"#utility.yul\":5703:5721   */\n      add\n        /* \"#utility.yul\":5695:5721   */\n      swap1\n      pop\n        /* \"#utility.yul\":5767:5776   */\n      dup2\n        /* \"#utility.yul\":5761:5765   */\n      dup2\n        /* \"#utility.yul\":5757:5777   */\n      sub\n        /* \"#utility.yul\":5753:5754   */\n      0x00\n        /* \"#utility.yul\":5742:5751   */\n      dup4\n        /* \"#utility.yul\":5738:5755   */\n      add\n        /* \"#utility.yul\":5731:5778   */\n      mstore\n        /* \"#utility.yul\":5795:5895   */\n      tag_299\n        /* \"#utility.yul\":5890:5894   */\n      dup2\n        /* \"#utility.yul\":5881:5887   */\n      dup5\n        /* \"#utility.yul\":5795:5895   */\n      tag_193\n      jump\t// in\n    tag_299:\n        /* \"#utility.yul\":5787:5895   */\n      swap1\n      pop\n        /* \"#utility.yul\":5545:5902   */\n      swap3\n      swap2\n      pop\n      pop\n      jump\t// out\n        /* \"#utility.yul\":5908:5997   */\n    tag_194:\n        /* \"#utility.yul\":5944:5951   */\n      0x00\n        /* \"#utility.yul\":5984:5990   */\n      0xffff\n        /* \"#utility.yul\":5977:5982   */\n      dup3\n        /* \"#utility.yul\":5973:5991   */\n      and\n        /* \"#utility.yul\":5962:5991   */\n      swap1\n      pop\n        /* \"#utility.yul\":5908:5997   */\n      swap2\n      swap1\n      pop\n      jump\t// out\n        /* \"#utility.yul\":6003:6123   */\n    tag_195:\n        /* \"#utility.yul\":6075:6098   */\n      tag_302\n        /* \"#utility.yul\":6092:6097   */\n      dup2\n        /* \"#utility.yul\":6075:6098   */\n      tag_194\n      jump\t// in\n    tag_302:\n        /* \"#utility.yul\":6068:6073   */\n      dup2\n        /* \"#utility.yul\":6065:6099   */\n      eq\n        /* \"#utility.yul\":6055:6117   */\n      tag_303\n      jumpi\n        /* \"#utility.yul\":6113:6114   */\n      0x00\n        /* \"#utility.yul\":6110:6111   */\n      dup1\n        /* \"#utility.yul\":6103:6115   */\n      revert\n        /* \"#utility.yul\":6055:6117   */\n    tag_303:\n        /* \"#utility.yul\":6003:6123   */\n      pop\n      jump\t// out\n        /* \"#utility.yul\":6129:6266   */\n    tag_196:\n        /* \"#utility.yul\":6174:6179   */\n      0x00\n        /* \"#utility.yul\":6212:6218   */\n      dup2\n        /* \"#utility.yul\":6199:6219   */\n      calldataload\n        /* \"#utility.yul\":6190:6219   */\n      swap1\n      pop\n        /* \"#utility.yul\":6228:6260   */\n      tag_305\n        /* \"#utility.yul\":6254:6259   */\n      dup2\n        /* \"#utility.yul\":6228:6260   */\n      tag_195\n      jump\t// in\n    tag_305:\n        /* \"#utility.yul\":6129:6266   */\n      swap3\n      swap2\n      pop\n      pop\n      jump\t// out\n        /* \"#utility.yul\":6272:6599   */\n    tag_29:\n        /* \"#utility.yul\":6330:6336   */\n      0x00\n        /* \"#utility.yul\":6379:6381   */\n      0x20\n        /* \"#utility.yul\":6367:6376   */\n      dup3\n        /* \"#utility.yul\":6358:6365   */\n      dup5\n        /* \"#utility.yul\":6354:6377   */\n      sub\n        /* \"#utility.yul\":6350:6382   */\n      slt\n        /* \"#utility.yul\":6347:6466   */\n      iszero\n      tag_307\n      jumpi\n        /* \"#utility.yul\":6385:6464   */\n      tag_308\n      tag_173\n      jump\t// in\n    tag_308:\n        /* \"#utility.yul\":6347:6466   */\n    tag_307:\n        /* \"#utility.yul\":6505:6506   */\n      0x00\n        /* \"#utility.yul\":6530:6582   */\n      tag_309\n        /* \"#utility.yul\":6574:6581   */\n      dup5\n        /* \"#utility.yul\":6565:6571   */\n      dup3\n        /* \"#utility.yul\":6554:6563   */\n      dup6\n        /* \"#utility.yul\":6550:6572   */\n      add\n        /* \"#utility.yul\":6530:6582   */\n      tag_196\n      jump\t// in\n    tag_309:\n        /* \"#utility.yul\":6520:6582   */\n      swap2\n      pop\n        /* \"#utility.yul\":6476:6592   */\n      pop\n        /* \"#utility.yul\":6272:6599   */\n      swap3\n      swap2\n      pop\n      pop\n      jump\t// out\n        /* \"#utility.yul\":6605:6722   */\n    tag_197:\n        /* \"#utility.yul\":6714:6715   */\n      0x00\n        /* \"#utility.yul\":6711:6712   */\n      dup1\n        /* \"#utility.yul\":6704:6716   */\n      revert\n        /* \"#utility.yul\":6728:6845   */\n    tag_198:\n        /* \"#utility.yul\":6837:6838   */\n      0x00\n        /* \"#utility.yul\":6834:6835   */\n      dup1\n        /* \"#utility.yul\":6827:6839   */\n      revert\n        /* \"#utility.yul\":6851:7031   */\n    tag_144:\n        /* \"#utility.yul\":6899:6976   */\n      0x4e487b7100000000000000000000000000000000000000000000000000000000\n        /* \"#utility.yul\":6896:6897   */\n      0x00\n        /* \"#utility.yul\":6889:6977   */\n      mstore\n        /* \"#utility.yul\":6996:7000   */\n      0x41\n        /* \"#utility.yul\":6993:6994   */\n      0x04\n        /* \"#utility.yul\":6986:7001   */\n      mstore\n        /* \"#utility.yul\":7020:7024   */\n      0x24\n        /* \"#utility.yul\":7017:7018   */\n      0x00\n        /* \"#utility.yul\":7010:7025   */\n      revert\n        /* \"#utility.yul\":7037:7318   */\n    tag_199:\n        /* \"#utility.yul\":7120:7147   */\n      tag_314\n        /* \"#utility.yul\":7142:7146   */\n      dup3\n        /* \"#utility.yul\":7120:7147   */\n      tag_187\n      jump\t// in\n    tag_314:\n        /* \"#utility.yul\":7112:7118   */\n      dup2\n        /* \"#utility.yul\":7108:7148   */\n      add\n        /* \"#utility.yul\":7250:7256   */\n      dup2\n        /* \"#utility.yul\":7238:7248   */\n      dup2\n        /* \"#utility.yul\":7235:7257   */\n      lt\n        /* \"#utility.yul\":7214:7232   */\n      0xffffffffffffffff\n        /* \"#utility.yul\":7202:7212   */\n      dup3\n        /* \"#utility.yul\":7199:7233   */\n      gt\n        /* \"#utility.yul\":7196:7258   */\n      or\n        /* \"#utility.yul\":7193:7281   */\n      iszero\n      tag_315\n      jumpi\n        /* \"#utility.yul\":7261:7279   */\n      tag_316\n      tag_144\n      jump\t// in\n    tag_316:\n        /* \"#utility.yul\":7193:7281   */\n    tag_315:\n        /* \"#utility.yul\":7301:7311   */\n      dup1\n        /* \"#utility.yul\":7297:7299   */\n      0x40\n        /* \"#utility.yul\":7290:7312   */\n      mstore\n        /* \"#utility.yul\":7080:7318   */\n      pop\n        /* \"#utility.yul\":7037:7318   */\n      pop\n      pop\n      jump\t// out\n        /* \"#utility.yul\":7324:7453   */\n    tag_200:\n        /* \"#utility.yul\":7358:7364   */\n      0x00\n        /* \"#utility.yul\":7385:7405   */\n      tag_318\n      tag_172\n      jump\t// in\n    tag_318:\n        /* \"#utility.yul\":7375:7405   */\n      swap1\n      pop\n        /* \"#utility.yul\":7414:7447   */\n      tag_319\n        /* \"#utility.yul\":7442:7446   */\n      dup3\n        /* \"#utility.yul\":7434:7440   */\n      dup3\n        /* \"#utility.yul\":7414:7447   */\n      tag_199\n      jump\t// in\n    tag_319:\n        /* \"#utility.yul\":7324:7453   */\n      swap2\n      swap1\n      pop\n      jump\t// out\n        /* \"#utility.yul\":7459:7767   */\n    tag_201:\n        /* \"#utility.yul\":7521:7525   */\n      0x00\n        /* \"#utility.yul\":7611:7629   */\n      0xffffffffffffffff\n        /* \"#utility.yul\":7603:7609   */\n      dup3\n        /* \"#utility.yul\":7600:7630   */\n      gt\n        /* \"#utility.yul\":7597:7653   */\n      iszero\n      tag_321\n      jumpi\n        /* \"#utility.yul\":7633:7651   */\n      tag_322\n      tag_144\n      jump\t// in\n    tag_322:\n        /* \"#utility.yul\":7597:7653   */\n    tag_321:\n        /* \"#utility.yul\":7671:7700   */\n      tag_323\n        /* \"#utility.yul\":7693:7699   */\n      dup3\n        /* \"#utility.yul\":7671:7700   */\n      tag_187\n      jump\t// in\n    tag_323:\n        /* \"#utility.yul\":7663:7700   */\n      swap1\n      pop\n        /* \"#utility.yul\":7755:7759   */\n      0x20\n        /* \"#utility.yul\":7749:7753   */\n      dup2\n        /* \"#utility.yul\":7745:7760   */\n      add\n        /* \"#utility.yul\":7737:7760   */\n      swap1\n      pop\n        /* \"#utility.yul\":7459:7767   */\n      swap2\n      swap1\n      pop\n      jump\t// out\n        /* \"#utility.yul\":7773:7921   */\n    tag_202:\n        /* \"#utility.yul\":7871:7877   */\n      dup3\n        /* \"#utility.yul\":7866:7869   */\n      dup2\n        /* \"#utility.yul\":7861:7864   */\n      dup4\n        /* \"#utility.yul\":7848:7878   */\n      calldatacopy\n        /* \"#utility.yul\":7912:7913   */\n      0x00\n        /* \"#utility.yul\":7903:7909   */\n      dup4\n        /* \"#utility.yul\":7898:7901   */\n      dup4\n        /* \"#utility.yul\":7894:7910   */\n      add\n        /* \"#utility.yul\":7887:7914   */\n      mstore\n        /* \"#utility.yul\":7773:7921   */\n      pop\n      pop\n      pop\n      jump\t// out\n        /* \"#utility.yul\":7927:8352   */\n    tag_203:\n        /* \"#utility.yul\":8005:8010   */\n      0x00\n        /* \"#utility.yul\":8030:8096   */\n      tag_326\n        /* \"#utility.yul\":8046:8095   */\n      tag_327\n        /* \"#utility.yul\":8088:8094   */\n      dup5\n        /* \"#utility.yul\":8046:8095   */\n      tag_201\n      jump\t// in\n    tag_327:\n        /* \"#utility.yul\":8030:8096   */\n      tag_200\n      jump\t// in\n    tag_326:\n        /* \"#utility.yul\":8021:8096   */\n      swap1\n      pop\n        /* \"#utility.yul\":8119:8125   */\n      dup3\n        /* \"#utility.yul\":8112:8117   */\n      dup2\n        /* \"#utility.yul\":8105:8126   */\n      mstore\n        /* \"#utility.yul\":8157:8161   */\n      0x20\n        /* \"#utility.yul\":8150:8155   */\n      dup2\n        /* \"#utility.yul\":8146:8162   */\n      add\n        /* \"#utility.yul\":8195:8198   */\n      dup5\n        /* \"#utility.yul\":8186:8192   */\n      dup5\n        /* \"#utility.yul\":8181:8184   */\n      dup5\n        /* \"#utility.yul\":8177:8193   */\n      add\n        /* \"#utility.yul\":8174:8199   */\n      gt\n        /* \"#utility.yul\":8171:8283   */\n      iszero\n      tag_328\n      jumpi\n        /* \"#utility.yul\":8202:8281   */\n      tag_329\n      tag_198\n      jump\t// in\n    tag_329:\n        /* \"#utility.yul\":8171:8283   */\n    tag_328:\n        /* \"#utility.yul\":8292:8346   */\n      tag_330\n        /* \"#utility.yul\":8339:8345   */\n      dup5\n        /* \"#utility.yul\":8334:8337   */\n      dup3\n        /* \"#utility.yul\":8329:8332   */\n      dup6\n        /* \"#utility.yul\":8292:8346   */\n      tag_202\n      jump\t// in\n    tag_330:\n        /* \"#utility.yul\":8011:8352   */\n      pop\n        /* \"#utility.yul\":7927:8352   */\n      swap4\n      swap3\n      pop\n      pop\n      pop\n      jump\t// out\n        /* \"#utility.yul\":8372:8712   */\n    tag_204:\n        /* \"#utility.yul\":8428:8433   */\n      0x00\n        /* \"#utility.yul\":8477:8480   */\n      dup3\n        /* \"#utility.yul\":8470:8474   */\n      0x1f\n        /* \"#utility.yul\":8462:8468   */\n      dup4\n        /* \"#utility.yul\":8458:8475   */\n      add\n        /* \"#utility.yul\":8454:8481   */\n      slt\n        /* \"#utility.yul\":8444:8566   */\n      tag_332\n      jumpi\n        /* \"#utility.yul\":8485:8564   */\n      tag_333\n      tag_197\n      jump\t// in\n    tag_333:\n        /* \"#utility.yul\":8444:8566   */\n    tag_332:\n        /* \"#utility.yul\":8602:8608   */\n      dup2\n        /* \"#utility.yul\":8589:8609   */\n      calldataload\n        /* \"#utility.yul\":8627:8706   */\n      tag_334\n        /* \"#utility.yul\":8702:8705   */\n      dup5\n        /* \"#utility.yul\":8694:8700   */\n      dup3\n        /* \"#utility.yul\":8687:8691   */\n      0x20\n        /* \"#utility.yul\":8679:8685   */\n      dup7\n        /* \"#utility.yul\":8675:8692   */\n      add\n        /* \"#utility.yul\":8627:8706   */\n      tag_203\n      jump\t// in\n    tag_334:\n        /* \"#utility.yul\":8618:8706   */\n      swap2\n      pop\n        /* \"#utility.yul\":8434:8712   */\n      pop\n        /* \"#utility.yul\":8372:8712   */\n      swap3\n      swap2\n      pop\n      pop\n      jump\t// out\n        /* \"#utility.yul\":8718:9227   */\n    tag_36:\n        /* \"#utility.yul\":8787:8793   */\n      0x00\n        /* \"#utility.yul\":8836:8838   */\n      0x20\n        /* \"#utility.yul\":8824:8833   */\n      dup3\n        /* \"#utility.yul\":8815:8822   */\n      dup5\n        /* \"#utility.yul\":8811:8834   */\n      sub\n        /* \"#utility.yul\":8807:8839   */\n      slt\n        /* \"#utility.yul\":8804:8923   */\n      iszero\n      tag_336\n      jumpi\n        /* \"#utility.yul\":8842:8921   */\n      tag_337\n      tag_173\n      jump\t// in\n    tag_337:\n        /* \"#utility.yul\":8804:8923   */\n    tag_336:\n        /* \"#utility.yul\":8990:8991   */\n      0x00\n        /* \"#utility.yul\":8979:8988   */\n      dup3\n        /* \"#utility.yul\":8975:8992   */\n      add\n        /* \"#utility.yul\":8962:8993   */\n      calldataload\n        /* \"#utility.yul\":9020:9038   */\n      0xffffffffffffffff\n        /* \"#utility.yul\":9012:9018   */\n      dup2\n        /* \"#utility.yul\":9009:9039   */\n      gt\n        /* \"#utility.yul\":9006:9123   */\n      iszero\n      tag_338\n      jumpi\n        /* \"#utility.yul\":9042:9121   */\n      tag_339\n      tag_174\n      jump\t// in\n    tag_339:\n        /* \"#utility.yul\":9006:9123   */\n    tag_338:\n        /* \"#utility.yul\":9147:9210   */\n      tag_340\n        /* \"#utility.yul\":9202:9209   */\n      dup5\n        /* \"#utility.yul\":9193:9199   */\n      dup3\n        /* \"#utility.yul\":9182:9191   */\n      dup6\n        /* \"#utility.yul\":9178:9200   */\n      add\n        /* \"#utility.yul\":9147:9210   */\n      tag_204\n      jump\t// in\n    tag_340:\n        /* \"#utility.yul\":9137:9210   */\n      swap2\n      pop\n        /* \"#utility.yul\":8933:9220   */\n      pop\n        /* \"#utility.yul\":8718:9227   */\n      swap3\n      swap2\n      pop\n      pop\n      jump\t// out\n        /* \"#utility.yul\":9233:9562   */\n    tag_40:\n        /* \"#utility.yul\":9292:9298   */\n      0x00\n        /* \"#utility.yul\":9341:9343   */\n      0x20\n        /* \"#utility.yul\":9329:9338   */\n      dup3\n        /* \"#utility.yul\":9320:9327   */\n      dup5\n        /* \"#utility.yul\":9316:9339   */\n      sub\n        /* \"#utility.yul\":9312:9344   */\n      slt\n        /* \"#utility.yul\":9309:9428   */\n      iszero\n      tag_342\n      jumpi\n        /* \"#utility.yul\":9347:9426   */\n      tag_343\n      tag_173\n      jump\t// in\n    tag_343:\n        /* \"#utility.yul\":9309:9428   */\n    tag_342:\n        /* \"#utility.yul\":9467:9468   */\n      0x00\n        /* \"#utility.yul\":9492:9545   */\n      tag_344\n        /* \"#utility.yul\":9537:9544   */\n      dup5\n        /* \"#utility.yul\":9528:9534   */\n      dup3\n        /* \"#utility.yul\":9517:9526   */\n      dup6\n        /* \"#utility.yul\":9513:9535   */\n      add\n        /* \"#utility.yul\":9492:9545   */\n      tag_178\n      jump\t// in\n    tag_344:\n        /* \"#utility.yul\":9482:9545   */\n      swap2\n      pop\n        /* \"#utility.yul\":9438:9555   */\n      pop\n        /* \"#utility.yul\":9233:9562   */\n      swap3\n      swap2\n      pop\n      pop\n      jump\t// out\n        /* \"#utility.yul\":9568:9703   */\n    tag_205:\n        /* \"#utility.yul\":9656:9662   */\n      0x00\n        /* \"#utility.yul\":9690:9695   */\n      dup2\n        /* \"#utility.yul\":9684:9696   */\n      mload\n        /* \"#utility.yul\":9674:9696   */\n      swap1\n      pop\n        /* \"#utility.yul\":9568:9703   */\n      swap2\n      swap1\n      pop\n      jump\t// out\n        /* \"#utility.yul\":9709:9914   */\n    tag_206:\n        /* \"#utility.yul\":9829:9840   */\n      0x00\n        /* \"#utility.yul\":9863:9869   */\n      dup3\n        /* \"#utility.yul\":9858:9861   */\n      dup3\n        /* \"#utility.yul\":9851:9870   */\n      mstore\n        /* \"#utility.yul\":9903:9907   */\n      0x20\n        /* \"#utility.yul\":9898:9901   */\n      dup3\n        /* \"#utility.yul\":9894:9908   */\n      add\n        /* \"#utility.yul\":9879:9908   */\n      swap1\n      pop\n        /* \"#utility.yul\":9709:9914   */\n      swap3\n      swap2\n      pop\n      pop\n      jump\t// out\n        /* \"#utility.yul\":9920:10073   */\n    tag_207:\n        /* \"#utility.yul\":10008:10012   */\n      0x00\n        /* \"#utility.yul\":10031:10034   */\n      dup2\n        /* \"#utility.yul\":10023:10034   */\n      swap1\n      pop\n        /* \"#utility.yul\":10061:10065   */\n      0x20\n        /* \"#utility.yul\":10056:10059   */\n      dup3\n        /* \"#utility.yul\":10052:10066   */\n      add\n        /* \"#utility.yul\":10044:10066   */\n      swap1\n      pop\n        /* \"#utility.yul\":9920:10073   */\n      swap2\n      swap1\n      pop\n      jump\t// out\n        /* \"#utility.yul\":10131:11250   */\n    tag_208:\n        /* \"#utility.yul\":10232:10235   */\n      0x00\n        /* \"#utility.yul\":10268:10272   */\n      0xa0\n        /* \"#utility.yul\":10263:10266   */\n      dup4\n        /* \"#utility.yul\":10259:10273   */\n      add\n        /* \"#utility.yul\":10353:10357   */\n      0x00\n        /* \"#utility.yul\":10346:10351   */\n      dup4\n        /* \"#utility.yul\":10342:10358   */\n      add\n        /* \"#utility.yul\":10336:10359   */\n      mload\n        /* \"#utility.yul\":10372:10435   */\n      tag_349\n        /* \"#utility.yul\":10429:10433   */\n      0x00\n        /* \"#utility.yul\":10424:10427   */\n      dup7\n        /* \"#utility.yul\":10420:10434   */\n      add\n        /* \"#utility.yul\":10406:10418   */\n      dup3\n        /* \"#utility.yul\":10372:10435   */\n      tag_189\n      jump\t// in\n    tag_349:\n        /* \"#utility.yul\":10283:10445   */\n      pop\n        /* \"#utility.yul\":10529:10533   */\n      0x20\n        /* \"#utility.yul\":10522:10527   */\n      dup4\n        /* \"#utility.yul\":10518:10534   */\n      add\n        /* \"#utility.yul\":10512:10535   */\n      mload\n        /* \"#utility.yul\":10548:10611   */\n      tag_350\n        /* \"#utility.yul\":10605:10609   */\n      0x20\n        /* \"#utility.yul\":10600:10603   */\n      dup7\n        /* \"#utility.yul\":10596:10610   */\n      add\n        /* \"#utility.yul\":10582:10594   */\n      dup3\n        /* \"#utility.yul\":10548:10611   */\n      tag_190\n      jump\t// in\n    tag_350:\n        /* \"#utility.yul\":10455:10621   */\n      pop\n        /* \"#utility.yul\":10706:10710   */\n      0x40\n        /* \"#utility.yul\":10699:10704   */\n      dup4\n        /* \"#utility.yul\":10695:10711   */\n      add\n        /* \"#utility.yul\":10689:10712   */\n      mload\n        /* \"#utility.yul\":10759:10762   */\n      dup5\n        /* \"#utility.yul\":10753:10757   */\n      dup3\n        /* \"#utility.yul\":10749:10763   */\n      sub\n        /* \"#utility.yul\":10742:10746   */\n      0x40\n        /* \"#utility.yul\":10737:10740   */\n      dup7\n        /* \"#utility.yul\":10733:10747   */\n      add\n        /* \"#utility.yul\":10726:10764   */\n      mstore\n        /* \"#utility.yul\":10785:10858   */\n      tag_351\n        /* \"#utility.yul\":10853:10857   */\n      dup3\n        /* \"#utility.yul\":10839:10851   */\n      dup3\n        /* \"#utility.yul\":10785:10858   */\n      tag_192\n      jump\t// in\n    tag_351:\n        /* \"#utility.yul\":10777:10858   */\n      swap2\n      pop\n        /* \"#utility.yul\":10631:10869   */\n      pop\n        /* \"#utility.yul\":10956:10960   */\n      0x60\n        /* \"#utility.yul\":10949:10954   */\n      dup4\n        /* \"#utility.yul\":10945:10961   */\n      add\n        /* \"#utility.yul\":10939:10962   */\n      mload\n        /* \"#utility.yul\":10975:11038   */\n      tag_352\n        /* \"#utility.yul\":11032:11036   */\n      0x60\n        /* \"#utility.yul\":11027:11030   */\n      dup7\n        /* \"#utility.yul\":11023:11037   */\n      add\n        /* \"#utility.yul\":11009:11021   */\n      dup3\n        /* \"#utility.yul\":10975:11038   */\n      tag_189\n      jump\t// in\n    tag_352:\n        /* \"#utility.yul\":10879:11048   */\n      pop\n        /* \"#utility.yul\":11131:11135   */\n      0x80\n        /* \"#utility.yul\":11124:11129   */\n      dup4\n        /* \"#utility.yul\":11120:11136   */\n      add\n        /* \"#utility.yul\":11114:11137   */\n      mload\n        /* \"#utility.yul\":11150:11213   */\n      tag_353\n        /* \"#utility.yul\":11207:11211   */\n      0x80\n        /* \"#utility.yul\":11202:11205   */\n      dup7\n        /* \"#utility.yul\":11198:11212   */\n      add\n        /* \"#utility.yul\":11184:11196   */\n      dup3\n        /* \"#utility.yul\":11150:11213   */\n      tag_189\n      jump\t// in\n    tag_353:\n        /* \"#utility.yul\":11058:11223   */\n      pop\n        /* \"#utility.yul\":11240:11244   */\n      dup1\n        /* \"#utility.yul\":11233:11244   */\n      swap2\n      pop\n        /* \"#utility.yul\":10237:11250   */\n      pop\n        /* \"#utility.yul\":10131:11250   */\n      swap3\n      swap2\n      pop\n      pop\n      jump\t// out\n        /* \"#utility.yul\":11256:11496   */\n    tag_209:\n        /* \"#utility.yul\":11367:11377   */\n      0x00\n        /* \"#utility.yul\":11402:11490   */\n      tag_355\n        /* \"#utility.yul\":11486:11489   */\n      dup4\n        /* \"#utility.yul\":11478:11484   */\n      dup4\n        /* \"#utility.yul\":11402:11490   */\n      tag_208\n      jump\t// in\n    tag_355:\n        /* \"#utility.yul\":11388:11490   */\n      swap1\n      pop\n        /* \"#utility.yul\":11256:11496   */\n      swap3\n      swap2\n      pop\n      pop\n      jump\t// out\n        /* \"#utility.yul\":11502:11636   */\n    tag_210:\n        /* \"#utility.yul\":11593:11597   */\n      0x00\n        /* \"#utility.yul\":11625:11629   */\n      0x20\n        /* \"#utility.yul\":11620:11623   */\n      dup3\n        /* \"#utility.yul\":11616:11630   */\n      add\n        /* \"#utility.yul\":11608:11630   */\n      swap1\n      pop\n        /* \"#utility.yul\":11502:11636   */\n      swap2\n      swap1\n      pop\n      jump\t// out\n        /* \"#utility.yul\":11698:12777   */\n    tag_211:\n        /* \"#utility.yul\":11859:11862   */\n      0x00\n        /* \"#utility.yul\":11888:11963   */\n      tag_358\n        /* \"#utility.yul\":11957:11962   */\n      dup3\n        /* \"#utility.yul\":11888:11963   */\n      tag_205\n      jump\t// in\n    tag_358:\n        /* \"#utility.yul\":11979:12086   */\n      tag_359\n        /* \"#utility.yul\":12079:12085   */\n      dup2\n        /* \"#utility.yul\":12074:12077   */\n      dup6\n        /* \"#utility.yul\":11979:12086   */\n      tag_206\n      jump\t// in\n    tag_359:\n        /* \"#utility.yul\":11972:12086   */\n      swap4\n      pop\n        /* \"#utility.yul\":12112:12115   */\n      dup4\n        /* \"#utility.yul\":12157:12161   */\n      0x20\n        /* \"#utility.yul\":12149:12155   */\n      dup3\n        /* \"#utility.yul\":12145:12162   */\n      mul\n        /* \"#utility.yul\":12140:12143   */\n      dup6\n        /* \"#utility.yul\":12136:12163   */\n      add\n        /* \"#utility.yul\":12187:12264   */\n      tag_360\n        /* \"#utility.yul\":12258:12263   */\n      dup6\n        /* \"#utility.yul\":12187:12264   */\n      tag_207\n      jump\t// in\n    tag_360:\n        /* \"#utility.yul\":12287:12294   */\n      dup1\n        /* \"#utility.yul\":12318:12319   */\n      0x00\n        /* \"#utility.yul\":12303:12732   */\n    tag_361:\n        /* \"#utility.yul\":12328:12334   */\n      dup6\n        /* \"#utility.yul\":12325:12326   */\n      dup2\n        /* \"#utility.yul\":12322:12335   */\n      lt\n        /* \"#utility.yul\":12303:12732   */\n      iszero\n      tag_363\n      jumpi\n        /* \"#utility.yul\":12399:12408   */\n      dup5\n        /* \"#utility.yul\":12393:12397   */\n      dup5\n        /* \"#utility.yul\":12389:12409   */\n      sub\n        /* \"#utility.yul\":12384:12387   */\n      dup10\n        /* \"#utility.yul\":12377:12410   */\n      mstore\n        /* \"#utility.yul\":12450:12456   */\n      dup2\n        /* \"#utility.yul\":12444:12457   */\n      mload\n        /* \"#utility.yul\":12478:12584   */\n      tag_364\n        /* \"#utility.yul\":12579:12583   */\n      dup6\n        /* \"#utility.yul\":12564:12577   */\n      dup3\n        /* \"#utility.yul\":12478:12584   */\n      tag_209\n      jump\t// in\n    tag_364:\n        /* \"#utility.yul\":12470:12584   */\n      swap5\n      pop\n        /* \"#utility.yul\":12607:12688   */\n      tag_365\n        /* \"#utility.yul\":12681:12687   */\n      dup4\n        /* \"#utility.yul\":12607:12688   */\n      tag_210\n      jump\t// in\n    tag_365:\n        /* \"#utility.yul\":12597:12688   */\n      swap3\n      pop\n        /* \"#utility.yul\":12717:12721   */\n      0x20\n        /* \"#utility.yul\":12712:12715   */\n      dup11\n        /* \"#utility.yul\":12708:12722   */\n      add\n        /* \"#utility.yul\":12701:12722   */\n      swap10\n      pop\n        /* \"#utility.yul\":12363:12732   */\n      pop\n        /* \"#utility.yul\":12350:12351   */\n      0x01\n        /* \"#utility.yul\":12347:12348   */\n      dup2\n        /* \"#utility.yul\":12343:12352   */\n      add\n        /* \"#utility.yul\":12338:12352   */\n      swap1\n      pop\n        /* \"#utility.yul\":12303:12732   */\n      jump(tag_361)\n    tag_363:\n        /* \"#utility.yul\":12307:12321   */\n      pop\n        /* \"#utility.yul\":12748:12752   */\n      dup3\n        /* \"#utility.yul\":12741:12752   */\n      swap8\n      pop\n        /* \"#utility.yul\":12768:12771   */\n      dup8\n        /* \"#utility.yul\":12761:12771   */\n      swap6\n      pop\n        /* \"#utility.yul\":11864:12777   */\n      pop\n      pop\n      pop\n      pop\n      pop\n        /* \"#utility.yul\":11698:12777   */\n      swap3\n      swap2\n      pop\n      pop\n      jump\t// out\n        /* \"#utility.yul\":12783:13240   */\n    tag_43:\n        /* \"#utility.yul\":12968:12972   */\n      0x00\n        /* \"#utility.yul\":13006:13008   */\n      0x20\n        /* \"#utility.yul\":12995:13004   */\n      dup3\n        /* \"#utility.yul\":12991:13009   */\n      add\n        /* \"#utility.yul\":12983:13009   */\n      swap1\n      pop\n        /* \"#utility.yul\":13055:13064   */\n      dup2\n        /* \"#utility.yul\":13049:13053   */\n      dup2\n        /* \"#utility.yul\":13045:13065   */\n      sub\n        /* \"#utility.yul\":13041:13042   */\n      0x00\n        /* \"#utility.yul\":13030:13039   */\n      dup4\n        /* \"#utility.yul\":13026:13043   */\n      add\n        /* \"#utility.yul\":13019:13066   */\n      mstore\n        /* \"#utility.yul\":13083:13233   */\n      tag_367\n        /* \"#utility.yul\":13228:13232   */\n      dup2\n        /* \"#utility.yul\":13219:13225   */\n      dup5\n        /* \"#utility.yul\":13083:13233   */\n      tag_211\n      jump\t// in\n    tag_367:\n        /* \"#utility.yul\":13075:13233   */\n      swap1\n      pop\n        /* \"#utility.yul\":12783:13240   */\n      swap3\n      swap2\n      pop\n      pop\n      jump\t// out\n        /* \"#utility.yul\":13246:13468   */\n    tag_47:\n        /* \"#utility.yul\":13339:13343   */\n      0x00\n        /* \"#utility.yul\":13377:13379   */\n      0x20\n        /* \"#utility.yul\":13366:13375   */\n      dup3\n        /* \"#utility.yul\":13362:13380   */\n      add\n        /* \"#utility.yul\":13354:13380   */\n      swap1\n      pop\n        /* \"#utility.yul\":13390:13461   */\n      tag_369\n        /* \"#utility.yul\":13458:13459   */\n      0x00\n        /* \"#utility.yul\":13447:13456   */\n      dup4\n        /* \"#utility.yul\":13443:13460   */\n      add\n        /* \"#utility.yul\":13434:13440   */\n      dup5\n        /* \"#utility.yul\":13390:13461   */\n      tag_183\n      jump\t// in\n    tag_369:\n        /* \"#utility.yul\":13246:13468   */\n      swap3\n      swap2\n      pop\n      pop\n      jump\t// out\n        /* \"#utility.yul\":13474:13589   */\n    tag_212:\n        /* \"#utility.yul\":13559:13582   */\n      tag_371\n        /* \"#utility.yul\":13576:13581   */\n      dup2\n        /* \"#utility.yul\":13559:13582   */\n      tag_194\n      jump\t// in\n    tag_371:\n        /* \"#utility.yul\":13554:13557   */\n      dup3\n        /* \"#utility.yul\":13547:13583   */\n      mstore\n        /* \"#utility.yul\":13474:13589   */\n      pop\n      pop\n      jump\t// out\n        /* \"#utility.yul\":13595:13813   */\n    tag_51:\n        /* \"#utility.yul\":13686:13690   */\n      0x00\n        /* \"#utility.yul\":13724:13726   */\n      0x20\n        /* \"#utility.yul\":13713:13722   */\n      dup3\n        /* \"#utility.yul\":13709:13727   */\n      add\n        /* \"#utility.yul\":13701:13727   */\n      swap1\n      pop\n        /* \"#utility.yul\":13737:13806   */\n      tag_373\n        /* \"#utility.yul\":13803:13804   */\n      0x00\n        /* \"#utility.yul\":13792:13801   */\n      dup4\n        /* \"#utility.yul\":13788:13805   */\n      add\n        /* \"#utility.yul\":13779:13785   */\n      dup5\n        /* \"#utility.yul\":13737:13806   */\n      tag_212\n      jump\t// in\n    tag_373:\n        /* \"#utility.yul\":13595:13813   */\n      swap3\n      swap2\n      pop\n      pop\n      jump\t// out\n        /* \"#utility.yul\":13819:13999   */\n    tag_213:\n        /* \"#utility.yul\":13867:13944   */\n      0x4e487b7100000000000000000000000000000000000000000000000000000000\n        /* \"#utility.yul\":13864:13865   */\n      0x00\n        /* \"#utility.yul\":13857:13945   */\n      mstore\n        /* \"#utility.yul\":13964:13968   */\n      0x22\n        /* \"#utility.yul\":13961:13962   */\n      0x04\n        /* \"#utility.yul\":13954:13969   */\n      mstore\n        /* \"#utility.yul\":13988:13992   */\n      0x24\n        /* \"#utility.yul\":13985:13986   */\n      0x00\n        /* \"#utility.yul\":13978:13993   */\n      revert\n        /* \"#utility.yul\":14005:14325   */\n    tag_55:\n        /* \"#utility.yul\":14049:14055   */\n      0x00\n        /* \"#utility.yul\":14086:14087   */\n      0x02\n        /* \"#utility.yul\":14080:14084   */\n      dup3\n        /* \"#utility.yul\":14076:14088   */\n      div\n        /* \"#utility.yul\":14066:14088   */\n      swap1\n      pop\n        /* \"#utility.yul\":14133:14134   */\n      0x01\n        /* \"#utility.yul\":14127:14131   */\n      dup3\n        /* \"#utility.yul\":14123:14135   */\n      and\n        /* \"#utility.yul\":14154:14172   */\n      dup1\n        /* \"#utility.yul\":14144:14225   */\n      tag_376\n      jumpi\n        /* \"#utility.yul\":14210:14214   */\n      0x7f\n        /* \"#utility.yul\":14202:14208   */\n      dup3\n        /* \"#utility.yul\":14198:14215   */\n      and\n        /* \"#utility.yul\":14188:14215   */\n      swap2\n      pop\n        /* \"#utility.yul\":14144:14225   */\n    tag_376:\n        /* \"#utility.yul\":14272:14274   */\n      0x20\n        /* \"#utility.yul\":14264:14270   */\n      dup3\n        /* \"#utility.yul\":14261:14275   */\n      lt\n        /* \"#utility.yul\":14241:14259   */\n      dup2\n        /* \"#utility.yul\":14238:14276   */\n      sub\n        /* \"#utility.yul\":14235:14319   */\n      tag_377\n      jumpi\n        /* \"#utility.yul\":14291:14309   */\n      tag_378\n      tag_213\n      jump\t// in\n    tag_378:\n        /* \"#utility.yul\":14235:14319   */\n    tag_377:\n        /* \"#utility.yul\":14056:14325   */\n      pop\n        /* \"#utility.yul\":14005:14325   */\n      swap2\n      swap1\n      pop\n      jump\t// out\n        /* \"#utility.yul\":14331:14511   */\n    tag_65:\n        /* \"#utility.yul\":14379:14456   */\n      0x4e487b7100000000000000000000000000000000000000000000000000000000\n        /* \"#utility.yul\":14376:14377   */\n      0x00\n        /* \"#utility.yul\":14369:14457   */\n      mstore\n        /* \"#utility.yul\":14476:14480   */\n      0x32\n        /* \"#utility.yul\":14473:14474   */\n      0x04\n        /* \"#utility.yul\":14466:14481   */\n      mstore\n        /* \"#utility.yul\":14500:14504   */\n      0x24\n        /* \"#utility.yul\":14497:14498   */\n      0x00\n        /* \"#utility.yul\":14490:14505   */\n      revert\n        /* \"#utility.yul\":14517:14688   */\n    tag_214:\n        /* \"#utility.yul\":14657:14680   */\n      0x547765657420646f6573206e6f74206578697374210000000000000000000000\n        /* \"#utility.yul\":14653:14654   */\n      0x00\n        /* \"#utility.yul\":14645:14651   */\n      dup3\n        /* \"#utility.yul\":14641:14655   */\n      add\n        /* \"#utility.yul\":14634:14681   */\n      mstore\n        /* \"#utility.yul\":14517:14688   */\n      pop\n      jump\t// out\n        /* \"#utility.yul\":14694:15060   */\n    tag_215:\n        /* \"#utility.yul\":14836:14839   */\n      0x00\n        /* \"#utility.yul\":14857:14924   */\n      tag_382\n        /* \"#utility.yul\":14921:14923   */\n      0x15\n        /* \"#utility.yul\":14916:14919   */\n      dup4\n        /* \"#utility.yul\":14857:14924   */\n      tag_185\n      jump\t// in\n    tag_382:\n        /* \"#utility.yul\":14850:14924   */\n      swap2\n      pop\n        /* \"#utility.yul\":14933:15026   */\n      tag_383\n        /* \"#utility.yul\":15022:15025   */\n      dup3\n        /* \"#utility.yul\":14933:15026   */\n      tag_214\n      jump\t// in\n    tag_383:\n        /* \"#utility.yul\":15051:15053   */\n      0x20\n        /* \"#utility.yul\":15046:15049   */\n      dup3\n        /* \"#utility.yul\":15042:15054   */\n      add\n        /* \"#utility.yul\":15035:15054   */\n      swap1\n      pop\n        /* \"#utility.yul\":14694:15060   */\n      swap2\n      swap1\n      pop\n      jump\t// out\n        /* \"#utility.yul\":15066:15485   */\n    tag_78:\n        /* \"#utility.yul\":15232:15236   */\n      0x00\n        /* \"#utility.yul\":15270:15272   */\n      0x20\n        /* \"#utility.yul\":15259:15268   */\n      dup3\n        /* \"#utility.yul\":15255:15273   */\n      add\n        /* \"#utility.yul\":15247:15273   */\n      swap1\n      pop\n        /* \"#utility.yul\":15319:15328   */\n      dup2\n        /* \"#utility.yul\":15313:15317   */\n      dup2\n        /* \"#utility.yul\":15309:15329   */\n      sub\n        /* \"#utility.yul\":15305:15306   */\n      0x00\n        /* \"#utility.yul\":15294:15303   */\n      dup4\n        /* \"#utility.yul\":15290:15307   */\n      add\n        /* \"#utility.yul\":15283:15330   */\n      mstore\n        /* \"#utility.yul\":15347:15478   */\n      tag_385\n        /* \"#utility.yul\":15473:15477   */\n      dup2\n        /* \"#utility.yul\":15347:15478   */\n      tag_215\n      jump\t// in\n    tag_385:\n        /* \"#utility.yul\":15339:15478   */\n      swap1\n      pop\n        /* \"#utility.yul\":15066:15485   */\n      swap2\n      swap1\n      pop\n      jump\t// out\n        /* \"#utility.yul\":15491:15660   */\n    tag_216:\n        /* \"#utility.yul\":15631:15652   */\n      0x547765657420686173206e6f206c696b65732100000000000000000000000000\n        /* \"#utility.yul\":15627:15628   */\n      0x00\n        /* \"#utility.yul\":15619:15625   */\n      dup3\n        /* \"#utility.yul\":15615:15629   */\n      add\n        /* \"#utility.yul\":15608:15653   */\n      mstore\n        /* \"#utility.yul\":15491:15660   */\n      pop\n      jump\t// out\n        /* \"#utility.yul\":15666:16032   */\n    tag_217:\n        /* \"#utility.yul\":15808:15811   */\n      0x00\n        /* \"#utility.yul\":15829:15896   */\n      tag_388\n        /* \"#utility.yul\":15893:15895   */\n      0x13\n        /* \"#utility.yul\":15888:15891   */\n      dup4\n        /* \"#utility.yul\":15829:15896   */\n      tag_185\n      jump\t// in\n    tag_388:\n        /* \"#utility.yul\":15822:15896   */\n      swap2\n      pop\n        /* \"#utility.yul\":15905:15998   */\n      tag_389\n        /* \"#utility.yul\":15994:15997   */\n      dup3\n        /* \"#utility.yul\":15905:15998   */\n      tag_216\n      jump\t// in\n    tag_389:\n        /* \"#utility.yul\":16023:16025   */\n      0x20\n        /* \"#utility.yul\":16018:16021   */\n      dup3\n        /* \"#utility.yul\":16014:16026   */\n      add\n        /* \"#utility.yul\":16007:16026   */\n      swap1\n      pop\n        /* \"#utility.yul\":15666:16032   */\n      swap2\n      swap1\n      pop\n      jump\t// out\n        /* \"#utility.yul\":16038:16457   */\n    tag_85:\n        /* \"#utility.yul\":16204:16208   */\n      0x00\n        /* \"#utility.yul\":16242:16244   */\n      0x20\n        /* \"#utility.yul\":16231:16240   */\n      dup3\n        /* \"#utility.yul\":16227:16245   */\n      add\n        /* \"#utility.yul\":16219:16245   */\n      swap1\n      pop\n        /* \"#utility.yul\":16291:16300   */\n      dup2\n        /* \"#utility.yul\":16285:16289   */\n      dup2\n        /* \"#utility.yul\":16281:16301   */\n      sub\n        /* \"#utility.yul\":16277:16278   */\n      0x00\n        /* \"#utility.yul\":16266:16275   */\n      dup4\n        /* \"#utility.yul\":16262:16279   */\n      add\n        /* \"#utility.yul\":16255:16302   */\n      mstore\n        /* \"#utility.yul\":16319:16450   */\n      tag_391\n        /* \"#utility.yul\":16445:16449   */\n      dup2\n        /* \"#utility.yul\":16319:16450   */\n      tag_217\n      jump\t// in\n    tag_391:\n        /* \"#utility.yul\":16311:16450   */\n      swap1\n      pop\n        /* \"#utility.yul\":16038:16457   */\n      swap2\n      swap1\n      pop\n      jump\t// out\n        /* \"#utility.yul\":16463:16643   */\n    tag_218:\n        /* \"#utility.yul\":16511:16588   */\n      0x4e487b7100000000000000000000000000000000000000000000000000000000\n        /* \"#utility.yul\":16508:16509   */\n      0x00\n        /* \"#utility.yul\":16501:16589   */\n      mstore\n        /* \"#utility.yul\":16608:16612   */\n      0x11\n        /* \"#utility.yul\":16605:16606   */\n      0x04\n        /* \"#utility.yul\":16598:16613   */\n      mstore\n        /* \"#utility.yul\":16632:16636   */\n      0x24\n        /* \"#utility.yul\":16629:16630   */\n      0x00\n        /* \"#utility.yul\":16622:16637   */\n      revert\n        /* \"#utility.yul\":16649:16820   */\n    tag_90:\n        /* \"#utility.yul\":16688:16691   */\n      0x00\n        /* \"#utility.yul\":16711:16735   */\n      tag_394\n        /* \"#utility.yul\":16729:16734   */\n      dup3\n        /* \"#utility.yul\":16711:16735   */\n      tag_179\n      jump\t// in\n    tag_394:\n        /* \"#utility.yul\":16702:16735   */\n      swap2\n      pop\n        /* \"#utility.yul\":16757:16761   */\n      0x00\n        /* \"#utility.yul\":16750:16755   */\n      dup3\n        /* \"#utility.yul\":16747:16762   */\n      sub\n        /* \"#utility.yul\":16744:16785   */\n      tag_395\n      jumpi\n        /* \"#utility.yul\":16765:16783   */\n      tag_396\n      tag_218\n      jump\t// in\n    tag_396:\n        /* \"#utility.yul\":16744:16785   */\n    tag_395:\n        /* \"#utility.yul\":16812:16813   */\n      0x01\n        /* \"#utility.yul\":16805:16810   */\n      dup3\n        /* \"#utility.yul\":16801:16814   */\n      sub\n        /* \"#utility.yul\":16794:16814   */\n      swap1\n      pop\n        /* \"#utility.yul\":16649:16820   */\n      swap2\n      swap1\n      pop\n      jump\t// out\n        /* \"#utility.yul\":16826:17379   */\n    tag_95:\n        /* \"#utility.yul\":17003:17007   */\n      0x00\n        /* \"#utility.yul\":17041:17044   */\n      0x80\n        /* \"#utility.yul\":17030:17039   */\n      dup3\n        /* \"#utility.yul\":17026:17045   */\n      add\n        /* \"#utility.yul\":17018:17045   */\n      swap1\n      pop\n        /* \"#utility.yul\":17055:17126   */\n      tag_398\n        /* \"#utility.yul\":17123:17124   */\n      0x00\n        /* \"#utility.yul\":17112:17121   */\n      dup4\n        /* \"#utility.yul\":17108:17125   */\n      add\n        /* \"#utility.yul\":17099:17105   */\n      dup8\n        /* \"#utility.yul\":17055:17126   */\n      tag_183\n      jump\t// in\n    tag_398:\n        /* \"#utility.yul\":17136:17208   */\n      tag_399\n        /* \"#utility.yul\":17204:17206   */\n      0x20\n        /* \"#utility.yul\":17193:17202   */\n      dup4\n        /* \"#utility.yul\":17189:17207   */\n      add\n        /* \"#utility.yul\":17180:17186   */\n      dup7\n        /* \"#utility.yul\":17136:17208   */\n      tag_183\n      jump\t// in\n    tag_399:\n        /* \"#utility.yul\":17218:17290   */\n      tag_400\n        /* \"#utility.yul\":17286:17288   */\n      0x40\n        /* \"#utility.yul\":17275:17284   */\n      dup4\n        /* \"#utility.yul\":17271:17289   */\n      add\n        /* \"#utility.yul\":17262:17268   */\n      dup6\n        /* \"#utility.yul\":17218:17290   */\n      tag_182\n      jump\t// in\n    tag_400:\n        /* \"#utility.yul\":17300:17372   */\n      tag_401\n        /* \"#utility.yul\":17368:17370   */\n      0x60\n        /* \"#utility.yul\":17357:17366   */\n      dup4\n        /* \"#utility.yul\":17353:17371   */\n      add\n        /* \"#utility.yul\":17344:17350   */\n      dup5\n        /* \"#utility.yul\":17300:17372   */\n      tag_182\n      jump\t// in\n    tag_401:\n        /* \"#utility.yul\":16826:17379   */\n      swap6\n      swap5\n      pop\n      pop\n      pop\n      pop\n      pop\n      jump\t// out\n        /* \"#utility.yul\":17385:17616   */\n    tag_219:\n        /* \"#utility.yul\":17525:17559   */\n      0x596f75277265206e6f7420616c6c6f77656420746f2065786563757465207468\n        /* \"#utility.yul\":17521:17522   */\n      0x00\n        /* \"#utility.yul\":17513:17519   */\n      dup3\n        /* \"#utility.yul\":17509:17523   */\n      add\n        /* \"#utility.yul\":17502:17560   */\n      mstore\n        /* \"#utility.yul\":17594:17608   */\n      0x6973206f7065726174696f6e0000000000000000000000000000000000000000\n        /* \"#utility.yul\":17589:17591   */\n      0x20\n        /* \"#utility.yul\":17581:17587   */\n      dup3\n        /* \"#utility.yul\":17577:17592   */\n      add\n        /* \"#utility.yul\":17570:17609   */\n      mstore\n        /* \"#utility.yul\":17385:17616   */\n      pop\n      jump\t// out\n        /* \"#utility.yul\":17622:17988   */\n    tag_220:\n        /* \"#utility.yul\":17764:17767   */\n      0x00\n        /* \"#utility.yul\":17785:17852   */\n      tag_404\n        /* \"#utility.yul\":17849:17851   */\n      0x2c\n        /* \"#utility.yul\":17844:17847   */\n      dup4\n        /* \"#utility.yul\":17785:17852   */\n      tag_185\n      jump\t// in\n    tag_404:\n        /* \"#utility.yul\":17778:17852   */\n      swap2\n      pop\n        /* \"#utility.yul\":17861:17954   */\n      tag_405\n        /* \"#utility.yul\":17950:17953   */\n      dup3\n        /* \"#utility.yul\":17861:17954   */\n      tag_219\n      jump\t// in\n    tag_405:\n        /* \"#utility.yul\":17979:17981   */\n      0x40\n        /* \"#utility.yul\":17974:17977   */\n      dup3\n        /* \"#utility.yul\":17970:17982   */\n      add\n        /* \"#utility.yul\":17963:17982   */\n      swap1\n      pop\n        /* \"#utility.yul\":17622:17988   */\n      swap2\n      swap1\n      pop\n      jump\t// out\n        /* \"#utility.yul\":17994:18413   */\n    tag_99:\n        /* \"#utility.yul\":18160:18164   */\n      0x00\n        /* \"#utility.yul\":18198:18200   */\n      0x20\n        /* \"#utility.yul\":18187:18196   */\n      dup3\n        /* \"#utility.yul\":18183:18201   */\n      add\n        /* \"#utility.yul\":18175:18201   */\n      swap1\n      pop\n        /* \"#utility.yul\":18247:18256   */\n      dup2\n        /* \"#utility.yul\":18241:18245   */\n      dup2\n        /* \"#utility.yul\":18237:18257   */\n      sub\n        /* \"#utility.yul\":18233:18234   */\n      0x00\n        /* \"#utility.yul\":18222:18231   */\n      dup4\n        /* \"#utility.yul\":18218:18235   */\n      add\n        /* \"#utility.yul\":18211:18258   */\n      mstore\n        /* \"#utility.yul\":18275:18406   */\n      tag_407\n        /* \"#utility.yul\":18401:18405   */\n      dup2\n        /* \"#utility.yul\":18275:18406   */\n      tag_220\n      jump\t// in\n    tag_407:\n        /* \"#utility.yul\":18267:18406   */\n      swap1\n      pop\n        /* \"#utility.yul\":17994:18413   */\n      swap2\n      swap1\n      pop\n      jump\t// out\n        /* \"#utility.yul\":18419:18652   */\n    tag_112:\n        /* \"#utility.yul\":18458:18461   */\n      0x00\n        /* \"#utility.yul\":18481:18505   */\n      tag_409\n        /* \"#utility.yul\":18499:18504   */\n      dup3\n        /* \"#utility.yul\":18481:18505   */\n      tag_179\n      jump\t// in\n    tag_409:\n        /* \"#utility.yul\":18472:18505   */\n      swap2\n      pop\n        /* \"#utility.yul\":18527:18593   */\n      0xffffffffffffffffffffffffffffffffffffffffffffffffffffffffffffffff\n        /* \"#utility.yul\":18520:18525   */\n      dup3\n        /* \"#utility.yul\":18517:18594   */\n      sub\n        /* \"#utility.yul\":18514:18617   */\n      tag_410\n      jumpi\n        /* \"#utility.yul\":18597:18615   */\n      tag_411\n      tag_218\n      jump\t// in\n    tag_411:\n        /* \"#utility.yul\":18514:18617   */\n    tag_410:\n        /* \"#utility.yul\":18644:18645   */\n      0x01\n        /* \"#utility.yul\":18637:18642   */\n      dup3\n        /* \"#utility.yul\":18633:18646   */\n      add\n        /* \"#utility.yul\":18626:18646   */\n      swap1\n      pop\n        /* \"#utility.yul\":18419:18652   */\n      swap2\n      swap1\n      pop\n      jump\t// out\n        /* \"#utility.yul\":18658:18806   */\n    tag_221:\n        /* \"#utility.yul\":18760:18771   */\n      0x00\n        /* \"#utility.yul\":18797:18800   */\n      dup2\n        /* \"#utility.yul\":18782:18800   */\n      swap1\n      pop\n        /* \"#utility.yul\":18658:18806   */\n      swap3\n      swap2\n      pop\n      pop\n      jump\t// out\n        /* \"#utility.yul\":18812:19044   */\n    tag_222:\n        /* \"#utility.yul\":18952:18986   */\n      0x596f757220747765657420657863656564656420746865206c696d6974206f66\n        /* \"#utility.yul\":18948:18949   */\n      0x00\n        /* \"#utility.yul\":18940:18946   */\n      dup3\n        /* \"#utility.yul\":18936:18950   */\n      add\n        /* \"#utility.yul\":18929:18987   */\n      mstore\n        /* \"#utility.yul\":19021:19036   */\n      0x20636861726163746572733a2000000000000000000000000000000000000000\n        /* \"#utility.yul\":19016:19018   */\n      0x20\n        /* \"#utility.yul\":19008:19014   */\n      dup3\n        /* \"#utility.yul\":19004:19019   */\n      add\n        /* \"#utility.yul\":18997:19037   */\n      mstore\n        /* \"#utility.yul\":18812:19044   */\n      pop\n      jump\t// out\n        /* \"#utility.yul\":19050:19452   */\n    tag_223:\n        /* \"#utility.yul\":19210:19213   */\n      0x00\n        /* \"#utility.yul\":19231:19316   */\n      tag_415\n        /* \"#utility.yul\":19313:19315   */\n      0x2d\n        /* \"#utility.yul\":19308:19311   */\n      dup4\n        /* \"#utility.yul\":19231:19316   */\n      tag_221\n      jump\t// in\n    tag_415:\n        /* \"#utility.yul\":19224:19316   */\n      swap2\n      pop\n        /* \"#utility.yul\":19325:19418   */\n      tag_416\n        /* \"#utility.yul\":19414:19417   */\n      dup3\n        /* \"#utility.yul\":19325:19418   */\n      tag_222\n      jump\t// in\n    tag_416:\n        /* \"#utility.yul\":19443:19445   */\n      0x2d\n        /* \"#utility.yul\":19438:19441   */\n      dup3\n        /* \"#utility.yul\":19434:19446   */\n      add\n        /* \"#utility.yul\":19427:19446   */\n      swap1\n      pop\n        /* \"#utility.yul\":19050:19452   */\n      swap2\n      swap1\n      pop\n      jump\t// out\n        /* \"#utility.yul\":19458:19848   */\n    tag_224:\n        /* \"#utility.yul\":19564:19567   */\n      0x00\n        /* \"#utility.yul\":19592:19631   */\n      tag_418\n        /* \"#utility.yul\":19625:19630   */\n      dup3\n        /* \"#utility.yul\":19592:19631   */\n      tag_184\n      jump\t// in\n    tag_418:\n        /* \"#utility.yul\":19647:19736   */\n      tag_419\n        /* \"#utility.yul\":19729:19735   */\n      dup2\n        /* \"#utility.yul\":19724:19727   */\n      dup6\n        /* \"#utility.yul\":19647:19736   */\n      tag_221\n      jump\t// in\n    tag_419:\n        /* \"#utility.yul\":19640:19736   */\n      swap4\n      pop\n        /* \"#utility.yul\":19745:19810   */\n      tag_420\n        /* \"#utility.yul\":19803:19809   */\n      dup2\n        /* \"#utility.yul\":19798:19801   */\n      dup6\n        /* \"#utility.yul\":19791:19795   */\n      0x20\n        /* \"#utility.yul\":19784:19789   */\n      dup7\n        /* \"#utility.yul\":19780:19796   */\n      add\n        /* \"#utility.yul\":19745:19810   */\n      tag_186\n      jump\t// in\n    tag_420:\n        /* \"#utility.yul\":19835:19841   */\n      dup1\n        /* \"#utility.yul\":19830:19833   */\n      dup5\n        /* \"#utility.yul\":19826:19842   */\n      add\n        /* \"#utility.yul\":19819:19842   */\n      swap2\n      pop\n        /* \"#utility.yul\":19568:19848   */\n      pop\n        /* \"#utility.yul\":19458:19848   */\n      swap3\n      swap2\n      pop\n      pop\n      jump\t// out\n        /* \"#utility.yul\":19854:20395   */\n    tag_121:\n        /* \"#utility.yul\":20087:20090   */\n      0x00\n        /* \"#utility.yul\":20109:20257   */\n      tag_422\n        /* \"#utility.yul\":20253:20256   */\n      dup3\n        /* \"#utility.yul\":20109:20257   */\n      tag_223\n      jump\t// in\n    tag_422:\n        /* \"#utility.yul\":20102:20257   */\n      swap2\n      pop\n        /* \"#utility.yul\":20274:20369   */\n      tag_423\n        /* \"#utility.yul\":20365:20368   */\n      dup3\n        /* \"#utility.yul\":20356:20362   */\n      dup5\n        /* \"#utility.yul\":20274:20369   */\n      tag_224\n      jump\t// in\n    tag_423:\n        /* \"#utility.yul\":20267:20369   */\n      swap2\n      pop\n        /* \"#utility.yul\":20386:20389   */\n      dup2\n        /* \"#utility.yul\":20379:20389   */\n      swap1\n      pop\n        /* \"#utility.yul\":19854:20395   */\n      swap3\n      swap2\n      pop\n      pop\n      jump\t// out\n        /* \"#utility.yul\":20401:20714   */\n    tag_124:\n        /* \"#utility.yul\":20514:20518   */\n      0x00\n        /* \"#utility.yul\":20552:20554   */\n      0x20\n        /* \"#utility.yul\":20541:20550   */\n      dup3\n        /* \"#utility.yul\":20537:20555   */\n      add\n        /* \"#utility.yul\":20529:20555   */\n      swap1\n      pop\n        /* \"#utility.yul\":20601:20610   */\n      dup2\n        /* \"#utility.yul\":20595:20599   */\n      dup2\n        /* \"#utility.yul\":20591:20611   */\n      sub\n        /* \"#utility.yul\":20587:20588   */\n      0x00\n        /* \"#utility.yul\":20576:20585   */\n      dup4\n        /* \"#utility.yul\":20572:20589   */\n      add\n        /* \"#utility.yul\":20565:20612   */\n      mstore\n        /* \"#utility.yul\":20629:20707   */\n      tag_425\n        /* \"#utility.yul\":20702:20706   */\n      dup2\n        /* \"#utility.yul\":20693:20699   */\n      dup5\n        /* \"#utility.yul\":20629:20707   */\n      tag_188\n      jump\t// in\n    tag_425:\n        /* \"#utility.yul\":20621:20707   */\n      swap1\n      pop\n        /* \"#utility.yul\":20401:20714   */\n      swap3\n      swap2\n      pop\n      pop\n      jump\t// out\n        /* \"#utility.yul\":20720:20861   */\n    tag_225:\n        /* \"#utility.yul\":20769:20773   */\n      0x00\n        /* \"#utility.yul\":20792:20795   */\n      dup2\n        /* \"#utility.yul\":20784:20795   */\n      swap1\n      pop\n        /* \"#utility.yul\":20815:20818   */\n      dup2\n        /* \"#utility.yul\":20812:20813   */\n      0x00\n        /* \"#utility.yul\":20805:20819   */\n      mstore\n        /* \"#utility.yul\":20849:20853   */\n      0x20\n        /* \"#utility.yul\":20846:20847   */\n      0x00\n        /* \"#utility.yul\":20836:20854   */\n      keccak256\n        /* \"#utility.yul\":20828:20854   */\n      swap1\n      pop\n        /* \"#utility.yul\":20720:20861   */\n      swap2\n      swap1\n      pop\n      jump\t// out\n        /* \"#utility.yul\":20867:20960   */\n    tag_226:\n        /* \"#utility.yul\":20904:20910   */\n      0x00\n        /* \"#utility.yul\":20951:20953   */\n      0x20\n        /* \"#utility.yul\":20946:20948   */\n      0x1f\n        /* \"#utility.yul\":20939:20944   */\n      dup4\n        /* \"#utility.yul\":20935:20949   */\n      add\n        /* \"#utility.yul\":20931:20954   */\n      div\n        /* \"#utility.yul\":20921:20954   */\n      swap1\n      pop\n        /* \"#utility.yul\":20867:20960   */\n      swap2\n      swap1\n      pop\n      jump\t// out\n        /* \"#utility.yul\":20966:21073   */\n    tag_227:\n        /* \"#utility.yul\":21010:21018   */\n      0x00\n        /* \"#utility.yul\":21060:21065   */\n      dup3\n        /* \"#utility.yul\":21054:21058   */\n      dup3\n        /* \"#utility.yul\":21050:21066   */\n      shl\n        /* \"#utility.yul\":21029:21066   */\n      swap1\n      pop\n        /* \"#utility.yul\":20966:21073   */\n      swap3\n      swap2\n      pop\n      pop\n      jump\t// out\n        /* \"#utility.yul\":21079:21472   */\n    tag_228:\n        /* \"#utility.yul\":21148:21154   */\n      0x00\n        /* \"#utility.yul\":21198:21199   */\n      0x08\n        /* \"#utility.yul\":21186:21196   */\n      dup4\n        /* \"#utility.yul\":21182:21200   */\n      mul\n        /* \"#utility.yul\":21221:21318   */\n      tag_430\n        /* \"#utility.yul\":21251:21317   */\n      0xffffffffffffffffffffffffffffffffffffffffffffffffffffffffffffffff\n        /* \"#utility.yul\":21240:21249   */\n      dup3\n        /* \"#utility.yul\":21221:21318   */\n      tag_227\n      jump\t// in\n    tag_430:\n        /* \"#utility.yul\":21339:21378   */\n      tag_431\n        /* \"#utility.yul\":21369:21377   */\n      dup7\n        /* \"#utility.yul\":21358:21367   */\n      dup4\n        /* \"#utility.yul\":21339:21378   */\n      tag_227\n      jump\t// in\n    tag_431:\n        /* \"#utility.yul\":21327:21378   */\n      swap6\n      pop\n        /* \"#utility.yul\":21411:21415   */\n      dup1\n        /* \"#utility.yul\":21407:21416   */\n      not\n        /* \"#utility.yul\":21400:21405   */\n      dup5\n        /* \"#utility.yul\":21396:21417   */\n      and\n        /* \"#utility.yul\":21387:21417   */\n      swap4\n      pop\n        /* \"#utility.yul\":21460:21464   */\n      dup1\n        /* \"#utility.yul\":21450:21458   */\n      dup7\n        /* \"#utility.yul\":21446:21465   */\n      and\n        /* \"#utility.yul\":21439:21444   */\n      dup5\n        /* \"#utility.yul\":21436:21466   */\n      or\n        /* \"#utility.yul\":21426:21466   */\n      swap3\n      pop\n        /* \"#utility.yul\":21155:21472   */\n      pop\n      pop\n        /* \"#utility.yul\":21079:21472   */\n      swap4\n      swap3\n      pop\n      pop\n      pop\n      jump\t// out\n        /* \"#utility.yul\":21478:21538   */\n    tag_229:\n        /* \"#utility.yul\":21506:21509   */\n      0x00\n        /* \"#utility.yul\":21527:21532   */\n      dup2\n        /* \"#utility.yul\":21520:21532   */\n      swap1\n      pop\n        /* \"#utility.yul\":21478:21538   */\n      swap2\n      swap1\n      pop\n      jump\t// out\n        /* \"#utility.yul\":21544:21686   */\n    tag_230:\n        /* \"#utility.yul\":21594:21603   */\n      0x00\n        /* \"#utility.yul\":21627:21680   */\n      tag_434\n        /* \"#utility.yul\":21645:21679   */\n      tag_435\n        /* \"#utility.yul\":21654:21678   */\n      tag_436\n        /* \"#utility.yul\":21672:21677   */\n      dup5\n        /* \"#utility.yul\":21654:21678   */\n      tag_179\n      jump\t// in\n    tag_436:\n        /* \"#utility.yul\":21645:21679   */\n      tag_229\n      jump\t// in\n    tag_435:\n        /* \"#utility.yul\":21627:21680   */\n      tag_179\n      jump\t// in\n    tag_434:\n        /* \"#utility.yul\":21614:21680   */\n      swap1\n      pop\n        /* \"#utility.yul\":21544:21686   */\n      swap2\n      swap1\n      pop\n      jump\t// out\n        /* \"#utility.yul\":21692:21767   */\n    tag_231:\n        /* \"#utility.yul\":21735:21738   */\n      0x00\n        /* \"#utility.yul\":21756:21761   */\n      dup2\n        /* \"#utility.yul\":21749:21761   */\n      swap1\n      pop\n        /* \"#utility.yul\":21692:21767   */\n      swap2\n      swap1\n      pop\n      jump\t// out\n        /* \"#utility.yul\":21773:22042   */\n    tag_232:\n        /* \"#utility.yul\":21883:21922   */\n      tag_439\n        /* \"#utility.yul\":21914:21921   */\n      dup4\n        /* \"#utility.yul\":21883:21922   */\n      tag_230\n      jump\t// in\n    tag_439:\n        /* \"#utility.yul\":21944:22035   */\n      tag_440\n        /* \"#utility.yul\":21993:22034   */\n      tag_441\n        /* \"#utility.yul\":22017:22033   */\n      dup3\n        /* \"#utility.yul\":21993:22034   */\n      tag_231\n      jump\t// in\n    tag_441:\n        /* \"#utility.yul\":21985:21991   */\n      dup5\n        /* \"#utility.yul\":21978:21982   */\n      dup5\n        /* \"#utility.yul\":21972:21983   */\n      sload\n        /* \"#utility.yul\":21944:22035   */\n      tag_228\n      jump\t// in\n    tag_440:\n        /* \"#utility.yul\":21938:21942   */\n      dup3\n        /* \"#utility.yul\":21931:22036   */\n      sstore\n        /* \"#utility.yul\":21849:22042   */\n      pop\n        /* \"#utility.yul\":21773:22042   */\n      pop\n      pop\n      pop\n      jump\t// out\n        /* \"#utility.yul\":22048:22121   */\n    tag_233:\n        /* \"#utility.yul\":22093:22096   */\n      0x00\n        /* \"#utility.yul\":22048:22121   */\n      swap1\n      jump\t// out\n        /* \"#utility.yul\":22127:22316   */\n    tag_234:\n        /* \"#utility.yul\":22204:22236   */\n      tag_444\n      tag_233\n      jump\t// in\n    tag_444:\n        /* \"#utility.yul\":22245:22310   */\n      tag_445\n        /* \"#utility.yul\":22303:22309   */\n      dup2\n        /* \"#utility.yul\":22295:22301   */\n      dup5\n        /* \"#utility.yul\":22289:22293   */\n      dup5\n        /* \"#utility.yul\":22245:22310   */\n      tag_232\n      jump\t// in\n    tag_445:\n        /* \"#utility.yul\":22180:22316   */\n      pop\n        /* \"#utility.yul\":22127:22316   */\n      pop\n      pop\n      jump\t// out\n        /* \"#utility.yul\":22322:22508   */\n    tag_235:\n        /* \"#utility.yul\":22382:22502   */\n    tag_447:\n        /* \"#utility.yul\":22399:22402   */\n      dup2\n        /* \"#utility.yul\":22392:22397   */\n      dup2\n        /* \"#utility.yul\":22389:22403   */\n      lt\n        /* \"#utility.yul\":22382:22502   */\n      iszero\n      tag_449\n      jumpi\n        /* \"#utility.yul\":22453:22492   */\n      tag_450\n        /* \"#utility.yul\":22490:22491   */\n      0x00\n        /* \"#utility.yul\":22483:22488   */\n      dup3\n        /* \"#utility.yul\":22453:22492   */\n      tag_234\n      jump\t// in\n    tag_450:\n        /* \"#utility.yul\":22426:22427   */\n      0x01\n        /* \"#utility.yul\":22419:22424   */\n      dup2\n        /* \"#utility.yul\":22415:22428   */\n      add\n        /* \"#utility.yul\":22406:22428   */\n      swap1\n      pop\n        /* \"#utility.yul\":22382:22502   */\n      jump(tag_447)\n    tag_449:\n        /* \"#utility.yul\":22322:22508   */\n      pop\n      pop\n      jump\t// out\n        /* \"#utility.yul\":22514:23057   */\n    tag_236:\n        /* \"#utility.yul\":22615:22617   */\n      0x1f\n        /* \"#utility.yul\":22610:22613   */\n      dup3\n        /* \"#utility.yul\":22607:22618   */\n      gt\n        /* \"#utility.yul\":22604:23050   */\n      iszero\n      tag_452\n      jumpi\n        /* \"#utility.yul\":22649:22687   */\n      tag_453\n        /* \"#utility.yul\":22681:22686   */\n      dup2\n        /* \"#utility.yul\":22649:22687   */\n      tag_225\n      jump\t// in\n    tag_453:\n        /* \"#utility.yul\":22733:22762   */\n      tag_454\n        /* \"#utility.yul\":22751:22761   */\n      dup5\n        /* \"#utility.yul\":22733:22762   */\n      tag_226\n      jump\t// in\n    tag_454:\n        /* \"#utility.yul\":22723:22731   */\n      dup2\n        /* \"#utility.yul\":22719:22763   */\n      add\n        /* \"#utility.yul\":22916:22918   */\n      0x20\n        /* \"#utility.yul\":22904:22914   */\n      dup6\n        /* \"#utility.yul\":22901:22919   */\n      lt\n        /* \"#utility.yul\":22898:22947   */\n      iszero\n      tag_455\n      jumpi\n        /* \"#utility.yul\":22937:22945   */\n      dup2\n        /* \"#utility.yul\":22922:22945   */\n      swap1\n      pop\n        /* \"#utility.yul\":22898:22947   */\n    tag_455:\n        /* \"#utility.yul\":22960:23040   */\n      tag_456\n        /* \"#utility.yul\":23016:23038   */\n      tag_457\n        /* \"#utility.yul\":23034:23037   */\n      dup6\n        /* \"#utility.yul\":23016:23038   */\n      tag_226\n      jump\t// in\n    tag_457:\n        /* \"#utility.yul\":23006:23014   */\n      dup4\n        /* \"#utility.yul\":23002:23039   */\n      add\n        /* \"#utility.yul\":22989:23000   */\n      dup3\n        /* \"#utility.yul\":22960:23040   */\n      tag_235\n      jump\t// in\n    tag_456:\n        /* \"#utility.yul\":22619:23050   */\n      pop\n      pop\n        /* \"#utility.yul\":22604:23050   */\n    tag_452:\n        /* \"#utility.yul\":22514:23057   */\n      pop\n      pop\n      pop\n      jump\t// out\n        /* \"#utility.yul\":23063:23180   */\n    tag_237:\n        /* \"#utility.yul\":23117:23125   */\n      0x00\n        /* \"#utility.yul\":23167:23172   */\n      dup3\n        /* \"#utility.yul\":23161:23165   */\n      dup3\n        /* \"#utility.yul\":23157:23173   */\n      shr\n        /* \"#utility.yul\":23136:23173   */\n      swap1\n      pop\n        /* \"#utility.yul\":23063:23180   */\n      swap3\n      swap2\n      pop\n      pop\n      jump\t// out\n        /* \"#utility.yul\":23186:23355   */\n    tag_238:\n        /* \"#utility.yul\":23230:23236   */\n      0x00\n        /* \"#utility.yul\":23263:23314   */\n      tag_460\n        /* \"#utility.yul\":23311:23312   */\n      0x00\n        /* \"#utility.yul\":23307:23313   */\n      not\n        /* \"#utility.yul\":23299:23304   */\n      dup5\n        /* \"#utility.yul\":23296:23297   */\n      0x08\n        /* \"#utility.yul\":23292:23305   */\n      mul\n        /* \"#utility.yul\":23263:23314   */\n      tag_237\n      jump\t// in\n    tag_460:\n        /* \"#utility.yul\":23259:23315   */\n      not\n        /* \"#utility.yul\":23344:23348   */\n      dup1\n        /* \"#utility.yul\":23338:23342   */\n      dup4\n        /* \"#utility.yul\":23334:23349   */\n      and\n        /* \"#utility.yul\":23324:23349   */\n      swap2\n      pop\n        /* \"#utility.yul\":23237:23355   */\n      pop\n        /* \"#utility.yul\":23186:23355   */\n      swap3\n      swap2\n      pop\n      pop\n      jump\t// out\n        /* \"#utility.yul\":23360:23655   */\n    tag_239:\n        /* \"#utility.yul\":23436:23440   */\n      0x00\n        /* \"#utility.yul\":23582:23611   */\n      tag_462\n        /* \"#utility.yul\":23607:23610   */\n      dup4\n        /* \"#utility.yul\":23601:23605   */\n      dup4\n        /* \"#utility.yul\":23582:23611   */\n      tag_238\n      jump\t// in\n    tag_462:\n        /* \"#utility.yul\":23574:23611   */\n      swap2\n      pop\n        /* \"#utility.yul\":23644:23647   */\n      dup3\n        /* \"#utility.yul\":23641:23642   */\n      0x02\n        /* \"#utility.yul\":23637:23648   */\n      mul\n        /* \"#utility.yul\":23631:23635   */\n      dup3\n        /* \"#utility.yul\":23628:23649   */\n      or\n        /* \"#utility.yul\":23620:23649   */\n      swap1\n      pop\n        /* \"#utility.yul\":23360:23655   */\n      swap3\n      swap2\n      pop\n      pop\n      jump\t// out\n        /* \"#utility.yul\":23660:25055   */\n    tag_127:\n        /* \"#utility.yul\":23777:23814   */\n      tag_464\n        /* \"#utility.yul\":23810:23813   */\n      dup3\n        /* \"#utility.yul\":23777:23814   */\n      tag_184\n      jump\t// in\n    tag_464:\n        /* \"#utility.yul\":23879:23897   */\n      0xffffffffffffffff\n        /* \"#utility.yul\":23871:23877   */\n      dup2\n        /* \"#utility.yul\":23868:23898   */\n      gt\n        /* \"#utility.yul\":23865:23921   */\n      iszero\n      tag_465\n      jumpi\n        /* \"#utility.yul\":23901:23919   */\n      tag_466\n      tag_144\n      jump\t// in\n    tag_466:\n        /* \"#utility.yul\":23865:23921   */\n    tag_465:\n        /* \"#utility.yul\":23945:23983   */\n      tag_467\n        /* \"#utility.yul\":23977:23981   */\n      dup3\n        /* \"#utility.yul\":23971:23982   */\n      sload\n        /* \"#utility.yul\":23945:23983   */\n      tag_55\n      jump\t// in\n    tag_467:\n        /* \"#utility.yul\":24030:24097   */\n      tag_468\n        /* \"#utility.yul\":24090:24096   */\n      dup3\n        /* \"#utility.yul\":24082:24088   */\n      dup3\n        /* \"#utility.yul\":24076:24080   */\n      dup6\n        /* \"#utility.yul\":24030:24097   */\n      tag_236\n      jump\t// in\n    tag_468:\n        /* \"#utility.yul\":24124:24125   */\n      0x00\n        /* \"#utility.yul\":24148:24152   */\n      0x20\n        /* \"#utility.yul\":24135:24152   */\n      swap1\n      pop\n        /* \"#utility.yul\":24180:24182   */\n      0x1f\n        /* \"#utility.yul\":24172:24178   */\n      dup4\n        /* \"#utility.yul\":24169:24183   */\n      gt\n        /* \"#utility.yul\":24197:24198   */\n      0x01\n        /* \"#utility.yul\":24192:24810   */\n      dup2\n      eq\n      tag_470\n      jumpi\n        /* \"#utility.yul\":24854:24855   */\n      0x00\n        /* \"#utility.yul\":24871:24877   */\n      dup5\n        /* \"#utility.yul\":24868:24945   */\n      iszero\n      tag_471\n      jumpi\n        /* \"#utility.yul\":24920:24929   */\n      dup3\n        /* \"#utility.yul\":24915:24918   */\n      dup8\n        /* \"#utility.yul\":24911:24930   */\n      add\n        /* \"#utility.yul\":24905:24931   */\n      mload\n        /* \"#utility.yul\":24896:24931   */\n      swap1\n      pop\n        /* \"#utility.yul\":24868:24945   */\n    tag_471:\n        /* \"#utility.yul\":24971:25038   */\n      tag_472\n        /* \"#utility.yul\":25031:25037   */\n      dup6\n        /* \"#utility.yul\":25024:25029   */\n      dup3\n        /* \"#utility.yul\":24971:25038   */\n      tag_239\n      jump\t// in\n    tag_472:\n        /* \"#utility.yul\":24965:24969   */\n      dup7\n        /* \"#utility.yul\":24958:25039   */\n      sstore\n        /* \"#utility.yul\":24827:25049   */\n      pop\n        /* \"#utility.yul\":24162:25049   */\n      jump(tag_469)\n        /* \"#utility.yul\":24192:24810   */\n    tag_470:\n        /* \"#utility.yul\":24244:24248   */\n      0x1f\n        /* \"#utility.yul\":24240:24249   */\n      not\n        /* \"#utility.yul\":24232:24238   */\n      dup5\n        /* \"#utility.yul\":24228:24250   */\n      and\n        /* \"#utility.yul\":24278:24315   */\n      tag_473\n        /* \"#utility.yul\":24310:24314   */\n      dup7\n        /* \"#utility.yul\":24278:24315   */\n      tag_225\n      jump\t// in\n    tag_473:\n        /* \"#utility.yul\":24337:24338   */\n      0x00\n        /* \"#utility.yul\":24351:24559   */\n    tag_474:\n        /* \"#utility.yul\":24365:24372   */\n      dup3\n        /* \"#utility.yul\":24362:24363   */\n      dup2\n        /* \"#utility.yul\":24359:24373   */\n      lt\n        /* \"#utility.yul\":24351:24559   */\n      iszero\n      tag_476\n      jumpi\n        /* \"#utility.yul\":24444:24453   */\n      dup5\n        /* \"#utility.yul\":24439:24442   */\n      dup10\n        /* \"#utility.yul\":24435:24454   */\n      add\n        /* \"#utility.yul\":24429:24455   */\n      mload\n        /* \"#utility.yul\":24421:24427   */\n      dup3\n        /* \"#utility.yul\":24414:24456   */\n      sstore\n        /* \"#utility.yul\":24495:24496   */\n      0x01\n        /* \"#utility.yul\":24487:24493   */\n      dup3\n        /* \"#utility.yul\":24483:24497   */\n      add\n        /* \"#utility.yul\":24473:24497   */\n      swap2\n      pop\n        /* \"#utility.yul\":24542:24544   */\n      0x20\n        /* \"#utility.yul\":24531:24540   */\n      dup6\n        /* \"#utility.yul\":24527:24545   */\n      add\n        /* \"#utility.yul\":24514:24545   */\n      swap5\n      pop\n        /* \"#utility.yul\":24388:24392   */\n      0x20\n        /* \"#utility.yul\":24385:24386   */\n      dup2\n        /* \"#utility.yul\":24381:24393   */\n      add\n        /* \"#utility.yul\":24376:24393   */\n      swap1\n      pop\n        /* \"#utility.yul\":24351:24559   */\n      jump(tag_474)\n    tag_476:\n        /* \"#utility.yul\":24587:24593   */\n      dup7\n        /* \"#utility.yul\":24578:24585   */\n      dup4\n        /* \"#utility.yul\":24575:24594   */\n      lt\n        /* \"#utility.yul\":24572:24751   */\n      iszero\n      tag_477\n      jumpi\n        /* \"#utility.yul\":24645:24654   */\n      dup5\n        /* \"#utility.yul\":24640:24643   */\n      dup10\n        /* \"#utility.yul\":24636:24655   */\n      add\n        /* \"#utility.yul\":24630:24656   */\n      mload\n        /* \"#utility.yul\":24688:24736   */\n      tag_478\n        /* \"#utility.yul\":24730:24734   */\n      0x1f\n        /* \"#utility.yul\":24722:24728   */\n      dup10\n        /* \"#utility.yul\":24718:24735   */\n      and\n        /* \"#utility.yul\":24707:24716   */\n      dup3\n        /* \"#utility.yul\":24688:24736   */\n      tag_238\n      jump\t// in\n    tag_478:\n        /* \"#utility.yul\":24680:24686   */\n      dup4\n        /* \"#utility.yul\":24673:24737   */\n      sstore\n        /* \"#utility.yul\":24595:24751   */\n      pop\n        /* \"#utility.yul\":24572:24751   */\n    tag_477:\n        /* \"#utility.yul\":24797:24798   */\n      0x01\n        /* \"#utility.yul\":24793:24794   */\n      0x02\n        /* \"#utility.yul\":24785:24791   */\n      dup9\n        /* \"#utility.yul\":24781:24795   */\n      mul\n        /* \"#utility.yul\":24777:24799   */\n      add\n        /* \"#utility.yul\":24771:24775   */\n      dup9\n        /* \"#utility.yul\":24764:24800   */\n      sstore\n        /* \"#utility.yul\":24199:24810   */\n      pop\n      pop\n      pop\n        /* \"#utility.yul\":24162:25049   */\n    tag_469:\n      pop\n        /* \"#utility.yul\":23752:25055   */\n      pop\n      pop\n      pop\n        /* \"#utility.yul\":23660:25055   */\n      pop\n      pop\n      jump\t// out\n        /* \"#utility.yul\":25061:25705   */\n    tag_129:\n        /* \"#utility.yul\":25258:25262   */\n      0x00\n        /* \"#utility.yul\":25296:25299   */\n      0x80\n        /* \"#utility.yul\":25285:25294   */\n      dup3\n        /* \"#utility.yul\":25281:25300   */\n      add\n        /* \"#utility.yul\":25273:25300   */\n      swap1\n      pop\n        /* \"#utility.yul\":25310:25381   */\n      tag_480\n        /* \"#utility.yul\":25378:25379   */\n      0x00\n        /* \"#utility.yul\":25367:25376   */\n      dup4\n        /* \"#utility.yul\":25363:25380   */\n      add\n        /* \"#utility.yul\":25354:25360   */\n      dup8\n        /* \"#utility.yul\":25310:25381   */\n      tag_182\n      jump\t// in\n    tag_480:\n        /* \"#utility.yul\":25391:25463   */\n      tag_481\n        /* \"#utility.yul\":25459:25461   */\n      0x20\n        /* \"#utility.yul\":25448:25457   */\n      dup4\n        /* \"#utility.yul\":25444:25462   */\n      add\n        /* \"#utility.yul\":25435:25441   */\n      dup7\n        /* \"#utility.yul\":25391:25463   */\n      tag_183\n      jump\t// in\n    tag_481:\n        /* \"#utility.yul\":25510:25519   */\n      dup2\n        /* \"#utility.yul\":25504:25508   */\n      dup2\n        /* \"#utility.yul\":25500:25520   */\n      sub\n        /* \"#utility.yul\":25495:25497   */\n      0x40\n        /* \"#utility.yul\":25484:25493   */\n      dup4\n        /* \"#utility.yul\":25480:25498   */\n      add\n        /* \"#utility.yul\":25473:25521   */\n      mstore\n        /* \"#utility.yul\":25538:25616   */\n      tag_482\n        /* \"#utility.yul\":25611:25615   */\n      dup2\n        /* \"#utility.yul\":25602:25608   */\n      dup6\n        /* \"#utility.yul\":25538:25616   */\n      tag_188\n      jump\t// in\n    tag_482:\n        /* \"#utility.yul\":25530:25616   */\n      swap1\n      pop\n        /* \"#utility.yul\":25626:25698   */\n      tag_483\n        /* \"#utility.yul\":25694:25696   */\n      0x60\n        /* \"#utility.yul\":25683:25692   */\n      dup4\n        /* \"#utility.yul\":25679:25697   */\n      add\n        /* \"#utility.yul\":25670:25676   */\n      dup5\n        /* \"#utility.yul\":25626:25698   */\n      tag_182\n      jump\t// in\n    tag_483:\n        /* \"#utility.yul\":25061:25705   */\n      swap6\n      swap5\n      pop\n      pop\n      pop\n      pop\n      pop\n      jump\t// out\n        /* \"#utility.yul\":25711:25891   */\n    tag_150:\n        /* \"#utility.yul\":25759:25836   */\n      0x4e487b7100000000000000000000000000000000000000000000000000000000\n        /* \"#utility.yul\":25756:25757   */\n      0x00\n        /* \"#utility.yul\":25749:25837   */\n      mstore\n        /* \"#utility.yul\":25856:25860   */\n      0x12\n        /* \"#utility.yul\":25853:25854   */\n      0x04\n        /* \"#utility.yul\":25846:25861   */\n      mstore\n        /* \"#utility.yul\":25880:25884   */\n      0x24\n        /* \"#utility.yul\":25877:25878   */\n      0x00\n        /* \"#utility.yul\":25870:25885   */\n      revert\n\n    auxdata: 0xa26469706673582212200f8015575dd48d0ce5c7e2383afc7774eec374e3d3e03b7e83d1929a6f25600264736f6c634300081a0033\n}\n",
				"bytecode": {
					"linkReferences": {},
					"object": "60806040526101185f806101000a81548161ffff021916908361ffff160217905550348015602b575f80fd5b503360025f6101000a81548173ffffffffffffffffffffffffffffffffffffffff021916908373ffffffffffffffffffffffffffffffffffffffff160217905550611c75806100795f395ff3fe608060405234801561000f575f80fd5b5060043610610091575f3560e01c8063633782161161006457806363378216146101315780637c9cd2bc1461014d578063808b0cf1146101695780638da5cb5b14610199578063fd10b7df146101b757610091565b806305a1b4a914610095578063112f54e3146100c95780633d9b569f146100f957806358bfa4ab14610115575b5f80fd5b6100af60048036038101906100aa9190610fff565b6101d5565b6040516100c09594939291906110cb565b60405180910390f35b6100e360048036038101906100de9190610fff565b6102c6565b6040516100f091906111fc565b60405180910390f35b610113600480360381019061010e9190610fff565b61043e565b005b61012f600480360381019061012a9190611253565b610693565b005b61014b60048036038101906101469190610fff565b610740565b005b610167600480360381019061016291906113aa565b6108f5565b005b610183600480360381019061017e91906113f1565b610b34565b604051610190919061154a565b60405180910390f35b6101a1610ccf565b6040516101ae919061156a565b60405180910390f35b6101bf610cf4565b6040516101cc9190611592565b60405180910390f35b6001602052815f5260405f2081815481106101ee575f80fd5b905f5260205f2090600502015f9150915050805f015490806001015f9054906101000a900473ffffffffffffffffffffffffffffffffffffffff1690806002018054610239906115d8565b80601f0160208091040260200160405190810160405280929190818152602001828054610265906115d8565b80156102b05780601f10610287576101008083540402835291602001916102b0565b820191905f5260205f20905b81548152906001019060200180831161029357829003601f168201915b5050505050908060030154908060040154905085565b6102ce610f20565b60015f8473ffffffffffffffffffffffffffffffffffffffff1673ffffffffffffffffffffffffffffffffffffffff1681526020019081526020015f20828154811061031d5761031c611608565b5b905f5260205f2090600502016040518060a00160405290815f8201548152602001600182015f9054906101000a900473ffffffffffffffffffffffffffffffffffffffff1673ffffffffffffffffffffffffffffffffffffffff1673ffffffffffffffffffffffffffffffffffffffff1681526020016002820180546103a2906115d8565b80601f01602080910402602001604051908101604052809291908181526020018280546103ce906115d8565b80156104195780601f106103f057610100808354040283529160200191610419565b820191905f5260205f20905b8154815290600101906020018083116103fc57829003601f168201915b5050505050815260200160038201548152602001600482015481525050905092915050565b81818060015f8473ffffffffffffffffffffffffffffffffffffffff1673ffffffffffffffffffffffffffffffffffffffff1681526020019081526020015f2082815481106104905761048f611608565b5b905f5260205f2090600502015f0154146104df576040517f08c379a00000000000000000000000000000000000000000000000000000000081526004016104d69061167f565b60405180910390fd5b5f60015f8673ffffffffffffffffffffffffffffffffffffffff1673ffffffffffffffffffffffffffffffffffffffff1681526020019081526020015f20848154811061052f5761052e611608565b5b905f5260205f209060050201600401541161057f576040517f08c379a0000000000000000000000000000000000000000000000000000000008152600401610576906116e7565b60405180910390fd5b60015f8573ffffffffffffffffffffffffffffffffffffffff1673ffffffffffffffffffffffffffffffffffffffff1681526020019081526020015f2083815481106105ce576105cd611608565b5b905f5260205f2090600502016004015f8154809291906105ed90611732565b91905055507f762c2616349603ac16eba0de8e6141b79129a07ab63bd99e0a80b3a47171694333858560015f8973ffffffffffffffffffffffffffffffffffffffff1673ffffffffffffffffffffffffffffffffffffffff1681526020019081526020015f20878154811061066557610664611608565b5b905f5260205f209060050201600401546040516106859493929190611759565b60405180910390a150505050565b60025f9054906101000a900473ffffffffffffffffffffffffffffffffffffffff1673ffffffffffffffffffffffffffffffffffffffff163373ffffffffffffffffffffffffffffffffffffffff1614610722576040517f08c379a00000000000000000000000000000000000000000000000000000000081526004016107199061180c565b60405180910390fd5b805f806101000a81548161ffff021916908361ffff16021790555050565b81818060015f8473ffffffffffffffffffffffffffffffffffffffff1673ffffffffffffffffffffffffffffffffffffffff1681526020019081526020015f20828154811061079257610791611608565b5b905f5260205f2090600502015f0154146107e1576040517f08c379a00000000000000000000000000000000000000000000000000000000081526004016107d89061167f565b60405180910390fd5b60015f8573ffffffffffffffffffffffffffffffffffffffff1673ffffffffffffffffffffffffffffffffffffffff1681526020019081526020015f2083815481106108305761082f611608565b5b905f5260205f2090600502016004015f81548092919061084f9061182a565b91905055507fe8a76fc0f16d11a00d1e93b689b63d76cf60af914dd3d915375dc41d01a0c3c833858560015f8973ffffffffffffffffffffffffffffffffffffffff1673ffffffffffffffffffffffffffffffffffffffff1681526020019081526020015f2087815481106108c7576108c6611608565b5b905f5260205f209060050201600401546040516108e79493929190611759565b60405180910390a150505050565b5f8054906101000a900461ffff1661ffff16815111156109255f8054906101000a900461ffff1661ffff16610d05565b604051602001610935919061191b565b60405160208183030381529060405290610985576040517f08c379a000000000000000000000000000000000000000000000000000000000815260040161097c919061193c565b60405180910390fd5b505f6040518060a0016040528060015f3373ffffffffffffffffffffffffffffffffffffffff1673ffffffffffffffffffffffffffffffffffffffff1681526020019081526020015f208054905081526020013373ffffffffffffffffffffffffffffffffffffffff1681526020018381526020014281526020015f815250905060015f3373ffffffffffffffffffffffffffffffffffffffff1673ffffffffffffffffffffffffffffffffffffffff1681526020019081526020015f2081908060018154018082558091505060019003905f5260205f2090600502015f909190919091505f820151815f01556020820151816001015f6101000a81548173ffffffffffffffffffffffffffffffffffffffff021916908373ffffffffffffffffffffffffffffffffffffffff1602179055506040820151816002019081610acd9190611af9565b50606082015181600301556080820151816004015550507f16fd3c13e9d46923e0a8bce11c7b473ec508a72e6c96cd2404b29ce972afc29e815f0151826020015183604001518460600151604051610b289493929190611bc8565b60405180910390a15050565b606060015f8373ffffffffffffffffffffffffffffffffffffffff1673ffffffffffffffffffffffffffffffffffffffff1681526020019081526020015f20805480602002602001604051908101604052809291908181526020015f905b82821015610cc4578382905f5260205f2090600502016040518060a00160405290815f8201548152602001600182015f9054906101000a900473ffffffffffffffffffffffffffffffffffffffff1673ffffffffffffffffffffffffffffffffffffffff1673ffffffffffffffffffffffffffffffffffffffff168152602001600282018054610c21906115d8565b80601f0160208091040260200160405190810160405280929190818152602001828054610c4d906115d8565b8015610c985780601f10610c6f57610100808354040283529160200191610c98565b820191905f5260205f20905b815481529060010190602001808311610c7b57829003601f168201915b505050505081526020016003820154815260200160048201548152505081526020019060010190610b92565b505050509050919050565b60025f9054906101000a900473ffffffffffffffffffffffffffffffffffffffff1681565b5f8054906101000a900461ffff1681565b60605f6001610d1384610dcf565b0190505f8167ffffffffffffffff811115610d3157610d30611286565b5b6040519080825280601f01601f191660200182016040528015610d635781602001600182028036833780820191505090505b5090505f82602001820190505b600115610dc4578080600190039150507f3031323334353637383961626364656600000000000000000000000000000000600a86061a8153600a8581610db957610db8611c12565b5b0494505f8503610d70575b819350505050919050565b5f805f90507a184f03e93ff9f4daa797ed6e38ed64bf6a1f0100000000000000008310610e2b577a184f03e93ff9f4daa797ed6e38ed64bf6a1f0100000000000000008381610e2157610e20611c12565b5b0492506040810190505b6d04ee2d6d415b85acef81000000008310610e68576d04ee2d6d415b85acef81000000008381610e5e57610e5d611c12565b5b0492506020810190505b662386f26fc100008310610e9757662386f26fc100008381610e8d57610e8c611c12565b5b0492506010810190505b6305f5e1008310610ec0576305f5e1008381610eb657610eb5611c12565b5b0492506008810190505b6127108310610ee5576127108381610edb57610eda611c12565b5b0492506004810190505b60648310610f085760648381610efe57610efd611c12565b5b0492506002810190505b600a8310610f17576001810190505b80915050919050565b6040518060a001604052805f81526020015f73ffffffffffffffffffffffffffffffffffffffff168152602001606081526020015f81526020015f81525090565b5f604051905090565b5f80fd5b5f80fd5b5f73ffffffffffffffffffffffffffffffffffffffff82169050919050565b5f610f9b82610f72565b9050919050565b610fab81610f91565b8114610fb5575f80fd5b50565b5f81359050610fc681610fa2565b92915050565b5f819050919050565b610fde81610fcc565b8114610fe8575f80fd5b50565b5f81359050610ff981610fd5565b92915050565b5f806040838503121561101557611014610f6a565b5b5f61102285828601610fb8565b925050602061103385828601610feb565b9150509250929050565b61104681610fcc565b82525050565b61105581610f91565b82525050565b5f81519050919050565b5f82825260208201905092915050565b8281835e5f83830152505050565b5f601f19601f8301169050919050565b5f61109d8261105b565b6110a78185611065565b93506110b7818560208601611075565b6110c081611083565b840191505092915050565b5f60a0820190506110de5f83018861103d565b6110eb602083018761104c565b81810360408301526110fd8186611093565b905061110c606083018561103d565b611119608083018461103d565b9695505050505050565b61112c81610fcc565b82525050565b61113b81610f91565b82525050565b5f82825260208201905092915050565b5f61115b8261105b565b6111658185611141565b9350611175818560208601611075565b61117e81611083565b840191505092915050565b5f60a083015f83015161119e5f860182611123565b5060208301516111b16020860182611132565b50604083015184820360408601526111c98282611151565b91505060608301516111de6060860182611123565b5060808301516111f16080860182611123565b508091505092915050565b5f6020820190508181035f8301526112148184611189565b905092915050565b5f61ffff82169050919050565b6112328161121c565b811461123c575f80fd5b50565b5f8135905061124d81611229565b92915050565b5f6020828403121561126857611267610f6a565b5b5f6112758482850161123f565b91505092915050565b5f80fd5b5f80fd5b7f4e487b71000000000000000000000000000000000000000000000000000000005f52604160045260245ffd5b6112bc82611083565b810181811067ffffffffffffffff821117156112db576112da611286565b5b80604052505050565b5f6112ed610f61565b90506112f982826112b3565b919050565b5f67ffffffffffffffff82111561131857611317611286565b5b61132182611083565b9050602081019050919050565b828183375f83830152505050565b5f61134e611349846112fe565b6112e4565b90508281526020810184848401111561136a57611369611282565b5b61137584828561132e565b509392505050565b5f82601f8301126113915761139061127e565b5b81356113a184826020860161133c565b91505092915050565b5f602082840312156113bf576113be610f6a565b5b5f82013567ffffffffffffffff8111156113dc576113db610f6e565b5b6113e88482850161137d565b91505092915050565b5f6020828403121561140657611405610f6a565b5b5f61141384828501610fb8565b91505092915050565b5f81519050919050565b5f82825260208201905092915050565b5f819050602082019050919050565b5f60a083015f83015161145a5f860182611123565b50602083015161146d6020860182611132565b50604083015184820360408601526114858282611151565b915050606083015161149a6060860182611123565b5060808301516114ad6080860182611123565b508091505092915050565b5f6114c38383611445565b905092915050565b5f602082019050919050565b5f6114e18261141c565b6114eb8185611426565b9350836020820285016114fd85611436565b805f5b85811015611538578484038952815161151985826114b8565b9450611524836114cb565b925060208a01995050600181019050611500565b50829750879550505050505092915050565b5f6020820190508181035f83015261156281846114d7565b905092915050565b5f60208201905061157d5f83018461104c565b92915050565b61158c8161121c565b82525050565b5f6020820190506115a55f830184611583565b92915050565b7f4e487b71000000000000000000000000000000000000000000000000000000005f52602260045260245ffd5b5f60028204905060018216806115ef57607f821691505b602082108103611602576116016115ab565b5b50919050565b7f4e487b71000000000000000000000000000000000000000000000000000000005f52603260045260245ffd5b7f547765657420646f6573206e6f742065786973742100000000000000000000005f82015250565b5f611669601583611065565b915061167482611635565b602082019050919050565b5f6020820190508181035f8301526116968161165d565b9050919050565b7f547765657420686173206e6f206c696b657321000000000000000000000000005f82015250565b5f6116d1601383611065565b91506116dc8261169d565b602082019050919050565b5f6020820190508181035f8301526116fe816116c5565b9050919050565b7f4e487b71000000000000000000000000000000000000000000000000000000005f52601160045260245ffd5b5f61173c82610fcc565b91505f820361174e5761174d611705565b5b600182039050919050565b5f60808201905061176c5f83018761104c565b611779602083018661104c565b611786604083018561103d565b611793606083018461103d565b95945050505050565b7f596f75277265206e6f7420616c6c6f77656420746f20657865637574652074685f8201527f6973206f7065726174696f6e0000000000000000000000000000000000000000602082015250565b5f6117f6602c83611065565b91506118018261179c565b604082019050919050565b5f6020820190508181035f830152611823816117ea565b9050919050565b5f61183482610fcc565b91507fffffffffffffffffffffffffffffffffffffffffffffffffffffffffffffffff820361186657611865611705565b5b600182019050919050565b5f81905092915050565b7f596f757220747765657420657863656564656420746865206c696d6974206f665f8201527f20636861726163746572733a2000000000000000000000000000000000000000602082015250565b5f6118d5602d83611871565b91506118e08261187b565b602d82019050919050565b5f6118f58261105b565b6118ff8185611871565b935061190f818560208601611075565b80840191505092915050565b5f611925826118c9565b915061193182846118eb565b915081905092915050565b5f6020820190508181035f8301526119548184611093565b905092915050565b5f819050815f5260205f209050919050565b5f6020601f8301049050919050565b5f82821b905092915050565b5f600883026119b87fffffffffffffffffffffffffffffffffffffffffffffffffffffffffffffffff8261197d565b6119c2868361197d565b95508019841693508086168417925050509392505050565b5f819050919050565b5f6119fd6119f86119f384610fcc565b6119da565b610fcc565b9050919050565b5f819050919050565b611a16836119e3565b611a2a611a2282611a04565b848454611989565b825550505050565b5f90565b611a3e611a32565b611a49818484611a0d565b505050565b5b81811015611a6c57611a615f82611a36565b600181019050611a4f565b5050565b601f821115611ab157611a828161195c565b611a8b8461196e565b81016020851015611a9a578190505b611aae611aa68561196e565b830182611a4e565b50505b505050565b5f82821c905092915050565b5f611ad15f1984600802611ab6565b1980831691505092915050565b5f611ae98383611ac2565b9150826002028217905092915050565b611b028261105b565b67ffffffffffffffff811115611b1b57611b1a611286565b5b611b2582546115d8565b611b30828285611a70565b5f60209050601f831160018114611b61575f8415611b4f578287015190505b611b598582611ade565b865550611bc0565b601f198416611b6f8661195c565b5f5b82811015611b9657848901518255600182019150602085019450602081019050611b71565b86831015611bb35784890151611baf601f891682611ac2565b8355505b6001600288020188555050505b505050505050565b5f608082019050611bdb5f83018761103d565b611be8602083018661104c565b8181036040830152611bfa8185611093565b9050611c09606083018461103d565b95945050505050565b7f4e487b71000000000000000000000000000000000000000000000000000000005f52601260045260245ffdfea26469706673582212200f8015575dd48d0ce5c7e2383afc7774eec374e3d3e03b7e83d1929a6f25600264736f6c634300081a0033",
					"opcodes": "PUSH1 0x80 PUSH1 0x40 MSTORE PUSH2 0x118 PUSH0 DUP1 PUSH2 0x100 EXP DUP2 SLOAD DUP2 PUSH2 0xFFFF MUL NOT AND SWAP1 DUP4 PUSH2 0xFFFF AND MUL OR SWAP1 SSTORE POP CALLVALUE DUP1 ISZERO PUSH1 0x2B JUMPI PUSH0 DUP1 REVERT JUMPDEST POP CALLER PUSH1 0x2 PUSH0 PUSH2 0x100 EXP DUP2 SLOAD DUP2 PUSH20 0xFFFFFFFFFFFFFFFFFFFFFFFFFFFFFFFFFFFFFFFF MUL NOT AND SWAP1 DUP4 PUSH20 0xFFFFFFFFFFFFFFFFFFFFFFFFFFFFFFFFFFFFFFFF AND MUL OR SWAP1 SSTORE POP PUSH2 0x1C75 DUP1 PUSH2 0x79 PUSH0 CODECOPY PUSH0 RETURN INVALID PUSH1 0x80 PUSH1 0x40 MSTORE CALLVALUE DUP1 ISZERO PUSH2 0xF JUMPI PUSH0 DUP1 REVERT JUMPDEST POP PUSH1 0x4 CALLDATASIZE LT PUSH2 0x91 JUMPI PUSH0 CALLDATALOAD PUSH1 0xE0 SHR DUP1 PUSH4 0x63378216 GT PUSH2 0x64 JUMPI DUP1 PUSH4 0x63378216 EQ PUSH2 0x131 JUMPI DUP1 PUSH4 0x7C9CD2BC EQ PUSH2 0x14D JUMPI DUP1 PUSH4 0x808B0CF1 EQ PUSH2 0x169 JUMPI DUP1 PUSH4 0x8DA5CB5B EQ PUSH2 0x199 JUMPI DUP1 PUSH4 0xFD10B7DF EQ PUSH2 0x1B7 JUMPI PUSH2 0x91 JUMP JUMPDEST DUP1 PUSH4 0x5A1B4A9 EQ PUSH2 0x95 JUMPI DUP1 PUSH4 0x112F54E3 EQ PUSH2 0xC9 JUMPI DUP1 PUSH4 0x3D9B569F EQ PUSH2 0xF9 JUMPI DUP1 PUSH4 0x58BFA4AB EQ PUSH2 0x115 JUMPI JUMPDEST PUSH0 DUP1 REVERT JUMPDEST PUSH2 0xAF PUSH1 0x4 DUP1 CALLDATASIZE SUB DUP2 ADD SWAP1 PUSH2 0xAA SWAP2 SWAP1 PUSH2 0xFFF JUMP JUMPDEST PUSH2 0x1D5 JUMP JUMPDEST PUSH1 0x40 MLOAD PUSH2 0xC0 SWAP6 SWAP5 SWAP4 SWAP3 SWAP2 SWAP1 PUSH2 0x10CB JUMP JUMPDEST PUSH1 0x40 MLOAD DUP1 SWAP2 SUB SWAP1 RETURN JUMPDEST PUSH2 0xE3 PUSH1 0x4 DUP1 CALLDATASIZE SUB DUP2 ADD SWAP1 PUSH2 0xDE SWAP2 SWAP1 PUSH2 0xFFF JUMP JUMPDEST PUSH2 0x2C6 JUMP JUMPDEST PUSH1 0x40 MLOAD PUSH2 0xF0 SWAP2 SWAP1 PUSH2 0x11FC JUMP JUMPDEST PUSH1 0x40 MLOAD DUP1 SWAP2 SUB SWAP1 RETURN JUMPDEST PUSH2 0x113 PUSH1 0x4 DUP1 CALLDATASIZE SUB DUP2 ADD SWAP1 PUSH2 0x10E SWAP2 SWAP1 PUSH2 0xFFF JUMP JUMPDEST PUSH2 0x43E JUMP JUMPDEST STOP JUMPDEST PUSH2 0x12F PUSH1 0x4 DUP1 CALLDATASIZE SUB DUP2 ADD SWAP1 PUSH2 0x12A SWAP2 SWAP1 PUSH2 0x1253 JUMP JUMPDEST PUSH2 0x693 JUMP JUMPDEST STOP JUMPDEST PUSH2 0x14B PUSH1 0x4 DUP1 CALLDATASIZE SUB DUP2 ADD SWAP1 PUSH2 0x146 SWAP2 SWAP1 PUSH2 0xFFF JUMP JUMPDEST PUSH2 0x740 JUMP JUMPDEST STOP JUMPDEST PUSH2 0x167 PUSH1 0x4 DUP1 CALLDATASIZE SUB DUP2 ADD SWAP1 PUSH2 0x162 SWAP2 SWAP1 PUSH2 0x13AA JUMP JUMPDEST PUSH2 0x8F5 JUMP JUMPDEST STOP JUMPDEST PUSH2 0x183 PUSH1 0x4 DUP1 CALLDATASIZE SUB DUP2 ADD SWAP1 PUSH2 0x17E SWAP2 SWAP1 PUSH2 0x13F1 JUMP JUMPDEST PUSH2 0xB34 JUMP JUMPDEST PUSH1 0x40 MLOAD PUSH2 0x190 SWAP2 SWAP1 PUSH2 0x154A JUMP JUMPDEST PUSH1 0x40 MLOAD DUP1 SWAP2 SUB SWAP1 RETURN JUMPDEST PUSH2 0x1A1 PUSH2 0xCCF JUMP JUMPDEST PUSH1 0x40 MLOAD PUSH2 0x1AE SWAP2 SWAP1 PUSH2 0x156A JUMP JUMPDEST PUSH1 0x40 MLOAD DUP1 SWAP2 SUB SWAP1 RETURN JUMPDEST PUSH2 0x1BF PUSH2 0xCF4 JUMP JUMPDEST PUSH1 0x40 MLOAD PUSH2 0x1CC SWAP2 SWAP1 PUSH2 0x1592 JUMP JUMPDEST PUSH1 0x40 MLOAD DUP1 SWAP2 SUB SWAP1 RETURN JUMPDEST PUSH1 0x1 PUSH1 0x20 MSTORE DUP2 PUSH0 MSTORE PUSH1 0x40 PUSH0 KECCAK256 DUP2 DUP2 SLOAD DUP2 LT PUSH2 0x1EE JUMPI PUSH0 DUP1 REVERT JUMPDEST SWAP1 PUSH0 MSTORE PUSH1 0x20 PUSH0 KECCAK256 SWAP1 PUSH1 0x5 MUL ADD PUSH0 SWAP2 POP SWAP2 POP POP DUP1 PUSH0 ADD SLOAD SWAP1 DUP1 PUSH1 0x1 ADD PUSH0 SWAP1 SLOAD SWAP1 PUSH2 0x100 EXP SWAP1 DIV PUSH20 0xFFFFFFFFFFFFFFFFFFFFFFFFFFFFFFFFFFFFFFFF AND SWAP1 DUP1 PUSH1 0x2 ADD DUP1 SLOAD PUSH2 0x239 SWAP1 PUSH2 0x15D8 JUMP JUMPDEST DUP1 PUSH1 0x1F ADD PUSH1 0x20 DUP1 SWAP2 DIV MUL PUSH1 0x20 ADD PUSH1 0x40 MLOAD SWAP1 DUP2 ADD PUSH1 0x40 MSTORE DUP1 SWAP3 SWAP2 SWAP1 DUP2 DUP2 MSTORE PUSH1 0x20 ADD DUP3 DUP1 SLOAD PUSH2 0x265 SWAP1 PUSH2 0x15D8 JUMP JUMPDEST DUP1 ISZERO PUSH2 0x2B0 JUMPI DUP1 PUSH1 0x1F LT PUSH2 0x287 JUMPI PUSH2 0x100 DUP1 DUP4 SLOAD DIV MUL DUP4 MSTORE SWAP2 PUSH1 0x20 ADD SWAP2 PUSH2 0x2B0 JUMP JUMPDEST DUP3 ADD SWAP2 SWAP1 PUSH0 MSTORE PUSH1 0x20 PUSH0 KECCAK256 SWAP1 JUMPDEST DUP2 SLOAD DUP2 MSTORE SWAP1 PUSH1 0x1 ADD SWAP1 PUSH1 0x20 ADD DUP1 DUP4 GT PUSH2 0x293 JUMPI DUP3 SWAP1 SUB PUSH1 0x1F AND DUP3 ADD SWAP2 JUMPDEST POP POP POP POP POP SWAP1 DUP1 PUSH1 0x3 ADD SLOAD SWAP1 DUP1 PUSH1 0x4 ADD SLOAD SWAP1 POP DUP6 JUMP JUMPDEST PUSH2 0x2CE PUSH2 0xF20 JUMP JUMPDEST PUSH1 0x1 PUSH0 DUP5 PUSH20 0xFFFFFFFFFFFFFFFFFFFFFFFFFFFFFFFFFFFFFFFF AND PUSH20 0xFFFFFFFFFFFFFFFFFFFFFFFFFFFFFFFFFFFFFFFF AND DUP2 MSTORE PUSH1 0x20 ADD SWAP1 DUP2 MSTORE PUSH1 0x20 ADD PUSH0 KECCAK256 DUP3 DUP2 SLOAD DUP2 LT PUSH2 0x31D JUMPI PUSH2 0x31C PUSH2 0x1608 JUMP JUMPDEST JUMPDEST SWAP1 PUSH0 MSTORE PUSH1 0x20 PUSH0 KECCAK256 SWAP1 PUSH1 0x5 MUL ADD PUSH1 0x40 MLOAD DUP1 PUSH1 0xA0 ADD PUSH1 0x40 MSTORE SWAP1 DUP2 PUSH0 DUP3 ADD SLOAD DUP2 MSTORE PUSH1 0x20 ADD PUSH1 0x1 DUP3 ADD PUSH0 SWAP1 SLOAD SWAP1 PUSH2 0x100 EXP SWAP1 DIV PUSH20 0xFFFFFFFFFFFFFFFFFFFFFFFFFFFFFFFFFFFFFFFF AND PUSH20 0xFFFFFFFFFFFFFFFFFFFFFFFFFFFFFFFFFFFFFFFF AND PUSH20 0xFFFFFFFFFFFFFFFFFFFFFFFFFFFFFFFFFFFFFFFF AND DUP2 MSTORE PUSH1 0x20 ADD PUSH1 0x2 DUP3 ADD DUP1 SLOAD PUSH2 0x3A2 SWAP1 PUSH2 0x15D8 JUMP JUMPDEST DUP1 PUSH1 0x1F ADD PUSH1 0x20 DUP1 SWAP2 DIV MUL PUSH1 0x20 ADD PUSH1 0x40 MLOAD SWAP1 DUP2 ADD PUSH1 0x40 MSTORE DUP1 SWAP3 SWAP2 SWAP1 DUP2 DUP2 MSTORE PUSH1 0x20 ADD DUP3 DUP1 SLOAD PUSH2 0x3CE SWAP1 PUSH2 0x15D8 JUMP JUMPDEST DUP1 ISZERO PUSH2 0x419 JUMPI DUP1 PUSH1 0x1F LT PUSH2 0x3F0 JUMPI PUSH2 0x100 DUP1 DUP4 SLOAD DIV MUL DUP4 MSTORE SWAP2 PUSH1 0x20 ADD SWAP2 PUSH2 0x419 JUMP JUMPDEST DUP3 ADD SWAP2 SWAP1 PUSH0 MSTORE PUSH1 0x20 PUSH0 KECCAK256 SWAP1 JUMPDEST DUP2 SLOAD DUP2 MSTORE SWAP1 PUSH1 0x1 ADD SWAP1 PUSH1 0x20 ADD DUP1 DUP4 GT PUSH2 0x3FC JUMPI DUP3 SWAP1 SUB PUSH1 0x1F AND DUP3 ADD SWAP2 JUMPDEST POP POP POP POP POP DUP2 MSTORE PUSH1 0x20 ADD PUSH1 0x3 DUP3 ADD SLOAD DUP2 MSTORE PUSH1 0x20 ADD PUSH1 0x4 DUP3 ADD SLOAD DUP2 MSTORE POP POP SWAP1 POP SWAP3 SWAP2 POP POP JUMP JUMPDEST DUP2 DUP2 DUP1 PUSH1 0x1 PUSH0 DUP5 PUSH20 0xFFFFFFFFFFFFFFFFFFFFFFFFFFFFFFFFFFFFFFFF AND PUSH20 0xFFFFFFFFFFFFFFFFFFFFFFFFFFFFFFFFFFFFFFFF AND DUP2 MSTORE PUSH1 0x20 ADD SWAP1 DUP2 MSTORE PUSH1 0x20 ADD PUSH0 KECCAK256 DUP3 DUP2 SLOAD DUP2 LT PUSH2 0x490 JUMPI PUSH2 0x48F PUSH2 0x1608 JUMP JUMPDEST JUMPDEST SWAP1 PUSH0 MSTORE PUSH1 0x20 PUSH0 KECCAK256 SWAP1 PUSH1 0x5 MUL ADD PUSH0 ADD SLOAD EQ PUSH2 0x4DF JUMPI PUSH1 0x40 MLOAD PUSH32 0x8C379A000000000000000000000000000000000000000000000000000000000 DUP2 MSTORE PUSH1 0x4 ADD PUSH2 0x4D6 SWAP1 PUSH2 0x167F JUMP JUMPDEST PUSH1 0x40 MLOAD DUP1 SWAP2 SUB SWAP1 REVERT JUMPDEST PUSH0 PUSH1 0x1 PUSH0 DUP7 PUSH20 0xFFFFFFFFFFFFFFFFFFFFFFFFFFFFFFFFFFFFFFFF AND PUSH20 0xFFFFFFFFFFFFFFFFFFFFFFFFFFFFFFFFFFFFFFFF AND DUP2 MSTORE PUSH1 0x20 ADD SWAP1 DUP2 MSTORE PUSH1 0x20 ADD PUSH0 KECCAK256 DUP5 DUP2 SLOAD DUP2 LT PUSH2 0x52F JUMPI PUSH2 0x52E PUSH2 0x1608 JUMP JUMPDEST JUMPDEST SWAP1 PUSH0 MSTORE PUSH1 0x20 PUSH0 KECCAK256 SWAP1 PUSH1 0x5 MUL ADD PUSH1 0x4 ADD SLOAD GT PUSH2 0x57F JUMPI PUSH1 0x40 MLOAD PUSH32 0x8C379A000000000000000000000000000000000000000000000000000000000 DUP2 MSTORE PUSH1 0x4 ADD PUSH2 0x576 SWAP1 PUSH2 0x16E7 JUMP JUMPDEST PUSH1 0x40 MLOAD DUP1 SWAP2 SUB SWAP1 REVERT JUMPDEST PUSH1 0x1 PUSH0 DUP6 PUSH20 0xFFFFFFFFFFFFFFFFFFFFFFFFFFFFFFFFFFFFFFFF AND PUSH20 0xFFFFFFFFFFFFFFFFFFFFFFFFFFFFFFFFFFFFFFFF AND DUP2 MSTORE PUSH1 0x20 ADD SWAP1 DUP2 MSTORE PUSH1 0x20 ADD PUSH0 KECCAK256 DUP4 DUP2 SLOAD DUP2 LT PUSH2 0x5CE JUMPI PUSH2 0x5CD PUSH2 0x1608 JUMP JUMPDEST JUMPDEST SWAP1 PUSH0 MSTORE PUSH1 0x20 PUSH0 KECCAK256 SWAP1 PUSH1 0x5 MUL ADD PUSH1 0x4 ADD PUSH0 DUP2 SLOAD DUP1 SWAP3 SWAP2 SWAP1 PUSH2 0x5ED SWAP1 PUSH2 0x1732 JUMP JUMPDEST SWAP2 SWAP1 POP SSTORE POP PUSH32 0x762C2616349603AC16EBA0DE8E6141B79129A07AB63BD99E0A80B3A471716943 CALLER DUP6 DUP6 PUSH1 0x1 PUSH0 DUP10 PUSH20 0xFFFFFFFFFFFFFFFFFFFFFFFFFFFFFFFFFFFFFFFF AND PUSH20 0xFFFFFFFFFFFFFFFFFFFFFFFFFFFFFFFFFFFFFFFF AND DUP2 MSTORE PUSH1 0x20 ADD SWAP1 DUP2 MSTORE PUSH1 0x20 ADD PUSH0 KECCAK256 DUP8 DUP2 SLOAD DUP2 LT PUSH2 0x665 JUMPI PUSH2 0x664 PUSH2 0x1608 JUMP JUMPDEST JUMPDEST SWAP1 PUSH0 MSTORE PUSH1 0x20 PUSH0 KECCAK256 SWAP1 PUSH1 0x5 MUL ADD PUSH1 0x4 ADD SLOAD PUSH1 0x40 MLOAD PUSH2 0x685 SWAP5 SWAP4 SWAP3 SWAP2 SWAP1 PUSH2 0x1759 JUMP JUMPDEST PUSH1 0x40 MLOAD DUP1 SWAP2 SUB SWAP1 LOG1 POP POP POP POP JUMP JUMPDEST PUSH1 0x2 PUSH0 SWAP1 SLOAD SWAP1 PUSH2 0x100 EXP SWAP1 DIV PUSH20 0xFFFFFFFFFFFFFFFFFFFFFFFFFFFFFFFFFFFFFFFF AND PUSH20 0xFFFFFFFFFFFFFFFFFFFFFFFFFFFFFFFFFFFFFFFF AND CALLER PUSH20 0xFFFFFFFFFFFFFFFFFFFFFFFFFFFFFFFFFFFFFFFF AND EQ PUSH2 0x722 JUMPI PUSH1 0x40 MLOAD PUSH32 0x8C379A000000000000000000000000000000000000000000000000000000000 DUP2 MSTORE PUSH1 0x4 ADD PUSH2 0x719 SWAP1 PUSH2 0x180C JUMP JUMPDEST PUSH1 0x40 MLOAD DUP1 SWAP2 SUB SWAP1 REVERT JUMPDEST DUP1 PUSH0 DUP1 PUSH2 0x100 EXP DUP2 SLOAD DUP2 PUSH2 0xFFFF MUL NOT AND SWAP1 DUP4 PUSH2 0xFFFF AND MUL OR SWAP1 SSTORE POP POP JUMP JUMPDEST DUP2 DUP2 DUP1 PUSH1 0x1 PUSH0 DUP5 PUSH20 0xFFFFFFFFFFFFFFFFFFFFFFFFFFFFFFFFFFFFFFFF AND PUSH20 0xFFFFFFFFFFFFFFFFFFFFFFFFFFFFFFFFFFFFFFFF AND DUP2 MSTORE PUSH1 0x20 ADD SWAP1 DUP2 MSTORE PUSH1 0x20 ADD PUSH0 KECCAK256 DUP3 DUP2 SLOAD DUP2 LT PUSH2 0x792 JUMPI PUSH2 0x791 PUSH2 0x1608 JUMP JUMPDEST JUMPDEST SWAP1 PUSH0 MSTORE PUSH1 0x20 PUSH0 KECCAK256 SWAP1 PUSH1 0x5 MUL ADD PUSH0 ADD SLOAD EQ PUSH2 0x7E1 JUMPI PUSH1 0x40 MLOAD PUSH32 0x8C379A000000000000000000000000000000000000000000000000000000000 DUP2 MSTORE PUSH1 0x4 ADD PUSH2 0x7D8 SWAP1 PUSH2 0x167F JUMP JUMPDEST PUSH1 0x40 MLOAD DUP1 SWAP2 SUB SWAP1 REVERT JUMPDEST PUSH1 0x1 PUSH0 DUP6 PUSH20 0xFFFFFFFFFFFFFFFFFFFFFFFFFFFFFFFFFFFFFFFF AND PUSH20 0xFFFFFFFFFFFFFFFFFFFFFFFFFFFFFFFFFFFFFFFF AND DUP2 MSTORE PUSH1 0x20 ADD SWAP1 DUP2 MSTORE PUSH1 0x20 ADD PUSH0 KECCAK256 DUP4 DUP2 SLOAD DUP2 LT PUSH2 0x830 JUMPI PUSH2 0x82F PUSH2 0x1608 JUMP JUMPDEST JUMPDEST SWAP1 PUSH0 MSTORE PUSH1 0x20 PUSH0 KECCAK256 SWAP1 PUSH1 0x5 MUL ADD PUSH1 0x4 ADD PUSH0 DUP2 SLOAD DUP1 SWAP3 SWAP2 SWAP1 PUSH2 0x84F SWAP1 PUSH2 0x182A JUMP JUMPDEST SWAP2 SWAP1 POP SSTORE POP PUSH32 0xE8A76FC0F16D11A00D1E93B689B63D76CF60AF914DD3D915375DC41D01A0C3C8 CALLER DUP6 DUP6 PUSH1 0x1 PUSH0 DUP10 PUSH20 0xFFFFFFFFFFFFFFFFFFFFFFFFFFFFFFFFFFFFFFFF AND PUSH20 0xFFFFFFFFFFFFFFFFFFFFFFFFFFFFFFFFFFFFFFFF AND DUP2 MSTORE PUSH1 0x20 ADD SWAP1 DUP2 MSTORE PUSH1 0x20 ADD PUSH0 KECCAK256 DUP8 DUP2 SLOAD DUP2 LT PUSH2 0x8C7 JUMPI PUSH2 0x8C6 PUSH2 0x1608 JUMP JUMPDEST JUMPDEST SWAP1 PUSH0 MSTORE PUSH1 0x20 PUSH0 KECCAK256 SWAP1 PUSH1 0x5 MUL ADD PUSH1 0x4 ADD SLOAD PUSH1 0x40 MLOAD PUSH2 0x8E7 SWAP5 SWAP4 SWAP3 SWAP2 SWAP1 PUSH2 0x1759 JUMP JUMPDEST PUSH1 0x40 MLOAD DUP1 SWAP2 SUB SWAP1 LOG1 POP POP POP POP JUMP JUMPDEST PUSH0 DUP1 SLOAD SWAP1 PUSH2 0x100 EXP SWAP1 DIV PUSH2 0xFFFF AND PUSH2 0xFFFF AND DUP2 MLOAD GT ISZERO PUSH2 0x925 PUSH0 DUP1 SLOAD SWAP1 PUSH2 0x100 EXP SWAP1 DIV PUSH2 0xFFFF AND PUSH2 0xFFFF AND PUSH2 0xD05 JUMP JUMPDEST PUSH1 0x40 MLOAD PUSH1 0x20 ADD PUSH2 0x935 SWAP2 SWAP1 PUSH2 0x191B JUMP JUMPDEST PUSH1 0x40 MLOAD PUSH1 0x20 DUP2 DUP4 SUB SUB DUP2 MSTORE SWAP1 PUSH1 0x40 MSTORE SWAP1 PUSH2 0x985 JUMPI PUSH1 0x40 MLOAD PUSH32 0x8C379A000000000000000000000000000000000000000000000000000000000 DUP2 MSTORE PUSH1 0x4 ADD PUSH2 0x97C SWAP2 SWAP1 PUSH2 0x193C JUMP JUMPDEST PUSH1 0x40 MLOAD DUP1 SWAP2 SUB SWAP1 REVERT JUMPDEST POP PUSH0 PUSH1 0x40 MLOAD DUP1 PUSH1 0xA0 ADD PUSH1 0x40 MSTORE DUP1 PUSH1 0x1 PUSH0 CALLER PUSH20 0xFFFFFFFFFFFFFFFFFFFFFFFFFFFFFFFFFFFFFFFF AND PUSH20 0xFFFFFFFFFFFFFFFFFFFFFFFFFFFFFFFFFFFFFFFF AND DUP2 MSTORE PUSH1 0x20 ADD SWAP1 DUP2 MSTORE PUSH1 0x20 ADD PUSH0 KECCAK256 DUP1 SLOAD SWAP1 POP DUP2 MSTORE PUSH1 0x20 ADD CALLER PUSH20 0xFFFFFFFFFFFFFFFFFFFFFFFFFFFFFFFFFFFFFFFF AND DUP2 MSTORE PUSH1 0x20 ADD DUP4 DUP2 MSTORE PUSH1 0x20 ADD TIMESTAMP DUP2 MSTORE PUSH1 0x20 ADD PUSH0 DUP2 MSTORE POP SWAP1 POP PUSH1 0x1 PUSH0 CALLER PUSH20 0xFFFFFFFFFFFFFFFFFFFFFFFFFFFFFFFFFFFFFFFF AND PUSH20 0xFFFFFFFFFFFFFFFFFFFFFFFFFFFFFFFFFFFFFFFF AND DUP2 MSTORE PUSH1 0x20 ADD SWAP1 DUP2 MSTORE PUSH1 0x20 ADD PUSH0 KECCAK256 DUP2 SWAP1 DUP1 PUSH1 0x1 DUP2 SLOAD ADD DUP1 DUP3 SSTORE DUP1 SWAP2 POP POP PUSH1 0x1 SWAP1 SUB SWAP1 PUSH0 MSTORE PUSH1 0x20 PUSH0 KECCAK256 SWAP1 PUSH1 0x5 MUL ADD PUSH0 SWAP1 SWAP2 SWAP1 SWAP2 SWAP1 SWAP2 POP PUSH0 DUP3 ADD MLOAD DUP2 PUSH0 ADD SSTORE PUSH1 0x20 DUP3 ADD MLOAD DUP2 PUSH1 0x1 ADD PUSH0 PUSH2 0x100 EXP DUP2 SLOAD DUP2 PUSH20 0xFFFFFFFFFFFFFFFFFFFFFFFFFFFFFFFFFFFFFFFF MUL NOT AND SWAP1 DUP4 PUSH20 0xFFFFFFFFFFFFFFFFFFFFFFFFFFFFFFFFFFFFFFFF AND MUL OR SWAP1 SSTORE POP PUSH1 0x40 DUP3 ADD MLOAD DUP2 PUSH1 0x2 ADD SWAP1 DUP2 PUSH2 0xACD SWAP2 SWAP1 PUSH2 0x1AF9 JUMP JUMPDEST POP PUSH1 0x60 DUP3 ADD MLOAD DUP2 PUSH1 0x3 ADD SSTORE PUSH1 0x80 DUP3 ADD MLOAD DUP2 PUSH1 0x4 ADD SSTORE POP POP PUSH32 0x16FD3C13E9D46923E0A8BCE11C7B473EC508A72E6C96CD2404B29CE972AFC29E DUP2 PUSH0 ADD MLOAD DUP3 PUSH1 0x20 ADD MLOAD DUP4 PUSH1 0x40 ADD MLOAD DUP5 PUSH1 0x60 ADD MLOAD PUSH1 0x40 MLOAD PUSH2 0xB28 SWAP5 SWAP4 SWAP3 SWAP2 SWAP1 PUSH2 0x1BC8 JUMP JUMPDEST PUSH1 0x40 MLOAD DUP1 SWAP2 SUB SWAP1 LOG1 POP POP JUMP JUMPDEST PUSH1 0x60 PUSH1 0x1 PUSH0 DUP4 PUSH20 0xFFFFFFFFFFFFFFFFFFFFFFFFFFFFFFFFFFFFFFFF AND PUSH20 0xFFFFFFFFFFFFFFFFFFFFFFFFFFFFFFFFFFFFFFFF AND DUP2 MSTORE PUSH1 0x20 ADD SWAP1 DUP2 MSTORE PUSH1 0x20 ADD PUSH0 KECCAK256 DUP1 SLOAD DUP1 PUSH1 0x20 MUL PUSH1 0x20 ADD PUSH1 0x40 MLOAD SWAP1 DUP2 ADD PUSH1 0x40 MSTORE DUP1 SWAP3 SWAP2 SWAP1 DUP2 DUP2 MSTORE PUSH1 0x20 ADD PUSH0 SWAP1 JUMPDEST DUP3 DUP3 LT ISZERO PUSH2 0xCC4 JUMPI DUP4 DUP3 SWAP1 PUSH0 MSTORE PUSH1 0x20 PUSH0 KECCAK256 SWAP1 PUSH1 0x5 MUL ADD PUSH1 0x40 MLOAD DUP1 PUSH1 0xA0 ADD PUSH1 0x40 MSTORE SWAP1 DUP2 PUSH0 DUP3 ADD SLOAD DUP2 MSTORE PUSH1 0x20 ADD PUSH1 0x1 DUP3 ADD PUSH0 SWAP1 SLOAD SWAP1 PUSH2 0x100 EXP SWAP1 DIV PUSH20 0xFFFFFFFFFFFFFFFFFFFFFFFFFFFFFFFFFFFFFFFF AND PUSH20 0xFFFFFFFFFFFFFFFFFFFFFFFFFFFFFFFFFFFFFFFF AND PUSH20 0xFFFFFFFFFFFFFFFFFFFFFFFFFFFFFFFFFFFFFFFF AND DUP2 MSTORE PUSH1 0x20 ADD PUSH1 0x2 DUP3 ADD DUP1 SLOAD PUSH2 0xC21 SWAP1 PUSH2 0x15D8 JUMP JUMPDEST DUP1 PUSH1 0x1F ADD PUSH1 0x20 DUP1 SWAP2 DIV MUL PUSH1 0x20 ADD PUSH1 0x40 MLOAD SWAP1 DUP2 ADD PUSH1 0x40 MSTORE DUP1 SWAP3 SWAP2 SWAP1 DUP2 DUP2 MSTORE PUSH1 0x20 ADD DUP3 DUP1 SLOAD PUSH2 0xC4D SWAP1 PUSH2 0x15D8 JUMP JUMPDEST DUP1 ISZERO PUSH2 0xC98 JUMPI DUP1 PUSH1 0x1F LT PUSH2 0xC6F JUMPI PUSH2 0x100 DUP1 DUP4 SLOAD DIV MUL DUP4 MSTORE SWAP2 PUSH1 0x20 ADD SWAP2 PUSH2 0xC98 JUMP JUMPDEST DUP3 ADD SWAP2 SWAP1 PUSH0 MSTORE PUSH1 0x20 PUSH0 KECCAK256 SWAP1 JUMPDEST DUP2 SLOAD DUP2 MSTORE SWAP1 PUSH1 0x1 ADD SWAP1 PUSH1 0x20 ADD DUP1 DUP4 GT PUSH2 0xC7B JUMPI DUP3 SWAP1 SUB PUSH1 0x1F AND DUP3 ADD SWAP2 JUMPDEST POP POP POP POP POP DUP2 MSTORE PUSH1 0x20 ADD PUSH1 0x3 DUP3 ADD SLOAD DUP2 MSTORE PUSH1 0x20 ADD PUSH1 0x4 DUP3 ADD SLOAD DUP2 MSTORE POP POP DUP2 MSTORE PUSH1 0x20 ADD SWAP1 PUSH1 0x1 ADD SWAP1 PUSH2 0xB92 JUMP JUMPDEST POP POP POP POP SWAP1 POP SWAP2 SWAP1 POP JUMP JUMPDEST PUSH1 0x2 PUSH0 SWAP1 SLOAD SWAP1 PUSH2 0x100 EXP SWAP1 DIV PUSH20 0xFFFFFFFFFFFFFFFFFFFFFFFFFFFFFFFFFFFFFFFF AND DUP2 JUMP JUMPDEST PUSH0 DUP1 SLOAD SWAP1 PUSH2 0x100 EXP SWAP1 DIV PUSH2 0xFFFF AND DUP2 JUMP JUMPDEST PUSH1 0x60 PUSH0 PUSH1 0x1 PUSH2 0xD13 DUP5 PUSH2 0xDCF JUMP JUMPDEST ADD SWAP1 POP PUSH0 DUP2 PUSH8 0xFFFFFFFFFFFFFFFF DUP2 GT ISZERO PUSH2 0xD31 JUMPI PUSH2 0xD30 PUSH2 0x1286 JUMP JUMPDEST JUMPDEST PUSH1 0x40 MLOAD SWAP1 DUP1 DUP3 MSTORE DUP1 PUSH1 0x1F ADD PUSH1 0x1F NOT AND PUSH1 0x20 ADD DUP3 ADD PUSH1 0x40 MSTORE DUP1 ISZERO PUSH2 0xD63 JUMPI DUP2 PUSH1 0x20 ADD PUSH1 0x1 DUP3 MUL DUP1 CALLDATASIZE DUP4 CALLDATACOPY DUP1 DUP3 ADD SWAP2 POP POP SWAP1 POP JUMPDEST POP SWAP1 POP PUSH0 DUP3 PUSH1 0x20 ADD DUP3 ADD SWAP1 POP JUMPDEST PUSH1 0x1 ISZERO PUSH2 0xDC4 JUMPI DUP1 DUP1 PUSH1 0x1 SWAP1 SUB SWAP2 POP POP PUSH32 0x3031323334353637383961626364656600000000000000000000000000000000 PUSH1 0xA DUP7 MOD BYTE DUP2 MSTORE8 PUSH1 0xA DUP6 DUP2 PUSH2 0xDB9 JUMPI PUSH2 0xDB8 PUSH2 0x1C12 JUMP JUMPDEST JUMPDEST DIV SWAP5 POP PUSH0 DUP6 SUB PUSH2 0xD70 JUMPI JUMPDEST DUP2 SWAP4 POP POP POP POP SWAP2 SWAP1 POP JUMP JUMPDEST PUSH0 DUP1 PUSH0 SWAP1 POP PUSH27 0x184F03E93FF9F4DAA797ED6E38ED64BF6A1F010000000000000000 DUP4 LT PUSH2 0xE2B JUMPI PUSH27 0x184F03E93FF9F4DAA797ED6E38ED64BF6A1F010000000000000000 DUP4 DUP2 PUSH2 0xE21 JUMPI PUSH2 0xE20 PUSH2 0x1C12 JUMP JUMPDEST JUMPDEST DIV SWAP3 POP PUSH1 0x40 DUP2 ADD SWAP1 POP JUMPDEST PUSH14 0x4EE2D6D415B85ACEF8100000000 DUP4 LT PUSH2 0xE68 JUMPI PUSH14 0x4EE2D6D415B85ACEF8100000000 DUP4 DUP2 PUSH2 0xE5E JUMPI PUSH2 0xE5D PUSH2 0x1C12 JUMP JUMPDEST JUMPDEST DIV SWAP3 POP PUSH1 0x20 DUP2 ADD SWAP1 POP JUMPDEST PUSH7 0x2386F26FC10000 DUP4 LT PUSH2 0xE97 JUMPI PUSH7 0x2386F26FC10000 DUP4 DUP2 PUSH2 0xE8D JUMPI PUSH2 0xE8C PUSH2 0x1C12 JUMP JUMPDEST JUMPDEST DIV SWAP3 POP PUSH1 0x10 DUP2 ADD SWAP1 POP JUMPDEST PUSH4 0x5F5E100 DUP4 LT PUSH2 0xEC0 JUMPI PUSH4 0x5F5E100 DUP4 DUP2 PUSH2 0xEB6 JUMPI PUSH2 0xEB5 PUSH2 0x1C12 JUMP JUMPDEST JUMPDEST DIV SWAP3 POP PUSH1 0x8 DUP2 ADD SWAP1 POP JUMPDEST PUSH2 0x2710 DUP4 LT PUSH2 0xEE5 JUMPI PUSH2 0x2710 DUP4 DUP2 PUSH2 0xEDB JUMPI PUSH2 0xEDA PUSH2 0x1C12 JUMP JUMPDEST JUMPDEST DIV SWAP3 POP PUSH1 0x4 DUP2 ADD SWAP1 POP JUMPDEST PUSH1 0x64 DUP4 LT PUSH2 0xF08 JUMPI PUSH1 0x64 DUP4 DUP2 PUSH2 0xEFE JUMPI PUSH2 0xEFD PUSH2 0x1C12 JUMP JUMPDEST JUMPDEST DIV SWAP3 POP PUSH1 0x2 DUP2 ADD SWAP1 POP JUMPDEST PUSH1 0xA DUP4 LT PUSH2 0xF17 JUMPI PUSH1 0x1 DUP2 ADD SWAP1 POP JUMPDEST DUP1 SWAP2 POP POP SWAP2 SWAP1 POP JUMP JUMPDEST PUSH1 0x40 MLOAD DUP1 PUSH1 0xA0 ADD PUSH1 0x40 MSTORE DUP1 PUSH0 DUP2 MSTORE PUSH1 0x20 ADD PUSH0 PUSH20 0xFFFFFFFFFFFFFFFFFFFFFFFFFFFFFFFFFFFFFFFF AND DUP2 MSTORE PUSH1 0x20 ADD PUSH1 0x60 DUP2 MSTORE PUSH1 0x20 ADD PUSH0 DUP2 MSTORE PUSH1 0x20 ADD PUSH0 DUP2 MSTORE POP SWAP1 JUMP JUMPDEST PUSH0 PUSH1 0x40 MLOAD SWAP1 POP SWAP1 JUMP JUMPDEST PUSH0 DUP1 REVERT JUMPDEST PUSH0 DUP1 REVERT JUMPDEST PUSH0 PUSH20 0xFFFFFFFFFFFFFFFFFFFFFFFFFFFFFFFFFFFFFFFF DUP3 AND SWAP1 POP SWAP2 SWAP1 POP JUMP JUMPDEST PUSH0 PUSH2 0xF9B DUP3 PUSH2 0xF72 JUMP JUMPDEST SWAP1 POP SWAP2 SWAP1 POP JUMP JUMPDEST PUSH2 0xFAB DUP2 PUSH2 0xF91 JUMP JUMPDEST DUP2 EQ PUSH2 0xFB5 JUMPI PUSH0 DUP1 REVERT JUMPDEST POP JUMP JUMPDEST PUSH0 DUP2 CALLDATALOAD SWAP1 POP PUSH2 0xFC6 DUP2 PUSH2 0xFA2 JUMP JUMPDEST SWAP3 SWAP2 POP POP JUMP JUMPDEST PUSH0 DUP2 SWAP1 POP SWAP2 SWAP1 POP JUMP JUMPDEST PUSH2 0xFDE DUP2 PUSH2 0xFCC JUMP JUMPDEST DUP2 EQ PUSH2 0xFE8 JUMPI PUSH0 DUP1 REVERT JUMPDEST POP JUMP JUMPDEST PUSH0 DUP2 CALLDATALOAD SWAP1 POP PUSH2 0xFF9 DUP2 PUSH2 0xFD5 JUMP JUMPDEST SWAP3 SWAP2 POP POP JUMP JUMPDEST PUSH0 DUP1 PUSH1 0x40 DUP4 DUP6 SUB SLT ISZERO PUSH2 0x1015 JUMPI PUSH2 0x1014 PUSH2 0xF6A JUMP JUMPDEST JUMPDEST PUSH0 PUSH2 0x1022 DUP6 DUP3 DUP7 ADD PUSH2 0xFB8 JUMP JUMPDEST SWAP3 POP POP PUSH1 0x20 PUSH2 0x1033 DUP6 DUP3 DUP7 ADD PUSH2 0xFEB JUMP JUMPDEST SWAP2 POP POP SWAP3 POP SWAP3 SWAP1 POP JUMP JUMPDEST PUSH2 0x1046 DUP2 PUSH2 0xFCC JUMP JUMPDEST DUP3 MSTORE POP POP JUMP JUMPDEST PUSH2 0x1055 DUP2 PUSH2 0xF91 JUMP JUMPDEST DUP3 MSTORE POP POP JUMP JUMPDEST PUSH0 DUP2 MLOAD SWAP1 POP SWAP2 SWAP1 POP JUMP JUMPDEST PUSH0 DUP3 DUP3 MSTORE PUSH1 0x20 DUP3 ADD SWAP1 POP SWAP3 SWAP2 POP POP JUMP JUMPDEST DUP3 DUP2 DUP4 MCOPY PUSH0 DUP4 DUP4 ADD MSTORE POP POP POP JUMP JUMPDEST PUSH0 PUSH1 0x1F NOT PUSH1 0x1F DUP4 ADD AND SWAP1 POP SWAP2 SWAP1 POP JUMP JUMPDEST PUSH0 PUSH2 0x109D DUP3 PUSH2 0x105B JUMP JUMPDEST PUSH2 0x10A7 DUP2 DUP6 PUSH2 0x1065 JUMP JUMPDEST SWAP4 POP PUSH2 0x10B7 DUP2 DUP6 PUSH1 0x20 DUP7 ADD PUSH2 0x1075 JUMP JUMPDEST PUSH2 0x10C0 DUP2 PUSH2 0x1083 JUMP JUMPDEST DUP5 ADD SWAP2 POP POP SWAP3 SWAP2 POP POP JUMP JUMPDEST PUSH0 PUSH1 0xA0 DUP3 ADD SWAP1 POP PUSH2 0x10DE PUSH0 DUP4 ADD DUP9 PUSH2 0x103D JUMP JUMPDEST PUSH2 0x10EB PUSH1 0x20 DUP4 ADD DUP8 PUSH2 0x104C JUMP JUMPDEST DUP2 DUP2 SUB PUSH1 0x40 DUP4 ADD MSTORE PUSH2 0x10FD DUP2 DUP7 PUSH2 0x1093 JUMP JUMPDEST SWAP1 POP PUSH2 0x110C PUSH1 0x60 DUP4 ADD DUP6 PUSH2 0x103D JUMP JUMPDEST PUSH2 0x1119 PUSH1 0x80 DUP4 ADD DUP5 PUSH2 0x103D JUMP JUMPDEST SWAP7 SWAP6 POP POP POP POP POP POP JUMP JUMPDEST PUSH2 0x112C DUP2 PUSH2 0xFCC JUMP JUMPDEST DUP3 MSTORE POP POP JUMP JUMPDEST PUSH2 0x113B DUP2 PUSH2 0xF91 JUMP JUMPDEST DUP3 MSTORE POP POP JUMP JUMPDEST PUSH0 DUP3 DUP3 MSTORE PUSH1 0x20 DUP3 ADD SWAP1 POP SWAP3 SWAP2 POP POP JUMP JUMPDEST PUSH0 PUSH2 0x115B DUP3 PUSH2 0x105B JUMP JUMPDEST PUSH2 0x1165 DUP2 DUP6 PUSH2 0x1141 JUMP JUMPDEST SWAP4 POP PUSH2 0x1175 DUP2 DUP6 PUSH1 0x20 DUP7 ADD PUSH2 0x1075 JUMP JUMPDEST PUSH2 0x117E DUP2 PUSH2 0x1083 JUMP JUMPDEST DUP5 ADD SWAP2 POP POP SWAP3 SWAP2 POP POP JUMP JUMPDEST PUSH0 PUSH1 0xA0 DUP4 ADD PUSH0 DUP4 ADD MLOAD PUSH2 0x119E PUSH0 DUP7 ADD DUP3 PUSH2 0x1123 JUMP JUMPDEST POP PUSH1 0x20 DUP4 ADD MLOAD PUSH2 0x11B1 PUSH1 0x20 DUP7 ADD DUP3 PUSH2 0x1132 JUMP JUMPDEST POP PUSH1 0x40 DUP4 ADD MLOAD DUP5 DUP3 SUB PUSH1 0x40 DUP7 ADD MSTORE PUSH2 0x11C9 DUP3 DUP3 PUSH2 0x1151 JUMP JUMPDEST SWAP2 POP POP PUSH1 0x60 DUP4 ADD MLOAD PUSH2 0x11DE PUSH1 0x60 DUP7 ADD DUP3 PUSH2 0x1123 JUMP JUMPDEST POP PUSH1 0x80 DUP4 ADD MLOAD PUSH2 0x11F1 PUSH1 0x80 DUP7 ADD DUP3 PUSH2 0x1123 JUMP JUMPDEST POP DUP1 SWAP2 POP POP SWAP3 SWAP2 POP POP JUMP JUMPDEST PUSH0 PUSH1 0x20 DUP3 ADD SWAP1 POP DUP2 DUP2 SUB PUSH0 DUP4 ADD MSTORE PUSH2 0x1214 DUP2 DUP5 PUSH2 0x1189 JUMP JUMPDEST SWAP1 POP SWAP3 SWAP2 POP POP JUMP JUMPDEST PUSH0 PUSH2 0xFFFF DUP3 AND SWAP1 POP SWAP2 SWAP1 POP JUMP JUMPDEST PUSH2 0x1232 DUP2 PUSH2 0x121C JUMP JUMPDEST DUP2 EQ PUSH2 0x123C JUMPI PUSH0 DUP1 REVERT JUMPDEST POP JUMP JUMPDEST PUSH0 DUP2 CALLDATALOAD SWAP1 POP PUSH2 0x124D DUP2 PUSH2 0x1229 JUMP JUMPDEST SWAP3 SWAP2 POP POP JUMP JUMPDEST PUSH0 PUSH1 0x20 DUP3 DUP5 SUB SLT ISZERO PUSH2 0x1268 JUMPI PUSH2 0x1267 PUSH2 0xF6A JUMP JUMPDEST JUMPDEST PUSH0 PUSH2 0x1275 DUP5 DUP3 DUP6 ADD PUSH2 0x123F JUMP JUMPDEST SWAP2 POP POP SWAP3 SWAP2 POP POP JUMP JUMPDEST PUSH0 DUP1 REVERT JUMPDEST PUSH0 DUP1 REVERT JUMPDEST PUSH32 0x4E487B7100000000000000000000000000000000000000000000000000000000 PUSH0 MSTORE PUSH1 0x41 PUSH1 0x4 MSTORE PUSH1 0x24 PUSH0 REVERT JUMPDEST PUSH2 0x12BC DUP3 PUSH2 0x1083 JUMP JUMPDEST DUP2 ADD DUP2 DUP2 LT PUSH8 0xFFFFFFFFFFFFFFFF DUP3 GT OR ISZERO PUSH2 0x12DB JUMPI PUSH2 0x12DA PUSH2 0x1286 JUMP JUMPDEST JUMPDEST DUP1 PUSH1 0x40 MSTORE POP POP POP JUMP JUMPDEST PUSH0 PUSH2 0x12ED PUSH2 0xF61 JUMP JUMPDEST SWAP1 POP PUSH2 0x12F9 DUP3 DUP3 PUSH2 0x12B3 JUMP JUMPDEST SWAP2 SWAP1 POP JUMP JUMPDEST PUSH0 PUSH8 0xFFFFFFFFFFFFFFFF DUP3 GT ISZERO PUSH2 0x1318 JUMPI PUSH2 0x1317 PUSH2 0x1286 JUMP JUMPDEST JUMPDEST PUSH2 0x1321 DUP3 PUSH2 0x1083 JUMP JUMPDEST SWAP1 POP PUSH1 0x20 DUP2 ADD SWAP1 POP SWAP2 SWAP1 POP JUMP JUMPDEST DUP3 DUP2 DUP4 CALLDATACOPY PUSH0 DUP4 DUP4 ADD MSTORE POP POP POP JUMP JUMPDEST PUSH0 PUSH2 0x134E PUSH2 0x1349 DUP5 PUSH2 0x12FE JUMP JUMPDEST PUSH2 0x12E4 JUMP JUMPDEST SWAP1 POP DUP3 DUP2 MSTORE PUSH1 0x20 DUP2 ADD DUP5 DUP5 DUP5 ADD GT ISZERO PUSH2 0x136A JUMPI PUSH2 0x1369 PUSH2 0x1282 JUMP JUMPDEST JUMPDEST PUSH2 0x1375 DUP5 DUP3 DUP6 PUSH2 0x132E JUMP JUMPDEST POP SWAP4 SWAP3 POP POP POP JUMP JUMPDEST PUSH0 DUP3 PUSH1 0x1F DUP4 ADD SLT PUSH2 0x1391 JUMPI PUSH2 0x1390 PUSH2 0x127E JUMP JUMPDEST JUMPDEST DUP2 CALLDATALOAD PUSH2 0x13A1 DUP5 DUP3 PUSH1 0x20 DUP7 ADD PUSH2 0x133C JUMP JUMPDEST SWAP2 POP POP SWAP3 SWAP2 POP POP JUMP JUMPDEST PUSH0 PUSH1 0x20 DUP3 DUP5 SUB SLT ISZERO PUSH2 0x13BF JUMPI PUSH2 0x13BE PUSH2 0xF6A JUMP JUMPDEST JUMPDEST PUSH0 DUP3 ADD CALLDATALOAD PUSH8 0xFFFFFFFFFFFFFFFF DUP2 GT ISZERO PUSH2 0x13DC JUMPI PUSH2 0x13DB PUSH2 0xF6E JUMP JUMPDEST JUMPDEST PUSH2 0x13E8 DUP5 DUP3 DUP6 ADD PUSH2 0x137D JUMP JUMPDEST SWAP2 POP POP SWAP3 SWAP2 POP POP JUMP JUMPDEST PUSH0 PUSH1 0x20 DUP3 DUP5 SUB SLT ISZERO PUSH2 0x1406 JUMPI PUSH2 0x1405 PUSH2 0xF6A JUMP JUMPDEST JUMPDEST PUSH0 PUSH2 0x1413 DUP5 DUP3 DUP6 ADD PUSH2 0xFB8 JUMP JUMPDEST SWAP2 POP POP SWAP3 SWAP2 POP POP JUMP JUMPDEST PUSH0 DUP2 MLOAD SWAP1 POP SWAP2 SWAP1 POP JUMP JUMPDEST PUSH0 DUP3 DUP3 MSTORE PUSH1 0x20 DUP3 ADD SWAP1 POP SWAP3 SWAP2 POP POP JUMP JUMPDEST PUSH0 DUP2 SWAP1 POP PUSH1 0x20 DUP3 ADD SWAP1 POP SWAP2 SWAP1 POP JUMP JUMPDEST PUSH0 PUSH1 0xA0 DUP4 ADD PUSH0 DUP4 ADD MLOAD PUSH2 0x145A PUSH0 DUP7 ADD DUP3 PUSH2 0x1123 JUMP JUMPDEST POP PUSH1 0x20 DUP4 ADD MLOAD PUSH2 0x146D PUSH1 0x20 DUP7 ADD DUP3 PUSH2 0x1132 JUMP JUMPDEST POP PUSH1 0x40 DUP4 ADD MLOAD DUP5 DUP3 SUB PUSH1 0x40 DUP7 ADD MSTORE PUSH2 0x1485 DUP3 DUP3 PUSH2 0x1151 JUMP JUMPDEST SWAP2 POP POP PUSH1 0x60 DUP4 ADD MLOAD PUSH2 0x149A PUSH1 0x60 DUP7 ADD DUP3 PUSH2 0x1123 JUMP JUMPDEST POP PUSH1 0x80 DUP4 ADD MLOAD PUSH2 0x14AD PUSH1 0x80 DUP7 ADD DUP3 PUSH2 0x1123 JUMP JUMPDEST POP DUP1 SWAP2 POP POP SWAP3 SWAP2 POP POP JUMP JUMPDEST PUSH0 PUSH2 0x14C3 DUP4 DUP4 PUSH2 0x1445 JUMP JUMPDEST SWAP1 POP SWAP3 SWAP2 POP POP JUMP JUMPDEST PUSH0 PUSH1 0x20 DUP3 ADD SWAP1 POP SWAP2 SWAP1 POP JUMP JUMPDEST PUSH0 PUSH2 0x14E1 DUP3 PUSH2 0x141C JUMP JUMPDEST PUSH2 0x14EB DUP2 DUP6 PUSH2 0x1426 JUMP JUMPDEST SWAP4 POP DUP4 PUSH1 0x20 DUP3 MUL DUP6 ADD PUSH2 0x14FD DUP6 PUSH2 0x1436 JUMP JUMPDEST DUP1 PUSH0 JUMPDEST DUP6 DUP2 LT ISZERO PUSH2 0x1538 JUMPI DUP5 DUP5 SUB DUP10 MSTORE DUP2 MLOAD PUSH2 0x1519 DUP6 DUP3 PUSH2 0x14B8 JUMP JUMPDEST SWAP5 POP PUSH2 0x1524 DUP4 PUSH2 0x14CB JUMP JUMPDEST SWAP3 POP PUSH1 0x20 DUP11 ADD SWAP10 POP POP PUSH1 0x1 DUP2 ADD SWAP1 POP PUSH2 0x1500 JUMP JUMPDEST POP DUP3 SWAP8 POP DUP8 SWAP6 POP POP POP POP POP POP SWAP3 SWAP2 POP POP JUMP JUMPDEST PUSH0 PUSH1 0x20 DUP3 ADD SWAP1 POP DUP2 DUP2 SUB PUSH0 DUP4 ADD MSTORE PUSH2 0x1562 DUP2 DUP5 PUSH2 0x14D7 JUMP JUMPDEST SWAP1 POP SWAP3 SWAP2 POP POP JUMP JUMPDEST PUSH0 PUSH1 0x20 DUP3 ADD SWAP1 POP PUSH2 0x157D PUSH0 DUP4 ADD DUP5 PUSH2 0x104C JUMP JUMPDEST SWAP3 SWAP2 POP POP JUMP JUMPDEST PUSH2 0x158C DUP2 PUSH2 0x121C JUMP JUMPDEST DUP3 MSTORE POP POP JUMP JUMPDEST PUSH0 PUSH1 0x20 DUP3 ADD SWAP1 POP PUSH2 0x15A5 PUSH0 DUP4 ADD DUP5 PUSH2 0x1583 JUMP JUMPDEST SWAP3 SWAP2 POP POP JUMP JUMPDEST PUSH32 0x4E487B7100000000000000000000000000000000000000000000000000000000 PUSH0 MSTORE PUSH1 0x22 PUSH1 0x4 MSTORE PUSH1 0x24 PUSH0 REVERT JUMPDEST PUSH0 PUSH1 0x2 DUP3 DIV SWAP1 POP PUSH1 0x1 DUP3 AND DUP1 PUSH2 0x15EF JUMPI PUSH1 0x7F DUP3 AND SWAP2 POP JUMPDEST PUSH1 0x20 DUP3 LT DUP2 SUB PUSH2 0x1602 JUMPI PUSH2 0x1601 PUSH2 0x15AB JUMP JUMPDEST JUMPDEST POP SWAP2 SWAP1 POP JUMP JUMPDEST PUSH32 0x4E487B7100000000000000000000000000000000000000000000000000000000 PUSH0 MSTORE PUSH1 0x32 PUSH1 0x4 MSTORE PUSH1 0x24 PUSH0 REVERT JUMPDEST PUSH32 0x547765657420646F6573206E6F74206578697374210000000000000000000000 PUSH0 DUP3 ADD MSTORE POP JUMP JUMPDEST PUSH0 PUSH2 0x1669 PUSH1 0x15 DUP4 PUSH2 0x1065 JUMP JUMPDEST SWAP2 POP PUSH2 0x1674 DUP3 PUSH2 0x1635 JUMP JUMPDEST PUSH1 0x20 DUP3 ADD SWAP1 POP SWAP2 SWAP1 POP JUMP JUMPDEST PUSH0 PUSH1 0x20 DUP3 ADD SWAP1 POP DUP2 DUP2 SUB PUSH0 DUP4 ADD MSTORE PUSH2 0x1696 DUP2 PUSH2 0x165D JUMP JUMPDEST SWAP1 POP SWAP2 SWAP1 POP JUMP JUMPDEST PUSH32 0x547765657420686173206E6F206C696B65732100000000000000000000000000 PUSH0 DUP3 ADD MSTORE POP JUMP JUMPDEST PUSH0 PUSH2 0x16D1 PUSH1 0x13 DUP4 PUSH2 0x1065 JUMP JUMPDEST SWAP2 POP PUSH2 0x16DC DUP3 PUSH2 0x169D JUMP JUMPDEST PUSH1 0x20 DUP3 ADD SWAP1 POP SWAP2 SWAP1 POP JUMP JUMPDEST PUSH0 PUSH1 0x20 DUP3 ADD SWAP1 POP DUP2 DUP2 SUB PUSH0 DUP4 ADD MSTORE PUSH2 0x16FE DUP2 PUSH2 0x16C5 JUMP JUMPDEST SWAP1 POP SWAP2 SWAP1 POP JUMP JUMPDEST PUSH32 0x4E487B7100000000000000000000000000000000000000000000000000000000 PUSH0 MSTORE PUSH1 0x11 PUSH1 0x4 MSTORE PUSH1 0x24 PUSH0 REVERT JUMPDEST PUSH0 PUSH2 0x173C DUP3 PUSH2 0xFCC JUMP JUMPDEST SWAP2 POP PUSH0 DUP3 SUB PUSH2 0x174E JUMPI PUSH2 0x174D PUSH2 0x1705 JUMP JUMPDEST JUMPDEST PUSH1 0x1 DUP3 SUB SWAP1 POP SWAP2 SWAP1 POP JUMP JUMPDEST PUSH0 PUSH1 0x80 DUP3 ADD SWAP1 POP PUSH2 0x176C PUSH0 DUP4 ADD DUP8 PUSH2 0x104C JUMP JUMPDEST PUSH2 0x1779 PUSH1 0x20 DUP4 ADD DUP7 PUSH2 0x104C JUMP JUMPDEST PUSH2 0x1786 PUSH1 0x40 DUP4 ADD DUP6 PUSH2 0x103D JUMP JUMPDEST PUSH2 0x1793 PUSH1 0x60 DUP4 ADD DUP5 PUSH2 0x103D JUMP JUMPDEST SWAP6 SWAP5 POP POP POP POP POP JUMP JUMPDEST PUSH32 0x596F75277265206E6F7420616C6C6F77656420746F2065786563757465207468 PUSH0 DUP3 ADD MSTORE PUSH32 0x6973206F7065726174696F6E0000000000000000000000000000000000000000 PUSH1 0x20 DUP3 ADD MSTORE POP JUMP JUMPDEST PUSH0 PUSH2 0x17F6 PUSH1 0x2C DUP4 PUSH2 0x1065 JUMP JUMPDEST SWAP2 POP PUSH2 0x1801 DUP3 PUSH2 0x179C JUMP JUMPDEST PUSH1 0x40 DUP3 ADD SWAP1 POP SWAP2 SWAP1 POP JUMP JUMPDEST PUSH0 PUSH1 0x20 DUP3 ADD SWAP1 POP DUP2 DUP2 SUB PUSH0 DUP4 ADD MSTORE PUSH2 0x1823 DUP2 PUSH2 0x17EA JUMP JUMPDEST SWAP1 POP SWAP2 SWAP1 POP JUMP JUMPDEST PUSH0 PUSH2 0x1834 DUP3 PUSH2 0xFCC JUMP JUMPDEST SWAP2 POP PUSH32 0xFFFFFFFFFFFFFFFFFFFFFFFFFFFFFFFFFFFFFFFFFFFFFFFFFFFFFFFFFFFFFFFF DUP3 SUB PUSH2 0x1866 JUMPI PUSH2 0x1865 PUSH2 0x1705 JUMP JUMPDEST JUMPDEST PUSH1 0x1 DUP3 ADD SWAP1 POP SWAP2 SWAP1 POP JUMP JUMPDEST PUSH0 DUP2 SWAP1 POP SWAP3 SWAP2 POP POP JUMP JUMPDEST PUSH32 0x596F757220747765657420657863656564656420746865206C696D6974206F66 PUSH0 DUP3 ADD MSTORE PUSH32 0x20636861726163746572733A2000000000000000000000000000000000000000 PUSH1 0x20 DUP3 ADD MSTORE POP JUMP JUMPDEST PUSH0 PUSH2 0x18D5 PUSH1 0x2D DUP4 PUSH2 0x1871 JUMP JUMPDEST SWAP2 POP PUSH2 0x18E0 DUP3 PUSH2 0x187B JUMP JUMPDEST PUSH1 0x2D DUP3 ADD SWAP1 POP SWAP2 SWAP1 POP JUMP JUMPDEST PUSH0 PUSH2 0x18F5 DUP3 PUSH2 0x105B JUMP JUMPDEST PUSH2 0x18FF DUP2 DUP6 PUSH2 0x1871 JUMP JUMPDEST SWAP4 POP PUSH2 0x190F DUP2 DUP6 PUSH1 0x20 DUP7 ADD PUSH2 0x1075 JUMP JUMPDEST DUP1 DUP5 ADD SWAP2 POP POP SWAP3 SWAP2 POP POP JUMP JUMPDEST PUSH0 PUSH2 0x1925 DUP3 PUSH2 0x18C9 JUMP JUMPDEST SWAP2 POP PUSH2 0x1931 DUP3 DUP5 PUSH2 0x18EB JUMP JUMPDEST SWAP2 POP DUP2 SWAP1 POP SWAP3 SWAP2 POP POP JUMP JUMPDEST PUSH0 PUSH1 0x20 DUP3 ADD SWAP1 POP DUP2 DUP2 SUB PUSH0 DUP4 ADD MSTORE PUSH2 0x1954 DUP2 DUP5 PUSH2 0x1093 JUMP JUMPDEST SWAP1 POP SWAP3 SWAP2 POP POP JUMP JUMPDEST PUSH0 DUP2 SWAP1 POP DUP2 PUSH0 MSTORE PUSH1 0x20 PUSH0 KECCAK256 SWAP1 POP SWAP2 SWAP1 POP JUMP JUMPDEST PUSH0 PUSH1 0x20 PUSH1 0x1F DUP4 ADD DIV SWAP1 POP SWAP2 SWAP1 POP JUMP JUMPDEST PUSH0 DUP3 DUP3 SHL SWAP1 POP SWAP3 SWAP2 POP POP JUMP JUMPDEST PUSH0 PUSH1 0x8 DUP4 MUL PUSH2 0x19B8 PUSH32 0xFFFFFFFFFFFFFFFFFFFFFFFFFFFFFFFFFFFFFFFFFFFFFFFFFFFFFFFFFFFFFFFF DUP3 PUSH2 0x197D JUMP JUMPDEST PUSH2 0x19C2 DUP7 DUP4 PUSH2 0x197D JUMP JUMPDEST SWAP6 POP DUP1 NOT DUP5 AND SWAP4 POP DUP1 DUP7 AND DUP5 OR SWAP3 POP POP POP SWAP4 SWAP3 POP POP POP JUMP JUMPDEST PUSH0 DUP2 SWAP1 POP SWAP2 SWAP1 POP JUMP JUMPDEST PUSH0 PUSH2 0x19FD PUSH2 0x19F8 PUSH2 0x19F3 DUP5 PUSH2 0xFCC JUMP JUMPDEST PUSH2 0x19DA JUMP JUMPDEST PUSH2 0xFCC JUMP JUMPDEST SWAP1 POP SWAP2 SWAP1 POP JUMP JUMPDEST PUSH0 DUP2 SWAP1 POP SWAP2 SWAP1 POP JUMP JUMPDEST PUSH2 0x1A16 DUP4 PUSH2 0x19E3 JUMP JUMPDEST PUSH2 0x1A2A PUSH2 0x1A22 DUP3 PUSH2 0x1A04 JUMP JUMPDEST DUP5 DUP5 SLOAD PUSH2 0x1989 JUMP JUMPDEST DUP3 SSTORE POP POP POP POP JUMP JUMPDEST PUSH0 SWAP1 JUMP JUMPDEST PUSH2 0x1A3E PUSH2 0x1A32 JUMP JUMPDEST PUSH2 0x1A49 DUP2 DUP5 DUP5 PUSH2 0x1A0D JUMP JUMPDEST POP POP POP JUMP JUMPDEST JUMPDEST DUP2 DUP2 LT ISZERO PUSH2 0x1A6C JUMPI PUSH2 0x1A61 PUSH0 DUP3 PUSH2 0x1A36 JUMP JUMPDEST PUSH1 0x1 DUP2 ADD SWAP1 POP PUSH2 0x1A4F JUMP JUMPDEST POP POP JUMP JUMPDEST PUSH1 0x1F DUP3 GT ISZERO PUSH2 0x1AB1 JUMPI PUSH2 0x1A82 DUP2 PUSH2 0x195C JUMP JUMPDEST PUSH2 0x1A8B DUP5 PUSH2 0x196E JUMP JUMPDEST DUP2 ADD PUSH1 0x20 DUP6 LT ISZERO PUSH2 0x1A9A JUMPI DUP2 SWAP1 POP JUMPDEST PUSH2 0x1AAE PUSH2 0x1AA6 DUP6 PUSH2 0x196E JUMP JUMPDEST DUP4 ADD DUP3 PUSH2 0x1A4E JUMP JUMPDEST POP POP JUMPDEST POP POP POP JUMP JUMPDEST PUSH0 DUP3 DUP3 SHR SWAP1 POP SWAP3 SWAP2 POP POP JUMP JUMPDEST PUSH0 PUSH2 0x1AD1 PUSH0 NOT DUP5 PUSH1 0x8 MUL PUSH2 0x1AB6 JUMP JUMPDEST NOT DUP1 DUP4 AND SWAP2 POP POP SWAP3 SWAP2 POP POP JUMP JUMPDEST PUSH0 PUSH2 0x1AE9 DUP4 DUP4 PUSH2 0x1AC2 JUMP JUMPDEST SWAP2 POP DUP3 PUSH1 0x2 MUL DUP3 OR SWAP1 POP SWAP3 SWAP2 POP POP JUMP JUMPDEST PUSH2 0x1B02 DUP3 PUSH2 0x105B JUMP JUMPDEST PUSH8 0xFFFFFFFFFFFFFFFF DUP2 GT ISZERO PUSH2 0x1B1B JUMPI PUSH2 0x1B1A PUSH2 0x1286 JUMP JUMPDEST JUMPDEST PUSH2 0x1B25 DUP3 SLOAD PUSH2 0x15D8 JUMP JUMPDEST PUSH2 0x1B30 DUP3 DUP3 DUP6 PUSH2 0x1A70 JUMP JUMPDEST PUSH0 PUSH1 0x20 SWAP1 POP PUSH1 0x1F DUP4 GT PUSH1 0x1 DUP2 EQ PUSH2 0x1B61 JUMPI PUSH0 DUP5 ISZERO PUSH2 0x1B4F JUMPI DUP3 DUP8 ADD MLOAD SWAP1 POP JUMPDEST PUSH2 0x1B59 DUP6 DUP3 PUSH2 0x1ADE JUMP JUMPDEST DUP7 SSTORE POP PUSH2 0x1BC0 JUMP JUMPDEST PUSH1 0x1F NOT DUP5 AND PUSH2 0x1B6F DUP7 PUSH2 0x195C JUMP JUMPDEST PUSH0 JUMPDEST DUP3 DUP2 LT ISZERO PUSH2 0x1B96 JUMPI DUP5 DUP10 ADD MLOAD DUP3 SSTORE PUSH1 0x1 DUP3 ADD SWAP2 POP PUSH1 0x20 DUP6 ADD SWAP5 POP PUSH1 0x20 DUP2 ADD SWAP1 POP PUSH2 0x1B71 JUMP JUMPDEST DUP7 DUP4 LT ISZERO PUSH2 0x1BB3 JUMPI DUP5 DUP10 ADD MLOAD PUSH2 0x1BAF PUSH1 0x1F DUP10 AND DUP3 PUSH2 0x1AC2 JUMP JUMPDEST DUP4 SSTORE POP JUMPDEST PUSH1 0x1 PUSH1 0x2 DUP9 MUL ADD DUP9 SSTORE POP POP POP JUMPDEST POP POP POP POP POP POP JUMP JUMPDEST PUSH0 PUSH1 0x80 DUP3 ADD SWAP1 POP PUSH2 0x1BDB PUSH0 DUP4 ADD DUP8 PUSH2 0x103D JUMP JUMPDEST PUSH2 0x1BE8 PUSH1 0x20 DUP4 ADD DUP7 PUSH2 0x104C JUMP JUMPDEST DUP2 DUP2 SUB PUSH1 0x40 DUP4 ADD MSTORE PUSH2 0x1BFA DUP2 DUP6 PUSH2 0x1093 JUMP JUMPDEST SWAP1 POP PUSH2 0x1C09 PUSH1 0x60 DUP4 ADD DUP5 PUSH2 0x103D JUMP JUMPDEST SWAP6 SWAP5 POP POP POP POP POP JUMP JUMPDEST PUSH32 0x4E487B7100000000000000000000000000000000000000000000000000000000 PUSH0 MSTORE PUSH1 0x12 PUSH1 0x4 MSTORE PUSH1 0x24 PUSH0 REVERT INVALID LOG2 PUSH5 0x6970667358 0x22 SLT KECCAK256 0xF DUP1 ISZERO JUMPI TSTORE 0xD4 DUP14 0xC 0xE5 0xC7 0xE2 CODESIZE GASPRICE 0xFC PUSH24 0x74EEC374E3D3E03B7E83D1929A6F25600264736F6C634300 ADDMOD BYTE STOP CALLER "
				},
				"gasEstimates": {
					"creation": {
						"codeDepositCost": "1457000",
						"executionCost": "50049",
						"totalCost": "1507049"
					},
					"external": {
						"TWEET_MAX_LENGTH()": "2551",
						"changeTweetLength(uint16)": "26909",
						"createTweet(string)": "infinite",
						"getALLTweets(address)": "infinite",
						"getTweet(address,uint256)": "infinite",
						"likeTweet(address,uint256)": "infinite",
						"owner()": "2574",
						"tweets(address,uint256)": "infinite",
						"unlikeTweet(address,uint256)": "infinite"
					}
				},
				"methodIdentifiers": {
					"TWEET_MAX_LENGTH()": "fd10b7df",
					"changeTweetLength(uint16)": "58bfa4ab",
					"createTweet(string)": "7c9cd2bc",
					"getALLTweets(address)": "808b0cf1",
					"getTweet(address,uint256)": "112f54e3",
					"likeTweet(address,uint256)": "63378216",
					"owner()": "8da5cb5b",
					"tweets(address,uint256)": "05a1b4a9",
					"unlikeTweet(address,uint256)": "3d9b569f"
				}
			},
			"storageLayout": {
				"storage": [
					{
						"astId": 16,
						"contract": "contracts/Twitter.sol:Twitter",
						"label": "TWEET_MAX_LENGTH",
						"offset": 0,
						"slot": "0",
						"type": "t_uint16"
					},
					{
						"astId": 22,
						"contract": "contracts/Twitter.sol:Twitter",
						"label": "tweets",
						"offset": 0,
						"slot": "1",
						"type": "t_mapping(t_address,t_array(t_struct(Tweet)13_storage)dyn_storage)"
					},
					{
						"astId": 24,
						"contract": "contracts/Twitter.sol:Twitter",
						"label": "owner",
						"offset": 0,
						"slot": "2",
						"type": "t_address"
					}
				],
				"types": {
					"t_address": {
						"encoding": "inplace",
						"label": "address",
						"numberOfBytes": "20"
					},
					"t_array(t_struct(Tweet)13_storage)dyn_storage": {
						"base": "t_struct(Tweet)13_storage",
						"encoding": "dynamic_array",
						"label": "struct Twitter.Tweet[]",
						"numberOfBytes": "32"
					},
					"t_mapping(t_address,t_array(t_struct(Tweet)13_storage)dyn_storage)": {
						"encoding": "mapping",
						"key": "t_address",
						"label": "mapping(address => struct Twitter.Tweet[])",
						"numberOfBytes": "32",
						"value": "t_array(t_struct(Tweet)13_storage)dyn_storage"
					},
					"t_string_storage": {
						"encoding": "bytes",
						"label": "string",
						"numberOfBytes": "32"
					},
					"t_struct(Tweet)13_storage": {
						"encoding": "inplace",
						"label": "struct Twitter.Tweet",
						"members": [
							{
								"astId": 4,
								"contract": "contracts/Twitter.sol:Twitter",
								"label": "id",
								"offset": 0,
								"slot": "0",
								"type": "t_uint256"
							},
							{
								"astId": 6,
								"contract": "contracts/Twitter.sol:Twitter",
								"label": "author",
								"offset": 0,
								"slot": "1",
								"type": "t_address"
							},
							{
								"astId": 8,
								"contract": "contracts/Twitter.sol:Twitter",
								"label": "content",
								"offset": 0,
								"slot": "2",
								"type": "t_string_storage"
							},
							{
								"astId": 10,
								"contract": "contracts/Twitter.sol:Twitter",
								"label": "timestamp",
								"offset": 0,
								"slot": "3",
								"type": "t_uint256"
							},
							{
								"astId": 12,
								"contract": "contracts/Twitter.sol:Twitter",
								"label": "likes",
								"offset": 0,
								"slot": "4",
								"type": "t_uint256"
							}
						],
						"numberOfBytes": "160"
					},
					"t_uint16": {
						"encoding": "inplace",
						"label": "uint16",
						"numberOfBytes": "2"
					},
					"t_uint256": {
						"encoding": "inplace",
						"label": "uint256",
						"numberOfBytes": "32"
					}
				}
			},
			"userdoc": {
				"kind": "user",
				"methods": {},
				"version": 1
			}
		}
	}
}