{
	"contracts/Twitter.sol": {
		"Twitter": {
			"abi": [
				{
					"inputs": [],
					"stateMutability": "nonpayable",
					"type": "constructor"
				},
				{
					"anonymous": false,
					"inputs": [
						{
							"indexed": false,
							"internalType": "uint256",
							"name": "id",
							"type": "uint256"
						},
						{
							"indexed": false,
							"internalType": "address",
							"name": "author",
							"type": "address"
						},
						{
							"indexed": false,
							"internalType": "string",
							"name": "content",
							"type": "string"
						},
						{
							"indexed": false,
							"internalType": "uint256",
							"name": "timestamp",
							"type": "uint256"
						}
					],
					"name": "TweetCreated",
					"type": "event"
				},
				{
					"anonymous": false,
					"inputs": [
						{
							"indexed": false,
							"internalType": "address",
							"name": "liker",
							"type": "address"
						},
						{
							"indexed": false,
							"internalType": "address",
							"name": "tweetAuthor",
							"type": "address"
						},
						{
							"indexed": false,
							"internalType": "uint256",
							"name": "tweetId",
							"type": "uint256"
						},
						{
							"indexed": false,
							"internalType": "uint256",
							"name": "newLikeCount",
							"type": "uint256"
						}
					],
					"name": "TweetLiked",
					"type": "event"
				},
				{
					"anonymous": false,
					"inputs": [
						{
							"indexed": false,
							"internalType": "address",
							"name": "unliker",
							"type": "address"
						},
						{
							"indexed": false,
							"internalType": "address",
							"name": "tweetAuthor",
							"type": "address"
						},
						{
							"indexed": false,
							"internalType": "uint256",
							"name": "tweetId",
							"type": "uint256"
						},
						{
							"indexed": false,
							"internalType": "uint256",
							"name": "newLikeCount",
							"type": "uint256"
						}
					],
					"name": "TweetUnliked",
					"type": "event"
				},
				{
					"inputs": [],
					"name": "TWEET_MAX_LENGTH",
					"outputs": [
						{
							"internalType": "uint16",
							"name": "",
							"type": "uint16"
						}
					],
					"stateMutability": "view",
					"type": "function"
				},
				{
					"inputs": [
						{
							"internalType": "uint16",
							"name": "newTweetLength",
							"type": "uint16"
						}
					],
					"name": "changeTweetLength",
					"outputs": [],
					"stateMutability": "nonpayable",
					"type": "function"
				},
				{
					"inputs": [
						{
							"internalType": "string",
							"name": "_tweet",
							"type": "string"
						}
					],
					"name": "createTweet",
					"outputs": [],
					"stateMutability": "nonpayable",
					"type": "function"
				},
				{
					"inputs": [
						{
							"internalType": "address",
							"name": "_owner",
							"type": "address"
						}
					],
					"name": "getALLTweets",
					"outputs": [
						{
							"components": [
								{
									"internalType": "uint256",
									"name": "id",
									"type": "uint256"
								},
								{
									"internalType": "address",
									"name": "author",
									"type": "address"
								},
								{
									"internalType": "string",
									"name": "content",
									"type": "string"
								},
								{
									"internalType": "uint256",
									"name": "timestamp",
									"type": "uint256"
								},
								{
									"internalType": "uint256",
									"name": "likes",
									"type": "uint256"
								}
							],
							"internalType": "struct Twitter.Tweet[]",
							"name": "",
							"type": "tuple[]"
						}
					],
					"stateMutability": "view",
					"type": "function"
				},
				{
					"inputs": [
						{
							"internalType": "address",
							"name": "_author",
							"type": "address"
						}
					],
					"name": "getTotalLikes",
					"outputs": [
						{
							"internalType": "uint256",
							"name": "",
							"type": "uint256"
						}
					],
					"stateMutability": "view",
					"type": "function"
				},
				{
					"inputs": [
						{
							"internalType": "address",
							"name": "_owner",
							"type": "address"
						},
						{
							"internalType": "uint256",
							"name": "_i",
							"type": "uint256"
						}
					],
					"name": "getTweet",
					"outputs": [
						{
							"components": [
								{
									"internalType": "uint256",
									"name": "id",
									"type": "uint256"
								},
								{
									"internalType": "address",
									"name": "author",
									"type": "address"
								},
								{
									"internalType": "string",
									"name": "content",
									"type": "string"
								},
								{
									"internalType": "uint256",
									"name": "timestamp",
									"type": "uint256"
								},
								{
									"internalType": "uint256",
									"name": "likes",
									"type": "uint256"
								}
							],
							"internalType": "struct Twitter.Tweet",
							"name": "",
							"type": "tuple"
						}
					],
					"stateMutability": "view",
					"type": "function"
				},
				{
					"inputs": [
						{
							"internalType": "address",
							"name": "_author",
							"type": "address"
						},
						{
							"internalType": "uint256",
							"name": "_id",
							"type": "uint256"
						}
					],
					"name": "likeTweet",
					"outputs": [],
					"stateMutability": "nonpayable",
					"type": "function"
				},
				{
					"inputs": [],
					"name": "owner",
					"outputs": [
						{
							"internalType": "address",
							"name": "",
							"type": "address"
						}
					],
					"stateMutability": "view",
					"type": "function"
				},
				{
					"inputs": [
						{
							"internalType": "address",
							"name": "",
							"type": "address"
						},
						{
							"internalType": "uint256",
							"name": "",
							"type": "uint256"
						}
					],
					"name": "tweets",
					"outputs": [
						{
							"internalType": "uint256",
							"name": "id",
							"type": "uint256"
						},
						{
							"internalType": "address",
							"name": "author",
							"type": "address"
						},
						{
							"internalType": "string",
							"name": "content",
							"type": "string"
						},
						{
							"internalType": "uint256",
							"name": "timestamp",
							"type": "uint256"
						},
						{
							"internalType": "uint256",
							"name": "likes",
							"type": "uint256"
						}
					],
					"stateMutability": "view",
					"type": "function"
				},
				{
					"inputs": [
						{
							"internalType": "address",
							"name": "_author",
							"type": "address"
						},
						{
							"internalType": "uint256",
							"name": "_id",
							"type": "uint256"
						}
					],
					"name": "unlikeTweet",
					"outputs": [],
					"stateMutability": "nonpayable",
					"type": "function"
				}
			],
			"devdoc": {
				"kind": "dev",
				"methods": {},
				"version": 1
			},
			"evm": {
				"assembly": "    /* \"contracts/Twitter.sol\":176:2917  contract Twitter {... */\n  mstore(0x40, 0x80)\n    /* \"contracts/Twitter.sol\":375:378  280 */\n  0x0118\n    /* \"contracts/Twitter.sol\":342:378  uint16 public TWEET_MAX_LENGTH = 280 */\n  0x00\n  dup1\n  0x0100\n  exp\n  dup2\n  sload\n  dup2\n  0xffff\n  mul\n  not\n  and\n  swap1\n  dup4\n  0xffff\n  and\n  mul\n  or\n  swap1\n  sstore\n  pop\n    /* \"contracts/Twitter.sol\":745:794  constructor() {... */\n  callvalue\n  dup1\n  iszero\n  tag_1\n  jumpi\n  0x00\n  dup1\n  revert\ntag_1:\n  pop\n    /* \"contracts/Twitter.sol\":777:787  msg.sender */\n  caller\n    /* \"contracts/Twitter.sol\":769:774  owner */\n  0x02\n  0x00\n    /* \"contracts/Twitter.sol\":769:787  owner = msg.sender */\n  0x0100\n  exp\n  dup2\n  sload\n  dup2\n  0xffffffffffffffffffffffffffffffffffffffff\n  mul\n  not\n  and\n  swap1\n  dup4\n  0xffffffffffffffffffffffffffffffffffffffff\n  and\n  mul\n  or\n  swap1\n  sstore\n  pop\n    /* \"contracts/Twitter.sol\":176:2917  contract Twitter {... */\n  dataSize(sub_0)\n  dup1\n  dataOffset(sub_0)\n  0x00\n  codecopy\n  0x00\n  return\nstop\n\nsub_0: assembly {\n        /* \"contracts/Twitter.sol\":176:2917  contract Twitter {... */\n      mstore(0x40, 0x80)\n      callvalue\n      dup1\n      iszero\n      tag_1\n      jumpi\n      0x00\n      dup1\n      revert\n    tag_1:\n      pop\n      jumpi(tag_2, lt(calldatasize, 0x04))\n      shr(0xe0, calldataload(0x00))\n      dup1\n      0x7c9cd2bc\n      gt\n      tag_13\n      jumpi\n      dup1\n      0x7c9cd2bc\n      eq\n      tag_8\n      jumpi\n      dup1\n      0x808b0cf1\n      eq\n      tag_9\n      jumpi\n      dup1\n      0x820785cc\n      eq\n      tag_10\n      jumpi\n      dup1\n      0x8da5cb5b\n      eq\n      tag_11\n      jumpi\n      dup1\n      0xfd10b7df\n      eq\n      tag_12\n      jumpi\n      jump(tag_2)\n    tag_13:\n      dup1\n      0x05a1b4a9\n      eq\n      tag_3\n      jumpi\n      dup1\n      0x112f54e3\n      eq\n      tag_4\n      jumpi\n      dup1\n      0x3d9b569f\n      eq\n      tag_5\n      jumpi\n      dup1\n      0x58bfa4ab\n      eq\n      tag_6\n      jumpi\n      dup1\n      0x63378216\n      eq\n      tag_7\n      jumpi\n    tag_2:\n      0x00\n      dup1\n      revert\n        /* \"contracts/Twitter.sol\":384:426  mapping (address => Tweet[]) public tweets */\n    tag_3:\n      tag_14\n      0x04\n      dup1\n      calldatasize\n      sub\n      dup2\n      add\n      swap1\n      tag_15\n      swap2\n      swap1\n      tag_16\n      jump\t// in\n    tag_15:\n      tag_17\n      jump\t// in\n    tag_14:\n      mload(0x40)\n      tag_18\n      swap6\n      swap5\n      swap4\n      swap3\n      swap2\n      swap1\n      tag_19\n      jump\t// in\n    tag_18:\n      mload(0x40)\n      dup1\n      swap2\n      sub\n      swap1\n      return\n        /* \"contracts/Twitter.sol\":1915:2038  function getTweet(address _owner, uint256 _i) public view returns (Tweet memory) {... */\n    tag_4:\n      tag_20\n      0x04\n      dup1\n      calldatasize\n      sub\n      dup2\n      add\n      swap1\n      tag_21\n      swap2\n      swap1\n      tag_16\n      jump\t// in\n    tag_21:\n      tag_22\n      jump\t// in\n    tag_20:\n      mload(0x40)\n      tag_23\n      swap2\n      swap1\n      tag_24\n      jump\t// in\n    tag_23:\n      mload(0x40)\n      dup1\n      swap2\n      sub\n      swap1\n      return\n        /* \"contracts/Twitter.sol\":2376:2659  function unlikeTweet(address _author, uint256 _id) external tweetExists(_author, _id){... */\n    tag_5:\n      tag_25\n      0x04\n      dup1\n      calldatasize\n      sub\n      dup2\n      add\n      swap1\n      tag_26\n      swap2\n      swap1\n      tag_16\n      jump\t// in\n    tag_26:\n      tag_27\n      jump\t// in\n    tag_25:\n      stop\n        /* \"contracts/Twitter.sol\":1080:1197  function changeTweetLength(uint16 newTweetLength) public onlyOwner {... */\n    tag_6:\n      tag_28\n      0x04\n      dup1\n      calldatasize\n      sub\n      dup2\n      add\n      swap1\n      tag_29\n      swap2\n      swap1\n      tag_30\n      jump\t// in\n    tag_29:\n      tag_31\n      jump\t// in\n    tag_28:\n      stop\n        /* \"contracts/Twitter.sol\":2163:2370  function likeTweet(address _author, uint256 _id) external tweetExists(_author, _id){... */\n    tag_7:\n      tag_32\n      0x04\n      dup1\n      calldatasize\n      sub\n      dup2\n      add\n      swap1\n      tag_33\n      swap2\n      swap1\n      tag_16\n      jump\t// in\n    tag_33:\n      tag_34\n      jump\t// in\n    tag_32:\n      stop\n        /* \"contracts/Twitter.sol\":1203:1909  function createTweet(string memory _tweet) public {... */\n    tag_8:\n      tag_35\n      0x04\n      dup1\n      calldatasize\n      sub\n      dup2\n      add\n      swap1\n      tag_36\n      swap2\n      swap1\n      tag_37\n      jump\t// in\n    tag_36:\n      tag_38\n      jump\t// in\n    tag_35:\n      stop\n        /* \"contracts/Twitter.sol\":2044:2157  function getALLTweets(address _owner) public view returns (Tweet[] memory) {... */\n    tag_9:\n      tag_39\n      0x04\n      dup1\n      calldatasize\n      sub\n      dup2\n      add\n      swap1\n      tag_40\n      swap2\n      swap1\n      tag_41\n      jump\t// in\n    tag_40:\n      tag_42\n      jump\t// in\n    tag_39:\n      mload(0x40)\n      tag_43\n      swap2\n      swap1\n      tag_44\n      jump\t// in\n    tag_43:\n      mload(0x40)\n      dup1\n      swap2\n      sub\n      swap1\n      return\n        /* \"contracts/Twitter.sol\":2665:2915  function getTotalLikes(address _author) external view returns (uint) {... */\n    tag_10:\n      tag_45\n      0x04\n      dup1\n      calldatasize\n      sub\n      dup2\n      add\n      swap1\n      tag_46\n      swap2\n      swap1\n      tag_41\n      jump\t// in\n    tag_46:\n      tag_47\n      jump\t// in\n    tag_45:\n      mload(0x40)\n      tag_48\n      swap2\n      swap1\n      tag_49\n      jump\t// in\n    tag_48:\n      mload(0x40)\n      dup1\n      swap2\n      sub\n      swap1\n      return\n        /* \"contracts/Twitter.sol\":432:452  address public owner */\n    tag_11:\n      tag_50\n      tag_51\n      jump\t// in\n    tag_50:\n      mload(0x40)\n      tag_52\n      swap2\n      swap1\n      tag_53\n      jump\t// in\n    tag_52:\n      mload(0x40)\n      dup1\n      swap2\n      sub\n      swap1\n      return\n        /* \"contracts/Twitter.sol\":342:378  uint16 public TWEET_MAX_LENGTH = 280 */\n    tag_12:\n      tag_54\n      tag_55\n      jump\t// in\n    tag_54:\n      mload(0x40)\n      tag_56\n      swap2\n      swap1\n      tag_57\n      jump\t// in\n    tag_56:\n      mload(0x40)\n      dup1\n      swap2\n      sub\n      swap1\n      return\n        /* \"contracts/Twitter.sol\":384:426  mapping (address => Tweet[]) public tweets */\n    tag_17:\n      mstore(0x20, 0x01)\n      dup2\n      0x00\n      mstore\n      keccak256(0x00, 0x40)\n      dup2\n      dup2\n      sload\n      dup2\n      lt\n      tag_58\n      jumpi\n      0x00\n      dup1\n      revert\n    tag_58:\n      swap1\n      0x00\n      mstore\n      keccak256(0x00, 0x20)\n      swap1\n      0x05\n      mul\n      add\n      0x00\n      swap2\n      pop\n      swap2\n      pop\n      pop\n      dup1\n      0x00\n      add\n      sload\n      swap1\n      dup1\n      0x01\n      add\n      0x00\n      swap1\n      sload\n      swap1\n      0x0100\n      exp\n      swap1\n      div\n      0xffffffffffffffffffffffffffffffffffffffff\n      and\n      swap1\n      dup1\n      0x02\n      add\n      dup1\n      sload\n      tag_60\n      swap1\n      tag_61\n      jump\t// in\n    tag_60:\n      dup1\n      0x1f\n      add\n      0x20\n      dup1\n      swap2\n      div\n      mul\n      0x20\n      add\n      mload(0x40)\n      swap1\n      dup2\n      add\n      0x40\n      mstore\n      dup1\n      swap3\n      swap2\n      swap1\n      dup2\n      dup2\n      mstore\n      0x20\n      add\n      dup3\n      dup1\n      sload\n      tag_62\n      swap1\n      tag_61\n      jump\t// in\n    tag_62:\n      dup1\n      iszero\n      tag_63\n      jumpi\n      dup1\n      0x1f\n      lt\n      tag_64\n      jumpi\n      0x0100\n      dup1\n      dup4\n      sload\n      div\n      mul\n      dup4\n      mstore\n      swap2\n      0x20\n      add\n      swap2\n      jump(tag_63)\n    tag_64:\n      dup3\n      add\n      swap2\n      swap1\n      0x00\n      mstore\n      keccak256(0x00, 0x20)\n      swap1\n    tag_65:\n      dup2\n      sload\n      dup2\n      mstore\n      swap1\n      0x01\n      add\n      swap1\n      0x20\n      add\n      dup1\n      dup4\n      gt\n      tag_65\n      jumpi\n      dup3\n      swap1\n      sub\n      0x1f\n      and\n      dup3\n      add\n      swap2\n    tag_63:\n      pop\n      pop\n      pop\n      pop\n      pop\n      swap1\n      dup1\n      0x03\n      add\n      sload\n      swap1\n      dup1\n      0x04\n      add\n      sload\n      swap1\n      pop\n      dup6\n      jump\t// out\n        /* \"contracts/Twitter.sol\":1915:2038  function getTweet(address _owner, uint256 _i) public view returns (Tweet memory) {... */\n    tag_22:\n        /* \"contracts/Twitter.sol\":1982:1994  Tweet memory */\n      tag_66\n      tag_67\n      jump\t// in\n    tag_66:\n        /* \"contracts/Twitter.sol\":2013:2019  tweets */\n      0x01\n        /* \"contracts/Twitter.sol\":2013:2027  tweets[_owner] */\n      0x00\n        /* \"contracts/Twitter.sol\":2020:2026  _owner */\n      dup5\n        /* \"contracts/Twitter.sol\":2013:2027  tweets[_owner] */\n      0xffffffffffffffffffffffffffffffffffffffff\n      and\n      0xffffffffffffffffffffffffffffffffffffffff\n      and\n      dup2\n      mstore\n      0x20\n      add\n      swap1\n      dup2\n      mstore\n      0x20\n      add\n      0x00\n      keccak256\n        /* \"contracts/Twitter.sol\":2028:2030  _i */\n      dup3\n        /* \"contracts/Twitter.sol\":2013:2031  tweets[_owner][_i] */\n      dup2\n      sload\n      dup2\n      lt\n      tag_69\n      jumpi\n      tag_70\n      tag_71\n      jump\t// in\n    tag_70:\n    tag_69:\n      swap1\n      0x00\n      mstore\n      keccak256(0x00, 0x20)\n      swap1\n      0x05\n      mul\n      add\n        /* \"contracts/Twitter.sol\":2006:2031  return tweets[_owner][_i] */\n      mload(0x40)\n      dup1\n      0xa0\n      add\n      0x40\n      mstore\n      swap1\n      dup2\n      0x00\n      dup3\n      add\n      sload\n      dup2\n      mstore\n      0x20\n      add\n      0x01\n      dup3\n      add\n      0x00\n      swap1\n      sload\n      swap1\n      0x0100\n      exp\n      swap1\n      div\n      0xffffffffffffffffffffffffffffffffffffffff\n      and\n      0xffffffffffffffffffffffffffffffffffffffff\n      and\n      0xffffffffffffffffffffffffffffffffffffffff\n      and\n      dup2\n      mstore\n      0x20\n      add\n      0x02\n      dup3\n      add\n      dup1\n      sload\n      tag_73\n      swap1\n      tag_61\n      jump\t// in\n    tag_73:\n      dup1\n      0x1f\n      add\n      0x20\n      dup1\n      swap2\n      div\n      mul\n      0x20\n      add\n      mload(0x40)\n      swap1\n      dup2\n      add\n      0x40\n      mstore\n      dup1\n      swap3\n      swap2\n      swap1\n      dup2\n      dup2\n      mstore\n      0x20\n      add\n      dup3\n      dup1\n      sload\n      tag_74\n      swap1\n      tag_61\n      jump\t// in\n    tag_74:\n      dup1\n      iszero\n      tag_75\n      jumpi\n      dup1\n      0x1f\n      lt\n      tag_76\n      jumpi\n      0x0100\n      dup1\n      dup4\n      sload\n      div\n      mul\n      dup4\n      mstore\n      swap2\n      0x20\n      add\n      swap2\n      jump(tag_75)\n    tag_76:\n      dup3\n      add\n      swap2\n      swap1\n      0x00\n      mstore\n      keccak256(0x00, 0x20)\n      swap1\n    tag_77:\n      dup2\n      sload\n      dup2\n      mstore\n      swap1\n      0x01\n      add\n      swap1\n      0x20\n      add\n      dup1\n      dup4\n      gt\n      tag_77\n      jumpi\n      dup3\n      swap1\n      sub\n      0x1f\n      and\n      dup3\n      add\n      swap2\n    tag_75:\n      pop\n      pop\n      pop\n      pop\n      pop\n      dup2\n      mstore\n      0x20\n      add\n      0x03\n      dup3\n      add\n      sload\n      dup2\n      mstore\n      0x20\n      add\n      0x04\n      dup3\n      add\n      sload\n      dup2\n      mstore\n      pop\n      pop\n      swap1\n      pop\n        /* \"contracts/Twitter.sol\":1915:2038  function getTweet(address _owner, uint256 _i) public view returns (Tweet memory) {... */\n      swap3\n      swap2\n      pop\n      pop\n      jump\t// out\n        /* \"contracts/Twitter.sol\":2376:2659  function unlikeTweet(address _author, uint256 _id) external tweetExists(_author, _id){... */\n    tag_27:\n        /* \"contracts/Twitter.sol\":2448:2455  _author */\n      dup2\n        /* \"contracts/Twitter.sol\":2457:2460  _id */\n      dup2\n        /* \"contracts/Twitter.sol\":1027:1030  _id */\n      dup1\n        /* \"contracts/Twitter.sol\":1000:1006  tweets */\n      0x01\n        /* \"contracts/Twitter.sol\":1000:1015  tweets[_author] */\n      0x00\n        /* \"contracts/Twitter.sol\":1007:1014  _author */\n      dup5\n        /* \"contracts/Twitter.sol\":1000:1015  tweets[_author] */\n      0xffffffffffffffffffffffffffffffffffffffff\n      and\n      0xffffffffffffffffffffffffffffffffffffffff\n      and\n      dup2\n      mstore\n      0x20\n      add\n      swap1\n      dup2\n      mstore\n      0x20\n      add\n      0x00\n      keccak256\n        /* \"contracts/Twitter.sol\":1016:1019  _id */\n      dup3\n        /* \"contracts/Twitter.sol\":1000:1020  tweets[_author][_id] */\n      dup2\n      sload\n      dup2\n      lt\n      tag_79\n      jumpi\n      tag_80\n      tag_71\n      jump\t// in\n    tag_80:\n    tag_79:\n      swap1\n      0x00\n      mstore\n      keccak256(0x00, 0x20)\n      swap1\n      0x05\n      mul\n      add\n        /* \"contracts/Twitter.sol\":1000:1023  tweets[_author][_id].id */\n      0x00\n      add\n      sload\n        /* \"contracts/Twitter.sol\":1000:1030  tweets[_author][_id].id == _id */\n      eq\n        /* \"contracts/Twitter.sol\":992:1056  require(tweets[_author][_id].id == _id, \"Tweet does not exist!\") */\n      tag_82\n      jumpi\n      mload(0x40)\n      0x08c379a000000000000000000000000000000000000000000000000000000000\n      dup2\n      mstore\n      0x04\n      add\n      tag_83\n      swap1\n      tag_84\n      jump\t// in\n    tag_83:\n      mload(0x40)\n      dup1\n      swap2\n      sub\n      swap1\n      revert\n    tag_82:\n        /* \"contracts/Twitter.sol\":2508:2509  0 */\n      0x00\n        /* \"contracts/Twitter.sol\":2479:2485  tweets */\n      0x01\n        /* \"contracts/Twitter.sol\":2479:2494  tweets[_author] */\n      0x00\n        /* \"contracts/Twitter.sol\":2486:2493  _author */\n      dup7\n        /* \"contracts/Twitter.sol\":2479:2494  tweets[_author] */\n      0xffffffffffffffffffffffffffffffffffffffff\n      and\n      0xffffffffffffffffffffffffffffffffffffffff\n      and\n      dup2\n      mstore\n      0x20\n      add\n      swap1\n      dup2\n      mstore\n      0x20\n      add\n      0x00\n      keccak256\n        /* \"contracts/Twitter.sol\":2495:2498  _id */\n      dup5\n        /* \"contracts/Twitter.sol\":2479:2499  tweets[_author][_id] */\n      dup2\n      sload\n      dup2\n      lt\n      tag_86\n      jumpi\n      tag_87\n      tag_71\n      jump\t// in\n    tag_87:\n    tag_86:\n      swap1\n      0x00\n      mstore\n      keccak256(0x00, 0x20)\n      swap1\n      0x05\n      mul\n      add\n        /* \"contracts/Twitter.sol\":2479:2505  tweets[_author][_id].likes */\n      0x04\n      add\n      sload\n        /* \"contracts/Twitter.sol\":2479:2509  tweets[_author][_id].likes > 0 */\n      gt\n        /* \"contracts/Twitter.sol\":2471:2533  require(tweets[_author][_id].likes > 0, \"Tweet has no likes!\") */\n      tag_89\n      jumpi\n      mload(0x40)\n      0x08c379a000000000000000000000000000000000000000000000000000000000\n      dup2\n      mstore\n      0x04\n      add\n      tag_90\n      swap1\n      tag_91\n      jump\t// in\n    tag_90:\n      mload(0x40)\n      dup1\n      swap2\n      sub\n      swap1\n      revert\n    tag_89:\n        /* \"contracts/Twitter.sol\":2543:2549  tweets */\n      0x01\n        /* \"contracts/Twitter.sol\":2543:2558  tweets[_author] */\n      0x00\n        /* \"contracts/Twitter.sol\":2550:2557  _author */\n      dup6\n        /* \"contracts/Twitter.sol\":2543:2558  tweets[_author] */\n      0xffffffffffffffffffffffffffffffffffffffff\n      and\n      0xffffffffffffffffffffffffffffffffffffffff\n      and\n      dup2\n      mstore\n      0x20\n      add\n      swap1\n      dup2\n      mstore\n      0x20\n      add\n      0x00\n      keccak256\n        /* \"contracts/Twitter.sol\":2559:2562  _id */\n      dup4\n        /* \"contracts/Twitter.sol\":2543:2563  tweets[_author][_id] */\n      dup2\n      sload\n      dup2\n      lt\n      tag_92\n      jumpi\n      tag_93\n      tag_71\n      jump\t// in\n    tag_93:\n    tag_92:\n      swap1\n      0x00\n      mstore\n      keccak256(0x00, 0x20)\n      swap1\n      0x05\n      mul\n      add\n        /* \"contracts/Twitter.sol\":2543:2569  tweets[_author][_id].likes */\n      0x04\n      add\n      0x00\n        /* \"contracts/Twitter.sol\":2543:2571  tweets[_author][_id].likes-- */\n      dup2\n      sload\n      dup1\n      swap3\n      swap2\n      swap1\n      tag_95\n      swap1\n      tag_96\n      jump\t// in\n    tag_95:\n      swap2\n      swap1\n      pop\n      sstore\n      pop\n        /* \"contracts/Twitter.sol\":2586:2652  TweetUnliked(msg.sender, _author, _id, tweets[_author][_id].likes) */\n      0x762c2616349603ac16eba0de8e6141b79129a07ab63bd99e0a80b3a471716943\n        /* \"contracts/Twitter.sol\":2599:2609  msg.sender */\n      caller\n        /* \"contracts/Twitter.sol\":2611:2618  _author */\n      dup6\n        /* \"contracts/Twitter.sol\":2620:2623  _id */\n      dup6\n        /* \"contracts/Twitter.sol\":2625:2631  tweets */\n      0x01\n        /* \"contracts/Twitter.sol\":2625:2640  tweets[_author] */\n      0x00\n        /* \"contracts/Twitter.sol\":2632:2639  _author */\n      dup10\n        /* \"contracts/Twitter.sol\":2625:2640  tweets[_author] */\n      0xffffffffffffffffffffffffffffffffffffffff\n      and\n      0xffffffffffffffffffffffffffffffffffffffff\n      and\n      dup2\n      mstore\n      0x20\n      add\n      swap1\n      dup2\n      mstore\n      0x20\n      add\n      0x00\n      keccak256\n        /* \"contracts/Twitter.sol\":2641:2644  _id */\n      dup8\n        /* \"contracts/Twitter.sol\":2625:2645  tweets[_author][_id] */\n      dup2\n      sload\n      dup2\n      lt\n      tag_97\n      jumpi\n      tag_98\n      tag_71\n      jump\t// in\n    tag_98:\n    tag_97:\n      swap1\n      0x00\n      mstore\n      keccak256(0x00, 0x20)\n      swap1\n      0x05\n      mul\n      add\n        /* \"contracts/Twitter.sol\":2625:2651  tweets[_author][_id].likes */\n      0x04\n      add\n      sload\n        /* \"contracts/Twitter.sol\":2586:2652  TweetUnliked(msg.sender, _author, _id, tweets[_author][_id].likes) */\n      mload(0x40)\n      tag_100\n      swap5\n      swap4\n      swap3\n      swap2\n      swap1\n      tag_101\n      jump\t// in\n    tag_100:\n      mload(0x40)\n      dup1\n      swap2\n      sub\n      swap1\n      log1\n        /* \"contracts/Twitter.sol\":2376:2659  function unlikeTweet(address _author, uint256 _id) external tweetExists(_author, _id){... */\n      pop\n      pop\n      pop\n      pop\n      jump\t// out\n        /* \"contracts/Twitter.sol\":1080:1197  function changeTweetLength(uint16 newTweetLength) public onlyOwner {... */\n    tag_31:\n        /* \"contracts/Twitter.sol\":853:858  owner */\n      0x02\n      0x00\n      swap1\n      sload\n      swap1\n      0x0100\n      exp\n      swap1\n      div\n      0xffffffffffffffffffffffffffffffffffffffff\n      and\n        /* \"contracts/Twitter.sol\":839:858  msg.sender == owner */\n      0xffffffffffffffffffffffffffffffffffffffff\n      and\n        /* \"contracts/Twitter.sol\":839:849  msg.sender */\n      caller\n        /* \"contracts/Twitter.sol\":839:858  msg.sender == owner */\n      0xffffffffffffffffffffffffffffffffffffffff\n      and\n      eq\n        /* \"contracts/Twitter.sol\":831:907  require(msg.sender == owner, \"You're not allowed to execute this operation\") */\n      tag_103\n      jumpi\n      mload(0x40)\n      0x08c379a000000000000000000000000000000000000000000000000000000000\n      dup2\n      mstore\n      0x04\n      add\n      tag_104\n      swap1\n      tag_105\n      jump\t// in\n    tag_104:\n      mload(0x40)\n      dup1\n      swap2\n      sub\n      swap1\n      revert\n    tag_103:\n        /* \"contracts/Twitter.sol\":1176:1190  newTweetLength */\n      dup1\n        /* \"contracts/Twitter.sol\":1157:1173  TWEET_MAX_LENGTH */\n      0x00\n      dup1\n        /* \"contracts/Twitter.sol\":1157:1190  TWEET_MAX_LENGTH = newTweetLength */\n      0x0100\n      exp\n      dup2\n      sload\n      dup2\n      0xffff\n      mul\n      not\n      and\n      swap1\n      dup4\n      0xffff\n      and\n      mul\n      or\n      swap1\n      sstore\n      pop\n        /* \"contracts/Twitter.sol\":1080:1197  function changeTweetLength(uint16 newTweetLength) public onlyOwner {... */\n      pop\n      jump\t// out\n        /* \"contracts/Twitter.sol\":2163:2370  function likeTweet(address _author, uint256 _id) external tweetExists(_author, _id){... */\n    tag_34:\n        /* \"contracts/Twitter.sol\":2233:2240  _author */\n      dup2\n        /* \"contracts/Twitter.sol\":2242:2245  _id */\n      dup2\n        /* \"contracts/Twitter.sol\":1027:1030  _id */\n      dup1\n        /* \"contracts/Twitter.sol\":1000:1006  tweets */\n      0x01\n        /* \"contracts/Twitter.sol\":1000:1015  tweets[_author] */\n      0x00\n        /* \"contracts/Twitter.sol\":1007:1014  _author */\n      dup5\n        /* \"contracts/Twitter.sol\":1000:1015  tweets[_author] */\n      0xffffffffffffffffffffffffffffffffffffffff\n      and\n      0xffffffffffffffffffffffffffffffffffffffff\n      and\n      dup2\n      mstore\n      0x20\n      add\n      swap1\n      dup2\n      mstore\n      0x20\n      add\n      0x00\n      keccak256\n        /* \"contracts/Twitter.sol\":1016:1019  _id */\n      dup3\n        /* \"contracts/Twitter.sol\":1000:1020  tweets[_author][_id] */\n      dup2\n      sload\n      dup2\n      lt\n      tag_108\n      jumpi\n      tag_109\n      tag_71\n      jump\t// in\n    tag_109:\n    tag_108:\n      swap1\n      0x00\n      mstore\n      keccak256(0x00, 0x20)\n      swap1\n      0x05\n      mul\n      add\n        /* \"contracts/Twitter.sol\":1000:1023  tweets[_author][_id].id */\n      0x00\n      add\n      sload\n        /* \"contracts/Twitter.sol\":1000:1030  tweets[_author][_id].id == _id */\n      eq\n        /* \"contracts/Twitter.sol\":992:1056  require(tweets[_author][_id].id == _id, \"Tweet does not exist!\") */\n      tag_111\n      jumpi\n      mload(0x40)\n      0x08c379a000000000000000000000000000000000000000000000000000000000\n      dup2\n      mstore\n      0x04\n      add\n      tag_112\n      swap1\n      tag_84\n      jump\t// in\n    tag_112:\n      mload(0x40)\n      dup1\n      swap2\n      sub\n      swap1\n      revert\n    tag_111:\n        /* \"contracts/Twitter.sol\":2256:2262  tweets */\n      0x01\n        /* \"contracts/Twitter.sol\":2256:2271  tweets[_author] */\n      0x00\n        /* \"contracts/Twitter.sol\":2263:2270  _author */\n      dup6\n        /* \"contracts/Twitter.sol\":2256:2271  tweets[_author] */\n      0xffffffffffffffffffffffffffffffffffffffff\n      and\n      0xffffffffffffffffffffffffffffffffffffffff\n      and\n      dup2\n      mstore\n      0x20\n      add\n      swap1\n      dup2\n      mstore\n      0x20\n      add\n      0x00\n      keccak256\n        /* \"contracts/Twitter.sol\":2272:2275  _id */\n      dup4\n        /* \"contracts/Twitter.sol\":2256:2276  tweets[_author][_id] */\n      dup2\n      sload\n      dup2\n      lt\n      tag_114\n      jumpi\n      tag_115\n      tag_71\n      jump\t// in\n    tag_115:\n    tag_114:\n      swap1\n      0x00\n      mstore\n      keccak256(0x00, 0x20)\n      swap1\n      0x05\n      mul\n      add\n        /* \"contracts/Twitter.sol\":2256:2282  tweets[_author][_id].likes */\n      0x04\n      add\n      0x00\n        /* \"contracts/Twitter.sol\":2256:2284  tweets[_author][_id].likes++ */\n      dup2\n      sload\n      dup1\n      swap3\n      swap2\n      swap1\n      tag_117\n      swap1\n      tag_118\n      jump\t// in\n    tag_117:\n      swap2\n      swap1\n      pop\n      sstore\n      pop\n        /* \"contracts/Twitter.sol\":2299:2363  TweetLiked(msg.sender, _author, _id, tweets[_author][_id].likes) */\n      0xe8a76fc0f16d11a00d1e93b689b63d76cf60af914dd3d915375dc41d01a0c3c8\n        /* \"contracts/Twitter.sol\":2310:2320  msg.sender */\n      caller\n        /* \"contracts/Twitter.sol\":2322:2329  _author */\n      dup6\n        /* \"contracts/Twitter.sol\":2331:2334  _id */\n      dup6\n        /* \"contracts/Twitter.sol\":2336:2342  tweets */\n      0x01\n        /* \"contracts/Twitter.sol\":2336:2351  tweets[_author] */\n      0x00\n        /* \"contracts/Twitter.sol\":2343:2350  _author */\n      dup10\n        /* \"contracts/Twitter.sol\":2336:2351  tweets[_author] */\n      0xffffffffffffffffffffffffffffffffffffffff\n      and\n      0xffffffffffffffffffffffffffffffffffffffff\n      and\n      dup2\n      mstore\n      0x20\n      add\n      swap1\n      dup2\n      mstore\n      0x20\n      add\n      0x00\n      keccak256\n        /* \"contracts/Twitter.sol\":2352:2355  _id */\n      dup8\n        /* \"contracts/Twitter.sol\":2336:2356  tweets[_author][_id] */\n      dup2\n      sload\n      dup2\n      lt\n      tag_119\n      jumpi\n      tag_120\n      tag_71\n      jump\t// in\n    tag_120:\n    tag_119:\n      swap1\n      0x00\n      mstore\n      keccak256(0x00, 0x20)\n      swap1\n      0x05\n      mul\n      add\n        /* \"contracts/Twitter.sol\":2336:2362  tweets[_author][_id].likes */\n      0x04\n      add\n      sload\n        /* \"contracts/Twitter.sol\":2299:2363  TweetLiked(msg.sender, _author, _id, tweets[_author][_id].likes) */\n      mload(0x40)\n      tag_122\n      swap5\n      swap4\n      swap3\n      swap2\n      swap1\n      tag_101\n      jump\t// in\n    tag_122:\n      mload(0x40)\n      dup1\n      swap2\n      sub\n      swap1\n      log1\n        /* \"contracts/Twitter.sol\":2163:2370  function likeTweet(address _author, uint256 _id) external tweetExists(_author, _id){... */\n      pop\n      pop\n      pop\n      pop\n      jump\t// out\n        /* \"contracts/Twitter.sol\":1203:1909  function createTweet(string memory _tweet) public {... */\n    tag_38:\n        /* \"contracts/Twitter.sol\":1308:1324  TWEET_MAX_LENGTH */\n      0x00\n      dup1\n      sload\n      swap1\n      0x0100\n      exp\n      swap1\n      div\n      0xffff\n      and\n        /* \"contracts/Twitter.sol\":1284:1324  bytes(_tweet).length <= TWEET_MAX_LENGTH */\n      0xffff\n      and\n        /* \"contracts/Twitter.sol\":1290:1296  _tweet */\n      dup2\n        /* \"contracts/Twitter.sol\":1284:1304  bytes(_tweet).length */\n      mload\n        /* \"contracts/Twitter.sol\":1284:1324  bytes(_tweet).length <= TWEET_MAX_LENGTH */\n      gt\n      iszero\n        /* \"contracts/Twitter.sol\":1469:1503  Strings.toString(TWEET_MAX_LENGTH) */\n      tag_124\n        /* \"contracts/Twitter.sol\":1486:1502  TWEET_MAX_LENGTH */\n      0x00\n      dup1\n      sload\n      swap1\n      0x0100\n      exp\n      swap1\n      div\n      0xffff\n      and\n        /* \"contracts/Twitter.sol\":1469:1503  Strings.toString(TWEET_MAX_LENGTH) */\n      0xffff\n      and\n        /* \"contracts/Twitter.sol\":1469:1485  Strings.toString */\n      tag_125\n        /* \"contracts/Twitter.sol\":1469:1503  Strings.toString(TWEET_MAX_LENGTH) */\n      jump\t// in\n    tag_124:\n        /* \"contracts/Twitter.sol\":1362:1521  abi.encodePacked(... */\n      add(0x20, mload(0x40))\n      tag_126\n      swap2\n      swap1\n      tag_127\n      jump\t// in\n    tag_126:\n      mload(0x40)\n      0x20\n      dup2\n      dup4\n      sub\n      sub\n      dup2\n      mstore\n      swap1\n      0x40\n      mstore\n        /* \"contracts/Twitter.sol\":1263:1545  require(... */\n      swap1\n      tag_128\n      jumpi\n      mload(0x40)\n      0x08c379a000000000000000000000000000000000000000000000000000000000\n      dup2\n      mstore\n      0x04\n      add\n      tag_129\n      swap2\n      swap1\n      tag_130\n      jump\t// in\n    tag_129:\n      mload(0x40)\n      dup1\n      swap2\n      sub\n      swap1\n      revert\n    tag_128:\n      pop\n        /* \"contracts/Twitter.sol\":1556:1577  Tweet memory newTweet */\n      0x00\n        /* \"contracts/Twitter.sol\":1580:1763  Tweet({... */\n      mload(0x40)\n      dup1\n      0xa0\n      add\n      0x40\n      mstore\n      dup1\n        /* \"contracts/Twitter.sol\":1604:1610  tweets */\n      0x01\n        /* \"contracts/Twitter.sol\":1604:1622  tweets[msg.sender] */\n      0x00\n        /* \"contracts/Twitter.sol\":1611:1621  msg.sender */\n      caller\n        /* \"contracts/Twitter.sol\":1604:1622  tweets[msg.sender] */\n      0xffffffffffffffffffffffffffffffffffffffff\n      and\n      0xffffffffffffffffffffffffffffffffffffffff\n      and\n      dup2\n      mstore\n      0x20\n      add\n      swap1\n      dup2\n      mstore\n      0x20\n      add\n      0x00\n      keccak256\n        /* \"contracts/Twitter.sol\":1604:1629  tweets[msg.sender].length */\n      dup1\n      sload\n      swap1\n      pop\n        /* \"contracts/Twitter.sol\":1580:1763  Tweet({... */\n      dup2\n      mstore\n      0x20\n      add\n        /* \"contracts/Twitter.sol\":1651:1661  msg.sender */\n      caller\n        /* \"contracts/Twitter.sol\":1580:1763  Tweet({... */\n      0xffffffffffffffffffffffffffffffffffffffff\n      and\n      dup2\n      mstore\n      0x20\n      add\n        /* \"contracts/Twitter.sol\":1684:1690  _tweet */\n      dup4\n        /* \"contracts/Twitter.sol\":1580:1763  Tweet({... */\n      dup2\n      mstore\n      0x20\n      add\n        /* \"contracts/Twitter.sol\":1715:1730  block.timestamp */\n      timestamp\n        /* \"contracts/Twitter.sol\":1580:1763  Tweet({... */\n      dup2\n      mstore\n      0x20\n      add\n        /* \"contracts/Twitter.sol\":1751:1752  0 */\n      0x00\n        /* \"contracts/Twitter.sol\":1580:1763  Tweet({... */\n      dup2\n      mstore\n      pop\n        /* \"contracts/Twitter.sol\":1556:1763  Tweet memory newTweet = Tweet({... */\n      swap1\n      pop\n        /* \"contracts/Twitter.sol\":1774:1780  tweets */\n      0x01\n        /* \"contracts/Twitter.sol\":1774:1792  tweets[msg.sender] */\n      0x00\n        /* \"contracts/Twitter.sol\":1781:1791  msg.sender */\n      caller\n        /* \"contracts/Twitter.sol\":1774:1792  tweets[msg.sender] */\n      0xffffffffffffffffffffffffffffffffffffffff\n      and\n      0xffffffffffffffffffffffffffffffffffffffff\n      and\n      dup2\n      mstore\n      0x20\n      add\n      swap1\n      dup2\n      mstore\n      0x20\n      add\n      0x00\n      keccak256\n        /* \"contracts/Twitter.sol\":1798:1806  newTweet */\n      dup2\n        /* \"contracts/Twitter.sol\":1774:1807  tweets[msg.sender].push(newTweet) */\n      swap1\n      dup1\n      0x01\n      dup2\n      sload\n      add\n      dup1\n      dup3\n      sstore\n      dup1\n      swap2\n      pop\n      pop\n      0x01\n      swap1\n      sub\n      swap1\n      0x00\n      mstore\n      keccak256(0x00, 0x20)\n      swap1\n      0x05\n      mul\n      add\n      0x00\n      swap1\n      swap2\n      swap1\n      swap2\n      swap1\n      swap2\n      pop\n      0x00\n      dup3\n      add\n      mload\n      dup2\n      0x00\n      add\n      sstore\n      0x20\n      dup3\n      add\n      mload\n      dup2\n      0x01\n      add\n      exp(0x0100, 0x00)\n      dup2\n      sload\n      dup2\n      0xffffffffffffffffffffffffffffffffffffffff\n      mul\n      not\n      and\n      swap1\n      dup4\n      0xffffffffffffffffffffffffffffffffffffffff\n      and\n      mul\n      or\n      swap1\n      sstore\n      pop\n      0x40\n      dup3\n      add\n      mload\n      dup2\n      0x02\n      add\n      swap1\n      dup2\n      tag_132\n      swap2\n      swap1\n      tag_133\n      jump\t// in\n    tag_132:\n      pop\n      0x60\n      dup3\n      add\n      mload\n      dup2\n      0x03\n      add\n      sstore\n      0x80\n      dup3\n      add\n      mload\n      dup2\n      0x04\n      add\n      sstore\n      pop\n      pop\n        /* \"contracts/Twitter.sol\":1822:1902  TweetCreated(newTweet.id, newTweet.author, newTweet.content, newTweet.timestamp) */\n      0x16fd3c13e9d46923e0a8bce11c7b473ec508a72e6c96cd2404b29ce972afc29e\n        /* \"contracts/Twitter.sol\":1835:1843  newTweet */\n      dup2\n        /* \"contracts/Twitter.sol\":1835:1846  newTweet.id */\n      0x00\n      add\n      mload\n        /* \"contracts/Twitter.sol\":1848:1856  newTweet */\n      dup3\n        /* \"contracts/Twitter.sol\":1848:1863  newTweet.author */\n      0x20\n      add\n      mload\n        /* \"contracts/Twitter.sol\":1865:1873  newTweet */\n      dup4\n        /* \"contracts/Twitter.sol\":1865:1881  newTweet.content */\n      0x40\n      add\n      mload\n        /* \"contracts/Twitter.sol\":1883:1891  newTweet */\n      dup5\n        /* \"contracts/Twitter.sol\":1883:1901  newTweet.timestamp */\n      0x60\n      add\n      mload\n        /* \"contracts/Twitter.sol\":1822:1902  TweetCreated(newTweet.id, newTweet.author, newTweet.content, newTweet.timestamp) */\n      mload(0x40)\n      tag_134\n      swap5\n      swap4\n      swap3\n      swap2\n      swap1\n      tag_135\n      jump\t// in\n    tag_134:\n      mload(0x40)\n      dup1\n      swap2\n      sub\n      swap1\n      log1\n        /* \"contracts/Twitter.sol\":1253:1909  {... */\n      pop\n        /* \"contracts/Twitter.sol\":1203:1909  function createTweet(string memory _tweet) public {... */\n      pop\n      jump\t// out\n        /* \"contracts/Twitter.sol\":2044:2157  function getALLTweets(address _owner) public view returns (Tweet[] memory) {... */\n    tag_42:\n        /* \"contracts/Twitter.sol\":2103:2117  Tweet[] memory */\n      0x60\n        /* \"contracts/Twitter.sol\":2136:2142  tweets */\n      0x01\n        /* \"contracts/Twitter.sol\":2136:2150  tweets[_owner] */\n      0x00\n        /* \"contracts/Twitter.sol\":2143:2149  _owner */\n      dup4\n        /* \"contracts/Twitter.sol\":2136:2150  tweets[_owner] */\n      0xffffffffffffffffffffffffffffffffffffffff\n      and\n      0xffffffffffffffffffffffffffffffffffffffff\n      and\n      dup2\n      mstore\n      0x20\n      add\n      swap1\n      dup2\n      mstore\n      0x20\n      add\n      0x00\n      keccak256\n        /* \"contracts/Twitter.sol\":2129:2150  return tweets[_owner] */\n      dup1\n      sload\n      dup1\n      0x20\n      mul\n      0x20\n      add\n      mload(0x40)\n      swap1\n      dup2\n      add\n      0x40\n      mstore\n      dup1\n      swap3\n      swap2\n      swap1\n      dup2\n      dup2\n      mstore\n      0x20\n      add\n      0x00\n      swap1\n    tag_137:\n      dup3\n      dup3\n      lt\n      iszero\n      tag_138\n      jumpi\n      dup4\n      dup3\n      swap1\n      0x00\n      mstore\n      keccak256(0x00, 0x20)\n      swap1\n      0x05\n      mul\n      add\n      mload(0x40)\n      dup1\n      0xa0\n      add\n      0x40\n      mstore\n      swap1\n      dup2\n      0x00\n      dup3\n      add\n      sload\n      dup2\n      mstore\n      0x20\n      add\n      0x01\n      dup3\n      add\n      0x00\n      swap1\n      sload\n      swap1\n      0x0100\n      exp\n      swap1\n      div\n      0xffffffffffffffffffffffffffffffffffffffff\n      and\n      0xffffffffffffffffffffffffffffffffffffffff\n      and\n      0xffffffffffffffffffffffffffffffffffffffff\n      and\n      dup2\n      mstore\n      0x20\n      add\n      0x02\n      dup3\n      add\n      dup1\n      sload\n      tag_140\n      swap1\n      tag_61\n      jump\t// in\n    tag_140:\n      dup1\n      0x1f\n      add\n      0x20\n      dup1\n      swap2\n      div\n      mul\n      0x20\n      add\n      mload(0x40)\n      swap1\n      dup2\n      add\n      0x40\n      mstore\n      dup1\n      swap3\n      swap2\n      swap1\n      dup2\n      dup2\n      mstore\n      0x20\n      add\n      dup3\n      dup1\n      sload\n      tag_141\n      swap1\n      tag_61\n      jump\t// in\n    tag_141:\n      dup1\n      iszero\n      tag_142\n      jumpi\n      dup1\n      0x1f\n      lt\n      tag_143\n      jumpi\n      0x0100\n      dup1\n      dup4\n      sload\n      div\n      mul\n      dup4\n      mstore\n      swap2\n      0x20\n      add\n      swap2\n      jump(tag_142)\n    tag_143:\n      dup3\n      add\n      swap2\n      swap1\n      0x00\n      mstore\n      keccak256(0x00, 0x20)\n      swap1\n    tag_144:\n      dup2\n      sload\n      dup2\n      mstore\n      swap1\n      0x01\n      add\n      swap1\n      0x20\n      add\n      dup1\n      dup4\n      gt\n      tag_144\n      jumpi\n      dup3\n      swap1\n      sub\n      0x1f\n      and\n      dup3\n      add\n      swap2\n    tag_142:\n      pop\n      pop\n      pop\n      pop\n      pop\n      dup2\n      mstore\n      0x20\n      add\n      0x03\n      dup3\n      add\n      sload\n      dup2\n      mstore\n      0x20\n      add\n      0x04\n      dup3\n      add\n      sload\n      dup2\n      mstore\n      pop\n      pop\n      dup2\n      mstore\n      0x20\n      add\n      swap1\n      0x01\n      add\n      swap1\n      jump(tag_137)\n    tag_138:\n      pop\n      pop\n      pop\n      pop\n      swap1\n      pop\n        /* \"contracts/Twitter.sol\":2044:2157  function getALLTweets(address _owner) public view returns (Tweet[] memory) {... */\n      swap2\n      swap1\n      pop\n      jump\t// out\n        /* \"contracts/Twitter.sol\":2665:2915  function getTotalLikes(address _author) external view returns (uint) {... */\n    tag_47:\n        /* \"contracts/Twitter.sol\":2728:2732  uint */\n      0x00\n        /* \"contracts/Twitter.sol\":2744:2759  uint totalLikes */\n      dup1\n        /* \"contracts/Twitter.sol\":2774:2780  uint i */\n      0x00\n        /* \"contracts/Twitter.sol\":2770:2882  for(uint i = 0; i < tweets[_author].length; i++) {... */\n    tag_146:\n        /* \"contracts/Twitter.sol\":2790:2796  tweets */\n      0x01\n        /* \"contracts/Twitter.sol\":2790:2805  tweets[_author] */\n      0x00\n        /* \"contracts/Twitter.sol\":2797:2804  _author */\n      dup6\n        /* \"contracts/Twitter.sol\":2790:2805  tweets[_author] */\n      0xffffffffffffffffffffffffffffffffffffffff\n      and\n      0xffffffffffffffffffffffffffffffffffffffff\n      and\n      dup2\n      mstore\n      0x20\n      add\n      swap1\n      dup2\n      mstore\n      0x20\n      add\n      0x00\n      keccak256\n        /* \"contracts/Twitter.sol\":2790:2812  tweets[_author].length */\n      dup1\n      sload\n      swap1\n      pop\n        /* \"contracts/Twitter.sol\":2786:2787  i */\n      dup2\n        /* \"contracts/Twitter.sol\":2786:2812  i < tweets[_author].length */\n      lt\n        /* \"contracts/Twitter.sol\":2770:2882  for(uint i = 0; i < tweets[_author].length; i++) {... */\n      iszero\n      tag_147\n      jumpi\n        /* \"contracts/Twitter.sol\":2847:2853  tweets */\n      0x01\n        /* \"contracts/Twitter.sol\":2847:2862  tweets[_author] */\n      0x00\n        /* \"contracts/Twitter.sol\":2854:2861  _author */\n      dup6\n        /* \"contracts/Twitter.sol\":2847:2862  tweets[_author] */\n      0xffffffffffffffffffffffffffffffffffffffff\n      and\n      0xffffffffffffffffffffffffffffffffffffffff\n      and\n      dup2\n      mstore\n      0x20\n      add\n      swap1\n      dup2\n      mstore\n      0x20\n      add\n      0x00\n      keccak256\n        /* \"contracts/Twitter.sol\":2863:2864  i */\n      dup2\n        /* \"contracts/Twitter.sol\":2847:2865  tweets[_author][i] */\n      dup2\n      sload\n      dup2\n      lt\n      tag_149\n      jumpi\n      tag_150\n      tag_71\n      jump\t// in\n    tag_150:\n    tag_149:\n      swap1\n      0x00\n      mstore\n      keccak256(0x00, 0x20)\n      swap1\n      0x05\n      mul\n      add\n        /* \"contracts/Twitter.sol\":2847:2871  tweets[_author][i].likes */\n      0x04\n      add\n      sload\n        /* \"contracts/Twitter.sol\":2833:2871  totalLikes += tweets[_author][i].likes */\n      dup3\n      tag_152\n      swap2\n      swap1\n      tag_153\n      jump\t// in\n    tag_152:\n      swap2\n      pop\n        /* \"contracts/Twitter.sol\":2814:2817  i++ */\n      dup1\n      dup1\n      0x01\n      add\n      swap2\n      pop\n      pop\n        /* \"contracts/Twitter.sol\":2770:2882  for(uint i = 0; i < tweets[_author].length; i++) {... */\n      jump(tag_146)\n    tag_147:\n      pop\n        /* \"contracts/Twitter.sol\":2898:2908  totalLikes */\n      dup1\n        /* \"contracts/Twitter.sol\":2891:2908  return totalLikes */\n      swap2\n      pop\n      pop\n        /* \"contracts/Twitter.sol\":2665:2915  function getTotalLikes(address _author) external view returns (uint) {... */\n      swap2\n      swap1\n      pop\n      jump\t// out\n        /* \"contracts/Twitter.sol\":432:452  address public owner */\n    tag_51:\n      0x02\n      0x00\n      swap1\n      sload\n      swap1\n      0x0100\n      exp\n      swap1\n      div\n      0xffffffffffffffffffffffffffffffffffffffff\n      and\n      dup2\n      jump\t// out\n        /* \"contracts/Twitter.sol\":342:378  uint16 public TWEET_MAX_LENGTH = 280 */\n    tag_55:\n      0x00\n      dup1\n      sload\n      swap1\n      0x0100\n      exp\n      swap1\n      div\n      0xffff\n      and\n      dup2\n      jump\t// out\n        /* \"https://github.com/OpenZeppelin/openzeppelin-contracts/blob/master/contracts/utils/Strings.sol\":987:1619  function toString(uint256 value) internal pure returns (string memory) {... */\n    tag_125:\n        /* \"https://github.com/OpenZeppelin/openzeppelin-contracts/blob/master/contracts/utils/Strings.sol\":1043:1056  string memory */\n      0x60\n        /* \"https://github.com/OpenZeppelin/openzeppelin-contracts/blob/master/contracts/utils/Strings.sol\":1092:1106  uint256 length */\n      0x00\n        /* \"https://github.com/OpenZeppelin/openzeppelin-contracts/blob/master/contracts/utils/Strings.sol\":1129:1130  1 */\n      0x01\n        /* \"https://github.com/OpenZeppelin/openzeppelin-contracts/blob/master/contracts/utils/Strings.sol\":1109:1126  Math.log10(value) */\n      tag_155\n        /* \"https://github.com/OpenZeppelin/openzeppelin-contracts/blob/master/contracts/utils/Strings.sol\":1120:1125  value */\n      dup5\n        /* \"https://github.com/OpenZeppelin/openzeppelin-contracts/blob/master/contracts/utils/Strings.sol\":1109:1119  Math.log10 */\n      tag_156\n        /* \"https://github.com/OpenZeppelin/openzeppelin-contracts/blob/master/contracts/utils/Strings.sol\":1109:1126  Math.log10(value) */\n      jump\t// in\n    tag_155:\n        /* \"https://github.com/OpenZeppelin/openzeppelin-contracts/blob/master/contracts/utils/Strings.sol\":1109:1130  Math.log10(value) + 1 */\n      add\n        /* \"https://github.com/OpenZeppelin/openzeppelin-contracts/blob/master/contracts/utils/Strings.sol\":1092:1130  uint256 length = Math.log10(value) + 1 */\n      swap1\n      pop\n        /* \"https://github.com/OpenZeppelin/openzeppelin-contracts/blob/master/contracts/utils/Strings.sol\":1144:1164  string memory buffer */\n      0x00\n        /* \"https://github.com/OpenZeppelin/openzeppelin-contracts/blob/master/contracts/utils/Strings.sol\":1178:1184  length */\n      dup2\n        /* \"https://github.com/OpenZeppelin/openzeppelin-contracts/blob/master/contracts/utils/Strings.sol\":1167:1185  new string(length) */\n      0xffffffffffffffff\n      dup2\n      gt\n      iszero\n      tag_157\n      jumpi\n      tag_158\n      tag_159\n      jump\t// in\n    tag_158:\n    tag_157:\n      mload(0x40)\n      swap1\n      dup1\n      dup3\n      mstore\n      dup1\n      0x1f\n      add\n      not(0x1f)\n      and\n      0x20\n      add\n      dup3\n      add\n      0x40\n      mstore\n      dup1\n      iszero\n      tag_160\n      jumpi\n      dup2\n      0x20\n      add\n      0x01\n      dup3\n      mul\n      dup1\n      calldatasize\n      dup4\n      calldatacopy\n      dup1\n      dup3\n      add\n      swap2\n      pop\n      pop\n      swap1\n      pop\n    tag_160:\n      pop\n        /* \"https://github.com/OpenZeppelin/openzeppelin-contracts/blob/master/contracts/utils/Strings.sol\":1144:1185  string memory buffer = new string(length) */\n      swap1\n      pop\n        /* \"https://github.com/OpenZeppelin/openzeppelin-contracts/blob/master/contracts/utils/Strings.sol\":1199:1210  uint256 ptr */\n      0x00\n        /* \"https://github.com/OpenZeppelin/openzeppelin-contracts/blob/master/contracts/utils/Strings.sol\":1294:1300  length */\n      dup3\n        /* \"https://github.com/OpenZeppelin/openzeppelin-contracts/blob/master/contracts/utils/Strings.sol\":1290:1292  32 */\n      0x20\n        /* \"https://github.com/OpenZeppelin/openzeppelin-contracts/blob/master/contracts/utils/Strings.sol\":1286:1301  add(32, length) */\n      add\n        /* \"https://github.com/OpenZeppelin/openzeppelin-contracts/blob/master/contracts/utils/Strings.sol\":1278:1284  buffer */\n      dup3\n        /* \"https://github.com/OpenZeppelin/openzeppelin-contracts/blob/master/contracts/utils/Strings.sol\":1274:1302  add(buffer, add(32, length)) */\n      add\n        /* \"https://github.com/OpenZeppelin/openzeppelin-contracts/blob/master/contracts/utils/Strings.sol\":1267:1302  ptr := add(buffer, add(32, length)) */\n      swap1\n      pop\n        /* \"https://github.com/OpenZeppelin/openzeppelin-contracts/blob/master/contracts/utils/Strings.sol\":1329:1576  while (true) {... */\n    tag_161:\n        /* \"https://github.com/OpenZeppelin/openzeppelin-contracts/blob/master/contracts/utils/Strings.sol\":1336:1340  true */\n      0x01\n        /* \"https://github.com/OpenZeppelin/openzeppelin-contracts/blob/master/contracts/utils/Strings.sol\":1329:1576  while (true) {... */\n      iszero\n      tag_162\n      jumpi\n        /* \"https://github.com/OpenZeppelin/openzeppelin-contracts/blob/master/contracts/utils/Strings.sol\":1360:1365  ptr-- */\n      dup1\n      dup1\n      0x01\n      swap1\n      sub\n      swap2\n      pop\n      pop\n        /* \"https://github.com/OpenZeppelin/openzeppelin-contracts/blob/master/contracts/utils/Strings.sol\":1464:1474  HEX_DIGITS */\n      0x3031323334353637383961626364656600000000000000000000000000000000\n        /* \"https://github.com/OpenZeppelin/openzeppelin-contracts/blob/master/contracts/utils/Strings.sol\":1459:1461  10 */\n      0x0a\n        /* \"https://github.com/OpenZeppelin/openzeppelin-contracts/blob/master/contracts/utils/Strings.sol\":1452:1457  value */\n      dup7\n        /* \"https://github.com/OpenZeppelin/openzeppelin-contracts/blob/master/contracts/utils/Strings.sol\":1448:1462  mod(value, 10) */\n      mod\n        /* \"https://github.com/OpenZeppelin/openzeppelin-contracts/blob/master/contracts/utils/Strings.sol\":1443:1475  byte(mod(value, 10), HEX_DIGITS) */\n      byte\n        /* \"https://github.com/OpenZeppelin/openzeppelin-contracts/blob/master/contracts/utils/Strings.sol\":1438:1441  ptr */\n      dup2\n        /* \"https://github.com/OpenZeppelin/openzeppelin-contracts/blob/master/contracts/utils/Strings.sol\":1430:1476  mstore8(ptr, byte(mod(value, 10), HEX_DIGITS)) */\n      mstore8\n        /* \"https://github.com/OpenZeppelin/openzeppelin-contracts/blob/master/contracts/utils/Strings.sol\":1520:1522  10 */\n      0x0a\n        /* \"https://github.com/OpenZeppelin/openzeppelin-contracts/blob/master/contracts/utils/Strings.sol\":1511:1522  value /= 10 */\n      dup6\n      dup2\n      tag_163\n      jumpi\n      tag_164\n      tag_165\n      jump\t// in\n    tag_164:\n    tag_163:\n      div\n      swap5\n      pop\n        /* \"https://github.com/OpenZeppelin/openzeppelin-contracts/blob/master/contracts/utils/Strings.sol\":1553:1554  0 */\n      0x00\n        /* \"https://github.com/OpenZeppelin/openzeppelin-contracts/blob/master/contracts/utils/Strings.sol\":1544:1549  value */\n      dup6\n        /* \"https://github.com/OpenZeppelin/openzeppelin-contracts/blob/master/contracts/utils/Strings.sol\":1544:1554  value == 0 */\n      sub\n        /* \"https://github.com/OpenZeppelin/openzeppelin-contracts/blob/master/contracts/utils/Strings.sol\":1329:1576  while (true) {... */\n      tag_161\n        /* \"https://github.com/OpenZeppelin/openzeppelin-contracts/blob/master/contracts/utils/Strings.sol\":1540:1561  if (value == 0) break */\n      jumpi\n        /* \"https://github.com/OpenZeppelin/openzeppelin-contracts/blob/master/contracts/utils/Strings.sol\":1329:1576  while (true) {... */\n    tag_162:\n        /* \"https://github.com/OpenZeppelin/openzeppelin-contracts/blob/master/contracts/utils/Strings.sol\":1596:1602  buffer */\n      dup2\n        /* \"https://github.com/OpenZeppelin/openzeppelin-contracts/blob/master/contracts/utils/Strings.sol\":1589:1602  return buffer */\n      swap4\n      pop\n      pop\n      pop\n      pop\n        /* \"https://github.com/OpenZeppelin/openzeppelin-contracts/blob/master/contracts/utils/Strings.sol\":987:1619  function toString(uint256 value) internal pure returns (string memory) {... */\n      swap2\n      swap1\n      pop\n      jump\t// out\n        /* \"https://github.com/OpenZeppelin/openzeppelin-contracts/blob/master/contracts/utils/math/Math.sol\":26667:27583  function log10(uint256 value) internal pure returns (uint256) {... */\n    tag_156:\n        /* \"https://github.com/OpenZeppelin/openzeppelin-contracts/blob/master/contracts/utils/math/Math.sol\":26720:26727  uint256 */\n      0x00\n        /* \"https://github.com/OpenZeppelin/openzeppelin-contracts/blob/master/contracts/utils/math/Math.sol\":26739:26753  uint256 result */\n      dup1\n        /* \"https://github.com/OpenZeppelin/openzeppelin-contracts/blob/master/contracts/utils/math/Math.sol\":26756:26757  0 */\n      0x00\n        /* \"https://github.com/OpenZeppelin/openzeppelin-contracts/blob/master/contracts/utils/math/Math.sol\":26739:26757  uint256 result = 0 */\n      swap1\n      pop\n        /* \"https://github.com/OpenZeppelin/openzeppelin-contracts/blob/master/contracts/utils/math/Math.sol\":26804:26812  10 ** 64 */\n      0x184f03e93ff9f4daa797ed6e38ed64bf6a1f010000000000000000\n        /* \"https://github.com/OpenZeppelin/openzeppelin-contracts/blob/master/contracts/utils/math/Math.sol\":26795:26800  value */\n      dup4\n        /* \"https://github.com/OpenZeppelin/openzeppelin-contracts/blob/master/contracts/utils/math/Math.sol\":26795:26812  value >= 10 ** 64 */\n      lt\n        /* \"https://github.com/OpenZeppelin/openzeppelin-contracts/blob/master/contracts/utils/math/Math.sol\":26791:26894  if (value >= 10 ** 64) {... */\n      tag_168\n      jumpi\n        /* \"https://github.com/OpenZeppelin/openzeppelin-contracts/blob/master/contracts/utils/math/Math.sol\":26841:26849  10 ** 64 */\n      0x184f03e93ff9f4daa797ed6e38ed64bf6a1f010000000000000000\n        /* \"https://github.com/OpenZeppelin/openzeppelin-contracts/blob/master/contracts/utils/math/Math.sol\":26832:26849  value /= 10 ** 64 */\n      dup4\n      dup2\n      tag_169\n      jumpi\n      tag_170\n      tag_165\n      jump\t// in\n    tag_170:\n    tag_169:\n      div\n      swap3\n      pop\n        /* \"https://github.com/OpenZeppelin/openzeppelin-contracts/blob/master/contracts/utils/math/Math.sol\":26877:26879  64 */\n      0x40\n        /* \"https://github.com/OpenZeppelin/openzeppelin-contracts/blob/master/contracts/utils/math/Math.sol\":26867:26879  result += 64 */\n      dup2\n      add\n      swap1\n      pop\n        /* \"https://github.com/OpenZeppelin/openzeppelin-contracts/blob/master/contracts/utils/math/Math.sol\":26791:26894  if (value >= 10 ** 64) {... */\n    tag_168:\n        /* \"https://github.com/OpenZeppelin/openzeppelin-contracts/blob/master/contracts/utils/math/Math.sol\":26920:26928  10 ** 32 */\n      0x04ee2d6d415b85acef8100000000\n        /* \"https://github.com/OpenZeppelin/openzeppelin-contracts/blob/master/contracts/utils/math/Math.sol\":26911:26916  value */\n      dup4\n        /* \"https://github.com/OpenZeppelin/openzeppelin-contracts/blob/master/contracts/utils/math/Math.sol\":26911:26928  value >= 10 ** 32 */\n      lt\n        /* \"https://github.com/OpenZeppelin/openzeppelin-contracts/blob/master/contracts/utils/math/Math.sol\":26907:27010  if (value >= 10 ** 32) {... */\n      tag_171\n      jumpi\n        /* \"https://github.com/OpenZeppelin/openzeppelin-contracts/blob/master/contracts/utils/math/Math.sol\":26957:26965  10 ** 32 */\n      0x04ee2d6d415b85acef8100000000\n        /* \"https://github.com/OpenZeppelin/openzeppelin-contracts/blob/master/contracts/utils/math/Math.sol\":26948:26965  value /= 10 ** 32 */\n      dup4\n      dup2\n      tag_172\n      jumpi\n      tag_173\n      tag_165\n      jump\t// in\n    tag_173:\n    tag_172:\n      div\n      swap3\n      pop\n        /* \"https://github.com/OpenZeppelin/openzeppelin-contracts/blob/master/contracts/utils/math/Math.sol\":26993:26995  32 */\n      0x20\n        /* \"https://github.com/OpenZeppelin/openzeppelin-contracts/blob/master/contracts/utils/math/Math.sol\":26983:26995  result += 32 */\n      dup2\n      add\n      swap1\n      pop\n        /* \"https://github.com/OpenZeppelin/openzeppelin-contracts/blob/master/contracts/utils/math/Math.sol\":26907:27010  if (value >= 10 ** 32) {... */\n    tag_171:\n        /* \"https://github.com/OpenZeppelin/openzeppelin-contracts/blob/master/contracts/utils/math/Math.sol\":27036:27044  10 ** 16 */\n      0x2386f26fc10000\n        /* \"https://github.com/OpenZeppelin/openzeppelin-contracts/blob/master/contracts/utils/math/Math.sol\":27027:27032  value */\n      dup4\n        /* \"https://github.com/OpenZeppelin/openzeppelin-contracts/blob/master/contracts/utils/math/Math.sol\":27027:27044  value >= 10 ** 16 */\n      lt\n        /* \"https://github.com/OpenZeppelin/openzeppelin-contracts/blob/master/contracts/utils/math/Math.sol\":27023:27126  if (value >= 10 ** 16) {... */\n      tag_174\n      jumpi\n        /* \"https://github.com/OpenZeppelin/openzeppelin-contracts/blob/master/contracts/utils/math/Math.sol\":27073:27081  10 ** 16 */\n      0x2386f26fc10000\n        /* \"https://github.com/OpenZeppelin/openzeppelin-contracts/blob/master/contracts/utils/math/Math.sol\":27064:27081  value /= 10 ** 16 */\n      dup4\n      dup2\n      tag_175\n      jumpi\n      tag_176\n      tag_165\n      jump\t// in\n    tag_176:\n    tag_175:\n      div\n      swap3\n      pop\n        /* \"https://github.com/OpenZeppelin/openzeppelin-contracts/blob/master/contracts/utils/math/Math.sol\":27109:27111  16 */\n      0x10\n        /* \"https://github.com/OpenZeppelin/openzeppelin-contracts/blob/master/contracts/utils/math/Math.sol\":27099:27111  result += 16 */\n      dup2\n      add\n      swap1\n      pop\n        /* \"https://github.com/OpenZeppelin/openzeppelin-contracts/blob/master/contracts/utils/math/Math.sol\":27023:27126  if (value >= 10 ** 16) {... */\n    tag_174:\n        /* \"https://github.com/OpenZeppelin/openzeppelin-contracts/blob/master/contracts/utils/math/Math.sol\":27152:27159  10 ** 8 */\n      0x05f5e100\n        /* \"https://github.com/OpenZeppelin/openzeppelin-contracts/blob/master/contracts/utils/math/Math.sol\":27143:27148  value */\n      dup4\n        /* \"https://github.com/OpenZeppelin/openzeppelin-contracts/blob/master/contracts/utils/math/Math.sol\":27143:27159  value >= 10 ** 8 */\n      lt\n        /* \"https://github.com/OpenZeppelin/openzeppelin-contracts/blob/master/contracts/utils/math/Math.sol\":27139:27239  if (value >= 10 ** 8) {... */\n      tag_177\n      jumpi\n        /* \"https://github.com/OpenZeppelin/openzeppelin-contracts/blob/master/contracts/utils/math/Math.sol\":27188:27195  10 ** 8 */\n      0x05f5e100\n        /* \"https://github.com/OpenZeppelin/openzeppelin-contracts/blob/master/contracts/utils/math/Math.sol\":27179:27195  value /= 10 ** 8 */\n      dup4\n      dup2\n      tag_178\n      jumpi\n      tag_179\n      tag_165\n      jump\t// in\n    tag_179:\n    tag_178:\n      div\n      swap3\n      pop\n        /* \"https://github.com/OpenZeppelin/openzeppelin-contracts/blob/master/contracts/utils/math/Math.sol\":27223:27224  8 */\n      0x08\n        /* \"https://github.com/OpenZeppelin/openzeppelin-contracts/blob/master/contracts/utils/math/Math.sol\":27213:27224  result += 8 */\n      dup2\n      add\n      swap1\n      pop\n        /* \"https://github.com/OpenZeppelin/openzeppelin-contracts/blob/master/contracts/utils/math/Math.sol\":27139:27239  if (value >= 10 ** 8) {... */\n    tag_177:\n        /* \"https://github.com/OpenZeppelin/openzeppelin-contracts/blob/master/contracts/utils/math/Math.sol\":27265:27272  10 ** 4 */\n      0x2710\n        /* \"https://github.com/OpenZeppelin/openzeppelin-contracts/blob/master/contracts/utils/math/Math.sol\":27256:27261  value */\n      dup4\n        /* \"https://github.com/OpenZeppelin/openzeppelin-contracts/blob/master/contracts/utils/math/Math.sol\":27256:27272  value >= 10 ** 4 */\n      lt\n        /* \"https://github.com/OpenZeppelin/openzeppelin-contracts/blob/master/contracts/utils/math/Math.sol\":27252:27352  if (value >= 10 ** 4) {... */\n      tag_180\n      jumpi\n        /* \"https://github.com/OpenZeppelin/openzeppelin-contracts/blob/master/contracts/utils/math/Math.sol\":27301:27308  10 ** 4 */\n      0x2710\n        /* \"https://github.com/OpenZeppelin/openzeppelin-contracts/blob/master/contracts/utils/math/Math.sol\":27292:27308  value /= 10 ** 4 */\n      dup4\n      dup2\n      tag_181\n      jumpi\n      tag_182\n      tag_165\n      jump\t// in\n    tag_182:\n    tag_181:\n      div\n      swap3\n      pop\n        /* \"https://github.com/OpenZeppelin/openzeppelin-contracts/blob/master/contracts/utils/math/Math.sol\":27336:27337  4 */\n      0x04\n        /* \"https://github.com/OpenZeppelin/openzeppelin-contracts/blob/master/contracts/utils/math/Math.sol\":27326:27337  result += 4 */\n      dup2\n      add\n      swap1\n      pop\n        /* \"https://github.com/OpenZeppelin/openzeppelin-contracts/blob/master/contracts/utils/math/Math.sol\":27252:27352  if (value >= 10 ** 4) {... */\n    tag_180:\n        /* \"https://github.com/OpenZeppelin/openzeppelin-contracts/blob/master/contracts/utils/math/Math.sol\":27378:27385  10 ** 2 */\n      0x64\n        /* \"https://github.com/OpenZeppelin/openzeppelin-contracts/blob/master/contracts/utils/math/Math.sol\":27369:27374  value */\n      dup4\n        /* \"https://github.com/OpenZeppelin/openzeppelin-contracts/blob/master/contracts/utils/math/Math.sol\":27369:27385  value >= 10 ** 2 */\n      lt\n        /* \"https://github.com/OpenZeppelin/openzeppelin-contracts/blob/master/contracts/utils/math/Math.sol\":27365:27465  if (value >= 10 ** 2) {... */\n      tag_183\n      jumpi\n        /* \"https://github.com/OpenZeppelin/openzeppelin-contracts/blob/master/contracts/utils/math/Math.sol\":27414:27421  10 ** 2 */\n      0x64\n        /* \"https://github.com/OpenZeppelin/openzeppelin-contracts/blob/master/contracts/utils/math/Math.sol\":27405:27421  value /= 10 ** 2 */\n      dup4\n      dup2\n      tag_184\n      jumpi\n      tag_185\n      tag_165\n      jump\t// in\n    tag_185:\n    tag_184:\n      div\n      swap3\n      pop\n        /* \"https://github.com/OpenZeppelin/openzeppelin-contracts/blob/master/contracts/utils/math/Math.sol\":27449:27450  2 */\n      0x02\n        /* \"https://github.com/OpenZeppelin/openzeppelin-contracts/blob/master/contracts/utils/math/Math.sol\":27439:27450  result += 2 */\n      dup2\n      add\n      swap1\n      pop\n        /* \"https://github.com/OpenZeppelin/openzeppelin-contracts/blob/master/contracts/utils/math/Math.sol\":27365:27465  if (value >= 10 ** 2) {... */\n    tag_183:\n        /* \"https://github.com/OpenZeppelin/openzeppelin-contracts/blob/master/contracts/utils/math/Math.sol\":27491:27498  10 ** 1 */\n      0x0a\n        /* \"https://github.com/OpenZeppelin/openzeppelin-contracts/blob/master/contracts/utils/math/Math.sol\":27482:27487  value */\n      dup4\n        /* \"https://github.com/OpenZeppelin/openzeppelin-contracts/blob/master/contracts/utils/math/Math.sol\":27482:27498  value >= 10 ** 1 */\n      lt\n        /* \"https://github.com/OpenZeppelin/openzeppelin-contracts/blob/master/contracts/utils/math/Math.sol\":27478:27544  if (value >= 10 ** 1) {... */\n      tag_186\n      jumpi\n        /* \"https://github.com/OpenZeppelin/openzeppelin-contracts/blob/master/contracts/utils/math/Math.sol\":27528:27529  1 */\n      0x01\n        /* \"https://github.com/OpenZeppelin/openzeppelin-contracts/blob/master/contracts/utils/math/Math.sol\":27518:27529  result += 1 */\n      dup2\n      add\n      swap1\n      pop\n        /* \"https://github.com/OpenZeppelin/openzeppelin-contracts/blob/master/contracts/utils/math/Math.sol\":27478:27544  if (value >= 10 ** 1) {... */\n    tag_186:\n        /* \"https://github.com/OpenZeppelin/openzeppelin-contracts/blob/master/contracts/utils/math/Math.sol\":27570:27576  result */\n      dup1\n        /* \"https://github.com/OpenZeppelin/openzeppelin-contracts/blob/master/contracts/utils/math/Math.sol\":27563:27576  return result */\n      swap2\n      pop\n      pop\n        /* \"https://github.com/OpenZeppelin/openzeppelin-contracts/blob/master/contracts/utils/math/Math.sol\":26667:27583  function log10(uint256 value) internal pure returns (uint256) {... */\n      swap2\n      swap1\n      pop\n      jump\t// out\n    tag_67:\n      mload(0x40)\n      dup1\n      0xa0\n      add\n      0x40\n      mstore\n      dup1\n      0x00\n      dup2\n      mstore\n      0x20\n      add\n      and(0xffffffffffffffffffffffffffffffffffffffff, 0x00)\n      dup2\n      mstore\n      0x20\n      add\n      0x60\n      dup2\n      mstore\n      0x20\n      add\n      0x00\n      dup2\n      mstore\n      0x20\n      add\n      0x00\n      dup2\n      mstore\n      pop\n      swap1\n      jump\t// out\n        /* \"#utility.yul\":7:82   */\n    tag_187:\n        /* \"#utility.yul\":40:46   */\n      0x00\n        /* \"#utility.yul\":73:75   */\n      0x40\n        /* \"#utility.yul\":67:76   */\n      mload\n        /* \"#utility.yul\":57:76   */\n      swap1\n      pop\n        /* \"#utility.yul\":7:82   */\n      swap1\n      jump\t// out\n        /* \"#utility.yul\":88:205   */\n    tag_188:\n        /* \"#utility.yul\":197:198   */\n      0x00\n        /* \"#utility.yul\":194:195   */\n      dup1\n        /* \"#utility.yul\":187:199   */\n      revert\n        /* \"#utility.yul\":211:328   */\n    tag_189:\n        /* \"#utility.yul\":320:321   */\n      0x00\n        /* \"#utility.yul\":317:318   */\n      dup1\n        /* \"#utility.yul\":310:322   */\n      revert\n        /* \"#utility.yul\":334:460   */\n    tag_190:\n        /* \"#utility.yul\":371:378   */\n      0x00\n        /* \"#utility.yul\":411:453   */\n      0xffffffffffffffffffffffffffffffffffffffff\n        /* \"#utility.yul\":404:409   */\n      dup3\n        /* \"#utility.yul\":400:454   */\n      and\n        /* \"#utility.yul\":389:454   */\n      swap1\n      pop\n        /* \"#utility.yul\":334:460   */\n      swap2\n      swap1\n      pop\n      jump\t// out\n        /* \"#utility.yul\":466:562   */\n    tag_191:\n        /* \"#utility.yul\":503:510   */\n      0x00\n        /* \"#utility.yul\":532:556   */\n      tag_261\n        /* \"#utility.yul\":550:555   */\n      dup3\n        /* \"#utility.yul\":532:556   */\n      tag_190\n      jump\t// in\n    tag_261:\n        /* \"#utility.yul\":521:556   */\n      swap1\n      pop\n        /* \"#utility.yul\":466:562   */\n      swap2\n      swap1\n      pop\n      jump\t// out\n        /* \"#utility.yul\":568:690   */\n    tag_192:\n        /* \"#utility.yul\":641:665   */\n      tag_263\n        /* \"#utility.yul\":659:664   */\n      dup2\n        /* \"#utility.yul\":641:665   */\n      tag_191\n      jump\t// in\n    tag_263:\n        /* \"#utility.yul\":634:639   */\n      dup2\n        /* \"#utility.yul\":631:666   */\n      eq\n        /* \"#utility.yul\":621:684   */\n      tag_264\n      jumpi\n        /* \"#utility.yul\":680:681   */\n      0x00\n        /* \"#utility.yul\":677:678   */\n      dup1\n        /* \"#utility.yul\":670:682   */\n      revert\n        /* \"#utility.yul\":621:684   */\n    tag_264:\n        /* \"#utility.yul\":568:690   */\n      pop\n      jump\t// out\n        /* \"#utility.yul\":696:835   */\n    tag_193:\n        /* \"#utility.yul\":742:747   */\n      0x00\n        /* \"#utility.yul\":780:786   */\n      dup2\n        /* \"#utility.yul\":767:787   */\n      calldataload\n        /* \"#utility.yul\":758:787   */\n      swap1\n      pop\n        /* \"#utility.yul\":796:829   */\n      tag_266\n        /* \"#utility.yul\":823:828   */\n      dup2\n        /* \"#utility.yul\":796:829   */\n      tag_192\n      jump\t// in\n    tag_266:\n        /* \"#utility.yul\":696:835   */\n      swap3\n      swap2\n      pop\n      pop\n      jump\t// out\n        /* \"#utility.yul\":841:918   */\n    tag_194:\n        /* \"#utility.yul\":878:885   */\n      0x00\n        /* \"#utility.yul\":907:912   */\n      dup2\n        /* \"#utility.yul\":896:912   */\n      swap1\n      pop\n        /* \"#utility.yul\":841:918   */\n      swap2\n      swap1\n      pop\n      jump\t// out\n        /* \"#utility.yul\":924:1046   */\n    tag_195:\n        /* \"#utility.yul\":997:1021   */\n      tag_269\n        /* \"#utility.yul\":1015:1020   */\n      dup2\n        /* \"#utility.yul\":997:1021   */\n      tag_194\n      jump\t// in\n    tag_269:\n        /* \"#utility.yul\":990:995   */\n      dup2\n        /* \"#utility.yul\":987:1022   */\n      eq\n        /* \"#utility.yul\":977:1040   */\n      tag_270\n      jumpi\n        /* \"#utility.yul\":1036:1037   */\n      0x00\n        /* \"#utility.yul\":1033:1034   */\n      dup1\n        /* \"#utility.yul\":1026:1038   */\n      revert\n        /* \"#utility.yul\":977:1040   */\n    tag_270:\n        /* \"#utility.yul\":924:1046   */\n      pop\n      jump\t// out\n        /* \"#utility.yul\":1052:1191   */\n    tag_196:\n        /* \"#utility.yul\":1098:1103   */\n      0x00\n        /* \"#utility.yul\":1136:1142   */\n      dup2\n        /* \"#utility.yul\":1123:1143   */\n      calldataload\n        /* \"#utility.yul\":1114:1143   */\n      swap1\n      pop\n        /* \"#utility.yul\":1152:1185   */\n      tag_272\n        /* \"#utility.yul\":1179:1184   */\n      dup2\n        /* \"#utility.yul\":1152:1185   */\n      tag_195\n      jump\t// in\n    tag_272:\n        /* \"#utility.yul\":1052:1191   */\n      swap3\n      swap2\n      pop\n      pop\n      jump\t// out\n        /* \"#utility.yul\":1197:1671   */\n    tag_16:\n        /* \"#utility.yul\":1265:1271   */\n      0x00\n        /* \"#utility.yul\":1273:1279   */\n      dup1\n        /* \"#utility.yul\":1322:1324   */\n      0x40\n        /* \"#utility.yul\":1310:1319   */\n      dup4\n        /* \"#utility.yul\":1301:1308   */\n      dup6\n        /* \"#utility.yul\":1297:1320   */\n      sub\n        /* \"#utility.yul\":1293:1325   */\n      slt\n        /* \"#utility.yul\":1290:1409   */\n      iszero\n      tag_274\n      jumpi\n        /* \"#utility.yul\":1328:1407   */\n      tag_275\n      tag_188\n      jump\t// in\n    tag_275:\n        /* \"#utility.yul\":1290:1409   */\n    tag_274:\n        /* \"#utility.yul\":1448:1449   */\n      0x00\n        /* \"#utility.yul\":1473:1526   */\n      tag_276\n        /* \"#utility.yul\":1518:1525   */\n      dup6\n        /* \"#utility.yul\":1509:1515   */\n      dup3\n        /* \"#utility.yul\":1498:1507   */\n      dup7\n        /* \"#utility.yul\":1494:1516   */\n      add\n        /* \"#utility.yul\":1473:1526   */\n      tag_193\n      jump\t// in\n    tag_276:\n        /* \"#utility.yul\":1463:1526   */\n      swap3\n      pop\n        /* \"#utility.yul\":1419:1536   */\n      pop\n        /* \"#utility.yul\":1575:1577   */\n      0x20\n        /* \"#utility.yul\":1601:1654   */\n      tag_277\n        /* \"#utility.yul\":1646:1653   */\n      dup6\n        /* \"#utility.yul\":1637:1643   */\n      dup3\n        /* \"#utility.yul\":1626:1635   */\n      dup7\n        /* \"#utility.yul\":1622:1644   */\n      add\n        /* \"#utility.yul\":1601:1654   */\n      tag_196\n      jump\t// in\n    tag_277:\n        /* \"#utility.yul\":1591:1654   */\n      swap2\n      pop\n        /* \"#utility.yul\":1546:1664   */\n      pop\n        /* \"#utility.yul\":1197:1671   */\n      swap3\n      pop\n      swap3\n      swap1\n      pop\n      jump\t// out\n        /* \"#utility.yul\":1677:1795   */\n    tag_197:\n        /* \"#utility.yul\":1764:1788   */\n      tag_279\n        /* \"#utility.yul\":1782:1787   */\n      dup2\n        /* \"#utility.yul\":1764:1788   */\n      tag_194\n      jump\t// in\n    tag_279:\n        /* \"#utility.yul\":1759:1762   */\n      dup3\n        /* \"#utility.yul\":1752:1789   */\n      mstore\n        /* \"#utility.yul\":1677:1795   */\n      pop\n      pop\n      jump\t// out\n        /* \"#utility.yul\":1801:1919   */\n    tag_198:\n        /* \"#utility.yul\":1888:1912   */\n      tag_281\n        /* \"#utility.yul\":1906:1911   */\n      dup2\n        /* \"#utility.yul\":1888:1912   */\n      tag_191\n      jump\t// in\n    tag_281:\n        /* \"#utility.yul\":1883:1886   */\n      dup3\n        /* \"#utility.yul\":1876:1913   */\n      mstore\n        /* \"#utility.yul\":1801:1919   */\n      pop\n      pop\n      jump\t// out\n        /* \"#utility.yul\":1925:2024   */\n    tag_199:\n        /* \"#utility.yul\":1977:1983   */\n      0x00\n        /* \"#utility.yul\":2011:2016   */\n      dup2\n        /* \"#utility.yul\":2005:2017   */\n      mload\n        /* \"#utility.yul\":1995:2017   */\n      swap1\n      pop\n        /* \"#utility.yul\":1925:2024   */\n      swap2\n      swap1\n      pop\n      jump\t// out\n        /* \"#utility.yul\":2030:2199   */\n    tag_200:\n        /* \"#utility.yul\":2114:2125   */\n      0x00\n        /* \"#utility.yul\":2148:2154   */\n      dup3\n        /* \"#utility.yul\":2143:2146   */\n      dup3\n        /* \"#utility.yul\":2136:2155   */\n      mstore\n        /* \"#utility.yul\":2188:2192   */\n      0x20\n        /* \"#utility.yul\":2183:2186   */\n      dup3\n        /* \"#utility.yul\":2179:2193   */\n      add\n        /* \"#utility.yul\":2164:2193   */\n      swap1\n      pop\n        /* \"#utility.yul\":2030:2199   */\n      swap3\n      swap2\n      pop\n      pop\n      jump\t// out\n        /* \"#utility.yul\":2205:2344   */\n    tag_201:\n        /* \"#utility.yul\":2294:2300   */\n      dup3\n        /* \"#utility.yul\":2289:2292   */\n      dup2\n        /* \"#utility.yul\":2284:2287   */\n      dup4\n        /* \"#utility.yul\":2278:2301   */\n      mcopy\n        /* \"#utility.yul\":2335:2336   */\n      0x00\n        /* \"#utility.yul\":2326:2332   */\n      dup4\n        /* \"#utility.yul\":2321:2324   */\n      dup4\n        /* \"#utility.yul\":2317:2333   */\n      add\n        /* \"#utility.yul\":2310:2337   */\n      mstore\n        /* \"#utility.yul\":2205:2344   */\n      pop\n      pop\n      pop\n      jump\t// out\n        /* \"#utility.yul\":2350:2452   */\n    tag_202:\n        /* \"#utility.yul\":2391:2397   */\n      0x00\n        /* \"#utility.yul\":2442:2444   */\n      0x1f\n        /* \"#utility.yul\":2438:2445   */\n      not\n        /* \"#utility.yul\":2433:2435   */\n      0x1f\n        /* \"#utility.yul\":2426:2431   */\n      dup4\n        /* \"#utility.yul\":2422:2436   */\n      add\n        /* \"#utility.yul\":2418:2446   */\n      and\n        /* \"#utility.yul\":2408:2446   */\n      swap1\n      pop\n        /* \"#utility.yul\":2350:2452   */\n      swap2\n      swap1\n      pop\n      jump\t// out\n        /* \"#utility.yul\":2458:2835   */\n    tag_203:\n        /* \"#utility.yul\":2546:2549   */\n      0x00\n        /* \"#utility.yul\":2574:2613   */\n      tag_287\n        /* \"#utility.yul\":2607:2612   */\n      dup3\n        /* \"#utility.yul\":2574:2613   */\n      tag_199\n      jump\t// in\n    tag_287:\n        /* \"#utility.yul\":2629:2700   */\n      tag_288\n        /* \"#utility.yul\":2693:2699   */\n      dup2\n        /* \"#utility.yul\":2688:2691   */\n      dup6\n        /* \"#utility.yul\":2629:2700   */\n      tag_200\n      jump\t// in\n    tag_288:\n        /* \"#utility.yul\":2622:2700   */\n      swap4\n      pop\n        /* \"#utility.yul\":2709:2774   */\n      tag_289\n        /* \"#utility.yul\":2767:2773   */\n      dup2\n        /* \"#utility.yul\":2762:2765   */\n      dup6\n        /* \"#utility.yul\":2755:2759   */\n      0x20\n        /* \"#utility.yul\":2748:2753   */\n      dup7\n        /* \"#utility.yul\":2744:2760   */\n      add\n        /* \"#utility.yul\":2709:2774   */\n      tag_201\n      jump\t// in\n    tag_289:\n        /* \"#utility.yul\":2799:2828   */\n      tag_290\n        /* \"#utility.yul\":2821:2827   */\n      dup2\n        /* \"#utility.yul\":2799:2828   */\n      tag_202\n      jump\t// in\n    tag_290:\n        /* \"#utility.yul\":2794:2797   */\n      dup5\n        /* \"#utility.yul\":2790:2829   */\n      add\n        /* \"#utility.yul\":2783:2829   */\n      swap2\n      pop\n        /* \"#utility.yul\":2550:2835   */\n      pop\n        /* \"#utility.yul\":2458:2835   */\n      swap3\n      swap2\n      pop\n      pop\n      jump\t// out\n        /* \"#utility.yul\":2841:3596   */\n    tag_19:\n        /* \"#utility.yul\":3066:3070   */\n      0x00\n        /* \"#utility.yul\":3104:3107   */\n      0xa0\n        /* \"#utility.yul\":3093:3102   */\n      dup3\n        /* \"#utility.yul\":3089:3108   */\n      add\n        /* \"#utility.yul\":3081:3108   */\n      swap1\n      pop\n        /* \"#utility.yul\":3118:3189   */\n      tag_292\n        /* \"#utility.yul\":3186:3187   */\n      0x00\n        /* \"#utility.yul\":3175:3184   */\n      dup4\n        /* \"#utility.yul\":3171:3188   */\n      add\n        /* \"#utility.yul\":3162:3168   */\n      dup9\n        /* \"#utility.yul\":3118:3189   */\n      tag_197\n      jump\t// in\n    tag_292:\n        /* \"#utility.yul\":3199:3271   */\n      tag_293\n        /* \"#utility.yul\":3267:3269   */\n      0x20\n        /* \"#utility.yul\":3256:3265   */\n      dup4\n        /* \"#utility.yul\":3252:3270   */\n      add\n        /* \"#utility.yul\":3243:3249   */\n      dup8\n        /* \"#utility.yul\":3199:3271   */\n      tag_198\n      jump\t// in\n    tag_293:\n        /* \"#utility.yul\":3318:3327   */\n      dup2\n        /* \"#utility.yul\":3312:3316   */\n      dup2\n        /* \"#utility.yul\":3308:3328   */\n      sub\n        /* \"#utility.yul\":3303:3305   */\n      0x40\n        /* \"#utility.yul\":3292:3301   */\n      dup4\n        /* \"#utility.yul\":3288:3306   */\n      add\n        /* \"#utility.yul\":3281:3329   */\n      mstore\n        /* \"#utility.yul\":3346:3424   */\n      tag_294\n        /* \"#utility.yul\":3419:3423   */\n      dup2\n        /* \"#utility.yul\":3410:3416   */\n      dup7\n        /* \"#utility.yul\":3346:3424   */\n      tag_203\n      jump\t// in\n    tag_294:\n        /* \"#utility.yul\":3338:3424   */\n      swap1\n      pop\n        /* \"#utility.yul\":3434:3506   */\n      tag_295\n        /* \"#utility.yul\":3502:3504   */\n      0x60\n        /* \"#utility.yul\":3491:3500   */\n      dup4\n        /* \"#utility.yul\":3487:3505   */\n      add\n        /* \"#utility.yul\":3478:3484   */\n      dup6\n        /* \"#utility.yul\":3434:3506   */\n      tag_197\n      jump\t// in\n    tag_295:\n        /* \"#utility.yul\":3516:3589   */\n      tag_296\n        /* \"#utility.yul\":3584:3587   */\n      0x80\n        /* \"#utility.yul\":3573:3582   */\n      dup4\n        /* \"#utility.yul\":3569:3588   */\n      add\n        /* \"#utility.yul\":3560:3566   */\n      dup5\n        /* \"#utility.yul\":3516:3589   */\n      tag_197\n      jump\t// in\n    tag_296:\n        /* \"#utility.yul\":2841:3596   */\n      swap7\n      swap6\n      pop\n      pop\n      pop\n      pop\n      pop\n      pop\n      jump\t// out\n        /* \"#utility.yul\":3602:3710   */\n    tag_204:\n        /* \"#utility.yul\":3679:3703   */\n      tag_298\n        /* \"#utility.yul\":3697:3702   */\n      dup2\n        /* \"#utility.yul\":3679:3703   */\n      tag_194\n      jump\t// in\n    tag_298:\n        /* \"#utility.yul\":3674:3677   */\n      dup3\n        /* \"#utility.yul\":3667:3704   */\n      mstore\n        /* \"#utility.yul\":3602:3710   */\n      pop\n      pop\n      jump\t// out\n        /* \"#utility.yul\":3716:3824   */\n    tag_205:\n        /* \"#utility.yul\":3793:3817   */\n      tag_300\n        /* \"#utility.yul\":3811:3816   */\n      dup2\n        /* \"#utility.yul\":3793:3817   */\n      tag_191\n      jump\t// in\n    tag_300:\n        /* \"#utility.yul\":3788:3791   */\n      dup3\n        /* \"#utility.yul\":3781:3818   */\n      mstore\n        /* \"#utility.yul\":3716:3824   */\n      pop\n      pop\n      jump\t// out\n        /* \"#utility.yul\":3830:3989   */\n    tag_206:\n        /* \"#utility.yul\":3904:3915   */\n      0x00\n        /* \"#utility.yul\":3938:3944   */\n      dup3\n        /* \"#utility.yul\":3933:3936   */\n      dup3\n        /* \"#utility.yul\":3926:3945   */\n      mstore\n        /* \"#utility.yul\":3978:3982   */\n      0x20\n        /* \"#utility.yul\":3973:3976   */\n      dup3\n        /* \"#utility.yul\":3969:3983   */\n      add\n        /* \"#utility.yul\":3954:3983   */\n      swap1\n      pop\n        /* \"#utility.yul\":3830:3989   */\n      swap3\n      swap2\n      pop\n      pop\n      jump\t// out\n        /* \"#utility.yul\":3995:4352   */\n    tag_207:\n        /* \"#utility.yul\":4073:4076   */\n      0x00\n        /* \"#utility.yul\":4101:4140   */\n      tag_303\n        /* \"#utility.yul\":4134:4139   */\n      dup3\n        /* \"#utility.yul\":4101:4140   */\n      tag_199\n      jump\t// in\n    tag_303:\n        /* \"#utility.yul\":4156:4217   */\n      tag_304\n        /* \"#utility.yul\":4210:4216   */\n      dup2\n        /* \"#utility.yul\":4205:4208   */\n      dup6\n        /* \"#utility.yul\":4156:4217   */\n      tag_206\n      jump\t// in\n    tag_304:\n        /* \"#utility.yul\":4149:4217   */\n      swap4\n      pop\n        /* \"#utility.yul\":4226:4291   */\n      tag_305\n        /* \"#utility.yul\":4284:4290   */\n      dup2\n        /* \"#utility.yul\":4279:4282   */\n      dup6\n        /* \"#utility.yul\":4272:4276   */\n      0x20\n        /* \"#utility.yul\":4265:4270   */\n      dup7\n        /* \"#utility.yul\":4261:4277   */\n      add\n        /* \"#utility.yul\":4226:4291   */\n      tag_201\n      jump\t// in\n    tag_305:\n        /* \"#utility.yul\":4316:4345   */\n      tag_306\n        /* \"#utility.yul\":4338:4344   */\n      dup2\n        /* \"#utility.yul\":4316:4345   */\n      tag_202\n      jump\t// in\n    tag_306:\n        /* \"#utility.yul\":4311:4314   */\n      dup5\n        /* \"#utility.yul\":4307:4346   */\n      add\n        /* \"#utility.yul\":4300:4346   */\n      swap2\n      pop\n        /* \"#utility.yul\":4077:4352   */\n      pop\n        /* \"#utility.yul\":3995:4352   */\n      swap3\n      swap2\n      pop\n      pop\n      jump\t// out\n        /* \"#utility.yul\":4410:5539   */\n    tag_208:\n        /* \"#utility.yul\":4521:4524   */\n      0x00\n        /* \"#utility.yul\":4557:4561   */\n      0xa0\n        /* \"#utility.yul\":4552:4555   */\n      dup4\n        /* \"#utility.yul\":4548:4562   */\n      add\n        /* \"#utility.yul\":4642:4646   */\n      0x00\n        /* \"#utility.yul\":4635:4640   */\n      dup4\n        /* \"#utility.yul\":4631:4647   */\n      add\n        /* \"#utility.yul\":4625:4648   */\n      mload\n        /* \"#utility.yul\":4661:4724   */\n      tag_308\n        /* \"#utility.yul\":4718:4722   */\n      0x00\n        /* \"#utility.yul\":4713:4716   */\n      dup7\n        /* \"#utility.yul\":4709:4723   */\n      add\n        /* \"#utility.yul\":4695:4707   */\n      dup3\n        /* \"#utility.yul\":4661:4724   */\n      tag_204\n      jump\t// in\n    tag_308:\n        /* \"#utility.yul\":4572:4734   */\n      pop\n        /* \"#utility.yul\":4818:4822   */\n      0x20\n        /* \"#utility.yul\":4811:4816   */\n      dup4\n        /* \"#utility.yul\":4807:4823   */\n      add\n        /* \"#utility.yul\":4801:4824   */\n      mload\n        /* \"#utility.yul\":4837:4900   */\n      tag_309\n        /* \"#utility.yul\":4894:4898   */\n      0x20\n        /* \"#utility.yul\":4889:4892   */\n      dup7\n        /* \"#utility.yul\":4885:4899   */\n      add\n        /* \"#utility.yul\":4871:4883   */\n      dup3\n        /* \"#utility.yul\":4837:4900   */\n      tag_205\n      jump\t// in\n    tag_309:\n        /* \"#utility.yul\":4744:4910   */\n      pop\n        /* \"#utility.yul\":4995:4999   */\n      0x40\n        /* \"#utility.yul\":4988:4993   */\n      dup4\n        /* \"#utility.yul\":4984:5000   */\n      add\n        /* \"#utility.yul\":4978:5001   */\n      mload\n        /* \"#utility.yul\":5048:5051   */\n      dup5\n        /* \"#utility.yul\":5042:5046   */\n      dup3\n        /* \"#utility.yul\":5038:5052   */\n      sub\n        /* \"#utility.yul\":5031:5035   */\n      0x40\n        /* \"#utility.yul\":5026:5029   */\n      dup7\n        /* \"#utility.yul\":5022:5036   */\n      add\n        /* \"#utility.yul\":5015:5053   */\n      mstore\n        /* \"#utility.yul\":5074:5147   */\n      tag_310\n        /* \"#utility.yul\":5142:5146   */\n      dup3\n        /* \"#utility.yul\":5128:5140   */\n      dup3\n        /* \"#utility.yul\":5074:5147   */\n      tag_207\n      jump\t// in\n    tag_310:\n        /* \"#utility.yul\":5066:5147   */\n      swap2\n      pop\n        /* \"#utility.yul\":4920:5158   */\n      pop\n        /* \"#utility.yul\":5245:5249   */\n      0x60\n        /* \"#utility.yul\":5238:5243   */\n      dup4\n        /* \"#utility.yul\":5234:5250   */\n      add\n        /* \"#utility.yul\":5228:5251   */\n      mload\n        /* \"#utility.yul\":5264:5327   */\n      tag_311\n        /* \"#utility.yul\":5321:5325   */\n      0x60\n        /* \"#utility.yul\":5316:5319   */\n      dup7\n        /* \"#utility.yul\":5312:5326   */\n      add\n        /* \"#utility.yul\":5298:5310   */\n      dup3\n        /* \"#utility.yul\":5264:5327   */\n      tag_204\n      jump\t// in\n    tag_311:\n        /* \"#utility.yul\":5168:5337   */\n      pop\n        /* \"#utility.yul\":5420:5424   */\n      0x80\n        /* \"#utility.yul\":5413:5418   */\n      dup4\n        /* \"#utility.yul\":5409:5425   */\n      add\n        /* \"#utility.yul\":5403:5426   */\n      mload\n        /* \"#utility.yul\":5439:5502   */\n      tag_312\n        /* \"#utility.yul\":5496:5500   */\n      0x80\n        /* \"#utility.yul\":5491:5494   */\n      dup7\n        /* \"#utility.yul\":5487:5501   */\n      add\n        /* \"#utility.yul\":5473:5485   */\n      dup3\n        /* \"#utility.yul\":5439:5502   */\n      tag_204\n      jump\t// in\n    tag_312:\n        /* \"#utility.yul\":5347:5512   */\n      pop\n        /* \"#utility.yul\":5529:5533   */\n      dup1\n        /* \"#utility.yul\":5522:5533   */\n      swap2\n      pop\n        /* \"#utility.yul\":4526:5539   */\n      pop\n        /* \"#utility.yul\":4410:5539   */\n      swap3\n      swap2\n      pop\n      pop\n      jump\t// out\n        /* \"#utility.yul\":5545:5902   */\n    tag_24:\n        /* \"#utility.yul\":5680:5684   */\n      0x00\n        /* \"#utility.yul\":5718:5720   */\n      0x20\n        /* \"#utility.yul\":5707:5716   */\n      dup3\n        /* \"#utility.yul\":5703:5721   */\n      add\n        /* \"#utility.yul\":5695:5721   */\n      swap1\n      pop\n        /* \"#utility.yul\":5767:5776   */\n      dup2\n        /* \"#utility.yul\":5761:5765   */\n      dup2\n        /* \"#utility.yul\":5757:5777   */\n      sub\n        /* \"#utility.yul\":5753:5754   */\n      0x00\n        /* \"#utility.yul\":5742:5751   */\n      dup4\n        /* \"#utility.yul\":5738:5755   */\n      add\n        /* \"#utility.yul\":5731:5778   */\n      mstore\n        /* \"#utility.yul\":5795:5895   */\n      tag_314\n        /* \"#utility.yul\":5890:5894   */\n      dup2\n        /* \"#utility.yul\":5881:5887   */\n      dup5\n        /* \"#utility.yul\":5795:5895   */\n      tag_208\n      jump\t// in\n    tag_314:\n        /* \"#utility.yul\":5787:5895   */\n      swap1\n      pop\n        /* \"#utility.yul\":5545:5902   */\n      swap3\n      swap2\n      pop\n      pop\n      jump\t// out\n        /* \"#utility.yul\":5908:5997   */\n    tag_209:\n        /* \"#utility.yul\":5944:5951   */\n      0x00\n        /* \"#utility.yul\":5984:5990   */\n      0xffff\n        /* \"#utility.yul\":5977:5982   */\n      dup3\n        /* \"#utility.yul\":5973:5991   */\n      and\n        /* \"#utility.yul\":5962:5991   */\n      swap1\n      pop\n        /* \"#utility.yul\":5908:5997   */\n      swap2\n      swap1\n      pop\n      jump\t// out\n        /* \"#utility.yul\":6003:6123   */\n    tag_210:\n        /* \"#utility.yul\":6075:6098   */\n      tag_317\n        /* \"#utility.yul\":6092:6097   */\n      dup2\n        /* \"#utility.yul\":6075:6098   */\n      tag_209\n      jump\t// in\n    tag_317:\n        /* \"#utility.yul\":6068:6073   */\n      dup2\n        /* \"#utility.yul\":6065:6099   */\n      eq\n        /* \"#utility.yul\":6055:6117   */\n      tag_318\n      jumpi\n        /* \"#utility.yul\":6113:6114   */\n      0x00\n        /* \"#utility.yul\":6110:6111   */\n      dup1\n        /* \"#utility.yul\":6103:6115   */\n      revert\n        /* \"#utility.yul\":6055:6117   */\n    tag_318:\n        /* \"#utility.yul\":6003:6123   */\n      pop\n      jump\t// out\n        /* \"#utility.yul\":6129:6266   */\n    tag_211:\n        /* \"#utility.yul\":6174:6179   */\n      0x00\n        /* \"#utility.yul\":6212:6218   */\n      dup2\n        /* \"#utility.yul\":6199:6219   */\n      calldataload\n        /* \"#utility.yul\":6190:6219   */\n      swap1\n      pop\n        /* \"#utility.yul\":6228:6260   */\n      tag_320\n        /* \"#utility.yul\":6254:6259   */\n      dup2\n        /* \"#utility.yul\":6228:6260   */\n      tag_210\n      jump\t// in\n    tag_320:\n        /* \"#utility.yul\":6129:6266   */\n      swap3\n      swap2\n      pop\n      pop\n      jump\t// out\n        /* \"#utility.yul\":6272:6599   */\n    tag_30:\n        /* \"#utility.yul\":6330:6336   */\n      0x00\n        /* \"#utility.yul\":6379:6381   */\n      0x20\n        /* \"#utility.yul\":6367:6376   */\n      dup3\n        /* \"#utility.yul\":6358:6365   */\n      dup5\n        /* \"#utility.yul\":6354:6377   */\n      sub\n        /* \"#utility.yul\":6350:6382   */\n      slt\n        /* \"#utility.yul\":6347:6466   */\n      iszero\n      tag_322\n      jumpi\n        /* \"#utility.yul\":6385:6464   */\n      tag_323\n      tag_188\n      jump\t// in\n    tag_323:\n        /* \"#utility.yul\":6347:6466   */\n    tag_322:\n        /* \"#utility.yul\":6505:6506   */\n      0x00\n        /* \"#utility.yul\":6530:6582   */\n      tag_324\n        /* \"#utility.yul\":6574:6581   */\n      dup5\n        /* \"#utility.yul\":6565:6571   */\n      dup3\n        /* \"#utility.yul\":6554:6563   */\n      dup6\n        /* \"#utility.yul\":6550:6572   */\n      add\n        /* \"#utility.yul\":6530:6582   */\n      tag_211\n      jump\t// in\n    tag_324:\n        /* \"#utility.yul\":6520:6582   */\n      swap2\n      pop\n        /* \"#utility.yul\":6476:6592   */\n      pop\n        /* \"#utility.yul\":6272:6599   */\n      swap3\n      swap2\n      pop\n      pop\n      jump\t// out\n        /* \"#utility.yul\":6605:6722   */\n    tag_212:\n        /* \"#utility.yul\":6714:6715   */\n      0x00\n        /* \"#utility.yul\":6711:6712   */\n      dup1\n        /* \"#utility.yul\":6704:6716   */\n      revert\n        /* \"#utility.yul\":6728:6845   */\n    tag_213:\n        /* \"#utility.yul\":6837:6838   */\n      0x00\n        /* \"#utility.yul\":6834:6835   */\n      dup1\n        /* \"#utility.yul\":6827:6839   */\n      revert\n        /* \"#utility.yul\":6851:7031   */\n    tag_159:\n        /* \"#utility.yul\":6899:6976   */\n      0x4e487b7100000000000000000000000000000000000000000000000000000000\n        /* \"#utility.yul\":6896:6897   */\n      0x00\n        /* \"#utility.yul\":6889:6977   */\n      mstore\n        /* \"#utility.yul\":6996:7000   */\n      0x41\n        /* \"#utility.yul\":6993:6994   */\n      0x04\n        /* \"#utility.yul\":6986:7001   */\n      mstore\n        /* \"#utility.yul\":7020:7024   */\n      0x24\n        /* \"#utility.yul\":7017:7018   */\n      0x00\n        /* \"#utility.yul\":7010:7025   */\n      revert\n        /* \"#utility.yul\":7037:7318   */\n    tag_214:\n        /* \"#utility.yul\":7120:7147   */\n      tag_329\n        /* \"#utility.yul\":7142:7146   */\n      dup3\n        /* \"#utility.yul\":7120:7147   */\n      tag_202\n      jump\t// in\n    tag_329:\n        /* \"#utility.yul\":7112:7118   */\n      dup2\n        /* \"#utility.yul\":7108:7148   */\n      add\n        /* \"#utility.yul\":7250:7256   */\n      dup2\n        /* \"#utility.yul\":7238:7248   */\n      dup2\n        /* \"#utility.yul\":7235:7257   */\n      lt\n        /* \"#utility.yul\":7214:7232   */\n      0xffffffffffffffff\n        /* \"#utility.yul\":7202:7212   */\n      dup3\n        /* \"#utility.yul\":7199:7233   */\n      gt\n        /* \"#utility.yul\":7196:7258   */\n      or\n        /* \"#utility.yul\":7193:7281   */\n      iszero\n      tag_330\n      jumpi\n        /* \"#utility.yul\":7261:7279   */\n      tag_331\n      tag_159\n      jump\t// in\n    tag_331:\n        /* \"#utility.yul\":7193:7281   */\n    tag_330:\n        /* \"#utility.yul\":7301:7311   */\n      dup1\n        /* \"#utility.yul\":7297:7299   */\n      0x40\n        /* \"#utility.yul\":7290:7312   */\n      mstore\n        /* \"#utility.yul\":7080:7318   */\n      pop\n        /* \"#utility.yul\":7037:7318   */\n      pop\n      pop\n      jump\t// out\n        /* \"#utility.yul\":7324:7453   */\n    tag_215:\n        /* \"#utility.yul\":7358:7364   */\n      0x00\n        /* \"#utility.yul\":7385:7405   */\n      tag_333\n      tag_187\n      jump\t// in\n    tag_333:\n        /* \"#utility.yul\":7375:7405   */\n      swap1\n      pop\n        /* \"#utility.yul\":7414:7447   */\n      tag_334\n        /* \"#utility.yul\":7442:7446   */\n      dup3\n        /* \"#utility.yul\":7434:7440   */\n      dup3\n        /* \"#utility.yul\":7414:7447   */\n      tag_214\n      jump\t// in\n    tag_334:\n        /* \"#utility.yul\":7324:7453   */\n      swap2\n      swap1\n      pop\n      jump\t// out\n        /* \"#utility.yul\":7459:7767   */\n    tag_216:\n        /* \"#utility.yul\":7521:7525   */\n      0x00\n        /* \"#utility.yul\":7611:7629   */\n      0xffffffffffffffff\n        /* \"#utility.yul\":7603:7609   */\n      dup3\n        /* \"#utility.yul\":7600:7630   */\n      gt\n        /* \"#utility.yul\":7597:7653   */\n      iszero\n      tag_336\n      jumpi\n        /* \"#utility.yul\":7633:7651   */\n      tag_337\n      tag_159\n      jump\t// in\n    tag_337:\n        /* \"#utility.yul\":7597:7653   */\n    tag_336:\n        /* \"#utility.yul\":7671:7700   */\n      tag_338\n        /* \"#utility.yul\":7693:7699   */\n      dup3\n        /* \"#utility.yul\":7671:7700   */\n      tag_202\n      jump\t// in\n    tag_338:\n        /* \"#utility.yul\":7663:7700   */\n      swap1\n      pop\n        /* \"#utility.yul\":7755:7759   */\n      0x20\n        /* \"#utility.yul\":7749:7753   */\n      dup2\n        /* \"#utility.yul\":7745:7760   */\n      add\n        /* \"#utility.yul\":7737:7760   */\n      swap1\n      pop\n        /* \"#utility.yul\":7459:7767   */\n      swap2\n      swap1\n      pop\n      jump\t// out\n        /* \"#utility.yul\":7773:7921   */\n    tag_217:\n        /* \"#utility.yul\":7871:7877   */\n      dup3\n        /* \"#utility.yul\":7866:7869   */\n      dup2\n        /* \"#utility.yul\":7861:7864   */\n      dup4\n        /* \"#utility.yul\":7848:7878   */\n      calldatacopy\n        /* \"#utility.yul\":7912:7913   */\n      0x00\n        /* \"#utility.yul\":7903:7909   */\n      dup4\n        /* \"#utility.yul\":7898:7901   */\n      dup4\n        /* \"#utility.yul\":7894:7910   */\n      add\n        /* \"#utility.yul\":7887:7914   */\n      mstore\n        /* \"#utility.yul\":7773:7921   */\n      pop\n      pop\n      pop\n      jump\t// out\n        /* \"#utility.yul\":7927:8352   */\n    tag_218:\n        /* \"#utility.yul\":8005:8010   */\n      0x00\n        /* \"#utility.yul\":8030:8096   */\n      tag_341\n        /* \"#utility.yul\":8046:8095   */\n      tag_342\n        /* \"#utility.yul\":8088:8094   */\n      dup5\n        /* \"#utility.yul\":8046:8095   */\n      tag_216\n      jump\t// in\n    tag_342:\n        /* \"#utility.yul\":8030:8096   */\n      tag_215\n      jump\t// in\n    tag_341:\n        /* \"#utility.yul\":8021:8096   */\n      swap1\n      pop\n        /* \"#utility.yul\":8119:8125   */\n      dup3\n        /* \"#utility.yul\":8112:8117   */\n      dup2\n        /* \"#utility.yul\":8105:8126   */\n      mstore\n        /* \"#utility.yul\":8157:8161   */\n      0x20\n        /* \"#utility.yul\":8150:8155   */\n      dup2\n        /* \"#utility.yul\":8146:8162   */\n      add\n        /* \"#utility.yul\":8195:8198   */\n      dup5\n        /* \"#utility.yul\":8186:8192   */\n      dup5\n        /* \"#utility.yul\":8181:8184   */\n      dup5\n        /* \"#utility.yul\":8177:8193   */\n      add\n        /* \"#utility.yul\":8174:8199   */\n      gt\n        /* \"#utility.yul\":8171:8283   */\n      iszero\n      tag_343\n      jumpi\n        /* \"#utility.yul\":8202:8281   */\n      tag_344\n      tag_213\n      jump\t// in\n    tag_344:\n        /* \"#utility.yul\":8171:8283   */\n    tag_343:\n        /* \"#utility.yul\":8292:8346   */\n      tag_345\n        /* \"#utility.yul\":8339:8345   */\n      dup5\n        /* \"#utility.yul\":8334:8337   */\n      dup3\n        /* \"#utility.yul\":8329:8332   */\n      dup6\n        /* \"#utility.yul\":8292:8346   */\n      tag_217\n      jump\t// in\n    tag_345:\n        /* \"#utility.yul\":8011:8352   */\n      pop\n        /* \"#utility.yul\":7927:8352   */\n      swap4\n      swap3\n      pop\n      pop\n      pop\n      jump\t// out\n        /* \"#utility.yul\":8372:8712   */\n    tag_219:\n        /* \"#utility.yul\":8428:8433   */\n      0x00\n        /* \"#utility.yul\":8477:8480   */\n      dup3\n        /* \"#utility.yul\":8470:8474   */\n      0x1f\n        /* \"#utility.yul\":8462:8468   */\n      dup4\n        /* \"#utility.yul\":8458:8475   */\n      add\n        /* \"#utility.yul\":8454:8481   */\n      slt\n        /* \"#utility.yul\":8444:8566   */\n      tag_347\n      jumpi\n        /* \"#utility.yul\":8485:8564   */\n      tag_348\n      tag_212\n      jump\t// in\n    tag_348:\n        /* \"#utility.yul\":8444:8566   */\n    tag_347:\n        /* \"#utility.yul\":8602:8608   */\n      dup2\n        /* \"#utility.yul\":8589:8609   */\n      calldataload\n        /* \"#utility.yul\":8627:8706   */\n      tag_349\n        /* \"#utility.yul\":8702:8705   */\n      dup5\n        /* \"#utility.yul\":8694:8700   */\n      dup3\n        /* \"#utility.yul\":8687:8691   */\n      0x20\n        /* \"#utility.yul\":8679:8685   */\n      dup7\n        /* \"#utility.yul\":8675:8692   */\n      add\n        /* \"#utility.yul\":8627:8706   */\n      tag_218\n      jump\t// in\n    tag_349:\n        /* \"#utility.yul\":8618:8706   */\n      swap2\n      pop\n        /* \"#utility.yul\":8434:8712   */\n      pop\n        /* \"#utility.yul\":8372:8712   */\n      swap3\n      swap2\n      pop\n      pop\n      jump\t// out\n        /* \"#utility.yul\":8718:9227   */\n    tag_37:\n        /* \"#utility.yul\":8787:8793   */\n      0x00\n        /* \"#utility.yul\":8836:8838   */\n      0x20\n        /* \"#utility.yul\":8824:8833   */\n      dup3\n        /* \"#utility.yul\":8815:8822   */\n      dup5\n        /* \"#utility.yul\":8811:8834   */\n      sub\n        /* \"#utility.yul\":8807:8839   */\n      slt\n        /* \"#utility.yul\":8804:8923   */\n      iszero\n      tag_351\n      jumpi\n        /* \"#utility.yul\":8842:8921   */\n      tag_352\n      tag_188\n      jump\t// in\n    tag_352:\n        /* \"#utility.yul\":8804:8923   */\n    tag_351:\n        /* \"#utility.yul\":8990:8991   */\n      0x00\n        /* \"#utility.yul\":8979:8988   */\n      dup3\n        /* \"#utility.yul\":8975:8992   */\n      add\n        /* \"#utility.yul\":8962:8993   */\n      calldataload\n        /* \"#utility.yul\":9020:9038   */\n      0xffffffffffffffff\n        /* \"#utility.yul\":9012:9018   */\n      dup2\n        /* \"#utility.yul\":9009:9039   */\n      gt\n        /* \"#utility.yul\":9006:9123   */\n      iszero\n      tag_353\n      jumpi\n        /* \"#utility.yul\":9042:9121   */\n      tag_354\n      tag_189\n      jump\t// in\n    tag_354:\n        /* \"#utility.yul\":9006:9123   */\n    tag_353:\n        /* \"#utility.yul\":9147:9210   */\n      tag_355\n        /* \"#utility.yul\":9202:9209   */\n      dup5\n        /* \"#utility.yul\":9193:9199   */\n      dup3\n        /* \"#utility.yul\":9182:9191   */\n      dup6\n        /* \"#utility.yul\":9178:9200   */\n      add\n        /* \"#utility.yul\":9147:9210   */\n      tag_219\n      jump\t// in\n    tag_355:\n        /* \"#utility.yul\":9137:9210   */\n      swap2\n      pop\n        /* \"#utility.yul\":8933:9220   */\n      pop\n        /* \"#utility.yul\":8718:9227   */\n      swap3\n      swap2\n      pop\n      pop\n      jump\t// out\n        /* \"#utility.yul\":9233:9562   */\n    tag_41:\n        /* \"#utility.yul\":9292:9298   */\n      0x00\n        /* \"#utility.yul\":9341:9343   */\n      0x20\n        /* \"#utility.yul\":9329:9338   */\n      dup3\n        /* \"#utility.yul\":9320:9327   */\n      dup5\n        /* \"#utility.yul\":9316:9339   */\n      sub\n        /* \"#utility.yul\":9312:9344   */\n      slt\n        /* \"#utility.yul\":9309:9428   */\n      iszero\n      tag_357\n      jumpi\n        /* \"#utility.yul\":9347:9426   */\n      tag_358\n      tag_188\n      jump\t// in\n    tag_358:\n        /* \"#utility.yul\":9309:9428   */\n    tag_357:\n        /* \"#utility.yul\":9467:9468   */\n      0x00\n        /* \"#utility.yul\":9492:9545   */\n      tag_359\n        /* \"#utility.yul\":9537:9544   */\n      dup5\n        /* \"#utility.yul\":9528:9534   */\n      dup3\n        /* \"#utility.yul\":9517:9526   */\n      dup6\n        /* \"#utility.yul\":9513:9535   */\n      add\n        /* \"#utility.yul\":9492:9545   */\n      tag_193\n      jump\t// in\n    tag_359:\n        /* \"#utility.yul\":9482:9545   */\n      swap2\n      pop\n        /* \"#utility.yul\":9438:9555   */\n      pop\n        /* \"#utility.yul\":9233:9562   */\n      swap3\n      swap2\n      pop\n      pop\n      jump\t// out\n        /* \"#utility.yul\":9568:9703   */\n    tag_220:\n        /* \"#utility.yul\":9656:9662   */\n      0x00\n        /* \"#utility.yul\":9690:9695   */\n      dup2\n        /* \"#utility.yul\":9684:9696   */\n      mload\n        /* \"#utility.yul\":9674:9696   */\n      swap1\n      pop\n        /* \"#utility.yul\":9568:9703   */\n      swap2\n      swap1\n      pop\n      jump\t// out\n        /* \"#utility.yul\":9709:9914   */\n    tag_221:\n        /* \"#utility.yul\":9829:9840   */\n      0x00\n        /* \"#utility.yul\":9863:9869   */\n      dup3\n        /* \"#utility.yul\":9858:9861   */\n      dup3\n        /* \"#utility.yul\":9851:9870   */\n      mstore\n        /* \"#utility.yul\":9903:9907   */\n      0x20\n        /* \"#utility.yul\":9898:9901   */\n      dup3\n        /* \"#utility.yul\":9894:9908   */\n      add\n        /* \"#utility.yul\":9879:9908   */\n      swap1\n      pop\n        /* \"#utility.yul\":9709:9914   */\n      swap3\n      swap2\n      pop\n      pop\n      jump\t// out\n        /* \"#utility.yul\":9920:10073   */\n    tag_222:\n        /* \"#utility.yul\":10008:10012   */\n      0x00\n        /* \"#utility.yul\":10031:10034   */\n      dup2\n        /* \"#utility.yul\":10023:10034   */\n      swap1\n      pop\n        /* \"#utility.yul\":10061:10065   */\n      0x20\n        /* \"#utility.yul\":10056:10059   */\n      dup3\n        /* \"#utility.yul\":10052:10066   */\n      add\n        /* \"#utility.yul\":10044:10066   */\n      swap1\n      pop\n        /* \"#utility.yul\":9920:10073   */\n      swap2\n      swap1\n      pop\n      jump\t// out\n        /* \"#utility.yul\":10131:11250   */\n    tag_223:\n        /* \"#utility.yul\":10232:10235   */\n      0x00\n        /* \"#utility.yul\":10268:10272   */\n      0xa0\n        /* \"#utility.yul\":10263:10266   */\n      dup4\n        /* \"#utility.yul\":10259:10273   */\n      add\n        /* \"#utility.yul\":10353:10357   */\n      0x00\n        /* \"#utility.yul\":10346:10351   */\n      dup4\n        /* \"#utility.yul\":10342:10358   */\n      add\n        /* \"#utility.yul\":10336:10359   */\n      mload\n        /* \"#utility.yul\":10372:10435   */\n      tag_364\n        /* \"#utility.yul\":10429:10433   */\n      0x00\n        /* \"#utility.yul\":10424:10427   */\n      dup7\n        /* \"#utility.yul\":10420:10434   */\n      add\n        /* \"#utility.yul\":10406:10418   */\n      dup3\n        /* \"#utility.yul\":10372:10435   */\n      tag_204\n      jump\t// in\n    tag_364:\n        /* \"#utility.yul\":10283:10445   */\n      pop\n        /* \"#utility.yul\":10529:10533   */\n      0x20\n        /* \"#utility.yul\":10522:10527   */\n      dup4\n        /* \"#utility.yul\":10518:10534   */\n      add\n        /* \"#utility.yul\":10512:10535   */\n      mload\n        /* \"#utility.yul\":10548:10611   */\n      tag_365\n        /* \"#utility.yul\":10605:10609   */\n      0x20\n        /* \"#utility.yul\":10600:10603   */\n      dup7\n        /* \"#utility.yul\":10596:10610   */\n      add\n        /* \"#utility.yul\":10582:10594   */\n      dup3\n        /* \"#utility.yul\":10548:10611   */\n      tag_205\n      jump\t// in\n    tag_365:\n        /* \"#utility.yul\":10455:10621   */\n      pop\n        /* \"#utility.yul\":10706:10710   */\n      0x40\n        /* \"#utility.yul\":10699:10704   */\n      dup4\n        /* \"#utility.yul\":10695:10711   */\n      add\n        /* \"#utility.yul\":10689:10712   */\n      mload\n        /* \"#utility.yul\":10759:10762   */\n      dup5\n        /* \"#utility.yul\":10753:10757   */\n      dup3\n        /* \"#utility.yul\":10749:10763   */\n      sub\n        /* \"#utility.yul\":10742:10746   */\n      0x40\n        /* \"#utility.yul\":10737:10740   */\n      dup7\n        /* \"#utility.yul\":10733:10747   */\n      add\n        /* \"#utility.yul\":10726:10764   */\n      mstore\n        /* \"#utility.yul\":10785:10858   */\n      tag_366\n        /* \"#utility.yul\":10853:10857   */\n      dup3\n        /* \"#utility.yul\":10839:10851   */\n      dup3\n        /* \"#utility.yul\":10785:10858   */\n      tag_207\n      jump\t// in\n    tag_366:\n        /* \"#utility.yul\":10777:10858   */\n      swap2\n      pop\n        /* \"#utility.yul\":10631:10869   */\n      pop\n        /* \"#utility.yul\":10956:10960   */\n      0x60\n        /* \"#utility.yul\":10949:10954   */\n      dup4\n        /* \"#utility.yul\":10945:10961   */\n      add\n        /* \"#utility.yul\":10939:10962   */\n      mload\n        /* \"#utility.yul\":10975:11038   */\n      tag_367\n        /* \"#utility.yul\":11032:11036   */\n      0x60\n        /* \"#utility.yul\":11027:11030   */\n      dup7\n        /* \"#utility.yul\":11023:11037   */\n      add\n        /* \"#utility.yul\":11009:11021   */\n      dup3\n        /* \"#utility.yul\":10975:11038   */\n      tag_204\n      jump\t// in\n    tag_367:\n        /* \"#utility.yul\":10879:11048   */\n      pop\n        /* \"#utility.yul\":11131:11135   */\n      0x80\n        /* \"#utility.yul\":11124:11129   */\n      dup4\n        /* \"#utility.yul\":11120:11136   */\n      add\n        /* \"#utility.yul\":11114:11137   */\n      mload\n        /* \"#utility.yul\":11150:11213   */\n      tag_368\n        /* \"#utility.yul\":11207:11211   */\n      0x80\n        /* \"#utility.yul\":11202:11205   */\n      dup7\n        /* \"#utility.yul\":11198:11212   */\n      add\n        /* \"#utility.yul\":11184:11196   */\n      dup3\n        /* \"#utility.yul\":11150:11213   */\n      tag_204\n      jump\t// in\n    tag_368:\n        /* \"#utility.yul\":11058:11223   */\n      pop\n        /* \"#utility.yul\":11240:11244   */\n      dup1\n        /* \"#utility.yul\":11233:11244   */\n      swap2\n      pop\n        /* \"#utility.yul\":10237:11250   */\n      pop\n        /* \"#utility.yul\":10131:11250   */\n      swap3\n      swap2\n      pop\n      pop\n      jump\t// out\n        /* \"#utility.yul\":11256:11496   */\n    tag_224:\n        /* \"#utility.yul\":11367:11377   */\n      0x00\n        /* \"#utility.yul\":11402:11490   */\n      tag_370\n        /* \"#utility.yul\":11486:11489   */\n      dup4\n        /* \"#utility.yul\":11478:11484   */\n      dup4\n        /* \"#utility.yul\":11402:11490   */\n      tag_223\n      jump\t// in\n    tag_370:\n        /* \"#utility.yul\":11388:11490   */\n      swap1\n      pop\n        /* \"#utility.yul\":11256:11496   */\n      swap3\n      swap2\n      pop\n      pop\n      jump\t// out\n        /* \"#utility.yul\":11502:11636   */\n    tag_225:\n        /* \"#utility.yul\":11593:11597   */\n      0x00\n        /* \"#utility.yul\":11625:11629   */\n      0x20\n        /* \"#utility.yul\":11620:11623   */\n      dup3\n        /* \"#utility.yul\":11616:11630   */\n      add\n        /* \"#utility.yul\":11608:11630   */\n      swap1\n      pop\n        /* \"#utility.yul\":11502:11636   */\n      swap2\n      swap1\n      pop\n      jump\t// out\n        /* \"#utility.yul\":11698:12777   */\n    tag_226:\n        /* \"#utility.yul\":11859:11862   */\n      0x00\n        /* \"#utility.yul\":11888:11963   */\n      tag_373\n        /* \"#utility.yul\":11957:11962   */\n      dup3\n        /* \"#utility.yul\":11888:11963   */\n      tag_220\n      jump\t// in\n    tag_373:\n        /* \"#utility.yul\":11979:12086   */\n      tag_374\n        /* \"#utility.yul\":12079:12085   */\n      dup2\n        /* \"#utility.yul\":12074:12077   */\n      dup6\n        /* \"#utility.yul\":11979:12086   */\n      tag_221\n      jump\t// in\n    tag_374:\n        /* \"#utility.yul\":11972:12086   */\n      swap4\n      pop\n        /* \"#utility.yul\":12112:12115   */\n      dup4\n        /* \"#utility.yul\":12157:12161   */\n      0x20\n        /* \"#utility.yul\":12149:12155   */\n      dup3\n        /* \"#utility.yul\":12145:12162   */\n      mul\n        /* \"#utility.yul\":12140:12143   */\n      dup6\n        /* \"#utility.yul\":12136:12163   */\n      add\n        /* \"#utility.yul\":12187:12264   */\n      tag_375\n        /* \"#utility.yul\":12258:12263   */\n      dup6\n        /* \"#utility.yul\":12187:12264   */\n      tag_222\n      jump\t// in\n    tag_375:\n        /* \"#utility.yul\":12287:12294   */\n      dup1\n        /* \"#utility.yul\":12318:12319   */\n      0x00\n        /* \"#utility.yul\":12303:12732   */\n    tag_376:\n        /* \"#utility.yul\":12328:12334   */\n      dup6\n        /* \"#utility.yul\":12325:12326   */\n      dup2\n        /* \"#utility.yul\":12322:12335   */\n      lt\n        /* \"#utility.yul\":12303:12732   */\n      iszero\n      tag_378\n      jumpi\n        /* \"#utility.yul\":12399:12408   */\n      dup5\n        /* \"#utility.yul\":12393:12397   */\n      dup5\n        /* \"#utility.yul\":12389:12409   */\n      sub\n        /* \"#utility.yul\":12384:12387   */\n      dup10\n        /* \"#utility.yul\":12377:12410   */\n      mstore\n        /* \"#utility.yul\":12450:12456   */\n      dup2\n        /* \"#utility.yul\":12444:12457   */\n      mload\n        /* \"#utility.yul\":12478:12584   */\n      tag_379\n        /* \"#utility.yul\":12579:12583   */\n      dup6\n        /* \"#utility.yul\":12564:12577   */\n      dup3\n        /* \"#utility.yul\":12478:12584   */\n      tag_224\n      jump\t// in\n    tag_379:\n        /* \"#utility.yul\":12470:12584   */\n      swap5\n      pop\n        /* \"#utility.yul\":12607:12688   */\n      tag_380\n        /* \"#utility.yul\":12681:12687   */\n      dup4\n        /* \"#utility.yul\":12607:12688   */\n      tag_225\n      jump\t// in\n    tag_380:\n        /* \"#utility.yul\":12597:12688   */\n      swap3\n      pop\n        /* \"#utility.yul\":12717:12721   */\n      0x20\n        /* \"#utility.yul\":12712:12715   */\n      dup11\n        /* \"#utility.yul\":12708:12722   */\n      add\n        /* \"#utility.yul\":12701:12722   */\n      swap10\n      pop\n        /* \"#utility.yul\":12363:12732   */\n      pop\n        /* \"#utility.yul\":12350:12351   */\n      0x01\n        /* \"#utility.yul\":12347:12348   */\n      dup2\n        /* \"#utility.yul\":12343:12352   */\n      add\n        /* \"#utility.yul\":12338:12352   */\n      swap1\n      pop\n        /* \"#utility.yul\":12303:12732   */\n      jump(tag_376)\n    tag_378:\n        /* \"#utility.yul\":12307:12321   */\n      pop\n        /* \"#utility.yul\":12748:12752   */\n      dup3\n        /* \"#utility.yul\":12741:12752   */\n      swap8\n      pop\n        /* \"#utility.yul\":12768:12771   */\n      dup8\n        /* \"#utility.yul\":12761:12771   */\n      swap6\n      pop\n        /* \"#utility.yul\":11864:12777   */\n      pop\n      pop\n      pop\n      pop\n      pop\n        /* \"#utility.yul\":11698:12777   */\n      swap3\n      swap2\n      pop\n      pop\n      jump\t// out\n        /* \"#utility.yul\":12783:13240   */\n    tag_44:\n        /* \"#utility.yul\":12968:12972   */\n      0x00\n        /* \"#utility.yul\":13006:13008   */\n      0x20\n        /* \"#utility.yul\":12995:13004   */\n      dup3\n        /* \"#utility.yul\":12991:13009   */\n      add\n        /* \"#utility.yul\":12983:13009   */\n      swap1\n      pop\n        /* \"#utility.yul\":13055:13064   */\n      dup2\n        /* \"#utility.yul\":13049:13053   */\n      dup2\n        /* \"#utility.yul\":13045:13065   */\n      sub\n        /* \"#utility.yul\":13041:13042   */\n      0x00\n        /* \"#utility.yul\":13030:13039   */\n      dup4\n        /* \"#utility.yul\":13026:13043   */\n      add\n        /* \"#utility.yul\":13019:13066   */\n      mstore\n        /* \"#utility.yul\":13083:13233   */\n      tag_382\n        /* \"#utility.yul\":13228:13232   */\n      dup2\n        /* \"#utility.yul\":13219:13225   */\n      dup5\n        /* \"#utility.yul\":13083:13233   */\n      tag_226\n      jump\t// in\n    tag_382:\n        /* \"#utility.yul\":13075:13233   */\n      swap1\n      pop\n        /* \"#utility.yul\":12783:13240   */\n      swap3\n      swap2\n      pop\n      pop\n      jump\t// out\n        /* \"#utility.yul\":13246:13468   */\n    tag_49:\n        /* \"#utility.yul\":13339:13343   */\n      0x00\n        /* \"#utility.yul\":13377:13379   */\n      0x20\n        /* \"#utility.yul\":13366:13375   */\n      dup3\n        /* \"#utility.yul\":13362:13380   */\n      add\n        /* \"#utility.yul\":13354:13380   */\n      swap1\n      pop\n        /* \"#utility.yul\":13390:13461   */\n      tag_384\n        /* \"#utility.yul\":13458:13459   */\n      0x00\n        /* \"#utility.yul\":13447:13456   */\n      dup4\n        /* \"#utility.yul\":13443:13460   */\n      add\n        /* \"#utility.yul\":13434:13440   */\n      dup5\n        /* \"#utility.yul\":13390:13461   */\n      tag_197\n      jump\t// in\n    tag_384:\n        /* \"#utility.yul\":13246:13468   */\n      swap3\n      swap2\n      pop\n      pop\n      jump\t// out\n        /* \"#utility.yul\":13474:13696   */\n    tag_53:\n        /* \"#utility.yul\":13567:13571   */\n      0x00\n        /* \"#utility.yul\":13605:13607   */\n      0x20\n        /* \"#utility.yul\":13594:13603   */\n      dup3\n        /* \"#utility.yul\":13590:13608   */\n      add\n        /* \"#utility.yul\":13582:13608   */\n      swap1\n      pop\n        /* \"#utility.yul\":13618:13689   */\n      tag_386\n        /* \"#utility.yul\":13686:13687   */\n      0x00\n        /* \"#utility.yul\":13675:13684   */\n      dup4\n        /* \"#utility.yul\":13671:13688   */\n      add\n        /* \"#utility.yul\":13662:13668   */\n      dup5\n        /* \"#utility.yul\":13618:13689   */\n      tag_198\n      jump\t// in\n    tag_386:\n        /* \"#utility.yul\":13474:13696   */\n      swap3\n      swap2\n      pop\n      pop\n      jump\t// out\n        /* \"#utility.yul\":13702:13817   */\n    tag_227:\n        /* \"#utility.yul\":13787:13810   */\n      tag_388\n        /* \"#utility.yul\":13804:13809   */\n      dup2\n        /* \"#utility.yul\":13787:13810   */\n      tag_209\n      jump\t// in\n    tag_388:\n        /* \"#utility.yul\":13782:13785   */\n      dup3\n        /* \"#utility.yul\":13775:13811   */\n      mstore\n        /* \"#utility.yul\":13702:13817   */\n      pop\n      pop\n      jump\t// out\n        /* \"#utility.yul\":13823:14041   */\n    tag_57:\n        /* \"#utility.yul\":13914:13918   */\n      0x00\n        /* \"#utility.yul\":13952:13954   */\n      0x20\n        /* \"#utility.yul\":13941:13950   */\n      dup3\n        /* \"#utility.yul\":13937:13955   */\n      add\n        /* \"#utility.yul\":13929:13955   */\n      swap1\n      pop\n        /* \"#utility.yul\":13965:14034   */\n      tag_390\n        /* \"#utility.yul\":14031:14032   */\n      0x00\n        /* \"#utility.yul\":14020:14029   */\n      dup4\n        /* \"#utility.yul\":14016:14033   */\n      add\n        /* \"#utility.yul\":14007:14013   */\n      dup5\n        /* \"#utility.yul\":13965:14034   */\n      tag_227\n      jump\t// in\n    tag_390:\n        /* \"#utility.yul\":13823:14041   */\n      swap3\n      swap2\n      pop\n      pop\n      jump\t// out\n        /* \"#utility.yul\":14047:14227   */\n    tag_228:\n        /* \"#utility.yul\":14095:14172   */\n      0x4e487b7100000000000000000000000000000000000000000000000000000000\n        /* \"#utility.yul\":14092:14093   */\n      0x00\n        /* \"#utility.yul\":14085:14173   */\n      mstore\n        /* \"#utility.yul\":14192:14196   */\n      0x22\n        /* \"#utility.yul\":14189:14190   */\n      0x04\n        /* \"#utility.yul\":14182:14197   */\n      mstore\n        /* \"#utility.yul\":14216:14220   */\n      0x24\n        /* \"#utility.yul\":14213:14214   */\n      0x00\n        /* \"#utility.yul\":14206:14221   */\n      revert\n        /* \"#utility.yul\":14233:14553   */\n    tag_61:\n        /* \"#utility.yul\":14277:14283   */\n      0x00\n        /* \"#utility.yul\":14314:14315   */\n      0x02\n        /* \"#utility.yul\":14308:14312   */\n      dup3\n        /* \"#utility.yul\":14304:14316   */\n      div\n        /* \"#utility.yul\":14294:14316   */\n      swap1\n      pop\n        /* \"#utility.yul\":14361:14362   */\n      0x01\n        /* \"#utility.yul\":14355:14359   */\n      dup3\n        /* \"#utility.yul\":14351:14363   */\n      and\n        /* \"#utility.yul\":14382:14400   */\n      dup1\n        /* \"#utility.yul\":14372:14453   */\n      tag_393\n      jumpi\n        /* \"#utility.yul\":14438:14442   */\n      0x7f\n        /* \"#utility.yul\":14430:14436   */\n      dup3\n        /* \"#utility.yul\":14426:14443   */\n      and\n        /* \"#utility.yul\":14416:14443   */\n      swap2\n      pop\n        /* \"#utility.yul\":14372:14453   */\n    tag_393:\n        /* \"#utility.yul\":14500:14502   */\n      0x20\n        /* \"#utility.yul\":14492:14498   */\n      dup3\n        /* \"#utility.yul\":14489:14503   */\n      lt\n        /* \"#utility.yul\":14469:14487   */\n      dup2\n        /* \"#utility.yul\":14466:14504   */\n      sub\n        /* \"#utility.yul\":14463:14547   */\n      tag_394\n      jumpi\n        /* \"#utility.yul\":14519:14537   */\n      tag_395\n      tag_228\n      jump\t// in\n    tag_395:\n        /* \"#utility.yul\":14463:14547   */\n    tag_394:\n        /* \"#utility.yul\":14284:14553   */\n      pop\n        /* \"#utility.yul\":14233:14553   */\n      swap2\n      swap1\n      pop\n      jump\t// out\n        /* \"#utility.yul\":14559:14739   */\n    tag_71:\n        /* \"#utility.yul\":14607:14684   */\n      0x4e487b7100000000000000000000000000000000000000000000000000000000\n        /* \"#utility.yul\":14604:14605   */\n      0x00\n        /* \"#utility.yul\":14597:14685   */\n      mstore\n        /* \"#utility.yul\":14704:14708   */\n      0x32\n        /* \"#utility.yul\":14701:14702   */\n      0x04\n        /* \"#utility.yul\":14694:14709   */\n      mstore\n        /* \"#utility.yul\":14728:14732   */\n      0x24\n        /* \"#utility.yul\":14725:14726   */\n      0x00\n        /* \"#utility.yul\":14718:14733   */\n      revert\n        /* \"#utility.yul\":14745:14916   */\n    tag_229:\n        /* \"#utility.yul\":14885:14908   */\n      0x547765657420646f6573206e6f74206578697374210000000000000000000000\n        /* \"#utility.yul\":14881:14882   */\n      0x00\n        /* \"#utility.yul\":14873:14879   */\n      dup3\n        /* \"#utility.yul\":14869:14883   */\n      add\n        /* \"#utility.yul\":14862:14909   */\n      mstore\n        /* \"#utility.yul\":14745:14916   */\n      pop\n      jump\t// out\n        /* \"#utility.yul\":14922:15288   */\n    tag_230:\n        /* \"#utility.yul\":15064:15067   */\n      0x00\n        /* \"#utility.yul\":15085:15152   */\n      tag_399\n        /* \"#utility.yul\":15149:15151   */\n      0x15\n        /* \"#utility.yul\":15144:15147   */\n      dup4\n        /* \"#utility.yul\":15085:15152   */\n      tag_200\n      jump\t// in\n    tag_399:\n        /* \"#utility.yul\":15078:15152   */\n      swap2\n      pop\n        /* \"#utility.yul\":15161:15254   */\n      tag_400\n        /* \"#utility.yul\":15250:15253   */\n      dup3\n        /* \"#utility.yul\":15161:15254   */\n      tag_229\n      jump\t// in\n    tag_400:\n        /* \"#utility.yul\":15279:15281   */\n      0x20\n        /* \"#utility.yul\":15274:15277   */\n      dup3\n        /* \"#utility.yul\":15270:15282   */\n      add\n        /* \"#utility.yul\":15263:15282   */\n      swap1\n      pop\n        /* \"#utility.yul\":14922:15288   */\n      swap2\n      swap1\n      pop\n      jump\t// out\n        /* \"#utility.yul\":15294:15713   */\n    tag_84:\n        /* \"#utility.yul\":15460:15464   */\n      0x00\n        /* \"#utility.yul\":15498:15500   */\n      0x20\n        /* \"#utility.yul\":15487:15496   */\n      dup3\n        /* \"#utility.yul\":15483:15501   */\n      add\n        /* \"#utility.yul\":15475:15501   */\n      swap1\n      pop\n        /* \"#utility.yul\":15547:15556   */\n      dup2\n        /* \"#utility.yul\":15541:15545   */\n      dup2\n        /* \"#utility.yul\":15537:15557   */\n      sub\n        /* \"#utility.yul\":15533:15534   */\n      0x00\n        /* \"#utility.yul\":15522:15531   */\n      dup4\n        /* \"#utility.yul\":15518:15535   */\n      add\n        /* \"#utility.yul\":15511:15558   */\n      mstore\n        /* \"#utility.yul\":15575:15706   */\n      tag_402\n        /* \"#utility.yul\":15701:15705   */\n      dup2\n        /* \"#utility.yul\":15575:15706   */\n      tag_230\n      jump\t// in\n    tag_402:\n        /* \"#utility.yul\":15567:15706   */\n      swap1\n      pop\n        /* \"#utility.yul\":15294:15713   */\n      swap2\n      swap1\n      pop\n      jump\t// out\n        /* \"#utility.yul\":15719:15888   */\n    tag_231:\n        /* \"#utility.yul\":15859:15880   */\n      0x547765657420686173206e6f206c696b65732100000000000000000000000000\n        /* \"#utility.yul\":15855:15856   */\n      0x00\n        /* \"#utility.yul\":15847:15853   */\n      dup3\n        /* \"#utility.yul\":15843:15857   */\n      add\n        /* \"#utility.yul\":15836:15881   */\n      mstore\n        /* \"#utility.yul\":15719:15888   */\n      pop\n      jump\t// out\n        /* \"#utility.yul\":15894:16260   */\n    tag_232:\n        /* \"#utility.yul\":16036:16039   */\n      0x00\n        /* \"#utility.yul\":16057:16124   */\n      tag_405\n        /* \"#utility.yul\":16121:16123   */\n      0x13\n        /* \"#utility.yul\":16116:16119   */\n      dup4\n        /* \"#utility.yul\":16057:16124   */\n      tag_200\n      jump\t// in\n    tag_405:\n        /* \"#utility.yul\":16050:16124   */\n      swap2\n      pop\n        /* \"#utility.yul\":16133:16226   */\n      tag_406\n        /* \"#utility.yul\":16222:16225   */\n      dup3\n        /* \"#utility.yul\":16133:16226   */\n      tag_231\n      jump\t// in\n    tag_406:\n        /* \"#utility.yul\":16251:16253   */\n      0x20\n        /* \"#utility.yul\":16246:16249   */\n      dup3\n        /* \"#utility.yul\":16242:16254   */\n      add\n        /* \"#utility.yul\":16235:16254   */\n      swap1\n      pop\n        /* \"#utility.yul\":15894:16260   */\n      swap2\n      swap1\n      pop\n      jump\t// out\n        /* \"#utility.yul\":16266:16685   */\n    tag_91:\n        /* \"#utility.yul\":16432:16436   */\n      0x00\n        /* \"#utility.yul\":16470:16472   */\n      0x20\n        /* \"#utility.yul\":16459:16468   */\n      dup3\n        /* \"#utility.yul\":16455:16473   */\n      add\n        /* \"#utility.yul\":16447:16473   */\n      swap1\n      pop\n        /* \"#utility.yul\":16519:16528   */\n      dup2\n        /* \"#utility.yul\":16513:16517   */\n      dup2\n        /* \"#utility.yul\":16509:16529   */\n      sub\n        /* \"#utility.yul\":16505:16506   */\n      0x00\n        /* \"#utility.yul\":16494:16503   */\n      dup4\n        /* \"#utility.yul\":16490:16507   */\n      add\n        /* \"#utility.yul\":16483:16530   */\n      mstore\n        /* \"#utility.yul\":16547:16678   */\n      tag_408\n        /* \"#utility.yul\":16673:16677   */\n      dup2\n        /* \"#utility.yul\":16547:16678   */\n      tag_232\n      jump\t// in\n    tag_408:\n        /* \"#utility.yul\":16539:16678   */\n      swap1\n      pop\n        /* \"#utility.yul\":16266:16685   */\n      swap2\n      swap1\n      pop\n      jump\t// out\n        /* \"#utility.yul\":16691:16871   */\n    tag_233:\n        /* \"#utility.yul\":16739:16816   */\n      0x4e487b7100000000000000000000000000000000000000000000000000000000\n        /* \"#utility.yul\":16736:16737   */\n      0x00\n        /* \"#utility.yul\":16729:16817   */\n      mstore\n        /* \"#utility.yul\":16836:16840   */\n      0x11\n        /* \"#utility.yul\":16833:16834   */\n      0x04\n        /* \"#utility.yul\":16826:16841   */\n      mstore\n        /* \"#utility.yul\":16860:16864   */\n      0x24\n        /* \"#utility.yul\":16857:16858   */\n      0x00\n        /* \"#utility.yul\":16850:16865   */\n      revert\n        /* \"#utility.yul\":16877:17048   */\n    tag_96:\n        /* \"#utility.yul\":16916:16919   */\n      0x00\n        /* \"#utility.yul\":16939:16963   */\n      tag_411\n        /* \"#utility.yul\":16957:16962   */\n      dup3\n        /* \"#utility.yul\":16939:16963   */\n      tag_194\n      jump\t// in\n    tag_411:\n        /* \"#utility.yul\":16930:16963   */\n      swap2\n      pop\n        /* \"#utility.yul\":16985:16989   */\n      0x00\n        /* \"#utility.yul\":16978:16983   */\n      dup3\n        /* \"#utility.yul\":16975:16990   */\n      sub\n        /* \"#utility.yul\":16972:17013   */\n      tag_412\n      jumpi\n        /* \"#utility.yul\":16993:17011   */\n      tag_413\n      tag_233\n      jump\t// in\n    tag_413:\n        /* \"#utility.yul\":16972:17013   */\n    tag_412:\n        /* \"#utility.yul\":17040:17041   */\n      0x01\n        /* \"#utility.yul\":17033:17038   */\n      dup3\n        /* \"#utility.yul\":17029:17042   */\n      sub\n        /* \"#utility.yul\":17022:17042   */\n      swap1\n      pop\n        /* \"#utility.yul\":16877:17048   */\n      swap2\n      swap1\n      pop\n      jump\t// out\n        /* \"#utility.yul\":17054:17607   */\n    tag_101:\n        /* \"#utility.yul\":17231:17235   */\n      0x00\n        /* \"#utility.yul\":17269:17272   */\n      0x80\n        /* \"#utility.yul\":17258:17267   */\n      dup3\n        /* \"#utility.yul\":17254:17273   */\n      add\n        /* \"#utility.yul\":17246:17273   */\n      swap1\n      pop\n        /* \"#utility.yul\":17283:17354   */\n      tag_415\n        /* \"#utility.yul\":17351:17352   */\n      0x00\n        /* \"#utility.yul\":17340:17349   */\n      dup4\n        /* \"#utility.yul\":17336:17353   */\n      add\n        /* \"#utility.yul\":17327:17333   */\n      dup8\n        /* \"#utility.yul\":17283:17354   */\n      tag_198\n      jump\t// in\n    tag_415:\n        /* \"#utility.yul\":17364:17436   */\n      tag_416\n        /* \"#utility.yul\":17432:17434   */\n      0x20\n        /* \"#utility.yul\":17421:17430   */\n      dup4\n        /* \"#utility.yul\":17417:17435   */\n      add\n        /* \"#utility.yul\":17408:17414   */\n      dup7\n        /* \"#utility.yul\":17364:17436   */\n      tag_198\n      jump\t// in\n    tag_416:\n        /* \"#utility.yul\":17446:17518   */\n      tag_417\n        /* \"#utility.yul\":17514:17516   */\n      0x40\n        /* \"#utility.yul\":17503:17512   */\n      dup4\n        /* \"#utility.yul\":17499:17517   */\n      add\n        /* \"#utility.yul\":17490:17496   */\n      dup6\n        /* \"#utility.yul\":17446:17518   */\n      tag_197\n      jump\t// in\n    tag_417:\n        /* \"#utility.yul\":17528:17600   */\n      tag_418\n        /* \"#utility.yul\":17596:17598   */\n      0x60\n        /* \"#utility.yul\":17585:17594   */\n      dup4\n        /* \"#utility.yul\":17581:17599   */\n      add\n        /* \"#utility.yul\":17572:17578   */\n      dup5\n        /* \"#utility.yul\":17528:17600   */\n      tag_197\n      jump\t// in\n    tag_418:\n        /* \"#utility.yul\":17054:17607   */\n      swap6\n      swap5\n      pop\n      pop\n      pop\n      pop\n      pop\n      jump\t// out\n        /* \"#utility.yul\":17613:17844   */\n    tag_234:\n        /* \"#utility.yul\":17753:17787   */\n      0x596f75277265206e6f7420616c6c6f77656420746f2065786563757465207468\n        /* \"#utility.yul\":17749:17750   */\n      0x00\n        /* \"#utility.yul\":17741:17747   */\n      dup3\n        /* \"#utility.yul\":17737:17751   */\n      add\n        /* \"#utility.yul\":17730:17788   */\n      mstore\n        /* \"#utility.yul\":17822:17836   */\n      0x6973206f7065726174696f6e0000000000000000000000000000000000000000\n        /* \"#utility.yul\":17817:17819   */\n      0x20\n        /* \"#utility.yul\":17809:17815   */\n      dup3\n        /* \"#utility.yul\":17805:17820   */\n      add\n        /* \"#utility.yul\":17798:17837   */\n      mstore\n        /* \"#utility.yul\":17613:17844   */\n      pop\n      jump\t// out\n        /* \"#utility.yul\":17850:18216   */\n    tag_235:\n        /* \"#utility.yul\":17992:17995   */\n      0x00\n        /* \"#utility.yul\":18013:18080   */\n      tag_421\n        /* \"#utility.yul\":18077:18079   */\n      0x2c\n        /* \"#utility.yul\":18072:18075   */\n      dup4\n        /* \"#utility.yul\":18013:18080   */\n      tag_200\n      jump\t// in\n    tag_421:\n        /* \"#utility.yul\":18006:18080   */\n      swap2\n      pop\n        /* \"#utility.yul\":18089:18182   */\n      tag_422\n        /* \"#utility.yul\":18178:18181   */\n      dup3\n        /* \"#utility.yul\":18089:18182   */\n      tag_234\n      jump\t// in\n    tag_422:\n        /* \"#utility.yul\":18207:18209   */\n      0x40\n        /* \"#utility.yul\":18202:18205   */\n      dup3\n        /* \"#utility.yul\":18198:18210   */\n      add\n        /* \"#utility.yul\":18191:18210   */\n      swap1\n      pop\n        /* \"#utility.yul\":17850:18216   */\n      swap2\n      swap1\n      pop\n      jump\t// out\n        /* \"#utility.yul\":18222:18641   */\n    tag_105:\n        /* \"#utility.yul\":18388:18392   */\n      0x00\n        /* \"#utility.yul\":18426:18428   */\n      0x20\n        /* \"#utility.yul\":18415:18424   */\n      dup3\n        /* \"#utility.yul\":18411:18429   */\n      add\n        /* \"#utility.yul\":18403:18429   */\n      swap1\n      pop\n        /* \"#utility.yul\":18475:18484   */\n      dup2\n        /* \"#utility.yul\":18469:18473   */\n      dup2\n        /* \"#utility.yul\":18465:18485   */\n      sub\n        /* \"#utility.yul\":18461:18462   */\n      0x00\n        /* \"#utility.yul\":18450:18459   */\n      dup4\n        /* \"#utility.yul\":18446:18463   */\n      add\n        /* \"#utility.yul\":18439:18486   */\n      mstore\n        /* \"#utility.yul\":18503:18634   */\n      tag_424\n        /* \"#utility.yul\":18629:18633   */\n      dup2\n        /* \"#utility.yul\":18503:18634   */\n      tag_235\n      jump\t// in\n    tag_424:\n        /* \"#utility.yul\":18495:18634   */\n      swap1\n      pop\n        /* \"#utility.yul\":18222:18641   */\n      swap2\n      swap1\n      pop\n      jump\t// out\n        /* \"#utility.yul\":18647:18880   */\n    tag_118:\n        /* \"#utility.yul\":18686:18689   */\n      0x00\n        /* \"#utility.yul\":18709:18733   */\n      tag_426\n        /* \"#utility.yul\":18727:18732   */\n      dup3\n        /* \"#utility.yul\":18709:18733   */\n      tag_194\n      jump\t// in\n    tag_426:\n        /* \"#utility.yul\":18700:18733   */\n      swap2\n      pop\n        /* \"#utility.yul\":18755:18821   */\n      0xffffffffffffffffffffffffffffffffffffffffffffffffffffffffffffffff\n        /* \"#utility.yul\":18748:18753   */\n      dup3\n        /* \"#utility.yul\":18745:18822   */\n      sub\n        /* \"#utility.yul\":18742:18845   */\n      tag_427\n      jumpi\n        /* \"#utility.yul\":18825:18843   */\n      tag_428\n      tag_233\n      jump\t// in\n    tag_428:\n        /* \"#utility.yul\":18742:18845   */\n    tag_427:\n        /* \"#utility.yul\":18872:18873   */\n      0x01\n        /* \"#utility.yul\":18865:18870   */\n      dup3\n        /* \"#utility.yul\":18861:18874   */\n      add\n        /* \"#utility.yul\":18854:18874   */\n      swap1\n      pop\n        /* \"#utility.yul\":18647:18880   */\n      swap2\n      swap1\n      pop\n      jump\t// out\n        /* \"#utility.yul\":18886:19034   */\n    tag_236:\n        /* \"#utility.yul\":18988:18999   */\n      0x00\n        /* \"#utility.yul\":19025:19028   */\n      dup2\n        /* \"#utility.yul\":19010:19028   */\n      swap1\n      pop\n        /* \"#utility.yul\":18886:19034   */\n      swap3\n      swap2\n      pop\n      pop\n      jump\t// out\n        /* \"#utility.yul\":19040:19272   */\n    tag_237:\n        /* \"#utility.yul\":19180:19214   */\n      0x596f757220747765657420657863656564656420746865206c696d6974206f66\n        /* \"#utility.yul\":19176:19177   */\n      0x00\n        /* \"#utility.yul\":19168:19174   */\n      dup3\n        /* \"#utility.yul\":19164:19178   */\n      add\n        /* \"#utility.yul\":19157:19215   */\n      mstore\n        /* \"#utility.yul\":19249:19264   */\n      0x20636861726163746572733a2000000000000000000000000000000000000000\n        /* \"#utility.yul\":19244:19246   */\n      0x20\n        /* \"#utility.yul\":19236:19242   */\n      dup3\n        /* \"#utility.yul\":19232:19247   */\n      add\n        /* \"#utility.yul\":19225:19265   */\n      mstore\n        /* \"#utility.yul\":19040:19272   */\n      pop\n      jump\t// out\n        /* \"#utility.yul\":19278:19680   */\n    tag_238:\n        /* \"#utility.yul\":19438:19441   */\n      0x00\n        /* \"#utility.yul\":19459:19544   */\n      tag_432\n        /* \"#utility.yul\":19541:19543   */\n      0x2d\n        /* \"#utility.yul\":19536:19539   */\n      dup4\n        /* \"#utility.yul\":19459:19544   */\n      tag_236\n      jump\t// in\n    tag_432:\n        /* \"#utility.yul\":19452:19544   */\n      swap2\n      pop\n        /* \"#utility.yul\":19553:19646   */\n      tag_433\n        /* \"#utility.yul\":19642:19645   */\n      dup3\n        /* \"#utility.yul\":19553:19646   */\n      tag_237\n      jump\t// in\n    tag_433:\n        /* \"#utility.yul\":19671:19673   */\n      0x2d\n        /* \"#utility.yul\":19666:19669   */\n      dup3\n        /* \"#utility.yul\":19662:19674   */\n      add\n        /* \"#utility.yul\":19655:19674   */\n      swap1\n      pop\n        /* \"#utility.yul\":19278:19680   */\n      swap2\n      swap1\n      pop\n      jump\t// out\n        /* \"#utility.yul\":19686:20076   */\n    tag_239:\n        /* \"#utility.yul\":19792:19795   */\n      0x00\n        /* \"#utility.yul\":19820:19859   */\n      tag_435\n        /* \"#utility.yul\":19853:19858   */\n      dup3\n        /* \"#utility.yul\":19820:19859   */\n      tag_199\n      jump\t// in\n    tag_435:\n        /* \"#utility.yul\":19875:19964   */\n      tag_436\n        /* \"#utility.yul\":19957:19963   */\n      dup2\n        /* \"#utility.yul\":19952:19955   */\n      dup6\n        /* \"#utility.yul\":19875:19964   */\n      tag_236\n      jump\t// in\n    tag_436:\n        /* \"#utility.yul\":19868:19964   */\n      swap4\n      pop\n        /* \"#utility.yul\":19973:20038   */\n      tag_437\n        /* \"#utility.yul\":20031:20037   */\n      dup2\n        /* \"#utility.yul\":20026:20029   */\n      dup6\n        /* \"#utility.yul\":20019:20023   */\n      0x20\n        /* \"#utility.yul\":20012:20017   */\n      dup7\n        /* \"#utility.yul\":20008:20024   */\n      add\n        /* \"#utility.yul\":19973:20038   */\n      tag_201\n      jump\t// in\n    tag_437:\n        /* \"#utility.yul\":20063:20069   */\n      dup1\n        /* \"#utility.yul\":20058:20061   */\n      dup5\n        /* \"#utility.yul\":20054:20070   */\n      add\n        /* \"#utility.yul\":20047:20070   */\n      swap2\n      pop\n        /* \"#utility.yul\":19796:20076   */\n      pop\n        /* \"#utility.yul\":19686:20076   */\n      swap3\n      swap2\n      pop\n      pop\n      jump\t// out\n        /* \"#utility.yul\":20082:20623   */\n    tag_127:\n        /* \"#utility.yul\":20315:20318   */\n      0x00\n        /* \"#utility.yul\":20337:20485   */\n      tag_439\n        /* \"#utility.yul\":20481:20484   */\n      dup3\n        /* \"#utility.yul\":20337:20485   */\n      tag_238\n      jump\t// in\n    tag_439:\n        /* \"#utility.yul\":20330:20485   */\n      swap2\n      pop\n        /* \"#utility.yul\":20502:20597   */\n      tag_440\n        /* \"#utility.yul\":20593:20596   */\n      dup3\n        /* \"#utility.yul\":20584:20590   */\n      dup5\n        /* \"#utility.yul\":20502:20597   */\n      tag_239\n      jump\t// in\n    tag_440:\n        /* \"#utility.yul\":20495:20597   */\n      swap2\n      pop\n        /* \"#utility.yul\":20614:20617   */\n      dup2\n        /* \"#utility.yul\":20607:20617   */\n      swap1\n      pop\n        /* \"#utility.yul\":20082:20623   */\n      swap3\n      swap2\n      pop\n      pop\n      jump\t// out\n        /* \"#utility.yul\":20629:20942   */\n    tag_130:\n        /* \"#utility.yul\":20742:20746   */\n      0x00\n        /* \"#utility.yul\":20780:20782   */\n      0x20\n        /* \"#utility.yul\":20769:20778   */\n      dup3\n        /* \"#utility.yul\":20765:20783   */\n      add\n        /* \"#utility.yul\":20757:20783   */\n      swap1\n      pop\n        /* \"#utility.yul\":20829:20838   */\n      dup2\n        /* \"#utility.yul\":20823:20827   */\n      dup2\n        /* \"#utility.yul\":20819:20839   */\n      sub\n        /* \"#utility.yul\":20815:20816   */\n      0x00\n        /* \"#utility.yul\":20804:20813   */\n      dup4\n        /* \"#utility.yul\":20800:20817   */\n      add\n        /* \"#utility.yul\":20793:20840   */\n      mstore\n        /* \"#utility.yul\":20857:20935   */\n      tag_442\n        /* \"#utility.yul\":20930:20934   */\n      dup2\n        /* \"#utility.yul\":20921:20927   */\n      dup5\n        /* \"#utility.yul\":20857:20935   */\n      tag_203\n      jump\t// in\n    tag_442:\n        /* \"#utility.yul\":20849:20935   */\n      swap1\n      pop\n        /* \"#utility.yul\":20629:20942   */\n      swap3\n      swap2\n      pop\n      pop\n      jump\t// out\n        /* \"#utility.yul\":20948:21089   */\n    tag_240:\n        /* \"#utility.yul\":20997:21001   */\n      0x00\n        /* \"#utility.yul\":21020:21023   */\n      dup2\n        /* \"#utility.yul\":21012:21023   */\n      swap1\n      pop\n        /* \"#utility.yul\":21043:21046   */\n      dup2\n        /* \"#utility.yul\":21040:21041   */\n      0x00\n        /* \"#utility.yul\":21033:21047   */\n      mstore\n        /* \"#utility.yul\":21077:21081   */\n      0x20\n        /* \"#utility.yul\":21074:21075   */\n      0x00\n        /* \"#utility.yul\":21064:21082   */\n      keccak256\n        /* \"#utility.yul\":21056:21082   */\n      swap1\n      pop\n        /* \"#utility.yul\":20948:21089   */\n      swap2\n      swap1\n      pop\n      jump\t// out\n        /* \"#utility.yul\":21095:21188   */\n    tag_241:\n        /* \"#utility.yul\":21132:21138   */\n      0x00\n        /* \"#utility.yul\":21179:21181   */\n      0x20\n        /* \"#utility.yul\":21174:21176   */\n      0x1f\n        /* \"#utility.yul\":21167:21172   */\n      dup4\n        /* \"#utility.yul\":21163:21177   */\n      add\n        /* \"#utility.yul\":21159:21182   */\n      div\n        /* \"#utility.yul\":21149:21182   */\n      swap1\n      pop\n        /* \"#utility.yul\":21095:21188   */\n      swap2\n      swap1\n      pop\n      jump\t// out\n        /* \"#utility.yul\":21194:21301   */\n    tag_242:\n        /* \"#utility.yul\":21238:21246   */\n      0x00\n        /* \"#utility.yul\":21288:21293   */\n      dup3\n        /* \"#utility.yul\":21282:21286   */\n      dup3\n        /* \"#utility.yul\":21278:21294   */\n      shl\n        /* \"#utility.yul\":21257:21294   */\n      swap1\n      pop\n        /* \"#utility.yul\":21194:21301   */\n      swap3\n      swap2\n      pop\n      pop\n      jump\t// out\n        /* \"#utility.yul\":21307:21700   */\n    tag_243:\n        /* \"#utility.yul\":21376:21382   */\n      0x00\n        /* \"#utility.yul\":21426:21427   */\n      0x08\n        /* \"#utility.yul\":21414:21424   */\n      dup4\n        /* \"#utility.yul\":21410:21428   */\n      mul\n        /* \"#utility.yul\":21449:21546   */\n      tag_447\n        /* \"#utility.yul\":21479:21545   */\n      0xffffffffffffffffffffffffffffffffffffffffffffffffffffffffffffffff\n        /* \"#utility.yul\":21468:21477   */\n      dup3\n        /* \"#utility.yul\":21449:21546   */\n      tag_242\n      jump\t// in\n    tag_447:\n        /* \"#utility.yul\":21567:21606   */\n      tag_448\n        /* \"#utility.yul\":21597:21605   */\n      dup7\n        /* \"#utility.yul\":21586:21595   */\n      dup4\n        /* \"#utility.yul\":21567:21606   */\n      tag_242\n      jump\t// in\n    tag_448:\n        /* \"#utility.yul\":21555:21606   */\n      swap6\n      pop\n        /* \"#utility.yul\":21639:21643   */\n      dup1\n        /* \"#utility.yul\":21635:21644   */\n      not\n        /* \"#utility.yul\":21628:21633   */\n      dup5\n        /* \"#utility.yul\":21624:21645   */\n      and\n        /* \"#utility.yul\":21615:21645   */\n      swap4\n      pop\n        /* \"#utility.yul\":21688:21692   */\n      dup1\n        /* \"#utility.yul\":21678:21686   */\n      dup7\n        /* \"#utility.yul\":21674:21693   */\n      and\n        /* \"#utility.yul\":21667:21672   */\n      dup5\n        /* \"#utility.yul\":21664:21694   */\n      or\n        /* \"#utility.yul\":21654:21694   */\n      swap3\n      pop\n        /* \"#utility.yul\":21383:21700   */\n      pop\n      pop\n        /* \"#utility.yul\":21307:21700   */\n      swap4\n      swap3\n      pop\n      pop\n      pop\n      jump\t// out\n        /* \"#utility.yul\":21706:21766   */\n    tag_244:\n        /* \"#utility.yul\":21734:21737   */\n      0x00\n        /* \"#utility.yul\":21755:21760   */\n      dup2\n        /* \"#utility.yul\":21748:21760   */\n      swap1\n      pop\n        /* \"#utility.yul\":21706:21766   */\n      swap2\n      swap1\n      pop\n      jump\t// out\n        /* \"#utility.yul\":21772:21914   */\n    tag_245:\n        /* \"#utility.yul\":21822:21831   */\n      0x00\n        /* \"#utility.yul\":21855:21908   */\n      tag_451\n        /* \"#utility.yul\":21873:21907   */\n      tag_452\n        /* \"#utility.yul\":21882:21906   */\n      tag_453\n        /* \"#utility.yul\":21900:21905   */\n      dup5\n        /* \"#utility.yul\":21882:21906   */\n      tag_194\n      jump\t// in\n    tag_453:\n        /* \"#utility.yul\":21873:21907   */\n      tag_244\n      jump\t// in\n    tag_452:\n        /* \"#utility.yul\":21855:21908   */\n      tag_194\n      jump\t// in\n    tag_451:\n        /* \"#utility.yul\":21842:21908   */\n      swap1\n      pop\n        /* \"#utility.yul\":21772:21914   */\n      swap2\n      swap1\n      pop\n      jump\t// out\n        /* \"#utility.yul\":21920:21995   */\n    tag_246:\n        /* \"#utility.yul\":21963:21966   */\n      0x00\n        /* \"#utility.yul\":21984:21989   */\n      dup2\n        /* \"#utility.yul\":21977:21989   */\n      swap1\n      pop\n        /* \"#utility.yul\":21920:21995   */\n      swap2\n      swap1\n      pop\n      jump\t// out\n        /* \"#utility.yul\":22001:22270   */\n    tag_247:\n        /* \"#utility.yul\":22111:22150   */\n      tag_456\n        /* \"#utility.yul\":22142:22149   */\n      dup4\n        /* \"#utility.yul\":22111:22150   */\n      tag_245\n      jump\t// in\n    tag_456:\n        /* \"#utility.yul\":22172:22263   */\n      tag_457\n        /* \"#utility.yul\":22221:22262   */\n      tag_458\n        /* \"#utility.yul\":22245:22261   */\n      dup3\n        /* \"#utility.yul\":22221:22262   */\n      tag_246\n      jump\t// in\n    tag_458:\n        /* \"#utility.yul\":22213:22219   */\n      dup5\n        /* \"#utility.yul\":22206:22210   */\n      dup5\n        /* \"#utility.yul\":22200:22211   */\n      sload\n        /* \"#utility.yul\":22172:22263   */\n      tag_243\n      jump\t// in\n    tag_457:\n        /* \"#utility.yul\":22166:22170   */\n      dup3\n        /* \"#utility.yul\":22159:22264   */\n      sstore\n        /* \"#utility.yul\":22077:22270   */\n      pop\n        /* \"#utility.yul\":22001:22270   */\n      pop\n      pop\n      pop\n      jump\t// out\n        /* \"#utility.yul\":22276:22349   */\n    tag_248:\n        /* \"#utility.yul\":22321:22324   */\n      0x00\n        /* \"#utility.yul\":22276:22349   */\n      swap1\n      jump\t// out\n        /* \"#utility.yul\":22355:22544   */\n    tag_249:\n        /* \"#utility.yul\":22432:22464   */\n      tag_461\n      tag_248\n      jump\t// in\n    tag_461:\n        /* \"#utility.yul\":22473:22538   */\n      tag_462\n        /* \"#utility.yul\":22531:22537   */\n      dup2\n        /* \"#utility.yul\":22523:22529   */\n      dup5\n        /* \"#utility.yul\":22517:22521   */\n      dup5\n        /* \"#utility.yul\":22473:22538   */\n      tag_247\n      jump\t// in\n    tag_462:\n        /* \"#utility.yul\":22408:22544   */\n      pop\n        /* \"#utility.yul\":22355:22544   */\n      pop\n      pop\n      jump\t// out\n        /* \"#utility.yul\":22550:22736   */\n    tag_250:\n        /* \"#utility.yul\":22610:22730   */\n    tag_464:\n        /* \"#utility.yul\":22627:22630   */\n      dup2\n        /* \"#utility.yul\":22620:22625   */\n      dup2\n        /* \"#utility.yul\":22617:22631   */\n      lt\n        /* \"#utility.yul\":22610:22730   */\n      iszero\n      tag_466\n      jumpi\n        /* \"#utility.yul\":22681:22720   */\n      tag_467\n        /* \"#utility.yul\":22718:22719   */\n      0x00\n        /* \"#utility.yul\":22711:22716   */\n      dup3\n        /* \"#utility.yul\":22681:22720   */\n      tag_249\n      jump\t// in\n    tag_467:\n        /* \"#utility.yul\":22654:22655   */\n      0x01\n        /* \"#utility.yul\":22647:22652   */\n      dup2\n        /* \"#utility.yul\":22643:22656   */\n      add\n        /* \"#utility.yul\":22634:22656   */\n      swap1\n      pop\n        /* \"#utility.yul\":22610:22730   */\n      jump(tag_464)\n    tag_466:\n        /* \"#utility.yul\":22550:22736   */\n      pop\n      pop\n      jump\t// out\n        /* \"#utility.yul\":22742:23285   */\n    tag_251:\n        /* \"#utility.yul\":22843:22845   */\n      0x1f\n        /* \"#utility.yul\":22838:22841   */\n      dup3\n        /* \"#utility.yul\":22835:22846   */\n      gt\n        /* \"#utility.yul\":22832:23278   */\n      iszero\n      tag_469\n      jumpi\n        /* \"#utility.yul\":22877:22915   */\n      tag_470\n        /* \"#utility.yul\":22909:22914   */\n      dup2\n        /* \"#utility.yul\":22877:22915   */\n      tag_240\n      jump\t// in\n    tag_470:\n        /* \"#utility.yul\":22961:22990   */\n      tag_471\n        /* \"#utility.yul\":22979:22989   */\n      dup5\n        /* \"#utility.yul\":22961:22990   */\n      tag_241\n      jump\t// in\n    tag_471:\n        /* \"#utility.yul\":22951:22959   */\n      dup2\n        /* \"#utility.yul\":22947:22991   */\n      add\n        /* \"#utility.yul\":23144:23146   */\n      0x20\n        /* \"#utility.yul\":23132:23142   */\n      dup6\n        /* \"#utility.yul\":23129:23147   */\n      lt\n        /* \"#utility.yul\":23126:23175   */\n      iszero\n      tag_472\n      jumpi\n        /* \"#utility.yul\":23165:23173   */\n      dup2\n        /* \"#utility.yul\":23150:23173   */\n      swap1\n      pop\n        /* \"#utility.yul\":23126:23175   */\n    tag_472:\n        /* \"#utility.yul\":23188:23268   */\n      tag_473\n        /* \"#utility.yul\":23244:23266   */\n      tag_474\n        /* \"#utility.yul\":23262:23265   */\n      dup6\n        /* \"#utility.yul\":23244:23266   */\n      tag_241\n      jump\t// in\n    tag_474:\n        /* \"#utility.yul\":23234:23242   */\n      dup4\n        /* \"#utility.yul\":23230:23267   */\n      add\n        /* \"#utility.yul\":23217:23228   */\n      dup3\n        /* \"#utility.yul\":23188:23268   */\n      tag_250\n      jump\t// in\n    tag_473:\n        /* \"#utility.yul\":22847:23278   */\n      pop\n      pop\n        /* \"#utility.yul\":22832:23278   */\n    tag_469:\n        /* \"#utility.yul\":22742:23285   */\n      pop\n      pop\n      pop\n      jump\t// out\n        /* \"#utility.yul\":23291:23408   */\n    tag_252:\n        /* \"#utility.yul\":23345:23353   */\n      0x00\n        /* \"#utility.yul\":23395:23400   */\n      dup3\n        /* \"#utility.yul\":23389:23393   */\n      dup3\n        /* \"#utility.yul\":23385:23401   */\n      shr\n        /* \"#utility.yul\":23364:23401   */\n      swap1\n      pop\n        /* \"#utility.yul\":23291:23408   */\n      swap3\n      swap2\n      pop\n      pop\n      jump\t// out\n        /* \"#utility.yul\":23414:23583   */\n    tag_253:\n        /* \"#utility.yul\":23458:23464   */\n      0x00\n        /* \"#utility.yul\":23491:23542   */\n      tag_477\n        /* \"#utility.yul\":23539:23540   */\n      0x00\n        /* \"#utility.yul\":23535:23541   */\n      not\n        /* \"#utility.yul\":23527:23532   */\n      dup5\n        /* \"#utility.yul\":23524:23525   */\n      0x08\n        /* \"#utility.yul\":23520:23533   */\n      mul\n        /* \"#utility.yul\":23491:23542   */\n      tag_252\n      jump\t// in\n    tag_477:\n        /* \"#utility.yul\":23487:23543   */\n      not\n        /* \"#utility.yul\":23572:23576   */\n      dup1\n        /* \"#utility.yul\":23566:23570   */\n      dup4\n        /* \"#utility.yul\":23562:23577   */\n      and\n        /* \"#utility.yul\":23552:23577   */\n      swap2\n      pop\n        /* \"#utility.yul\":23465:23583   */\n      pop\n        /* \"#utility.yul\":23414:23583   */\n      swap3\n      swap2\n      pop\n      pop\n      jump\t// out\n        /* \"#utility.yul\":23588:23883   */\n    tag_254:\n        /* \"#utility.yul\":23664:23668   */\n      0x00\n        /* \"#utility.yul\":23810:23839   */\n      tag_479\n        /* \"#utility.yul\":23835:23838   */\n      dup4\n        /* \"#utility.yul\":23829:23833   */\n      dup4\n        /* \"#utility.yul\":23810:23839   */\n      tag_253\n      jump\t// in\n    tag_479:\n        /* \"#utility.yul\":23802:23839   */\n      swap2\n      pop\n        /* \"#utility.yul\":23872:23875   */\n      dup3\n        /* \"#utility.yul\":23869:23870   */\n      0x02\n        /* \"#utility.yul\":23865:23876   */\n      mul\n        /* \"#utility.yul\":23859:23863   */\n      dup3\n        /* \"#utility.yul\":23856:23877   */\n      or\n        /* \"#utility.yul\":23848:23877   */\n      swap1\n      pop\n        /* \"#utility.yul\":23588:23883   */\n      swap3\n      swap2\n      pop\n      pop\n      jump\t// out\n        /* \"#utility.yul\":23888:25283   */\n    tag_133:\n        /* \"#utility.yul\":24005:24042   */\n      tag_481\n        /* \"#utility.yul\":24038:24041   */\n      dup3\n        /* \"#utility.yul\":24005:24042   */\n      tag_199\n      jump\t// in\n    tag_481:\n        /* \"#utility.yul\":24107:24125   */\n      0xffffffffffffffff\n        /* \"#utility.yul\":24099:24105   */\n      dup2\n        /* \"#utility.yul\":24096:24126   */\n      gt\n        /* \"#utility.yul\":24093:24149   */\n      iszero\n      tag_482\n      jumpi\n        /* \"#utility.yul\":24129:24147   */\n      tag_483\n      tag_159\n      jump\t// in\n    tag_483:\n        /* \"#utility.yul\":24093:24149   */\n    tag_482:\n        /* \"#utility.yul\":24173:24211   */\n      tag_484\n        /* \"#utility.yul\":24205:24209   */\n      dup3\n        /* \"#utility.yul\":24199:24210   */\n      sload\n        /* \"#utility.yul\":24173:24211   */\n      tag_61\n      jump\t// in\n    tag_484:\n        /* \"#utility.yul\":24258:24325   */\n      tag_485\n        /* \"#utility.yul\":24318:24324   */\n      dup3\n        /* \"#utility.yul\":24310:24316   */\n      dup3\n        /* \"#utility.yul\":24304:24308   */\n      dup6\n        /* \"#utility.yul\":24258:24325   */\n      tag_251\n      jump\t// in\n    tag_485:\n        /* \"#utility.yul\":24352:24353   */\n      0x00\n        /* \"#utility.yul\":24376:24380   */\n      0x20\n        /* \"#utility.yul\":24363:24380   */\n      swap1\n      pop\n        /* \"#utility.yul\":24408:24410   */\n      0x1f\n        /* \"#utility.yul\":24400:24406   */\n      dup4\n        /* \"#utility.yul\":24397:24411   */\n      gt\n        /* \"#utility.yul\":24425:24426   */\n      0x01\n        /* \"#utility.yul\":24420:25038   */\n      dup2\n      eq\n      tag_487\n      jumpi\n        /* \"#utility.yul\":25082:25083   */\n      0x00\n        /* \"#utility.yul\":25099:25105   */\n      dup5\n        /* \"#utility.yul\":25096:25173   */\n      iszero\n      tag_488\n      jumpi\n        /* \"#utility.yul\":25148:25157   */\n      dup3\n        /* \"#utility.yul\":25143:25146   */\n      dup8\n        /* \"#utility.yul\":25139:25158   */\n      add\n        /* \"#utility.yul\":25133:25159   */\n      mload\n        /* \"#utility.yul\":25124:25159   */\n      swap1\n      pop\n        /* \"#utility.yul\":25096:25173   */\n    tag_488:\n        /* \"#utility.yul\":25199:25266   */\n      tag_489\n        /* \"#utility.yul\":25259:25265   */\n      dup6\n        /* \"#utility.yul\":25252:25257   */\n      dup3\n        /* \"#utility.yul\":25199:25266   */\n      tag_254\n      jump\t// in\n    tag_489:\n        /* \"#utility.yul\":25193:25197   */\n      dup7\n        /* \"#utility.yul\":25186:25267   */\n      sstore\n        /* \"#utility.yul\":25055:25277   */\n      pop\n        /* \"#utility.yul\":24390:25277   */\n      jump(tag_486)\n        /* \"#utility.yul\":24420:25038   */\n    tag_487:\n        /* \"#utility.yul\":24472:24476   */\n      0x1f\n        /* \"#utility.yul\":24468:24477   */\n      not\n        /* \"#utility.yul\":24460:24466   */\n      dup5\n        /* \"#utility.yul\":24456:24478   */\n      and\n        /* \"#utility.yul\":24506:24543   */\n      tag_490\n        /* \"#utility.yul\":24538:24542   */\n      dup7\n        /* \"#utility.yul\":24506:24543   */\n      tag_240\n      jump\t// in\n    tag_490:\n        /* \"#utility.yul\":24565:24566   */\n      0x00\n        /* \"#utility.yul\":24579:24787   */\n    tag_491:\n        /* \"#utility.yul\":24593:24600   */\n      dup3\n        /* \"#utility.yul\":24590:24591   */\n      dup2\n        /* \"#utility.yul\":24587:24601   */\n      lt\n        /* \"#utility.yul\":24579:24787   */\n      iszero\n      tag_493\n      jumpi\n        /* \"#utility.yul\":24672:24681   */\n      dup5\n        /* \"#utility.yul\":24667:24670   */\n      dup10\n        /* \"#utility.yul\":24663:24682   */\n      add\n        /* \"#utility.yul\":24657:24683   */\n      mload\n        /* \"#utility.yul\":24649:24655   */\n      dup3\n        /* \"#utility.yul\":24642:24684   */\n      sstore\n        /* \"#utility.yul\":24723:24724   */\n      0x01\n        /* \"#utility.yul\":24715:24721   */\n      dup3\n        /* \"#utility.yul\":24711:24725   */\n      add\n        /* \"#utility.yul\":24701:24725   */\n      swap2\n      pop\n        /* \"#utility.yul\":24770:24772   */\n      0x20\n        /* \"#utility.yul\":24759:24768   */\n      dup6\n        /* \"#utility.yul\":24755:24773   */\n      add\n        /* \"#utility.yul\":24742:24773   */\n      swap5\n      pop\n        /* \"#utility.yul\":24616:24620   */\n      0x20\n        /* \"#utility.yul\":24613:24614   */\n      dup2\n        /* \"#utility.yul\":24609:24621   */\n      add\n        /* \"#utility.yul\":24604:24621   */\n      swap1\n      pop\n        /* \"#utility.yul\":24579:24787   */\n      jump(tag_491)\n    tag_493:\n        /* \"#utility.yul\":24815:24821   */\n      dup7\n        /* \"#utility.yul\":24806:24813   */\n      dup4\n        /* \"#utility.yul\":24803:24822   */\n      lt\n        /* \"#utility.yul\":24800:24979   */\n      iszero\n      tag_494\n      jumpi\n        /* \"#utility.yul\":24873:24882   */\n      dup5\n        /* \"#utility.yul\":24868:24871   */\n      dup10\n        /* \"#utility.yul\":24864:24883   */\n      add\n        /* \"#utility.yul\":24858:24884   */\n      mload\n        /* \"#utility.yul\":24916:24964   */\n      tag_495\n        /* \"#utility.yul\":24958:24962   */\n      0x1f\n        /* \"#utility.yul\":24950:24956   */\n      dup10\n        /* \"#utility.yul\":24946:24963   */\n      and\n        /* \"#utility.yul\":24935:24944   */\n      dup3\n        /* \"#utility.yul\":24916:24964   */\n      tag_253\n      jump\t// in\n    tag_495:\n        /* \"#utility.yul\":24908:24914   */\n      dup4\n        /* \"#utility.yul\":24901:24965   */\n      sstore\n        /* \"#utility.yul\":24823:24979   */\n      pop\n        /* \"#utility.yul\":24800:24979   */\n    tag_494:\n        /* \"#utility.yul\":25025:25026   */\n      0x01\n        /* \"#utility.yul\":25021:25022   */\n      0x02\n        /* \"#utility.yul\":25013:25019   */\n      dup9\n        /* \"#utility.yul\":25009:25023   */\n      mul\n        /* \"#utility.yul\":25005:25027   */\n      add\n        /* \"#utility.yul\":24999:25003   */\n      dup9\n        /* \"#utility.yul\":24992:25028   */\n      sstore\n        /* \"#utility.yul\":24427:25038   */\n      pop\n      pop\n      pop\n        /* \"#utility.yul\":24390:25277   */\n    tag_486:\n      pop\n        /* \"#utility.yul\":23980:25283   */\n      pop\n      pop\n      pop\n        /* \"#utility.yul\":23888:25283   */\n      pop\n      pop\n      jump\t// out\n        /* \"#utility.yul\":25289:25933   */\n    tag_135:\n        /* \"#utility.yul\":25486:25490   */\n      0x00\n        /* \"#utility.yul\":25524:25527   */\n      0x80\n        /* \"#utility.yul\":25513:25522   */\n      dup3\n        /* \"#utility.yul\":25509:25528   */\n      add\n        /* \"#utility.yul\":25501:25528   */\n      swap1\n      pop\n        /* \"#utility.yul\":25538:25609   */\n      tag_497\n        /* \"#utility.yul\":25606:25607   */\n      0x00\n        /* \"#utility.yul\":25595:25604   */\n      dup4\n        /* \"#utility.yul\":25591:25608   */\n      add\n        /* \"#utility.yul\":25582:25588   */\n      dup8\n        /* \"#utility.yul\":25538:25609   */\n      tag_197\n      jump\t// in\n    tag_497:\n        /* \"#utility.yul\":25619:25691   */\n      tag_498\n        /* \"#utility.yul\":25687:25689   */\n      0x20\n        /* \"#utility.yul\":25676:25685   */\n      dup4\n        /* \"#utility.yul\":25672:25690   */\n      add\n        /* \"#utility.yul\":25663:25669   */\n      dup7\n        /* \"#utility.yul\":25619:25691   */\n      tag_198\n      jump\t// in\n    tag_498:\n        /* \"#utility.yul\":25738:25747   */\n      dup2\n        /* \"#utility.yul\":25732:25736   */\n      dup2\n        /* \"#utility.yul\":25728:25748   */\n      sub\n        /* \"#utility.yul\":25723:25725   */\n      0x40\n        /* \"#utility.yul\":25712:25721   */\n      dup4\n        /* \"#utility.yul\":25708:25726   */\n      add\n        /* \"#utility.yul\":25701:25749   */\n      mstore\n        /* \"#utility.yul\":25766:25844   */\n      tag_499\n        /* \"#utility.yul\":25839:25843   */\n      dup2\n        /* \"#utility.yul\":25830:25836   */\n      dup6\n        /* \"#utility.yul\":25766:25844   */\n      tag_203\n      jump\t// in\n    tag_499:\n        /* \"#utility.yul\":25758:25844   */\n      swap1\n      pop\n        /* \"#utility.yul\":25854:25926   */\n      tag_500\n        /* \"#utility.yul\":25922:25924   */\n      0x60\n        /* \"#utility.yul\":25911:25920   */\n      dup4\n        /* \"#utility.yul\":25907:25925   */\n      add\n        /* \"#utility.yul\":25898:25904   */\n      dup5\n        /* \"#utility.yul\":25854:25926   */\n      tag_197\n      jump\t// in\n    tag_500:\n        /* \"#utility.yul\":25289:25933   */\n      swap6\n      swap5\n      pop\n      pop\n      pop\n      pop\n      pop\n      jump\t// out\n        /* \"#utility.yul\":25939:26130   */\n    tag_153:\n        /* \"#utility.yul\":25979:25982   */\n      0x00\n        /* \"#utility.yul\":25998:26018   */\n      tag_502\n        /* \"#utility.yul\":26016:26017   */\n      dup3\n        /* \"#utility.yul\":25998:26018   */\n      tag_194\n      jump\t// in\n    tag_502:\n        /* \"#utility.yul\":25993:26018   */\n      swap2\n      pop\n        /* \"#utility.yul\":26032:26052   */\n      tag_503\n        /* \"#utility.yul\":26050:26051   */\n      dup4\n        /* \"#utility.yul\":26032:26052   */\n      tag_194\n      jump\t// in\n    tag_503:\n        /* \"#utility.yul\":26027:26052   */\n      swap3\n      pop\n        /* \"#utility.yul\":26075:26076   */\n      dup3\n        /* \"#utility.yul\":26072:26073   */\n      dup3\n        /* \"#utility.yul\":26068:26077   */\n      add\n        /* \"#utility.yul\":26061:26077   */\n      swap1\n      pop\n        /* \"#utility.yul\":26096:26099   */\n      dup1\n        /* \"#utility.yul\":26093:26094   */\n      dup3\n        /* \"#utility.yul\":26090:26100   */\n      gt\n        /* \"#utility.yul\":26087:26123   */\n      iszero\n      tag_504\n      jumpi\n        /* \"#utility.yul\":26103:26121   */\n      tag_505\n      tag_233\n      jump\t// in\n    tag_505:\n        /* \"#utility.yul\":26087:26123   */\n    tag_504:\n        /* \"#utility.yul\":25939:26130   */\n      swap3\n      swap2\n      pop\n      pop\n      jump\t// out\n        /* \"#utility.yul\":26136:26316   */\n    tag_165:\n        /* \"#utility.yul\":26184:26261   */\n      0x4e487b7100000000000000000000000000000000000000000000000000000000\n        /* \"#utility.yul\":26181:26182   */\n      0x00\n        /* \"#utility.yul\":26174:26262   */\n      mstore\n        /* \"#utility.yul\":26281:26285   */\n      0x12\n        /* \"#utility.yul\":26278:26279   */\n      0x04\n        /* \"#utility.yul\":26271:26286   */\n      mstore\n        /* \"#utility.yul\":26305:26309   */\n      0x24\n        /* \"#utility.yul\":26302:26303   */\n      0x00\n        /* \"#utility.yul\":26295:26310   */\n      revert\n\n    auxdata: 0xa2646970667358221220864d577270ba3677dc0572cb495b4c3086ed33d04f895cadf148138be62b0cc264736f6c634300081a0033\n}\n",
				"bytecode": {
					"linkReferences": {},
					"object": "60806040526101185f806101000a81548161ffff021916908361ffff160217905550348015602b575f80fd5b503360025f6101000a81548173ffffffffffffffffffffffffffffffffffffffff021916908373ffffffffffffffffffffffffffffffffffffffff160217905550611dcb806100795f395ff3fe608060405234801561000f575f80fd5b506004361061009c575f3560e01c80637c9cd2bc116100645780637c9cd2bc14610158578063808b0cf114610174578063820785cc146101a45780638da5cb5b146101d4578063fd10b7df146101f25761009c565b806305a1b4a9146100a0578063112f54e3146100d45780633d9b569f1461010457806358bfa4ab14610120578063633782161461013c575b5f80fd5b6100ba60048036038101906100b59190611109565b610210565b6040516100cb9594939291906111d5565b60405180910390f35b6100ee60048036038101906100e99190611109565b610301565b6040516100fb9190611306565b60405180910390f35b61011e60048036038101906101199190611109565b610479565b005b61013a6004803603810190610135919061135d565b6106ce565b005b61015660048036038101906101519190611109565b61077b565b005b610172600480360381019061016d91906114b4565b610930565b005b61018e600480360381019061018991906114fb565b610b6f565b60405161019b9190611654565b60405180910390f35b6101be60048036038101906101b991906114fb565b610d0a565b6040516101cb9190611674565b60405180910390f35b6101dc610dd9565b6040516101e9919061168d565b60405180910390f35b6101fa610dfe565b60405161020791906116b5565b60405180910390f35b6001602052815f5260405f208181548110610229575f80fd5b905f5260205f2090600502015f9150915050805f015490806001015f9054906101000a900473ffffffffffffffffffffffffffffffffffffffff1690806002018054610274906116fb565b80601f01602080910402602001604051908101604052809291908181526020018280546102a0906116fb565b80156102eb5780601f106102c2576101008083540402835291602001916102eb565b820191905f5260205f20905b8154815290600101906020018083116102ce57829003601f168201915b5050505050908060030154908060040154905085565b61030961102a565b60015f8473ffffffffffffffffffffffffffffffffffffffff1673ffffffffffffffffffffffffffffffffffffffff1681526020019081526020015f2082815481106103585761035761172b565b5b905f5260205f2090600502016040518060a00160405290815f8201548152602001600182015f9054906101000a900473ffffffffffffffffffffffffffffffffffffffff1673ffffffffffffffffffffffffffffffffffffffff1673ffffffffffffffffffffffffffffffffffffffff1681526020016002820180546103dd906116fb565b80601f0160208091040260200160405190810160405280929190818152602001828054610409906116fb565b80156104545780601f1061042b57610100808354040283529160200191610454565b820191905f5260205f20905b81548152906001019060200180831161043757829003601f168201915b5050505050815260200160038201548152602001600482015481525050905092915050565b81818060015f8473ffffffffffffffffffffffffffffffffffffffff1673ffffffffffffffffffffffffffffffffffffffff1681526020019081526020015f2082815481106104cb576104ca61172b565b5b905f5260205f2090600502015f01541461051a576040517f08c379a0000000000000000000000000000000000000000000000000000000008152600401610511906117a2565b60405180910390fd5b5f60015f8673ffffffffffffffffffffffffffffffffffffffff1673ffffffffffffffffffffffffffffffffffffffff1681526020019081526020015f20848154811061056a5761056961172b565b5b905f5260205f20906005020160040154116105ba576040517f08c379a00000000000000000000000000000000000000000000000000000000081526004016105b19061180a565b60405180910390fd5b60015f8573ffffffffffffffffffffffffffffffffffffffff1673ffffffffffffffffffffffffffffffffffffffff1681526020019081526020015f2083815481106106095761060861172b565b5b905f5260205f2090600502016004015f81548092919061062890611855565b91905055507f762c2616349603ac16eba0de8e6141b79129a07ab63bd99e0a80b3a47171694333858560015f8973ffffffffffffffffffffffffffffffffffffffff1673ffffffffffffffffffffffffffffffffffffffff1681526020019081526020015f2087815481106106a05761069f61172b565b5b905f5260205f209060050201600401546040516106c0949392919061187c565b60405180910390a150505050565b60025f9054906101000a900473ffffffffffffffffffffffffffffffffffffffff1673ffffffffffffffffffffffffffffffffffffffff163373ffffffffffffffffffffffffffffffffffffffff161461075d576040517f08c379a00000000000000000000000000000000000000000000000000000000081526004016107549061192f565b60405180910390fd5b805f806101000a81548161ffff021916908361ffff16021790555050565b81818060015f8473ffffffffffffffffffffffffffffffffffffffff1673ffffffffffffffffffffffffffffffffffffffff1681526020019081526020015f2082815481106107cd576107cc61172b565b5b905f5260205f2090600502015f01541461081c576040517f08c379a0000000000000000000000000000000000000000000000000000000008152600401610813906117a2565b60405180910390fd5b60015f8573ffffffffffffffffffffffffffffffffffffffff1673ffffffffffffffffffffffffffffffffffffffff1681526020019081526020015f20838154811061086b5761086a61172b565b5b905f5260205f2090600502016004015f81548092919061088a9061194d565b91905055507fe8a76fc0f16d11a00d1e93b689b63d76cf60af914dd3d915375dc41d01a0c3c833858560015f8973ffffffffffffffffffffffffffffffffffffffff1673ffffffffffffffffffffffffffffffffffffffff1681526020019081526020015f2087815481106109025761090161172b565b5b905f5260205f20906005020160040154604051610922949392919061187c565b60405180910390a150505050565b5f8054906101000a900461ffff1661ffff16815111156109605f8054906101000a900461ffff1661ffff16610e0f565b6040516020016109709190611a3e565b604051602081830303815290604052906109c0576040517f08c379a00000000000000000000000000000000000000000000000000000000081526004016109b79190611a5f565b60405180910390fd5b505f6040518060a0016040528060015f3373ffffffffffffffffffffffffffffffffffffffff1673ffffffffffffffffffffffffffffffffffffffff1681526020019081526020015f208054905081526020013373ffffffffffffffffffffffffffffffffffffffff1681526020018381526020014281526020015f815250905060015f3373ffffffffffffffffffffffffffffffffffffffff1673ffffffffffffffffffffffffffffffffffffffff1681526020019081526020015f2081908060018154018082558091505060019003905f5260205f2090600502015f909190919091505f820151815f01556020820151816001015f6101000a81548173ffffffffffffffffffffffffffffffffffffffff021916908373ffffffffffffffffffffffffffffffffffffffff1602179055506040820151816002019081610b089190611c1c565b50606082015181600301556080820151816004015550507f16fd3c13e9d46923e0a8bce11c7b473ec508a72e6c96cd2404b29ce972afc29e815f0151826020015183604001518460600151604051610b639493929190611ceb565b60405180910390a15050565b606060015f8373ffffffffffffffffffffffffffffffffffffffff1673ffffffffffffffffffffffffffffffffffffffff1681526020019081526020015f20805480602002602001604051908101604052809291908181526020015f905b82821015610cff578382905f5260205f2090600502016040518060a00160405290815f8201548152602001600182015f9054906101000a900473ffffffffffffffffffffffffffffffffffffffff1673ffffffffffffffffffffffffffffffffffffffff1673ffffffffffffffffffffffffffffffffffffffff168152602001600282018054610c5c906116fb565b80601f0160208091040260200160405190810160405280929190818152602001828054610c88906116fb565b8015610cd35780601f10610caa57610100808354040283529160200191610cd3565b820191905f5260205f20905b815481529060010190602001808311610cb657829003601f168201915b505050505081526020016003820154815260200160048201548152505081526020019060010190610bcd565b505050509050919050565b5f805f5b60015f8573ffffffffffffffffffffffffffffffffffffffff1673ffffffffffffffffffffffffffffffffffffffff1681526020019081526020015f2080549050811015610dcf5760015f8573ffffffffffffffffffffffffffffffffffffffff1673ffffffffffffffffffffffffffffffffffffffff1681526020019081526020015f208181548110610da557610da461172b565b5b905f5260205f2090600502016004015482610dc09190611d35565b91508080600101915050610d0e565b5080915050919050565b60025f9054906101000a900473ffffffffffffffffffffffffffffffffffffffff1681565b5f8054906101000a900461ffff1681565b60605f6001610e1d84610ed9565b0190505f8167ffffffffffffffff811115610e3b57610e3a611390565b5b6040519080825280601f01601f191660200182016040528015610e6d5781602001600182028036833780820191505090505b5090505f82602001820190505b600115610ece578080600190039150507f3031323334353637383961626364656600000000000000000000000000000000600a86061a8153600a8581610ec357610ec2611d68565b5b0494505f8503610e7a575b819350505050919050565b5f805f90507a184f03e93ff9f4daa797ed6e38ed64bf6a1f0100000000000000008310610f35577a184f03e93ff9f4daa797ed6e38ed64bf6a1f0100000000000000008381610f2b57610f2a611d68565b5b0492506040810190505b6d04ee2d6d415b85acef81000000008310610f72576d04ee2d6d415b85acef81000000008381610f6857610f67611d68565b5b0492506020810190505b662386f26fc100008310610fa157662386f26fc100008381610f9757610f96611d68565b5b0492506010810190505b6305f5e1008310610fca576305f5e1008381610fc057610fbf611d68565b5b0492506008810190505b6127108310610fef576127108381610fe557610fe4611d68565b5b0492506004810190505b60648310611012576064838161100857611007611d68565b5b0492506002810190505b600a8310611021576001810190505b80915050919050565b6040518060a001604052805f81526020015f73ffffffffffffffffffffffffffffffffffffffff168152602001606081526020015f81526020015f81525090565b5f604051905090565b5f80fd5b5f80fd5b5f73ffffffffffffffffffffffffffffffffffffffff82169050919050565b5f6110a58261107c565b9050919050565b6110b58161109b565b81146110bf575f80fd5b50565b5f813590506110d0816110ac565b92915050565b5f819050919050565b6110e8816110d6565b81146110f2575f80fd5b50565b5f81359050611103816110df565b92915050565b5f806040838503121561111f5761111e611074565b5b5f61112c858286016110c2565b925050602061113d858286016110f5565b9150509250929050565b611150816110d6565b82525050565b61115f8161109b565b82525050565b5f81519050919050565b5f82825260208201905092915050565b8281835e5f83830152505050565b5f601f19601f8301169050919050565b5f6111a782611165565b6111b1818561116f565b93506111c181856020860161117f565b6111ca8161118d565b840191505092915050565b5f60a0820190506111e85f830188611147565b6111f56020830187611156565b8181036040830152611207818661119d565b90506112166060830185611147565b6112236080830184611147565b9695505050505050565b611236816110d6565b82525050565b6112458161109b565b82525050565b5f82825260208201905092915050565b5f61126582611165565b61126f818561124b565b935061127f81856020860161117f565b6112888161118d565b840191505092915050565b5f60a083015f8301516112a85f86018261122d565b5060208301516112bb602086018261123c565b50604083015184820360408601526112d3828261125b565b91505060608301516112e8606086018261122d565b5060808301516112fb608086018261122d565b508091505092915050565b5f6020820190508181035f83015261131e8184611293565b905092915050565b5f61ffff82169050919050565b61133c81611326565b8114611346575f80fd5b50565b5f8135905061135781611333565b92915050565b5f6020828403121561137257611371611074565b5b5f61137f84828501611349565b91505092915050565b5f80fd5b5f80fd5b7f4e487b71000000000000000000000000000000000000000000000000000000005f52604160045260245ffd5b6113c68261118d565b810181811067ffffffffffffffff821117156113e5576113e4611390565b5b80604052505050565b5f6113f761106b565b905061140382826113bd565b919050565b5f67ffffffffffffffff82111561142257611421611390565b5b61142b8261118d565b9050602081019050919050565b828183375f83830152505050565b5f61145861145384611408565b6113ee565b9050828152602081018484840111156114745761147361138c565b5b61147f848285611438565b509392505050565b5f82601f83011261149b5761149a611388565b5b81356114ab848260208601611446565b91505092915050565b5f602082840312156114c9576114c8611074565b5b5f82013567ffffffffffffffff8111156114e6576114e5611078565b5b6114f284828501611487565b91505092915050565b5f602082840312156115105761150f611074565b5b5f61151d848285016110c2565b91505092915050565b5f81519050919050565b5f82825260208201905092915050565b5f819050602082019050919050565b5f60a083015f8301516115645f86018261122d565b506020830151611577602086018261123c565b506040830151848203604086015261158f828261125b565b91505060608301516115a4606086018261122d565b5060808301516115b7608086018261122d565b508091505092915050565b5f6115cd838361154f565b905092915050565b5f602082019050919050565b5f6115eb82611526565b6115f58185611530565b93508360208202850161160785611540565b805f5b85811015611642578484038952815161162385826115c2565b945061162e836115d5565b925060208a0199505060018101905061160a565b50829750879550505050505092915050565b5f6020820190508181035f83015261166c81846115e1565b905092915050565b5f6020820190506116875f830184611147565b92915050565b5f6020820190506116a05f830184611156565b92915050565b6116af81611326565b82525050565b5f6020820190506116c85f8301846116a6565b92915050565b7f4e487b71000000000000000000000000000000000000000000000000000000005f52602260045260245ffd5b5f600282049050600182168061171257607f821691505b602082108103611725576117246116ce565b5b50919050565b7f4e487b71000000000000000000000000000000000000000000000000000000005f52603260045260245ffd5b7f547765657420646f6573206e6f742065786973742100000000000000000000005f82015250565b5f61178c60158361116f565b915061179782611758565b602082019050919050565b5f6020820190508181035f8301526117b981611780565b9050919050565b7f547765657420686173206e6f206c696b657321000000000000000000000000005f82015250565b5f6117f460138361116f565b91506117ff826117c0565b602082019050919050565b5f6020820190508181035f830152611821816117e8565b9050919050565b7f4e487b71000000000000000000000000000000000000000000000000000000005f52601160045260245ffd5b5f61185f826110d6565b91505f820361187157611870611828565b5b600182039050919050565b5f60808201905061188f5f830187611156565b61189c6020830186611156565b6118a96040830185611147565b6118b66060830184611147565b95945050505050565b7f596f75277265206e6f7420616c6c6f77656420746f20657865637574652074685f8201527f6973206f7065726174696f6e0000000000000000000000000000000000000000602082015250565b5f611919602c8361116f565b9150611924826118bf565b604082019050919050565b5f6020820190508181035f8301526119468161190d565b9050919050565b5f611957826110d6565b91507fffffffffffffffffffffffffffffffffffffffffffffffffffffffffffffffff820361198957611988611828565b5b600182019050919050565b5f81905092915050565b7f596f757220747765657420657863656564656420746865206c696d6974206f665f8201527f20636861726163746572733a2000000000000000000000000000000000000000602082015250565b5f6119f8602d83611994565b9150611a038261199e565b602d82019050919050565b5f611a1882611165565b611a228185611994565b9350611a3281856020860161117f565b80840191505092915050565b5f611a48826119ec565b9150611a548284611a0e565b915081905092915050565b5f6020820190508181035f830152611a77818461119d565b905092915050565b5f819050815f5260205f209050919050565b5f6020601f8301049050919050565b5f82821b905092915050565b5f60088302611adb7fffffffffffffffffffffffffffffffffffffffffffffffffffffffffffffffff82611aa0565b611ae58683611aa0565b95508019841693508086168417925050509392505050565b5f819050919050565b5f611b20611b1b611b16846110d6565b611afd565b6110d6565b9050919050565b5f819050919050565b611b3983611b06565b611b4d611b4582611b27565b848454611aac565b825550505050565b5f90565b611b61611b55565b611b6c818484611b30565b505050565b5b81811015611b8f57611b845f82611b59565b600181019050611b72565b5050565b601f821115611bd457611ba581611a7f565b611bae84611a91565b81016020851015611bbd578190505b611bd1611bc985611a91565b830182611b71565b50505b505050565b5f82821c905092915050565b5f611bf45f1984600802611bd9565b1980831691505092915050565b5f611c0c8383611be5565b9150826002028217905092915050565b611c2582611165565b67ffffffffffffffff811115611c3e57611c3d611390565b5b611c4882546116fb565b611c53828285611b93565b5f60209050601f831160018114611c84575f8415611c72578287015190505b611c7c8582611c01565b865550611ce3565b601f198416611c9286611a7f565b5f5b82811015611cb957848901518255600182019150602085019450602081019050611c94565b86831015611cd65784890151611cd2601f891682611be5565b8355505b6001600288020188555050505b505050505050565b5f608082019050611cfe5f830187611147565b611d0b6020830186611156565b8181036040830152611d1d818561119d565b9050611d2c6060830184611147565b95945050505050565b5f611d3f826110d6565b9150611d4a836110d6565b9250828201905080821115611d6257611d61611828565b5b92915050565b7f4e487b71000000000000000000000000000000000000000000000000000000005f52601260045260245ffdfea2646970667358221220864d577270ba3677dc0572cb495b4c3086ed33d04f895cadf148138be62b0cc264736f6c634300081a0033",
					"opcodes": "PUSH1 0x80 PUSH1 0x40 MSTORE PUSH2 0x118 PUSH0 DUP1 PUSH2 0x100 EXP DUP2 SLOAD DUP2 PUSH2 0xFFFF MUL NOT AND SWAP1 DUP4 PUSH2 0xFFFF AND MUL OR SWAP1 SSTORE POP CALLVALUE DUP1 ISZERO PUSH1 0x2B JUMPI PUSH0 DUP1 REVERT JUMPDEST POP CALLER PUSH1 0x2 PUSH0 PUSH2 0x100 EXP DUP2 SLOAD DUP2 PUSH20 0xFFFFFFFFFFFFFFFFFFFFFFFFFFFFFFFFFFFFFFFF MUL NOT AND SWAP1 DUP4 PUSH20 0xFFFFFFFFFFFFFFFFFFFFFFFFFFFFFFFFFFFFFFFF AND MUL OR SWAP1 SSTORE POP PUSH2 0x1DCB DUP1 PUSH2 0x79 PUSH0 CODECOPY PUSH0 RETURN INVALID PUSH1 0x80 PUSH1 0x40 MSTORE CALLVALUE DUP1 ISZERO PUSH2 0xF JUMPI PUSH0 DUP1 REVERT JUMPDEST POP PUSH1 0x4 CALLDATASIZE LT PUSH2 0x9C JUMPI PUSH0 CALLDATALOAD PUSH1 0xE0 SHR DUP1 PUSH4 0x7C9CD2BC GT PUSH2 0x64 JUMPI DUP1 PUSH4 0x7C9CD2BC EQ PUSH2 0x158 JUMPI DUP1 PUSH4 0x808B0CF1 EQ PUSH2 0x174 JUMPI DUP1 PUSH4 0x820785CC EQ PUSH2 0x1A4 JUMPI DUP1 PUSH4 0x8DA5CB5B EQ PUSH2 0x1D4 JUMPI DUP1 PUSH4 0xFD10B7DF EQ PUSH2 0x1F2 JUMPI PUSH2 0x9C JUMP JUMPDEST DUP1 PUSH4 0x5A1B4A9 EQ PUSH2 0xA0 JUMPI DUP1 PUSH4 0x112F54E3 EQ PUSH2 0xD4 JUMPI DUP1 PUSH4 0x3D9B569F EQ PUSH2 0x104 JUMPI DUP1 PUSH4 0x58BFA4AB EQ PUSH2 0x120 JUMPI DUP1 PUSH4 0x63378216 EQ PUSH2 0x13C JUMPI JUMPDEST PUSH0 DUP1 REVERT JUMPDEST PUSH2 0xBA PUSH1 0x4 DUP1 CALLDATASIZE SUB DUP2 ADD SWAP1 PUSH2 0xB5 SWAP2 SWAP1 PUSH2 0x1109 JUMP JUMPDEST PUSH2 0x210 JUMP JUMPDEST PUSH1 0x40 MLOAD PUSH2 0xCB SWAP6 SWAP5 SWAP4 SWAP3 SWAP2 SWAP1 PUSH2 0x11D5 JUMP JUMPDEST PUSH1 0x40 MLOAD DUP1 SWAP2 SUB SWAP1 RETURN JUMPDEST PUSH2 0xEE PUSH1 0x4 DUP1 CALLDATASIZE SUB DUP2 ADD SWAP1 PUSH2 0xE9 SWAP2 SWAP1 PUSH2 0x1109 JUMP JUMPDEST PUSH2 0x301 JUMP JUMPDEST PUSH1 0x40 MLOAD PUSH2 0xFB SWAP2 SWAP1 PUSH2 0x1306 JUMP JUMPDEST PUSH1 0x40 MLOAD DUP1 SWAP2 SUB SWAP1 RETURN JUMPDEST PUSH2 0x11E PUSH1 0x4 DUP1 CALLDATASIZE SUB DUP2 ADD SWAP1 PUSH2 0x119 SWAP2 SWAP1 PUSH2 0x1109 JUMP JUMPDEST PUSH2 0x479 JUMP JUMPDEST STOP JUMPDEST PUSH2 0x13A PUSH1 0x4 DUP1 CALLDATASIZE SUB DUP2 ADD SWAP1 PUSH2 0x135 SWAP2 SWAP1 PUSH2 0x135D JUMP JUMPDEST PUSH2 0x6CE JUMP JUMPDEST STOP JUMPDEST PUSH2 0x156 PUSH1 0x4 DUP1 CALLDATASIZE SUB DUP2 ADD SWAP1 PUSH2 0x151 SWAP2 SWAP1 PUSH2 0x1109 JUMP JUMPDEST PUSH2 0x77B JUMP JUMPDEST STOP JUMPDEST PUSH2 0x172 PUSH1 0x4 DUP1 CALLDATASIZE SUB DUP2 ADD SWAP1 PUSH2 0x16D SWAP2 SWAP1 PUSH2 0x14B4 JUMP JUMPDEST PUSH2 0x930 JUMP JUMPDEST STOP JUMPDEST PUSH2 0x18E PUSH1 0x4 DUP1 CALLDATASIZE SUB DUP2 ADD SWAP1 PUSH2 0x189 SWAP2 SWAP1 PUSH2 0x14FB JUMP JUMPDEST PUSH2 0xB6F JUMP JUMPDEST PUSH1 0x40 MLOAD PUSH2 0x19B SWAP2 SWAP1 PUSH2 0x1654 JUMP JUMPDEST PUSH1 0x40 MLOAD DUP1 SWAP2 SUB SWAP1 RETURN JUMPDEST PUSH2 0x1BE PUSH1 0x4 DUP1 CALLDATASIZE SUB DUP2 ADD SWAP1 PUSH2 0x1B9 SWAP2 SWAP1 PUSH2 0x14FB JUMP JUMPDEST PUSH2 0xD0A JUMP JUMPDEST PUSH1 0x40 MLOAD PUSH2 0x1CB SWAP2 SWAP1 PUSH2 0x1674 JUMP JUMPDEST PUSH1 0x40 MLOAD DUP1 SWAP2 SUB SWAP1 RETURN JUMPDEST PUSH2 0x1DC PUSH2 0xDD9 JUMP JUMPDEST PUSH1 0x40 MLOAD PUSH2 0x1E9 SWAP2 SWAP1 PUSH2 0x168D JUMP JUMPDEST PUSH1 0x40 MLOAD DUP1 SWAP2 SUB SWAP1 RETURN JUMPDEST PUSH2 0x1FA PUSH2 0xDFE JUMP JUMPDEST PUSH1 0x40 MLOAD PUSH2 0x207 SWAP2 SWAP1 PUSH2 0x16B5 JUMP JUMPDEST PUSH1 0x40 MLOAD DUP1 SWAP2 SUB SWAP1 RETURN JUMPDEST PUSH1 0x1 PUSH1 0x20 MSTORE DUP2 PUSH0 MSTORE PUSH1 0x40 PUSH0 KECCAK256 DUP2 DUP2 SLOAD DUP2 LT PUSH2 0x229 JUMPI PUSH0 DUP1 REVERT JUMPDEST SWAP1 PUSH0 MSTORE PUSH1 0x20 PUSH0 KECCAK256 SWAP1 PUSH1 0x5 MUL ADD PUSH0 SWAP2 POP SWAP2 POP POP DUP1 PUSH0 ADD SLOAD SWAP1 DUP1 PUSH1 0x1 ADD PUSH0 SWAP1 SLOAD SWAP1 PUSH2 0x100 EXP SWAP1 DIV PUSH20 0xFFFFFFFFFFFFFFFFFFFFFFFFFFFFFFFFFFFFFFFF AND SWAP1 DUP1 PUSH1 0x2 ADD DUP1 SLOAD PUSH2 0x274 SWAP1 PUSH2 0x16FB JUMP JUMPDEST DUP1 PUSH1 0x1F ADD PUSH1 0x20 DUP1 SWAP2 DIV MUL PUSH1 0x20 ADD PUSH1 0x40 MLOAD SWAP1 DUP2 ADD PUSH1 0x40 MSTORE DUP1 SWAP3 SWAP2 SWAP1 DUP2 DUP2 MSTORE PUSH1 0x20 ADD DUP3 DUP1 SLOAD PUSH2 0x2A0 SWAP1 PUSH2 0x16FB JUMP JUMPDEST DUP1 ISZERO PUSH2 0x2EB JUMPI DUP1 PUSH1 0x1F LT PUSH2 0x2C2 JUMPI PUSH2 0x100 DUP1 DUP4 SLOAD DIV MUL DUP4 MSTORE SWAP2 PUSH1 0x20 ADD SWAP2 PUSH2 0x2EB JUMP JUMPDEST DUP3 ADD SWAP2 SWAP1 PUSH0 MSTORE PUSH1 0x20 PUSH0 KECCAK256 SWAP1 JUMPDEST DUP2 SLOAD DUP2 MSTORE SWAP1 PUSH1 0x1 ADD SWAP1 PUSH1 0x20 ADD DUP1 DUP4 GT PUSH2 0x2CE JUMPI DUP3 SWAP1 SUB PUSH1 0x1F AND DUP3 ADD SWAP2 JUMPDEST POP POP POP POP POP SWAP1 DUP1 PUSH1 0x3 ADD SLOAD SWAP1 DUP1 PUSH1 0x4 ADD SLOAD SWAP1 POP DUP6 JUMP JUMPDEST PUSH2 0x309 PUSH2 0x102A JUMP JUMPDEST PUSH1 0x1 PUSH0 DUP5 PUSH20 0xFFFFFFFFFFFFFFFFFFFFFFFFFFFFFFFFFFFFFFFF AND PUSH20 0xFFFFFFFFFFFFFFFFFFFFFFFFFFFFFFFFFFFFFFFF AND DUP2 MSTORE PUSH1 0x20 ADD SWAP1 DUP2 MSTORE PUSH1 0x20 ADD PUSH0 KECCAK256 DUP3 DUP2 SLOAD DUP2 LT PUSH2 0x358 JUMPI PUSH2 0x357 PUSH2 0x172B JUMP JUMPDEST JUMPDEST SWAP1 PUSH0 MSTORE PUSH1 0x20 PUSH0 KECCAK256 SWAP1 PUSH1 0x5 MUL ADD PUSH1 0x40 MLOAD DUP1 PUSH1 0xA0 ADD PUSH1 0x40 MSTORE SWAP1 DUP2 PUSH0 DUP3 ADD SLOAD DUP2 MSTORE PUSH1 0x20 ADD PUSH1 0x1 DUP3 ADD PUSH0 SWAP1 SLOAD SWAP1 PUSH2 0x100 EXP SWAP1 DIV PUSH20 0xFFFFFFFFFFFFFFFFFFFFFFFFFFFFFFFFFFFFFFFF AND PUSH20 0xFFFFFFFFFFFFFFFFFFFFFFFFFFFFFFFFFFFFFFFF AND PUSH20 0xFFFFFFFFFFFFFFFFFFFFFFFFFFFFFFFFFFFFFFFF AND DUP2 MSTORE PUSH1 0x20 ADD PUSH1 0x2 DUP3 ADD DUP1 SLOAD PUSH2 0x3DD SWAP1 PUSH2 0x16FB JUMP JUMPDEST DUP1 PUSH1 0x1F ADD PUSH1 0x20 DUP1 SWAP2 DIV MUL PUSH1 0x20 ADD PUSH1 0x40 MLOAD SWAP1 DUP2 ADD PUSH1 0x40 MSTORE DUP1 SWAP3 SWAP2 SWAP1 DUP2 DUP2 MSTORE PUSH1 0x20 ADD DUP3 DUP1 SLOAD PUSH2 0x409 SWAP1 PUSH2 0x16FB JUMP JUMPDEST DUP1 ISZERO PUSH2 0x454 JUMPI DUP1 PUSH1 0x1F LT PUSH2 0x42B JUMPI PUSH2 0x100 DUP1 DUP4 SLOAD DIV MUL DUP4 MSTORE SWAP2 PUSH1 0x20 ADD SWAP2 PUSH2 0x454 JUMP JUMPDEST DUP3 ADD SWAP2 SWAP1 PUSH0 MSTORE PUSH1 0x20 PUSH0 KECCAK256 SWAP1 JUMPDEST DUP2 SLOAD DUP2 MSTORE SWAP1 PUSH1 0x1 ADD SWAP1 PUSH1 0x20 ADD DUP1 DUP4 GT PUSH2 0x437 JUMPI DUP3 SWAP1 SUB PUSH1 0x1F AND DUP3 ADD SWAP2 JUMPDEST POP POP POP POP POP DUP2 MSTORE PUSH1 0x20 ADD PUSH1 0x3 DUP3 ADD SLOAD DUP2 MSTORE PUSH1 0x20 ADD PUSH1 0x4 DUP3 ADD SLOAD DUP2 MSTORE POP POP SWAP1 POP SWAP3 SWAP2 POP POP JUMP JUMPDEST DUP2 DUP2 DUP1 PUSH1 0x1 PUSH0 DUP5 PUSH20 0xFFFFFFFFFFFFFFFFFFFFFFFFFFFFFFFFFFFFFFFF AND PUSH20 0xFFFFFFFFFFFFFFFFFFFFFFFFFFFFFFFFFFFFFFFF AND DUP2 MSTORE PUSH1 0x20 ADD SWAP1 DUP2 MSTORE PUSH1 0x20 ADD PUSH0 KECCAK256 DUP3 DUP2 SLOAD DUP2 LT PUSH2 0x4CB JUMPI PUSH2 0x4CA PUSH2 0x172B JUMP JUMPDEST JUMPDEST SWAP1 PUSH0 MSTORE PUSH1 0x20 PUSH0 KECCAK256 SWAP1 PUSH1 0x5 MUL ADD PUSH0 ADD SLOAD EQ PUSH2 0x51A JUMPI PUSH1 0x40 MLOAD PUSH32 0x8C379A000000000000000000000000000000000000000000000000000000000 DUP2 MSTORE PUSH1 0x4 ADD PUSH2 0x511 SWAP1 PUSH2 0x17A2 JUMP JUMPDEST PUSH1 0x40 MLOAD DUP1 SWAP2 SUB SWAP1 REVERT JUMPDEST PUSH0 PUSH1 0x1 PUSH0 DUP7 PUSH20 0xFFFFFFFFFFFFFFFFFFFFFFFFFFFFFFFFFFFFFFFF AND PUSH20 0xFFFFFFFFFFFFFFFFFFFFFFFFFFFFFFFFFFFFFFFF AND DUP2 MSTORE PUSH1 0x20 ADD SWAP1 DUP2 MSTORE PUSH1 0x20 ADD PUSH0 KECCAK256 DUP5 DUP2 SLOAD DUP2 LT PUSH2 0x56A JUMPI PUSH2 0x569 PUSH2 0x172B JUMP JUMPDEST JUMPDEST SWAP1 PUSH0 MSTORE PUSH1 0x20 PUSH0 KECCAK256 SWAP1 PUSH1 0x5 MUL ADD PUSH1 0x4 ADD SLOAD GT PUSH2 0x5BA JUMPI PUSH1 0x40 MLOAD PUSH32 0x8C379A000000000000000000000000000000000000000000000000000000000 DUP2 MSTORE PUSH1 0x4 ADD PUSH2 0x5B1 SWAP1 PUSH2 0x180A JUMP JUMPDEST PUSH1 0x40 MLOAD DUP1 SWAP2 SUB SWAP1 REVERT JUMPDEST PUSH1 0x1 PUSH0 DUP6 PUSH20 0xFFFFFFFFFFFFFFFFFFFFFFFFFFFFFFFFFFFFFFFF AND PUSH20 0xFFFFFFFFFFFFFFFFFFFFFFFFFFFFFFFFFFFFFFFF AND DUP2 MSTORE PUSH1 0x20 ADD SWAP1 DUP2 MSTORE PUSH1 0x20 ADD PUSH0 KECCAK256 DUP4 DUP2 SLOAD DUP2 LT PUSH2 0x609 JUMPI PUSH2 0x608 PUSH2 0x172B JUMP JUMPDEST JUMPDEST SWAP1 PUSH0 MSTORE PUSH1 0x20 PUSH0 KECCAK256 SWAP1 PUSH1 0x5 MUL ADD PUSH1 0x4 ADD PUSH0 DUP2 SLOAD DUP1 SWAP3 SWAP2 SWAP1 PUSH2 0x628 SWAP1 PUSH2 0x1855 JUMP JUMPDEST SWAP2 SWAP1 POP SSTORE POP PUSH32 0x762C2616349603AC16EBA0DE8E6141B79129A07AB63BD99E0A80B3A471716943 CALLER DUP6 DUP6 PUSH1 0x1 PUSH0 DUP10 PUSH20 0xFFFFFFFFFFFFFFFFFFFFFFFFFFFFFFFFFFFFFFFF AND PUSH20 0xFFFFFFFFFFFFFFFFFFFFFFFFFFFFFFFFFFFFFFFF AND DUP2 MSTORE PUSH1 0x20 ADD SWAP1 DUP2 MSTORE PUSH1 0x20 ADD PUSH0 KECCAK256 DUP8 DUP2 SLOAD DUP2 LT PUSH2 0x6A0 JUMPI PUSH2 0x69F PUSH2 0x172B JUMP JUMPDEST JUMPDEST SWAP1 PUSH0 MSTORE PUSH1 0x20 PUSH0 KECCAK256 SWAP1 PUSH1 0x5 MUL ADD PUSH1 0x4 ADD SLOAD PUSH1 0x40 MLOAD PUSH2 0x6C0 SWAP5 SWAP4 SWAP3 SWAP2 SWAP1 PUSH2 0x187C JUMP JUMPDEST PUSH1 0x40 MLOAD DUP1 SWAP2 SUB SWAP1 LOG1 POP POP POP POP JUMP JUMPDEST PUSH1 0x2 PUSH0 SWAP1 SLOAD SWAP1 PUSH2 0x100 EXP SWAP1 DIV PUSH20 0xFFFFFFFFFFFFFFFFFFFFFFFFFFFFFFFFFFFFFFFF AND PUSH20 0xFFFFFFFFFFFFFFFFFFFFFFFFFFFFFFFFFFFFFFFF AND CALLER PUSH20 0xFFFFFFFFFFFFFFFFFFFFFFFFFFFFFFFFFFFFFFFF AND EQ PUSH2 0x75D JUMPI PUSH1 0x40 MLOAD PUSH32 0x8C379A000000000000000000000000000000000000000000000000000000000 DUP2 MSTORE PUSH1 0x4 ADD PUSH2 0x754 SWAP1 PUSH2 0x192F JUMP JUMPDEST PUSH1 0x40 MLOAD DUP1 SWAP2 SUB SWAP1 REVERT JUMPDEST DUP1 PUSH0 DUP1 PUSH2 0x100 EXP DUP2 SLOAD DUP2 PUSH2 0xFFFF MUL NOT AND SWAP1 DUP4 PUSH2 0xFFFF AND MUL OR SWAP1 SSTORE POP POP JUMP JUMPDEST DUP2 DUP2 DUP1 PUSH1 0x1 PUSH0 DUP5 PUSH20 0xFFFFFFFFFFFFFFFFFFFFFFFFFFFFFFFFFFFFFFFF AND PUSH20 0xFFFFFFFFFFFFFFFFFFFFFFFFFFFFFFFFFFFFFFFF AND DUP2 MSTORE PUSH1 0x20 ADD SWAP1 DUP2 MSTORE PUSH1 0x20 ADD PUSH0 KECCAK256 DUP3 DUP2 SLOAD DUP2 LT PUSH2 0x7CD JUMPI PUSH2 0x7CC PUSH2 0x172B JUMP JUMPDEST JUMPDEST SWAP1 PUSH0 MSTORE PUSH1 0x20 PUSH0 KECCAK256 SWAP1 PUSH1 0x5 MUL ADD PUSH0 ADD SLOAD EQ PUSH2 0x81C JUMPI PUSH1 0x40 MLOAD PUSH32 0x8C379A000000000000000000000000000000000000000000000000000000000 DUP2 MSTORE PUSH1 0x4 ADD PUSH2 0x813 SWAP1 PUSH2 0x17A2 JUMP JUMPDEST PUSH1 0x40 MLOAD DUP1 SWAP2 SUB SWAP1 REVERT JUMPDEST PUSH1 0x1 PUSH0 DUP6 PUSH20 0xFFFFFFFFFFFFFFFFFFFFFFFFFFFFFFFFFFFFFFFF AND PUSH20 0xFFFFFFFFFFFFFFFFFFFFFFFFFFFFFFFFFFFFFFFF AND DUP2 MSTORE PUSH1 0x20 ADD SWAP1 DUP2 MSTORE PUSH1 0x20 ADD PUSH0 KECCAK256 DUP4 DUP2 SLOAD DUP2 LT PUSH2 0x86B JUMPI PUSH2 0x86A PUSH2 0x172B JUMP JUMPDEST JUMPDEST SWAP1 PUSH0 MSTORE PUSH1 0x20 PUSH0 KECCAK256 SWAP1 PUSH1 0x5 MUL ADD PUSH1 0x4 ADD PUSH0 DUP2 SLOAD DUP1 SWAP3 SWAP2 SWAP1 PUSH2 0x88A SWAP1 PUSH2 0x194D JUMP JUMPDEST SWAP2 SWAP1 POP SSTORE POP PUSH32 0xE8A76FC0F16D11A00D1E93B689B63D76CF60AF914DD3D915375DC41D01A0C3C8 CALLER DUP6 DUP6 PUSH1 0x1 PUSH0 DUP10 PUSH20 0xFFFFFFFFFFFFFFFFFFFFFFFFFFFFFFFFFFFFFFFF AND PUSH20 0xFFFFFFFFFFFFFFFFFFFFFFFFFFFFFFFFFFFFFFFF AND DUP2 MSTORE PUSH1 0x20 ADD SWAP1 DUP2 MSTORE PUSH1 0x20 ADD PUSH0 KECCAK256 DUP8 DUP2 SLOAD DUP2 LT PUSH2 0x902 JUMPI PUSH2 0x901 PUSH2 0x172B JUMP JUMPDEST JUMPDEST SWAP1 PUSH0 MSTORE PUSH1 0x20 PUSH0 KECCAK256 SWAP1 PUSH1 0x5 MUL ADD PUSH1 0x4 ADD SLOAD PUSH1 0x40 MLOAD PUSH2 0x922 SWAP5 SWAP4 SWAP3 SWAP2 SWAP1 PUSH2 0x187C JUMP JUMPDEST PUSH1 0x40 MLOAD DUP1 SWAP2 SUB SWAP1 LOG1 POP POP POP POP JUMP JUMPDEST PUSH0 DUP1 SLOAD SWAP1 PUSH2 0x100 EXP SWAP1 DIV PUSH2 0xFFFF AND PUSH2 0xFFFF AND DUP2 MLOAD GT ISZERO PUSH2 0x960 PUSH0 DUP1 SLOAD SWAP1 PUSH2 0x100 EXP SWAP1 DIV PUSH2 0xFFFF AND PUSH2 0xFFFF AND PUSH2 0xE0F JUMP JUMPDEST PUSH1 0x40 MLOAD PUSH1 0x20 ADD PUSH2 0x970 SWAP2 SWAP1 PUSH2 0x1A3E JUMP JUMPDEST PUSH1 0x40 MLOAD PUSH1 0x20 DUP2 DUP4 SUB SUB DUP2 MSTORE SWAP1 PUSH1 0x40 MSTORE SWAP1 PUSH2 0x9C0 JUMPI PUSH1 0x40 MLOAD PUSH32 0x8C379A000000000000000000000000000000000000000000000000000000000 DUP2 MSTORE PUSH1 0x4 ADD PUSH2 0x9B7 SWAP2 SWAP1 PUSH2 0x1A5F JUMP JUMPDEST PUSH1 0x40 MLOAD DUP1 SWAP2 SUB SWAP1 REVERT JUMPDEST POP PUSH0 PUSH1 0x40 MLOAD DUP1 PUSH1 0xA0 ADD PUSH1 0x40 MSTORE DUP1 PUSH1 0x1 PUSH0 CALLER PUSH20 0xFFFFFFFFFFFFFFFFFFFFFFFFFFFFFFFFFFFFFFFF AND PUSH20 0xFFFFFFFFFFFFFFFFFFFFFFFFFFFFFFFFFFFFFFFF AND DUP2 MSTORE PUSH1 0x20 ADD SWAP1 DUP2 MSTORE PUSH1 0x20 ADD PUSH0 KECCAK256 DUP1 SLOAD SWAP1 POP DUP2 MSTORE PUSH1 0x20 ADD CALLER PUSH20 0xFFFFFFFFFFFFFFFFFFFFFFFFFFFFFFFFFFFFFFFF AND DUP2 MSTORE PUSH1 0x20 ADD DUP4 DUP2 MSTORE PUSH1 0x20 ADD TIMESTAMP DUP2 MSTORE PUSH1 0x20 ADD PUSH0 DUP2 MSTORE POP SWAP1 POP PUSH1 0x1 PUSH0 CALLER PUSH20 0xFFFFFFFFFFFFFFFFFFFFFFFFFFFFFFFFFFFFFFFF AND PUSH20 0xFFFFFFFFFFFFFFFFFFFFFFFFFFFFFFFFFFFFFFFF AND DUP2 MSTORE PUSH1 0x20 ADD SWAP1 DUP2 MSTORE PUSH1 0x20 ADD PUSH0 KECCAK256 DUP2 SWAP1 DUP1 PUSH1 0x1 DUP2 SLOAD ADD DUP1 DUP3 SSTORE DUP1 SWAP2 POP POP PUSH1 0x1 SWAP1 SUB SWAP1 PUSH0 MSTORE PUSH1 0x20 PUSH0 KECCAK256 SWAP1 PUSH1 0x5 MUL ADD PUSH0 SWAP1 SWAP2 SWAP1 SWAP2 SWAP1 SWAP2 POP PUSH0 DUP3 ADD MLOAD DUP2 PUSH0 ADD SSTORE PUSH1 0x20 DUP3 ADD MLOAD DUP2 PUSH1 0x1 ADD PUSH0 PUSH2 0x100 EXP DUP2 SLOAD DUP2 PUSH20 0xFFFFFFFFFFFFFFFFFFFFFFFFFFFFFFFFFFFFFFFF MUL NOT AND SWAP1 DUP4 PUSH20 0xFFFFFFFFFFFFFFFFFFFFFFFFFFFFFFFFFFFFFFFF AND MUL OR SWAP1 SSTORE POP PUSH1 0x40 DUP3 ADD MLOAD DUP2 PUSH1 0x2 ADD SWAP1 DUP2 PUSH2 0xB08 SWAP2 SWAP1 PUSH2 0x1C1C JUMP JUMPDEST POP PUSH1 0x60 DUP3 ADD MLOAD DUP2 PUSH1 0x3 ADD SSTORE PUSH1 0x80 DUP3 ADD MLOAD DUP2 PUSH1 0x4 ADD SSTORE POP POP PUSH32 0x16FD3C13E9D46923E0A8BCE11C7B473EC508A72E6C96CD2404B29CE972AFC29E DUP2 PUSH0 ADD MLOAD DUP3 PUSH1 0x20 ADD MLOAD DUP4 PUSH1 0x40 ADD MLOAD DUP5 PUSH1 0x60 ADD MLOAD PUSH1 0x40 MLOAD PUSH2 0xB63 SWAP5 SWAP4 SWAP3 SWAP2 SWAP1 PUSH2 0x1CEB JUMP JUMPDEST PUSH1 0x40 MLOAD DUP1 SWAP2 SUB SWAP1 LOG1 POP POP JUMP JUMPDEST PUSH1 0x60 PUSH1 0x1 PUSH0 DUP4 PUSH20 0xFFFFFFFFFFFFFFFFFFFFFFFFFFFFFFFFFFFFFFFF AND PUSH20 0xFFFFFFFFFFFFFFFFFFFFFFFFFFFFFFFFFFFFFFFF AND DUP2 MSTORE PUSH1 0x20 ADD SWAP1 DUP2 MSTORE PUSH1 0x20 ADD PUSH0 KECCAK256 DUP1 SLOAD DUP1 PUSH1 0x20 MUL PUSH1 0x20 ADD PUSH1 0x40 MLOAD SWAP1 DUP2 ADD PUSH1 0x40 MSTORE DUP1 SWAP3 SWAP2 SWAP1 DUP2 DUP2 MSTORE PUSH1 0x20 ADD PUSH0 SWAP1 JUMPDEST DUP3 DUP3 LT ISZERO PUSH2 0xCFF JUMPI DUP4 DUP3 SWAP1 PUSH0 MSTORE PUSH1 0x20 PUSH0 KECCAK256 SWAP1 PUSH1 0x5 MUL ADD PUSH1 0x40 MLOAD DUP1 PUSH1 0xA0 ADD PUSH1 0x40 MSTORE SWAP1 DUP2 PUSH0 DUP3 ADD SLOAD DUP2 MSTORE PUSH1 0x20 ADD PUSH1 0x1 DUP3 ADD PUSH0 SWAP1 SLOAD SWAP1 PUSH2 0x100 EXP SWAP1 DIV PUSH20 0xFFFFFFFFFFFFFFFFFFFFFFFFFFFFFFFFFFFFFFFF AND PUSH20 0xFFFFFFFFFFFFFFFFFFFFFFFFFFFFFFFFFFFFFFFF AND PUSH20 0xFFFFFFFFFFFFFFFFFFFFFFFFFFFFFFFFFFFFFFFF AND DUP2 MSTORE PUSH1 0x20 ADD PUSH1 0x2 DUP3 ADD DUP1 SLOAD PUSH2 0xC5C SWAP1 PUSH2 0x16FB JUMP JUMPDEST DUP1 PUSH1 0x1F ADD PUSH1 0x20 DUP1 SWAP2 DIV MUL PUSH1 0x20 ADD PUSH1 0x40 MLOAD SWAP1 DUP2 ADD PUSH1 0x40 MSTORE DUP1 SWAP3 SWAP2 SWAP1 DUP2 DUP2 MSTORE PUSH1 0x20 ADD DUP3 DUP1 SLOAD PUSH2 0xC88 SWAP1 PUSH2 0x16FB JUMP JUMPDEST DUP1 ISZERO PUSH2 0xCD3 JUMPI DUP1 PUSH1 0x1F LT PUSH2 0xCAA JUMPI PUSH2 0x100 DUP1 DUP4 SLOAD DIV MUL DUP4 MSTORE SWAP2 PUSH1 0x20 ADD SWAP2 PUSH2 0xCD3 JUMP JUMPDEST DUP3 ADD SWAP2 SWAP1 PUSH0 MSTORE PUSH1 0x20 PUSH0 KECCAK256 SWAP1 JUMPDEST DUP2 SLOAD DUP2 MSTORE SWAP1 PUSH1 0x1 ADD SWAP1 PUSH1 0x20 ADD DUP1 DUP4 GT PUSH2 0xCB6 JUMPI DUP3 SWAP1 SUB PUSH1 0x1F AND DUP3 ADD SWAP2 JUMPDEST POP POP POP POP POP DUP2 MSTORE PUSH1 0x20 ADD PUSH1 0x3 DUP3 ADD SLOAD DUP2 MSTORE PUSH1 0x20 ADD PUSH1 0x4 DUP3 ADD SLOAD DUP2 MSTORE POP POP DUP2 MSTORE PUSH1 0x20 ADD SWAP1 PUSH1 0x1 ADD SWAP1 PUSH2 0xBCD JUMP JUMPDEST POP POP POP POP SWAP1 POP SWAP2 SWAP1 POP JUMP JUMPDEST PUSH0 DUP1 PUSH0 JUMPDEST PUSH1 0x1 PUSH0 DUP6 PUSH20 0xFFFFFFFFFFFFFFFFFFFFFFFFFFFFFFFFFFFFFFFF AND PUSH20 0xFFFFFFFFFFFFFFFFFFFFFFFFFFFFFFFFFFFFFFFF AND DUP2 MSTORE PUSH1 0x20 ADD SWAP1 DUP2 MSTORE PUSH1 0x20 ADD PUSH0 KECCAK256 DUP1 SLOAD SWAP1 POP DUP2 LT ISZERO PUSH2 0xDCF JUMPI PUSH1 0x1 PUSH0 DUP6 PUSH20 0xFFFFFFFFFFFFFFFFFFFFFFFFFFFFFFFFFFFFFFFF AND PUSH20 0xFFFFFFFFFFFFFFFFFFFFFFFFFFFFFFFFFFFFFFFF AND DUP2 MSTORE PUSH1 0x20 ADD SWAP1 DUP2 MSTORE PUSH1 0x20 ADD PUSH0 KECCAK256 DUP2 DUP2 SLOAD DUP2 LT PUSH2 0xDA5 JUMPI PUSH2 0xDA4 PUSH2 0x172B JUMP JUMPDEST JUMPDEST SWAP1 PUSH0 MSTORE PUSH1 0x20 PUSH0 KECCAK256 SWAP1 PUSH1 0x5 MUL ADD PUSH1 0x4 ADD SLOAD DUP3 PUSH2 0xDC0 SWAP2 SWAP1 PUSH2 0x1D35 JUMP JUMPDEST SWAP2 POP DUP1 DUP1 PUSH1 0x1 ADD SWAP2 POP POP PUSH2 0xD0E JUMP JUMPDEST POP DUP1 SWAP2 POP POP SWAP2 SWAP1 POP JUMP JUMPDEST PUSH1 0x2 PUSH0 SWAP1 SLOAD SWAP1 PUSH2 0x100 EXP SWAP1 DIV PUSH20 0xFFFFFFFFFFFFFFFFFFFFFFFFFFFFFFFFFFFFFFFF AND DUP2 JUMP JUMPDEST PUSH0 DUP1 SLOAD SWAP1 PUSH2 0x100 EXP SWAP1 DIV PUSH2 0xFFFF AND DUP2 JUMP JUMPDEST PUSH1 0x60 PUSH0 PUSH1 0x1 PUSH2 0xE1D DUP5 PUSH2 0xED9 JUMP JUMPDEST ADD SWAP1 POP PUSH0 DUP2 PUSH8 0xFFFFFFFFFFFFFFFF DUP2 GT ISZERO PUSH2 0xE3B JUMPI PUSH2 0xE3A PUSH2 0x1390 JUMP JUMPDEST JUMPDEST PUSH1 0x40 MLOAD SWAP1 DUP1 DUP3 MSTORE DUP1 PUSH1 0x1F ADD PUSH1 0x1F NOT AND PUSH1 0x20 ADD DUP3 ADD PUSH1 0x40 MSTORE DUP1 ISZERO PUSH2 0xE6D JUMPI DUP2 PUSH1 0x20 ADD PUSH1 0x1 DUP3 MUL DUP1 CALLDATASIZE DUP4 CALLDATACOPY DUP1 DUP3 ADD SWAP2 POP POP SWAP1 POP JUMPDEST POP SWAP1 POP PUSH0 DUP3 PUSH1 0x20 ADD DUP3 ADD SWAP1 POP JUMPDEST PUSH1 0x1 ISZERO PUSH2 0xECE JUMPI DUP1 DUP1 PUSH1 0x1 SWAP1 SUB SWAP2 POP POP PUSH32 0x3031323334353637383961626364656600000000000000000000000000000000 PUSH1 0xA DUP7 MOD BYTE DUP2 MSTORE8 PUSH1 0xA DUP6 DUP2 PUSH2 0xEC3 JUMPI PUSH2 0xEC2 PUSH2 0x1D68 JUMP JUMPDEST JUMPDEST DIV SWAP5 POP PUSH0 DUP6 SUB PUSH2 0xE7A JUMPI JUMPDEST DUP2 SWAP4 POP POP POP POP SWAP2 SWAP1 POP JUMP JUMPDEST PUSH0 DUP1 PUSH0 SWAP1 POP PUSH27 0x184F03E93FF9F4DAA797ED6E38ED64BF6A1F010000000000000000 DUP4 LT PUSH2 0xF35 JUMPI PUSH27 0x184F03E93FF9F4DAA797ED6E38ED64BF6A1F010000000000000000 DUP4 DUP2 PUSH2 0xF2B JUMPI PUSH2 0xF2A PUSH2 0x1D68 JUMP JUMPDEST JUMPDEST DIV SWAP3 POP PUSH1 0x40 DUP2 ADD SWAP1 POP JUMPDEST PUSH14 0x4EE2D6D415B85ACEF8100000000 DUP4 LT PUSH2 0xF72 JUMPI PUSH14 0x4EE2D6D415B85ACEF8100000000 DUP4 DUP2 PUSH2 0xF68 JUMPI PUSH2 0xF67 PUSH2 0x1D68 JUMP JUMPDEST JUMPDEST DIV SWAP3 POP PUSH1 0x20 DUP2 ADD SWAP1 POP JUMPDEST PUSH7 0x2386F26FC10000 DUP4 LT PUSH2 0xFA1 JUMPI PUSH7 0x2386F26FC10000 DUP4 DUP2 PUSH2 0xF97 JUMPI PUSH2 0xF96 PUSH2 0x1D68 JUMP JUMPDEST JUMPDEST DIV SWAP3 POP PUSH1 0x10 DUP2 ADD SWAP1 POP JUMPDEST PUSH4 0x5F5E100 DUP4 LT PUSH2 0xFCA JUMPI PUSH4 0x5F5E100 DUP4 DUP2 PUSH2 0xFC0 JUMPI PUSH2 0xFBF PUSH2 0x1D68 JUMP JUMPDEST JUMPDEST DIV SWAP3 POP PUSH1 0x8 DUP2 ADD SWAP1 POP JUMPDEST PUSH2 0x2710 DUP4 LT PUSH2 0xFEF JUMPI PUSH2 0x2710 DUP4 DUP2 PUSH2 0xFE5 JUMPI PUSH2 0xFE4 PUSH2 0x1D68 JUMP JUMPDEST JUMPDEST DIV SWAP3 POP PUSH1 0x4 DUP2 ADD SWAP1 POP JUMPDEST PUSH1 0x64 DUP4 LT PUSH2 0x1012 JUMPI PUSH1 0x64 DUP4 DUP2 PUSH2 0x1008 JUMPI PUSH2 0x1007 PUSH2 0x1D68 JUMP JUMPDEST JUMPDEST DIV SWAP3 POP PUSH1 0x2 DUP2 ADD SWAP1 POP JUMPDEST PUSH1 0xA DUP4 LT PUSH2 0x1021 JUMPI PUSH1 0x1 DUP2 ADD SWAP1 POP JUMPDEST DUP1 SWAP2 POP POP SWAP2 SWAP1 POP JUMP JUMPDEST PUSH1 0x40 MLOAD DUP1 PUSH1 0xA0 ADD PUSH1 0x40 MSTORE DUP1 PUSH0 DUP2 MSTORE PUSH1 0x20 ADD PUSH0 PUSH20 0xFFFFFFFFFFFFFFFFFFFFFFFFFFFFFFFFFFFFFFFF AND DUP2 MSTORE PUSH1 0x20 ADD PUSH1 0x60 DUP2 MSTORE PUSH1 0x20 ADD PUSH0 DUP2 MSTORE PUSH1 0x20 ADD PUSH0 DUP2 MSTORE POP SWAP1 JUMP JUMPDEST PUSH0 PUSH1 0x40 MLOAD SWAP1 POP SWAP1 JUMP JUMPDEST PUSH0 DUP1 REVERT JUMPDEST PUSH0 DUP1 REVERT JUMPDEST PUSH0 PUSH20 0xFFFFFFFFFFFFFFFFFFFFFFFFFFFFFFFFFFFFFFFF DUP3 AND SWAP1 POP SWAP2 SWAP1 POP JUMP JUMPDEST PUSH0 PUSH2 0x10A5 DUP3 PUSH2 0x107C JUMP JUMPDEST SWAP1 POP SWAP2 SWAP1 POP JUMP JUMPDEST PUSH2 0x10B5 DUP2 PUSH2 0x109B JUMP JUMPDEST DUP2 EQ PUSH2 0x10BF JUMPI PUSH0 DUP1 REVERT JUMPDEST POP JUMP JUMPDEST PUSH0 DUP2 CALLDATALOAD SWAP1 POP PUSH2 0x10D0 DUP2 PUSH2 0x10AC JUMP JUMPDEST SWAP3 SWAP2 POP POP JUMP JUMPDEST PUSH0 DUP2 SWAP1 POP SWAP2 SWAP1 POP JUMP JUMPDEST PUSH2 0x10E8 DUP2 PUSH2 0x10D6 JUMP JUMPDEST DUP2 EQ PUSH2 0x10F2 JUMPI PUSH0 DUP1 REVERT JUMPDEST POP JUMP JUMPDEST PUSH0 DUP2 CALLDATALOAD SWAP1 POP PUSH2 0x1103 DUP2 PUSH2 0x10DF JUMP JUMPDEST SWAP3 SWAP2 POP POP JUMP JUMPDEST PUSH0 DUP1 PUSH1 0x40 DUP4 DUP6 SUB SLT ISZERO PUSH2 0x111F JUMPI PUSH2 0x111E PUSH2 0x1074 JUMP JUMPDEST JUMPDEST PUSH0 PUSH2 0x112C DUP6 DUP3 DUP7 ADD PUSH2 0x10C2 JUMP JUMPDEST SWAP3 POP POP PUSH1 0x20 PUSH2 0x113D DUP6 DUP3 DUP7 ADD PUSH2 0x10F5 JUMP JUMPDEST SWAP2 POP POP SWAP3 POP SWAP3 SWAP1 POP JUMP JUMPDEST PUSH2 0x1150 DUP2 PUSH2 0x10D6 JUMP JUMPDEST DUP3 MSTORE POP POP JUMP JUMPDEST PUSH2 0x115F DUP2 PUSH2 0x109B JUMP JUMPDEST DUP3 MSTORE POP POP JUMP JUMPDEST PUSH0 DUP2 MLOAD SWAP1 POP SWAP2 SWAP1 POP JUMP JUMPDEST PUSH0 DUP3 DUP3 MSTORE PUSH1 0x20 DUP3 ADD SWAP1 POP SWAP3 SWAP2 POP POP JUMP JUMPDEST DUP3 DUP2 DUP4 MCOPY PUSH0 DUP4 DUP4 ADD MSTORE POP POP POP JUMP JUMPDEST PUSH0 PUSH1 0x1F NOT PUSH1 0x1F DUP4 ADD AND SWAP1 POP SWAP2 SWAP1 POP JUMP JUMPDEST PUSH0 PUSH2 0x11A7 DUP3 PUSH2 0x1165 JUMP JUMPDEST PUSH2 0x11B1 DUP2 DUP6 PUSH2 0x116F JUMP JUMPDEST SWAP4 POP PUSH2 0x11C1 DUP2 DUP6 PUSH1 0x20 DUP7 ADD PUSH2 0x117F JUMP JUMPDEST PUSH2 0x11CA DUP2 PUSH2 0x118D JUMP JUMPDEST DUP5 ADD SWAP2 POP POP SWAP3 SWAP2 POP POP JUMP JUMPDEST PUSH0 PUSH1 0xA0 DUP3 ADD SWAP1 POP PUSH2 0x11E8 PUSH0 DUP4 ADD DUP9 PUSH2 0x1147 JUMP JUMPDEST PUSH2 0x11F5 PUSH1 0x20 DUP4 ADD DUP8 PUSH2 0x1156 JUMP JUMPDEST DUP2 DUP2 SUB PUSH1 0x40 DUP4 ADD MSTORE PUSH2 0x1207 DUP2 DUP7 PUSH2 0x119D JUMP JUMPDEST SWAP1 POP PUSH2 0x1216 PUSH1 0x60 DUP4 ADD DUP6 PUSH2 0x1147 JUMP JUMPDEST PUSH2 0x1223 PUSH1 0x80 DUP4 ADD DUP5 PUSH2 0x1147 JUMP JUMPDEST SWAP7 SWAP6 POP POP POP POP POP POP JUMP JUMPDEST PUSH2 0x1236 DUP2 PUSH2 0x10D6 JUMP JUMPDEST DUP3 MSTORE POP POP JUMP JUMPDEST PUSH2 0x1245 DUP2 PUSH2 0x109B JUMP JUMPDEST DUP3 MSTORE POP POP JUMP JUMPDEST PUSH0 DUP3 DUP3 MSTORE PUSH1 0x20 DUP3 ADD SWAP1 POP SWAP3 SWAP2 POP POP JUMP JUMPDEST PUSH0 PUSH2 0x1265 DUP3 PUSH2 0x1165 JUMP JUMPDEST PUSH2 0x126F DUP2 DUP6 PUSH2 0x124B JUMP JUMPDEST SWAP4 POP PUSH2 0x127F DUP2 DUP6 PUSH1 0x20 DUP7 ADD PUSH2 0x117F JUMP JUMPDEST PUSH2 0x1288 DUP2 PUSH2 0x118D JUMP JUMPDEST DUP5 ADD SWAP2 POP POP SWAP3 SWAP2 POP POP JUMP JUMPDEST PUSH0 PUSH1 0xA0 DUP4 ADD PUSH0 DUP4 ADD MLOAD PUSH2 0x12A8 PUSH0 DUP7 ADD DUP3 PUSH2 0x122D JUMP JUMPDEST POP PUSH1 0x20 DUP4 ADD MLOAD PUSH2 0x12BB PUSH1 0x20 DUP7 ADD DUP3 PUSH2 0x123C JUMP JUMPDEST POP PUSH1 0x40 DUP4 ADD MLOAD DUP5 DUP3 SUB PUSH1 0x40 DUP7 ADD MSTORE PUSH2 0x12D3 DUP3 DUP3 PUSH2 0x125B JUMP JUMPDEST SWAP2 POP POP PUSH1 0x60 DUP4 ADD MLOAD PUSH2 0x12E8 PUSH1 0x60 DUP7 ADD DUP3 PUSH2 0x122D JUMP JUMPDEST POP PUSH1 0x80 DUP4 ADD MLOAD PUSH2 0x12FB PUSH1 0x80 DUP7 ADD DUP3 PUSH2 0x122D JUMP JUMPDEST POP DUP1 SWAP2 POP POP SWAP3 SWAP2 POP POP JUMP JUMPDEST PUSH0 PUSH1 0x20 DUP3 ADD SWAP1 POP DUP2 DUP2 SUB PUSH0 DUP4 ADD MSTORE PUSH2 0x131E DUP2 DUP5 PUSH2 0x1293 JUMP JUMPDEST SWAP1 POP SWAP3 SWAP2 POP POP JUMP JUMPDEST PUSH0 PUSH2 0xFFFF DUP3 AND SWAP1 POP SWAP2 SWAP1 POP JUMP JUMPDEST PUSH2 0x133C DUP2 PUSH2 0x1326 JUMP JUMPDEST DUP2 EQ PUSH2 0x1346 JUMPI PUSH0 DUP1 REVERT JUMPDEST POP JUMP JUMPDEST PUSH0 DUP2 CALLDATALOAD SWAP1 POP PUSH2 0x1357 DUP2 PUSH2 0x1333 JUMP JUMPDEST SWAP3 SWAP2 POP POP JUMP JUMPDEST PUSH0 PUSH1 0x20 DUP3 DUP5 SUB SLT ISZERO PUSH2 0x1372 JUMPI PUSH2 0x1371 PUSH2 0x1074 JUMP JUMPDEST JUMPDEST PUSH0 PUSH2 0x137F DUP5 DUP3 DUP6 ADD PUSH2 0x1349 JUMP JUMPDEST SWAP2 POP POP SWAP3 SWAP2 POP POP JUMP JUMPDEST PUSH0 DUP1 REVERT JUMPDEST PUSH0 DUP1 REVERT JUMPDEST PUSH32 0x4E487B7100000000000000000000000000000000000000000000000000000000 PUSH0 MSTORE PUSH1 0x41 PUSH1 0x4 MSTORE PUSH1 0x24 PUSH0 REVERT JUMPDEST PUSH2 0x13C6 DUP3 PUSH2 0x118D JUMP JUMPDEST DUP2 ADD DUP2 DUP2 LT PUSH8 0xFFFFFFFFFFFFFFFF DUP3 GT OR ISZERO PUSH2 0x13E5 JUMPI PUSH2 0x13E4 PUSH2 0x1390 JUMP JUMPDEST JUMPDEST DUP1 PUSH1 0x40 MSTORE POP POP POP JUMP JUMPDEST PUSH0 PUSH2 0x13F7 PUSH2 0x106B JUMP JUMPDEST SWAP1 POP PUSH2 0x1403 DUP3 DUP3 PUSH2 0x13BD JUMP JUMPDEST SWAP2 SWAP1 POP JUMP JUMPDEST PUSH0 PUSH8 0xFFFFFFFFFFFFFFFF DUP3 GT ISZERO PUSH2 0x1422 JUMPI PUSH2 0x1421 PUSH2 0x1390 JUMP JUMPDEST JUMPDEST PUSH2 0x142B DUP3 PUSH2 0x118D JUMP JUMPDEST SWAP1 POP PUSH1 0x20 DUP2 ADD SWAP1 POP SWAP2 SWAP1 POP JUMP JUMPDEST DUP3 DUP2 DUP4 CALLDATACOPY PUSH0 DUP4 DUP4 ADD MSTORE POP POP POP JUMP JUMPDEST PUSH0 PUSH2 0x1458 PUSH2 0x1453 DUP5 PUSH2 0x1408 JUMP JUMPDEST PUSH2 0x13EE JUMP JUMPDEST SWAP1 POP DUP3 DUP2 MSTORE PUSH1 0x20 DUP2 ADD DUP5 DUP5 DUP5 ADD GT ISZERO PUSH2 0x1474 JUMPI PUSH2 0x1473 PUSH2 0x138C JUMP JUMPDEST JUMPDEST PUSH2 0x147F DUP5 DUP3 DUP6 PUSH2 0x1438 JUMP JUMPDEST POP SWAP4 SWAP3 POP POP POP JUMP JUMPDEST PUSH0 DUP3 PUSH1 0x1F DUP4 ADD SLT PUSH2 0x149B JUMPI PUSH2 0x149A PUSH2 0x1388 JUMP JUMPDEST JUMPDEST DUP2 CALLDATALOAD PUSH2 0x14AB DUP5 DUP3 PUSH1 0x20 DUP7 ADD PUSH2 0x1446 JUMP JUMPDEST SWAP2 POP POP SWAP3 SWAP2 POP POP JUMP JUMPDEST PUSH0 PUSH1 0x20 DUP3 DUP5 SUB SLT ISZERO PUSH2 0x14C9 JUMPI PUSH2 0x14C8 PUSH2 0x1074 JUMP JUMPDEST JUMPDEST PUSH0 DUP3 ADD CALLDATALOAD PUSH8 0xFFFFFFFFFFFFFFFF DUP2 GT ISZERO PUSH2 0x14E6 JUMPI PUSH2 0x14E5 PUSH2 0x1078 JUMP JUMPDEST JUMPDEST PUSH2 0x14F2 DUP5 DUP3 DUP6 ADD PUSH2 0x1487 JUMP JUMPDEST SWAP2 POP POP SWAP3 SWAP2 POP POP JUMP JUMPDEST PUSH0 PUSH1 0x20 DUP3 DUP5 SUB SLT ISZERO PUSH2 0x1510 JUMPI PUSH2 0x150F PUSH2 0x1074 JUMP JUMPDEST JUMPDEST PUSH0 PUSH2 0x151D DUP5 DUP3 DUP6 ADD PUSH2 0x10C2 JUMP JUMPDEST SWAP2 POP POP SWAP3 SWAP2 POP POP JUMP JUMPDEST PUSH0 DUP2 MLOAD SWAP1 POP SWAP2 SWAP1 POP JUMP JUMPDEST PUSH0 DUP3 DUP3 MSTORE PUSH1 0x20 DUP3 ADD SWAP1 POP SWAP3 SWAP2 POP POP JUMP JUMPDEST PUSH0 DUP2 SWAP1 POP PUSH1 0x20 DUP3 ADD SWAP1 POP SWAP2 SWAP1 POP JUMP JUMPDEST PUSH0 PUSH1 0xA0 DUP4 ADD PUSH0 DUP4 ADD MLOAD PUSH2 0x1564 PUSH0 DUP7 ADD DUP3 PUSH2 0x122D JUMP JUMPDEST POP PUSH1 0x20 DUP4 ADD MLOAD PUSH2 0x1577 PUSH1 0x20 DUP7 ADD DUP3 PUSH2 0x123C JUMP JUMPDEST POP PUSH1 0x40 DUP4 ADD MLOAD DUP5 DUP3 SUB PUSH1 0x40 DUP7 ADD MSTORE PUSH2 0x158F DUP3 DUP3 PUSH2 0x125B JUMP JUMPDEST SWAP2 POP POP PUSH1 0x60 DUP4 ADD MLOAD PUSH2 0x15A4 PUSH1 0x60 DUP7 ADD DUP3 PUSH2 0x122D JUMP JUMPDEST POP PUSH1 0x80 DUP4 ADD MLOAD PUSH2 0x15B7 PUSH1 0x80 DUP7 ADD DUP3 PUSH2 0x122D JUMP JUMPDEST POP DUP1 SWAP2 POP POP SWAP3 SWAP2 POP POP JUMP JUMPDEST PUSH0 PUSH2 0x15CD DUP4 DUP4 PUSH2 0x154F JUMP JUMPDEST SWAP1 POP SWAP3 SWAP2 POP POP JUMP JUMPDEST PUSH0 PUSH1 0x20 DUP3 ADD SWAP1 POP SWAP2 SWAP1 POP JUMP JUMPDEST PUSH0 PUSH2 0x15EB DUP3 PUSH2 0x1526 JUMP JUMPDEST PUSH2 0x15F5 DUP2 DUP6 PUSH2 0x1530 JUMP JUMPDEST SWAP4 POP DUP4 PUSH1 0x20 DUP3 MUL DUP6 ADD PUSH2 0x1607 DUP6 PUSH2 0x1540 JUMP JUMPDEST DUP1 PUSH0 JUMPDEST DUP6 DUP2 LT ISZERO PUSH2 0x1642 JUMPI DUP5 DUP5 SUB DUP10 MSTORE DUP2 MLOAD PUSH2 0x1623 DUP6 DUP3 PUSH2 0x15C2 JUMP JUMPDEST SWAP5 POP PUSH2 0x162E DUP4 PUSH2 0x15D5 JUMP JUMPDEST SWAP3 POP PUSH1 0x20 DUP11 ADD SWAP10 POP POP PUSH1 0x1 DUP2 ADD SWAP1 POP PUSH2 0x160A JUMP JUMPDEST POP DUP3 SWAP8 POP DUP8 SWAP6 POP POP POP POP POP POP SWAP3 SWAP2 POP POP JUMP JUMPDEST PUSH0 PUSH1 0x20 DUP3 ADD SWAP1 POP DUP2 DUP2 SUB PUSH0 DUP4 ADD MSTORE PUSH2 0x166C DUP2 DUP5 PUSH2 0x15E1 JUMP JUMPDEST SWAP1 POP SWAP3 SWAP2 POP POP JUMP JUMPDEST PUSH0 PUSH1 0x20 DUP3 ADD SWAP1 POP PUSH2 0x1687 PUSH0 DUP4 ADD DUP5 PUSH2 0x1147 JUMP JUMPDEST SWAP3 SWAP2 POP POP JUMP JUMPDEST PUSH0 PUSH1 0x20 DUP3 ADD SWAP1 POP PUSH2 0x16A0 PUSH0 DUP4 ADD DUP5 PUSH2 0x1156 JUMP JUMPDEST SWAP3 SWAP2 POP POP JUMP JUMPDEST PUSH2 0x16AF DUP2 PUSH2 0x1326 JUMP JUMPDEST DUP3 MSTORE POP POP JUMP JUMPDEST PUSH0 PUSH1 0x20 DUP3 ADD SWAP1 POP PUSH2 0x16C8 PUSH0 DUP4 ADD DUP5 PUSH2 0x16A6 JUMP JUMPDEST SWAP3 SWAP2 POP POP JUMP JUMPDEST PUSH32 0x4E487B7100000000000000000000000000000000000000000000000000000000 PUSH0 MSTORE PUSH1 0x22 PUSH1 0x4 MSTORE PUSH1 0x24 PUSH0 REVERT JUMPDEST PUSH0 PUSH1 0x2 DUP3 DIV SWAP1 POP PUSH1 0x1 DUP3 AND DUP1 PUSH2 0x1712 JUMPI PUSH1 0x7F DUP3 AND SWAP2 POP JUMPDEST PUSH1 0x20 DUP3 LT DUP2 SUB PUSH2 0x1725 JUMPI PUSH2 0x1724 PUSH2 0x16CE JUMP JUMPDEST JUMPDEST POP SWAP2 SWAP1 POP JUMP JUMPDEST PUSH32 0x4E487B7100000000000000000000000000000000000000000000000000000000 PUSH0 MSTORE PUSH1 0x32 PUSH1 0x4 MSTORE PUSH1 0x24 PUSH0 REVERT JUMPDEST PUSH32 0x547765657420646F6573206E6F74206578697374210000000000000000000000 PUSH0 DUP3 ADD MSTORE POP JUMP JUMPDEST PUSH0 PUSH2 0x178C PUSH1 0x15 DUP4 PUSH2 0x116F JUMP JUMPDEST SWAP2 POP PUSH2 0x1797 DUP3 PUSH2 0x1758 JUMP JUMPDEST PUSH1 0x20 DUP3 ADD SWAP1 POP SWAP2 SWAP1 POP JUMP JUMPDEST PUSH0 PUSH1 0x20 DUP3 ADD SWAP1 POP DUP2 DUP2 SUB PUSH0 DUP4 ADD MSTORE PUSH2 0x17B9 DUP2 PUSH2 0x1780 JUMP JUMPDEST SWAP1 POP SWAP2 SWAP1 POP JUMP JUMPDEST PUSH32 0x547765657420686173206E6F206C696B65732100000000000000000000000000 PUSH0 DUP3 ADD MSTORE POP JUMP JUMPDEST PUSH0 PUSH2 0x17F4 PUSH1 0x13 DUP4 PUSH2 0x116F JUMP JUMPDEST SWAP2 POP PUSH2 0x17FF DUP3 PUSH2 0x17C0 JUMP JUMPDEST PUSH1 0x20 DUP3 ADD SWAP1 POP SWAP2 SWAP1 POP JUMP JUMPDEST PUSH0 PUSH1 0x20 DUP3 ADD SWAP1 POP DUP2 DUP2 SUB PUSH0 DUP4 ADD MSTORE PUSH2 0x1821 DUP2 PUSH2 0x17E8 JUMP JUMPDEST SWAP1 POP SWAP2 SWAP1 POP JUMP JUMPDEST PUSH32 0x4E487B7100000000000000000000000000000000000000000000000000000000 PUSH0 MSTORE PUSH1 0x11 PUSH1 0x4 MSTORE PUSH1 0x24 PUSH0 REVERT JUMPDEST PUSH0 PUSH2 0x185F DUP3 PUSH2 0x10D6 JUMP JUMPDEST SWAP2 POP PUSH0 DUP3 SUB PUSH2 0x1871 JUMPI PUSH2 0x1870 PUSH2 0x1828 JUMP JUMPDEST JUMPDEST PUSH1 0x1 DUP3 SUB SWAP1 POP SWAP2 SWAP1 POP JUMP JUMPDEST PUSH0 PUSH1 0x80 DUP3 ADD SWAP1 POP PUSH2 0x188F PUSH0 DUP4 ADD DUP8 PUSH2 0x1156 JUMP JUMPDEST PUSH2 0x189C PUSH1 0x20 DUP4 ADD DUP7 PUSH2 0x1156 JUMP JUMPDEST PUSH2 0x18A9 PUSH1 0x40 DUP4 ADD DUP6 PUSH2 0x1147 JUMP JUMPDEST PUSH2 0x18B6 PUSH1 0x60 DUP4 ADD DUP5 PUSH2 0x1147 JUMP JUMPDEST SWAP6 SWAP5 POP POP POP POP POP JUMP JUMPDEST PUSH32 0x596F75277265206E6F7420616C6C6F77656420746F2065786563757465207468 PUSH0 DUP3 ADD MSTORE PUSH32 0x6973206F7065726174696F6E0000000000000000000000000000000000000000 PUSH1 0x20 DUP3 ADD MSTORE POP JUMP JUMPDEST PUSH0 PUSH2 0x1919 PUSH1 0x2C DUP4 PUSH2 0x116F JUMP JUMPDEST SWAP2 POP PUSH2 0x1924 DUP3 PUSH2 0x18BF JUMP JUMPDEST PUSH1 0x40 DUP3 ADD SWAP1 POP SWAP2 SWAP1 POP JUMP JUMPDEST PUSH0 PUSH1 0x20 DUP3 ADD SWAP1 POP DUP2 DUP2 SUB PUSH0 DUP4 ADD MSTORE PUSH2 0x1946 DUP2 PUSH2 0x190D JUMP JUMPDEST SWAP1 POP SWAP2 SWAP1 POP JUMP JUMPDEST PUSH0 PUSH2 0x1957 DUP3 PUSH2 0x10D6 JUMP JUMPDEST SWAP2 POP PUSH32 0xFFFFFFFFFFFFFFFFFFFFFFFFFFFFFFFFFFFFFFFFFFFFFFFFFFFFFFFFFFFFFFFF DUP3 SUB PUSH2 0x1989 JUMPI PUSH2 0x1988 PUSH2 0x1828 JUMP JUMPDEST JUMPDEST PUSH1 0x1 DUP3 ADD SWAP1 POP SWAP2 SWAP1 POP JUMP JUMPDEST PUSH0 DUP2 SWAP1 POP SWAP3 SWAP2 POP POP JUMP JUMPDEST PUSH32 0x596F757220747765657420657863656564656420746865206C696D6974206F66 PUSH0 DUP3 ADD MSTORE PUSH32 0x20636861726163746572733A2000000000000000000000000000000000000000 PUSH1 0x20 DUP3 ADD MSTORE POP JUMP JUMPDEST PUSH0 PUSH2 0x19F8 PUSH1 0x2D DUP4 PUSH2 0x1994 JUMP JUMPDEST SWAP2 POP PUSH2 0x1A03 DUP3 PUSH2 0x199E JUMP JUMPDEST PUSH1 0x2D DUP3 ADD SWAP1 POP SWAP2 SWAP1 POP JUMP JUMPDEST PUSH0 PUSH2 0x1A18 DUP3 PUSH2 0x1165 JUMP JUMPDEST PUSH2 0x1A22 DUP2 DUP6 PUSH2 0x1994 JUMP JUMPDEST SWAP4 POP PUSH2 0x1A32 DUP2 DUP6 PUSH1 0x20 DUP7 ADD PUSH2 0x117F JUMP JUMPDEST DUP1 DUP5 ADD SWAP2 POP POP SWAP3 SWAP2 POP POP JUMP JUMPDEST PUSH0 PUSH2 0x1A48 DUP3 PUSH2 0x19EC JUMP JUMPDEST SWAP2 POP PUSH2 0x1A54 DUP3 DUP5 PUSH2 0x1A0E JUMP JUMPDEST SWAP2 POP DUP2 SWAP1 POP SWAP3 SWAP2 POP POP JUMP JUMPDEST PUSH0 PUSH1 0x20 DUP3 ADD SWAP1 POP DUP2 DUP2 SUB PUSH0 DUP4 ADD MSTORE PUSH2 0x1A77 DUP2 DUP5 PUSH2 0x119D JUMP JUMPDEST SWAP1 POP SWAP3 SWAP2 POP POP JUMP JUMPDEST PUSH0 DUP2 SWAP1 POP DUP2 PUSH0 MSTORE PUSH1 0x20 PUSH0 KECCAK256 SWAP1 POP SWAP2 SWAP1 POP JUMP JUMPDEST PUSH0 PUSH1 0x20 PUSH1 0x1F DUP4 ADD DIV SWAP1 POP SWAP2 SWAP1 POP JUMP JUMPDEST PUSH0 DUP3 DUP3 SHL SWAP1 POP SWAP3 SWAP2 POP POP JUMP JUMPDEST PUSH0 PUSH1 0x8 DUP4 MUL PUSH2 0x1ADB PUSH32 0xFFFFFFFFFFFFFFFFFFFFFFFFFFFFFFFFFFFFFFFFFFFFFFFFFFFFFFFFFFFFFFFF DUP3 PUSH2 0x1AA0 JUMP JUMPDEST PUSH2 0x1AE5 DUP7 DUP4 PUSH2 0x1AA0 JUMP JUMPDEST SWAP6 POP DUP1 NOT DUP5 AND SWAP4 POP DUP1 DUP7 AND DUP5 OR SWAP3 POP POP POP SWAP4 SWAP3 POP POP POP JUMP JUMPDEST PUSH0 DUP2 SWAP1 POP SWAP2 SWAP1 POP JUMP JUMPDEST PUSH0 PUSH2 0x1B20 PUSH2 0x1B1B PUSH2 0x1B16 DUP5 PUSH2 0x10D6 JUMP JUMPDEST PUSH2 0x1AFD JUMP JUMPDEST PUSH2 0x10D6 JUMP JUMPDEST SWAP1 POP SWAP2 SWAP1 POP JUMP JUMPDEST PUSH0 DUP2 SWAP1 POP SWAP2 SWAP1 POP JUMP JUMPDEST PUSH2 0x1B39 DUP4 PUSH2 0x1B06 JUMP JUMPDEST PUSH2 0x1B4D PUSH2 0x1B45 DUP3 PUSH2 0x1B27 JUMP JUMPDEST DUP5 DUP5 SLOAD PUSH2 0x1AAC JUMP JUMPDEST DUP3 SSTORE POP POP POP POP JUMP JUMPDEST PUSH0 SWAP1 JUMP JUMPDEST PUSH2 0x1B61 PUSH2 0x1B55 JUMP JUMPDEST PUSH2 0x1B6C DUP2 DUP5 DUP5 PUSH2 0x1B30 JUMP JUMPDEST POP POP POP JUMP JUMPDEST JUMPDEST DUP2 DUP2 LT ISZERO PUSH2 0x1B8F JUMPI PUSH2 0x1B84 PUSH0 DUP3 PUSH2 0x1B59 JUMP JUMPDEST PUSH1 0x1 DUP2 ADD SWAP1 POP PUSH2 0x1B72 JUMP JUMPDEST POP POP JUMP JUMPDEST PUSH1 0x1F DUP3 GT ISZERO PUSH2 0x1BD4 JUMPI PUSH2 0x1BA5 DUP2 PUSH2 0x1A7F JUMP JUMPDEST PUSH2 0x1BAE DUP5 PUSH2 0x1A91 JUMP JUMPDEST DUP2 ADD PUSH1 0x20 DUP6 LT ISZERO PUSH2 0x1BBD JUMPI DUP2 SWAP1 POP JUMPDEST PUSH2 0x1BD1 PUSH2 0x1BC9 DUP6 PUSH2 0x1A91 JUMP JUMPDEST DUP4 ADD DUP3 PUSH2 0x1B71 JUMP JUMPDEST POP POP JUMPDEST POP POP POP JUMP JUMPDEST PUSH0 DUP3 DUP3 SHR SWAP1 POP SWAP3 SWAP2 POP POP JUMP JUMPDEST PUSH0 PUSH2 0x1BF4 PUSH0 NOT DUP5 PUSH1 0x8 MUL PUSH2 0x1BD9 JUMP JUMPDEST NOT DUP1 DUP4 AND SWAP2 POP POP SWAP3 SWAP2 POP POP JUMP JUMPDEST PUSH0 PUSH2 0x1C0C DUP4 DUP4 PUSH2 0x1BE5 JUMP JUMPDEST SWAP2 POP DUP3 PUSH1 0x2 MUL DUP3 OR SWAP1 POP SWAP3 SWAP2 POP POP JUMP JUMPDEST PUSH2 0x1C25 DUP3 PUSH2 0x1165 JUMP JUMPDEST PUSH8 0xFFFFFFFFFFFFFFFF DUP2 GT ISZERO PUSH2 0x1C3E JUMPI PUSH2 0x1C3D PUSH2 0x1390 JUMP JUMPDEST JUMPDEST PUSH2 0x1C48 DUP3 SLOAD PUSH2 0x16FB JUMP JUMPDEST PUSH2 0x1C53 DUP3 DUP3 DUP6 PUSH2 0x1B93 JUMP JUMPDEST PUSH0 PUSH1 0x20 SWAP1 POP PUSH1 0x1F DUP4 GT PUSH1 0x1 DUP2 EQ PUSH2 0x1C84 JUMPI PUSH0 DUP5 ISZERO PUSH2 0x1C72 JUMPI DUP3 DUP8 ADD MLOAD SWAP1 POP JUMPDEST PUSH2 0x1C7C DUP6 DUP3 PUSH2 0x1C01 JUMP JUMPDEST DUP7 SSTORE POP PUSH2 0x1CE3 JUMP JUMPDEST PUSH1 0x1F NOT DUP5 AND PUSH2 0x1C92 DUP7 PUSH2 0x1A7F JUMP JUMPDEST PUSH0 JUMPDEST DUP3 DUP2 LT ISZERO PUSH2 0x1CB9 JUMPI DUP5 DUP10 ADD MLOAD DUP3 SSTORE PUSH1 0x1 DUP3 ADD SWAP2 POP PUSH1 0x20 DUP6 ADD SWAP5 POP PUSH1 0x20 DUP2 ADD SWAP1 POP PUSH2 0x1C94 JUMP JUMPDEST DUP7 DUP4 LT ISZERO PUSH2 0x1CD6 JUMPI DUP5 DUP10 ADD MLOAD PUSH2 0x1CD2 PUSH1 0x1F DUP10 AND DUP3 PUSH2 0x1BE5 JUMP JUMPDEST DUP4 SSTORE POP JUMPDEST PUSH1 0x1 PUSH1 0x2 DUP9 MUL ADD DUP9 SSTORE POP POP POP JUMPDEST POP POP POP POP POP POP JUMP JUMPDEST PUSH0 PUSH1 0x80 DUP3 ADD SWAP1 POP PUSH2 0x1CFE PUSH0 DUP4 ADD DUP8 PUSH2 0x1147 JUMP JUMPDEST PUSH2 0x1D0B PUSH1 0x20 DUP4 ADD DUP7 PUSH2 0x1156 JUMP JUMPDEST DUP2 DUP2 SUB PUSH1 0x40 DUP4 ADD MSTORE PUSH2 0x1D1D DUP2 DUP6 PUSH2 0x119D JUMP JUMPDEST SWAP1 POP PUSH2 0x1D2C PUSH1 0x60 DUP4 ADD DUP5 PUSH2 0x1147 JUMP JUMPDEST SWAP6 SWAP5 POP POP POP POP POP JUMP JUMPDEST PUSH0 PUSH2 0x1D3F DUP3 PUSH2 0x10D6 JUMP JUMPDEST SWAP2 POP PUSH2 0x1D4A DUP4 PUSH2 0x10D6 JUMP JUMPDEST SWAP3 POP DUP3 DUP3 ADD SWAP1 POP DUP1 DUP3 GT ISZERO PUSH2 0x1D62 JUMPI PUSH2 0x1D61 PUSH2 0x1828 JUMP JUMPDEST JUMPDEST SWAP3 SWAP2 POP POP JUMP JUMPDEST PUSH32 0x4E487B7100000000000000000000000000000000000000000000000000000000 PUSH0 MSTORE PUSH1 0x12 PUSH1 0x4 MSTORE PUSH1 0x24 PUSH0 REVERT INVALID LOG2 PUSH5 0x6970667358 0x22 SLT KECCAK256 DUP7 0x4D JUMPI PUSH19 0x70BA3677DC0572CB495B4C3086ED33D04F895C 0xAD CALL BASEFEE SGT DUP12 0xE6 0x2B 0xC 0xC2 PUSH5 0x736F6C6343 STOP ADDMOD BYTE STOP CALLER "
				},
				"gasEstimates": {
					"creation": {
						"codeDepositCost": "1525400",
						"executionCost": "50125",
						"totalCost": "1575525"
					},
					"external": {
						"TWEET_MAX_LENGTH()": "2551",
						"changeTweetLength(uint16)": "26909",
						"createTweet(string)": "infinite",
						"getALLTweets(address)": "infinite",
						"getTotalLikes(address)": "infinite",
						"getTweet(address,uint256)": "infinite",
						"likeTweet(address,uint256)": "infinite",
						"owner()": "2574",
						"tweets(address,uint256)": "infinite",
						"unlikeTweet(address,uint256)": "infinite"
					}
				},
				"methodIdentifiers": {
					"TWEET_MAX_LENGTH()": "fd10b7df",
					"changeTweetLength(uint16)": "58bfa4ab",
					"createTweet(string)": "7c9cd2bc",
					"getALLTweets(address)": "808b0cf1",
					"getTotalLikes(address)": "820785cc",
					"getTweet(address,uint256)": "112f54e3",
					"likeTweet(address,uint256)": "63378216",
					"owner()": "8da5cb5b",
					"tweets(address,uint256)": "05a1b4a9",
					"unlikeTweet(address,uint256)": "3d9b569f"
				}
			},
			"storageLayout": {
				"storage": [
					{
						"astId": 16,
						"contract": "contracts/Twitter.sol:Twitter",
						"label": "TWEET_MAX_LENGTH",
						"offset": 0,
						"slot": "0",
						"type": "t_uint16"
					},
					{
						"astId": 22,
						"contract": "contracts/Twitter.sol:Twitter",
						"label": "tweets",
						"offset": 0,
						"slot": "1",
						"type": "t_mapping(t_address,t_array(t_struct(Tweet)13_storage)dyn_storage)"
					},
					{
						"astId": 24,
						"contract": "contracts/Twitter.sol:Twitter",
						"label": "owner",
						"offset": 0,
						"slot": "2",
						"type": "t_address"
					}
				],
				"types": {
					"t_address": {
						"encoding": "inplace",
						"label": "address",
						"numberOfBytes": "20"
					},
					"t_array(t_struct(Tweet)13_storage)dyn_storage": {
						"base": "t_struct(Tweet)13_storage",
						"encoding": "dynamic_array",
						"label": "struct Twitter.Tweet[]",
						"numberOfBytes": "32"
					},
					"t_mapping(t_address,t_array(t_struct(Tweet)13_storage)dyn_storage)": {
						"encoding": "mapping",
						"key": "t_address",
						"label": "mapping(address => struct Twitter.Tweet[])",
						"numberOfBytes": "32",
						"value": "t_array(t_struct(Tweet)13_storage)dyn_storage"
					},
					"t_string_storage": {
						"encoding": "bytes",
						"label": "string",
						"numberOfBytes": "32"
					},
					"t_struct(Tweet)13_storage": {
						"encoding": "inplace",
						"label": "struct Twitter.Tweet",
						"members": [
							{
								"astId": 4,
								"contract": "contracts/Twitter.sol:Twitter",
								"label": "id",
								"offset": 0,
								"slot": "0",
								"type": "t_uint256"
							},
							{
								"astId": 6,
								"contract": "contracts/Twitter.sol:Twitter",
								"label": "author",
								"offset": 0,
								"slot": "1",
								"type": "t_address"
							},
							{
								"astId": 8,
								"contract": "contracts/Twitter.sol:Twitter",
								"label": "content",
								"offset": 0,
								"slot": "2",
								"type": "t_string_storage"
							},
							{
								"astId": 10,
								"contract": "contracts/Twitter.sol:Twitter",
								"label": "timestamp",
								"offset": 0,
								"slot": "3",
								"type": "t_uint256"
							},
							{
								"astId": 12,
								"contract": "contracts/Twitter.sol:Twitter",
								"label": "likes",
								"offset": 0,
								"slot": "4",
								"type": "t_uint256"
							}
						],
						"numberOfBytes": "160"
					},
					"t_uint16": {
						"encoding": "inplace",
						"label": "uint16",
						"numberOfBytes": "2"
					},
					"t_uint256": {
						"encoding": "inplace",
						"label": "uint256",
						"numberOfBytes": "32"
					}
				}
			},
			"userdoc": {
				"kind": "user",
				"methods": {},
				"version": 1
			}
		}
	}
}